:020000040800F2
:10000000000003202D6700087D6700087D67000859
:100010007D6700087D6700087D670008000000001C
:100020000000000000000000000000007D670008E4
:100030007D670008000000007D6700087D670008FC
:100040007D6700087D6700087D6700087D67000800
:100050007D6700087D6700087D6700087D670008F0
:100060007D6700087D6700087D6700087D670008E0
:100070007D6700087D6700087D6700087D670008D0
:100080007D6700087D6700087D6700087D670008C0
:100090007D6700087D6700087D6700087D670008B0
:1000A0007D6700087D6700087D6700087D670008A0
:1000B0007D6700087D6700087D6700087D67000890
:1000C0007D6700087D6700087D6700087D67000880
:1000D0007D6700087D6700087D6700087D67000870
:1000E0007D6700087D6700087D6700087D67000860
:1000F0007D6700087D6700087D6700087D67000850
:100100007D6700087D6700087D6700087D6700083F
:100110007D6700087D6700087D6700087D6700082F
:100120007D670008691C00087D6700087D6700087E
:100130007D6700087D6700087D6700087D6700080F
:100140007D6700087D6700087D6700087D670008FF
:100150007D6700087D6700087D6700087D670008EF
:100160007D6700087D6700087D6700087D670008DF
:100170007D6700087D6700087D67000800000000BB
:100180007D6700087D6700087D6700087D670008BF
:100190007D6700087D6700087D6700087D670008AF
:0C01A0007D6700087D6700087D6700088F
:1001AC0000EB820C012A00B5DCED006A0ED902F1DD
:1001BC00010E8E450AD21CED017A002B64D137EE6C
:1001CC00667A27EE007A37EE260A00BDB2F1010CF2
:1001DC0049D4614598BFACEB010C00EB8C0C9CED49
:1001EC00007A002BEBD0531C994298BF5B1A00EBA2
:1001FC008303012A93ED005AA2F1020342D09942E3
:10020C0098BF5B1A00EB8300D0ED005AB0EE046A85
:10021C0075EEC57A36EEC74A26EE866AF6EE004AC9
:10022C00F7EE083A24EE234A67EEA47A77EE073A03
:10023C0035EE466A77EE847A36EE236A65EEA45A7A
:10024C0067EE807A36EE656A37EE457A77EE867A17
:10025C0027EE247A67EE807A77EE877A67EE807ADB
:10026C0037EEA60A00BD8C4400EB8C0C9CED007A9A
:10027C00002BA4D0931E013237D50A4400EB820226
:10028C0092ED005A0B44BDE7DCED014A5CED025ADD
:10029C00B0EE046A75EEE47A36EEC74A26EE866A4C
:1002AC00B6EE005AF7EE083A24EE234A67EE857A4A
:1002BC0077EE073A34EEC66A77EE847A36EE236A26
:1002CC0065EE855A67EE807A36EE656A37EE647AAB
:1002DC0077EE867A27EE057A67EE807A77EE877A64
:1002EC0067EE807A37EEA60A00BD914298BF521A8B
:1002FC0000EB820292ED005A0B4483E72DE9F04F9C
:10030C002DED028BF5EEC00AF1EE10FA8BB005461E
:10031C0000F1AF84F7EE007AF4EEE70AF1EE10FA92
:10032C00C8BFF0EE670AE14CD4ED326AD4ED337AF3
:10033C0094ED307AD4ED315A94ED2C6A77EEE67A5E
:10034C0067EEA07A77EEA67A77EEC77A67EEA57A93
:10035C0077EE877AB4EE676AF1EE10FAC4ED307A74
:10036C0040F03183D4F8B430002B40F02C83206F54
:10037C00216B676F666B94ED2F7A421A67EB06035D
:10038C0052EA030C27D007EE902A9FEDC96AF8EECB
:10039C00676A07EE903A66EE866AF8EEE77A77EED1
:1003AC00A67A67EE877AFDEEE76AB8EEE66A16EE95
:1003BC0090CA77EEC67AB0EE676ABEEEE06A16EEC9
:1003CC00103ADA17DB184CEB420253EA020C40F0FD
:1003DC002284C4E90C07A06FA16BE76FE66B421A8D
:1003EC0067EB060352EA030C27D007EE902A9FED29
:1003FC00B06AF8EE676A07EE903A66EE866AF8EE37
:10040C00E77A77EEA67A67EE877AFDEEE76AB8EEC2
:10041C00E66A16EE90CA77EEC67AB0EE676ABEEE62
:10042C00E06A16EE103ADA17DB184CEB420253EA8C
:10043C00020C40F0EA83C4E90E07D4F88000216C6A
:10044C00D4F88470666C421A67EB060352EA030C0C
:10045C0027D007EE902A9FED966AF8EE676A07EEB2
:10046C00903A66EE866AF8EEE77A77EEA67A67EE51
:10047C00877AFDEEE76AB8EEE66A16EE90CA77EE7A
:10048C00C67AB0EE676ABEEEE06A16EE103ADA177C
:10049C00DB184CEB420253EA020C40F0B083C4E987
:1004AC001007D4F88800A16CD4F88C70E66C421A52
:1004BC0067EB060352EA030C27D007EE902A9FED58
:1004CC007C6AF8EE676A07EE903A66EE866AF8EE9A
:1004DC00E77A77EEA67A67EE877AFDEEE76AB8EEF2
:1004EC00E66A16EE90CA77EEC67AB0EE676ABEEE92
:1004FC00E06A16EE103ADA17DB184CEB420253EABC
:10050C00020C40F07683C4E91207D4F89000216DF8
:10051C00D4F89470666D421A67EB060352EA030C2A
:10052C0027D007EE902A9FED626AF8EE676A07EE15
:10053C00903A66EE866AF8EEE77A77EEA67A67EE80
:10054C00877AFDEEE76AB8EEE66A16EE90CA77EEA9
:10055C00C67AB0EE676ABEEEE06A16EE103ADA17AB
:10056C00DB184CEB420253EA020C40F03C83C4E92A
:10057C001407D4F89800A16DD4F89C70E66D421A5B
:10058C0067EB060352EA030C27D007EE902A9FED87
:10059C00486AF8EE676A07EE903A66EE866AF8EEFD
:1005AC00E77A77EEA67A67EE877AFDEEE76AB8EE21
:1005BC00E66A16EE90CA77EEC67AB0EE676ABEEEC1
:1005CC00E06A16EE103ADA17DB184CEB420253EAEB
:1005DC00020C40F00283C4E91607D4F8A000216E87
:1005EC00D4F8A470666E421A67EB060352EA030C49
:1005FC0027D007EE902A9FED2E6AF8EE676A07EE79
:10060C00903A66EE866AF8EEE77A77EEA67A67EEAF
:10061C00877AFDEEE76AB8EEE66A16EE90CA77EED8
:10062C00C67AB0EE676ABEEEE06A16EE103ADA17DA
:10063C00DB184CEB420253EA020C40F0C882C4E9CE
:10064C001807D4F8A800A16ED4F8AC70E66E421A64
:10065C0067EB060352EA030C30D007EE902A9FEDAD
:10066C00146AF8EE676A07EE903A66EE866AF8EE60
:10067C00E77A77EEA67A67EE877ABDEEE77AF8EE40
:10068C00C76A17EE10CA77EEE67AF0EE676AFEEEEE
:10069C00E06A16EE903ADA17DB184CEB420253EA9A
:1006AC00020C40F08E82C4E91A0707E0000000102B
:1006BC000000802F0000000000002043D4E9011747
:1006CC0094F8D0C0BCF1010FD4E9360207F1010651
:1006DC0040F0A882D4ED4A7AD4ED4D6AB7EE007A98
:1006EC00F4EEC77AF1EE10FA20EE260A09DA94ED50
:1006FC004B7A30EE470A20EE270A30EE070A84EDDB
:10070C004B0AD4F83C31002B00F3028323688E4251
:10071C0003EB870383ED000A00D300263346A36066
:10072C00D4F84031002B40F08B82BCF1010F94F8CF
:10073C003081276806EB010940F09F82626B9A4278
:10074C00B8BF1A46236BB8BF0023002A00F02283DF
:10075C0007EE903AB8EE670A5FED2B7A8A4220EEEC
:10076C00270A24BFB2FBF1F301FB1322B24288BF6C
:10077C00A9EB020240F2968443463846FFF710FD7F
:10078C00E26BA36B8DED020A002ABCBF0022002392
:10079C00002A40F0A48301291FED3A0A40F27F841D
:1007AC000122B24288BFA9EB020240F27884434690
:1007BC003846FFF7F5FC626C236C8DED030A002ABA
:1007CC00BCBF00220023002A40F07A8301291FEDD0
:1007DC00470A40F26F840122964238BFA9EB02020D
:1007EC0080F0688443463846FFF7DAFCE26CA36C71
:1007FC008DED040A002ABCBF00220023002A40F021
:10080C00508301291FED550A40F251840122964272
:10081C0038BFA9EB020280F04A8443463846FFF702
:10082C00BFFC626D236D8DED050A002ABCBF002252
:10083C000023002A40F0268301291FED620A40F2B2
:10084C003F840122964238BFA9EB020280F0388423
:10085C0043463846FFF7A4FCE26DA36D8DED060A06
:10086C00002ABCBF00220023002A40F0FC82012990
:10087C001FED700A40F221840122964238BFA9EB89
:10088C00020280F01A8443463846FFF789FC626EF8
:10089C00236E8DED070A002ABCBF00220023002A1C
:1008AC0040F0D28201291FED7D0A40F2FE83012225
:1008BC00964238BFA9EB020280F0F78343463846D4
:1008CC00FFF76EFCE26EA36E8DED080A002ABCBF2A
:1008DC0000220023002A40F0118301291FED8B0A0E
:1008EC0040F2DB830122964280F0D783A9EB02020F
:1008FC0043463846FFF754FC8DED090AD4ED397A9E
:10090C00DDED026A94ED417A9DED036ADDED054A59
:10091C009DED065ADDED075A67EEA67ADDED046A09
:10092C0067EE877AC5ED007AD4ED3A7A94ED427A87
:10093C0067EE867A9DED086A67EE877AC5ED017AD7
:10094C00D4ED3B7A94ED437A67EEA67A67EE877A1C
:10095C00C5ED027A94ED3C7AD4ED446ADDED097A6A
:10096C0027EE247A27EE267A85ED037A94ED3D7AEC
:10097C00D4ED456A27EE057A27EE267A85ED047AC2
:10098C0094ED3E7AD4ED466A27EE257A27EE267A48
:10099C0085ED057A94ED3F7AD4ED476A27EE067A19
:1009AC0027EE267A85ED067AD4ED406A94ED487AE6
:1009BC0067EEA67A67EE877AC5ED077A0BB0BDECC9
:1009CC00028BBDE8F08F1FEDC43AD4ED046A94EDB0
:1009DC00056AD4ED0B2AC4ED2C7A86EE837AC6EE2A
:1009EC00034AD4ED066A94ED076AC6EE833A86EEA6
:1009FC00035AD4ED086A94ED096A86EE834AD4ED65
:100A0C000A6AC6EE035A86EE836AC2EE836A94EDD6
:100A1C002E3A27EE037A64EE834A27EE277A64EEA9
:100A2C00A74A25EE035AFDEEC72ABDEEE42A25EEB1
:100A3C00275A66EE836AFDEEC50A63EE833A24EE0E
:100A4C00034A65EE835AF8EEE21A26EE036AB8EE14
:100A5C00C23A37EE617A74EEC34AB8EEE03A63EE0E
:100A6C00A73A35EE435AB0EE473ABDEEE31A24EE00
:100A7C00274ABEEEE03A65EEA75A26EE276AFDEE4F
:100A8C00C41A66EEA77A13EE103AF8EEC16AB0EE0D
:100A9C00643ABEEEE03A12EE902AD81873EEE63ABB
:100AAC00B8EEE17A4FEAE37342EB430313EE101A0C
:100ABC000022801834EE474AB0EE637ABEEEE07A3C
:100ACC0063672067CB1712EE100A49185B41184474
:100ADC0017EE103A8918B0EE457ABEEEE07AA167AF
:100AEC00D917DB18BDEEE58A4941E0679B1811EE7A
:100AFC00100AC4F8803017EE103A0144F8EEC84AD8
:100B0C00B0EE447ABEEEE07AC4F88410D917DB1844
:100B1C00FDEEC66A75EEE45A10EE900A49419B1838
:100B2C00C4F8883017EE103A0144F8EEE64AB0EEFD
:100B3C00657ABEEEE07AC4F88C10D917DB18BDEEDE
:100B4C00E73A36EE646A11EE900A49419B18C4F8F4
:100B5C00903017EE103A0144F8EEC34AB0EE467AE4
:100B6C00BEEEE07AC4F89410D917DB1818EE100A10
:100B7C00494177EEE47A9B18C4F8983017EE103A96
:100B8C000144B0EE677ABEEEE07AC4F89C10D91737
:100B9C00DB1816EE900A49419B18C4F8A03017EEEA
:100BAC00103A014413EE100AC4F8A410D917DB183C
:100BBC0040EB41019B18C4E92A31C4F8B420FFF77B
:100BCC00D6BBC91846EB0202C4E91A1276E5C9185D
:100BDC0046EB0202C4E9181233E5C91846EB0202CF
:100BEC00C4E91612F9E4C91846EB0202C4E914125E
:100BFC00BFE4C91846EB0202C4E9121285E4C91815
:100C0C0046EB0202C4E910124BE4C91846EB02028F
:100C1C00C4E90E1211E4C91846EB0202C4E90C1225
:100C2C00FFF7D9BB8E4228BF0026B2427FF476ADC7
:100C3C000346A360D4F840310646002B3FF475AD53
:100C4C009FEDC37AF0EE477A85ED007A85ED017A57
:100C5C0085ED027A85ED037A85ED047A85ED057ACA
:100C6C0085ED067AC5ED077A0BB0BDEC028BBDE8BD
:100C7C00F08FDFEDB70AFFF756BB53181B1AA2EB28
:100C8C00000B904288BF9B46BBF1000F00F06481C3
:100C9C00B0429FEDB03A00F28480A6EB000A0195B9
:100CAC00DFF8A89202AE054618E0D3459FEDA80ADE
:100CBC0040F23D81BBF1010F524640F04081121AC7
:100CCC002A448A4200D3521A43463846FFF768FA40
:100CDC009C4BA6EC010A4B4500F0B48059F8082F48
:100CEC00D9F80430002BAEBF184600200022034672
:100CFC000028DAD007EE902AB8EE670AD34520EE2A
:100D0C00030A00F29580BAFBFBF20BFB12A290E0F7
:100D1C0003F1FF3ED4F844319FED8B6A83EA4333F1
:100D2C0083EA534383EA431383EA433888EA5848F7
:100D3C0088EA48181B0AC4F844814FEA182807EEC1
:100D4C00903A07EE108AF8EEE77AB8EEC77A0123EC
:100D5C0003FA0EF377EE877A07EE103A67EE867A8F
:100D6C00B8EEC77AF7EE006A77EEE67A20EE070A5D
:100D7C00F6EE006A77EE807AF5EEC07AF1EE10FAB4
:100D8C0053DB77EEA67AFDEEE77AF8EEE77A87EE9C
:100D9C00870ABBE401299FED6E0A40F2838162460B
:100DAC00E4E4A9EB00060195DFF8A0A10DF1080918
:100DBC0005461AE0B3459FED660A40F2AF80BBF1E1
:100DCC00010F304603D00123984238BF5844C31A50
:100DDC00EA188A4228BF521A43463846FFF7E0F910
:100DEC00584BA9EC010A53452CD05AF8080FDAF8E5
:100DFC000420002AAEBF1346002300201A46002B05
:100E0C00D8D007EE900AB345B8EE670A96BFB6FB8A
:100E1C00FBF030460BFB10609B4520EE030A9CBF99
:100E2C00B3FBFBF30BFB1323CEE777EEE67AAAE7D3
:100E3C0052469B4540F2F38190427FF640AF5A44B4
:100E4C00121A3DE7019D59E507EE903AB8EE670A94
:100E5C00DFED407A914220EE270A9CBFB2FBF1F302
:100E6C0001FB132224E507EE903AB8EE670ADFED9A
:100E7C00397A914220EE270A9CBFB2FBF1F301FBB9
:100E8C001322FAE407EE903AB8EE670ADFED317AF6
:100E9C00914220EE270A9CBFB2FBF1F301FB132217
:100EAC00D0E407EE903AB8EE670ADFED2A7A914269
:100EBC0020EE270A9CBFB2FBF1F301FB1322A6E440
:100ECC0007EE903AB8EE670ADFED227A914220EEF7
:100EDC00270A9CBFB2FBF1F301FB13227CE407EE63
:100EEC00903AB8EE670ADFED1B7A8A4220EE270AA9
:100EFC0024BFB2FBF1F301FB132252E407EE903A4C
:100F0C00B8EE670ADFED137A8A4220EE270AFFF467
:100F1C00EAACB2FBF1F301FB1322E4E4BBF1010FE9
:100F2C0000F0D180B6FBFBF00BFB10604BE7BBF184
:100F3C00010F00F0CA80BAFBFBF20BFB12A20120DE
:100F4C007AE700BF68000010000080332800001012
:100F5C00000000000000802F626B236B5A45BCBF61
:100F6C005A465B46002A40F0B28001291FED080A60
:100F7C0000F2C180B21A43463846FFF711F9E26B12
:100F8C00A36B8DED020A002ABCBF00220023002AAD
:100F9C0040F0258101291FED120A00F23481B21AAA
:100FAC0043463846FFF7FCF8626C236C8DED030A60
:100FBC00002ABCBF00220023002A40F0FC8001293B
:100FCC001FED1D0A00F22381B21A43463846FFF783
:100FDC00E7F8E26CA36C8DED040A002ABCBF00227A
:100FEC000023002A40F0D38001291FED270A00F2CC
:100FFC000C81B21A43463846FFF7D2F8626D236D66
:10100C008DED050A002ABCBF00220023002A40F007
:10101C00AA8001291FED320A00F2FF80B21A434662
:10102C003846FFF7BDF8E26DA36D8DED060A002A78
:10103C00BCBF00220023002A40F0818001291FED53
:10104C003C0A00F2E880B21A43463846FFF7A8F88B
:10105C00626E236E8DED070A002ABCBF00220023AE
:10106C00002A59D101291FED460A00F2D280B21A8A
:10107C0043463846FFF794F8E26EA36E8DED080AEE
:10108C00002ABCBF00220023BABB01291FED500A65
:10109C0003D90122B2423FF629ACB21A28E4B21AA3
:1010AC00FFF785BBB21AFFF767BBB21A06E4B21A98
:1010BC00FFF7B3BBB21AFFF795BBB21AFFF7E3BB4E
:1010CC00B21AFFF7C5BB184681E60246F7E507EEF4
:1010DC00903AB8EE670A5FED617A914220EE270AEA
:1010EC009CBFB2FBF1F301FB13229642BFF442AF5B
:1010FC00A9EB02023FE70122F7E707EE903AB8EEC0
:10110C00670A5FED6C7A8A4220EE270A24BFB2FB95
:10111C00F1F301FB1322BDE707EE903AB8EE670A34
:10112C005FED747A914220EE270A9CBFB2FBF1F37B
:10113C0001FB132296429AD2A9EB020298E707EE22
:10114C00903AB8EE670A5FED7D7A914220EE270A5D
:10115C009CBFB2FBF1F301FB13229642BFF473AFB9
:10116C00A9EB020270E707EE903AB8EE670A5FED62
:10117C00877A914220EE270A9CBFB2FBF1F301FB68
:10118C0013229642BFF44AAFA9EB020247E707EEDF
:10119C00903AB8EE670A5FED917A914220EE270AF9
:1011AC009CBFB2FBF1F301FB13229642BFF421AFBB
:1011BC00A9EB02021EE707EE903AB8EE670A5FED64
:1011CC009B7A914220EE270A9CBFB2FBF1F301FB04
:1011DC0013229642BFF4F8AEA9EB0202F5E607EE35
:1011EC00903AB8EE670A5FEDA57A914220EE270A95
:1011FC009CBFB2FBF1F301FB13229642BFF4CFAEBE
:10120C00A9EB0202CCE60122F7E70122CDE701228D
:10121C00DFE701228EE701229FE70122B1E7B3FB52
:10122C00FBF00BFB103007E6BCEEC07ADFEDA66AD4
:10123C00F8EE477AF0B570EE677AA44C67EEA67AB2
:10124C00A268FDEEE76A064616EE903A4FEA831C5A
:10125C0017EE103A606807330D4606F14A019342C7
:10126C0004EB810188BF1218D31AD1F84821B8EECB
:10127C00E66A9A1A102A77EEC67A0CF1400716D94C
:10128C00934A2468C1F8483102F1800E0EEBC61166
:10129C0002EBC61204EB830E0133DEF800E042F8D9
:1012AC0004EB984298BF00238A42F3D1002205EB4D
:1012BC000C033D44D3ED005A93ED037A95ED002ACF
:1012CC00D3ED133A93ED016AD3ED026AD3ED112AF3
:1012DC0093ED123A93ED051A93ED065AD3ED090AE4
:1012EC00D3ED044A93ED144ADFED7A1A93ED080A14
:1012FC0032EE652A73EEC73A22EE272A72EEC62A20
:10130C0033EE663A63EEA73A32EE252A62EEA72A4E
:10131C00D3ED075A23EE273A73EE873A93ED177AFB
:10132C0072EE862A33EE263A93ED156AD3ED166AE1
:10133C0037EE657A36EE416A76EEC56A27EE277A85
:10134C0026EE276A66EEA76A37EE257AD3ED195A90
:10135C0002EB461236EE016A76EE856A93ED0A1AB6
:10136C0093ED1A5A75EEE05A02F10A015A4A65EEEB
:10137C00A75A35EE415A02EB810275EEA05A25EEC2
:10138C00275AD2ED000A35EE015A22EE202A92EDB0
:10139C00011AD2ED020A32EE212A34EE644A62EED0
:1013AC00812A24EE274A92ED031AD2ED041A72EE2A
:1013BC00822A23EE203A34EE244A33EE223A63EEAC
:1013CC00813AD3ED184A92ED052AD2ED062A73EE36
:1013DC00833A24EE214A74EEC04A34EE234A26EEB8
:1013EC00026A92ED073AD2ED083A36EE046A64EEE0
:1013FC00A74A66EEA26A92ED094A92ED0A2AD3ED4B
:10140C000B2A76EE866A74EE804A27EE037A93ED09
:10141C001B6A93ED0C3A93ED1E0A37EE267A64EEB6
:10142C00A34A36EE626AD3ED1C6AD3ED0D3A74EE24
:10143C00874A65EE845A26EE276A76EEC36A93EDE8
:10144C001D7A93ED0E4A75EEA45A25EE025A36EE2D
:10145C00226A66EEA76AD2ED0B2AD3ED0F4A37EE5D
:10146C00637A35EE255A26EE226A76EE836A27EEEB
:10147C00277A92ED0C3AD3ED1F5A30EE440A36EE31
:10148C00056A66EE836A92ED0D5A37EE237A20EEEA
:10149C00270A75EEE45A76EE866A30EE040A25EEDB
:1014AC00A76A27EE057A92ED0E5A37EE267A60EE91
:1014BC00057AD2ED0F6A36EE240A77EE877A20EEA3
:1014CC00260A30EE270AF0BD000000420000001092
:1014DC007001001000000000480100105A4BDFEDB5
:1014EC005B5AD3F800C070B5D3E9012E0446B0EEB8
:1014FC00655A02EB0E00002116E05E1CB2425DD96B
:10150C0015ED016A36EE476A66EE277A77EE877A32
:10151C0026EEA77A043167EEA77AB1F5006F35EEA7
:10152C00075A75EEA75A6DD007EE901AF8EEE77AC7
:10153C0077EE807ABCEEE77A17EE103A934224BF2E
:10154C00B3FBF2F502FB15339E45B8EE477A2CBF80
:10155C00AEEB0303C31A0CEB8305012B77EEC77AB2
:10156C0095ED007A3AD95E1CB24237D955ED016A35
:10157C0076EEC76A66EEA77A77EE876A0B1907EEE6
:10158C00903AF8EEE77A77EE807ABCEEE77A17EECF
:10159C00103A934224BFB3FBF2F502FB15337345AB
:1015AC00B8EE477A94BFAEEB0303C31A0CEB83057A
:1015BC00012B77EEC77A95ED007A9ED8013B1DD4AE
:1015CC009A4298BF9B1A0CEB830393ED006A36EE9C
:1015DC00476A66EE277A77EE877A99E7013B0FD454
:1015EC009A4298BF9B1A0CEB8303D3ED006A76EEFC
:1015FC00C76A66EEA77A77EE876ABFE71344E2E71D
:10160C001344F0E7DFED127A60EEA77AF4EEE75AB6
:10161C00F1EE10FA02D59FED0D0A70BDB5EEC05A71
:10162C00F1EE10FA0CD4F0EE456A65EEA07A9FED5F
:10163C00097A25EE265A77EE877A85EE270A70BD51
:10164C00F1EE456AF1E700BF000000100000000059
:10165C000AD7233C5F70893030B5D04C94ED525A88
:10166C00F7EE002A72EEC52A2DED048BF5EEC02A9A
:10167C00F1EE10FA94ED538A83B000F1E080B0EEF5
:10168C00627ADFEDC77AD4ED544AB4EEE77AF1EE24
:10169C0010FA00F1A58194ED553A9FEDC27ADFED79
:1016AC00C26AF6EE007A23EE077AB4EEE73AF1EE70
:1016BC0010FA67EE266A80F2BF80F5EEC06AF1EE92
:1016CC0010FA73EE275A19DAFEEE007A77EEA67A44
:1016DC009FEDB66ADFEDB66AFDEEE77AF8EEE77AD3
:1016EC0067EE867A37EE677AB4EEE67AF1EE10FAA8
:1016FC0040F34081DFEDAB7A37EEC77A27EE074A2D
:10170C00DFEDAC7A9FEDAC6ADFEDAC6A9FEDAC2AF5
:10171C00D4ED593A64EE277A77EEC67AB7EE006AC2
:10172C0067EE847A77EEA67AD4ED586A67EE847AFF
:10173C0076EEA36A77EEC27A67EE847AB6EE004A4A
:10174C0077EE867A66EE846A67EE877A36EE667A8C
:10175C0067EEA77AF5EEC07AF1EE10FA76EE676ACC
:10176C0040F21881B1EEE76A36EE676AF5EEC06AB0
:10177C0026EE076AF1EE10FA36EE276A40F2078180
:10178C00F1EEE67A77EEE67AD4F8843267EE877A71
:10179C0077EEA67AF0EE678A002B53D028EE030A78
:1017AC00D4ED567A616894ED577A30EE240A28EE1F
:1017BC00252A30EE270A32EE242AFCEEC07A32EECD
:1017CC00072A17EE902AF8EE677A8A4230EE670AFB
:1017DC0003D3B2FBF1F301FB1322A36820688DED58
:1017EC00016A93421D4638BFCB189A1A0123009008
:1017FC00FEF7D6FCFCEEC27A9DED016A009817EE5E
:10180C00902A8A4224BFB2FBF1F301FB1322AA42B5
:10181C00F8EE677A88BF6B1866EE001A88BF9A1AC2
:10182C0032EE670A98BFAA1A0123FEF7B9FC28EE1C
:10183C00800A30EE210A64E073EE675A46E7B1EE97
:10184C00627A1EE7DFED5F7AB4EEE75AF1EE10FA3A
:10185C00A4DDDFED5D7AB4EEE75AF1EE10FA40F359
:10186C003881F0EE007AB4EEE75AF1EE10FA40F35C
:10187C003681DFED567AB4EEE75AF1EE10FA40F30A
:10188C002A814FF4C650032368EE255A28EE030A2A
:10189C0075EEA45AD4ED577AD4F87C2294ED567A8E
:1018AC00C4F8803230EE240A75EEA77A9A4230EEF4
:1018BC00070AB0EE679A00F0068145490144002002
:1018CC008DED016A0091FFF7AFFC9DED016A009967
:1018DC00F0EE407A66EE277A0120B0EE490ACDEDA3
:1018EC00007AFFF7A1FC94ED527ADDED007A94EDCD
:1018FC00553A28EE800AF7EE002A30EE270A72EEEF
:10190C00C72AC2EE887AB7EE007A77EE837AF4EEC5
:10191C00C77AF1EE10FAC0F29F80D4F89432002B03
:10192C0040F0CF80D4F86C21D4F89432C4F858210C
:10193C00002B40F0C480D4F86821C4F86021B7EEC5
:10194C00007AF4EEC77A4FF0FF33F1EE10FAC4F8D8
:10195C0094326CDB77EEC77AF4EEC77AF1EE10FABC
:10196C00F8DA0123C4F89832C4ED557A03B0BDEC13
:10197C00048B30BDDFED177AB4EEE77AF1EE10FA96
:10198C007FF5BCAEDFED147A37EEC77AB6E6DFED45
:10199C00137AF7E69FED116AE6E600BF000000102F
:1019AC0017B7D138DB0F494083F9223EDB0FC94012
:1019BC00DB0FC93F91EE3836470C50398588083C0F
:1019CC00ABAA2A3E5C8F823F3333B33FB81E3540FF
:1019DC00D8680008DB0FC9BFDB0F49C0000000004E
:1019EC00B6EE000A28EE000A6168206830EE240A80
:1019FC004FF0FF33FCEEC07AC4F8943217EE902A05
:101A0C008A4224BFB2FBF1F301FB1322A368F8EE68
:101A1C00677A934238BF5B1830EE670A9A1A012333
:101A2C0003B0BDEC048BBDE83040FEF7B9BBF5EE5E
:101A3C00C07A0123F1EE10FAC4F8983294D577EEFF
:101A4C00877AF5EEC07AF1EE10FAF8D4C4ED557A37
:101A5C0003B0BDEC048B30BDF5EEC07AF1EE10FA9C
:101A6C003FF55BAFB6EE007AB4EEC73AF1EE10FA82
:101A7C00F4EEC77AACBF01220022F1EE10FAACBF33
:101A8C00012300239A423FF46FAFD4F89432012B18
:101A9C0008BFD4F86C21D4F8943218BF0022012B63
:101AAC00C4F85C214FF0FF3308BFD4F86821C4F8A8
:101ABC00943218BF0022C4F86421002352E700229C
:101ACC003BE7002230E7D4F8781200297FF4F7AE18
:101ADC00F3E61846D8E64FF484500223D4E64FF4CC
:101AEC0004600123D0E600BFDFF8C0C02E4BDCF849
:101AFC00002042F48072CCF80020ACF5806C01E040
:101B0C00013B44D0DCF81424D207F9D5274A264BE4
:101B1C004FF0920CC2F810C0DFF894C001E0013B0A
:101B2C002DD0DCF814249207F9D5204A1E4B92696B
:101B3C00DFF87CC001E0013B2CD0DCF81424120649
:101B4C00F9D51A4A184BDFF868C0106101E0013B67
:101B5C0023D0DCF814241006F9D5144A124B14487F
:101B6C00116101E0013B1BD0D0F814245207F9D5C8
:101B7C000E4A136843F400730020136070470B4A3D
:101B8C00136843F400736FF00100136070474FF05B
:101B9C00FF3070476FF0020070476FF00300704722
:101BAC006FF00400704700BF400D0300005400406C
:101BBC000050004010B5DFF8A0C0864684B0172254
:101BCC0000214FF480644FF080602EFA02F313F082
:101BDC00010F0CBF4FF080534FF48053CCF81830EA
:101BEC000191019B0B2B05DC019B01330193019BA4
:101BFC000B2BF9DDCCF818400291029B0B2B05DC6A
:101C0C00029B01330293029B0B2BF9DDCCF81800DD
:101C1C000391039B0B2B05DC039B01330393039B69
:101C2C000B2BF9DD013AD0D20A4A00234FF40041C4
:101C3C0091610093009B0B2B05DC009B01330093FF
:101C4C00009B0B2BF9DD034B4FF000429A6104B063
:101C5C0010BD00BF00000240000802402DE9F04F0B
:101C6C00184B2DED068B1A6851058DB009D4154B08
:101C7C001A68120500F116840DB0BDEC068BBDE898
:101C8C00F08F4FF48061104A9960104EDFF850804D
:101C9C00D2F804B09FED0EAA98ED058ADFED0D9AEF
:101CAC00DFED0D8A0D4FCDF80CB00023029304AB81
:101CBC00B2467418B7EE009A06F50B6906F69C0549
:101CCC00019325E100640240001000E02000002098
:101CDC00000000346F12033B0000000000000010F5
:101CEC0000000020F6EE083AB4EEE34AF1EE10FAEA
:101CFC0040F3E68134EE634AB1EE003A24EE033A47
:101D0C0033EE093AC4EE032A32EEA34AB4EEC94AC2
:101D1C00F1EE10FA40F3D481F5EEC04AB14B2360DA
:101D2C00F1EE10FA00F1E681B6EE084AF4EEC44A80
:101D3C00F1EE10FA40F3F78174EEC44AF1EE003A7A
:101D4C0064EEA33A73EE893A84EEA33A73EE044A36
:101D5C00F4EEC94AF1EE10FA40F3E581B5EEC05A43
:101D6C00A04B6360F1EE10FA00F1F781F6EE084A31
:101D7C00B4EEE45AF1EE10FA40F3088235EE645AF0
:101D8C00B1EE004A25EE044A34EE094AC5EE043A97
:101D9C0033EEA45AB4EEC95AF1EE10FA40F3F681C0
:101DAC00F5EEC05A8F4BA360F1EE10FA00F10882E9
:101DBC00B6EE085AF4EEC55AF1EE10FA40F3198259
:101DCC0075EEC55AF1EE004A65EEA44A74EE894AE6
:101DDC0085EEA44A74EE055AF4EEC95AF1EE10FAE7
:101DEC0040F30782B5EEC06A7E4BE360F1EE10FA69
:101DFC0000F11982F6EE085AB4EEE56AF1EE10FA2B
:101E0C0040F32A8236EE656AB1EE005A26EE055A88
:101E1C0035EE095AC6EE054A34EEA56AB4EEC96A27
:101E2C00F1EE10FA40F31882F5EEC06A6D4B2361A7
:101E3C00F1EE10FA00F12A82B6EE086AF4EEC66AE8
:101E4C00F1EE10FA40F33B8276EEC66AF1EE005AE0
:101E5C0066EEA55A75EE895A86EEA55A75EE066A97
:101E6C00F4EEC96AF1EE10FA40F32982B5EEC07AAD
:101E7C005C4B6361F1EE10FA00F13B82F6EE086AFE
:101E8C00B4EEE67AF1EE10FA40F34C8237EE667A55
:101E9C00B1EE006A27EE066A36EE096AC7EE065AFC
:101EAC0035EEA67AB4EEC97AF1EE10FA40F33A8226
:101EBC00F5EEC07A4B4BA361F1EE10FA00F14C82B7
:101ECC00B6EE087AF4EEC77AF1EE10FA40F35D82C2
:101EDC0077EEC77AF1EE006A67EEA66A76EE896A4B
:101EEC0087EEA66A76EE077AF4EEC97AF1EE10FA6E
:101EFC0040F34B823B4BE36198F91C30002B80F292
:101F0C005D82394B2034A3420AF1200A00F08C8206
:101F1C00DAF8003043F3170300EE103AB8EEC00ABB
:101F2C0020EE0A0AB5EEC00AF1EE10FA00F11D8798
:101F3C00F0EE40AAD9ED007ADAF8043099ED007A87
:101F4C007AEEE77A43F3170367EEA97A77EE877A8E
:101F5C0007EE103ADAF80830C9ED007AB8EEC77A15
:101F6C0043F3170327EE0A7A07EE903AB5EEC07AE0
:101F7C00F8EEE77AF1EE10FA67EE8A7A01D5B1EE57
:101F8C00477AF5EEC07AF1EE10FA01D5F1EE677AE8
:101F9C0095ED006AD5ED006A019837EE467AF0EEC1
:101FAC00480A27EE297A37EE267A85ED007AD5EDA8
:101FBC00016A95ED017A77EEE67A67EEA97A77EE0B
:101FCC00877AC5ED017A96F88038003B18BF01235B
:101FDC00C7F84031FEF792F996F88038002B40F0A4
:101FEC00D98605E0FFFF7F0020060020FEFFFF4A98
:101FFC009DED044AB4EEC94AF1EE10FAC0F29F8688
:10200C000123DDED054AF4EEC94AF1EE10FAC0F2F7
:10201C008B8601239DED065AB4EEC95AF1EE10FAE7
:10202C00C0F277860123DDED075AF4EEC95AF1EEC2
:10203C0010FAC0F2638601239DED086AB4EEC96AFA
:10204C00F1EE10FAC0F24F860123DDED096AF4EED1
:10205C00C96AF1EE10FAC0F23B8601239DED0A7AB3
:10206C00B4EEC97AF1EE10FAC0F227860123DDED49
:10207C000B7AF4EEC97AF1EE10FAC0F21286012353
:10208C000293B5EEC04AF1EE10FA7FF52BAEFEEEE0
:10209C00083AB4EEE34AF1EE10FA11D5F6EE082A3E
:1020AC00B1EE444A34EE624AF1EE003A64EE233A61
:1020BC0073EE893A84EE233A33EE224AB1EE444A67
:1020CC00FFEE003AF4EEC43AF1EE10FA1FED393A95
:1020DC00D8BFF0EE443A63EE833AF5EEC04ABDEE5B
:1020EC00E34AF1EE10FA14EE103A23F07F4323602A
:1020FC007FF51AAEBEEE084AF4EEC44AF1EE10FAC1
:10210C0011D5B6EE083AF1EE644A74EEC34AB1EE5C
:10211C00004A24EE844A34EE094AC4EE843A73EE43
:10212C00834AF1EE644ABFEE004AB4EEE44AF1EEA3
:10213C0010FA5FED523AD8BFB0EE644A24EE234A4F
:10214C00B5EEC05AFDEEC44AF1EE10FA14EE903A18
:10215C0023F07F4363607FF509AEFEEE084AB4EED0
:10216C00E45AF1EE10FA11D5F6EE083AB1EE455AF2
:10217C0035EE635AF1EE004A65EE244A74EE894A54
:10218C0085EE244A34EE235AB1EE455AFFEE004A4E
:10219C00F4EEC54AF1EE10FA1FED6C4AD8BFF0EE22
:1021AC00454A64EE844AF5EEC05ABDEEE45AF1EEAF
:1021BC0010FA15EE103A23F07F43A3607FF5F8ADCB
:1021CC00BEEE085AF4EEC55AF1EE10FA11D5B6EE81
:1021DC00084AF1EE655A75EEC45AB1EE005A25EE76
:1021EC00855A35EE095AC5EE854A74EE845AF1EEDD
:1021FC00655ABFEE005AB4EEE55AF1EE10FA5FEDF7
:10220C00854AD8BFB0EE655A25EE245AB5EEC06AA1
:10221C00FDEEC55AF1EE10FA15EE903A23F07F431D
:10222C00E3607FF5E7ADFEEE085AB4EEE56AF1EE39
:10223C0010FA11D5F6EE084AB1EE466A36EE646A2B
:10224C00F1EE005A66EE255A75EE895A86EE255A3D
:10225C0035EE246AB1EE466AFFEE005AF4EEC65A29
:10226C00F1EE10FA1FED9F5AD8BFF0EE465A65EE0C
:10227C00855AF5EEC06ABDEEE56AF1EE10FA16EE7F
:10228C00103A23F07F4323617FF5D6ADBEEE086A8A
:10229C00F4EEC66AF1EE10FA11D5B6EE085AF1EE6C
:1022AC00666A76EEC56AB1EE006A26EE866A36EE8E
:1022BC00096AC6EE865A75EE856AF1EE666ABFEE5D
:1022CC00006AB4EEE66AF1EE10FA5FEDB85AD8BFC8
:1022DC00B0EE666A26EE256AB5EEC07AFDEEC66AE9
:1022EC00F1EE10FA16EE903A23F07F4363617FF51E
:1022FC00C5ADFEEE086AB4EEE67AF1EE10FA11D531
:10230C00F6EE085AB1EE477A37EE657AF1EE006ACE
:10231C0067EE266A76EE896A87EE266A36EE257AAD
:10232C00B1EE477AFFEE006AF4EEC76AF1EE10FAEE
:10233C001FEDD26AD8BFF0EE476A66EE866AF5EEFC
:10234C00C07ABDEEE67AF1EE10FA17EE103A23F0F1
:10235C007F43A3617FF5B4ADBEEE087AF4EEC77A85
:10236C00F1EE10FA11D5B6EE086AF1EE677A77EE57
:10237C00C67AB1EE007A27EE877A37EE097AC7EE85
:10238C00876A76EE867AF1EE677ABFEE007AB4EE63
:10239C00E77AF1EE10FADFED546AD8BFB0EE677A47
:1023AC0027EE267AFDEEC77A17EE903A23F07F439C
:1023BC00E36198F91C30002BFFF6A3AD98F91C30A3
:1023CC000BB10023236098F91C30012B1CBF002398
:1023DC00636098F91C30022B1CBF0023A36098F992
:1023EC001C30032B1CBF0023E36098F91C30042B1A
:1023FC001CBF0023236198F91C30052B1CBF002344
:10240C00636198F91C30062B1CBF0023A36198F95B
:10241C001C30072B1CBF0023E361344B2034A34238
:10242C000AF1200A7FF474ADD6F8B838DDF80CB098
:10243C000133C6F8B8382E4B5B68A3EB0B031B09B2
:10244C004FF6FF72934228BF1346B6F8B6289BB2DC
:10245C00934288BFA6F8B638029B002B41F02E8120
:10246C00D6F8B828D6F8BC389A4281F03981D6F81B
:10247C00B828D6F8BC389A42FFF4F9AB95ED007A3F
:10248C00DFED1C7A1C4BB4EEE77AF1EE10FACCBF00
:10249C004FF000624FF400629A61184B1A681205F3
:1024AC007FF5EAAB124A164EDFF86880DFED159A1D
:1024BC009FED159ADFED15AA154F4FF40061996049
:1024CC000023D2F804B0029304AB98ED058A019373
:1024DC00B24606F58064F7EE008A06F50B6906F63F
:1024EC009C05CDF80CB012E1FEFFFF4A200600203F
:1024FC00001000E00AD7A33C000002400064024038
:10250C0020000020000000346F12033B000000008C
:10251C000000001000000020B6EE084AF4EEC44A99
:10252C00F1EE10FA40F3EF8174EEC44AF1EE003A8A
:10253C0064EEA33A73EEA83A84EEA33A73EE044A1F
:10254C00F4EEE84AF1EE10FA40F3DD81B5EEC05A34
:10255C00D94BC4F80432F1EE10FA00F1EF81F6EE2B
:10256C00084AB4EEE45AF1EE10FA40F3008235EE6C
:10257C00645AB1EE004A25EE044A34EE284AC5EE00
:10258C00043A33EEA45AB4EEE85AF1EE10FA40F3E2
:10259C00EE81F5EEC05AC84BC4F80832F1EE10FAD1
:1025AC0000F10082B6EE085AF4EEC55AF1EE10FABC
:1025BC0040F3118275EEC55AF1EE004A65EEA44A5D
:1025CC0074EEA84A85EEA44A74EE055AF4EEE85A65
:1025DC00F1EE10FA40F3FF81B5EEC06AB64BC4F8C9
:1025EC000C32F1EE10FA00F11182F6EE085AB4EE4C
:1025FC00E56AF1EE10FA40F3228236EE656AB1EE2E
:10260C00005A26EE055A35EE285AC6EE054A34EE27
:10261C00A56AB4EEE86AF1EE10FA40F31082F5EE1A
:10262C00C06AA54BC4F81032F1EE10FA00F1228208
:10263C00B6EE086AF4EEC66AF1EE10FA40F3338295
:10264C0076EEC66AF1EE005A66EEA55A75EEA85AF9
:10265C0086EEA55A75EE066AF4EEE86AF1EE10FA0B
:10266C0040F32182B5EEC07A934BC4F81432F1EEEC
:10267C0010FA00F13382F6EE086AB4EEE67AF1EE67
:10268C0010FA40F3448237EE667AB1EE006A27EE18
:10269C00066A36EE286AC7EE065A35EEA67AB4EE0E
:1026AC00E87AF1EE10FA40F33282F5EEC07A824B02
:1026BC00C4F81832F1EE10FA00F14482B6EE087A42
:1026CC00F4EEC77AF1EE10FA40F3558277EEC77A42
:1026DC00F1EE006A67EEA66A76EEA86A87EEA66A45
:1026EC0076EE077AF4EEE87AF1EE10FA40F34382D4
:1026FC00714BC4F81C3298F91C30002B80F25582B7
:10270C006E4B20349C420AF1200A00F08C82DAF8DD
:10271C00003243F3170300EE103AB8EEC00A20EE75
:10272C00290AB5EEC00AF1EE10FA00F1A585B0EE5B
:10273C0040AAD9ED007ADAF8043299ED007A7AEEF3
:10274C00677A43F3170367EE897A77EE877A07EE99
:10275C00103ADAF80832C9ED007AB8EEC77A43F3CA
:10276C00170327EE297A07EE903AB5EEC07AF8EE09
:10277C00E77AF1EE10FA67EEA97A01D5B1EE477A55
:10278C00F5EEC07AF1EE10FA01D5F1EE677A95ED1F
:10279C00006AD5ED006A019837EE467AF0EE480AE9
:1027AC0027EE097A37EE267A85ED007AD5ED016AA7
:1027BC0095ED017A77EEE67A67EE897A77EE877A8D
:1027CC00C5ED017A96F88038003B18BF0123C7F895
:1027DC004031FDF793FD96F88038002B40F05A8578
:1027EC009DED044AB4EEE84AF1EE10FAC0F22E85E3
:1027FC000123DDED054AF4EEE84AF1EE10FAC0F2E1
:10280C001A8501239DED065AB4EEE85AF1EE10FA42
:10281C00C0F206850123DDED075AF4EEE85AF1EE1D
:10282C0010FAC0F2F28401239DED086AB4EEE86A56
:10283C00F1EE10FAC0F2DE840123DDED096AF4EE4C
:10284C00E86AF1EE10FAC0F2CA8401239DED0A7A0F
:10285C00B4EEE87AF1EE10FAC0F2B6840123DDEDA5
:10286C000B7AF4EEE87AF1EE10FAC0F2A1840123AF
:10287C000293B5EEC04AF1EE10FA00F16B84F6EE5D
:10288C00083AB4EEE34AF1EE10FA40F37C8434EEED
:10289C00634AB1EE003A24EE033A33EE283AC4EE22
:1028AC00032A32EEA34AB4EEE84AF1EE10FA40F3F2
:1028BC006A84014B06E000BFFFFF7F00200600206A
:1028CC00FEFFFF4AC4F80032F5EEC04AF1EE10FAF2
:1028DC007FF522AEBEEE084AF4EEC44AF1EE10FAD1
:1028EC0011D5B6EE083AF1EE644A74EEC34AB1EE75
:1028FC00004A24EE844A34EE284AC4EE843A73EE3D
:10290C00834AF1EE644ABFEE004AB4EEE44AF1EEBB
:10291C0010FA5FED153AD8BFB0EE644A24EE234AA4
:10292C00B5EEC05AFDEEC44AF1EE10FA14EE903A30
:10293C0023F07F43C4F804327FF511AEFEEE084A53
:10294C00B4EEE45AF1EE10FA11D5F6EE083AB1EE07
:10295C00455A35EE635AF1EE004A65EE244A74EEA0
:10296C00A84A85EE244A34EE235AB1EE455AFFEEBE
:10297C00004AF4EEC54AF1EE10FA1FED2F4AD8BF0B
:10298C00F0EE454A64EE844AF5EEC05ABDEEE45AC8
:10299C00F1EE10FA15EE103A23F07F43C4F808322A
:1029AC007FF500AEBEEE085AF4EEC55AF1EE10FA01
:1029BC0011D5B6EE084AF1EE655A75EEC45AB1EE71
:1029CC00005A25EE855A35EE285AC5EE854A74EE26
:1029DC00845AF1EE655ABFEE005AB4EEE55AF1EEA8
:1029EC0010FA5FED494AD8BFB0EE655A25EE245A6D
:1029FC00B5EEC06AFDEEC55AF1EE10FA15EE903A3E
:102A0C0023F07F43C4F80C327FF5EFADFEEE085A8D
:102A1C00B4EEE56AF1EE10FA11D5F6EE084AB1EE15
:102A2C00466A36EE646AF1EE005A66EE255A75EE89
:102A3C00A85A86EE255A35EE246AB1EE466AFFEEA8
:102A4C00005AF4EEC65AF1EE10FA1FED635AD8BFD5
:102A5C00F0EE465A65EE855AF5EEC06ABDEEE56AB3
:102A6C00F1EE10FA16EE103A23F07F43C4F8103250
:102A7C007FF5DEADBEEE086AF4EEC66AF1EE10FA32
:102A8C0011D5B6EE085AF1EE666A76EEC56AB1EE6D
:102A9C00006A26EE866A36EE286AC6EE865A75EE0F
:102AAC00856AF1EE666ABFEE006AB4EEE66AF1EE94
:102ABC0010FA5FED7D5AD8BFB0EE666A26EE256A35
:102ACC00B5EEC07AFDEEC66AF1EE10FA16EE903A4B
:102ADC0023F07F43C4F814327FF5CDADFEEE086AC7
:102AEC00B4EEE67AF1EE10FA11D5F6EE085AB1EE24
:102AFC00477A37EE657AF1EE006A67EE266A76EE73
:102B0C00A86A87EE266A36EE257AB1EE477AFFEE92
:102B1C00006AF4EEC76AF1EE10FA1FED976AD8BF9F
:102B2C00F0EE476A66EE866AF5EEC07ABDEEE67A9E
:102B3C00F1EE10FA17EE103A23F07F43C4F8183276
:102B4C007FF5BCADBEEE087AF4EEC77AF1EE10FA62
:102B5C0011D5B6EE086AF1EE677A77EEC67AB1EE69
:102B6C00007A27EE877A37EE287AC7EE876A76EEF8
:102B7C00867AF1EE677ABFEE007AB4EEE77AF1EE80
:102B8C0010FA5FEDB16AD8BFB0EE677A27EE267AFD
:102B9C00FDEEC77A17EE903A23F07F43C4F81C324F
:102BAC0098F91C30002BFFF6ABAD98F91C3013B123
:102BBC000023C4F8003298F91C30012B1CBF0023F1
:102BCC00C4F8043298F91C30022B1CBF0023C4F843
:102BDC00083298F91C30032B1CBF0023C4F80C32AC
:102BEC0098F91C30042B1CBF0023C4F8103298F940
:102BFC001C30052B1CBF0023C4F8143298F91C3070
:102C0C00062B1CBF0023C4F8183298F91C30072B74
:102C1C001CBF0023C4F81C32564B20349C420AF1D2
:102C2C00200A7FF474ADD6F8B838DDF80CB0013357
:102C3C00C6F8B838504B5B68A3EB0B031B094FF677
:102C4C00FF72934228BF1346B6F8B6289BB2934244
:102C5C0088BFA6F8B638029B002B40F04E85D6F8FC
:102C6C00B828D6F8BC389A4280F05985D6F8B828DE
:102C7C00D6F8BC389A42FEF4FFAF95ED007ADFED42
:102C8C003F7A3F4BB4EEE77AF1EE10FACCBF4FF03F
:102C9C0000624FF400629A610DB0BDEC068BBDE88A
:102CAC00F08FFFEE003AF4EEE37AF1EE10FA98BFF3
:102CBC0043F001030293FFF7E4B9FFEE007AB4EEA0
:102CCC00E77AF1EE10FA98BF43F00103FFF7CFB9A2
:102CDC00FFEE007AF4EEE76AF1EE10FA98BF43F0DB
:102CEC000103FFF7BBB9FFEE007AB4EEE76AF1EE31
:102CFC0010FA98BF43F00103FFF7A7B9FFEE007A73
:102D0C00F4EEE75AF1EE10FA98BF43F00103FFF727
:102D1C0093B9FFEE007AB4EEE75AF1EE10FA98BFD1
:102D2C0043F00103FFF77FB9FFEE007AF4EEE74AB8
:102D3C00F1EE10FA98BF43F00103FFF76BB99FED6A
:102D4C00117A029AF4EEC7AAFFEE007AF1EE10FAAD
:102D5C00B4EEE74AACBF01230023F1EE10FA98BFA2
:102D6C0043F001031343FFF74CB9F1EE40AAFFF710
:102D7C00E1B800BF20060020001000E00AD7A33CF9
:102D8C000000024072F97F3F000048430000000041
:102D9C000000802FD7EDA76AD7EDA87A97EDA96A26
:102DAC0077EEE67AB5EE007A67EE867A77EEA67A5B
:102DBC00F4EEC77AF1EE10FAC7EDA77A08D4B1EEAB
:102DCC00007AF4EEC77AF1EE10FAD8BFB0EE677A5B
:102DDC0087ED527AFEF740FC97EDA73A33EE493A6D
:102DEC00B0EE402AB5EEC03AF1EE10FA01D5B1EED4
:102DFC00433AD7F834B05FED1C7A3B6BBBF1000F54
:102E0C00B8BF002323EE273A07EE903AB4EEC93A46
:102E1C00F8EE672A5FED227AB8BF4FF0000BF1EEA7
:102E2C0010FA62EEA72A40F39D841FED280AB7EE34
:102E3C00003AD6F86828D6F86C18D6F86438D7F863
:102E4C0038E0501E584538BF8346A1EB0B0B01EA06
:102E5C00020C0BEA020B03EB8C0C8CED002A0BF131
:102E6C00FF3C0CEA020C03EB8B0B03EB8C0C9BED85
:102E7C00007ADCED007AD7F83CC077EEC77A38BF21
:102E8C00F0EE682A67EEA27ABCF1000F77EE877A33
:102E9C00B8BF4FF0000C67EE837AB8BF4FF0000E4E
:102EAC0077EE807A01F1010B6045CDED047AC6F81E
:102EBC006CB8C0F0FF8307EE90EAB8EE677A5FED6E
:102ECC004C7A27EE277AA1EB0C0C0CEA020C0CF1D5
:102EDC00FF3E0EEA020E03EB8C0C03EB8E0EDCEDC8
:102EEC00006ADEED007AD7F844C0D7F840E077EE00
:102EFC00E67ABCF1000F67EE877AB8BF4FF0000C92
:102F0C0077EEA67AB8BF4FF0000E67EE837A604575
:102F1C0077EE807ACDED057AC0F0C88307EE90EAA3
:102F2C00B8EE677A5FED667A27EE277AA1EB0C0C88
:102F3C000CEA020C0CF1FF3E0EEA020E03EB8C0CB9
:102F4C0003EB8E0EDCED006ADEED007AD7F84CC098
:102F5C00D7F848E077EEE67ABCF1000F67EE877A97
:102F6C00B8BF4FF0000C77EEA67AB8BF4FF0000E4A
:102F7C0067EE837A604577EE807ACDED067AC0F005
:102F8C00918307EE90EAB8EE677A5FED7F7A27EED1
:102F9C00277AA1EB0C0C0CEA020C0CF1FF3E0EEAAA
:102FAC00020E03EB8C0C03EB8E0EDCED006ADEEDF7
:102FBC00007AD7F854C0D7F850E077EEE67ABCF137
:102FCC00000F67EE877AB8BF4FF0000C77EEA67A49
:102FDC00B8BF4FF0000E67EE837A604577EE807ACB
:102FEC00CDED077AC0F05A8307EE90EAB8EE677A17
:102FFC005FED997A27EE277AA1EB0C0C0CEA020C08
:10300C000CF1FF3E0EEA020E03EB8C0C03EB8E0E62
:10301C00DCED006ADEED007AD7F85CC0D7F858E03A
:10302C0077EEE67ABCF1000F67EE877AB8BF4FF007
:10303C00000C77EEA67AB8BF4FF0000E67EE837ADD
:10304C00604577EE807ACDED087AC0F0238307EEE9
:10305C0090EAB8EE677A5FEDB27A27EE277AA1EBA9
:10306C000C0C0CEA020C0CF1FF3E0EEA020E03EB08
:10307C008C0C03EB8E0EDCED006ADEED007AD7F8DB
:10308C0064C0D7F860E077EEE67ABCF1000F67EE2B
:10309C00877AB8BF4FF0000C77EEA67AB8BF4FF026
:1030AC00000E67EE837A604577EE807ACDED097A73
:1030BC00C0F0EC8207EE90EAB8EE677A5FEDCC7A5E
:1030CC0027EE277AA1EB0C0C0CEA020C0CF1FF3E5C
:1030DC000EEA020E03EB8C0C03EB8E0EDCED006A99
:1030EC00DEED007A77EEE67AD7E91AEC67EE877AAE
:1030FC00BCF1000F77EEA67A67EE837A77EE807AD2
:10310C00CDED0A7AC0F22A836045C0F0BC8207EE8E
:10311C0090EAB8EE677A5FEDE27A27EE277A60469E
:10312C00091A1140481E024003EB810103EB820394
:10313C00D1ED006AD3ED007A77EEE67A67EE877A06
:10314C0077EEA67A67EE837A77EE807ACDED0B7AFE
:10315C00FEF74EBFFEEE083AB4EEE34AF1EE10FA7B
:10316C0011D5F6EE082AB1EE444A34EE624AF1EE7D
:10317C00003A64EE233A73EEA83A84EE233A33EE27
:10318C00224AB1EE444AFFEE003AF4EEC43A9FED07
:10319C003C3AF1EE10FAD8BFF0EE443A63EE833AC3
:1031AC00BDEEE34A14EE103A23F07F43FFF78ABBDF
:1031BC00FFEE003AF4EEE37AF1EE10FA98BF43F02A
:1031CC0001030293FFF755BBFFEE007AB4EEE77AEA
:1031DC00F1EE10FA98BF43F00103FFF740BBFFEE8E
:1031EC00007AF4EEE76AF1EE10FA98BF43F00103AF
:1031FC00FFF72CBBFFEE007AB4EEE76AF1EE10FAA3
:10320C0098BF43F00103FFF718BBFFEE007AF4EE12
:10321C00E75AF1EE10FA98BF43F00103FFF704BB35
:10322C00FFEE007AB4EEE75AF1EE10FA98BF43F0D5
:10323C000103FFF7F0BAFFEE007AF4EEE74AF1EE85
:10324C0010FA98BF43F00103FFF7DCBA9FED0D7A3B
:10325C00029AB4EEC7AAFFEE007AF1EE10FAB4EEC1
:10326C00E74AACBF01230023F1EE10FA98BF43F0FC
:10327C0001031343FFF7BDBAB1EE40AAFFF759BAE9
:10328C00FEFFFF4A72F97F3F000048430000802F89
:10329C0000000000D7EDA76AD7EDA87A97EDA96AD0
:1032AC0077EEE67AB5EE007A67EE867A77EEA67A56
:1032BC00F4EEC77AF1EE10FAC7EDA77A08D4B1EEA6
:1032CC00007AF4EEC77AF1EE10FAD8BFB0EE677A56
:1032DC0087ED527AFEF7C0F997EDA73A33EE683ACC
:1032EC00B0EE402AB5EEC03AF1EE10FA01D5B1EECF
:1032FC00433AD7F834B05FED1C7A3B6BBBF1000F4F
:10330C00B8BF002323EE273A07EE903AB4EEE83A22
:10331C00F8EE672A5FED237AB8BF4FF0000BF1EEA1
:10332C0010FA62EEA72A40F30B821FED270AB7EEC4
:10333C00003AD6F86828D6F86C18D6F86438D7F85E
:10334C0038E0501E584538BF8346A1EB0B0B01EA01
:10335C00020C0BEA020B03EB8C0C8CED002A0BF12C
:10336C00FF3C0CEA020C03EB8B0B03EB8C0C9BED80
:10337C00007ADCED007AD7F83CC077EEC77A38BF1C
:10338C00F0EE6A2A67EEA27ABCF1000F77EE877A2C
:10339C00B8BF4FF0000C67EE837AB8BF4FF0000E49
:1033AC0077EE807A01F1010B6045CDED047AC6F819
:1033BC006CB8C0F0618107EE90EAB8EE677A5FED09
:1033CC004D7A27EE277AA1EB0C0C0CEA020C0CF1CF
:1033DC00FF3E0EEA020E03EB8C0C03EB8E0EDCEDC3
:1033EC00006ADEED007AD7F844C0D7F840E077EEFB
:1033FC00E67ABCF1000F67EE877AB8BF4FF0000C8D
:10340C0077EEA67AB8BF4FF0000E67EE837A604570
:10341C0077EE807ACDED057AC0F02A8107EE90EA3E
:10342C00B8EE677A5FED677A27EE277AA1EB0C0C82
:10343C000CEA020C0CF1FF3E0EEA020E03EB8C0CB4
:10344C0003EB8E0EDCED006ADEED007AD7F84CC093
:10345C00D7F848E077EEE67ABCF1000F67EE877A92
:10346C00B8BF4FF0000C77EEA67AB8BF4FF0000E45
:10347C0067EE837A604577EE807ACDED067AC0F000
:10348C00F38007EE90EAB8EE677A5FED807A27EE6C
:10349C00277AA1EB0C0C0CEA020C0CF1FF3E0EEAA5
:1034AC00020E03EB8C0C03EB8E0EDCED006ADEEDF2
:1034BC00007AD7F854C0D7F850E077EEE67ABCF132
:1034CC00000F67EE877AB8BF4FF0000C77EEA67A44
:1034DC00B8BF4FF0000E67EE837A604577EE807AC6
:1034EC00CDED077AC0F0BC8007EE90EAB8EE677AB3
:1034FC005FED9A7A27EE277AA1EB0C0C0CEA020C02
:10350C000CF1FF3E0EEA020E03EB8C0C03EB8E0E5D
:10351C00DCED006ADEED007AD7F85CC0D7F858E035
:10352C0077EEE67ABCF1000F67EE877AB8BF4FF002
:10353C00000C77EEA67AB8BF4FF0000E67EE837AD8
:10354C00604577EE807ACDED087AC0F0858007EE85
:10355C0090EAB8EE677A5FEDB37A27EE277AA1EBA3
:10356C000C0C0CEA020C0CF1FF3E0EEA020E03EB03
:10357C008C0C03EB8E0EDCED006ADEED007AD7F8D6
:10358C0064C0D7F860E077EEE67ABCF1000F67EE26
:10359C00877AB8BF4FF0000C77EEA67AB8BF4FF021
:1035AC00000E67EE837A844577EE807ACDED097A4A
:1035BC004ED807EE90EAB8EE677A5FEDCC7A27EE3C
:1035CC00277AA1EB0C0C0CEA020C0CF1FF3E0EEA74
:1035DC00020E03EB8C0C03EB8E0EDCED006ADEEDC1
:1035EC00007A77EEE67AD7E91AEC67EE877ABCF1C7
:1035FC00000F77EEA67A67EE837A77EE807ACDEDC0
:10360C000A7AC0F2998060453AD307EE90EAB8EE98
:10361C00677A5FEDE27A27EE277A6046091A114045
:10362C00481E024003EB810103EB8203D1ED006ADB
:10363C00D3ED007A77EEE67A67EE877A77EEA67AA4
:10364C0067EE837A77EE807ACDED0B7AFFF7C8B808
:10365C001FEDF17A8446B4E71FEDF37A84467EE7DA
:10366C009FED677A844647E79FED657A844610E7BD
:10367C009FED637A8446D9E69FED617A8446A2E693
:10368C009FED5F7ACAE79FED5E7A49E59FED5C7A24
:10369C00844617E59FED5A7A8446E0E49FED587A0C
:1036AC008446A9E49FED567A844672E49FED547AE1
:1036BC0084463BE49FED527A844604E4D6F8B8384D
:1036CC0003F2EE23C6F8D03996F8B438013386F8F5
:1036DC00B438D6F8B828D6F8BC389A42FEF4C7AE3F
:1036EC00D6F8B838D6F8D019464A8B4234BF4FF4C6
:1036FC00803301239361FEF7BABED6F8B83803F2D3
:10370C00EE23C6F8D03996F8B438013386F8B438BD
:10371C00D6F8B828D6F8BC389A42FFF4A7AAD6F83F
:10372C00B838D6F8D019374A8B4234BF4FF48033AF
:10373C0001239361FFF79ABA4FF0000EF44664E749
:10374C00DFED317AB4EEE73AF1EE10FA78EEC31A07
:10375C0017D4DFED2B7A21EEA70AEAE54FF0000E25
:10376C00F446D4E4DFED287AB4EEE73AF1EE10FA41
:10377C0079EE431A1ED4DFED227A21EEA70AFFF769
:10378C0058BBD7E901125B46BBF1000F32D059454B
:10379C00B0EE620A9CBFBBFBF1F301FB13B3934287
:1037AC0088BF5218D21A38680123FCF7F9FC20EEB6
:1037BC00210ABEE5D7E901125B46BBF1000F13D01D
:1037CC005945B0EE620A9CBFBBFBF1F301FB13B38E
:1037DC00934288BF5218D21A38680123FCF7E0FCD8
:1037EC0020EE210AFFF725BB01299FED050AF3D92D
:1037FC000123EDE701299FED020AD4D90123CEE77D
:10380C00000000000000024077BE7F3F704700BF01
:10381C00054BD3F888204FF0006142F47002C3F8D6
:10382C0088209960704700BF00ED00E02DE98048CA
:10383C00AB4AAC4B9A42AFB016D2013B9B1A032B4E
:10384C0011460FD99B080133580802EBC005002420
:10385C00C1E900440831A942FAD1B3EB400F03D0BF
:10386C0002EBC002002313604FF0E0219E4BD1F815
:10387C00FC2D002042F08072C1F8FC2D58601A68B3
:10388C009A4942F001021A600B68994A43F480335A
:10389C000B60D2F800389D03FBD5944B95491A6CFC
:1038AC00954842F080521A641A6C0A6840F205740A
:1038BC0042F440420A6004609A68904922F47C42C7
:1038CC0022F0F00242F414429A6059601A68884956
:1038DC0042F080721A60D1F800389C01FBD5834B02
:1038EC009A6822F0030242F002029A609A6802F08F
:1038FC000C02082AFAD10192814AC3F88820D3F825
:10390C008C207B4922F4700222F4F85242F4C062FB
:10391C00C3F88C201A6842F080521A60D1F8003833
:10392C009800FBD5714B9A6802F00C02042A02F045
:10393C00E786082A02F0CB86724B6C4A724C91686F
:10394C00C1F3031104F11000615CCB406F490B60B3
:10395C00136B43F0FE031363136B04F5A07B4FF062
:10396C0003094FF002084FF0010E4FF00F0C0C271B
:10397C000268037911685E0009FA06F521EA05016F
:10398C0008FA06F63143116051680EFA03F621EA83
:10399C0006015160916829439160D168072B21EA97
:1039AC000501D16094BF0021012102EB810203F0DB
:1039BC000703116A9B000CFA03F5083021EA050194
:1039CC0007FA03F30B4358451362D1D1474A936B63
:1039DC0043F0010393634E4B926B4E4A4FF460518C
:1039EC0019644FF4EA7159644FF483119964DA64E1
:1039FC009A6D9706FCD409221A6544F61F6300BF22
:103A0C001A46013B002AFAD1414B9A6D9606FCD41A
:103A1C000A221A653E4B9A6D9506FCD4EB221A6568
:103A2C003B4B9A6D9006FCD43B4A1A654FF49F624F
:103A3C005A65374B9A6D9106FCD42C4ADFF8F0A0EE
:103A4C00136B43F00A031363344B126B1A6822F4A2
:103A5C0040121A60DA6822F4401242F48012DA60E2
:103A6C001A6822F440021A60DA6822F4400242F426
:103A7C008002DA602A4A116821F440011160D16891
:103A8C0021F4400141F48001D160116821F04071B2
:103A9C001160D16821F0407141F08071D1601A68D9
:103AAC0022F440121A60DA6822F4401242F48012B6
:103ABC00DA601A6822F440021A60DA6822F44002D2
:103ACC0042F48002DA601B695A05164B4CBFDFEDDD
:103ADC00168ADFED168ACAF800304FF4E01229E09E
:103AEC0000000010E80A0010001000E0003802404E
:103AFC000030024000700040003C02400854400777
:103B0C00005600020024F40080670008000000202A
:103B1C00000100A0610301010C60040000040240DC
:103B2C00000C0240000010D00080BB4700606A49C6
:103B3C0000000010CAF80420002503F5E00243F849
:103B4C00045B9A42FBD1C04BCAF8BC30CAF8C430F3
:103B5C00BE4BCAF8B030BE4BCAF81430BD4BCAF8D5
:103B6C001830BD4BCAF81C30BC4BCAF82030BC4BCB
:103B7C00CAF82430BB4BCAF82830BB4BCAF82C30DF
:103B8C00BA4BBB49CAF8C830DFF814C3B94BCAF8F2
:103B9C00CC3000204FF07E5300220126CAF81010C2
:103BAC000021CAE93522CAF8C030CAF8E430CAF894
:103BBC000431CAF80820CAF8DC208AF8E020CAE9E7
:103BCC000C01CAE90E01CAE91001CAE91201CAE9DD
:103BDC001401CAE91601CAE91801CAE91A01CAEDA9
:103BEC002E8ACAF8B4608AF8D060CAF8E830CAE9FC
:103BFC00502CA14F8AF830613A69CAF80831CAF8DA
:103C0C00EC30CAF80C31CAF8F030CAF81031CAF8E6
:103C1C00F430CAF81431CAF8F830CAF81831CAF8B6
:103C2C00FC30CAF81C31CAF80031CAF82031CAF885
:103C3C002831CAF834313B69CAF82C516FEA133376
:103C4C00B34003F0020326EAD22213434FF0785E0E
:103C5C00032BCAF824E1CAF8385102F02E8504EB84
:103C6C008303D3F84031182B08BF0023834ACAF8CA
:103C7C003C311369824A834F1B055CBF824BCAF8E7
:103C8C002831136B43F002031363136C43F480432A
:103C9C0013647A4B116C196821F0406141F000619A
:103CAC001960996841F000619960596A21F47001BA
:103CBC0041F4A0015962196821F0405141F00051C2
:103CCC001960996841F000519960596A21F070614E
:103CDC0041F0A0615962196821F0404141F0004166
:103CEC001960996841F000419960596A21F070415E
:103CFC0041F0A0415962196821F0407141F0807186
:103D0C0019604FF480506149986100254FF44D7350
:103D1C000B604D600B6843F040030B60536C43F435
:103D2C0080035364536C136B43F038031363136BAE
:103D3C00574B186820F0300040F02000186058688D
:103D4C0020F004005860986840F030009860D86803
:103D5C0020F03000D860186A20F4706040F4C06025
:103D6C001862186820F4407040F4007018605868AD
:103D7C0020F010005860986840F440709860D86843
:103D8C0020F44070D860186A20F4702040F4C020F1
:103D9C001862186820F4406040F40060186058689D
:103DAC0020F020005860986840F440609860D86813
:103DBC0020F44060D860186A20F4700001F5EA31F4
:103DCC0040F4C00018620B6823F4405343F40053D2
:103DDC000B604B6823F040034B608B6843F44053FB
:103DEC008B60CB6823F44053CB600B6A23F0706379
:103DFC0043F0C0630B62274B186820F4405040F42A
:103E0C0000501860586820F040005860986840F4E2
:103E1C0040509860D86820F44050D860186AA1F5DA
:103E2C00344120F0706040F0C060186201264F6091
:103E3C00194B1A488E6007F20147C8600B614F623C
:103E4C008E62C8620B632DE06F12833ACAF249F19D
:103E5C0000002042000070420000A0420000C84256
:103E6C000000F04200000C4300002043CDCCCC3EBF
:103E7C000000A041CDCCCC3F000C0240000402401D
:103E8C0000380240C12012007D99D63E0038004017
:103E9C0000100240001402408007FF00FF0F0600D4
:103EAC0067452301136B43F480031363136BA84B17
:103EBC009D629A6A12F00102FBD1A6491963DFF8E0
:103ECC00DC92A549C3F834904FF48070D8629962A3
:103EDC00C3F888209E4BD3F8882012F0010BFAD13E
:103EEC009E49C3F890109E49C3F894109D4A9E4970
:103EFC004FF48070C3F88C00C3F88810102182F83E
:103F0C0039134FF0007151609A6A42F001029A62C3
:103F1C00D3F8882042F00102C3F88820934B944ACE
:103F2C00596A41F480315962596841F480315960C1
:103F3C00136B43F001031363136B8E4B1A6822F05F
:103F4C00300242F010021A605A684FF4802122F0BD
:103F5C0004025A609961CDF830B00C9B864A9342AA
:103F6C0005DC0C9B01330C930C9B9342F9DD814BCC
:103F7C001A6822F0300242F010021A605A680421CA
:103F8C0022F004025A60996100230B930B9B7A4A2E
:103F9C00934205DC0B9B01330B930B9B9342F9DD96
:103FAC00734A764B116B41F002011163116B196866
:103FBC0021F4403141F400311960596841F48071A9
:103FCC005960996841F480319960D96821F4403185
:103FDC0041F48031D960596A21F00F0141F004019C
:103FEC005962196821F4402141F400211960596883
:103FFC0041F400715960996841F480219960D96845
:10400C0021F4402141F48021D960596A21F0F0015A
:10401C0041F040015962136C43F400131364136CA8
:10402C00574B4FF400421A6000212A2219605A6043
:10403C00D222DA6101252B221A624FF6FF361D605F
:10404C000846504A01E0013A02D09C69A707FAD40D
:10405C001C684C4A44F480741C6001E0013A02D0A4
:10406C005C69E407FAD55A69D20741F110814A001C
:10407C00D2B2454C1A6105E0570501F11381013CA0
:10408C0001F04B845A699707F6D59A691A684C095E
:10409C0009EB840442F400721A60D4F8047801F03D
:1040AC001F0205FA02F23A43C4F804280A900A9A4D
:1040BC00B2F5FA6F06DA0A9A01320A920A9AB2F546
:1040CC00FA6FF8DB01318029BBD1304BC9F81438B9
:1040DC007F210220FDF708FDF02105460320FDF7A6
:1040EC0003FD362105430420FDF7FEFCFF210543AB
:1040FC000720FDF7F9FC002105430220FDF7F4FC35
:10410C00102105430620FDF7EFFC00210543072095
:10411C00FDF7EAFC1E4B05435D6008461D4D184932
:10412C001D4B92249327EE260A6815F801CB42F416
:10413C0080720A608646144A02E0013A01F0488710
:10414C00D3F81404C007F8D50F4A0C612BE000BF5C
:10415C0000640240205801401855030040580140AB
:10416C002004002000E100E040550300005801400D
:10417C000038024000000240DF93040000040240BB
:10418C0000540040410D0300400D0300EEFFC00041
:10419C0000000020CC6800080050004020000020E7
:1041AC00013A01F08387D3F814048007F8D58A69A3
:1041BC001B4A02E0013A01F00B87D3F81404000605
:1041CC00F8D5C1F810C0164AF44602E0013A01F0E5
:1041DC00D885D3F814044007F8D50A6842F48072E5
:1041EC000A600F4A02E0013A01F0CB85D3F81404BF
:1041FC00C007F8D50F610A6822F480620A60084A89
:10420C0002E0013A01F08D87D3F814048007F8D549
:10421C008A690A6842F400720A60014A05E000BF2C
:10422C00400D0300013A01F0AC85D3F814044006AC
:10423C00F8D56046D1F810C00A6842F480620A6072
:10424C0009EB000282F818C801300A287FF46CAF21
:10425C00B54AB64B116BB64D41F001011163116BB0
:10426C00196821F4407141F480711960196821F4C6
:10427C00406141F4806119601968102721F44051A4
:10428C00202019609F619861116B41F0030111634B
:10429C00116B196821F0030141F0010119604FF411
:1042AC0080319961196821F00C0141F00401196009
:1042BC0002219961196821F4404141F4804119604F
:1042CC0080219961196821F4403141F480311960E1
:1042DC004FF480719961196821F4400141F4800117
:1042EC00196000264FF400619961A9F8246889F8D7
:1042FC002A68A9F82868296821F00F0141F0050106
:10430C0029604FF44031A961116B41F00501116333
:10431C00116B196821F4407141F4807119601968AE
:10432C0021F4406141F480611960196821F0404129
:10433C0041F080411960196805F5806521F4405100
:10434C001960296821F4401141F480112960296811
:10435C0021F0407141F0807129604FF080644FF082
:10436C0000419F619861AC619961136B43F0040348
:10437C001363136B2B6823F00C032B60EB6823F097
:10438C000C0343F00403EB602B6823F030032B6029
:10439C00EB6823F030033B43EB602B6823F0C00346
:1043AC002B60EB6823F0C00343F04003EB602B68F9
:1043BC0023F440732B60EB6823F4407343F4807355
:1043CC00EB602B6823F440632B60EB6823F44063B1
:1043DC0043F48063EB602B6823F440532B60EB6851
:1043EC0023F4405343F480535A46DDF804B0EB6099
:1043FC00B0463446ABF1080707EB071007EB00108B
:10440C0000EB00300192FDF7D5FB00230993099BCB
:10441C00019A0B2B05DC099B01330993099B0B2B90
:10442C00F9DD00230893089B0B2B05DC089B01335B
:10443C000893089B0B2BF9DD0121286901FA07F77A
:10444C0044EA070310F0200F9BB208BF1C4601FA88
:10445C000BF38B4444EA030110F0400F89B208BF00
:10446C000C4648EA070110F0080F89B208BF8846CD
:10447C003743B9B248EA030710F0100FBFB208BFB8
:10448C00B84610F0020F08BF0E46334310F0040F6D
:10449C009BB208BF1E46BBF1100FABD1254893460B
:1044AC00FDF788FB204BA9F83248A9F83488A9F805
:1044BC0036685A6C204942F480625A641A6B42F096
:1044CC0020021A635B6C0B6843F440330B60A1F55C
:1044DC0071411A4B4A6822F4403242F480324A60ED
:1044EC00002206215A60DA6259634FF4E011196117
:1044FC00012199600D920D9B42F20F72934205DCE3
:10450C000D9B01330D930D9B9342F9DD0649084A2F
:10451C000B6B0B48DFF830C00A4F43F00F030B63F3
:10452C000B6BD36812E000BF003802400000024061
:10453C00000402407777770000140240002201400B
:10454C0000080240FFFF03003480373A23F4700365
:10455C00D360C3686FF38D03C360D2F80C3823F0BB
:10456C007073C2F80C38A2F580620024D068AD4B91
:10457C0020F04040D060486C40F010004864496C1A
:10458C001168A94821F4701141F420111160516A8D
:10459C0021F47F6141F4EE615162A449CAF84C11D7
:1045AC004FF087410022CAF8501140F2D92E4FF03B
:1045BC007E51CAF84811CAF86011CAF86411CAF8D9
:1045CC005421CAF85821CAF85C21CAF898424FF015
:1045DC00FF35C0F808E04FF0004642F20C0EC0F870
:1045EC000CE0CAF86811CAF86C21CAF89452CAE9EE
:1045FC009C66CAE99E45CAF89C12CAF8A012CAF871
:10460C00A4C2C9F86878CAF88052CAF88442CAF8B9
:10461C009042CAF88822CAF88C22C9F8643803F58B
:10462C00801143F8042B9942FBD10023C9F86C3854
:10463C007F4BDFED802A9FED804ADFED801A9FEDE6
:10464C00802ADFED804A9FED803ADFED803AF6EE6E
:10465C00007AC3ED007AC3ED017AC3ED027A4FF410
:10466C008073A9F87C38FF220123CDE90232B0EE29
:10467C00678A99F88038002B40F07C841BF0030388
:10468C0040F0D281724AD1689268724A4FF08051E0
:10469C0091610F930F9B272B05DC0F9B01330F931D
:1046AC000F9B272BF9DD6A4A93689B07FCD50123E6
:1046BC001373674A9368DF07FCD5137B644A89F848
:1046CC00843893689E07FCD5A0231373604A9368C3
:1046DC00DD07FCD5137B5E4A89F8853893689C0707
:1046EC00FCD5002313735A4A9368D807FCD5137B67
:1046FC00574A89F88638936813F08003FBD1554AE2
:10470C004FF4805191610E930E9B272B05DC0E9B71
:10471C0001330E930E9B272BF9DD4D4BDA689B680A
:10472C004C4B4FF080529A6100230F930F9B272B19
:10473C0005DC0F9B01330F930F9B272BF9DD444AAC
:10474C0093689907FCD501231373414A9368DB07DF
:10475C00FCD5137B3E4A89F8873893689F07FCD5B4
:10476C00E02313733A4A9368DE07FCD5137B384A6F
:10477C0089F8883893689D07FCD500231373344A55
:10478C009368DC07FCD5137B314989F889388B6831
:10479C0013F08003FBD11A462E4B4FF480519961D4
:1047AC000E920E9B272B05DC0E9B01330E930E9B5A
:1047BC00272BF9DD99F8854899F8863899F88818E7
:1047CC00240204F470641C43090299F8893801F43A
:1047DC007061194301F0098040F23623994241F38C
:1047EC00D78640F28153994241F3018540F6060386
:1047FC00994241F3F28440F64B23994241F3E4840D
:10480C0040F60153994241F3BA8440F6FF73994242
:10481C0041F0C6860D460A460F48836843F0804334
:10482C0083601BE0000000D0001001400000B44584
:10483C009008002017B7D1388FC2753D95BFD6337D
:10484C000AD7233C000000005F708930CAF249F19E
:10485C0000380040000402400022014003689B071E
:10486C00FCD5C36CC1489FEDC26AD0ED026A9FEDC6
:10487C00C17ADFEDC15AC3F30B0307EE903AF8EEA1
:10488C00677A77EEE67A67EE867A77EEA67A37EE77
:10489C00C77AC0ED027AFCEEE77A27EE257A17EE9E
:1048AC00903AA9F8383899F88038002B00F00C872A
:1048BC0007EE901A9FEDB16AF8EEE77AF7EE006A10
:1048CC0067EE867AF4EEE67AF1EE10FA41F3D080D8
:1048DC00F0EE667AA54B9FEDAA6A1B7BDFEDA95A19
:1048EC00022B18BFB0EE446A67EE867AB4EEE57A16
:1048FC00F7EE006AF1EE10FA76EEE76A40F3CA873B
:10490C00DFED9B7AB4EEE77AF1EE10FA41F15680C6
:10491C009D4BD3ED077AF5EEC07AF1EE10FA0ADD75
:10492C00994BD3ED076AF5EE007AF4EEE76AF1EEF7
:10493C0010FA00F1CE87F1EE007AF4EEE76AF1EEB0
:10494C0010FAD8BFF0EE667ADAF88002CAEDA87ACF
:10495C00002824DB854B1B69834220D04FF0FF33AA
:10496C00CAF87C3203280346884AA8BF032303EB0A
:10497C00431302EB83120023CAF87832844B043AB7
:10498C0052F8041F43F8041B82498B42F8D1A1F55D
:10499C000463CAF87832754BCAF87C021861F0EEE1
:1049AC00647A77EEC87A9FED7C7A99F87C3867EE5A
:1049BC00877A38EE278A002B00F01A87724BD3EDDA
:1049CC00017A38EE677AB5EEC07AF1EE10FA00F1A2
:1049DC009786DFED726AB4EEE67AF1EE10FA00F12A
:1049EC00978699F87D38002B41F0AF80B4EEE78ABA
:1049FC00F1EE10FA05D8B4EE678AF1EE10FA00F079
:104A0C008786614B83ED028A012389F87D385E4BE2
:104A1C00C3ED007A554BC3ED057A5B4BA9F82E48D4
:104A2C00A9F8305803ED058A0BF1010301931BF033
:104A3C003F0340F027845A4A4FF48011916113933D
:104A4C00139B0B2B05DC139B01331393139B0B2B29
:104A5C00F9DD534B10229A6100231293129B0B2BFE
:104A6C0005DC129B01331293129B0B2BF9DD0021F9
:104A7C004B480D224FF400160C46202586611094ED
:104A8C00109B0B2B05DC109B01331093109B0B2BF5
:104A9C00F9DD03698561119413F0400F4FEA410170
:104AAC00119B89B218BF41F001010B2B05DC119B46
:104ABC0001331193119B0B2BF9DD013ADED1384BED
:104ACC004FF400128F079A6143BFC1F3800282F04A
:104ADC000102D2B2022211F0080F6FEA010C0CBFD6
:104AEC00022401240E060CF0010CC1F3001540F158
:104AFC005485C1F3002686F001067600F6B211F457
:104B0C00806004D011F4007F14BF01200220254FD7
:104B1C00DAED2E7AD7F810E06FEAD12343EA9E2320
:104B2C00D7F810E0D7F810B0A9F82C1889F8482855
:104B3C0089F8494889F84A6889F880580B4D124F12
:104B4C0028736FEA113545EADE2503F0010305F001
:104B5C00010589F84B3889F84C5847ED047A002B3D
:104B6C0040F0CF84002D00F013861DE000000020E3
:104B7C00CDCC4C3D00E0FF440210003A02108039CD
:104B8C008FC2753ECDCC4CBD90080020D868000873
:104B9C00A8020010E80A00100AD7233D0AD7A33C4C
:104BAC00000002400018024099F82558002D00F032
:104BBC006B874FF48075012EA9F8245800F08E866F
:104BCC009E46984699F89078012F00F05885022F50
:104BDC0000F06787002F00F01085DAF80850BEF15E
:104BEC00000F41F0FE81D34E9AF8D0104FF0020E18
:104BFC00C6F818E04FF4000EC6F818E0012900F0D2
:104C0C002385D9F89468AE4200F2D78599F8986854
:104C1C00C9F89458002E00F02786013EF6B2C54D17
:104C2C0089F898684FF0807EC5F818E089F84E78BE
:104C3C0089F84F18C049DFEDC16AD1ED107A9FEDAC
:104C4C00C07A67EEA67AF4EEC77AF1EE10FA00F3AA
:104C5C00AD84FCEEE77A17EE901A89F85018B64935
:104C6C0089F85868D1ED0B7ADFEDB66A9FEDB47A0E
:104C7C0067EEA67AF4EEC77AF1EE10FA00F393849D
:104C8C00FCEEE77A17EE901A89F85118AA49DFED75
:104C9C00AD6AD1ED0C7A9FEDAA7A67EEA67AF4EEA6
:104CAC00C77AF1EE10FA00F37B84FCEEE77A17EE8C
:104CBC00901A89F8521899F8B41889F85318B9F859
:104CCC00B618A9F85618D9F8B858D9F8BC188D42A6
:104CDC00C0F0298599F8C01839B199F8C118A142CA
:104CEC0000F0CD85002189F8C01801462546029EAA
:104CFC0045EA0117B7421CD007EE905AF8EE677AD6
:104D0C0067EEA87A39B101290CBFB6EE007AB5EE80
:104D1C00007A67EE877A9FED8C7AB4EEE77AF1EE43
:104D2C0010FAD8BFF0EE477A0121CAED2E7ACAF8F4
:104D3C00B4100399BCF1000F40F0CF838A4200F00D
:104D4C00C1844FEA821B0BF1006606F540467F4D8D
:104D5C003168A94240F07785F188022940F07385CB
:104D6C00B6F808C0BCF1280F00F26D850CF10401F7
:104D7C0089B20291CDE903730592B588029A06F1C6
:104D8C0005084FF6FF7141F2210E434618F8017FDA
:104D9C0081EA07214F00090448BF87EA0E07790012
:104DAC003F0448BF81EA0E014F00090448BF87EA5F
:104DBC000E0779003F0448BF81EA0E014F00090439
:104DCC0048BF87EA0E0779003F0448BF81EA0E010D
:104DDC004F00090448BF87EA0E07790089B23F04E7
:104DEC00A3F1040348BF81EA0E01A3EB060348BFFD
:104DFC0089B29342C9D38D42DDE90373059A40F021
:104E0C002285BCF1000F00F01E850CF1FF31052945
:104E1C0041F2D4834E496944A1EB0B01022941F2C2
:104E2C00CD834C494FEA9C055BF801E0CDF878E066
:104E3C00012D594401F04484D1F804E0CDF87CE014
:104E4C00022D00F0E084D1F808E0CDF880E0032DCD
:104E5C0000F0D984D1F80CE0CDF884E0042D00F0FA
:104E6C00D284D1F810E0CDF888E0052D00F0CB8489
:104E7C00D1F814E0CDF88CE0062D00F0C484D1F804
:104E8C0018E0CDF890E0072D00F0BD84D1F81CE0BF
:104E9C00CDF894E0082D00F0B684D1F820E0CDF8E0
:104EAC0098E00A2D40F0AF84496A2791224D26994B
:104EBC00296069600121A9F87C1889F8C0189DF84F
:104ECC009C10C5ED024A89F8C318DDED1E7A9DF8D9
:104EDC009E10DDF87CB0DDF88080DDF884E0DDF834
:104EEC0088C0239E249D9DED257A89F8C14889F8B8
:104EFC00C20889F8C4180392FF270121CAED047A6D
:104F0C00CAF814B0CAF81880CAF81CE0CAF820C055
:104F1C00CAF82460CAF828508AED0B7A0297CAF8AE
:104F2C00B410002B40F0C581C9F8C83889F8CC38CA
:104F3C0018E000BF00000240900800200000C842AA
:104F4C0000007F4300007A44C0FE8B49723838322F
:104F5C006D40FFF70AC0000800001644CDCCCC3FD2
:104F6C000000000030BF99F88038DDF804B0002B49
:104F7C003FF45AADDAF89432002BBFF67FABDAED82
:104F8C00527AB7EE007A37EE677AB5EEC07AF1EE68
:104F9C0010FA00F1F685F0EE477AF4EEE27AF1EED3
:104FAC0010FA3FF56BABDAED536ADAED557AC7EED2
:104FBC00265AF5EEC05AF1EE10FA40F3F786B6EE2B
:104FCC00006AF4EEC67AB7EE007AF1EE10FA37EE1C
:104FDC00677A01D4B7EE086A76EE677AB0EE656A46
:104FEC00B4EEE77AF1EE10FAF4EEC77A94BF01232F
:104FFC000023F1EE10FAA8BFF0EE477AF4EEC47A73
:10500C0083F00102F1EE10FA0192CAF8982200F333
:10501C00F286B2EE007A26EE077AB4EEE77AF1EE7B
:10502C0010FA3FF72BAB9AEDA35AB6EE007AB4EE1A
:10503C00C75AF1EE10FA40F394869AEDA27A1FED5E
:10504C003A5AB4EEC57AF1EE10FA40F38A8687EE3E
:10505C00861AB4EEC51AF1EE10FA40F3828677EE9A
:10506C00077A1FED426AFDEEE77A27EE067A17EE15
:10507C00906AFDEEC77A40F6B83217EE90CABCF5CE
:10508C00616FA8BF4FF4616CBCF5966FB8BF4FF45D
:10509C00966C9642A8BF1646B6F5407FF5EEC05A00
:1050AC00B8BF4FF44076F1EE10FADAED547A40F3D3
:1050BC006486B0EE670AB6EE007A26EE871ADAE955
:1050CC0001240AEB830331EE271A93ED567A5FED38
:1050DC005C7ADAF8001031EE071A1719002012E08A
:1050EC0003F1010E72452CD915ED016A36EE476AB3
:1050FC00023066EE266AB04236EE877A27EE077AE1
:10510C0077EE877A34DA07EE100AB8EEC77A37EE04
:10511C00017AFCEEC76A16EE903A934224BFB3FBB9
:10512C00F2F502FB15339C422CBFE31AFB1AF8EE86
:10513C00666A01EB8305012B77EE666A95ED007AC2
:10514C00CED8013B00F15D839A4298BF9B1A01EBCC
:10515C00830393ED006A36EE476A023066EE266AE8
:10516C00B04236EE877A27EE077A77EE877ACADB7B
:10517C00F4EEE17AF1EE10FA3FF580AA4FF0000858
:10518C0067EE826AB0EE646A4546CDF810B007EE61
:10519C00105A5FED8D5AF8EEC70AB0EE655A70EEF4
:1051AC00800A00203FE003F1010B5A4559D91EED4E
:1051BC00019A39EE699A29EE0A9A79EE299A31EE1A
:1051CC00077ABCEEC79A19EE103A934224BFB3FB90
:1051DC00F2FE02FB1E339C422CBFE31AFB1AB8EE04
:1051EC00499A01EB830E012B37EE497A9EED00AA0A
:1051FC0040F2CB8403F1010B5A4540F2C6841EEDFC
:10520C00019A39EE4A9A29EE077A37EE0A7A29EE94
:10521C00877A29EEA99A0230864235EE075A75EE46
:10522C00895A40F3C88407EE100AB8EEC77A70EEBC
:10523C00879ABCEEE99A19EE103A934224BFB3FB5D
:10524C00F2FE02FB1E339C422CBFE31AFB1AB8EE93
:10525C00499A01EB830E012B39EEC9AADEED009AB7
:10526C00A1D8013B00F1A2849A4298BF9B1A01EB92
:10527C00830393ED009A39EE699A29EE0A9A79EE36
:10528C00299A9CE730BFDDF804B0FFF7F2B91A6831
:10529C0042F400721A60D9F800280132C9F80028CB
:1052AC00FEF704BF5E611A6842F400721A60FEF7E2
:1052BC00FDBED9F8C81899F8CC58002940F0828264
:1052CC00D9F8B818002940F0E1830121C9F8C818B1
:1052DC00002D7FF447AE1946D9F8B8385B1A41F265
:1052EC0070718B427FF63EAEB24B1E9300238DF84D
:1052FC0075308DF87730DAF81030CDF88230DAF876
:10530C001430CDF88630DAF81830CDF88A30DAF867
:10531C001C30CDF88E30DAF82030CDF89230DAF837
:10532C002430CDF89630DAF82830CDF89A30DAF807
:10533C002C30CDF89E30A04B8DF874405B698DF805
:10534C007600CDF8A2309D4BCDF87E301D9BCDF86C
:10535C00A630012389F8CC380DF17D044FF6FF738C
:10536C0041F2210014F8011F83EA012359001F04A4
:10537C0048BF41404B000E0448BF434059001D0438
:10538C0048BF41404B00090448BF434059001B042F
:10539C0048BF41404B000F0448BF434059001E0416
:1053AC0048BF41400D044FEA41030DF1A90148BF2C
:1053BC0043408C42D6D18248ADF87C30814BC01A28
:1053CC00013BC15C03F8011F7F498B42F9D1A1F16C
:1053DC00FF0493017749E15004EB82121F9951604D
:1053EC00209991602199D160229911612399516181
:1053FC00249991612599D16126991162279951625D
:10540C00289991622999D162254603F1320003F162
:10541C00300221183E33BDF8A840AC524FF0FF3299
:10542C002A504A608A60EA52684B1A69002A04DAE8
:10543C00674A5A6002F188325A60644AD368D803CA
:10544C00FCD4F323D360136923F47E7323F002039B
:10545C0043F4067343F002031361136943F480337E
:10546C0013615A4AD368D903FCD41369594C23F0FD
:10547C00FA031361136923F4407323F0010343F41B
:10548C00007343F0010313614E4B504AE41A191F89
:10549C0003F1FC05631851F8040F1860D368DB03A3
:1054AC00FCD48D42F6D11369434923F001031361F7
:1054BC00136943F00043136199F84D38013389F8AF
:1054CC004D38D9F8B83803F6B833C9F8BC38D9F820
:1054DC00B8288B6953408B6144E5FE2900F0F280BB
:1054EC00FE219FED3D7A3D4D3D4EDFF8FCC0DFF8CF
:1054FC00FCE0DFF8FC80DFF8FCB00391F3EE047AFB
:10550C00FBE499F82478B7FA87FE4FEA5E1E002D6B
:10551C0000F0A68099F82588B8F1000F40F0A08023
:10552C004FF00108464589F8243889F825887FF41E
:10553C0049ABFCEEE77ADAF8046017EE905A022DCC
:10554C0038BF0225311F8D4228BF0D46DAF80810EE
:10555C008D428ABF76184D1B751BCAE93651022144
:10556C00CAF808508AF8D0101E4E02274FF0030ECE
:10557C0089F890E8B7614FF40007B761D9F89468DF
:10558C00AE4200F2198199F89868C9F89458002E27
:10559C0000F06D817746FFF740BB0126FFF7AFBAED
:1055AC00FF21FFF786BBFF21FFF76EBBFF21FFF743
:1055BC0054BB00BF723838320000002002002800B3
:1055CC0001C00008F0080020EF090020003C024058
:1055DC002301674504C000080000204300000C4371
:1055EC000000F042000002400000C8420000A0424F
:1055FC0000007042000020429E469AF8D010DAF863
:10560C000850012940F0E684C7499FEDC87AD1EDD6
:10561C000B7AF4EEC77AF1EE10FA40F1B581012164
:10562C0089F8A418022E00F0BC810BF4805B5BEAB5
:10563C000E0B40F0B6815F46BD4902268E61802676
:10564C008E614FF080768E6199F89868C9F89458FD
:10565C00002E00F09A80013EF6B20121FFF7DFBA6E
:10566C0089F825580125AE4289F8245800F0358177
:10567C0099F89078012F4FF000087FF4A8AADAF877
:10568C000860D9F8A858AE42C0F07B84B8F1000F7E
:10569C0040F01685FCEEE77A751B17EE908AA8454C
:1056AC0040F27D8499F89078BEF1000F00F0DC8414
:1056BC00C9F8A868CAF8D460354601269C498AF80E
:1056CC00D06021E102972CE4DFED9A7AB4EEE77A10
:1056DC00F1EE10FA7BDDB4EEC67AF1EE10FA76D567
:1056EC00134640F6FF729A42A8BF1A4607EE902A5C
:1056FC009FED917AF8EEE77A67EE877AFFF751B96A
:10570C00DFED8E6AB4EEE67AF1EE10FA7FF769A956
:10571C00854B83ED028A4FF48073F0EE487AA9F83A
:10572C007C38FFF774B9864D814EA96981EA413105
:10573C0081EA514181EA4111A96111F0010508BFCB
:10574C004FF4803511F0020F14BF4FF0020E4FF4DE
:10575C00003E11F0040F14BF80274FF4000711F026
:10576C00080FB56114BF4FF480754FF0807511F0C0
:10577C00100F14BF4FF400614FF00061C6F818E031
:10578C00B761B561B161FFF7A5BA0121FFF74EBA58
:10579C00012EA9F8243800F0A18099F89078012FF7
:1057AC0000F03D84022F00F02D84002F3FF424AF35
:1057BC00DAF80850FFF717BA7746C9F8945801265B
:1057CC00FFF72DBA002D3FF487ADFFF7CBBB07EEEB
:1057DC00904AF8EEE77A67EE877AFDEEE77A17EEF5
:1057EC00903A9B183FF5DBA87BE70D46FFF714B802
:1057FC004D4BF0EE487A83ED008A83ED028AFFF779
:10580C0009B91344A3E4BCEB850F4FEA85011AD008
:10581C00751895F80AE00DEB010585F878E04D1C3C
:10582C00ADB2AC450FD906EB050E023189B26D4411
:10583C009EF80AE085F878E08C4504D90E4469445A
:10584C00B57A81F878509FED3F7A3F4D3F4EDFF8A7
:10585C0004C1DFF804E1DFF80481DFF804B103923E
:10586C00F3EE047AFFF749BB032F7FF4DFA9304D29
:10587C004FF48076AE6103270026FFF7D7B999F86D
:10588C00C21881427FF42EAA99F8C35899F8C4180B
:10589C00FFF72DBA07EE904A9FED336ADFED335ACE
:1058AC00F8EEE77A67EE867A9FED296A67EE877ADB
:1058BC0067EEA57AF4EEC67AF1EE10FA00F28C805F
:1058CC00194BD3ED077AF5EEC07AF1EE10FA3FF7EB
:1058DC0027A8F5EE007AFFF737B857B199F890681A
:1058EC00DAF808509AF8D010032E00F051820129F2
:1058FC0006D0DAF80850CAF8D45001218AF8D01032
:10590C0000270B4989F890784FF400368E61802679
:10591C008E614FF480768E6196E61A6842F40072BE
:10592C001A60FEF7C3BB00BF900800206F12033C47
:10593C0000000240CDCC4CBD010880390AD7A3BC75
:10594C00000000200000204300000C430000F04247
:10595C000000FCC20000C8420000A04200007042DF
:10596C00000020420AD7A33C010AA03A5555553FE6
:10597C000000FE4220C2AE3A3C951D3C4458633DAB
:10598C00F0FD753E1872313F99F8A41800293FF4C8
:10599C0049AE1FED0C7AF4EEC77AF1EE10FA7FF7F0
:1059AC0041AE01270021C9F8A858CAF8D4508AF88A
:1059BC00D07089F8907889F8A4183DE607EE904AE3
:1059CC005FED175A1FED176AF8EEE77A67EEA57AC6
:1059DC0067EE877A67EE867A1FED1B7AF4EEC77A4C
:1059EC00F1EE10FAB8BFB0EE677AFDEEC77A17EE9B
:1059FC00903AF8EEE77A37EE677AB5EEC07AF1EEC8
:105A0C0010FA40F13583B7EE006A37EE067A5FED97
:105A1C00277A5FED275A1FED271A1FED275A67EEDD
:105A2C00277A7E3377EEA57A5FED2A5A67EE877A6E
:105A3C00DB0577EE817A67EE877A77EE857A67EE0B
:105A4C00877A77EEA57A67EE877A07EE103A77EECB
:105A5C00867AD14B67EE877A66EEA76AD3ED077A22
:105A6C00F5EEC07AF1EE10FA3EF75AAFFEF75BBFD7
:105A7C00DFEDCA6AF4EEE67AF1EE10FA7EF52AAFA3
:105A8C00F0EE647AFEF726BF9E4649E5D9F8B818C1
:105A9C00C9F8C818002D7FF465AA00293FF462AA42
:105AAC001AE49AF8D01001290CD1B8F1000F13D1D7
:105ABC00DAF80850BEF1000F40F05183B8494FF4AA
:105ACC000036BBE5DAF80810CAF8D41001218AF8C0
