:020000040800F2
:1000000000000320AD750008FD750008FD750008AF
:10001000FD750008FD750008FD7500080000000072
:10002000000000000000000000000000FD75000856
:10003000FD75000800000000FD750008FD75000852
:10004000FD750008FD750008FD750008FD750008C8
:10005000FD750008FD750008FD750008FD750008B8
:10006000FD750008FD750008FD750008FD750008A8
:10007000FD750008FD750008FD750008FD75000898
:10008000FD750008FD750008FD750008FD75000888
:10009000FD750008FD750008FD750008FD75000878
:1000A000FD750008FD750008FD750008FD75000868
:1000B000FD750008FD750008FD750008FD75000858
:1000C000FD750008FD750008FD750008FD75000848
:1000D000FD750008FD750008FD750008FD75000838
:1000E000FD750008FD750008FD750008FD75000828
:1000F000FD750008FD750008FD750008FD75000818
:10010000FD750008FD750008FD750008FD75000807
:10011000FD750008FD750008FD750008FD750008F7
:10012000FD750008192E0008FD750008FD75000812
:10013000FD750008FD750008FD750008FD750008D7
:10014000FD750008FD750008FD750008FD750008C7
:10015000FD750008FD750008FD750008FD750008B7
:10016000FD750008FD750008FD750008FD750008A7
:10017000FD750008FD750008FD7500080000000011
:10018000FD750008FD750008FD750008FD75000887
:10019000FD750008FD750008FD750008FD75000877
:0C01A000FD750008FD750008FD750008E5
:1001B00000EB820C012A00B5DCED006A0ED902F1D9
:1001C000010E8E450AD21CED017A002B64D137EE68
:1001D000667A27EE007A37EE260A00BDB2F1010CEE
:1001E00049D4614598BFACEB010C00EB8C0C9CED45
:1001F000007A002BEBD0531C994298BF5B1A00EB9E
:100200008303012A93ED005AA2F1020342D09942DE
:1002100098BF5B1A00EB8300D0ED005AB0EE046A81
:1002200075EEC57A36EEC74A26EE866AF6EE004AC5
:10023000F7EE083A24EE234A67EEA47A77EE073AFF
:1002400035EE466A77EE847A36EE236A65EEA45A76
:1002500067EE807A36EE656A37EE457A77EE867A13
:1002600027EE247A67EE807A77EE877A67EE807AD7
:1002700037EEA60A00BD8C4400EB8C0C9CED007A96
:10028000002BA4D0931E013237D50A4400EB820222
:1002900092ED005A0B44BDE7DCED014A5CED025AD9
:1002A000B0EE046A75EEE47A36EEC74A26EE866A48
:1002B000B6EE005AF7EE083A24EE234A67EE857A46
:1002C00077EE073A34EEC66A77EE847A36EE236A22
:1002D00065EE855A67EE807A36EE656A37EE647AA7
:1002E00077EE867A27EE057A67EE807A77EE877A60
:1002F00067EE807A37EEA60A00BD914298BF521A87
:1003000000EB820292ED005A0B4483E743688B4274
:100310009CBFB1FBF3FC03FB1C11D0F808C00068C4
:100320008C4538BF9C44ACEB010100EB810C0129EA
:1003300000B5DCED006A0ED901F1010E73450AD952
:100340001CED017A002A64D137EE667A27EE007A36
:1003500037EE260A00BDB1F1010C49D4634598BFC0
:10036000ACEB030C00EB8C0C9CED007A002AEBD07C
:100370004A1C934298BFD21A00EB8202012992EDE7
:10038000005AA1F1020242D0934298BFD21A00EB68
:100390008200D0ED005AF0EE047A35EEC56A36EEF2
:1003A000C74A66EEA77AF6EE004AB7EE083A77EE4D
:1003B000073A75EE677A26EE246A24EE034A77EE52
:1003C000A37A65EEA45A36EE046A77EEE57A26EE55
:1003D000006A37EE457A77EE867A27EE247A67EE62
:1003E000807A77EE877A67EE807A37EEA60A00BDCC
:1003F0009C4400EB8C0C9CED007A002AA4D08A1E51
:10040000013137D5194400EB810191ED005A1A44AE
:10041000BDE7DCED014A5CED025AF0EE047A35EE00
:10042000E46A36EEC74A66EEA77AB6EE005AB7EE31
:10043000083A77EE073A74EEE77A26EE056A24EE7C
:10044000034A77EEA37A65EE855A36EE046A77EEB4
:10045000E57A26EE006A37EE647A77EE867A27EE42
:10046000057A67EE807A77EE877A67EE807A37EEE4
:10047000A60A00BD8B4298BFC91A00EB810191ED1D
:10048000005A1A4483E700BF2DE9F04F2DED028B8F
:10049000F5EEC00AF1EE10FA8BB0054600F1AF841C
:1004A000F7EE007AF4EEE70AF1EE10FAC8BFF0EECC
:1004B000670AE14CD4ED326AD4ED337A94ED307AA8
:1004C000D4ED315A94ED2C6A77EEE67A67EEA07A95
:1004D00077EEA67A77EEC77A67EEA57A77EE877A17
:1004E000B4EE676AF1EE10FAC4ED307A40F0318371
:1004F000D4F8B430002B40F02C83206F216B676F51
:10050000666B94ED2F7A421A67EB060352EA030CEE
:1005100027D007EE902A9FEDC96AF8EE676A07EECA
:10052000903A66EE866AF8EEE77A77EEA67A67EE9C
:10053000877AFDEEE76AB8EEE66A16EE90CA77EEC5
:10054000C67AB0EE676ABEEEE06A16EE103ADA17C7
:10055000DB184CEB420253EA020C40F02284C4E95F
:100560000C07A06FA16BE76FE66B421A67EB0603FF
:1005700052EA030C27D007EE902A9FEDB06AF8EEFE
:10058000676A07EE903A66EE866AF8EEE77A77EEEB
:10059000A67A67EE877AFDEEE76AB8EEE66A16EEAF
:1005A00090CA77EEC67AB0EE676ABEEEE06A16EEE3
:1005B000103ADA17DB184CEB420253EA020C40F017
:1005C000EA83C4E90E07D4F88000216CD4F8847063
:1005D000666C421A67EB060352EA030C27D007EE5B
:1005E000902A9FED966AF8EE676A07EE903A66EEFB
:1005F000866AF8EEE77A77EEA67A67EE877AFDEEFE
:10060000E76AB8EEE66A16EE90CA77EEC67AB0EE02
:10061000676ABEEEE06A16EE103ADA17DB184CEBAA
:10062000420253EA020C40F0B083C4E91007D4F848
:100630008800A16CD4F88C70E66C421A67EB060354
:1006400052EA030C27D007EE902A9FED7C6AF8EE61
:10065000676A07EE903A66EE866AF8EEE77A77EE1A
:10066000A67A67EE877AFDEEE76AB8EEE66A16EEDE
:1006700090CA77EEC67AB0EE676ABEEEE06A16EE12
:10068000103ADA17DB184CEB420253EA020C40F046
:100690007683C4E91207D4F89000216DD4F89470E1
:1006A000666D421A67EB060352EA030C27D007EE89
:1006B000902A9FED626AF8EE676A07EE903A66EE5E
:1006C000866AF8EEE77A77EEA67A67EE877AFDEE2D
:1006D000E76AB8EEE66A16EE90CA77EEC67AB0EE32
:1006E000676ABEEEE06A16EE103ADA17DB184CEBDA
:1006F000420253EA020C40F03C83C4E91407D4F8E8
:100700009800A16DD4F89C70E66D421A67EB060361
:1007100052EA030C27D007EE902A9FED486AF8EEC4
:10072000676A07EE903A66EE866AF8EEE77A77EE49
:10073000A67A67EE877AFDEEE76AB8EEE66A16EE0D
:1007400090CA77EEC67AB0EE676ABEEEE06A16EE41
:10075000103ADA17DB184CEB420253EA020C40F075
:100760000283C4E91607D4F8A000216ED4F8A4705F
:10077000666E421A67EB060352EA030C27D007EEB7
:10078000902A9FED2E6AF8EE676A07EE903A66EEC1
:10079000866AF8EEE77A77EEA67A67EE877AFDEE5C
:1007A000E76AB8EEE66A16EE90CA77EEC67AB0EE61
:1007B000676ABEEEE06A16EE103ADA17DB184CEB09
:1007C000420253EA020C40F0C882C4E91807D4F888
:1007D000A800A16ED4F8AC70E66E421A67EB06036F
:1007E00052EA030C30D007EE902A9FED146AF8EE1F
:1007F000676A07EE903A66EE866AF8EEE77A77EE79
:10080000A67A67EE877ABDEEE77AF8EEC76A17EE4A
:1008100010CA77EEE67AF0EE676AFEEEE06A16EE50
:10082000903ADA17DB184CEB420253EA020C40F024
:100830008E82C4E91A0707E0000000100000802F34
:100840000000000000002043D4E9011794F8D0C054
:10085000BCF1010FD4E9360207F1010640F0A8828D
:10086000D4ED4A7AD4ED4D6AB7EE007AF4EEC77A49
:10087000F1EE10FA20EE260A09DA94ED4B7A30EE0A
:10088000470A20EE270A30EE070A84ED4B0AD4F817
:100890003C31002B00F3028323688E4203EB870375
:1008A00083ED000A00D300263346A360D4F840311C
:1008B000002B40F08B82BCF1010F94F83081276847
:1008C00006EB010940F09F82626B9A42B8BF1A465C
:1008D000236BB8BF0023002A00F0228307EE903A72
:1008E000B8EE670A5FED2B7A8A4220EE270A24BF12
:1008F000B2FBF1F301FB1322B24288BFA9EB020263
:1009000040F2968443463846FFF752FCE26BA36BF5
:100910008DED020A002ABCBF00220023002A40F00D
:10092000A48301291FED3A0A40F27F840122B242DA
:1009300088BFA9EB020240F2788443463846FFF7AD
:1009400037FC626C236C8DED030A002ABCBF0022C9
:100950000023002A40F07A8301291FED470A40F264
:100960006F840122964238BFA9EB020280F06884AE
:1009700043463846FFF71CFCE26CA36C8DED040A7D
:10098000002ABCBF00220023002A40F05083012926
:100990001FED550A40F251840122964238BFA9EB5F
:1009A000020280F04A8443463846FFF701FC626D3C
:1009B000236D8DED050A002ABCBF00220023002A0A
:1009C00040F0268301291FED620A40F23F84012294
:1009D000964238BFA9EB020280F03884434638467D
:1009E000FFF7E6FBE26DA36D8DED060A002ABCBFA2
:1009F00000220023002A40F0FC8201291FED700A2A
:100A000040F221840122964238BFA9EB020280F015
:100A10001A8443463846FFF7CBFB626E236E8DED9A
:100A2000070A002ABCBF00220023002A40F0D2821D
:100A300001291FED7D0A40F2FE830122964238BF54
:100A4000A9EB020280F0F78343463846FFF7B0FB7C
:100A5000E26EA36E8DED080A002ABCBF00220023BF
:100A6000002A40F0118301291FED8B0A40F2DB833D
:100A70000122964280F0D783A9EB02024346384612
:100A8000FFF796FB8DED090AD4ED397ADDED026AA8
:100A900094ED417A9DED036ADDED054A9DED065A20
:100AA000DDED075A67EEA67ADDED046A67EE877A18
:100AB000C5ED007AD4ED3A7A94ED427A67EE867A03
:100AC0009DED086A67EE877AC5ED017AD4ED3B7A31
:100AD00094ED437A67EEA67A67EE877AC5ED027ADF
:100AE00094ED3C7AD4ED446ADDED097A27EE247A60
:100AF00027EE267A85ED037A94ED3D7AD4ED456AAA
:100B000027EE057A27EE267A85ED047A94ED3E7A73
:100B1000D4ED466A27EE257A27EE267A85ED057A0A
:100B200094ED3F7AD4ED476A27EE067A27EE267ACF
:100B300085ED067AD4ED406A94ED487A67EEA67AA0
:100B400067EE877AC5ED077A0BB0BDEC028BBDE886
:100B5000F08F1FEDC43AD4ED046A94ED056AD4ED2C
:100B60000B2AC4ED2C7A86EE837AC6EE034AD4EDC6
:100B7000066A94ED076AC6EE833A86EE035AD4ED10
:100B8000086A94ED096A86EE834AD4ED0A6AC6EED5
:100B9000035A86EE836AC2EE836A94ED2E3A27EEFC
:100BA000037A64EE834A27EE277A64EEA74A25EE9D
:100BB000035AFDEEC72ABDEEE42A25EE275A66EE5B
:100BC000836AFDEEC50A63EE833A24EE034A65EEBE
:100BD000835AF8EEE21A26EE036AB8EEC23A37EE0E
:100BE000617A74EEC34AB8EEE03A63EEA73A35EEA6
:100BF000435AB0EE473ABDEEE31A24EE274ABEEE62
:100C0000E03A65EEA75A26EE276AFDEEC41A66EEB4
:100C1000A77A13EE103AF8EEC16AB0EE643ABEEE6F
:100C2000E03A12EE902AD81873EEE63AB8EEE17A7E
:100C30004FEAE37342EB430313EE101A00228018CD
:100C400034EE474AB0EE637ABEEEE07A636720671F
:100C5000CB1712EE100A49185B41184417EE103AF0
:100C60008918B0EE457ABEEEE07AA167D917DB1895
:100C7000BDEEE58A4941E0679B1811EE100AC4F801
:100C8000803017EE103A0144F8EEC84AB0EE447ACC
:100C9000BEEEE07AC4F88410D917DB18FDEEC66A00
:100CA00075EEE45A10EE900A49419B18C4F888305A
:100CB00017EE103A0144F8EEE64AB0EE657ABEEE61
:100CC000E07AC4F88C10D917DB18BDEEE73A36EE9F
:100CD000646A11EE900A49419B18C4F8903017EEEF
:100CE000103A0144F8EEC34AB0EE467ABEEEE07A1E
:100CF000C4F89410D917DB1818EE100A494177EEA2
:100D0000E47A9B18C4F8983017EE103A0144B0EE1C
:100D1000677ABEEEE07AC4F89C10D917DB1816EE9D
:100D2000900A49419B18C4F8A03017EE103A0144CC
:100D300013EE100AC4F8A410D917DB1840EB4101D8
:100D40009B18C4E92A31C4F8B420FFF7D6BBC918F0
:100D500046EB0202C4E91A1276E5C91846EB020214
:100D6000C4E9181233E5C91846EB0202C4E91612A9
:100D7000F9E4C91846EB0202C4E91412BFE4C91829
:100D800046EB0202C4E9121285E4C91846EB0202DE
:100D9000C4E910124BE4C91846EB0202C4E90E1272
:100DA00011E4C91846EB0202C4E90C12FFF7D9BBE3
:100DB0008E4228BF0026B2427FF476AD0346A36080
:100DC000D4F840310646002B3FF475AD9FEDC37A51
:100DD000F0EE477A85ED007A85ED017A85ED027AAD
:100DE00085ED037A85ED047A85ED057A85ED067A41
:100DF000C5ED077A0BB0BDEC028BBDE8F08FDFEDDF
:100E0000B70AFFF756BB53181B1AA2EB000B904210
:100E100088BF9B46BBF1000F00F06481B0429FED9C
:100E2000B03A00F28480A6EB000A0195DFF8A892A0
:100E300002AE054618E0D3459FEDA80A40F23D8179
:100E4000BBF1010F524640F04081121A2A448A42F7
:100E500000D3521A43463846FFF7AAF99C4BA6EC3A
:100E6000010A4B4500F0B48059F8082FD9F8043036
:100E7000002BAEBF18460020002203460028DAD01F
:100E800007EE902AB8EE670AD34520EE030A00F277
:100E90009580BAFBFBF20BFB12A290E003F1FF3E40
:100EA000D4F844319FED8B6A83EA433383EA53439A
:100EB00083EA431383EA433888EA584888EA4818A3
:100EC0001B0AC4F844814FEA182807EE903A07EE4F
:100ED000108AF8EEE77AB8EEC77A012303FA0EF328
:100EE00077EE877A07EE103A67EE867AB8EEC77A21
:100EF000F7EE006A77EEE67A20EE070AF6EE006A71
:100F000077EE807AF5EEC07AF1EE10FA53DB77EEE9
:100F1000A67AFDEEE77AF8EEE77A87EE870ABBE479
:100F200001299FED6E0A40F283816246E4E4A9EB59
:100F300000060195DFF8A0A10DF1080905461AE0A9
:100F4000B3459FED660A40F2AF80BBF1010F30461A
:100F500003D00123984238BF5844C31AEA188A4282
:100F600028BF521A43463846FFF722F9584BA9ECDE
:100F7000010A53452CD05AF8080FDAF80420002A49
:100F8000AEBF1346002300201A46002BD8D007EE30
:100F9000900AB345B8EE670A96BFB6FBFBF0304641
:100FA0000BFB10609B4520EE030A9CBFB3FBFBF3D9
:100FB0000BFB1323CEE777EEE67AAAE752469B4572
:100FC00040F2F38190427FF640AF5A44121A3DE757
:100FD000019D59E507EE903AB8EE670ADFED407AD9
:100FE000914220EE270A9CBFB2FBF1F301FB1322D2
:100FF00024E507EE903AB8EE670ADFED397A9142C0
:1010000020EE270A9CBFB2FBF1F301FB1322FAE4A6
:1010100007EE903AB8EE670ADFED317A914220EEA2
:10102000270A9CBFB2FBF1F301FB1322D0E407EEC9
:10103000903AB8EE670ADFED2A7A914220EE270A4D
:101040009CBFB2FBF1F301FB1322A6E407EE903A3A
:10105000B8EE670ADFED227A914220EE270A9CBFA4
:10106000B2FBF1F301FB13227CE407EE903AB8EEF9
:10107000670ADFED1B7A8A4220EE270A24BFB2FB03
:10108000F1F301FB132252E407EE903AB8EE670A3F
:10109000DFED137A8A4220EE270AFFF4EAACB2FBB6
:1010A000F1F301FB1322E4E4BBF1010F00F0D18066
:1010B000B6FBFBF00BFB10604BE7BBF1010F00F040
:1010C000CA80BAFBFBF20BFB12A201207AE700BF39
:1010D00068000010000080332800001000000000AD
:1010E0000000802F626B236B5A45BCBF5A465B469B
:1010F000002A40F0B28001291FED080A00F2C180E9
:10110000B21A43463846FFF753F8E26BA36B8DEDF6
:10111000020A002ABCBF00220023002A40F02581D9
:1011200001291FED120A00F23481B21A43463846F3
:10113000FFF73EF8626C236C8DED030A002ABCBFFA
:1011400000220023002A40F0FC8001291FED1D0A27
:1011500000F22381B21A43463846FFF729F8E26CC1
:10116000A36C8DED040A002ABCBF00220023002AD4
:1011700040F0D38001291FED270A00F20C81B21A3A
:1011800043463846FFF714F8626D236D8DED050A6E
:10119000002ABCBF00220023002A40F0AA800129B7
:1011A0001FED320A00F2FF80B21A43463846FEF7BE
:1011B000FFFFE26DA36D8DED060A002ABCBF002281
:1011C0000023002A40F0818001291FED3C0A00F233
:1011D000E880B21A43463846FEF7EAFF626E236E95
:1011E0008DED070A002ABCBF00220023002A59D136
:1011F00001291FED460A00F2D280B21A4346384652
:10120000FEF7D6FFE26EA36E8DED080A002ABCBF82
:1012100000220023BABB01291FED500A03D9012285
:10122000B2423FF629ACB21A28E4B21AFFF785BBE6
:10123000B21AFFF767BBB21A06E4B21AFFF7B3BBE4
:10124000B21AFFF795BBB21AFFF7E3BBB21AFFF76A
:10125000C5BB184681E60246F7E507EE903AB8EEC0
:10126000670A5FED617A914220EE270A9CBFB2FBCC
:10127000F1F301FB13229642BFF442AFA9EB020245
:101280003FE70122F7E707EE903AB8EE670A5FED15
:101290006C7A8A4220EE270A24BFB2FBF1F301FBED
:1012A0001322BDE707EE903AB8EE670A5FED747A55
:1012B000914220EE270A9CBFB2FBF1F301FB1322FF
:1012C00096429AD2A9EB020298E707EE903AB8EE5E
:1012D000670A5FED7D7A914220EE270A9CBFB2FB40
:1012E000F1F301FB13229642BFF473AFA9EB0202A4
:1012F00070E707EE903AB8EE670A5FED877A9142A1
:1013000020EE270A9CBFB2FBF1F301FB13229642A9
:10131000BFF44AAFA9EB020247E707EE903AB8EEF6
:10132000670A5FED917A914220EE270A9CBFB2FBDB
:10133000F1F301FB13229642BFF421AFA9EB0202A5
:101340001EE707EE903AB8EE670A5FED9B7A91428E
:1013500020EE270A9CBFB2FBF1F301FB1322964259
:10136000BFF4F8AEA9EB0202F5E607EE903AB8EE4C
:10137000670A5FEDA57A914220EE270A9CBFB2FB77
:10138000F1F301FB13229642BFF4CFAEA9EB0202A8
:10139000CCE60122F7E70122CDE70122DFE70122B7
:1013A0008EE701229FE70122B1E7B3FBFBF00BFBC5
:1013B000103007E6DFF818C1DFED433A2DE9F04FB2
:1013C000424D06460024ACF59630B6EE004AF7EEE4
:1013D000004A4FF4166E0CF164080CF16007FCEC47
:1013E000017A9CED077ADCF83C9037EE677A09F5D4
:1013F000166327EE237A37EE277AFCEEC76A0CEDE8
:10140000017A16EE902A9B1AA5FB0321090A0EFB0E
:10141000113101F65F13A5FB03A2120A0EFB123273
:1014200002F65F1BA5FB0B3A4FEA1A2A0EFB04F3E8
:101430000EFB1ABB1A4403EB010A03EB0B0100EB92
:101440008A0A00EB820200EB8101D2ED005A9AED8C
:10145000005AD1ED007AB8EE666A77EEE57A37EE9B
:10146000467A75EEC56A67EE877A66EE876A77EE2A
:10147000A57A98ED007A76EE856A27EE046A77EE13
:10148000A67A34EEC77A67EE867A27EE267AD7ED0B
:10149000006A77EE877A09F1010267EEA67AA5FB6A
:1014A00002A137EE807A4B44090A013400EB830332
:1014B0000EFB1122082C83ED007ACCF83C20E6ECE0
:1014C000017A8CD1BDE8F08F6F12033BB5814E1BC2
:1014D00034360120BCEEC07ADFEDA66AF8EE477A1A
:1014E000F0B570EE677AA44C67EEA67AA268FDEEBE
:1014F000E76A064616EE903A4FEA831C17EE103A5A
:10150000606807330D4606F14A01934204EB8101FE
:1015100088BF1218D31AD1F84821B8EEE66A9A1A91
:10152000102A77EEC67A0CF1400716D9934A246840
:10153000C1F8483102F1800E0EEBC61102EBC61263
:1015400004EB830E0133DEF800E042F804EB98422E
:1015500098BF00238A42F3D1002205EB0C033D44DF
:10156000D3ED005A93ED037A95ED002AD3ED133AAB
:1015700093ED016AD3ED026AD3ED112A93ED123A8D
:1015800093ED051A93ED065AD3ED090AD3ED044AFB
:1015900093ED144ADFED7A1A93ED080A32EE652ACC
:1015A00073EEC73A22EE272A72EEC62A33EE663A67
:1015B00063EEA73A32EE252A62EEA72AD3ED075A48
:1015C00023EE273A73EE873A93ED177A72EE862A66
:1015D00033EE263A93ED156AD3ED166A37EE657A47
:1015E00036EE416A76EEC56A27EE277A26EE276A3E
:1015F00066EEA76A37EE257AD3ED195A02EB46124A
:1016000036EE016A76EE856A93ED0A1A93ED1A5A60
:1016100075EEE05A02F10A015A4A65EEA75A35EE14
:10162000415A02EB810275EEA05A25EE275AD2EDFF
:10163000000A35EE015A22EE202A92ED011AD2ED6F
:10164000020A32EE212A34EE644A62EE812A24EE46
:10165000274A92ED031AD2ED041A72EE822A23EE83
:10166000203A34EE244A33EE223A63EE813AD3ED47
:10167000184A92ED052AD2ED062A73EE833A24EE3B
:10168000214A74EEC04A34EE234A26EE026A92EDF5
:10169000073AD2ED083A36EE046A64EEA74A66EEDF
:1016A000A26A92ED094A92ED0A2AD3ED0B2A76EE50
:1016B000866A74EE804A27EE037A93ED1B6A93EDF7
:1016C0000C3A93ED1E0A37EE267A64EEA34A36EE04
:1016D000626AD3ED1C6AD3ED0D3A74EE874A65EE6B
:1016E000845A26EE276A76EEC36A93ED1D7A93ED4F
:1016F0000E4A75EEA45A25EE025A36EE226A66EEBE
:10170000A76AD2ED0B2AD3ED0F4A37EE637A35EE96
:10171000255A26EE226A76EE836A27EE277A92ED24
:101720000C3AD3ED1F5A30EE440A36EE056A66EEE7
:10173000836A92ED0D5A37EE237A20EE270A75EE72
:10174000E45A76EE866A30EE040A25EEA76A27EEA2
:10175000057A92ED0E5A37EE267A60EE057AD2EDD2
:101760000F6A36EE240A77EE877A20EE260A30EEEC
:10177000270AF0BD000000420000001070010010B8
:1017800000000000480100105A4BDFED5B5AD3F80F
:1017900000C070B5D3E9012E0446B0EE655A02EBE5
:1017A0000E00002116E05E1CB2425DD915ED016A03
:1017B00036EE476A66EE277A77EE877A26EEA77AC4
:1017C000043167EEA77AB1F5006F35EE075A75EE72
:1017D000A75A6DD007EE901AF8EEE77A77EE807A86
:1017E000BCEEE77A17EE103A934224BFB3FBF2F552
:1017F00002FB15339E45B8EE477A2CBFAEEB0303D0
:10180000C31A0CEB8305012B77EEC77A95ED007AAE
:101810003AD95E1CB24237D955ED016A76EEC76AF5
:1018200066EEA77A77EE876A0B1907EE903AF8EE24
:10183000E77A77EE807ABCEEE77A17EE103A9342B9
:1018400024BFB3FBF2F502FB15337345B8EE477ABC
:1018500094BFAEEB0303C31A0CEB8305012B77EEA9
:10186000C77A95ED007A9ED8013B1DD49A4298BF65
:101870009B1A0CEB830393ED006A36EE476A66EE23
:10188000277A77EE877A99E7013B0FD49A4298BF7F
:101890009B1A0CEB8303D3ED006A76EEC76A66EE03
:1018A000A77A77EE876ABFE71344E2E71344F0E7CD
:1018B000DFED127A60EEA77AF4EEE75AF1EE10FA55
:1018C00002D59FED0D0A70BDB5EEC05AF1EE10FACB
:1018D0000CD4F0EE456A65EEA07A9FED097A25EE0C
:1018E000265A77EE877A85EE270A70BDF1EE456AB3
:1018F000F1E700BF00000010000000000AD7233C01
:101900005F70893030B5D04C94ED525AF7EE002A12
:1019100072EEC52A2DED048BF5EEC02AF1EE10FA19
:1019200094ED538A83B000F1E080B0EE627ADFED8F
:10193000C77AD4ED544AB4EEE77AF1EE10FA00F12A
:10194000A58194ED553A9FEDC27ADFEDC26AF6EEBD
:10195000007A23EE077AB4EEE73AF1EE10FA67EE7A
:10196000266A80F2BF80F5EEC06AF1EE10FA73EEDF
:10197000275A19DAFEEE007A77EEA67A9FEDB66A5C
:10198000DFEDB66AFDEEE77AF8EEE77A67EE867A83
:1019900037EE677AB4EEE67AF1EE10FA40F3408162
:1019A000DFEDAB7A37EEC77A27EE074ADFEDAC7A88
:1019B0009FEDAC6ADFEDAC6A9FEDAC2AD4ED593AED
:1019C00064EE277A77EEC67AB7EE006A67EE847A1D
:1019D00077EEA67AD4ED586A67EE847A76EEA36A3B
:1019E00077EEC27A67EE847AB6EE004A77EE867AB0
:1019F00066EE846A67EE877A36EE667A67EEA77AD5
:101A0000F5EEC07AF1EE10FA76EE676A40F21881D0
:101A1000B1EEE76A36EE676AF5EEC06A26EE076A4F
:101A2000F1EE10FA36EE276A40F20781F1EEE67A1F
:101A300077EEE67AD4F8843267EE877A77EEA67A84
:101A4000F0EE678A002B53D028EE030AD4ED567AC5
:101A5000616894ED577A30EE240A28EE252A30EE9C
:101A6000270A32EE242AFCEEC07A32EE072A17EE5D
:101A7000902AF8EE677A8A4230EE670A03D3B2FB07
:101A8000F1F301FB1322A36820688DED016A9342F4
:101A90001D4638BFCB189A1A01230090FEF788FB29
:101AA000FCEEC27A9DED016A009817EE902A8A42F8
:101AB00024BFB2FBF1F301FB1322AA42F8EE677ACE
:101AC00088BF6B1866EE001A88BF9A1A32EE670A52
:101AD00098BFAA1A0123FEF76BFB28EE800A30EEAE
:101AE000210A64E073EE675A46E7B1EE627A1EE7B8
:101AF000DFED5F7AB4EEE75AF1EE10FAA4DDDFED28
:101B00005D7AB4EEE75AF1EE10FA40F33881F0EE68
:101B1000007AB4EEE75AF1EE10FA40F33681DFEDC9
:101B2000567AB4EEE75AF1EE10FA40F32A814FF4F8
:101B3000C650032368EE255A28EE030A75EEA45A10
:101B4000D4ED577AD4F87C2294ED567AC4F88032DA
:101B500030EE240A75EEA77A9A4230EE070AB0EE0C
:101B6000679A00F006814549014400208DED016A25
:101B70000091FFF7AFFC9DED016A0099F0EE407A0D
:101B800066EE277A0120B0EE490ACDED007AFFF724
:101B9000A1FC94ED527ADDED007A94ED553A28EEF1
:101BA000800AF7EE002A30EE270A72EEC72AC2EE4C
:101BB000887AB7EE007A77EE837AF4EEC77AF1EEA0
:101BC00010FAC0F29F80D4F89432002B40F0CF80FE
:101BD000D4F86C21D4F89432C4F85821002B40F08A
:101BE000C480D4F86821C4F86021B7EE007AF4EE1E
:101BF000C77A4FF0FF33F1EE10FAC4F894326CDB81
:101C000077EEC77AF4EEC77AF1EE10FAF8DA01232C
:101C1000C4F89832C4ED557A03B0BDEC048B30BDE6
:101C2000DFED177AB4EEE77AF1EE10FA7FF5BCAE8D
:101C3000DFED147A37EEC77AB6E6DFED137AF7E612
:101C40009FED116AE6E600BF0000001017B7D1381B
:101C5000DB0F494083F9223EDB0FC940DB0FC93F50
:101C600091EE3836470C50398588083CABAA2A3E9D
:101C70005C8F823F3333B33FB81E35406477000832
:101C8000DB0FC9BFDB0F49C000000000B6EE000A41
:101C900028EE000A6168206830EE240A4FF0FF3316
:101CA000FCEEC07AC4F8943217EE902A8A4224BF20
:101CB000B2FBF1F301FB1322A368F8EE677A9342BB
:101CC00038BF5B1830EE670A9A1A012303B0BDECE7
:101CD000048BBDE83040FEF76BBAF5EEC07A012305
:101CE000F1EE10FAC4F8983294D577EE877AF5EED3
:101CF000C07AF1EE10FAF8D4C4ED557A03B0BDEC19
:101D0000048B30BDF5EEC07AF1EE10FA3FF55BAF13
:101D1000B6EE007AB4EEC73AF1EE10FAF4EEC77AF6
:101D2000ACBF01220022F1EE10FAACBF0123002368
:101D30009A423FF46FAFD4F89432012B08BFD4F825
:101D40006C21D4F8943218BF0022012BC4F85C2116
:101D50004FF0FF3308BFD4F86821C4F8943218BF9D
:101D60000022C4F86421002352E700223BE700224E
:101D700030E7D4F8781200297FF4F7AEF3E618467E
:101D8000D8E64FF484500223D4E64FF404600123D4
:101D9000D0E600BF2DE9F04FD94C94ED526A94ED96
:101DA000537AD4ED557AF7EE006A36EEC66A8DB0F6
:101DB000C6EE075AF5EEC05AF1EE10FA40F38F82E4
:101DC000B6EE006AF4EEC67AF1EE10FA76EEE76A45
:101DD00000F13A81B7EE086A76EE677AB0EE655A9E
:101DE000F4EEE76AF1EE10FAF4EEE67A94BF01231E
:101DF0000023F1EE10FA83F00105A8BFF0EE667A39
:101E0000DFEDC06AC4F89852F4EEE67AF1EE10FA0B
:101E100000F38782F2EE006A65EE266AF4EEE76A66
:101E2000F1EE10FA00F3688194EDA36AF6EE006A11
:101E3000B4EEE66AF1EE10FA09DDD4EDA26A9FED88
:101E4000B26AF4EEC66AF1EE10FA00F3D8824FF4EB
:101E500096604FF4407CF5EEC05AF1EE10FAD4EDE6
:101E6000547A40F35882B0EE673AF6EE006A67EEB5
:101E7000265A04EB830375EEA75AA168D3ED567A70
:101E80006368226875EEA75A03EB010EDFEDA47AB2
:101E9000002712E006F101094B452DD918ED016A22
:101EA00036EE476A023766EE266A674536EE877A6F
:101EB00027EE077A77EE877A35DA07EE107AB8EEF2
:101EC000C77A37EE257AFCEEC76A16EE906A9E4214
:101ED00024BFB6FBF3F803FB1866B1422CBF8E1B80
:101EE000AEEB0606F8EE666A02EB8608012E77EE88
:101EF000666A98ED007ACDD8013E00F1BC80B3420D
:101F000098BFF61A02EB860696ED006A36EE476A2F
:101F1000023766EE266A674536EE877A27EE077A3D
:101F200077EE877AC9DB9FED797AF4EEC77AF1EE26
:101F300010FA00F1E180DFED763ADFED792A9FEDCE
:101F4000772A67EEA33A4FF000084FF0000907EE3A
:101F5000108A9FED735AB8EEC74AF0EE454A34EE48
:101F6000034A002717E006F1010B5B455BD91AED28
:101F7000016A36EE666A26EE077A77EE266A61EE29
:101F8000A66A21EEA17A0237BC4574EEA64A35EE68
:101F9000075A40F3DD8007EE107AB8EEC77A34EEC8
:101FA000076AFCEEC66A16EE906A9E4224BFB6FB34
:101FB000F3FA03FB1A66B1422CBF8E1BAEEB06068A
:101FC000F8EE666A02EB860A012E76EE666ADAEDB4
:101FD000001A40F2A98006F1010B5B4540F2A48093
:101FE0001AED016A36EE616A66EE266A76EEA11A8D
:101FF00035EE877AFCEEC76A16EE906A9E4224BFE1
:10200000B6FBF3FA03FB1A66B142F8EE666A2CBF20
:102010008E1BAEEB060602EB860A012E37EE667AC1
:10202000DAED006A9FD8013E00F18E80B34298BF7E
:10203000F61A02EB860696ED006A36EE666A26EE22
:10204000077A77EE266A9AE736EE676AB0EE655A47
:10205000F4EEC66AF1EE10FAB4EEE66A94BF01231C
:102060000023F1EE10FA83F00105B4BFF0EE467ADA
:10207000F0EE667AC4E61E4444E7DDE90285019984
:10208000A1EB080307EE101A5A1E042AB8EEC77A0D
:102090000CD80CA901EB820252ED076A9FED1D6A74
:1020A000F4EEC66AF1EE10FA00F3BA83D4F8943273
:1020B000002B21DA82EEA76ADFED196AF4EEC76A17
:1020C000F1EE10FAC8BFB0EE667AF7EE007AB4EE21
:1020D000E76AF1EE10FAD8BFF0EE467AF5EEC07A74
:1020E000F1EE10FA40F28881F1EEE77AC4ED5A7A07
:1020F00084ED5B7AC4F894520DB0BDE8F08F00BF58
:10210000000000108FC2753D0000164495BFD63305
:102110000AD7233C088FA1EFCAF249F15F708930DA
:1021200000000000CDCCCC3F013E0FD4B34298BF9D
:10213000F61A02EB860696ED006A36EE616A66EEE6
:10214000266A76EEA11A53E71E4472E71E44F0E7B2
:10215000B4EEE35AF1EE10FA15D4F5EEC04AF1EE02
:1021600010FA00F1B980B0EE647A24EE877A35EE89
:10217000025AC7EE056AF4EEE26AF1EE10FA02DDE9
:10218000F0EE662AC14608F104088045FFF6DFAE8E
:10219000B5EE007A27EE877ACDF80490B4EEE27AB5
:1021A000F1EE10FA00F3198100F289831FED267A0F
:1021B0001FED261AA9F10308CDE90285F0EE471AB2
:1021C00005AF09F10409464603E00136B1453FF485
:1021D00054AFB042E7EC011AF7D906EE906A5FED12
:1021E000304AB8EEE62AB0EE644A32EE032A4FF0E7
:1021F000000841E005F1010B5B455CD91AED015A7D
:1022000035EE605A25EE066A76EE200A75EEA66A6D
:10221000BCEEE66A16EE105A9D4224BFB5FBF3FAF7
:1022200003FB1A55A942B8EE466A2CBF4D1BAEEB14
:10223000050502EB850A012D76EEC66A9AED006A65
:1022400040F20D8105F1010B5B4540F208811AED6A
:10225000015A35EE465A65EE266A36EE866A20EE5B
:10226000866A60EEA06A08F10208C44534EE064AA8
:1022700074EEA64A40F3078106EE908AF8EEE66A0D
:1022800032EE265ABCEEC56A16EE105A9D4224BFA5
:10229000B5FBF3FA03FB1A55A9422CBF4D1BAEEB5D
:1022A0000505B8EE466A02EB850A012D35EE466A51
:1022B000DAED000A9ED8013D00F1E180AB4298BF03
:1022C000ED1A02EB850595ED005A35EE605A25EEC4
:1022D000066A76EE200A99E7B1EE647A45E7F6EEF3
:1022E000006AF4EEE67AF1EE10FA17DB77EEE66AB2
:1022F000F4EEE67AF1EE10FAF4EEE76A94BF012309
:102300000023F1EE10FAB8BFF0EE667A83F0010513
:10231000B1EE655A74E537EE273AA6E577EEA66A80
:10232000E6E7D4F890320133FF2B40F39380F6EECA
:10233000007AD4E9011627EE277AD4ED547A5FEDBE
:10234000880A2568002277EE274AC4F8902201EB1C
:10235000060C13E05F1CB9422FD950ED016A76EEEE
:10236000E76A26EE877A77EE277A67EEA77A043255
:10237000B2F5006F70EEA70A00F0A58007EE902A74
:10238000F8EEE77A77EEA47ABCEEE77A17EE103A29
:102390008B4224BFB3FBF1F001FB10339E422CBFF4
:1023A000F31AACEB0303B8EE477A05EB8300012B7D
:1023B00037EEC77AD0ED007ACCD8013B4DD49942A4
:1023C00098BF5B1A05EB8303D3ED006A76EEE76AEC
:1023D00026EE877A77EE277AC7E71FEDAF7AD4F833
:1023E0009432002BBFF688AE82EEA76AB5EEC06AC3
:1023F000F1EE10FA7FF569AE5FEDB77A76E6C7EEDB
:10240000854AF4EEC64AF1EE10FA7FF720AD76EE7B
:10241000A67A1FEDBC6AFDEEE77A66EE866A17EED5
:1024200090CAFDEEE67A40F6B83217EE900AB0F5A3
:10243000616FA8BF4FF46160B0F5966FB8BF4FF4FD
:1024400096609445A8BF9446BCF5407FB8BF4FF452
:10245000407C00E5C4F890324EE60B44B2E7013D03
:102460000FD4AB4298BFED1A02EB850595ED005AEB
:1024700035EE465A65EE266A36EE866AEFE61D446C
:102480001FE71D44F0E7F4EEE43AF1EE10FA3FF7EF
:102490009CAEB5EEC04AF1EE10FA00F1B381F0EE59
:1024A000446A24EE264A74EE814AC4EE246AF4EEAD
:1024B000C76AF1EE10FA47ED016A7FF786AEB0EE1B
:1024C000667A019681E6DFEDD17AF4EEE70AF1EE65
:1024D00010FA00F1DC819FEDCE4A0027F02540F68E
:1024E0004856B0EE640A2846FFF74EF9B4EEC40A27
:1024F000F1EE10FA02DDB0EE404A2F460835B54243
:10250000EFD1B7F5F07FC0F2B880DFEDC11A9FEDD3
:10251000C12ADFF8048396E03046B0EE640AFFF784
:1025200033F9B5EEC00AF1EE10FAD8BF2E46D4BF8B
:10253000F0EE613AF0EE403AB0EE640A4846FFF73A
:1025400023F9F4EEC03AF1EE10FA02D5F0EE403A7B
:102550004E46B0EE640AA5F10800FFF715F9F4EE57
:10256000C03AF1EE10FA03D5F0EE403AA5F10806B4
:10257000A5F104094846B0EE640AFFF705F9B4EE88
:10258000E30AF1EE10FAD8BFB146C8BFF0EE403A08
:10259000B0EE640A2846FFF7F7F8B4EEE30AF1EE6E
:1025A00010FA05F1040602DDF0EE403AA946B0EE5D
:1025B000640A3046FFF7E8F8F4EEC03AF1EE10FA9C
:1025C00005F1080A02D5F0EE403AB146B0EE640AD1
:1025D0005046FFF7D9F8F4EEC03AF1EE10FA05F1E3
:1025E0000C0602D5F0EE403AD146B0EE640A304611
:1025F000FFF7CAF8F4EEC03AF1EE10FA05F1100553
:1026000002D5F0EE403AB146B0EE640A2846FFF734
:10261000BBF8F4EEC03AF1EE10FA02D5F0EE403A13
:10262000A94624EE023AB4EEE33AF1EE10FA21D8CC
:10263000F4EEC43AF1EE10FAC8BFB0EE634A4F466A
:10264000B7F5F07F19DB7D10A5F11006EF2EA5F18F
:102650000C093FF761AFB9F1EF0FDFED6D3A00F311
:102660002681F72D00F32581F32DD8BFA9468FDDF4
:102670002E467DE7B7F5347F10DAB5EEC04AF1EEAD
:1026800010FA00F308819FED627A84EDA37A07EED9
:10269000907AF8EEE77AC4EDA27A2DE5A8FB07352B
:1026A0006D08A5F11006EF2EA5F10C0940F39B80F3
:1026B0003046B0EE640AFFF767F8B5EEC00AF1EEF7
:1026C00010FAD8BF2E46D4BFF0EE613AF0EE403A91
:1026D000B0EE640A4846FFF757F8F4EEC03AF1EE60
:1026E00010FA02D5F0EE403A4E46B0EE640AA5F17B
:1026F0000800FFF749F8F4EEC03AF1EE10FA03D5FE
:10270000F0EE403AA5F10806A5F104094846B0EEFE
:10271000640AFFF739F8B4EEE30AF1EE10FAD8BF15
:10272000B146C8BFF0EE403AB0EE640A2846FFF763
:102730002BF8B4EEE30AF1EE10FA02DDF0EE403AC7
:10274000A9462E1D3046B0EE640AFFF71DF8B4EE20
:10275000E30AF1EE10FAD8BF4E4605F10809F0EE93
:10276000407A4846B0EE640AC8BFF0EE673AFFF719
:102770000BF8B4EEE30AF1EE10FAD8BFB14605F15A
:102780000C063046F0EE402AB0EE640AD8BFF0EEF8
:10279000632AFEF7F9FF1035B4EEE20AF1EE10FA03
:1027A000F0EE403A2846B0EE640AD8BFF0EE623A46
:1027B000D8BF4E46FEF7E8FFF4EEC03AF1EE10FA4D
:1027C00002D5F0EE403A2E46F4EEC33AF1EE10FA9E
:1027D000FFF653AFF4EEC43AF1EE10FAC8BFB0EE14
:1027E000634A37462CE7B9F1EF0FDFED093A62DCB7
:1027F000B7F53A7F61DAB7F5377FB8BFA94693DB03
:102800002E4681E7F1EE446A4BE600BFBD378635C0
:10281000000000009A99593FABAAAAAACCBC8CAB85
:1028200001EB830252ED065AF4EEC65AF1EE10FAAD
:102830007FF73CAC01EB830313ED076A1FED095AE8
:1028400036EE066A36EEC66A36EE256AB4EEC56A1C
:10285000F1EE10FA7FF52AAC76EEE56AF6EE005A54
:1028600066EEA56ABFEE005AC6EE865AF4EEC55A69
:10287000F1EE10FA7FF71AACF7EE006AF4EEE65AC2
:10288000F1EE10FA7FF512AC37EE257A0EE4002354
:10289000C4F88C3230E4F7EE007AB4EEE74AF1EE99
:1028A00010FAD8BFF0EE447AB1EEE77AEDE62E46A4
:1028B00042E62E464DE62E460AE72E4615E707EE7F
:1028C000109AB8EEC77A8AE500B53A4A3A4B116BCE
:1028D00041F0020187B01163126B5A684FF44070E7
:1028E00002435A60DA6822F4702242F4A022DA60CD
:1028F00098611A6822F47022002142F4A0221A6022
:102900000191019BB3F5FA6F06DA019B0133019344
:10291000019BB3F5FA6FF8DB274A09214FF0807E5F
:102920004FF4807C0020136913F400731DD1C2F8AA
:1029300018E00293029BB3F5617F06DA029B013334
:102940000293029BB3F5617FF8DBC2F818C00390D5
:10295000039BB3F5617F06DA039B01330393039B6B
:10296000B3F5617FF8DB0139DDD1134A00234FF065
:10297000007191610493049BB3F5617F06DA049BB7
:1029800001330493049BB3F5617FF8DB0A4A00230B
:102990004FF4007191610593059BB3F5617F06DAF1
:1029A000059B01330593059BB3F5617FF8DB07B009
:1029B00000BD00BF00380240000402401D4A1E4B0B
:1029C000116B41F002011163126B1A6822F440325C
:1029D00042F400321A605A6842F480725A609A686F
:1029E00042F480329A60DA6822F4403242F4803253
:1029F000DA605A6A22F00F0242F004025A621A6840
:102A000022F4402242F400221A605A6842F4007212
:102A10005A609A6842F480229A60DA6822F440226E
:102A200042F48022DA605A6A22F0F00242F0400258
:102A30005A6270470038024000040240DFF828C1A3
:102A4000484BDCF8002042F48072CCF80020ACF552
:102A5000806C01E0013B6ED0DCF81424D207F9D57C
:102A6000414A404B4FF0920CC2F810C0DFF8FCC056
:102A700001E0013B57D0DCF814249207F9D53A4A1B
:102A8000384B9269DFF8E4C001E0013B56D0DCF836
:102A900014241206F9D5344A324BDFF8D0C0106145
:102AA00001E0013B4DD0DCF814245007F9D5DFF8E4
:102AB000B8C02C4BDCF800202C4842F48072CCF8D3
:102AC000002001E0013B3FD0D0F81424D207F9D513
:102AD000254A932313611068224B20F4806CC2F8BE
:102AE00000C0224801E0013B34D0D0F81424920702
:102AF000F9D51D4A1B4B9069D2F800C01B484CF415
:102B0000007CC2F800C001E0013B20D0D0F81424C2
:102B10005206F9D5144B1A690A701A6842F4806299
:102B200000201A607047104A136843F400736FF076
:102B30000100136070474FF0FF3070476FF00200E4
:102B400070476FF0030070476FF0040070476FF03C
:102B500006007047044A136843F400736FF00500E1
:102B600013607047400D03000054004000500040C7
:102B7000DFF8C0C02E4BDCF8002042F48072CCF8A5
:102B80000020ACF5806C01E0013B44D0DCF814245B
:102B9000D207F9D5274A264B4FF0920CC2F810C045
:102BA000DFF894C001E0013B2DD0DCF8142492073B
:102BB000F9D5204A1E4B9269DFF87CC001E0013B49
:102BC0002CD0DCF814241206F9D51A4A184BDFF879
:102BD00068C0106101E0013B23D0DCF8142410062A
:102BE000F9D5144A124B1448116101E0013B1BD086
:102BF000D0F814245207F9D50E4A136843F4007331
:102C00000020136070470B4A136843F400736FF0A1
:102C10000100136070474FF0FF3070476FF0020003
:102C200070476FF0030070476FF00400704700BFFB
:102C3000400D030000540040005000401F4A204B4C
:102C4000116B41F0010182B01163126B1A6822F01E
:102C5000300242F010021A6059681A4A4FF4802C70
:102C6000002021F004015960C3F818C00090009BB7
:102C7000934205DC009B01330093009B9342F9DDF6
:102C80000F4B1A6822F0300242F010021A605968A5
:102C90000C4A4FF0040C002021F004015960C3F8E5
:102CA00018C00190019B934205DC019B0133019305
:102CB000019B9342F9DD02B0704700BF003802402B
:102CC00000000240DF93040010B5DFF8A0C0864684
:102CD00084B0172200214FF480644FF080602EFAF8
:102CE00002F313F0010F0CBF4FF080534FF48053E9
:102CF000CCF818300191019B0B2B05DC019B0133B3
:102D00000193019B0B2BF9DDCCF818400291029B3B
:102D10000B2B05DC029B01330293029B0B2BF9DD8D
:102D2000CCF818000391039B0B2B05DC039B0133AC
:102D30000393039B0B2BF9DD013AD0D20A4A0023FF
:102D40004FF4004191610093009B0B2B05DC009B2D
:102D500001330093009B0B2BF9DD034B4FF0004236
:102D60009A6104B010BD00BF00000240000802409C
:102D700030B4DFF8A0C0254884B0172200214FF4FA
:102D800080654FF080642CFA02F313F0010F0CBF42
:102D90004FF080534FF4805383610291029B0B2BC1
:102DA00005DC029B01330293029B0B2BF9DD85614D
:102DB0000191019B0B2B05DC019B01330193019BCE
:102DC0000B2BF9DD84610091009B0B2B05DC009B34
:102DD00001330093009B0B2BF9DD013AD3D20C4A4F
:102DE00000234FF4004191610393039B0B2B05DCFF
:102DF000039B01330393039B0B2BF9DD044B4FF033
:102E000000429A6104B030BC704700BF0008024025
:102E100000000240777777002DE9F04F194B2DED38
:102E2000088B1A6851058DB009D4164B1A68120523
:102E300000F158840DB0BDEC088BBDE8F08F4FF465
:102E40008061114A9960114CDFF858805268DFEDBB
:102E500010BA98ED079A9FED0FBADFED0F9A0F4F5A
:102E6000DFED0FAADFF8409003920023029304AB3A
:102E7000A346B7EE008A651804F6E80A04F6980639
:102E800001932AE100640240001000E02C000020C1
:102E9000000000346F12033B72F97F3FFFFF7F0099
:102EA000FEFFFF4A0000002000000010F6EE083A86
:102EB000B4EEE34AF1EE10FA40F3EA8134EE634AED
:102EC000B1EE003A24EE033A33EE083AC4EE032A98
:102ED00032EEA34AB4EEC84AF1EE10FA40F3D881BC
:102EE000F5EEC04A3B46F1EE10FA2B6000F1E881A6
:102EF000B6EE084AF4EEC44AF1EE10FA40F3F98156
:102F000074EEC44AF1EE003A64EEA33A73EE883AE6
:102F100084EEA33A73EE044AF4EEC84AF1EE10FAD6
:102F200040F3E781B5EEC05A3B46F1EE10FA6B6014
:102F300000F1F781F6EE084AB4EEE45AF1EE10FA29
:102F400040F3088235EE645AB1EE004A25EE044A99
:102F500034EE084AC5EE043A33EEA45AB4EEC85A29
:102F6000F1EE10FA40F3F681F5EEC05A3B46F1EE71
:102F700010FAAB6000F10682B6EE085AF4EEC55ABC
:102F8000F1EE10FA40F3178275EEC55AF1EE004AE1
:102F900065EEA44A74EE884A85EEA44A74EE055A9A
:102FA000F4EEC85AF1EE10FA40F30582B5EEC06AAD
:102FB0003B46F1EE10FAEB6000F11582F6EE085A8E
:102FC000B4EEE56AF1EE10FA40F3268236EE656A59
:102FD000B1EE005A26EE055A35EE085AC6EE054AFD
:102FE00034EEA56AB4EEC86AF1EE10FA40F314822A
:102FF000F5EEC06A3B46F1EE10FA2B6100F1288233
:10300000B6EE086AF4EEC66AF1EE10FA40F33982C1
:1030100076EEC66AF1EE005A66EEA55A75EE885A4B
:1030200086EEA55A75EE066AF4EEC86AF1EE10FA5D
:1030300040F32782B5EEC07A3B46F1EE10FA6B61A1
:1030400000F13782F6EE086AB4EEE67AF1EE10FA95
:1030500040F3488237EE667AB1EE006A27EE066AE0
:1030600036EE086AC7EE065A35EEA67AB4EEC87A8E
:10307000F1EE10FA40F33682F5EEC07A3B46F1EEFF
:1030800010FAAB6100F14682B6EE087AF4EEC77A28
:10309000F1EE10FA40F3578277EEC77AF1EE006A4C
:1030A00067EEA66A76EE886A87EEA66A76EE077AFB
:1030B000F4EEC87AF1EE10FAC8BF3B4640F3438203
:1030C000EB6198F92830002B80F25482DF4B2035D9
:1030D0009D420BF1200B00F08382DBF8003043F3BC
:1030E00017030AEE103AB8EECAAA2AEE2BAAB5EEDA
:1030F000C0AAF1EE10FA00F1A387F0EE4A8ADAEDE9
:10310000007ADBF804309AED007A78EEE77A43F340
:10311000170367EE8B7A77EE877A07EE103ADBF8C3
:103120000830CAED007AB8EEC77A43F3170327EEEA
:103130002B7A07EE903AB5EEC07AF8EEE77AF1EE28
:1031400010FA67EEAB7A01D5B1EE477AF5EEC07AA8
:10315000F1EE10FA01D5F1EE677A96ED006AD6ED40
:10316000006A019837EE467AF0EE490A27EE0B7AAC
:10317000B0EE4A0A37EE267A86ED007AD6ED016A7D
:1031800096ED017A77EEE67A67EE8B7A77EE877ABC
:10319000C6ED017A94F8803894F8A028134314BF40
:1031A00001230023C9F84031FDF76EF994F8A038E7
:1031B000002B40F0498794F88038002B41F0C881FB
:1031C0009DED044AB4EEC84AF1EE10FAC0F223872E
:1031D0000123DDED054AF4EEC84AF1EE10FAC0F223
:1031E0000F8701239DED065AB4EEC85AF1EE10FA8E
:1031F000C0F2FB860123DDED075AF4EEC85AF1EE6A
:1032000010FAC0F2E78601239DED086AB4EEC86AA1
:10321000F1EE10FAC0F2D3860123DDED096AF4EE77
:10322000C86AF1EE10FAC0F2BF8601239DED0A7A5A
:10323000B4EEC87AF1EE10FAC0F2AB860123DDEDF0
:103240000B7AF4EEC87AF1EE10FAC0F296860123FA
:103250000293B5EEC04AF1EE10FA7FF527AEFEEE0E
:10326000083AB4EEE34AF1EE10FA11D5F6EE082A68
:10327000B1EE444A34EE624AF1EE003A64EE233A8B
:1032800073EE883A84EE233A33EE224AB1EE444A92
:10329000FFEE003AF4EEC43AF1EE10FAD8BFF0EEC9
:1032A000443A63EEAA3AF5EEC04ABDEEE34AF1EEC7
:1032B00010FA14EE103A23F07F432B607FF518AE1E
:1032C000BEEE084AF4EEC44AF1EE10FA11D5B6EE9D
:1032D000083AF1EE644A74EEC34AB1EE004A24EEB5
:1032E000844A34EE084AC4EE843A73EE834AF1EE1F
:1032F000644ABFEE004AB4EEE44AF1EE10FAD8BFD9
:10330000B0EE644A24EE2A4AB5EEC05AFDEEC44A35
:10331000F1EE10FA14EE903A23F07F436B607FF5E4
:1033200009AEFEEE084AB4EEE45AF1EE10FA11D5F9
:10333000F6EE083AB1EE455A35EE635AF1EE004A20
:1033400065EE244A74EE884A85EE244A34EE235A08
:10335000B1EE455AFFEE004AF4EEC54AF1EE10FA1E
:10336000D8BFF0EE454A64EEAA4AF5EEC05ABDEE6B
:10337000E45AF1EE10FA15EE103A23F07F43AB60F9
:103380007FF5FAADBEEE085AF4EEC55AF1EE10FA2A
:1033900011D5B6EE084AF1EE655A75EEC45AB1EE93
:1033A000005A25EE855A35EE085AC5EE854A74EE68
:1033B000845AF1EE655ABFEE005AB4EEE55AF1EECA
:1033C00010FAD8BFB0EE655A25EE2A5AB5EEC06A9B
:1033D000FDEEC55AF1EE10FA15EE903A23F07F4358
:1033E000EB607FF5EBADFEEE085AB4EEE56AF1EE68
:1033F00010FA11D5F6EE084AB1EE466A36EE646A66
:10340000F1EE005A66EE255A75EE885A86EE255A78
:1034100035EE246AB1EE466AFFEE005AF4EEC65A63
:10342000F1EE10FAD8BFF0EE465A65EEAA5AF5EE64
:10343000C06ABDEEE56AF1EE10FA16EE103A23F01E
:103440007F432B617FF5DCAD02E000BF2C0600203E
:10345000BEEE086AF4EEC66AF1EE10FA11D5B6EEC9
:10346000085AF1EE666A76EEC56AB1EE006A26EE9B
:10347000866A36EE086AC6EE865A75EE856AF1EE01
:10348000666ABFEE006AB4EEE66AF1EE10FAD8BFE3
:10349000B0EE666A26EE2A6AB5EEC07AFDEEC66A1E
:1034A000F1EE10FA16EE903A23F07F436B617FF550
:1034B000C9ADFEEE086AB4EEE67AF1EE10FA11D567
:1034C000F6EE085AB1EE477A37EE657AF1EE006A09
:1034D00067EE266A76EE886A87EE266A36EE257AE9
:1034E000B1EE477AFFEE006AF4EEC76AF1EE10FA29
:1034F000D8BFF0EE476A66EEAA6AF5EEC07ABDEE76
:10350000E67AF1EE10FA17EE103A23F07F43AB6142
:103510007FF5BAADBEEE087AF4EEC77AF1EE10FA96
:1035200011D5B6EE086AF1EE677A77EEC67AB1EE9B
:10353000007A27EE877A37EE087AC7EE876A76EE4A
:10354000867AF1EE677ABFEE007AB4EEE77AF1EEB2
:1035500010FAD8BFB0EE677A27EE2A7AFDEEC77A66
:1035600017EE903A23F07F43EB6198F92830002B57
:10357000FFF6ACAD98F928300BB100232B6098F919
:103580002830012B1CBF00236B6098F92830022BD8
:103590001CBF0023AB6098F92830032B1CBF00230D
:1035A000EB6098F92830042B1CBF00232B6198F99D
:1035B0002830052B1CBF00236B6198F92830062B9F
:1035C0001CBF0023AB6198F92830072B1CBF0023D8
:1035D000EB61564B20359D420BF1200B7FF47DAD06
:1035E000D4F88438524D94F8001A039A0133C4F881
:1035F000843828692B692D69C3F3C023C5F30035CE
:103600005B00C0F3802043EA8503034323EA010102
:1036100084F8003A94F8C4380B4384F8C438454B16
:103620005B689B1A1B094FF6FF72934228BF134633
:10363000B4F8EE289BB2934288BFA4F8EE38029B00
:10364000002B41F08981D4F88428D4F8D0389A42EC
:1036500081F0948194F8A0384BB3D4F88428D4F83E
:10366000D0389A4223D3D4F88428334BA3FB0203E7
:1036700041F27071DB0901FB132340F6B73293422C
:1036800088BFCB1AD4F884282B49C3EB0323A1FBB2
:10369000031302EB420102EB4112D2B2B2EB931FD1
:1036A000264934BF4FF080734FF480738B61D4F898
:1036B0008428D4F8D0389A42FFF4B7AB96ED007A5C
:1036C000DFED1F7A1D4BB4EEE77AF1EE10FACCBFB6
:1036D0004FF000624FF400629A611A4B1A681205AB
:1036E0007FF5A8AB134A184CDFF874809FED17BA2A
:1036F000DFED17AADFED17BA174D9FED18AADFF817
:1037000064904FF40061996000235268029304AB07
:1037100098ED079A0193A346B7EE008A04F58067F7
:1037200004F6E80A04F6980603921FE12C0600202E
:1037300000180240001000E0F11976050000024078
:103740000AD7A33C006402402C0000200000003493
:103750006F12033B72F97F3FFFFF7F00FEFFFF4ABE
:103760000000002000000010B6EE084AF4EEC44A43
:10377000F1EE10FA40F3F98174EEC44AF1EE003A2A
:1037800064EEA33A73EE883A84EEA33A73EE044AE9
:10379000F4EEC84AF1EE10FAC8BF2B4640F3E581BB
:1037A000B5EEC05AF1EE10FAC7F8043200F1F68116
:1037B000F6EE084AB4EEE45AF1EE10FA40F307824E
:1037C00035EE645AB1EE004A25EE044A34EE084A5A
:1037D000C5EE043A33EEA45AB4EEC85AF1EE10FA2C
:1037E000C8BF2B4640F3F381F5EEC05AF1EE10FA54
:1037F000C7F8083200F10482B6EE085AF4EEC55A52
:10380000F1EE10FA40F3158275EEC55AF1EE004A5A
:1038100065EEA44A74EE884A85EEA44A74EE055A11
:10382000F4EEC85AF1EE10FAC8BF2B4640F30182FD
:10383000B5EEC06AF1EE10FAC7F80C3200F1128250
:10384000F6EE085AB4EEE56AF1EE10FA40F3238280
:1038500036EE656AB1EE005A26EE055A35EE085A84
:10386000C6EE054A34EEA56AB4EEC86AF1EE10FA67
:10387000C8BF2B4640F30F82F5EEC06AF1EE10FA96
:10388000C7F8103200F12482B6EE086AF4EEC66A78
:10389000F1EE10FA40F3358276EEC66AF1EE005A88
:1038A00066EEA55A75EE885A86EEA55A75EE066A3A
:1038B000F4EEC86AF1EE10FAC8BF2B4640F321823D
:1038C000B5EEC07AF1EE10FAC7F8143200F1328288
:1038D000F6EE086AB4EEE67AF1EE10FA40F34382AF
:1038E00037EE667AB1EE006A27EE066A36EE086AAF
:1038F000C7EE065A35EEA67AB4EEC87AF1EE10FAA3
:10390000C8BF2B4640F32F82F5EEC07AF1EE10FAD5
:10391000C7F8183200F14082B6EE087AF4EEC77AA2
:10392000F1EE10FA40F3518277EEC77AF1EE006AB9
:1039300067EEA66A76EE886A87EEA66A76EE077A62
:10394000F4EEC87AF1EE10FAC8BF2B4640F33D8280
:10395000C7F81C3298F92830002B80F24E82DB4BDE
:1039600020379F420BF1200B00F08582DBF80032FC
:1039700043F3170309EE903AF8EEE99A69EE8B9A51
:10398000F5EEC09AF1EE10FA00F1EB83F0EE698AE1
:10399000DAED007ADBF804329AED007A78EEE77A15
:1039A00043F3170367EEAA7A77EE877A07EE103AA9
:1039B000DBF80832CAED007AB8EEC77A43F3170392
:1039C00027EE0B7A07EE903AB5EEC07AF8EEE77A7A
:1039D000F1EE10FA67EE8B7A01D5B1EE477AF5EE8B
:1039E000C07AF1EE10FA01D5F1EE677A96ED006A31
:1039F000D6ED006A019837EE467AF0EE490A27EED6
:103A00002A7AB0EE690A37EE267A86ED007AD6ED8C
:103A1000016A96ED017A77EEE67A67EEAA7A77EE9A
:103A2000877AC6ED017A94F8803894F8A028134379
:103A300014BF01230023C9F84031FCF725FD94F899
:103A4000A038002B40F0908394F88038002B40F091
:103A5000A3839DED044AB4EEC84AF1EE10FAC0F219
:103A60006C830123DDED054AF4EEC84AF1EE10FA4D
:103A7000C0F2598301239DED065AB4EEC85AF1EE07
:103A800010FAC0F246830123DDED075AF4EEC85A5E
:103A9000F1EE10FAC0F2338301239DED086AB4EE13
:103AA000C86AF1EE10FAC0F220830123DDED096A45
:103AB000F4EEC86AF1EE10FAC0F20D8301239DED19
:103AC0000A7AB4EEC87AF1EE10FAC0F2FA82012353
:103AD000DDED0B7AF4EEC87AF1EE10FAC0F2E68270
:103AE00001230293B5EEC04AF1EE10FA00F1B38261
:103AF000F6EE083AB4EEE34AF1EE10FA40F3C4826F
:103B000034EE634AB1EE003A24EE033A33EE083A5B
:103B1000C4EE032A32EEA34AB4EEC84AF1EE10FA1C
:103B2000C8BF2B4640F3B082F5EEC04AF1EE10FA62
:103B3000C7F800327FF518AEBEEE084AF4EEC44A6C
:103B4000F1EE10FA11D5B6EE083AF1EE644A74EED1
:103B5000C34AB1EE004A24EE844A34EE084AC4EE69
:103B6000843A73EE834AF1EE644ABFEE004AB4EE43
:103B7000E44AF1EE10FAD8BFB0EE644A24EE0A4AE5
:103B8000B5EEC05AFDEEC44AF1EE10FA14EE903ACA
:103B900023F07F43C7F804327FF50AAEFEEE084AF1
:103BA000B4EEE45AF1EE10FA11D5F6EE083AB1EEA1
:103BB000455A35EE635AF1EE004A65EE244A74EE3A
:103BC000884A85EE244A34EE235AB1EE455AFFEE78
:103BD000004AF4EEC54AF1EE10FAD8BFF0EE454ABD
:103BE00064EE8A4AF5EEC05ABDEEE45AF1EE10FAE0
:103BF00015EE103A23F07F43C7F808327FF5FCAD8D
:103C0000BEEE085AF4EEC55AF1EE10FA11D5B6EE32
:103C1000084AF1EE655A75EEC45AB1EE005A25EE27
:103C2000855A35EE085AC5EE854A74EE845AF1EE8F
:103C3000655ABFEE005AB4EEE55AF1EE10FAD8BF5D
:103C4000B0EE655A25EE0A5AB5EEC06AFDEEC55AC9
:103C5000F1EE10FA15EE903A23F07F43C7F80C32DC
:103C60007FF5EEADFEEE085AB4EEE56AF1EE10FA1D
:103C700011D5F6EE084AB1EE466A36EE646AF1EE08
:103C8000005A66EE255A75EE885A86EE255A35EEAC
:103C9000246AB1EE466AFFEE005AF4EEC65AF1EE1F
:103CA00010FAD8BFF0EE465A65EE8A5AF5EEC06AB1
:103CB000BDEEE56AF1EE10FA16EE103A23F07F43FE
:103CC000C7F810327FF5E0AD02E000BF2C060020FF
:103CD000BEEE086AF4EEC66AF1EE10FA11D5B6EE41
:103CE000085AF1EE666A76EEC56AB1EE006A26EE13
:103CF000866A36EE086AC6EE865A75EE856AF1EE79
:103D0000666ABFEE006AB4EEE66AF1EE10FAD8BF5A
:103D1000B0EE666A26EE0A6AB5EEC07AFDEEC66AB5
:103D2000F1EE10FA16EE903A23F07F43C7F8143202
:103D30007FF5CEADFEEE086AB4EEE67AF1EE10FA4B
:103D400011D5F6EE085AB1EE477A37EE657AF1EE04
:103D5000006A67EE266A76EE886A87EE266A36EE95
:103D6000257AB1EE477AFFEE006AF4EEC76AF1EE0B
:103D700010FAD8BFF0EE476A66EE8A6AF5EEC07AAE
:103D8000BDEEE67AF1EE10FA17EE103A23F07F431B
:103D9000C7F818327FF5C0ADBEEE087AF4EEC77AE8
:103DA000F1EE10FA11D5B6EE086AF1EE677A77EE09
:103DB000C67AB1EE007A27EE877A37EE087AC7EE38
:103DC000876A76EE867AF1EE677ABFEE007AB4EE15
:103DD000E77AF1EE10FAD8BFB0EE677A27EE0A7AEA
:103DE000FDEEC77A17EE903A23F07F43C7F81C32F6
:103DF00098F92830002BFFF6B2AD98F9283013B1AE
:103E00000023C7F8003298F92830012B1CBF00238B
:103E1000C7F8043298F92830022B1CBF0023C7F8DA
:103E2000083298F92830032B1CBF0023C7F80C3246
:103E300098F92830042B1CBF0023C7F8103298F9DA
:103E40002830052B1CBF0023C7F8143298F92830FE
:103E5000062B1CBF0023C7F8183298F92830072B0F
:103E60001CBF0023C7F81C32C24B20379F420BF106
:103E7000200B7FF47BADD4F88438BF4D94F8001A42
:103E8000039A0133C4F8843828692B692D69C3F378
:103E9000C023C5F300355B00C0F3802043EA8503EF
:103EA000034323EA010184F8003A94F8C4380B4331
:103EB00084F8C438B14B5B689B1A1B094FF6FF723C
:103EC000934228BF1346B4F8EE289BB2934288BFB2
:103ED000A4F8EE38029B002B40F01685D4F8842815
:103EE000D4F8D0389A4280F0218594F8A0384BB3AA
:103EF000D4F88428D4F8D0389A4223D3D4F884282C
:103F00009F4BA3FB020341F27071DB0901FB1323FA
:103F100040F6B732934288BFCB1AD4F88428984928
:103F2000C3EB0323A1FB031302EB420102EB41129B
:103F3000D2B2B2EB931F934934BF4FF080734FF46A
:103F400080738B61D4F88428D4F8D0389A42FEF478
:103F500071AF96ED007ADFED8C7A8A4BB4EEE77A9A
:103F6000F1EE10FACCBF4FF000624FF400629A619C
:103F70000DB0BDEC088BBDE8F08FFFEE003AF4EE1B
:103F8000E37AF1EE10FA98BF43F001030293FFF7D2
:103F900060B9FFEE007AB4EEE77AF1EE10FA98BF5E
:103FA00043F00103FFF74BB9FFEE007AF4EEE76A46
:103FB000F1EE10FA98BF43F00103FFF737B9FFEEB7
:103FC000007AB4EEE76AF1EE10FA98BF43F001030D
:103FD000FFF723B9FFEE007AF4EEE75AF1EE10FA9C
:103FE00098BF43F00103FFF70FB9FFEE007AB4EE7C
:103FF000E75AF1EE10FA98BF43F00103FFF7FBB860
:10400000FFEE007AF4EEE74AF1EE10FA98BF43F0C3
:104010000103FFF7E7B8F4EEE98AFFEE007AF1EE6C
:1040200010FAB4EEE74AA8BF0123029AB8BF0023F2
:10403000F1EE10FA98BF43F001031343FFF7C9B83C
:10404000F1EE4A8AFFF75BB80198B0EE4A0AFDF735
:10405000B1F9FFF7B5B8FEEE083AB4EEE34AF1EE77
:1040600010FA11D5F6EE082AB1EE444A34EE624A4F
:10407000F1EE003A64EE233A73EE883A84EE233A86
:1040800033EE224AB1EE444AFFEE003AF4EEC43A6F
:10409000F1EE10FAD8BFF0EE443A63EE8A3ABDEE84
:1040A000E34A14EE103A23F07F433DE5FFEE003A79
:1040B000F4EEE37AF1EE10FA98BF43F001030293B5
:1040C00010E5FFEE007AB4EEE77AF1EE10FA98BF51
:1040D00043F00103FCE4FFEE007AF4EEE76AF1EE50
:1040E00010FA98BF43F00103E9E4FFEE007AB4EE62
:1040F000E76AF1EE10FA98BF43F00103D6E4FFEE51
:10410000007AF4EEE75AF1EE10FA98BF43F001039B
:10411000C3E4FFEE007AB4EEE75AF1EE10FA98BF6E
:1041200043F00103B0E4FFEE007AF4EEE74AF1EE6B
:1041300010FA98BF43F001039DE4FFEE007AB4EE5D
:10414000E74AF1EE10FAF4EEEB8A98BF0123029AE7
:1041500088BF0023F1EE10FAA8BF43F00103134318
:1041600080E4F1EE698A13E40198B0EE690AFDF784
:1041700021F96EE42C06002000180240001000E037
:10418000F1197605000002400AD7A33C000048431D
:10419000000000000000802FD9EDA76AD9EDA87AB1
:1041A00099EDA96A77EEE67AB5EE007A67EE867A3F
:1041B00077EEA67AF4EEC77AF1EE10FAC9EDA77A97
:1041C00040F1F38389ED527AFDF79CFBD9EDA72AE4
:1041D000F7EE007A72EEE72AF0EE401AF5EEC02A0A
:1041E000F1EE10FA00F1FC831FED187A62EE872AD7
:1041F000F7EE007AF4EEE72AF1EE10FA40F3DF83EF
:104200001FED1D7AF0EE672AD9F83430D4F86C1817
:10421000D4F86828D9F830E0002BA8BF9C46D4F821
:10422000643801EA020003EB8000C0ED001A01F1DE
:104230000100B8BF4FF0000CC4F86C0802F1FF3069
:10424000B8BF4FF0000E6045C0F0F98307EE90EA6A
:10425000F8EE676A5FED317A66EEA76AA1EB0C0CA7
:104260000CEA020C0CF1FF3E0EEA020E03EB8C0C82
:1042700003EB8E0E9CED006ADEED007AD9F83CC0AF
:10428000D9F838E077EEC67ABCF1000F67EEA67A6F
:10429000B8BF4FF0000C77EE867AB8BF4FF0000E33
:1042A00067EEA27A604577EE877ACDED047AC0F0AA
:1042B000C28307EE90EAF8EE676A5FED4A7A66EE2F
:1042C000A76AA1EB0C0C0CEA020C0CF1FF3E0EEA03
:1042D000020E03EB8C0C03EB8E0E9CED006ADEED00
:1042E000007AD9F844C0D9F840E077EEC67ABCF13C
:1042F000000F67EEA67AB8BF4FF0000C77EE867A13
:10430000B8BF4FF0000E67EEA27A604577EE877A6D
:10431000CDED057AC0F08B8307EE90EAF8EE676A80
:104320005FED647A66EEA76AA1EB0C0C0CEA020C56
:104330000CF1FF3E0EEA020E03EB8C0C03EB8E0E2B
:104340009CED006ADEED007AD9F84CC0D9F848E05F
:1043500077EEC67ABCF1000F67EEA67AB8BF4FF0D1
:10436000000C77EE867AB8BF4FF0000E67EEA27AA7
:10437000604577EE877ACDED067AC0F0548307EE7C
:1043800090EAF8EE676A5FED7D7A66EEA76AA1EBC8
:104390000C0C0CEA020C0CF1FF3E0EEA020E03EBD1
:1043A0008C0C03EB8E0E9CED006ADEED007AD9F8E2
:1043B00054C0D9F850E077EEC67ABCF1000F67EE32
:1043C000A67AB8BF4FF0000C77EE867AB8BF4FF0F0
:1043D000000E67EEA27A604577EE877ACDED077A18
:1043E000C0F01D8307EE90EAF8EE676A5FED977AFA
:1043F00066EEA76AA1EB0C0C0CEA020C0CF1FF3E76
:104400000EEA020E03EB8C0C03EB8E0E9CED006AA1
:10441000DEED007AD9F85CC0D9F858E077EEC67ABC
:10442000BCF1000F67EEA67AB8BF4FF0000C77EE34
:10443000867AB8BF4FF0000E67EEA27A844577EE19
:10444000877ACDED087A00F2E68207EE90EAF8EE80
:10445000676A5FEDB07A66EEA76AA1EB0C0C0CEA16
:10446000020C0CF1FF3E0EEA020E03EB8C0C03EB88
:104470008E0E9CED006ADEED007AD9F864C0D9F8A2
:1044800060E077EEC67ABCF1000F67EEA67AB8BF9F
:104490004FF0000C77EE867AB8BF4FF0000E67EE53
:1044A000A27A604577EE877ACDED097AC0F0AF82C7
:1044B00007EE90EAF8EE676A5FEDCA7A66EEA76AE1
:1044C000A1EB0C0C0CEA020C0CF1FF3E0EEA020E02
:1044D00003EB8C0C03EB8E0E9CED006ADEED007A94
:1044E00077EEC67AD9E91AEC67EEA67ABCF1000F2E
:1044F00077EE867A67EEA27A77EE877ACDED0A7A42
:10450000C0F2BD826045C0F07C8207EE90EAF8EE12
:10451000676A5FEDE07A66EEA76A6046091A1140A5
:10452000481E024003EB810103EB820391ED006A18
:10453000D3ED007A77EEC67A67EEA67A77EE867AC2
:1045400067EEA27A77EE877ACDED0B7AFFF781BA24
:10455000D9EDA76AD9EDA87A99EDA96A77EEE67A3E
:10456000B5EE007A67EE867A77EEA67AF4EEC77A31
:10457000F1EE10FAC9EDA77A40F10D8289ED527A79
:10458000FDF7C0F9D9EDA72AF7EE007A72EEE72A17
:10459000F0EE401AF5EEC02AF1EE10FA00F11D829D
:1045A0009FEDE97A62EE872AF7EE007AF4EEE72AC9
:1045B000F1EE10FA40F317829FEDE47AF0EE672AED
:1045C000D9F83430D4F86C18D4F86828D9F830E029
:1045D000002BA8BF9C46D4F8643801EA020003EB24
:1045E0008000C0ED001A01F10100B8BF4FF0000CCF
:1045F000C4F86C0802F1FF30B8BF4FF0000E604500
:10460000C0F0398207EE90EAF8EE676ADFEDD07A03
:1046100066EEA76AA1EB0C0C0CEA020C0CF1FF3E53
:104620000EEA020E03EB8C0C03EB8E0E9CED006A7F
:10463000DEED007AD9F83CC0D9F838E077EEC67ADA
:10464000BCF1000F67EEA67AB8BF4FF0000C77EE12
:10465000867AB8BF4FF0000E67EEA27A604577EE1B
:10466000877ACDED047AC0F0028207EE90EAF8EE88
:10467000676ADFEDB77A66EEA76AA1EB0C0C0CEA6D
:10468000020C0CF1FF3E0EEA020E03EB8C0C03EB66
:104690008E0E9CED006ADEED007AD9F844C0D9F8A0
:1046A00040E077EEC67ABCF1000F67EEA67AB8BF9D
:1046B0004FF0000C77EE867AB8BF4FF0000E67EE31
:1046C000A27A604577EE877ACDED057AC0F0CB818E
:1046D00007EE90EAF8EE676ADFED9D7A66EEA76A6C
:1046E000A1EB0C0C0CEA020C0CF1FF3E0EEA020EE0
:1046F00003EB8C0C03EB8E0E9CED006ADEED007A72
:10470000D9F84CC0D9F848E077EEC67ABCF1000F72
:1047100067EEA67AB8BF4FF0000C77EE867AB8BF86
:104720004FF0000E67EEA27A604577EE877ACDED06
:10473000067AC0F0948107EE90EAF8EE676ADFED42
:10474000847A66EEA76AA1EB0C0C0CEA020C0CF161
:10475000FF3E0EEA020E03EB8C0C03EB8E0E9CED7B
:10476000006ADEED007AD9F854C0D9F850E077EE4F
:10477000C67ABCF1000F67EEA67AB8BF4FF0000C06
:1047800077EE867AB8BF4FF0000E67EEA27A6045EA
:1047900077EE877ACDED077AC0F05D8107EE90EA7B
:1047A000F8EE676ADFED6A7A66EEA76AA1EB0C0C99
:1047B0000CEA020C0CF1FF3E0EEA020E03EB8C0C2D
:1047C00003EB8E0E9CED006ADEED007AD9F85CC03A
:1047D000D9F858E077EEC67ABCF1000F67EEA67AFA
:1047E000B8BF4FF0000C77EE867AB8BF4FF0000EDE
:1047F00067EEA27A604577EE877ACDED087AC0F051
:10480000268107EE90EAF8EE676ADFED517A66EEF0
:10481000A76AA1EB0C0C0CEA020C0CF1FF3E0EEAAD
:10482000020E03EB8C0C03EB8E0E9CED006ADEEDAA
:10483000007AD9F864C0D9F860E077EEC67ABCF1A6
:10484000000F67EEA67AB8BF4FF0000C77EE867ABD
:10485000B8BF4FF0000E67EEA27A604577EE877A18
:10486000CDED097AC0F0EF8007EE90EAF8EE676AC6
:10487000DFED377A66EEA76AA1EB0C0C0CEA020CAE
:104880000CF1FF3E0EEA020E03EB8C0C03EB8E0ED6
:104890009CED006ADEED007A77EEC67AD9E91AEC73
:1048A00067EEA67ABCF1000F77EE867A67EEA27A01
:1048B00077EE877ACDED0A7AC0F2E5806045C0F0E8
:1048C000A38007EE90EAF8EE676ADFED217A66EEE4
:1048D000A76A6046091A1140481E024003EB810195
:1048E00003EB820391ED006AD3ED007A77EEC67A8E
:1048F00067EEA67A77EE867A67EEA27A77EE877A07
:10490000CDED0B7AFEF75CBCD4F8843803F2EE23CD
:10491000C4F8043A94F8EC38013384F8EC38D4F84D
:104920008428D4F8D0389A42FFF4DFAAD4F8843827
:10493000D4F8041A074A8B4234BF4FF48033012362
:104940009361FFF7D2BA00BF0000484300000000A7
:104950000000802F00000240D4F8843803F2EE23D8
:10496000C4F8043A94F8EC38013384F8EC38D4F8FD
:104970008428D4F8D0389A42FEF46CAED4F8843847
:10498000D4F8041A5E4A8B4234BF4FF480330123BB
:104990009361FEF75FBEB1EE007AF4EEC77AF1EEF6
:1049A00010FAD8BFB0EE677AE8E5B1EE007AF4EE1F
:1049B000C77AF1EE10FAD8BFB0EE677A02E49FED45
:1049C000517AF4EEC72AF1EE10FA37EEE22A5ED4FD
:1049D0009FED4D7A22EE077A16E4F1EE622ADFE5CA
:1049E000F1EE622A00E49FED477AF4EEC72AF1EE79
:1049F00010FA37EEE22A63D49FED437A22EE077A6B
:104A0000DEE5DFED416A89E5DFED3F6A62E7DFED74
:104A10003E6A844654E5DFED3C6A84461DE5DFEDE1
:104A20003A6A8446E6E4DFED386A8446AFE4DFEDB7
:104A3000366A844678E4DFED346A844641E4DFED8B
:104A4000326A84460AE4DFED306A844614E7DFED1B
:104A50002E6A8446DDE6DFED2C6A8446A6E6DFEDAD
:104A60002A6A84466FE6DFED286A844638E6DFED81
:104A7000266A844601E6DFED246A8446CAE54FF0E3
:104A8000000EF44641E54FF0000EF44619E7D9F860
:104A90003410D9F830300029BCBF0021002339B3CD
:104AA00007EE903AB8EE670ADFED187A20EE270A93
:104AB00017480122FBF72AFC20EE027AFFF7A4BB7D
:104AC000D9F83410D9F830300029BCBF00210023B8
:104AD00091B107EE903AB8EE670ADFED0C7A20EE5E
:104AE000270A0B480122FBF711FC20EE027A67E54A
:104AF0009FED050A0121DBE79FED030A0121F0E7A5
:104B00000000024077BE7F3F000000000000802FC1
:104B100000000010704700BF054BD3F888204FF00D
:104B2000006142F47002C3F888209960704700BFAA
:104B300000ED00E0000000002DE98048AA4AAB4BE0
:104B40009A42B9B016D2013B9B1A032B11460FD9DA
:104B50009B080133580802EBC0050024C1E900445A
:104B600008318D42FAD1B3EB400F03D002EBC00203
:104B7000002313604FF0E0219D4BD1F8FC2D002065
:104B800042F08072C1F8FC2D58601A68994942F0D1
:104B900001021A600B68984A43F480330B60D2F824
:104BA00000389903FBD5934A9449136C944843F019
:104BB00080531364136C0B6840F2057443F4404354
:104BC0000B60046093688F4923F47C4323F0F00367
:104BD00043F41443936051601368874943F0807332
:104BE0001360D1F800389B01FBD5824B9A6822F004
:104BF000030242F002029A609D6805F00C05082D40
:104C0000FAD1814AC3F88820D3F88C207A4922F45B
:104C1000700222F4F85242F4C062C3F88C201A6881
:104C200042F080521A60D1F800389F00FBD5714BDA
:104C30009A6802F00C02042A02F03584082A02F075
:104C40003C84724B6B4A72489168C1F3031100F5C2
:104C5000A07A415CCB406F490B60136B43F0FE03BD
:104C60001363136B00F110014FF003094FF00208BA
:104C70004FF0010E4FF00F0C0C270A680B791068EB
:104C80005E0009FA06F420EA040008FA06F630434A
:104C9000106050680EFA03F620EA06005060906833
:104CA00020439060D068072B20EA0400D06094BFB6
:104CB0000020012002EB800203F00703106A9B0032
:104CC0000CFA03F4083120EA040007FA03F3034363
:104CD0008A451362D1D1474A936B43F00103936332
:104CE0004D4B926B4D4A4FF4605119644FF4EA7189
:104CF00059644FF483119964DA649A6D9406FCD474
:104D000009221A6544F61F6300BF1A46013B002AB8
:104D1000FAD1414B9A6D9006FCD40A221A653E4B9B
:104D20009A6D9106FCD4EB221A653B4B9A6D920664
:104D3000FCD43B4A1A654FF49F625A65364B996D15
:104D400011F02001FBD12B4A364B106B40F00A00CA
:104D50001063126B1A68344822F440121A60DA6841
:104D600022F4401242F48012DA601A6822F44002FF
:104D70001A60DA6822F4400242F48002DA600268C3
:104D800022F440020260C26822F4400242F480022F
:104D9000C260026822F040720260C26822F0407273
:104DA00042F08072C2601A6822F440121A60DA6817
:104DB00022F4401242F48012DA601A6822F44002AF
:104DC0001A60DA6822F4400242F48002DA60D8689D
:104DD00020F4401242F48012DA600C910C9BB3F57F
:104DE000FA7F2ADA22E000BF00000010E80A001073
:104DF000001000E000380240003002400070004027
:104E0000003C024008544007005600020024F40011
:104E10000076000800000020000100A061030101ED
:104E20000C60040000040240000C02400C9B0133A3
:104E30000C930C9BB3F5FA7FF8DBD14BDFF8A4B3EE
:104E40001A69D8605305CF4B4CBFDFEDCF8ADFED39
:104E5000CF8A9FEDCF7ACBF800304FF4E012CBF839
:104E6000042003F5E002A3EC017A9A42FBD1C94B7E
:104E7000CBF8BC30CBF8C430C74BCBF8B030C74B05
:104E8000CBF81430C64BCBF81830C64BCBF81C30DF
:104E9000C54BCBF82030C54BCBF82430C44BCBF8F6
:104EA0002830C44BCBF82C309FEDB36BC24BCBF802
:104EB000C830C24BCBF8CC30F7EE007A00274FF069
:104EC000010EBF4BCBF81030CBE935778BED0C6B77
:104ED0008BED0E6B8BED106B8BED126B8BED146B02
:104EE0008BED166B8BED186B8BED1A6BCBED2E8A61
:104EF000CBED307ACBED397ACBED417ACBF8087037
:104F0000CBF8DC708BF8E070CBF8B4E08BF8D0E035
:104F1000CBED3A7ACBE94F77AA49DFF8CC82CBF8D0
:104F200044818BF830E1D1F83080CBED427A48F003
:104F30000208F4EE005ACBED495ACBED3B7ACBEDAB
:104F4000437ACBED3C7ACBED447ACBED3D7ACBED99
:104F5000457ACBED3E7ACBED467ACBED3F7ACBED81
:104F6000477ACBED407ACBED487A8BED4B7A8BEDDF
:104F70004E7ACBED4A7ACBED4D7AC1F83080D1F83C
:104F800040807F4ADFF864928F4B904E9048DFF864
:104F900060A2DFF860C248F48048C1F84080D1F8D0
:104FA0004080D2F8008028F0406848F00068C2F8DD
:104FB0000080D2F8088048F00068C2F80880D2F873
:104FC000248028F4700848F4A008C2F82480D2F89D
:104FD000008028F0405848F00058C2F80080D2F80D
:104FE000088048F00058C2F80880D2F8248028F0E1
:104FF000706848F0A068C2F82480D2F8008028F0D9
:10500000404848F00048C2F80080D2F8088048F0D4
:105010000048C2F80880D2F8248028F0704848F090
:10502000A048C2F82480D2F8008028F0407848F0E8
:1050300080784FF48054C2F8008094614FF44D7230
:10504000C9F80020C9F80470D9F8002042F04002E5
:10505000C9F800204A6C42F480024A644A6C0A6B28
:1050600042F038020A630A6B1A6822F0300242F0FA
:1050700020021A605A6822F004025A609A6842F0CC
:1050800030029A60DA6822F03002DA601A6A22F49A
:10509000706242F4C0621A621A6822F4407242F4EA
:1050A00000721A605A6822F010025A609A6842F43C
:1050B00040729A60DA6822F44072DA601A6A22F466
:1050C000702242F4C0221A621A6822F4406242F44A
:1050D00000621A605A6822F020025A609A6842F40C
:1050E00040629A60DA6822F44062DA601A6A22F456
:1050F000700242F4C0021A623368364A23F4405305
:1051000043F400533360736823F040037360B36863
:1051100043F44053B360F36823F44053F360336ABD
:1051200023F0706343F0C0633362036823F4405399
:1051300043F400530360436823F0400343608368F3
:1051400043F440538360C36823F44053C360036A4D
:1051500023F0706343F0C06303621F4B536010463B
:105160001E4BC2F808E0C2F80CA013611C4A426250
:10517000C0F828E040E000BF000000000000000090
:1051800000040240000010D00080BB470080BB48F4
:10519000000000006F12833ACAF249F10000204279
:1051A000000070420000A0420000C8420000F0422F
:1051B00000000C4300002043CDCCCC3ECDCCCC3FF6
:1051C0000000A0410038024000100240000C0240E4
:1051D0000014024000580140C12012008007FF0067
:1051E000C22412000000001067452301003800406F
:1051F000FF0F060000640240C0F82CA003630B6B95
:1052000043F480030B630B6BCCF82870DCF8283078
:1052100013F00103FAD1954ACCF83020DFF89C82D4
:10522000934ACCF834804FF48071CCF82C10CCF831
:105230002820CCF888308F4BD3F8884014F0010434
:10524000FAD18D49C3F890108C49C3F894108C4A58
:105250008C494FF48070C3F88C00C3F8881010217B
:1052600082F839134FF0007151609A6A42F00102DE
:105270009A62D3F8882042F00102C3F88820824B5A
:105280005A6A42F480325A625A6842F480325A6052
:10529000FDF7D4FCFDF718FBFDF790FB7B4A7C4B38
:1052A000116C41F400111164126C4FF400421A6049
:1052B0002A221C605A60D222DA6101202B221A6253
:1052C000214618604FF6FF36724A01E0013A02D0DB
:1052D0009F69BF07FAD41F686E4A47F480771F6042
:1052E00001E0013A02D05F69FF07FAD55A69D20797
:1052F00040F1CF824A00D2B2674F1A6105E05205F1
:1053000000F1D182013F00F0D4825A6912F0020FFD
:10531000F5D09A691A684F0908EB870742F40072C2
:105320001A60D7F804C801F01F0200FA02F242EA3C
:105330000C02C7F804280D940D9AB2F5FA6F06DA3C
:105340000D9A01320D920D9AB2F5FA6FF8DB013128
:105350008029B9D1514B524FC8F8143800267F210B
:105360000220FDF705FCF02104460320FDF700FCB8
:10537000362104430420FDF7FBFBFF2104430720F3
:10538000FDF7F6FB002104430220FDF7F1FB10219D
:1053900004430620FDF7ECFB002104430720FDF742
:1053A000E7FB044340F08A823E4C4FF0FF0A04F1D1
:1053B000040920788DF8A0A028A9FDF73FFB00285C
:1053C00040F07C8299F800209DF8A0309A4204F1C8
:1053D000010409F1010940F07182A742E9D1324B81
:1053E00004465E604FF0FF09304E9860EE2709E0FA
:1053F00008EB040301349DF8A02083F818280A2C38
:105400000FD0013630788DF8A09028A9FDF716FB53
:105410000028EDD008EB040301340A2C83F8187837
:10542000EFD11A4B224A196B41F0010119631B6B32
:10543000136823F4407343F480731360136823F4F8
:10544000406343F480631360136823F44053136094
:105450000023A8F82438A8F8283888F82A38102318
:10546000936120239361134B134A2CE02058014091
:105470001855030000640240405801402C040020ED
:1054800000E100E0405503000058014000380240B0
:1054900000540040410D0300400D0300EEFFC0002A
:1054A0004477000840770008000000204877000893
:1054B0000000024000000608000106082C00002041
:1054C000934202F013801978FF2903F10103F7D00A
:1054D000B44AB54B116BB548B54C41F003011163AB
:1054E000116B196821F0030141F0010119604FF4BB
:1054F00080319961196821F00C0141F004011960B3
:1055000002219961196821F4404141F480411960F8
:1055100080219961196821F4403141F4803119608A
:105520004FF480719961196821F4400141F48001C0
:1055300019604FF400619961016821F00F0141F099
:10554000050101604FF440318161116B41F00501AB
:105550001163116B196821F4407141F48071196075
:10556000196821F4406141F480611960196821F0E3
:10557000404141F080411960196821F4405119609F
:10558000216821F4401141F480112160216821F04B
:10559000407141F080712160102020219861996153
:1055A0004FF08061A1614FF000419961136B43F0AE
:1055B00004031363136B236823F00C032360E36875
:1055C00023F00C0343F00403E360236823F030036B
:1055D0002360E36823F030030343E360236823F090
:1055E000C0032360E36823F0C00343F04003E3609B
:1055F000236823F440732360E36823F4407343F487
:105600008073E360236823F440632360E36823F43A
:10561000406343F48063E360236823F440532360D2
:10562000E36823F44053002743F48053E360BA4611
:10563000B946A5F1080606EB061006EB001000EBD4
:105640000030FDF741FB00230F930F9B0B2B05DC74
:105650000F9B01330F930F9B0B2BF9DD00230E9350
:105660000E9B0B2B05DC0E9B01330E930E9B0B2B1D
:10567000F9DD0120216900FA06F249EA020311F07E
:10568000200F9BB208BF994600FA05F3054449EA8A
:10569000030011F0400F80B208BF81464AEA0200C1
:1056A00011F0080F80B208BF82464AEA03003A436D
:1056B00011F0100F80B292B208BF824611F0020FB3
:1056C00008BF17463B4311F0040F9BB208BF1F46AB
:1056D000102DAED1FDF74CFB324BA8F83298A8F84C
:1056E00034A8A8F836785A6C324942F480625A6479
:1056F0001A6B42F020021A635B6C0B682E4A43F46B
:1057000040330B60A1F571414B6823F4403343F4FF
:1057100080334B60002306215360D36251634FF402
:10572000E0111161012191601093109B42F20F7200
:10573000934205DC109B01331093109B9342F9DDDB
:10574000184A1A49136B1A48DFF87CC01B4F43F004
:105750000F031363136BCB6823F47003CB60C36830
:105760006FF38D03C360D1F80C3823F07073C1F868
:105770000C38A1F580610024C868114B20F040402E
:10578000C860506C40F010005064526C0A680D48BC
:1057900022F4701242F420120A604A6A22F47F62F4
:1057A00014E000BF00380240000002400004024044
:1057B000000802400014024000220140FFFF0300E5
:1057C000000000D0001001403480373A42F4EE620D
:1057D0004A627049CBF84C114FF087410022CBF858
:1057E000501140F2D92E4FF07E51CBF84811CBF832
:1057F0006011CBF86411CBF85421CBF85821CBF8C9
:105800005C21CBF898424FF0FF35C0F808E04FF02C
:10581000004642F20C0EC0F80CE0CBF86811CBF851
:105820006C21CBF89452CBE99C66CBE99E45CBF832
:105830009C12CBF8A012CBF8A4C2C8F86878CBF8B9
:105840008052CBF88442CBF89042CBF88822CBF838
:105850008C22C8F8643803F5801143F8042B994270
:10586000FBD14D4B4D4E4E4C0025C8F86C580020D6
:1058700003F5963203F5165143F8040B9942FBD118
:1058800042F8044BB242D461D56300F095800B46D8
:10589000F0E71A6842F400721A60D8F80028013262
:1058A000C8F8002847E55E611A6842F400721A6081
:1058B00041E51A6842F400721A603CE50136052E93
:1058C0001AD0FDF7BBF9FCF7FFFFFDF777F8354A73
:1058D000354B116C41F400111164126C4FF400420D
:1058E0001A6000221A602A225A60D222DA612B2220
:1058F0001A6201221A6032E52C4A2D49FF235360B7
:1059000000222C4B01270226802491464FF4803A36
:1059100012F0010C28D14FF4003EC3F818A0C3F8D0
:1059200018E04FF4000EC3F818E04FF0807EC3F883
:1059300018E04FF0006EC3F818E0CDF828C0DDF88D
:1059400028C08C4523DCDDF828C00CF1010CCDF813
:1059500028C0DDF828C08C45F5DD01321E2A3FF451
:1059600060AD12F0010CD6D04FF480709F619E6143
:105970009C6198614FF400609861CDF82890DDF843
:1059800028C08C45DFDD01321E2AEAD149E501320B
:10599000BEE700BF0000B445340A002054360120A1
:1059A0000000F04300380240005400400000002096
:1059B000FF340C0000000240C14BC24A1A60C24BC7
:1059C000DFF82093F6EE007AC3ED007A4FF480738F
:1059D000A8F87C38FF2301930123049398F88038BA
:1059E000C9ED007A4FF0000AB0EE678AC9ED017A7E
:1059F000C9ED027ACDF814A0002B40F0E282D8F86D
:105A00008438059A02939B1A022B00F2118398F8AE
:105A1000A138002B40F00786029BA3EB0A030E2B54
:105A200040F2C982A94B4FF480129A610023169369
:105A3000169B0B2B05DC169B01331693169B0B2B29
:105A4000F9DDA24B10229A6100231593159B0B2BB5
:105A500005DC159B01331593159B0B2BF9DD0023FA
:105A60009A480D214FF400161C4620258661139498
:105A7000139A0B2A05DC139A01321392139A0B2AFC
:105A8000F9DD02698561149412F0400F4FEA430377
:105A9000149A9BB218BF43F001030B2A05DC149A39
:105AA00001321492149A0B2AF9DD0139DED1874AAA
:105AB00098074FF40011916144BFC3F3800282F054
:105AC0000102C3F300114CBFD2B2022213F0080F3F
:105AD0000CBF4FF0020C4FF0010C079113F0800146
