:020000040800F2
:1000000000000320F52E0008452F0008452F0008AA
:10001000452F0008452F0008452F0008000000006C
:10002000000000000000000000000000452F000854
:10003000452F000800000000452F0008452F00084C
:10004000452F0008452F0008452F0008452F0008C0
:10005000452F0008452F0008452F0008452F0008B0
:10006000452F0008452F0008452F0008452F0008A0
:10007000452F0008452F0008452F0008452F000890
:10008000452F0008452F0008452F0008452F000880
:10009000452F0008452F0008452F0008452F000870
:1000A000452F0008452F0008452F0008452F000860
:1000B000452F0008452F0008452F0008452F000850
:1000C000452F0008452F0008452F0008452F000840
:1000D000452F0008452F0008452F0008452F000830
:1000E000452F0008452F0008452F0008452F000820
:1000F000452F0008452F0008452F0008452F000810
:10010000452F0008452F0008452F0008452F0008FF
:10011000452F0008452F0008452F0008452F0008EF
:10012000452F000801200008452F0008452F000832
:10013000452F0008452F0008452F0008452F0008CF
:10014000452F0008452F0008452F0008452F0008BF
:10015000452F0008452F0008452F0008452F0008AF
:10016000452F0008452F0008452F0008452F00089F
:10017000452F0008452F0008452F0008000000000B
:10018000452F0008452F0008452F0008452F00087F
:10019000452F0008452F0008452F0008452F00086F
:0C01A000452F0008452F0008452F0008DF
:1001B00040F3170300EE103ABAEEE40A704700BFAE
:1001C000F7EE007AB4EEE70AF1EE10FA01DD0B4823
:1001D0007047FFEE007AF4EEC07A9FED097AF1EEF7
:1001E00010FAD8BFF0EE407A67EE877AFDEEE77A34
:1001F00017EE903A23F07F40704700BFFFFF7F006B
:10020000FEFFFF4AF5EEC00A0023F1EE10FA43604C
:1002100008D9F6EE007A60EE277AF4EEE07AF1EE95
:1002200010FA04D8F7EE007AC0ED007A70479FED1F
:10023000077A60EE870AF7EE007AC0EE806A36EE43
:10024000A77AC6EE877AC0ED007A7047DB0FC94007
:10025000D0ED007AB7EE007AF4EEC77AF1EE10FA3C
:1002600009DA90ED017A30EE470A20EE270A30EEE7
:10027000070A80ED010A7047814210D990420ED2E0
:1002800091420FD9121A07EE902A091AB8EEE77AAE
:1002900007EE901AF8EEE77A87EE270A70479FED8F
:1002A000030A7047B7EE000A704700BF0000000065
:1002B000002303808370704700EB820C9CED006A82
:1002C000B2F1010C50D4614598BFACEB010C00EBCE
:1002D0008C0C9CED007A002B3FD0531C994298BFA8
:1002E0005B1A00EB8303012A93ED005AA2F102038B
:1002F00049D0994298BF5B1A00EB8300D0ED005AB9
:10030000F0EE046A75EEC57A36EE474A66EE266A66
:10031000F6EE004AF7EE083A24EE234A67EEA47A96
:1003200077EE073A75EE666A77EE847A76EEA36A20
:1003300065EEA45A67EE807A76EEE56A37EE457A86
:1003400077EEA67A27EE247A67EE807A77EE877AC0
:1003500067EE807A37EE860A704737EE467A27EEE8
:10036000007A37EE060A70478C4400EB8C0C9CED4B
:10037000007A002BF1D0931E013206D50A4400EB1F
:10038000820292ED005A0B44B6E7914298BF521A8E
:1003900000EB820292ED005A0B44ADE70023C0E966
:1003A00000128360704700BF42683AB103680021C1
:1003B00003EB820243F8041B9342FBD100238360CA
:1003C000704700BF816802684B1C02EB81024168E4
:1003D00082ED000A8B4228BF00238360704700BF74
:1003E0004268B5EEC00A07EE902AF1EE10FAF8EE78
:1003F000677A0DD530EE270AB5EEC00AF1EE10FA95
:10040000F8D4B4EEE70AF1EE10FA06DB30EE670A34
:10041000B4EEE70AF1EE10FAF8DAFDEEC07A006801
:1004200017EE903AF8EEE77A30EE670A002964D0CA
:10043000591E1BD48A4298BF891A00EB81019A4247
:1004400091ED004A74D900EB8301D1ED004A591CAB
:100450008A4298BF891A00EB8101D1ED006A02330C
:100460009A42194618D81146591A15E0114400EB62
:10047000810191ED004A002B6FD0991800EB8101AA
:10048000D1ED004A591C65D0114400EB81010233C3
:10049000D1ED006AE4D0991800EB810090ED006A7C
:1004A000B0EE047A76EE447A34EEE65A24EE877A99
:1004B000F6EE005AF7EE083A25EE235A67EEA57AD3
:1004C00076EEA63A34EE477A77EE857A37EE237ADF
:1004D00026EE256A67EE807A37EE467A76EEC46AB3
:1004E00077EE877A66EEA56A67EE807A77EEA67A6F
:1004F00027EE800A30EE240A70478B4203F1010C8C
:100500001DDB9A4298BF9B1A00EB830393ED007AA0
:1005100061468A4298BFACEB020100EB8101D1ED4C
:10052000007A77EEC77A27EE800A30EE070A704726
:10053000991A00EB8101D1ED004A591C88E7134458
:1005400000EB830393ED007ABCF1000FE1D002EBE6
:100550000C01E2E752B101467FE7002A7FF473AF56
:10056000D0ED004AD0ED016A02237CE7D0ED006AAD
:10057000012379E7D0ED027AF8EE677A37EEC00A08
:10058000FFF72EBF10B48368446801339C4298BFC4
:100590000023934218BF194610BC8160704700BF0A
:1005A00001380123834007EE903AF8EEE77AB6EE81
:1005B000007A27EE800A70EE200AF5EEC00AF1EE0E
:1005C00010FA08DB70EE870AFDEEE00AF8EEE00AAA
:1005D00080EEA70A704770EEC70AFDEEE00AF8EE5B
:1005E000E00A80EEA70A70478C46416861451346D1
:1005F0009CBFBCFBF1F201FB12CC8268624504D3C4
:100600000068A2EB0C02FFF757BE00B502EB010E2B
:10061000AEEB0C0200685DF804EBFFF74DBE00BFC7
:1006200030B58C4614464168D0F808E09A1AA342C7
:1006300038BF52189DF80C30FAB1744588BF8E440B
:10064000AEEB040E72459CBFBEFBF2F502FB15EE4D
:1006500062459CBFBCFBF2F502FB15CCE64538BFFA
:100660009644AEEB0C0C0CEB04029142BDE830401A
:10067000006898BF521AFFF71FBE61459CBFBCFBC4
:10068000F1F201FB12CCE64538BF8E44AEEB0C0212
:100690000068BDE83040FFF70FBE00BF30B52DED5C
:1006A000028B044683B0B0EE618AF0EE608A8DED75
:1006B000001A8DED010AFFF771FE2046FFF774FE68
:1006C0009DED010AF0EE480A04F1100001F094FAE1
:1006D000DDED001AB0EE681AF0EE480AB7EE000A37
:1006E00004F1780001F036FB9FED148A002104F13B
:1006F000880001F063FB04F19C0000F0B1FF04F1FD
:10070000E000B7EE000AF0EE480AFFF77BFD01219A
:1007100084F8E810A16884ED3C8A4FF07E520023F3
:1007200004F18800C4F8EC20C4F8F43003B0BDEC48
:10073000028BBDE8304001F049BB00BF0000000063
:10074000E030FFF75FBD00BFF5EEC00AF1EE10FA32
:1007500007EE900A01DCF7EE000A9FED087AF8EE4A
:10076000677A77EEC77A87EEA07AB4EEC07AF1EEB8
:1007700010FAD8BFB0EE470A704700BF00008042B1
:100780002DE9F04F2DED028B05468FB07830B0EE9D
:10079000408A05F11007B0EE600A039101F0E4FA17
:1007A000384601F057FA05F1880001F013FBD5E94E
:1007B000249A8046002860D0D5ED3B0AB0EE480A66
:1007C00000F08AFF05F1E000FFF742FDD5F8F400E4
:1007D0000028F0EE407A56DCB0EE670A2846FFF7B4
:1007E000F1FD9FED2C8A06AE00244FF0010B12E0C4
:1007F0009DED050A95F8E8C053464A462846B8F1EB
:10080000000F20D1CDF800C0FFF70AFF0134082CFB
:10081000A6EC010A1FD0214605AB04AA384601F018
:100820007FFA04999FED1B0A0029E1D195F8E8C0F1
:10083000CDF810B001218DED058A53464A46284671
:10084000B8F1000FDED06246FFF7CEFE0134082C6F
:10085000A6EC010ADFD1039A06A905F19C0000F07D
:100860000DFF95ED3C0A06A905F19C0000F018FF6C
:100870000FB0BDEC028BBDE8F08F524649462846CA
:10088000FFF780FEADE7DFED030AFFF789FEF0EE2C
:10089000407AA1E70000000003468830996801F023
:1008A00095BA00BFD0F804C0836802290A46ACF1AB
:1008B000040138BF0222914228BF114699428ABFE3
:1008C0009C44591AACEB01010222C0E9241380F8C0
:1008D00088208160704700BF43688B429CBFB1FB9A
:1008E000F3FC03FB1C1193429CBFB2FBF3FC03FB24
:1008F0001C22914205D0C0E92412022380F88830DE
:1009000081607047D0E901328B429CBFB1FBF3FCA0
:1009100003FB1C11914205D0C0E92412022380F888
:1009200088308160704700BFDFED287AB4EEE70AB7
:10093000F1EE10FA3CD9DFED267AB4EEE70AF1EEDB
:1009400010FAB8BFF0EE407ABDEEE77AF8EEC76A6B
:1009500077EEE67AF5EEC07AF1EE10FA2BD49FED41
:100960001D0A9FED1D6ADFED1D6ADFED1D5A27EEA2
:10097000800A17EE103A30EE060A9FED1A6A20EE52
:10098000270A7F3330EE260ADB0520EE270AF7EE32
:10099000006A30EE250A20EE270A30EE060A20EE25
:1009A000270A07EE903A30EE260A20EE270A704713
:1009B0009FED0D0A704717EE103AF7EE006A013B03
:1009C00077EEA67A07EE103AC9E700BF0000FCC236
:1009D0000000FE4220C2AE3A3C951D3C4458633DA7
:1009E000F0FD753E1872313F00000000DFED277A00
:1009F00060EE277AF5EEC07AF1EE10FA43DBB6EE40
:100A0000007A77EE877ADFED226A9FED227AFDEE9B
:100A1000E77AF8EEE77A67EEA67A30EE670AB4EE88
:100A2000C70AF1EE10FA22DDDFED1B7A37EEC00ABD
:100A300020EE007ADFED197ADFED196ADFED195A41
:100A40009FED196A67EE277A77EEE67AF7EE006A8D
:100A500067EE877A77EEA57A67EE877A77EEC67AC1
:100A600067EE877A77EEA67A27EE800A7047DFED89
:100A70000F7AB4EEE70AF1EE10FAD9D5DFED0C7A71
:100A800037EEC00AD4E7BEEE007ABAE783F9223E19
:100A9000DB0FC940DB0FC93FDB0F494091EE383611
:100AA000470C50398588083CABAA2A3EDB0FC9BFEA
:100AB000DB0F49C0B5EEC00AF1EE10FA01D5B1EE78
:100AC000400A70472DE9F04F2DED068B5C4B8DB041
:100AD000D3ED00AA002A00F0AF80CDE90120DFF8B5
:100AE00084A1584FDFED588A9FED589ADFED589A50
:100AF0009FED58AA584EDFF870B189460025029B39
:100B00006C011859FFF754FBDAF800203B689A4251
:100B100067D2B5EEC00AF1EE10FA5FD4F0EE407A7B
:100B2000D6ED006A96ED007A4C4877EEE67AF0EE64
:100B30006A0A67EEA87A04A977EE877AC6ED007A8A
:100B4000FFF71EFE464B1B784BB3DBED047AB7EE86
:100B5000007A77EEC77AF5EEC07AF1EE10FA01D599
:100B6000F1EE677A67EE897AB7EE007AF4EEC77A2B
:100B7000F1EE10FA47DCF4EECA7AF1EE10FA0EDD6F
:100B800027EEA98A35490122584600F0DBFEDDED4B
:100B9000047A20EE080A77EE807ACDED047A0DF122
:100BA00010084C44B8EC010AFFF70AFB0CAB98455F
:100BB00044F8040BF6D1019B0135AB429FD1DAF822
:100BC00000300133CAF80030DAF800103B6899426F
:100BD0001CD20DB0BDEC068BBDE8F08FF1EE407A73
:100BE0009EE7F6EE007AB4EEE70AF1EE10FACCBF1B
:100BF0000120002080F001008DED030A01F022FFAA
:100C00009DED030A85E7B0EE698ABBE7124B93EDD1
:100C1000007AF5EE007AB4EEE77AF1EE10FACCBF86
:100C200001210021042081F001010DB0BDEC068BF3
:100C3000BDE8F04F01F0F6BEDFF828A0014FBEE797
:100C40000C000020700000206F12033B000048429F
:100C50003333333F6F12833AA8000020B8000020DE
:100C600074000020A4000020780000202DE9F04F3F
:100C70002DED0A8BA5B001F0E9F901F0C1FF01F0FB
:100C800009FD01F06BFD002840F0C2849FEDD20AFF
:100C9000DFEDD20ADFF854934FF40010FFF754FD54
:100CA000DFEDCF1A9FEDCD1ADFEDCE0ACE49CF484A
:100CB0004FF40012B0EE40CAFFF7F0FC01F036FD31
:100CC000182828BF0020C9F8F40001F063FD0028AF
:100CD00000F09A84DFEDC60A9FEDBF0AC348C54CF9
:100CE000DFEDC59A9FEDC59ADFEDC5BA9FEDC5BA98
:100CF000DFEDC5AA9FEDC5AAC54FDFF87CA3FFF7BE
:100D00001FFD02F007F801F0B9F801F05FF901F0FA
:100D1000D5FA01F087FDBF4801F064F8BE48FFF73F
:100D2000C7FA01F043FE01F0D7FE14A801F0F8FE67
:100D3000BDF85020BDF85230E2802381BDF8543018
:100D4000638101F053F801F087FE9FEDB41ADFEDE7
:100D5000B40A9FEDB40AB44800F0DEFDB348B6EE25
:100D6000000A00F0CFFEFF2303930123F6EE008A72
:100D70000193002602F016F87D78BB782D0205F469
:100D800070651D433B797A791B0203F470631A4343
:100D90004FF47F614FF41B70FFF76EFAA44B20EE07
:100DA000298A1B78BCEEC88A002B00F00D82DAED90
:100DB000007AA04B9FEDA07A1B78DFEDA06ADFEDF3
:100DC000A05A77EECB7A022B67EEAA7AB8EE486A81
:100DD000F4EECA7A08BFB0EE667AF1EE10FA26EEAB
:100DE000256A06DDF4EEEB7AF1EE10FA01D5F0EEAD
:100DF000497A06EE905ADFED935A9FED930AF8EE8A
:100E0000E66A27EE067A66EEA56AF7EE00CA66EE97
:100E1000A77A7CEEC7CA27EE800AFFF785FD8248D5
:100E20002CEE800A00F08AFDF0EE497A77EEE87A3F
:100E30009FED867A7D4867EE877A78EEA78AB0EED6
:100E4000680A00F069FE824B83ED000A18EE103A42
:100E50006580A38016F03F03C4ED0A8A009340F03A
:100E6000748101F0FFFC04A9054600F039FC0098EC
:100E70009DF8168001F07CFC40EA080801209DF8EE
:100E800017B001F075FC40EA0B030220029301F059
:100E90006FFC9DF811202580654B22779DF812206C
:100EA000627701469DF814209DF81300A277187010
:100EB000604B9DF815001870029BD9ED1C7A5FFA03
:100EC00088FCD8B284F81FC084F82000C4ED0B7AE7
:100ED000B8F1000F40F04E82002B00F0C7824D4D5C
:100EE0006B78002B00F02383012A687085F800805E
:100EF00000F0EC82574B1B78012B00F07B83022B18
:100F000000F02681002B40F063829B4652480291FC
:100F100000F060FF0299002800F060834F4BDFED86
:100F2000507A93ED007AB4EEE77AF1EE10FA40F1E0
:100F300013834C4A01231370484B93ED007AF5EE6E
:100F4000007AB4EEE77AF1EE10FA00F3E28251EAA9
:100F50000B0B40F0DE829DF81430022B00F0D9829A
:100F60000121012001F05EFD0121022001F05AFD66
:100F70000021032001F056FD374800F02BFFD9F87F
:100F80000830002840F00D8137490A689A4240F243
:100F90000881364A0B60022313700021032001F000
:100FA00041FD324B1A78013AD2B21A70294B1B78A4
:100FB00084F8223099F8883084F82330274BDFED0D
:100FC0002C6AD3ED007A9FED2B7A67EEA67AF4EEC9
:100FD000C77AF1EE10FA51E00080BB47CDCCCC3F90
:100FE0009A99193ECDCCCC3E000000D0B80000202C
:100FF00000442C462000002000F07F450000000047
:10100000CDCC4C3D00E0FF440210003ACDCC4CBDAD
:10101000D40A0020B0000020AC0000206F12033B77
:10102000000080430000B4457800002060000020EC
:1010300074000020040000208FC2753D8FC2753EF1
:1010400001088039010AA03A5555553F0AD7233C7B
:101050000C000020A000002040010020A80000207B
:10106000CDCCCC3D94000020540000205000002046
:101070000000C84200007F430800002000F3E68023
:10108000FCEEE77A17EE903A84F82430A64B84F809
:1010900025201A68A54B1B689A42C0F0CC81A44B4E
:1010A0001B784BB1A34B9DF812201B789A4200F09D
:1010B000F4819F4A0023137004AA07CA07AB03C335
:1010C0009DF81E509DF821C01A80019B45EA0C1521
:1010D000AB4212D007A800F049FB07A820EE0C8A0B
:1010E00000F04AFB4FF40010DFED930A28EE000AEF
:1010F000FFF72AFB914800F0A9FD9DF81030002B66
:1011000000F0F680039BFE2B14D0B3EE047A0AAAFB
:101110000023013307EE903AF8EEE77A082B67EEEA
:10112000877AE2EC017AF4D1FE23039383480AA97B
:1011300000F082FD0195B8F1000F40F08980804BEE
:10114000C3F800807F4B83F80080013630BF11E682
:101150004346C3467C48029300F03CFE029B78B1B4
:10116000A3B9BBF1000F09D0784AD9F80830784804
:101170001360FFF791FB774A012313700021F0E61B
:101180007348FFF789FB029B002BEAD0724B704833
:101190001A686E4B1968FFF79FFB6E4A03231370A2
:1011A000ECE76E4A13606E4B1B78002B7FF4F5AEB4
:1011B000654800F00FFE674B1B7810B9032B00F059
:1011C0001282674A1278F3E600F04AFE07EE900AB0
:1011D0009AED007AF8EE677A77EEC77A67EEAB7A27
:1011E00077EE877A37EECB7ACAED007A27EE2A7A45
:1011F000FCEEE77AB4EECA7A17EE903AF1EE10FA06
:10120000A38106DDB4EEEB7AF1EE10FA01D5B0EE73
:10121000497A07EE905AF8EEE77A18EE102A67EE50
:10122000877AFDEEE77A17EE903A9B183FF5FCAD12
:1012300040F6FF729342A8BF134607EE903A9FED27
:10124000497AF8EEE77A67EE877AEFE5FF231BE746
:101250003B493C4A0B681278002B40F00381324B2B
:101260001B68002B40F0658101230B60002A7FF48E
:101270006CAF2D4A1268D31A41F2707293427FF616
:1012800064AF304A012313702C4B0AAA53F8041B95
:1012900042F8041B34498B42F8D1344B1B6812933B
:1012A00000238DF84D308DF84F309DF812308DF8B9
:1012B0004C3014A99DF815308DF84E300AA800F076
:1012C0005FFB14A902469DF8110001F041F994F862
:1012D0002130154A1549013384F82130136803F68B
:1012E000B8330B60224912680B6853400B602CE73F
:1012F0009DF811B0039B5B453FF41CAF01F024F94E
:101300009DF8111014AA00F041FB002840F02A813A
:1013100014AB0AAA53F8041B42F8041B1CA98B4205
:10132000F8D1CDF80CB001E7A40000207000002037
:101330005C00002059000020CDCCCC3FC80000202C
:101340001C00002018000020400100209C0000200C
:10135000B8000020A00000209800002054000020C9
:101360005000002001088039E80000200C00002017
:1013700000000020A84D95F800E0BEFA8EFB4FEA71
:101380005B1B73B36B7863BB4FF000036CF3070315
:1013900060F30F23A048012A038000F0D5809F4A04
:1013A0001278012A4FF0010327D0022A3FF4D2AE6F
:1013B000002A3FF4ABADBBF1000F09D0984AD9F831
:1013C000083098481360FFF767FA944A01231370B6
:1013D0000121084601F026FB0021022001F022FB3A
:1013E000CAE58D4B012A83F800C058706BD08B4A38
:1013F0001278012A4FF00003D7D18949D9F8082083
:1014000009688A4236BF02F50010501A401A002BB4
:1014100040F0DD80FCEEE77A17EE901A884280F00B
:10142000CD80BBF1000F04D07D4B7E481A60FFF7E2
:1014300033FA00215CE07C4B009D196881EA413160
:1014400081EA514181EA41111960E940284601F0E1
:101450000101013501F0E6FA052D3FF420AE724B93
:101460001968F2E7002A3FF404AF6EE66A4B012ADE
:10147000A3F800802AD0694B1B78012B00F08C80E8
:10148000022B7FF43FAD694800F0A4FC00287FF4F4
:1014900075AE6448FFF700FA70E6654B9DF81520BD
:1014A0001B789A427FF405AE624A1578624A92F838
:1014B00000C004AA07CA07AB03C38DF81E501A80E8
:1014C0008DF821C001E6BEF1000F07D0534B1B7809
:1014D000032B06D0554800F07DFC10B95148FFF7AA
:1014E000DBF9524800F076FC70B14C4B00211970CA
:1014F000012001F097FA0121022001F093FA012165
:10150000032001F08FFA37E5444A032301211370C9
:101510005FE7434AD9F8083042481360FFF7BCF947
:101520003E4A01231370454A0023137018E5C34651
:101530002AE7434B43491B680B60002A7FF405AE42
:10154000002B3FF402AE94E6FCEEE77A354817EE46
:10155000901AFFF7A7F9C4E7384B1B78002B3FF42C
:10156000F6ACE9E49DED1C0A374800F0C1FA374AB1
:10157000012313702F4A9DF8743013702E4A9DF882
:1015800076301370324A9DF812301370284A9DF855
:1015900015301370FF25BBE6214BD9F808201B68D6
:1015A000FCEEE77A934288BF02F5001017EE901A1E
:1015B00094BFD31AC31A99423FF63BAF9DF8183037
:1015C000DBB1244B1A60154A0223137031E715482A
:1015D000FFF798F9114A032313702AE71148FFF720
:1015E0005BF902999AE41846012101F01BFA0B4BB2
:1015F0001B78E6E54346C346FFE60A48FFF752F983
:10160000064A0323137014E7DFED130AFFF764BBE8
:101610009FED120AFFF73CBBB0000020A0000020A5
:101620009C000020B80000200000002040010020A5
:10163000580000205B0000205A0000209400002089
:10164000A40000201C000020600000205C0000209E
:1016500059000020980000200000000000606A4946
:10166000034600F120014FF07E5243F8042B8B42D9
:10167000DA61FAD14FF078530364704701F1200327
:10168000F0EC016AF1EC017A90ED077A67EEA67A48
:10169000994267EE877AE2EC017AF1D1704700BF98
:1016A0009FED0C7A034601F12002B3EC016AF1ECE4
:1016B000017AD3ED076A67EE867A8A4267EEA67AE8
:1016C00037EE277AF1D130EE070AD0ED107A20EE0E
:1016D000270A70470000000020EE200A704700BF74
:1016E000820748BFC0F380026FEA000303F00103E2
:1016F0004CBF82F00102022210F0080F0B700CBFE9
:101700004FF0020C4FF0010C030643BFC0F300235F
:1017100083F001035B0001234A7081F802C0C0F32B
:10172000001210F4806CCA700B7106D010F4007FA8
:101730000CBF4FF0020C4FF0010C6FEAD0220023D7
:1017400002F001026CF3070362F30F236FEA103219
:1017500002F0010262F31743C0F3801060F31F63CD
:101760000022C1F805304A72704700BF837800EE4E
:10177000103AB8EE400A7047437943B1F6EE007A6A
:10178000012BB5EE000A08BFB0EE670A7047B7EE4E
:10179000000A704700234FF07E52026080ED010A7C
:1017A000C0ED020AC3607047F5EE007AB4EEE70AB6
:1017B000F1EE10FA08D4F1EE007AB4EEE70AF1EE99
:1017C00010FAD8BFF0EE407AC0ED007A704700BF43
:1017D00070B52DED028BD0ED007A90ED018AB7EE59
:1017E000000A30EE670A84B004460D461646FFF73D
:1017F00061F9DFED477AF4EEC07AF1EE10FA76DCAB
:10180000D4ED036AB6EE000AF4EEC06AF1EE10FA07
:101810006ADA76EE807A9FED3F0ACDED037A26EE06
:10182000800ACDED006AFFF7E1F8DDED006AD4ED46
:10183000025A20EE006AB7EE007A68EE266A37EEAA
:10184000465A36EEA50A314628468DED027A8DEDD0
:10185000015A8DED006AFEF78DFEDDED037A9DEDF8
:10186000006AF0EE406A27EE880AD4ED027A66EE4E
:10187000866A30EE270A31462846CDED006AFEF72B
:1018800079FE9DED027A94ED006AD4ED035A9DED48
:10189000015ADDED006A37EE466A20EE050AC6EE13
:1018A000087A30EE260A77EEA57AF4EEC77AF1EEE2
:1018B00010FA0EDB77EEC77AF4EEC77AF1EE10FA83
:1018C000F8DAC4ED037A04B0BDEC028B70BD77EE9C
:1018D000877AF5EEC07AF1EE10FAF8D4C4ED037A07
:1018E00004B0BDEC028B70BD76EEC07A93E7F6EEE5
:1018F000007A68EE277A94ED020A37EE800A3146C4
:10190000284604B0BDEC028BBDE87040FEF732BE45
:1019100017B7D138DB0F494000B583B08DED011A00
:101920000090FFF737FF00989DED011A4FF07E53AE
:101930000361436180ED061A03B000BD80ED050A26
:10194000704700BFD0ED047A90ED050A90ED067A5D
:1019500000B530EE670A85B020EE070A039130EE3D
:10196000270A029280ED040A0190FFF71DFFDDE9CE
:101970000221019805B05DF804EBFFF729BF00BF15
:10198000024628230846022100F03AB810B5032980
:101990008CB014460AD8282300EB81100093022251
:1019A00002AB402100F066F8282817D02246002319
:1019B000B3EE047A013307EE903AF8EEE77A082B9B
:1019C00067EE877AE2EC017AF4D10C4B6362002374
:1019D0004FF07C52184622620CB010BD0DF1080C7D
:1019E000BCE80F000FC4BCE80F000FC49CE8030064
:1019F000012384E8030018460CB010BD010002006A
:101A000010B51C46194B0360002361F30703090A54
:101A100061F30F2364F31743210A61F31F63C0F8D6
:101A200006304CB100F1090302EB040C12F8011B63
:101A300003F8011F6245F9D104F1090E0C4B411D59
:101A400086444FF6FF7211F801CF82EA0C22C2F3EE
:101A5000072C714533F81CC08CEA0222F3D1130A1B
:101A60000271437104F10A0010BD00BF72383832B0
:101A7000482F000870B50929BDF8104031D9D0F8B9
:101A800000C0194DAC452CD1C588954229D1058996
:101A9000AC4226D305F10A028A4222D8828800F19C
:101AA000090400F1050C1148164605EB040E4FF62B
:101AB000FF721CF8011F82EA0122110AF44530F876
:101AC000111081EA022292B2F3D1964209D135B1C6
:101AD000591914F8012F03F8012B9942F9D128461E
:101AE00070BD4FF0FF3070BD72383832482F00089B
:101AF0000022012380ED000A80ED010A82608381CB
:101B0000704700BF4FF4807380ED000A80ED010A3A
:101B100080ED020A83817047037BD3B3D0ED017A55
:101B200030EE677AB5EEC07AF1EE10FA12D4DFED3E
:101B3000306AB4EEE67AF1EE10FA33D54FF48073E2
:101B4000F0EE407A80ED020A8381C0ED007AB0EEBB
:101B5000670A7047DFED276AB4EEE67AF1EE10FA15
:101B6000ECDC437B93B390ED027AF4EEC77AF1EEAE
:101B700010FA20DBF4EEC07AF1EE10FADED9F4EEC2
:101B8000C77AF1EE10FAD9D9012380ED020A437326
:101B9000DBE7F0EE407A80ED000A80ED020AB0EE5D
:101BA000670A7047437B8BB190ED027AF4EEC77AF7
:101BB000F1EE10FA15DAF4EEC77AF1EE10FAE3D886
:101BC000F4EEC07AF1EE10FADEDBB7E7F4EEC07A9D
:101BD000F1EE10FAD8DBF4EEC07AF1EE10FAADD9DE
:101BE000D2E7F4EEC07AF1EE10FAA7D9E3E700BF2E
:101BF0000AD7A33C0AD7A3BC9FED0D6B024680ED2C
:101C0000180AC0ED190A00F118010023B3EE047A96
:101C1000013307EE903AF8EEE77A083167EE877AFB
:101C2000082BE2EC017A81ED006BF1D1704700BF27
:101C3000000000000000000001F1200251F8043B08
:101C400040F8043B9142F9D1704700BF80ED180A7B
:101C5000704700BFDFED305A9FED306AD0ED184A73
:101C600090ED195A2DE9F04100F11801864600F176
:101C700020050020BEEC017A51F808CFC7EE257A86
:101C80004C6867EEA47A67EE807ABDEEE77AF8EEEC
:101C9000C76A77EEE67AF0EE676AFEEEE06A16EE65
:101CA000903ADE184FEAE3735B413618B6EB0C024C
:101CB00007EE902A17EE102A1A4462EB040307EE8F
:101CC000103AF8EE677AB8EEC77A67EE867A77EE62
:101CD000877A67EE857ABDEEE77AF8EEC76A17EE87
:101CE000108A77EEE67AF0EE676AFEEEE06A16EEAC
:101CF000903ADF184FEAE37348EB43033F1857EA83
:101D0000030803D017EB0C0643EB04027545C1E949
:101D10000062AFD1BDE8F081000020430000802FB9
:101D2000043100EBC10C50F83110DCF804009FEDD9
:101D3000087A0028B8BF002107EE901AF8EE677AFB
:101D4000B8BF002067EE877A1060C3ED007A704755
:101D50000000802F80ED021AC0ED031AC0ED010AC9
:101D600080ED000A704700BFB5EEC00AF1EE10FA30
:101D70001FD4F7EE007AB4EEE70AF1EE10FAD8BFFE
:101D8000F0EE407AD0ED026A90ED030A90ED007A11
:101D900090ED016A30EE660A20EE270A30EE260A40
:101DA00030EE470A20EE060A30EE070A80ED000A00
:101DB0007047DFED017AE5E7000000000023012213
:101DC000C0E901330270C3600174704701230370DE
:101DD000416070470078A0F10100B0FA80F040093E
:101DE000704700BF4FF0000303807047184B19493C
:101DF0005A6C194842F4806282B05A641A6B42F0FD
:101E000020021A635B6C0A68144B42F440320A6089
:101E1000426822F4403242F48032426000210122C2
:101E20004FF0060C4FF4E0105960D962C3F834C08B
:101E300018619A600191019B42F20F72934205DC96
:101E4000019B01330193019B9342F9DD02B070477E
:101E500000380240001402400023014000220140EB
:101E6000054A936843F08043936013689B07FCD551
:101E7000D06CC0F30B00704700220140454B46492F
:101E80005A6C42F480022DE9F0475A645A6C1A6B7E
:101E900042F038021A631B6B01F128070326022562
:101EA0004FF0010C0F244FF0060E0A680B791068F2
:101EB0004FEA430906FA09F820EA080005FA09F989
:101EC00040EA0900106050680CFA03F920EA0900A2
:101ED0005060906848EA00009060D2F80C904FEA99
:101EE000D30A02EB8A0029EA0808C2F80C8003F042
:101EF0000703026A9B0004FA03F822EA08020EFABA
:101F000003F308311343B9420362CED1234B244972
:101F10005960244A2448C3F808C001F20141D8603E
:101F20001A6159621B49C3F828C0D8621A630B6B47
:101F30001E4A43F480030B630023096B9362936A88
:101F400013F00103FBD11A491A4D15631A48516366
:101F50004FF480741549D4629062C2F88830D1F889
:101F60008830DB07FBD4154B154D164AC1F890504D
:101F70001548C1F894204FF480741022C1F88C40A9
:101F8000C1F8880083F839234FF000725A60BDE829
:101F9000F08700BF00380240483100080058014077
:101FA000C12012008007FF00FF0F060000640240FE
:101FB000B0050020205801401855030000E100E062
:101FC00040580140B0010020405503000A4A0B4B25
:101FD000916A41F001019162D2F8881041F001014B
:101FE000C2F888105A6A42F480325A625A6842F43F
:101FF00080325A60704700BF0064024000580140C0
:1020000008B50D4B1A6851050DD40B4B1A68120513
:1020100000D408BD4FF400629A60084908481022B5
:10202000FEF750FD08BD4FF480629A6005490648EE
:102030001022FEF747FDE8E700640240B0030020ED
:10204000B0070020B0010020B00500202849294A2F
:102050000B6843F480330B60D2F800389803FBD54B
:10206000234B25491A6C254842F080521A641A6C99
:102070000A6840F2057C42F440420A60C0F800C0A1
:102080009A681F4922F47C4222F0F00242F4144282
:102090009A6059601968174A41F080711960D2F846
:1020A00000389901FBD5124A936823F0030343F0EB
:1020B00002039360936803F00C03082BFAD1114BD1
:1020C000C2F88830D2F88C300A4923F4700323F424
:1020D000F85343F4C063C2F88C30136843F0805364
:1020E0001360D1F800389B00FBD500F0CBBE00BFD9
:1020F000003802400030024000700040003C0240C6
:102100000854400700560002DFF8C0C02E4BDCF830
:10211000002042F48072CCF80020ACF5806C01E025
:10212000013B44D0DCF81424D207F9D5274A264BCA
:102130004FF0920CC2F810C0DFF894C001E0013BF0
:102140002DD0DCF814249207F9D5204A1E4B926951
:10215000DFF87CC001E0013B2CD0DCF8142412062F
:10216000F9D51A4A184BDFF868C0106101E0013B4D
:1021700023D0DCF814241006F9D5144A124B144865
:10218000116101E0013B1BD0D0F814245207F9D5AE
:102190000E4A136843F400730020136070470B4A23
:1021A000136843F400736FF00100136070474FF041
:1021B000FF3070476FF0020070476FF00300704708
:1021C0006FF00400704700BF400D03000054004052
:1021D00000500040F0B50020314BDFF8D8E0DFF8C8
:1021E000D8C083B04FF6FF36012504462D4A01E0E2
:1021F000013A02D099698F07FAD41968294A41F443
:102200008071196001E0013A02D05969C907FAD515
:102210005A69D2072ED54200D2B223491A6103E08F
:10222000520531D4013935D05A699707F8D59A69E2
:102230001A68410942F400721A605EF8217000F0D9
:102240001F0205FA02F23A434EF821200194019A46
:10225000B2F5FA6F06DA019A01320192019AB2F5EB
:10226000FA6FF8DB01308028C0D1104B104A1A6099
:1022700003B0F0BD1A6842F400721A60DCF8002066
:102280000132CCF80020E1E75E611A6842F4007286
:102290001A60DBE71A6842F400721A60D6E700BFE2
:1022A00000540040410D0300400D0300B009002020
:1022B000EEFFC000B8090020B40900202DE9F04766
:1022C000974A984B116B41F0010182B01163126B78
:1022D0001A6822F0300242F010021A605968924ADD
:1022E0004FF48024002021F0040159609C6100908B
:1022F000009B934205DC009B01330093009B9342BB
:10230000F9DD884B1A6822F0300242F010021A60A0
:102310005968854A0424002021F0040159609C6119
:102320000190019B934205DC019B01330193019BCA
:102330009342F9DD7A4A7D4B116B7D4C41F00201ED
:102340001163116B196821F4403141F400311960B7
:10235000596841F480715960996841F480319960FD
:10236000D96821F4403141F48031D960596A21F0B3
:102370000F0141F004015962196821F4402141F430
:1023800000211960596841F400715960996841F45D
:1023900080219960D96821F4402141F48021D960DD
:1023A000596A21F0F00141F040015962136C43F485
:1023B00000131364136C00264FF400402A232B22D1
:1023C0002060D221266063600123E16122622360E4
:1023D000FFF700FF7F210220FFF796FEF021054660
:1023E0000320FFF791FE362105430420FFF78CFE02
:1023F000FF2105430720FFF787FE314605430220F2
:10240000FFF782FE102105430620FFF77DFE3146CF
:1024100005430720FFF778FE464BDFF828E145EA41
:10242000000CC3F800C04448444B922593264FF05B
:10243000EE0AD4F8009010F8018B414A49F48079F3
:10244000C4F8009001E0013A66D0D3F81474FF0795
:10245000F9D53B4A256101E0013A55D0D3F814740F
:10246000BF07F9D5A269364A01E0013A54D0D3F842
:1024700014743F06F9D5324AC4F8108001E0013ADD
:102480004AD0D3F814747F07F9D5D4F800802C4AC9
:1024900048F48078C4F8008001E0013A3CD0D3F8D9
:1024A0001474FF07F9D52661D4F80080244A28F473
:1024B0008068C4F8008001E0013A25D0D3F8147494
:1024C000BF07F9D5A269D4F800801D4A48F4007806
:1024D000C4F8008001E0013A1ED0D3F814747F06DE
:1024E000F9D5D4F81080226842F4806222600EF898
:1024F000018001310A299CD1BCF1000018BF0120E4
:10250000404202B0BDE8F087DFF82480D8F8002010
:1025100042F40072C8F800200EF801A0E9E700BFFD
:102520000038024000000240DF9304000004024033
:10253000005400401000002070310008005000409E
:10254000400D0300C80900200048704700C0000883
:10255000032870B5054600F28680402A08461146D9
:1025600000F28180414CDFF824E1661EAEEB040EE0
:1025700004F1FF0233461EF803C003F801CF934273
:10258000F9D159B1431E06EB8512CE1813F8010F8D
:1025900002F8010FB342F9D140290AD0344A631836
:1025A00003EB851302EB8512FF2103F8011B934215
:1025B000FBD1304B1A69002A03DA2F492F4A5960A0
:1025C0005A602C4AD368D903FCD4F323D36013692F
:1025D000284823F47E7323F0020343F4067343F088
:1025E00002031361136943F480331361C368DA0390
:1025F000FCD403692249234D1E4A23F0FA030361E8
:10260000036923F4407323F0010343F4007343F0A0
:10261000010301F5807E03612D1B6B1851F8040F37
:102620001860D368DB03FCD47145F6D113691648F2
:1026300023F0010313611369C4F1006443F0004304
:10264000136104F54044A0F5807301E0834208D093
:102650001A78E15C914203F10103F7D06FF00100B9
:1026600070BD002070BD4FF0FF3070BDD409002058
:10267000140A0020003C024023016745AB89EFCDDE
:10268000D009002004C00008D40A002001C00008BE
:10269000704700BF2249234B086B234A40F00A00D1
:1026A0000863096B196821F440111960D96821F495
:1026B000401141F48011D960196821F4400119607A
:1026C000D96821F4400141F48001D960116821F4F6
:1026D00040011160D16821F4400141F48001D160D2
:1026E000116821F040711160D16821F0407141F012
:1026F0008071D1601A6822F440121A60DA6822F4FC
:10270000401242F48012DA601A6822F440021A6021
:10271000DA6822F4400242F48002DA60704700BFB7
:102720000038024000040240000C0240094B1A69C4
:102730001B696FEA13336FEAD2225B0002F00102D9
:1027400003F002031343032B1ABF034A52F823007A
:1027500004207047000C02407C310008034B1869CC
:102760006FEA902000F00100704700BF00040240B3
:10277000022808D8054B064A1B69125C23FA02F0AE
:1027800000F0010070470020704700BF00180240B1
:1027900088310008034B18696FEAD02000F001006F
:1027A000704700BF000402401B491C4B086B1C4AC9
:1027B00040F005000863096B196821F4407141F489
:1027C00080711960196821F4406141F480611960D9
:1027D000196821F0404141F080411960196821F4E5
:1027E00040511960116821F4401141F480111160C9
:1027F000116821F04071102041F0807111604FF09C
:10280000200C98614FF000414FF08060C3F818C071
:1028100090619961704700BF00380240000002409B
:10282000000802400D4A0E4B116B41F0010111638B
:10283000126B1A6822F4407242F480721A601A68AD
:1028400022F4406242F480621A601A68102020214B
:1028500022F440521A609861996170470038024032
:1028600000000240F0B4264A84B000234FF48011E7
:1028700091610193019B0B2B05DC019B01330193BB
:10288000019B0B2BF9DD1E4A00231021916100935F
:10289000009B0B2B05DC009B01330093009B0B2B53
:1028A000F9DD002016490D224FF4001704462026BA
:1028B0008F610294029B0B2B05DC029B0133029378
:1028C000029B0B2BF9DD0D698E610394039B400085
:1028D00015F0400F80B218BF40F001000B2B05DC53
:1028E000039B01330393039B0B2BF9DD013ADFD1EB
:1028F000034B4FF400129A6104B0F0BC704700BF64
:102900000000024010B5DFF8A0C0864684B0172250
:1029100000214FF480644FF080602EFA02F313F030
:10292000010F0CBF4FF080534FF48053CCF8183098
:102930000291029B0B2B05DC029B01330293029B4D
:102940000B2BF9DDCCF818400191019B0B2B05DC1A
:10295000019B01330193019B0B2BF9DDCCF818008F
:102960000091009B0B2B05DC009B01330093009B27
:102970000B2BF9DD013AD0D20A4A00234FF4004173
:1029800091610393039B0B2B05DC039B01330393A2
:10299000039B0B2BF9DD034B4FF000429A6104B00F
:1029A00010BD00BF0000024000080240194B1A4849
:1029B0001A6BDFF86CC042F0030270B51A631B6B30
:1029C000036823F003034FF4803243F001030360F4
:1029D0000CF10406826103254FF0010E1CF8012B57
:1029E0000368510005FA01F423EA04030EFA01F129
:1029F0000B430EFA02F2B44503608261EED1074A3E
:102A0000136823F00F034FF4403143F005031360C4
:102A1000916170BD00380240000002400004024095
:102A20008C310008042806D8044B1A5C21B101231C
:102A30009340034A936170471032F8E790310008E1
:102A4000000002400028034B0CBF4FF480320122EB
:102A50009A617047000002401A4A1B48136B1B49D9
:102A600043F00F031363136BC36823F47003C36055
:102A7000CB686FF38D03CB60D0F80C18144B21F0AA
:102A80007071C0F80C18D868124920F04040D86026
:102A9000506C40F010005064526C1A6822F47012AE
:102AA00042F420121A605A6A22F47F6242F4EE6203
:102AB0005A6240F2D92C42F20C03C1F808C0CB6034
:102AC000704700BF00380240000402400008024086
:102AD000000002400010014010B5FFF765FE0E4BEC
:102AE0000E49186B40F0040018631B6B022203248C
:102AF0004FF0010E0B6804FA02F023EA00030B60AA
:102B0000CB680EFA02FC23EA0003023243EA0C030C
:102B10000E2ACB60EED110BD003802400008024002
:102B20002DE9F04F85B00025DFF8D08001904FF0FF
:102B3000080A2E462F46A9464FF0010BAAF10804B9
:102B400004EB041004EB001000EB0030FFF7DAFE9A
:102B5000CDF80C90039B0B2B05DC039B01330393F7
:102B6000039B0B2BF9DDCDF80890029B0B2B05DCAA
:102B7000029B01330293029B0B2BF9DDD8F8101056
:102B80000BFA04F447EA040011F0200F80B20BFAAC
:102B90000AF308BF074647EA030C46EA040011F0AF
:102BA000400F1FFA8CFC80B208BF674611F0080F77
:102BB00008BF064646EA03002C4311F0100F80B20E
:102BC00008BF0646A4B211F0020F08BF25462B43EA
:102BD00011F0040F9BB20AF1010A08BF1D46BAF1B9
:102BE000100FABD1019B04481F805E809D8005B013
:102BF000BDE8F04FFFF786BE777777000008024008
:102C00003F4B40491A6B42F0FE022DE9F0471A6330
:102C10001B6B01F598770326022501244FF00F0E58
:102C20004FF00C0C0A680B7910684FEA430906FA5A
:102C300009F820EA080005FA09F940EA09001060DD
:102C4000506804FA03F920EA09005060906848EAE5
:102C500000009060D2F80C90072B94BF4FF0000A50
:102C60004FF0010A02EB8A0029EA0808C2F80C803A
:102C700003F00703026A9B000EFA03F822EA080237
:102C80000CFA03F308311343B9420362CAD11C4B57
:102C90001D4A996B1D4841F0010199639B6B4FF4EC
:102CA00060544FF4EA714FF48313146451649364D5
:102CB000D064936D9D06FCD40923136544F61F630D
:102CC00000BF1A46013B002AFAD10F4A936D9C06B9
:102CD000FCD40A230C4913658B6D9806FCD4EB23B6
:102CE000094A0B65936D9906FCD40948064910659D
:102CF0004FF49F6353658B6D9B06FCD4BDE8F08752
:102D00000038024098310008000100A06103010171
:102D10000C600400204A214B106B40F0020070B59B
:102D20001063106C40F480401064126C1A2102256C
:102D300003244FF00F0E4FF0050C1A6804FA01F649
:102D400005FA01F022EA060202431A609E68304347
:102D5000A1F110029860586A52000EFA02F620EAB9
:102D600006000CFA02F20231024320295A62E4D131
:102D70001A680B4922F0407242F080724FF480547E
:102D80001A604FF44D709C61002308604B600B6823
:102D900043F040030B6070BD003802400004024065
:102DA000003800402DE9F0410020DFF8B8C02B4B7F
:102DB0002B4982B0A0274FF08056864601254FF45C
:102DC0008054DA689A688E61CDF804E0019A272A67
:102DD00005DC019A01320192019A272AF9DD9A68ED
:102DE0009207FCD51D739A68D207FCD500EB400210
:102DF00093F80C800CF802804FEA40089A6892071A
:102E0000FCD51F739A68D207FCD508EB0002624418
:102E10001F7B57709A689707FCD583F80CE09A6877
:102E2000D207FCD58044E0441A7B88F802209A68D7
:102E300012F08002FBD18C610092009A272A05DCF7
:102E4000009A01320092009A272AF9DDE02710B19A
:102E500002B0BDE8F0810120B3E700BF00380040B8
:102E600000040240D40A0020054BD3F888204FF01C
:102E7000006142F47002C3F888209960704700BF77
:102E800000ED00E0164A936803F00C03042B25D0F4
:102E9000082B0AD0134B124A134892681349C2F305
:102EA0000312825CD3400B6070475368516813F47F
:102EB000800F536814BF0E4A0A4AC3F3881301F007
:102EC0003F01B2FBF1F202FB03F3054A5268C2F381
:102ED000014201325200B3FBF2F3DCE7044BDAE7C4
:102EE000003802400024F400C8320008140000201A
:102EF00000127A00DFF834D0FFF7B6FF0C480D4916
:102F00000D4A002302E0D458C4500433C4188C4244
:102F1000F9D30A4A0A4C002301E013600432A242AA
:102F2000FBD3FFF7B5FBFDF7A1FE704700000320C0
:102F30000000002018000020D832000818000020EF
:082F4000DC0A0020FEE700009E
:102F480000002110422063308440A550C660E7701D
:102F5800088129914AA16BB18CC1ADD1CEE1EFF1C5
:102F68003112100273325222B5529442F772D6626D
:102F7800399318837BB35AA3BDD39CC3FFF3DEE315
:102F88006224433420040114E664C774A4448554BD
:102F98006AA54BB528850995EEE5CFF5ACC58DD565
:102FA8005336722611163006D776F6669556B4460D
:102FB8005BB77AA719973887DFF7FEE79DD7BCC7B5
:102FC800C448E5588668A77840086118022823385D
:102FD800CCC9EDD98EE9AFF9488969990AA92BB905
:102FE800F55AD44AB77A966A711A500A333A122AAD
:102FF800FDDBDCCBBFFB9EEB799B588B3BBB1AAB55
:10300800A66C877CE44CC55C222C033C600C411CFC
:10301800AEED8FFDECCDCDDD2AAD0BBD688D499DA4
:10302800977EB66ED55EF44E133E322E511E700E4C
:103038009FFFBEEFDDDFFCCF1BBF3AAF599F788FF4
:103048008891A981CAB1EBA10CD12DC14EF16FE1D4
:103058008010A100C230E32004502540467067600C
:10306800B9839893FBA3DAB33DC31CD37FE35EF324
:10307800B1029012F322D23235421452776256725C
:10308800EAB5CBA5A89589856EF54FE52CD50DC574
:10309800E234C324A01481046674476424540544AC
:1030A800DBA7FAB79987B8975FE77EF71DC73CD7C4
:1030B800D326F2369106B0165766767615463456FC
:1030C8004CD96DC90EF92FE9C899E9898AB9ABA914
:1030D8004458654806782768C018E1088238A3284C
:1030E8007DCB5CDB3FEB1EFBF98BD89BBBAB9ABB64
:1030F800754A545A376A167AF10AD01AB32A923A9C
:103108002EFD0FED6CDD4DCDAABD8BADE89DC98DB3
:10311800267C076C645C454CA23C832CE01CC10CEB
:103128001FEF3EFF5DCF7CDF9BAFBABFD98FF89F03
:10313800176E367E554E745E932EB23ED10EF01E3B
:1031480000100240020000000010024004000000CD
:103158000010024005000000000C024006000000BC
:1031680000140240060000000102030405060708D7
:1031780011180000180000000C00000008000000F2
:103188000A0B0C000107080B000107080B000000E0
:10319800000C02400E000000000C02400F0000006E
:1031A800000C024000000000000C0240010000007A
:1031B8000010024007000000001002400800000054
:1031C8000010024009000000001002400A00000040
:1031D800001002400B000000001002400C0000002C
:1031E800001002400D000000001002400E00000018
:1031F800001002400F000000000C02400800000010
:10320800000C024009000000000C02400A00000007
:1032180000140240000000000014024001000000F9
:1032280000140240020000000014024003000000E5
:1032380000140240040000000014024005000000D1
:10324800001402400C000000001402400D000000B1
:10325800001402400E000000001402400F0000009D
:1032680000180240000000000018024001000000A1
:103278000018024004000000001802400500000089
:103288000010024000000000001002400100000091
:10329800001402400B000000001802400F0000005C
:1032A800000802400000000000180240080000006A
:1032B800000402400500000000040240060000006F
:1032C80000000000000000000102030406070809CE
:1032D800785634120100000000E0FF440000003F6F
:0832E800EEEEEEEE0024F4000E
:0400000508002EF5CC
:00000001FF
