:020000040800F2
:100000000000032069680008B9680008B9680008A2
:10001000B9680008B9680008B96800080000000065
:10002000000000000000000000000000B9680008A7
:10003000B968000800000000B9680008B968000845
:10004000B9680008B9680008B9680008B96800080C
:10005000B9680008B9680008B9680008B9680008FC
:10006000B9680008B9680008B9680008B9680008EC
:10007000B9680008B9680008B9680008B9680008DC
:10008000B9680008B9680008B9680008B9680008CC
:10009000B9680008B9680008B9680008B9680008BC
:1000A000B9680008B9680008B9680008B9680008AC
:1000B000B9680008B9680008B9680008B96800089C
:1000C000B9680008B9680008B9680008B96800088C
:1000D000B9680008B9680008B9680008B96800087C
:1000E000B9680008B9680008B9680008B96800086C
:1000F000B9680008B9680008B9680008B96800085C
:10010000B9680008B9680008B9680008B96800084B
:10011000B9680008B9680008B9680008B96800083B
:10012000B9680008111D0008B9680008B96800081E
:10013000B9680008B9680008B9680008B96800081B
:10014000B9680008B9680008B9680008B96800080B
:10015000B9680008B9680008B9680008B9680008FB
:10016000B9680008B9680008B9680008B9680008EB
:10017000B9680008B9680008B96800080000000004
:10018000B9680008B9680008B9680008B9680008CB
:10019000B9680008B9680008B9680008B9680008BB
:0C01A000B9680008B9680008B9680008D8
:1001AC0000EB820C012A00B5DCED006A0ED902F1DD
:1001BC00010E8E450AD21CED017A002B64D137EE6C
:1001CC00667A27EE007A37EE260A00BDB2F1010CF2
:1001DC0049D4614598BFACEB010C00EB8C0C9CED49
:1001EC00007A002BEBD0531C994298BF5B1A00EBA2
:1001FC008303012A93ED005AA2F1020342D09942E3
:10020C0098BF5B1A00EB8300D0ED005AB0EE046A85
:10021C0075EEC57A36EEC74A26EE866AF6EE004AC9
:10022C00F7EE083A24EE234A67EEA47A77EE073A03
:10023C0035EE466A77EE847A36EE236A65EEA45A7A
:10024C0067EE807A36EE656A37EE457A77EE867A17
:10025C0027EE247A67EE807A77EE877A67EE807ADB
:10026C0037EEA60A00BD8C4400EB8C0C9CED007A9A
:10027C00002BA4D0931E013237D50A4400EB820226
:10028C0092ED005A0B44BDE7DCED014A5CED025ADD
:10029C00B0EE046A75EEE47A36EEC74A26EE866A4C
:1002AC00B6EE005AF7EE083A24EE234A67EE857A4A
:1002BC0077EE073A34EEC66A77EE847A36EE236A26
:1002CC0065EE855A67EE807A36EE656A37EE647AAB
:1002DC0077EE867A27EE057A67EE807A77EE877A64
:1002EC0067EE807A37EEA60A00BD914298BF521A8B
:1002FC0000EB820292ED005A0B4483E72DE9F04F9C
:10030C002DED028BF5EEC00AF1EE10FA8BB005461E
:10031C0000F1AF84F7EE007AF4EEE70AF1EE10FA92
:10032C00C8BFF0EE670AE14CD4ED326AD4ED337AF3
:10033C0094ED307AD4ED315A94ED2C6A77EEE67A5E
:10034C0067EEA07A77EEA67A77EEC77A67EEA57A93
:10035C0077EE877AB4EE676AF1EE10FAC4ED307A74
:10036C0040F03183D4F8B430002B40F02C83206F54
:10037C00216B676F666B94ED2F7A421A67EB06035D
:10038C0052EA030C27D007EE902A9FEDC96AF8EECB
:10039C00676A07EE903A66EE866AF8EEE77A77EED1
:1003AC00A67A67EE877AFDEEE76AB8EEE66A16EE95
:1003BC0090CA77EEC67AB0EE676ABEEEE06A16EEC9
:1003CC00103ADA17DB184CEB420253EA020C40F0FD
:1003DC002284C4E90C07A06FA16BE76FE66B421A8D
:1003EC0067EB060352EA030C27D007EE902A9FED29
:1003FC00B06AF8EE676A07EE903A66EE866AF8EE37
:10040C00E77A77EEA67A67EE877AFDEEE76AB8EEC2
:10041C00E66A16EE90CA77EEC67AB0EE676ABEEE62
:10042C00E06A16EE103ADA17DB184CEB420253EA8C
:10043C00020C40F0EA83C4E90E07D4F88000216C6A
:10044C00D4F88470666C421A67EB060352EA030C0C
:10045C0027D007EE902A9FED966AF8EE676A07EEB2
:10046C00903A66EE866AF8EEE77A77EEA67A67EE51
:10047C00877AFDEEE76AB8EEE66A16EE90CA77EE7A
:10048C00C67AB0EE676ABEEEE06A16EE103ADA177C
:10049C00DB184CEB420253EA020C40F0B083C4E987
:1004AC001007D4F88800A16CD4F88C70E66C421A52
:1004BC0067EB060352EA030C27D007EE902A9FED58
:1004CC007C6AF8EE676A07EE903A66EE866AF8EE9A
:1004DC00E77A77EEA67A67EE877AFDEEE76AB8EEF2
:1004EC00E66A16EE90CA77EEC67AB0EE676ABEEE92
:1004FC00E06A16EE103ADA17DB184CEB420253EABC
:10050C00020C40F07683C4E91207D4F89000216DF8
:10051C00D4F89470666D421A67EB060352EA030C2A
:10052C0027D007EE902A9FED626AF8EE676A07EE15
:10053C00903A66EE866AF8EEE77A77EEA67A67EE80
:10054C00877AFDEEE76AB8EEE66A16EE90CA77EEA9
:10055C00C67AB0EE676ABEEEE06A16EE103ADA17AB
:10056C00DB184CEB420253EA020C40F03C83C4E92A
:10057C001407D4F89800A16DD4F89C70E66D421A5B
:10058C0067EB060352EA030C27D007EE902A9FED87
:10059C00486AF8EE676A07EE903A66EE866AF8EEFD
:1005AC00E77A77EEA67A67EE877AFDEEE76AB8EE21
:1005BC00E66A16EE90CA77EEC67AB0EE676ABEEEC1
:1005CC00E06A16EE103ADA17DB184CEB420253EAEB
:1005DC00020C40F00283C4E91607D4F8A000216E87
:1005EC00D4F8A470666E421A67EB060352EA030C49
:1005FC0027D007EE902A9FED2E6AF8EE676A07EE79
:10060C00903A66EE866AF8EEE77A77EEA67A67EEAF
:10061C00877AFDEEE76AB8EEE66A16EE90CA77EED8
:10062C00C67AB0EE676ABEEEE06A16EE103ADA17DA
:10063C00DB184CEB420253EA020C40F0C882C4E9CE
:10064C001807D4F8A800A16ED4F8AC70E66E421A64
:10065C0067EB060352EA030C30D007EE902A9FEDAD
:10066C00146AF8EE676A07EE903A66EE866AF8EE60
:10067C00E77A77EEA67A67EE877ABDEEE77AF8EE40
:10068C00C76A17EE10CA77EEE67AF0EE676AFEEEEE
:10069C00E06A16EE903ADA17DB184CEB420253EA9A
:1006AC00020C40F08E82C4E91A0707E0000000102B
:1006BC000000802F0000000000002043D4E9011747
:1006CC0094F8D0C0BCF1010FD4E9360207F1010651
:1006DC0040F0A882D4ED4A7AD4ED4D6AB7EE007A98
:1006EC00F4EEC77AF1EE10FA20EE260A09DA94ED50
:1006FC004B7A30EE470A20EE270A30EE070A84EDDB
:10070C004B0AD4F83C31002B00F3028323688E4251
:10071C0003EB870383ED000A00D300263346A36066
:10072C00D4F84031002B40F08B82BCF1010F94F8CF
:10073C003081276806EB010940F09F82626B9A4278
:10074C00B8BF1A46236BB8BF0023002A00F02283DF
:10075C0007EE903AB8EE670A5FED2B7A8A4220EEEC
:10076C00270A24BFB2FBF1F301FB1322B24288BF6C
:10077C00A9EB020240F2968443463846FFF710FD7F
:10078C00E26BA36B8DED020A002ABCBF0022002392
:10079C00002A40F0A48301291FED3A0A40F27F841D
:1007AC000122B24288BFA9EB020240F27884434690
:1007BC003846FFF7F5FC626C236C8DED030A002ABA
:1007CC00BCBF00220023002A40F07A8301291FEDD0
:1007DC00470A40F26F840122964238BFA9EB02020D
:1007EC0080F0688443463846FFF7DAFCE26CA36C71
:1007FC008DED040A002ABCBF00220023002A40F021
:10080C00508301291FED550A40F251840122964272
:10081C0038BFA9EB020280F04A8443463846FFF702
:10082C00BFFC626D236D8DED050A002ABCBF002252
:10083C000023002A40F0268301291FED620A40F2B2
:10084C003F840122964238BFA9EB020280F0388423
:10085C0043463846FFF7A4FCE26DA36D8DED060A06
:10086C00002ABCBF00220023002A40F0FC82012990
:10087C001FED700A40F221840122964238BFA9EB89
:10088C00020280F01A8443463846FFF789FC626EF8
:10089C00236E8DED070A002ABCBF00220023002A1C
:1008AC0040F0D28201291FED7D0A40F2FE83012225
:1008BC00964238BFA9EB020280F0F78343463846D4
:1008CC00FFF76EFCE26EA36E8DED080A002ABCBF2A
:1008DC0000220023002A40F0118301291FED8B0A0E
:1008EC0040F2DB830122964280F0D783A9EB02020F
:1008FC0043463846FFF754FC8DED090AD4ED397A9E
:10090C00DDED026A94ED417A9DED036ADDED054A59
:10091C009DED065ADDED075A67EEA67ADDED046A09
:10092C0067EE877AC5ED007AD4ED3A7A94ED427A87
:10093C0067EE867A9DED086A67EE877AC5ED017AD7
:10094C00D4ED3B7A94ED437A67EEA67A67EE877A1C
:10095C00C5ED027A94ED3C7AD4ED446ADDED097A6A
:10096C0027EE247A27EE267A85ED037A94ED3D7AEC
:10097C00D4ED456A27EE057A27EE267A85ED047AC2
:10098C0094ED3E7AD4ED466A27EE257A27EE267A48
:10099C0085ED057A94ED3F7AD4ED476A27EE067A19
:1009AC0027EE267A85ED067AD4ED406A94ED487AE6
:1009BC0067EEA67A67EE877AC5ED077A0BB0BDECC9
:1009CC00028BBDE8F08F1FEDC43AD4ED046A94EDB0
:1009DC00056AD4ED0B2AC4ED2C7A86EE837AC6EE2A
:1009EC00034AD4ED066A94ED076AC6EE833A86EEA6
:1009FC00035AD4ED086A94ED096A86EE834AD4ED65
:100A0C000A6AC6EE035A86EE836AC2EE836A94EDD6
:100A1C002E3A27EE037A64EE834A27EE277A64EEA9
:100A2C00A74A25EE035AFDEEC72ABDEEE42A25EEB1
:100A3C00275A66EE836AFDEEC50A63EE833A24EE0E
:100A4C00034A65EE835AF8EEE21A26EE036AB8EE14
:100A5C00C23A37EE617A74EEC34AB8EEE03A63EE0E
:100A6C00A73A35EE435AB0EE473ABDEEE31A24EE00
:100A7C00274ABEEEE03A65EEA75A26EE276AFDEE4F
:100A8C00C41A66EEA77A13EE103AF8EEC16AB0EE0D
:100A9C00643ABEEEE03A12EE902AD81873EEE63ABB
:100AAC00B8EEE17A4FEAE37342EB430313EE101A0C
:100ABC000022801834EE474AB0EE637ABEEEE07A3C
:100ACC0063672067CB1712EE100A49185B41184474
:100ADC0017EE103A8918B0EE457ABEEEE07AA167AF
:100AEC00D917DB18BDEEE58A4941E0679B1811EE7A
:100AFC00100AC4F8803017EE103A0144F8EEC84AD8
:100B0C00B0EE447ABEEEE07AC4F88410D917DB1844
:100B1C00FDEEC66A75EEE45A10EE900A49419B1838
:100B2C00C4F8883017EE103A0144F8EEE64AB0EEFD
:100B3C00657ABEEEE07AC4F88C10D917DB18BDEEDE
:100B4C00E73A36EE646A11EE900A49419B18C4F8F4
:100B5C00903017EE103A0144F8EEC34AB0EE467AE4
:100B6C00BEEEE07AC4F89410D917DB1818EE100A10
:100B7C00494177EEE47A9B18C4F8983017EE103A96
:100B8C000144B0EE677ABEEEE07AC4F89C10D91737
:100B9C00DB1816EE900A49419B18C4F8A03017EEEA
:100BAC00103A014413EE100AC4F8A410D917DB183C
:100BBC0040EB41019B18C4E92A31C4F8B420FFF77B
:100BCC00D6BBC91846EB0202C4E91A1276E5C9185D
:100BDC0046EB0202C4E9181233E5C91846EB0202CF
:100BEC00C4E91612F9E4C91846EB0202C4E914125E
:100BFC00BFE4C91846EB0202C4E9121285E4C91815
:100C0C0046EB0202C4E910124BE4C91846EB02028F
:100C1C00C4E90E1211E4C91846EB0202C4E90C1225
:100C2C00FFF7D9BB8E4228BF0026B2427FF476ADC7
:100C3C000346A360D4F840310646002B3FF475AD53
:100C4C009FEDC37AF0EE477A85ED007A85ED017A57
:100C5C0085ED027A85ED037A85ED047A85ED057ACA
:100C6C0085ED067AC5ED077A0BB0BDEC028BBDE8BD
:100C7C00F08FDFEDB70AFFF756BB53181B1AA2EB28
:100C8C00000B904288BF9B46BBF1000F00F06481C3
:100C9C00B0429FEDB03A00F28480A6EB000A0195B9
:100CAC00DFF8A89202AE054618E0D3459FEDA80ADE
:100CBC0040F23D81BBF1010F524640F04081121AC7
:100CCC002A448A4200D3521A43463846FFF768FA40
:100CDC009C4BA6EC010A4B4500F0B48059F8082F48
:100CEC00D9F80430002BAEBF184600200022034672
:100CFC000028DAD007EE902AB8EE670AD34520EE2A
:100D0C00030A00F29580BAFBFBF20BFB12A290E0F7
:100D1C0003F1FF3ED4F844319FED8B6A83EA4333F1
:100D2C0083EA534383EA431383EA433888EA5848F7
:100D3C0088EA48181B0AC4F844814FEA182807EEC1
:100D4C00903A07EE108AF8EEE77AB8EEC77A0123EC
:100D5C0003FA0EF377EE877A07EE103A67EE867A8F
:100D6C00B8EEC77AF7EE006A77EEE67A20EE070A5D
:100D7C00F6EE006A77EE807AF5EEC07AF1EE10FAB4
:100D8C0053DB77EEA67AFDEEE77AF8EEE77A87EE9C
:100D9C00870ABBE401299FED6E0A40F2838162460B
:100DAC00E4E4A9EB00060195DFF8A0A10DF1080918
:100DBC0005461AE0B3459FED660A40F2AF80BBF1E1
:100DCC00010F304603D00123984238BF5844C31A50
:100DDC00EA188A4228BF521A43463846FFF7E0F910
:100DEC00584BA9EC010A53452CD05AF8080FDAF8E5
:100DFC000420002AAEBF1346002300201A46002B05
:100E0C00D8D007EE900AB345B8EE670A96BFB6FB8A
:100E1C00FBF030460BFB10609B4520EE030A9CBF99
:100E2C00B3FBFBF30BFB1323CEE777EEE67AAAE7D3
:100E3C0052469B4540F2F38190427FF640AF5A44B4
:100E4C00121A3DE7019D59E507EE903AB8EE670A94
:100E5C00DFED407A914220EE270A9CBFB2FBF1F302
:100E6C0001FB132224E507EE903AB8EE670ADFED9A
:100E7C00397A914220EE270A9CBFB2FBF1F301FBB9
:100E8C001322FAE407EE903AB8EE670ADFED317AF6
:100E9C00914220EE270A9CBFB2FBF1F301FB132217
:100EAC00D0E407EE903AB8EE670ADFED2A7A914269
:100EBC0020EE270A9CBFB2FBF1F301FB1322A6E440
:100ECC0007EE903AB8EE670ADFED227A914220EEF7
:100EDC00270A9CBFB2FBF1F301FB13227CE407EE63
:100EEC00903AB8EE670ADFED1B7A8A4220EE270AA9
:100EFC0024BFB2FBF1F301FB132252E407EE903A4C
:100F0C00B8EE670ADFED137A8A4220EE270AFFF467
:100F1C00EAACB2FBF1F301FB1322E4E4BBF1010FE9
:100F2C0000F0D180B6FBFBF00BFB10604BE7BBF184
:100F3C00010F00F0CA80BAFBFBF20BFB12A20120DE
:100F4C007AE700BF68000010000080332800001012
:100F5C00000000000000802F626B236B5A45BCBF61
:100F6C005A465B46002A40F0B28001291FED080A60
:100F7C0000F2C180B21A43463846FFF711F9E26B12
:100F8C00A36B8DED020A002ABCBF00220023002AAD
:100F9C0040F0258101291FED120A00F23481B21AAA
:100FAC0043463846FFF7FCF8626C236C8DED030A60
:100FBC00002ABCBF00220023002A40F0FC8001293B
:100FCC001FED1D0A00F22381B21A43463846FFF783
:100FDC00E7F8E26CA36C8DED040A002ABCBF00227A
:100FEC000023002A40F0D38001291FED270A00F2CC
:100FFC000C81B21A43463846FFF7D2F8626D236D66
:10100C008DED050A002ABCBF00220023002A40F007
:10101C00AA8001291FED320A00F2FF80B21A434662
:10102C003846FFF7BDF8E26DA36D8DED060A002A78
:10103C00BCBF00220023002A40F0818001291FED53
:10104C003C0A00F2E880B21A43463846FFF7A8F88B
:10105C00626E236E8DED070A002ABCBF00220023AE
:10106C00002A59D101291FED460A00F2D280B21A8A
:10107C0043463846FFF794F8E26EA36E8DED080AEE
:10108C00002ABCBF00220023BABB01291FED500A65
:10109C0003D90122B2423FF629ACB21A28E4B21AA3
:1010AC00FFF785BBB21AFFF767BBB21A06E4B21A98
:1010BC00FFF7B3BBB21AFFF795BBB21AFFF7E3BB4E
:1010CC00B21AFFF7C5BB184681E60246F7E507EEF4
:1010DC00903AB8EE670A5FED617A914220EE270AEA
:1010EC009CBFB2FBF1F301FB13229642BFF442AF5B
:1010FC00A9EB02023FE70122F7E707EE903AB8EEC0
:10110C00670A5FED6C7A8A4220EE270A24BFB2FB95
:10111C00F1F301FB1322BDE707EE903AB8EE670A34
:10112C005FED747A914220EE270A9CBFB2FBF1F37B
:10113C0001FB132296429AD2A9EB020298E707EE22
:10114C00903AB8EE670A5FED7D7A914220EE270A5D
:10115C009CBFB2FBF1F301FB13229642BFF473AFB9
:10116C00A9EB020270E707EE903AB8EE670A5FED62
:10117C00877A914220EE270A9CBFB2FBF1F301FB68
:10118C0013229642BFF44AAFA9EB020247E707EEDF
:10119C00903AB8EE670A5FED917A914220EE270AF9
:1011AC009CBFB2FBF1F301FB13229642BFF421AFBB
:1011BC00A9EB02021EE707EE903AB8EE670A5FED64
:1011CC009B7A914220EE270A9CBFB2FBF1F301FB04
:1011DC0013229642BFF4F8AEA9EB0202F5E607EE35
:1011EC00903AB8EE670A5FEDA57A914220EE270A95
:1011FC009CBFB2FBF1F301FB13229642BFF4CFAEBE
:10120C00A9EB0202CCE60122F7E70122CDE701228D
:10121C00DFE701228EE701229FE70122B1E7B3FB52
:10122C00FBF00BFB103007E6BCEEC07ADFEDA66AD4
:10123C00F8EE477AF0B570EE677AA44C67EEA67AB2
:10124C00A268FDEEE76A064616EE903A4FEA831C5A
:10125C0017EE103A606807330D4606F14A019342C7
:10126C0004EB810188BF1218D31AD1F84821B8EECB
:10127C00E66A9A1A102A77EEC67A0CF1400716D94C
:10128C00934A2468C1F8483102F1800E0EEBC61166
:10129C0002EBC61204EB830E0133DEF800E042F8D9
:1012AC0004EB984298BF00238A42F3D1002205EB4D
:1012BC000C033D44D3ED005A93ED037A95ED002ACF
:1012CC00D3ED133A93ED016AD3ED026AD3ED112AF3
:1012DC0093ED123A93ED051A93ED065AD3ED090AE4
:1012EC00D3ED044A93ED144ADFED7A1A93ED080A14
:1012FC0032EE652A73EEC73A22EE272A72EEC62A20
:10130C0033EE663A63EEA73A32EE252A62EEA72A4E
:10131C00D3ED075A23EE273A73EE873A93ED177AFB
:10132C0072EE862A33EE263A93ED156AD3ED166AE1
:10133C0037EE657A36EE416A76EEC56A27EE277A85
:10134C0026EE276A66EEA76A37EE257AD3ED195A90
:10135C0002EB461236EE016A76EE856A93ED0A1AB6
:10136C0093ED1A5A75EEE05A02F10A015A4A65EEEB
:10137C00A75A35EE415A02EB810275EEA05A25EEC2
:10138C00275AD2ED000A35EE015A22EE202A92EDB0
:10139C00011AD2ED020A32EE212A34EE644A62EED0
:1013AC00812A24EE274A92ED031AD2ED041A72EE2A
:1013BC00822A23EE203A34EE244A33EE223A63EEAC
:1013CC00813AD3ED184A92ED052AD2ED062A73EE36
:1013DC00833A24EE214A74EEC04A34EE234A26EEB8
:1013EC00026A92ED073AD2ED083A36EE046A64EEE0
:1013FC00A74A66EEA26A92ED094A92ED0A2AD3ED4B
:10140C000B2A76EE866A74EE804A27EE037A93ED09
:10141C001B6A93ED0C3A93ED1E0A37EE267A64EEB6
:10142C00A34A36EE626AD3ED1C6AD3ED0D3A74EE24
:10143C00874A65EE845A26EE276A76EEC36A93EDE8
:10144C001D7A93ED0E4A75EEA45A25EE025A36EE2D
:10145C00226A66EEA76AD2ED0B2AD3ED0F4A37EE5D
:10146C00637A35EE255A26EE226A76EE836A27EEEB
:10147C00277A92ED0C3AD3ED1F5A30EE440A36EE31
:10148C00056A66EE836A92ED0D5A37EE237A20EEEA
:10149C00270A75EEE45A76EE866A30EE040A25EEDB
:1014AC00A76A27EE057A92ED0E5A37EE267A60EE91
:1014BC00057AD2ED0F6A36EE240A77EE877A20EEA3
:1014CC00260A30EE270AF0BD000000420000001092
:1014DC007001001000000000480100105A4BDFEDB5
:1014EC005B5AD3F800C070B5D3E9012E0446B0EEB8
:1014FC00655A02EB0E00002116E05E1CB2425DD96B
:10150C0015ED016A36EE476A66EE277A77EE877A32
:10151C0026EEA77A043167EEA77AB1F5006F35EEA7
:10152C00075A75EEA75A6DD007EE901AF8EEE77AC7
:10153C0077EE807ABCEEE77A17EE103A934224BF2E
:10154C00B3FBF2F502FB15339E45B8EE477A2CBF80
:10155C00AEEB0303C31A0CEB8305012B77EEC77AB2
:10156C0095ED007A3AD95E1CB24237D955ED016A35
:10157C0076EEC76A66EEA77A77EE876A0B1907EEE6
:10158C00903AF8EEE77A77EE807ABCEEE77A17EECF
:10159C00103A934224BFB3FBF2F502FB15337345AB
:1015AC00B8EE477A94BFAEEB0303C31A0CEB83057A
:1015BC00012B77EEC77A95ED007A9ED8013B1DD4AE
:1015CC009A4298BF9B1A0CEB830393ED006A36EE9C
:1015DC00476A66EE277A77EE877A99E7013B0FD454
:1015EC009A4298BF9B1A0CEB8303D3ED006A76EEFC
:1015FC00C76A66EEA77A77EE876ABFE71344E2E71D
:10160C001344F0E7DFED127A60EEA77AF4EEE75AB6
:10161C00F1EE10FA02D59FED0D0A70BDB5EEC05A71
:10162C00F1EE10FA0CD4F0EE456A65EEA07A9FED5F
:10163C00097A25EE265A77EE877A85EE270A70BD51
:10164C00F1EE456AF1E700BF000000100000000059
:10165C000AD7233C5F70893030B5D04C94ED525A88
:10166C00F7EE002A72EEC52A2DED048BF5EEC02A9A
:10167C00F1EE10FA94ED538A83B000F1E080B0EEF5
:10168C00627ADFEDC77AD4ED544AB4EEE77AF1EE24
:10169C0010FA00F1A58194ED553A9FEDC27ADFED79
:1016AC00C26AF6EE007A23EE077AB4EEE73AF1EE70
:1016BC0010FA67EE266A80F2BF80F5EEC06AF1EE92
:1016CC0010FA73EE275A19DAFEEE007A77EEA67A44
:1016DC009FEDB66ADFEDB66AFDEEE77AF8EEE77AD3
:1016EC0067EE867A37EE677AB4EEE67AF1EE10FAA8
:1016FC0040F34081DFEDAB7A37EEC77A27EE074A2D
:10170C00DFEDAC7A9FEDAC6ADFEDAC6A9FEDAC2AF5
:10171C00D4ED593A64EE277A77EEC67AB7EE006AC2
:10172C0067EE847A77EEA67AD4ED586A67EE847AFF
:10173C0076EEA36A77EEC27A67EE847AB6EE004A4A
:10174C0077EE867A66EE846A67EE877A36EE667A8C
:10175C0067EEA77AF5EEC07AF1EE10FA76EE676ACC
:10176C0040F21881B1EEE76A36EE676AF5EEC06AB0
:10177C0026EE076AF1EE10FA36EE276A40F2078180
:10178C00F1EEE67A77EEE67AD4F8843267EE877A71
:10179C0077EEA67AF0EE678A002B53D028EE030A78
:1017AC00D4ED567A616894ED577A30EE240A28EE1F
:1017BC00252A30EE270A32EE242AFCEEC07A32EECD
:1017CC00072A17EE902AF8EE677A8A4230EE670AFB
:1017DC0003D3B2FBF1F301FB1322A36820688DED58
:1017EC00016A93421D4638BFCB189A1A0123009008
:1017FC00FEF7D6FCFCEEC27A9DED016A009817EE5E
:10180C00902A8A4224BFB2FBF1F301FB1322AA42B5
:10181C00F8EE677A88BF6B1866EE001A88BF9A1AC2
:10182C0032EE670A98BFAA1A0123FEF7B9FC28EE1C
:10183C00800A30EE210A64E073EE675A46E7B1EE97
:10184C00627A1EE7DFED5F7AB4EEE75AF1EE10FA3A
:10185C00A4DDDFED5D7AB4EEE75AF1EE10FA40F359
:10186C003881F0EE007AB4EEE75AF1EE10FA40F35C
:10187C003681DFED567AB4EEE75AF1EE10FA40F30A
:10188C002A814FF4C650032368EE255A28EE030A2A
:10189C0075EEA45AD4ED577AD4F87C2294ED567A8E
:1018AC00C4F8803230EE240A75EEA77A9A4230EEF4
:1018BC00070AB0EE679A00F0068145490144002002
:1018CC008DED016A0091FFF7AFFC9DED016A009967
:1018DC00F0EE407A66EE277A0120B0EE490ACDEDA3
:1018EC00007AFFF7A1FC94ED527ADDED007A94EDCD
:1018FC00553A28EE800AF7EE002A30EE270A72EEEF
:10190C00C72AC2EE887AB7EE007A77EE837AF4EEC5
:10191C00C77AF1EE10FAC0F29F80D4F89432002B03
:10192C0040F0CF80D4F86C21D4F89432C4F858210C
:10193C00002B40F0C480D4F86821C4F86021B7EEC5
:10194C00007AF4EEC77A4FF0FF33F1EE10FAC4F8D8
:10195C0094326CDB77EEC77AF4EEC77AF1EE10FABC
:10196C00F8DA0123C4F89832C4ED557A03B0BDEC13
:10197C00048B30BDDFED177AB4EEE77AF1EE10FA96
:10198C007FF5BCAEDFED147A37EEC77AB6E6DFED45
:10199C00137AF7E69FED116AE6E600BF000000102F
:1019AC0017B7D138DB0F494083F9223EDB0FC94012
:1019BC00DB0FC93F91EE3836470C50398588083C0F
:1019CC00ABAA2A3E5C8F823F3333B33FB81E3540FF
:1019DC00186A0008DB0FC9BFDB0F49C0000000000C
:1019EC00B6EE000A28EE000A6168206830EE240A80
:1019FC004FF0FF33FCEEC07AC4F8943217EE902A05
:101A0C008A4224BFB2FBF1F301FB1322A368F8EE68
:101A1C00677A934238BF5B1830EE670A9A1A012333
:101A2C0003B0BDEC048BBDE83040FEF7B9BBF5EE5E
:101A3C00C07A0123F1EE10FAC4F8983294D577EEFF
:101A4C00877AF5EEC07AF1EE10FAF8D4C4ED557A37
:101A5C0003B0BDEC048B30BDF5EEC07AF1EE10FA9C
:101A6C003FF55BAFB6EE007AB4EEC73AF1EE10FA82
:101A7C00F4EEC77AACBF01220022F1EE10FAACBF33
:101A8C00012300239A423FF46FAFD4F89432012B18
:101A9C0008BFD4F86C21D4F8943218BF0022012B63
:101AAC00C4F85C214FF0FF3308BFD4F86821C4F8A8
:101ABC00943218BF0022C4F86421002352E700229C
:101ACC003BE7002230E7D4F8781200297FF4F7AE18
:101ADC00F3E61846D8E64FF484500223D4E64FF4CC
:101AEC0004600123D0E600BFDFF8C0C02E4BDCF849
:101AFC00002042F48072CCF80020ACF5806C01E040
:101B0C00013B44D0DCF81424D207F9D5274A264BE4
:101B1C004FF0920CC2F810C0DFF894C001E0013B0A
:101B2C002DD0DCF814249207F9D5204A1E4B92696B
:101B3C00DFF87CC001E0013B2CD0DCF81424120649
:101B4C00F9D51A4A184BDFF868C0106101E0013B67
:101B5C0023D0DCF814241006F9D5144A124B14487F
:101B6C00116101E0013B1BD0D0F814245207F9D5C8
:101B7C000E4A136843F400730020136070470B4A3D
:101B8C00136843F400736FF00100136070474FF05B
:101B9C00FF3070476FF0020070476FF00300704722
:101BAC006FF00400704700BF400D0300005400406C
:101BBC000050004010B5DFF8A0C0864684B0172254
:101BCC0000214FF480644FF080602EFA02F313F082
:101BDC00010F0CBF4FF080534FF48053CCF81830EA
:101BEC000191019B0B2B05DC019B01330193019BA4
:101BFC000B2BF9DDCCF818400291029B0B2B05DC6A
:101C0C00029B01330293029B0B2BF9DDCCF81800DD
:101C1C000391039B0B2B05DC039B01330393039B69
:101C2C000B2BF9DD013AD0D20A4A00234FF40041C4
:101C3C0091610093009B0B2B05DC009B01330093FF
:101C4C00009B0B2BF9DD034B4FF000429A6104B063
:101C5C0010BD00BF000002400008024030B4DFF8A5
:101C6C00A0C0254884B0172200214FF480654FF0A6
:101C7C0080642CFA02F313F0010F0CBF4FF0805369
:101C8C004FF4805383610291029B0B2B05DC029B6A
:101C9C0001330293029B0B2BF9DD85610191019BB2
:101CAC000B2B05DC019B01330193019B0B2BF9DD05
:101CBC0084610091009B0B2B05DC009B013300938E
:101CCC00009B0B2BF9DD013AD3D20C4A00234FF4C5
:101CDC00004191610393039B0B2B05DC039B0133A8
:101CEC000393039B0B2BF9DD044B4FF000429A61DD
:101CFC0004B030BC704700BF000802400000024036
:101D0C00777777002DE9F04F184B2DED068B1A687D
:101D1C0051058DB009D4154B1A68120500F11684C3
:101D2C000DB0BDEC068BBDE8F08F4FF48061104A0E
:101D3C009960104EDFF85080D2F804B09FED0EAAD7
:101D4C0098ED068ADFED0D9ADFED0D8A0D4FCDF87B
:101D5C000CB00023029304ABB2467418B7EE009A91
:101D6C0006F6D40906F69405019325E100640240B9
:101D7C00001000E024000020000000346F12033B30
:101D8C00000000000000001000000020F6EE083AF1
:101D9C00B4EEE34AF1EE10FA40F3E68134EE634A16
:101DAC00B1EE003A24EE033A33EE093AC4EE032ABC
:101DBC0032EEA34AB4EEC94AF1EE10FA40F3D481E4
:101DCC00F5EEC04AB14B2360F1EE10FA00F1E6815A
:101DDC00B6EE084AF4EEC44AF1EE10FA40F3F7817D
:101DEC0074EEC44AF1EE003A64EEA33A73EE893A0B
:101DFC0084EEA33A73EE044AF4EEC94AF1EE10FAFB
:101E0C0040F3E581B5EEC05AA04B6360F1EE10FAD9
:101E1C0000F1F781F6EE084AB4EEE45AF1EE10FA4E
:101E2C0040F3088235EE645AB1EE004A25EE044ABE
:101E3C0034EE094AC5EE043A33EEA45AB4EEC95A4C
:101E4C00F1EE10FA40F3F681F5EEC05A8F4BA36019
:101E5C00F1EE10FA00F10882B6EE085AF4EEC55A0B
:101E6C00F1EE10FA40F3198275EEC55AF1EE004A04
:101E7C0065EEA44A74EE894A85EEA44A74EE055ABE
:101E8C00F4EEC95AF1EE10FA40F30782B5EEC06ACF
:101E9C007E4BE360F1EE10FA00F11982F6EE085A6F
:101EAC00B4EEE56AF1EE10FA40F32A8236EE656A7A
:101EBC00B1EE005A26EE055A35EE095AC6EE054A21
:101ECC0034EEA56AB4EEC96AF1EE10FA40F318824A
:101EDC00F5EEC06A6D4B2361F1EE10FA00F12A8227
:101EEC00B6EE086AF4EEC66AF1EE10FA40F33B82E5
:101EFC0076EEC66AF1EE005A66EEA55A75EE895A70
:101F0C0086EEA55A75EE066AF4EEC96AF1EE10FA81
:101F1C0040F32982B5EEC07A5C4B6361F1EE10FAA6
:101F2C0000F13B82F6EE086AB4EEE67AF1EE10FAB6
:101F3C0040F34C8237EE667AB1EE006A27EE066A01
:101F4C0036EE096AC7EE065A35EEA67AB4EEC97AB1
:101F5C00F1EE10FA40F33A82F5EEC07A4B4BA361E6
:101F6C00F1EE10FA00F14C82B6EE087AF4EEC77A74
:101F7C00F1EE10FA40F35D8277EEC77AF1EE006A6B
:101F8C0067EEA66A76EE896A87EEA66A76EE077A1F
:101F9C00F4EEC97AF1EE10FA40F34B823B4BE3615D
:101FAC0098F92030002B80F25D82394B2034A3420B
:101FBC000AF1200A00F08C82DAF8003043F31703A0
:101FCC0000EE103AB8EEC00A20EE0A0AB5EEC00ACE
:101FDC00F1EE10FA00F11D87F0EE40AAD9ED007A6F
:101FEC00DAF8043099ED007A7AEEE77A43F31703C6
:101FFC0067EEA97A77EE877A07EE103ADAF80830AE
:10200C00C9ED007AB8EEC77A43F3170327EE0A7AC4
:10201C0007EE903AB5EEC07AF8EEE77AF1EE10FAE8
:10202C0067EE8A7A01D5B1EE477AF5EEC07AF1EE19
:10203C0010FA01D5F1EE677A95ED006AD5ED006ADC
:10204C00019837EE467AF0EE480A27EE297A37EEF9
:10205C00267A85ED007AD5ED016A95ED017A77EE59
:10206C00E67A67EEA97A77EE877AC5ED017A96F86B
:10207C008038003B18BF0123C7F84031FEF73EF90A
:10208C0096F88038002B40F0D98605E0FFFF7F00E2
:10209C0024060020FEFFFF4A9DED044AB4EEC94A17
:1020AC00F1EE10FAC0F29F860123DDED054AF4EE45
:1020BC00C94AF1EE10FAC0F28B8601239DED065A47
:1020CC00B4EEC95AF1EE10FAC0F277860123DDEDB9
:1020DC00075AF4EEC95AF1EE10FAC0F263860123E6
:1020EC009DED086AB4EEC96AF1EE10FAC0F24F86A3
:1020FC000123DDED096AF4EEC96AF1EE10FAC0F2C3
:10210C003B8601239DED0A7AB4EEC97AF1EE10FA02
:10211C00C0F227860123DDED0B7AF4EEC97AF1EEDD
:10212C0010FAC0F2128601230293B5EEC04AF1EE0A
:10213C0010FA7FF52BAEFEEE083AB4EEE34AF1EE60
:10214C0010FA11D5F6EE082AB1EE444A34EE624A82
:10215C00F1EE003A64EE233A73EE893A84EE233AB8
:10216C0033EE224AB1EE444AFFEE003AF4EEC43AA2
:10217C00F1EE10FA1FED393AD8BFF0EE443A63EEA7
:10218C00833AF5EEC04ABDEEE34AF1EE10FA14EED6
:10219C00103A23F07F4323607FF51AAEBEEE084A57
:1021AC00F4EEC44AF1EE10FA11D5B6EE083AF1EE9F
:1021BC00644A74EEC34AB1EE004A24EE844A34EE0B
:1021CC00094AC4EE843A73EE834AF1EE644ABFEED8
:1021DC00004AB4EEE44AF1EE10FA5FED523AD8BF81
:1021EC00B0EE644A24EE234AB5EEC05AFDEEC44A62
:1021FC00F1EE10FA14EE903A23F07F4363607FF512
:10220C0009AEFEEE084AB4EEE45AF1EE10FA11D51E
:10221C00F6EE083AB1EE455A35EE635AF1EE004A45
:10222C0065EE244A74EE894A85EE244A34EE235A2C
:10223C00B1EE455AFFEE004AF4EEC54AF1EE10FA43
:10224C001FED6C4AD8BFF0EE454A64EE844AF5EEB9
:10225C00C05ABDEEE45AF1EE10FA15EE103A23F026
:10226C007F43A3607FF5F8ADBEEE085AF4EEC55A75
:10227C00F1EE10FA11D5B6EE084AF1EE655A75EE8C
:10228C00C45AB1EE005A25EE855A35EE095AC5EE00
:10229C00854A74EE845AF1EE655ABFEE005AB4EEDC
:1022AC00E55AF1EE10FA5FED854AD8BFB0EE655AEB
:1022BC0025EE245AB5EEC06AFDEEC55AF1EE10FAC1
:1022CC0015EE903A23F07F43E3607FF5E7ADFEEE29
:1022DC00085AB4EEE56AF1EE10FA11D5F6EE084A9A
:1022EC00B1EE466A36EE646AF1EE005A66EE255A95
:1022FC0075EE895A86EE255A35EE246AB1EE466A99
:10230C00FFEE005AF4EEC65AF1EE10FA1FED9F5A8A
:10231C00D8BFF0EE465A65EE855AF5EEC06ABDEEB2
:10232C00E56AF1EE10FA16EE103A23F07F432361C2
:10233C007FF5D6ADBEEE086AF4EEC66AF1EE10FA81
:10234C0011D5B6EE085AF1EE666A76EEC56AB1EEB4
:10235C00006A26EE866A36EE096AC6EE865A75EE75
:10236C00856AF1EE666ABFEE006AB4EEE66AF1EEDB
:10237C0010FA5FEDB85AD8BFB0EE666A26EE256A41
:10238C00B5EEC07AFDEEC66AF1EE10FA16EE903A92
:10239C0023F07F4363617FF5C5ADFEEE086AB4EEB2
:1023AC00E67AF1EE10FA11D5F6EE085AB1EE477A4C
:1023BC0037EE657AF1EE006A67EE266A76EE896A88
:1023CC0087EE266A36EE257AB1EE477AFFEE006A82
:1023DC00F4EEC76AF1EE10FA1FEDD26AD8BFF0EE38
:1023EC00476A66EE866AF5EEC07ABDEEE67AF1EEE5
:1023FC0010FA17EE103A23F07F43A3617FF5B4ADCA
:10240C00BEEE087AF4EEC77AF1EE10FA11D5B6EEFC
:10241C00086AF1EE677A77EEC67AB1EE007A27EEAB
:10242C00877A37EE097AC7EE876A76EE867AF1EE0E
:10243C00677ABFEE007AB4EEE77AF1EE10FADFEDD0
:10244C00546AD8BFB0EE677A27EE267AFDEEC77ACB
:10245C0017EE903A23F07F43E36198F92030002B7C
:10246C00FFF6A3AD98F920300BB10023236098F947
:10247C002030012B1CBF0023636098F92030022B05
:10248C001CBF0023A36098F92030032B1CBF002332
:10249C00E36098F92030042B1CBF0023236198F9CA
:1024AC002030052B1CBF0023636198F92030062BCC
:1024BC001CBF0023A36198F92030072B1CBF0023FD
:1024CC00E361344B2034A3420AF1200A7FF474AD4B
:1024DC00D6F8DC38DDF80CB00133C6F8DC382E4BFE
:1024EC005B68A3EB0B031B094FF6FF72934228BFEB
:1024FC001346B6F8DA289BB2934288BFA6F8DA38AE
:10250C00029B002B41F02E81D6F8DC28D6F8E0385F
:10251C009A4281F03981D6F8DC28D6F8E0389A4214
:10252C00FFF4F9AB95ED007ADFED1C7A1C4BB4EEA1
:10253C00E77AF1EE10FACCBF4FF000624FF4006274
:10254C009A61184B1A6812057FF5EAAB124A164EBF
:10255C00DFF86880DFED159A9FED159ADFED15AA6F
:10256C00154F4FF4006199600023D2F804B0029328
:10257C0004AB98ED068A0193B24606F58064F7EE3B
:10258C00008A06F6D40906F69405CDF80CB012E1D3
:10259C00FEFFFF4A24060020001000E00AD7A33CEF
:1025AC0000000240006402402400002000000034BF
:1025BC006F12033B00000000000000100000002020
:1025CC00B6EE084AF4EEC44AF1EE10FA40F3EF818D
:1025DC0074EEC44AF1EE003A64EEA33A73EEA83AF4
:1025EC0084EEA33A73EE044AF4EEE84AF1EE10FAE4
:1025FC0040F3DD81B5EEC05AD94BC4F80432F1EE8C
:10260C0010FA00F1EF81F6EE084AB4EEE45AF1EE5E
:10261C0010FA40F3008235EE645AB1EE004A25EE12
:10262C00044A34EE284AC5EE043A33EEA45AB4EE0A
:10263C00E85AF1EE10FA40F3EE81F5EEC05AC84BB1
:10264C00C4F80832F1EE10FA00F10082B6EE085A26
:10265C00F4EEC55AF1EE10FA40F3118275EEC55A3C
:10266C00F1EE004A65EEA44A74EEA84A85EEA44A3F
:10267C0074EE055AF4EEE85AF1EE10FA40F3FF81CD
:10268C00B5EEC06AB64BC4F80C32F1EE10FA00F19C
:10269C001182F6EE085AB4EEE56AF1EE10FA40F348
:1026AC00228236EE656AB1EE005A26EE055A35EEF8
:1026BC00285AC6EE054A34EEA56AB4EEE86AF1EE85
:1026CC0010FA40F31082F5EEC06AA54BC4F8103234
:1026DC00F1EE10FA00F12282B6EE086AF4EEC66A48
:1026EC00F1EE10FA40F3338276EEC66AF1EE005A40
:1026FC0066EEA55A75EEA85A86EEA55A75EE066AD0
:10270C00F4EEE86AF1EE10FA40F32182B5EEC07AED
:10271C00934BC4F81432F1EE10FA00F13382F6EE5A
:10272C00086AB4EEE67AF1EE10FA40F3448237EE22
:10273C00667AB1EE006A27EE066A36EE286AC7EEB4
:10274C00065A35EEA67AB4EEE87AF1EE10FA40F3BA
:10275C003282F5EEC07A824BC4F81832F1EE10FAE0
:10276C0000F14482B6EE087AF4EEC77AF1EE10FA74
:10277C0040F3558277EEC77AF1EE006A67EEA66AEF
:10278C0076EEA86A87EEA66A76EE077AF4EEE87A19
:10279C00F1EE10FA40F34382714BC4F81C3298F9F5
:1027AC002030002B80F255826E4B20349C420AF173
:1027BC00200A00F08C82DAF8003243F3170300EEA3
:1027CC00103AB8EEC00A20EE290AB5EEC00AF1EEB6
:1027DC0010FA00F1A585B0EE40AAD9ED007ADAF82E
:1027EC00043299ED007A7AEE677A43F3170367EEB9
:1027FC00897A77EE877A07EE103ADAF80832C9ED63
:10280C00007AB8EEC77A43F3170327EE297A07EE5E
:10281C00903AB5EEC07AF8EEE77AF1EE10FA67EE80
:10282C00A97A01D5B1EE477AF5EEC07AF1EE10FA3D
:10283C0001D5F1EE677A95ED006AD5ED006A019845
:10284C0037EE467AF0EE480A27EE097A37EE267A0A
:10285C0085ED007AD5ED016A95ED017A77EEE67A91
:10286C0067EE897A77EE877AC5ED017A96F880382B
:10287C00003B18BF0123C7F84031FDF73FFD96F828
:10288C008038002B40F05A859DED044AB4EEE84A9E
:10289C00F1EE10FAC0F22E850123DDED054AF4EEBF
:1028AC00E84AF1EE10FAC0F21A8501239DED065AA2
:1028BC00B4EEE85AF1EE10FAC0F206850123DDED14
:1028CC00075AF4EEE85AF1EE10FAC0F2F284012342
:1028DC009DED086AB4EEE86AF1EE10FAC0F2DE84FF
:1028EC000123DDED096AF4EEE86AF1EE10FAC0F2AC
:1028FC00CA8401239DED0A7AB4EEE87AF1EE10FA5F
:10290C00C0F2B6840123DDED0B7AF4EEE87AF1EE39
:10291C0010FAC0F2A18401230293B5EEC04AF1EE85
:10292C0010FA00F16B84F6EE083AB4EEE34AF1EEDD
:10293C0010FA40F37C8434EE634AB1EE003A24EE94
:10294C00033A33EE283AC4EE032A32EEA34AB4EE2D
:10295C00E84AF1EE10FA40F36A84014B06E000BF3E
:10296C00FFFF7F0024060020FEFFFF4AC4F8003260
:10297C00F5EEC04AF1EE10FA7FF522AEBEEE084A33
:10298C00F4EEC44AF1EE10FA11D5B6EE083AF1EEB7
:10299C00644A74EEC34AB1EE004A24EE844A34EE23
:1029AC00284AC4EE843A73EE834AF1EE644ABFEED1
:1029BC00004AB4EEE44AF1EE10FA5FED153AD8BFD6
:1029CC00B0EE644A24EE234AB5EEC05AFDEEC44A7A
:1029DC00F1EE10FA14EE903A23F07F43C4F804326F
:1029EC007FF511AEFEEE084AB4EEE45AF1EE10FAA1
:1029FC0011D5F6EE083AB1EE455A35EE635AF1EEC2
:102A0C00004A65EE244A74EEA84A85EE244A34EE58
:102A1C00235AB1EE455AFFEE004AF4EEC54AF1EEE8
:102A2C0010FA1FED2F4AD8BFF0EE454A64EE844AE7
:102A3C00F5EEC05ABDEEE45AF1EE10FA15EE103A6E
:102A4C0023F07F43C4F808327FF500AEBEEE085A7F
:102A5C00F4EEC55AF1EE10FA11D5B6EE084AF1EEC5
:102A6C00655A75EEC45AB1EE005A25EE855A35EE0C
:102A7C00285AC5EE854A74EE845AF1EE655ABFEEBB
:102A8C00005AB4EEE55AF1EE10FA5FED494AD8BFA0
:102A9C00B0EE655A25EE245AB5EEC06AFDEEC55A65
:102AAC00F1EE10FA15EE903A23F07F43C4F80C3295
:102ABC007FF5EFADFEEE085AB4EEE56AF1EE10FAD2
:102ACC0011D5F6EE084AB1EE466A36EE646AF1EEBE
:102ADC00005A66EE255A75EEA85A86EE255A35EE42
:102AEC00246AB1EE466AFFEE005AF4EEC65AF1EED5
:102AFC0010FA1FED635AD8BFF0EE465A65EE855AB0
:102B0C00F5EEC06ABDEEE56AF1EE10FA16EE103A7B
:102B1C0023F07F43C4F810327FF5DEADBEEE086AB9
:102B2C00F4EEC66AF1EE10FA11D5B6EE085AF1EED3
:102B3C00666A76EEC56AB1EE006A26EE866A36EEF5
:102B4C00286AC6EE865A75EE856AF1EE666ABFEEA5
:102B5C00006AB4EEE66AF1EE10FA5FED7D5AD8BF6A
:102B6C00B0EE666A26EE256AB5EEC07AFDEEC66A50
:102B7C00F1EE10FA16EE903A23F07F43C4F81432BB
:102B8C007FF5CDADFEEE086AB4EEE67AF1EE10FA02
:102B9C0011D5F6EE085AB1EE477A37EE657AF1EEBA
:102BAC00006A67EE266A76EEA86A87EE266A36EE2B
:102BBC00257AB1EE477AFFEE006AF4EEC76AF1EEC1
:102BCC0010FA1FED976AD8BFF0EE476A66EE866A78
:102BDC00F5EEC07ABDEEE67AF1EE10FA17EE103A89
:102BEC0023F07F43C4F818327FF5BCADBEEE087AF3
:102BFC00F4EEC77AF1EE10FA11D5B6EE086AF1EEE2
:102C0C00677A77EEC67AB1EE007A27EE877A37EEDE
:102C1C00287AC7EE876A76EE867AF1EE677ABFEE8F
:102C2C00007AB4EEE77AF1EE10FA5FEDB16AD8BF34
:102C3C00B0EE677A27EE267AFDEEC77A17EE903A59
:102C4C0023F07F43C4F81C3298F92030002BFFF698
:102C5C00ABAD98F9203013B10023C4F8003298F9C9
:102C6C002030012B1CBF0023C4F8043298F920300B
:102C7C00022B1CBF0023C4F8083298F92030032B18
:102C8C001CBF0023C4F80C3298F92030042B1CBF55
:102C9C000023C4F8103298F92030052B1CBF0023F8
:102CAC00C4F8143298F92030062B1CBF0023C4F84A
:102CBC00183298F92030072B1CBF0023C4F81C32A3
:102CCC00564B20349C420AF1200A7FF474ADD6F89E
:102CDC00DC38DDF80CB00133C6F8DC38504B5B68DF
:102CEC00A3EB0B031B094FF6FF72934228BF13464D
:102CFC00B6F8DA289BB2934288BFA6F8DA38029B62
:102D0C00002B40F04E85D6F8DC28D6F8E0389A42F5
:102D1C0080F05985D6F8DC28D6F8E0389A42FEF4D3
:102D2C00FFAF95ED007ADFED3F7A3F4BB4EEE77ADB
:102D3C00F1EE10FACCBF4FF000624FF400629A61D2
:102D4C000DB0BDEC068BBDE8F08FFFEE003AF4EE53
:102D5C00E37AF1EE10FA98BF43F001030293FFF708
:102D6C00E4B9FFEE007AB4EEE77AF1EE10FA98BF10
:102D7C0043F00103FFF7CFB9FFEE007AF4EEE76AF8
:102D8C00F1EE10FA98BF43F00103FFF7BBB9FFEE69
:102D9C00007AB4EEE76AF1EE10FA98BF43F0010343
:102DAC00FFF7A7B9FFEE007AF4EEE75AF1EE10FA4E
:102DBC0098BF43F00103FFF793B9FFEE007AB4EE2E
:102DCC00E75AF1EE10FA98BF43F00103FFF77FB911
:102DDC00FFEE007AF4EEE74AF1EE10FA98BF43F0FA
:102DEC000103FFF76BB99FED117A029AF4EEC7AAB3
:102DFC00FFEE007AF1EE10FAB4EEE74AACBF012315
:102E0C000023F1EE10FA98BF43F001031343FFF7D0
:102E1C004CB9F1EE40AAFFF7E1B800BF2406002040
:102E2C00001000E00AD7A33C0000024072F97F3F7B
:102E3C0000004843000000000000802FD7EDA76A77
:102E4C00D7EDA87A97EDA96A77EEE67AB5EE007A17
:102E5C0067EE867A77EEA67AF4EEC77AF1EE10FA80
:102E6C00C7EDA77A08D4B1EE007AF4EEC77AF1EE8A
:102E7C0010FAD8BFB0EE677A87ED527AFEF7ECFB0A
:102E8C0097EDA73A33EE493AB0EE402AB5EEC03A88
:102E9C00F1EE10FA01D5B1EE433AD7F834B05FED4C
:102EAC001C7A3B6BBBF1000FB8BF002323EE273A13
:102EBC0007EE903AB4EEC93AF8EE672A5FED227A43
:102ECC00B8BF4FF0000BF1EE10FA62EEA72A40F3F8
:102EDC009D841FED280AB7EE003AD6F86828D6F87C
:102EEC006C18D6F86438D7F838E0501E584538BFFF
:102EFC008346A1EB0B0B01EA020C0BEA020B03EB72
:102F0C008C0C8CED002A0BF1FF3C0CEA020C03EB51
:102F1C008B0B03EB8C0C9BED007ADCED007AD7F875
:102F2C003CC077EEC77A38BFF0EE682A67EEA27A1B
:102F3C00BCF1000F77EE877AB8BF4FF0000C67EE4C
:102F4C00837AB8BF4FF0000E77EE807A01F1010B57
:102F5C006045CDED047AC6F86CB8C0F0FF8307EE7F
:102F6C0090EAB8EE677A5FED4C7A27EE277AA1EB00
:102F7C000C0C0CEA020C0CF1FF3E0EEA020E03EBF9
:102F8C008C0C03EB8E0EDCED006ADEED007AD7F8CC
:102F9C0044C0D7F840E077EEE67ABCF1000F67EE5C
:102FAC00877AB8BF4FF0000C77EEA67AB8BF4FF017
:102FBC00000E67EE837A604577EE807ACDED057A68
:102FCC00C0F0C88307EE90EAB8EE677A5FED667AD8
:102FDC0027EE277AA1EB0C0C0CEA020C0CF1FF3E4D
:102FEC000EEA020E03EB8C0C03EB8E0EDCED006A8A
:102FFC00DEED007AD7F84CC0D7F848E077EEE67AE9
:10300C00BCF1000F67EE877AB8BF4FF0000C77EE7B
:10301C00A67AB8BF4FF0000E67EE837A604577EE64
:10302C00807ACDED067AC0F0918307EE90EAB8EE87
:10303C00677A5FED7F7A27EE277AA1EB0C0C0CEA0E
:10304C00020C0CF1FF3E0EEA020E03EB8C0C03EBB0
:10305C008E0EDCED006ADEED007AD7F854C0D7F89E
:10306C0050E077EEE67ABCF1000F67EE877AB8BFD6
:10307C004FF0000C77EEA67AB8BF4FF0000E67EE5B
:10308C00837A604577EE807ACDED077AC0F05A836B
:10309C0007EE90EAB8EE677A5FED997A27EE277A19
:1030AC00A1EB0C0C0CEA020C0CF1FF3E0EEA020E2A
:1030BC0003EB8C0C03EB8E0EDCED006ADEED007A7C
:1030CC00D7F85CC0D7F858E077EEE67ABCF1000F81
:1030DC0067EE877AB8BF4FF0000C77EEA67AB8BFD0
:1030EC004FF0000E67EE837A604577EE807ACDED77
:1030FC00087AC0F0238307EE90EAB8EE677A5FEDAA
:10310C00B27A27EE277AA1EB0C0C0CEA020C0CF12C
:10311C00FF3E0EEA020E03EB8C0C03EB8E0EDCED85
:10312C00006ADEED007AD7F864C0D7F860E077EE7D
:10313C00E67ABCF1000F67EE877AB8BF4FF0000C4F
:10314C0077EEA67AB8BF4FF0000E67EE837A604533
:10315C0077EE807ACDED097AC0F0EC8207EE90EA3A
:10316C00B8EE677A5FEDCC7A27EE277AA1EB0C0CE0
:10317C000CEA020C0CF1FF3E0EEA020E03EB8C0C77
:10318C0003EB8E0EDCED006ADEED007A77EEE67A6C
:10319C00D7E91AEC67EE877ABCF1000F77EEA67AC6
:1031AC0067EE837A77EE807ACDED0A7AC0F22A83C5
:1031BC006045C0F0BC8207EE90EAB8EE677A5FED2E
:1031CC00E27A27EE277A6046091A1140481E02401F
:1031DC0003EB810103EB8203D1ED006AD3ED007A9E
:1031EC0077EEE67A67EE877A77EEA67A67EE837AE1
:1031FC0077EE807ACDED0B7AFEF74EBFFEEE083AF5
:10320C00B4EEE34AF1EE10FA11D5F6EE082AB1EE5F
:10321C00444A34EE624AF1EE003A64EE233A73EE1D
:10322C00A83A84EE233A33EE224AB1EE444AFFEE3A
:10323C00003AF4EEC43A9FED3C3AF1EE10FAD8BFE6
:10324C00F0EE443A63EE833ABDEEE34A14EE103AE4
:10325C0023F07F43FFF78ABBFFEE003AF4EEE37AEC
:10326C00F1EE10FA98BF43F001030293FFF755BB40
:10327C00FFEE007AB4EEE77AF1EE10FA98BF43F065
:10328C000103FFF740BBFFEE007AF4EEE76AF1EEC4
:10329C0010FA98BF43F00103FFF72CBBFFEE007A46
:1032AC00B4EEE76AF1EE10FA98BF43F00103FFF7B2
:1032BC0018BBFFEE007AF4EEE75AF1EE10FA98BF65
:1032CC0043F00103FFF704BBFFEE007AB4EEE75ABC
:1032DC00F1EE10FA98BF43F00103FFF7F0BAFFEEDE
:1032EC00007AF4EEE74AF1EE10FA98BF43F00103CE
:1032FC00FFF7DCBA9FED0D7A029AB4EEC7AAFFEE87
:10330C00007AF1EE10FAB4EEE74AACBF01230023C9
:10331C00F1EE10FA98BF43F001031343FFF7BDBA67
:10332C00B1EE40AAFFF759BAFEFFFF4A72F97F3F90
:10333C00000048430000802F00000000D7EDA76A72
:10334C00D7EDA87A97EDA96A77EEE67AB5EE007A12
:10335C0067EE867A77EEA67AF4EEC77AF1EE10FA7B
:10336C00C7EDA77A08D4B1EE007AF4EEC77AF1EE85
:10337C0010FAD8BFB0EE677A87ED527AFEF76CF987
:10338C0097EDA73A33EE683AB0EE402AB5EEC03A64
:10339C00F1EE10FA01D5B1EE433AD7F834B05FED47
:1033AC001C7A3B6BBBF1000FB8BF002323EE273A0E
:1033BC0007EE903AB4EEE83AF8EE672A5FED237A1E
:1033CC00B8BF4FF0000BF1EE10FA62EEA72A40F3F3
:1033DC000B821FED270AB7EE003AD6F86828D6F80C
:1033EC006C18D6F86438D7F838E0501E584538BFFA
:1033FC008346A1EB0B0B01EA020C0BEA020B03EB6D
:10340C008C0C8CED002A0BF1FF3C0CEA020C03EB4C
:10341C008B0B03EB8C0C9BED007ADCED007AD7F870
:10342C003CC077EEC77A38BFF0EE6A2A67EEA27A14
:10343C00BCF1000F77EE877AB8BF4FF0000C67EE47
:10344C00837AB8BF4FF0000E77EE807A01F1010B52
:10345C006045CDED047AC6F86CB8C0F0618107EE1A
:10346C0090EAB8EE677A5FED4D7A27EE277AA1EBFA
:10347C000C0C0CEA020C0CF1FF3E0EEA020E03EBF4
:10348C008C0C03EB8E0EDCED006ADEED007AD7F8C7
:10349C0044C0D7F840E077EEE67ABCF1000F67EE57
:1034AC00877AB8BF4FF0000C77EEA67AB8BF4FF012
:1034BC00000E67EE837A604577EE807ACDED057A63
:1034CC00C0F02A8107EE90EAB8EE677A5FED677A72
:1034DC0027EE277AA1EB0C0C0CEA020C0CF1FF3E48
:1034EC000EEA020E03EB8C0C03EB8E0EDCED006A85
:1034FC00DEED007AD7F84CC0D7F848E077EEE67AE4
:10350C00BCF1000F67EE877AB8BF4FF0000C77EE76
:10351C00A67AB8BF4FF0000E67EE837A604577EE5F
:10352C00807ACDED067AC0F0F38007EE90EAB8EE23
:10353C00677A5FED807A27EE277AA1EB0C0C0CEA08
:10354C00020C0CF1FF3E0EEA020E03EB8C0C03EBAB
:10355C008E0EDCED006ADEED007AD7F854C0D7F899
:10356C0050E077EEE67ABCF1000F67EE877AB8BFD1
:10357C004FF0000C77EEA67AB8BF4FF0000E67EE56
:10358C00837A604577EE807ACDED077AC0F0BC8007
:10359C0007EE90EAB8EE677A5FED9A7A27EE277A13
:1035AC00A1EB0C0C0CEA020C0CF1FF3E0EEA020E25
:1035BC0003EB8C0C03EB8E0EDCED006ADEED007A77
:1035CC00D7F85CC0D7F858E077EEE67ABCF1000F7C
:1035DC0067EE877AB8BF4FF0000C77EEA67AB8BFCB
:1035EC004FF0000E67EE837A604577EE807ACDED72
:1035FC00087AC0F0858007EE90EAB8EE677A5FED46
:10360C00B37A27EE277AA1EB0C0C0CEA020C0CF126
:10361C00FF3E0EEA020E03EB8C0C03EB8E0EDCED80
:10362C00006ADEED007AD7F864C0D7F860E077EE78
:10363C00E67ABCF1000F67EE877AB8BF4FF0000C4A
:10364C0077EEA67AB8BF4FF0000E67EE837A84450A
:10365C0077EE807ACDED097A4ED807EE90EAB8EE87
:10366C00677A5FEDCC7A27EE277AA1EB0C0C0CEA8B
:10367C00020C0CF1FF3E0EEA020E03EB8C0C03EB7A
:10368C008E0EDCED006ADEED007A77EEE67AD7E995
:10369C001AEC67EE877ABCF1000F77EEA67A67EE2C
:1036AC00837A77EE807ACDED0A7AC0F29980604504
:1036BC003AD307EE90EAB8EE677A5FEDE27A27EE3E
:1036CC00277A6046091A1140481E024003EB81011B
:1036DC0003EB8203D1ED006AD3ED007A77EEE67A44
:1036EC0067EE877A77EEA67A67EE837A77EE807A42
:1036FC00CDED0B7AFFF7C8B81FEDF17A8446B4E72D
:10370C001FEDF37A84467EE79FED677A844647E7A0
:10371C009FED657A844610E79FED637A8446D9E67F
:10372C009FED617A8446A2E69FED5F7ACAE79FED32
:10373C005E7A49E59FED5C7A844617E59FED5A7AEF
:10374C008446E0E49FED587A8446A9E49FED567ACE
:10375C00844672E49FED547A84463BE49FED527AA2
:10376C00844604E4D6F8DC3803F2EE23C6F8F439C8
:10377C0096F8D838013386F8D838D6F8DC28D6F83D
:10378C00E0389A42FEF4C7AED6F8DC38D6F8F41915
:10379C00464A8B4234BF4FF4803301239361FEF7CA
:1037AC00BABED6F8DC3803F2EE23C6F8F43996F834
:1037BC00D838013386F8D838D6F8DC28D6F8E03873
:1037CC009A42FFF4A7AAD6F8DC38D6F8F419374A8F
:1037DC008B4234BF4FF4803301239361FFF79ABAC5
:1037EC004FF0000EF44664E7DFED317AB4EEE73AC1
:1037FC00F1EE10FA78EEC31A17D4DFED2B7A21EE26
:10380C00A70AEAE54FF0000EF446D4E4DFED287A7F
:10381C00B4EEE73AF1EE10FA79EE431A1ED4DFED6E
:10382C00227A21EEA70AFFF758BBD7E901125B46B3
:10383C00BBF1000F32D05945B0EE620A9CBFBBFB06
:10384C00F1F301FB13B3934288BF5218D21A3868B4
:10385C000123FCF7A5FC20EE210ABEE5D7E90112F5
:10386C005B46BBF1000F13D05945B0EE620A9CBF0A
:10387C00BBFBF1F301FB13B3934288BF5218D21A6E
:10388C0038680123FCF78CFC20EE210AFFF725BBDE
:10389C0001299FED050AF3D90123EDE701299FEDDD
:1038AC00020AD4D90123CEE7000000000000024038
:1038BC0077BE7F3F704700BF054BD3F888204FF091
:1038CC00006142F47002C3F888209960704700BF11
:1038DC0000ED00E02DE98048AB4AAC4B9A42B1B008
:1038EC0016D2013B9B1A032B11460FD99B080133AF
:1038FC00580802EBC0050024C1E9004408318D4290
:10390C00FAD1B3EB400F03D002EBC00200231360DB
:10391C004FF0E0219E4BD1F8FC2D002042F080723C
:10392C00C1F8FC2D58601A689A4942F001021A60DD
:10393C000B68994A43F480330B60D2F80038990332
:10394C00FBD5944A9549136C954843F08053136406
:10395C00136C0B6840F2057443F440430B60046035
:10396C009368904923F47C4323F0F00343F414430D
:10397C00936051601368884943F080731360D1F8E9
:10398C0000389B01FBD5834B9A6822F0030242F06E
:10399C0002029A609C6804F00C04082CFAD1824A4A
:1039AC00C3F88820D3F88C207B4922F4700222F4CF
:1039BC00F85242F4C062C3F88C201A6842F080526C
:1039CC001A60D1F800389F00FBD5724B9A6802F050
:1039DC000C02042A02F06386082A02F0BC86734BA0
:1039EC006C4A73499068C0F3031001F5A07B085C26
:1039FC00C34070480360136B43F0FE031363136BF7
:103A0C0001F110004FF0030A4FF002094FF00108CA
:103A1C004FF00F0E4FF00C0C0268037915685E0026
:103A2C000AFA06F725EA070509FA06F63543156082
:103A3C00556808FA03F625EA0605556095683D4376
:103A4C009560D568072B25EA0705D56094BF00253E
:103A5C00012502EB850203F00703156A9B000EFAA1
:103A6C0003F6083025EA06050CFA03F32B435845F8
:103A7C001362D1D1474A936B43F0010393634E4BCE
:103A8C00926B4E4A4FF4605018644FF4EA705864CD
:103A9C004FF483109864DA649A6D9506FCD409226D
:103AAC001A6544F61F6300BF1A46013B002AFAD17F
:103ABC00414B9A6D9006FCD40A221A653E4B9A6DC6
:103ACC009206FCD4EB221A653B4B9A6D9706FCD4FC
:103ADC003B4A1A654FF49F625A65374B9A6D9606AE
:103AEC00FCD42C4A3748136BDFF8ECB043F00A03D4
:103AFC001363354B126B1A6822F440121A60DA68A1
:103B0C0022F4401242F48012DA601A6822F4400265
:103B1C001A60DA6822F4400242F48002DA60026829
:103B2C0022F440020260C26822F4400242F4800295
:103B3C00C260026822F040720260C26822F04072D9
:103B4C0042F08072C2601A6822F440121A60DA687D
:103B5C0022F4401242F48012DA601A6822F4400215
:103B6C001A60DA6822F4400242F48002DA601B69BF
:103B7C005D05164B4CBF9FED163A9FED163ACBF8F0
:103B8C0000304FF4E01229E000000010E80A0010A9
:103B9C00001000E00038024000300240007000408D
:103BAC00003C024008544007005600020024F40078
:103BBC00BC68000800000020000100A061030101A6
:103BCC000C600400000C024000040240000010D005
:103BDC000080BB4700606A4900000010CBF804204D
:103BEC00002003F5E00243F8040B9342FBD1C14BD8
:103BFC00CBF8BC30CBF8C430BF4BCBF8B030BF4B9C
:103C0C00CBF81430BE4BCBF81830BE4BCBF81C3075
:103C1C00BD4BCBF82030BD4BCBF82430BC4BCBF894
:103C2C002830BC4BCBF82C30BB4BBC4ECBF8C8303F
:103C3C00DFF818E3BA4BCBF8CC3000274FF07E53AB
:103C4C0000220125CBF810600026CBE93522CBF8F9
:103C5C00C030CBF8E430CBF80431CBF80820CBF8EB
:103C6C00DC208BF8E020CBE90C67CBE90E67CBE9C5
:103C7C001067CBE91267CBE91467CBE91667CBE980
:103C8C001867CBE91A678BED2E3ACBF8B4508BF84A
:103C9C00D050CBF8E830CBE9502EDFF8B4C28BF81B
:103CAC003051DCF81020CBF80831CBF8EC30CBF8E5
:103CBC000C31CBF8F030CBF81031CBF8F430CBF82A
:103CCC001431CBF8F830CBF81831CBF8FC30CBF8FA
:103CDC001C31CBF80031CBF82031CBF82831CBF8A4
:103CEC003431DCF81030CBF82C016FEA1333AB40D5
:103CFC0003F0020325EAD22213434FF07858032B2A
:103D0C00CBF82481CBF8380102F0228501EB83013A
:103D1C00D1F84031182B08BF0023824ACBF83C3134
:103D2C001369814A814F18055CBF814BCBF8283150
:103D3C00136B43F002031363136C43F4804313645B
:103D4C00784B116C196821F0406141F000611960E9
:103D5C00996841F000619960596A21F4700141F44D
:103D6C00A0015962196821F0405141F000511960CD
:103D7C00996841F000519960596A21F0706141F0E5
:103D8C00A0615962196821F0404141F0004119606D
:103D9C00996841F000419960596A21F0704141F0F5
:103DAC00A0415962196821F0407141F0807119608D
:103DBC004FF480555F499D6100204FF44D730B60AB
:103DCC0048600B6843F040030B60536C43F4800372
:103DDC005364536C136B43F038031363136B564BE0
:103DEC001D6825F0300545F020051D605D6825F047
:103DFC0004055D609D6845F030059D60DD6825F02B
:103E0C003005DD601D6A25F4706545F4C0651D62E2
:103E1C001D6825F4407545F400751D605D6825F03E
:103E2C0010055D609D6845F440759D60DD6825F466
:103E3C004075DD601D6A25F4702545F4C0251D62B2
:103E4C001D6825F4406545F400651D605D6825F02E
:103E5C0020055D609D6845F440659D60DD6825F436
:103E6C004065DD601D6A25F4700501F5EA3145F405
:103E7C00C0051D620B68314D23F4405343F40053CD
:103E8C000B604B6823F040034B608B6843F440534A
:103E9C008B60CB6823F44053CB600B6A23F07063C8
:103EAC0043F0C0630B622968254B21F4405141F467
:103EBC0000512960696821F040016960A96841F4EA
:103ECC004051A960E96821F44051E960296A21F068
:103EDC00706141F0C061296201265F60194D1A4979
:103EEC009E6007F20147DD6019615F629E62DD62D0
:103EFC0019632FE06F12833ACAF249F10000204295
:103F0C00000070420000A0420000C8420000F042D5
:103F1C0000000C4300002043CDCCCC3E0000A0415F
:103F2C00CDCCCC3F0004024000380240C12012002E
:103F3C007D99D63E0038004000100240001402402B
:103F4C0000580140FF0F06008007FF006745230162
:103F5C00000C0240136B43F480031363136BA94BE7
:103F6C0098629A6A12F00102FBD1A7491963DFF833
:103F7C00E0A2A649C3F834A04FF48070D8629962CD
:103F8C00C3F888209F4BD3F8881011F00101FAD1A7
:103F9C009F48C3F890009F48C3F894009E4A9F48DE
:103FAC004FF48075C3F88C50C3F88800102082F849
:103FBC0039034FF0007050609A6A42F001029A6225
:103FCC00D3F8882042F00102C3F88820944B954A1C
:103FDC00586A40F480305862586840F48030586019
:103FEC00136B43F001031363136B8F4B1A6822F0AE
:103FFC00300242F010021A605A684FF4802022F00E
:10400C0004025A6098610E910E9B884A934205DC1B
:10401C000E9B01330E930E9B9342F9DD824B1A6873
:10402C0022F0300242F010021A605A68042122F089
:10403C0004025A60996100230D930D9B7B4A9342B5
:10404C0005DC0D9B01330D930D9B9342F9DD754AF5
:10405C00774B116B41F002011163116B196821F45C
:10406C00403141F400311960596841F48071596054
:10407C00996841F480319960D96821F4403141F458
:10408C008031D960596A21F00F0141F00401596265
:10409C00196821F4402141F400211960596841F458
:1040AC0000715960996841F480219960D96821F4B4
:1040BC00402141F48021D960596A21F0F00141F08E
:1040CC0040015962136C43F400131364136C594B85
:1040DC004FF400421A6000202A2218605A60D22243
:1040EC00DA6101252B221A624FF6FF371D60064656
:1040FC00514A01E0013A02D099698907FAD419684A
:10410C004D4A41F48071196001E0013A02D05969BD
:10411C00C907FAD55A69D20740F172844200D2B26B
:10412C0046491A6105E0520500F17584013900F029
:10413C0079845A6912F0020FF5D09A691A6841090C
:10414C000AEB810142F400721A60D1F804C800F045
:10415C001F0205FA02F242EA0C02C1F804280C967E
:10416C000C9AB2F5FA6F06DA0C9A01320C920C9A90
:10417C00B2F5FA6FF8DB01308028B9D1304BCAF8B0
:10418C0014387F210220FDF7AFFCF02105460320F7
:10419C00FDF7AAFC362105430420FDF7A5FCFF2101
:1041AC0005430720FDF7A0FC002105430220FDF785
:1041BC009BFC102105430620FDF796FC00210543CE
:1041CC000720FDF791FC1F4B1F4A05435D601F4DF7
:1041DC00184B4FF0920C9327EE26186815F801EB4C
:1041EC00DFF8588040F48070186003E0B8F10108E3
:1041FC0000F02684D2F81404C007F7D50F48C3F892
:10420C0010C02AE0006402402058014018550300F9
:10421C00405801402404002000E100E04055030018
:10422C00005801400038024000000240DF930400B7
:10423C000004024000540040410D0300400D0300F7
:10424C00EEFFC0000000002000500040086A00088B
:10425C0024000020013800F0EB83D2F8148418F00D
:10426C00020FF7D098693A4802E0013800F0E88371
:10427C00D2F8148418F0800FF7D03548C3F810E04A
:10428C0002E0013800F0DC83D2F814E41EF0040FD5
:10429C00F7D0186840F4807018602D4802E001389F
:1042AC0000F0CE83D2F814E41EF0010FF7D01F619A
:1042BC00186820F480601860254802E0013800F08E
:1042CC00B783D2F814E41EF0020FF7D0986918687F
:1042DC0040F4007018601E4802E0013800F0B08312
:1042EC00D2F814E41EF0400FF7D0D3F810E01868A1
:1042FC0040F4806018600AEB010001310A2980F853
:10430C0018E87FF46AAF134B134A196B41F00101A3
:10431C0019631B6B136823F4407343F480731360AD
:10432C00136823F4406343F480631360136823F42D
:10433C00405313600023AAF82438AAF828388AF8C6
:10434C002A381023936120239361044B044A0CE018
:10435C00400D030000380240000002400000060837
:10436C0000010608934202F00F821978FF2903F12D
:10437C000103F7D0B54AB64B116BB648B64D41F0B8
:10438C0003011163116B196821F0030141F0010164
:10439C0019604FF480319961196821F00C0141F0DA
:1043AC000401196002219961196821F4404141F41A
:1043BC008041196080219961196821F4403141F4E0
:1043CC00803119604FF480719961196821F44001B2
:1043DC0041F4800119604FF400619961016821F08A
:1043EC000F0141F0050101604FF440318161116B07
:1043FC0041F005011163116B196821F4407141F40E
:10440C0080711960196821F4406141F48061196070
:10441C00196821F0404141F080411960196821F47C
:10442C0040511960296821F4401141F48011296030
:10443C00296821F0407141F0807129601020202101
:10444C00986199614FF08061A9614FF000419961C9
:10445C00136B43F004031363136B2B6823F00C03EF
:10446C002B60EB6823F00C0343F00403EB602B6828
:10447C0023F030032B60EB6823F030030343EB6035
:10448C002B6823F0C0032B60EB6823F0C00343F0D0
:10449C004003EB602B6823F440732B60EB6823F430
:1044AC00407343F48073EB602B6823F440632B6000
:1044BC00EB6823F4406343F48063EB602B6823F4D4
:1044CC0040532B60EB6823F44053002743F4805394
:1044DC00EB60B846B946A4F1080606EB061006EBED
:1044EC00001000EB0030FDF765FB00230B930B9BDA
:1044FC000B2B05DC0B9B01330B930B9B0B2BF9DD6F
:10450C0000230A930A9B0B2B05DC0A9B01330A93AD
:10451C000A9B0B2BF9DD0120296900FA06F249EA06
:10452C00020311F0200F9BB208BF994600FA04F366
:10453C00044449EA030011F0400F80B208BF8146E1
:10454C0048EA020011F0080F80B208BF804648EA22
:10455C0003003A4311F0100F80B292B208BF8046AC
:10456C0011F0020F08BF17463B4311F0040F9BB22A
:10457C0008BF1F46102CAED1FDF770FB334BAAF8C9
:10458C003298AAF83488AAF836785A6C42F48062C9
:10459C005A641A6B42F020021A63304A5B6C13683F
:1045AC0043F440331360A2F571420621536823F49F
:1045BC00403343F480335360294B00225A60DA6253
:1045CC0059634FF4E0111961012199600F920F9B0F
:1045DC0042F20F72934205DC0F9B01330F930F9B3A
:1045EC009342F9DD194A1B49136B1B481D4CDFF82C
:1045FC0080C01D4F43F00F031363136BCB6823F480
:10460C007003CB60C3686FF38D03C360D1F80C38B3
:10461C0023F07073C1F80C38A1F5806140F2D92EEB
:10462C00C868124B20F04040C860506C40F010003D
:10463C005064526C0A6822F4701242F420120A6020
:10464C004A6A22F47F6242F4EE6213E000380240C0
:10465C000000024000040240000802400014024026
:10466C000022014000100140FFFF0300000000D0B9
:10467C003480373A4A62CB49CBF84C114FF0874122
:10468C000022CBF8501100204FF07E51CBF848118E
:10469C00CBF86011CBF86411CBF85421CBF858212E
:1046AC00CBF85C21CBF898024FF0FF35C4F808E04A
:1046BC004FF0004642F20C0EC4F80CE0CBF8681137
:1046CC00CBF86C21CBF89452CBE99C66CBE99E05D8
:1046DC00CBF89C12CBF8A012CBF8A4C2CAF868781D
:1046EC00CBF88052CBF88402CBF89002CBF888221E
:1046FC00CBF88C22CAF8643803F5801143F8042BEC
:10470C009942FBD10023CAF86C3801934FF48073A3
:10471C00AAF87C38FF200123A34A9FEDA44ACDE9D7
:10472C000203F6EE007AF0EE673AC2ED007AC2EDC3
:10473C00017AC2ED027A9AF88038002B40F04F844F
:10474C00019B13F0030240F0DA81994E994B9A4D7C
:10475C004FF0805E14464FF0010C4FF48057D9682F
:10476C0016F8018B9968C5F818E01194119927294E
:10477C0005DC11990131119111992729F9DD9968FD
:10478C008907FCD583F80CC09968C807FCD502EBE7
:10479C0042015144187B81F88408500099688907BC
:1047AC00FCD583F80C809968C907FCD58118514455
:1047BC0093F80C8081F8858899688907FCD51C735F
:1047CC009968C907FCD581185144187B81F8860873
:1047DC00996811F08001FBD1AF61109110982728D6
:1047EC0005DC10980130109010982728F9DD013263
:1047FC00042AB4D19AF888389AF889281B0203F451
:10480C007063134307EE103A9AF88E389AF88F2893
:10481C001B0203F47063134300F0098740F2362245
:10482C00934241F3A18340F28152934241F37E863D
:10483C0040F60602934241F36F8640F64B229342B8
:10484C0041F3898340F60152934241F3558340F67C
:10485C00FF72934241F075831A4619465748846893
:10486C0044F0804484600468A407FCD5C06C544CAC
:10487C009FED546AD4ED025ADFED536A9FED535A03
:10488C00C0F30B0007EE900AF8EE677A77EEE57A44
:10489C0067EE867A77EEA57A77EEE66AC4ED027A51
:1048AC00FCEEE77A66EE856A17EE900AAAF83808ED
:1048BC009AF88008002800F0488507EE903ADFED62
:1048CC00445AF8EEE77AB7EE006A67EEA57AF4EE92
:1048DC00C67AF1EE10FA41F37B82F0EE467A384B51
:1048EC00DFED3C5A1B7BDFED3C4A9FED3C5A022B23
:1048FC0008BFF0EE645A67EEA57AF4EEC56AB7EE1F
:10490C00006AF1EE10FA36EE676A41F3F281DFEDE0
:10491C002D7AF4EEE76AF1EE10FA41F19381224B15
:10492C00D3ED087AF5EEC07AF1EE10FA0ADD1E4BE3
:10493C0093ED086AF5EE007AB4EEE76AF1EE10FA40
:10494C0001F1F381F1EE007AB4EEE76AF1EE10FAC0
:10495C00D8BFF0EE467ADBF88012CBEDA87A0029AE
:10496C00C0F2D285164B1B698B4200F0CD854FF0FF
:10497C00FF33CBF87C32032919480B46A8BF03231D
:10498C0003EB431300EB83130020CBF8780215489C
:10499C00043B53F8044F40F8044B134CA042F8D19D
:1049AC0024E000BF0000B445940800205F708930FB
:1049BC00146A000800380040000402400022014044
:1049CC0000000020CDCC4C3D00E0FF440210003A2A
:1049DC00021080398FC2753D8FC2753ECDCC4CBD57
:1049EC00186A0008A8020010E80A0010A4F5046375
:1049FC00CBF87832174BCBF87C12196100F084BDE0
:104A0C001A6842F400721A60DAF800280132CAF807
:104A1C000028FFF7A4BB5F611A6842F400721A60A9
:104A2C00FFF79DBB1A6842F400721A60FFF797BB40
:104A3C00DFF824E0DEF8000040F40070CEF800004F
:104A4C000AEB010001310A2980F818687FF4C5AB24
:104A5C0059E400BF00000020005400400000204337
:104A6C00B4EB860F4FEA86001AD0161896F80AE0B7
:104A7C000DEB000686F880E0461CB6B2B4420FD9A6
:104A8C0002EB060E023080B26E449EF80AE086F805
:104A9C0080E0844204D902446844927A80F88020F1
:104AAC001FED127AB948BA4CBA4EDFF808E3DFF8BA
:104ABC000883DFF808930293F3EE047A0122CBED1E
:104ACC00047ACBF81490CBF81880CBF81CE0CBF818
:104ADC002060CBF82440CBF828008BED0B7A0397A1
:104AEC00CBF8B420002940F0C385CAF8EC188AF83A
:104AFC00F01830BF9AF88038002B40F070829AF88A
:104B0C009C38019D002B40F09A84019B15F03F05C9
:104B1C0003F10103019340F015849F4B4FF4801275
:104B2C009A611595159B0B2B05DC159B0133159381
:104B3C00159B0B2BF9DD984B10229A6100231493D3
:104B4C00149B0B2B05DC149B01331493149B0B2B24
:104B5C00F9DD002490490D224FF400162046202543
:104B6C008E611290129B0B2B05DC129B013312935E
:104B7C00129B0B2BF9DD0B698D61139013F0400F19
:104B8C004FEA4404139BA4B218BF44F001040B2B4E
:104B9C0005DC139B01331393139B0B2BF9DD013AAB
:104BAC00DED17D4BA6074FF400129A6143BFC4F3CC
:104BBC00800383F00103DBB2022314F0080F6FEAC9
:104BCC00040E0CBF4FF0020C4FF0010C25060EF03A
:104BDC00010EC4F3001040F16186C4F3002686F088
:104BEC0001067600F6B214F4806504D014F4007F4C
:104BFC0014BF01250225694FDBED2E7A3969D7F8F0
:104C0C0010803F69AAF82C486FEAD42242EA91221C
:104C1C0002F00101624A8AF848388AF849C88AF8D1
:104C2C004A6816758AF880086FEA1430157340EAE2
:104C3C00D8225C488AF84B1802F001028AF84C28FA
:104C4C0040ED047A002940F02C86002A00F0DC8428
:104C5C009AF82528002A01F0ED844FF48072012E79
:104C6C00AAF8242801F0D884884689469AF8C00806
:104C7C00012800F05886022801F06184002800F019
:104C8C009084DBF80820B8F1000F41F06C839BF89E
:104C9C00D04006462046404C0227A7614FF400073F
:104CAC00A761012800F0A484DAF8C448944200F209
:104CBC0072849AF8C848CAF8C428002C01F0A88459
:104CCC00013CE4B2344A8AF8C8484FF080779761C7
:104CDC00344A8AF84E688AF84F08D2ED197ADFED1B
:104CEC00326A9FED327A67EEA67AF4EEC77AF1EE6D
:104CFC0010FA00F3A584FCEEE77A17EE902A8AF8F6
:104D0C005028284A8AF85848D2ED097ADFED286AEB
:104D1C009FED267A67EEA67AF4EEC77AF1EE10FADA
:104D2C0000F38B84FCEEE77A17EE902A8AF8512870
:104D3C001C4ADFED1F6AD2ED0A7A9FED1C7A67EEF2
:104D4C00A67AF4EEC77AF1EE10FA00F37384FCEE57
:104D5C00E77A17EE902A8AF852289AF8D8288AF817
:104D6C005328BAF8DA28AAF85628DAF8DC08DAF860
:104D7C00E0289042C0F0CD839AF8E4282AB39AF840
:104D8C00E528624500F050861CE000BF00000C4393
:104D9C000000F0420000C84200000240001802402F
:104DAC0000000020940800200000C84200007F434F
:104DBC0000007A440000A042000070420000204233
:104DCC00C0FE8B4900228AF8E4282A466046039CE0
:104DDC0040EA0217A7421CD007EE900AF8EE677A59
:104DEC0067EE837A3AB1012A0CBFB6EE007AB5EEC3
:104DFC00007A67EE877A1FED0E7AB4EEE77AF1EE61
:104E0C0010FAD8BFF0EE477A0122CBED2E7ACBF810
:104E1C00B420029ABEF1000F40F0A885934200F036
:104E2C0023844FEA831808F1006202F5C022CA4CB1
:104E3C001068A0427FF434AED08802287FF430AEE4
:104E4C001489282C3FF62CAE201D80B20390B2F8AA
:104E5C0004E00593501D029041F221064FF6FF70BD
:104E6C00029B049313F8019F029380EA09204FEAF6
:104E7C004009000448BF89EA06094FEA490019F4C1
:104E8C00004F18BF70404FEA4009030448BF89EA3D
:104E9C0006094FEA490019F4004F18BF70404FEA59
:104EAC004009000448BF89EA06094FEA490019F491
:104EBC00004F18BF70404FEA4009030448BF89EA0D
:104ECC000609049B4FEA490019F4004F80B2A3F184
:104EDC000409039B18BF7040A9EB020918BF80B2EC
:104EEC009945BDD38645059B7FF4DAAD002C3FF484
:104EFC00D7AD601E052841F2C48398486844A0EBE6
:104F0C000800022841F2BD839548A60858F800E035
:104F1C00CDF880E0012E404401F0C483D0F804E0C9
:104F2C00CDF884E0022E3FF49BADD0F808E0CDF82C
:104F3C0088E0032E3FF494ADD0F80CE0CDF88CE073
:104F4C00042E3FF48DADD0F810E0CDF890E0052E96
:104F5C003FF486ADD0F814E0CDF894E0062E3FF483
:104F6C007FADD0F818E0CDF898E0072E3FF478AD7F
:104F7C00D0F81CE0CDF89CE0082E3FF471ADD0F8D1
:104F8C0020E0CDF8A0E00A2E7FF46AAD426A2992A7
:104F9C007448289A02604260002282600122AAF8BA
:104FAC007C288AF8E4289DF8A4208AF8E7289DF844
:104FBC00A620DDED207ADDF88490DDF88880DDF820
:104FCC008CE0249E259C26989DED277A8AF8E5C8CE
:104FDC008AF8E6588AF8E8280293FF276EE5DBF892
:104FEC009432002BBFF6ACABDBED527AB7EE007A05
:104FFC0037EE677AB5EEC07AF1EE10FA00F11F8544
:10500C00F0EE477ADFED586AF4EEE67AF1EE10FA3C
:10501C003FF596ABDBED534ADBED557A87EE246A10
:10502C00B5EEC06AF1EE10FA40F30D85F6EE006AAB
:10503C00F4EEE67AB7EE007AF1EE10FA37EE677A14
:10504C0001D4F7EE086A76EEE76AF0EE465AB4EE53
:10505C00E67AF1EE10FAF4EEC76A94BF012300234E
:10506C00F1EE10FAB4BFF0EE667AF0EE477A83F008
:10507C0001089FED3E7ACBF89882F4EEC77AF1EEF8
:10508C0010FA01F33380B2EE007A25EE877AB4EE93
:10509C00E77AF1EE10FA3FF753ABDBEDA36AB6EE0D
:1050AC00007AF4EEC76AF1EE10FA41F319809BED29
:1050BC00A27ADFED2F6AB4EEE67AF1EE10FA41F344
:1050CC000F8087EEA55AB4EEE65AF1EE10FA41F3D2
:1050DC00078077EE077ADFED276AFDEEE77A27EE99
:1050EC00267A17EE904AFDEEC77A40F6B83217EEE4
:1050FC00906AB6F5616FA8BF4FF46166B6F5966F0E
:10510C00B8BF4FF496669442A8BF1446B4F5407FDE
:10511C00B8BF4FF44074B5EEC06AF1EE10FA9BEDD7
:10512C00547A40F38B85B0EE475AF6EE007A0BEBCF
:10513C00830364EEA77A93ED566ADFED118ADBF8F0
:10514C000050DBE9013077EE877A03EB000C77EE49
:10515C00867A00212FE000BF723838327500FAF7DA
:10516C000A0006089408002017B7D1388FC2753D85
:10517C0000001644CDCCCC3F95BFD6330AD7233C88
:10518C0000000000CDCC4CBD010880390AD7233D6E
:10519C0002F1010E73452DD957ED015A75EEC75A20
:1051AC00023125EE866AA14236EE077A27EE077A9F
:1051BC0078EE878A35DA07EE101AB8EEC76A36EE43
:1051CC00276ABCEEC67A17EE102A9A4224BFB2FBAD
:1051DC00F3F703FB17229042B8EE477A2CBF821AE2
:1051EC00ACEB020205EB8207012A36EE476A97ED1B
:1051FC00007ACDD8013A00F18A81934298BFD21A35
:10520C0005EB8202D2ED005A75EEC75A023125EE3B
:10521C00866AA14236EE077A27EE077A78EE878AFD
:10522C00C9DB1FED2B7AF4EEC78AF1EE10FA3FF5CD
:10523C0087AA1FED2E2A5FED2E5A002128EE822A16
:10524C008E46474607EE10EA5FED334A0491F8EEBE
:10525C00C71AF0EE642A71EE851A4FF0000841E08F
:10526C0002F101094B455CD911ED011A31EE471AD7
:10527C0021EE201A31EE077A37EE866AFCEEC66A0A
:10528C0016EE902A9A4224BFB2FBF3F103FB1122D3
:10529C009042B8EE661A2CBF821AACEB020205EBF8
:1052AC008201012A36EE416AD1ED006A40F2E983AF
:1052BC0002F101094B4540F2E48311ED011A31EE84
:1052CC00661A21EE066A76EE266A67EE266A08F101
:1052DC00020827EE077A444572EEA62A74EE874A36
:1052EC0040F3E38307EE108AB8EEC76A71EE860AC4
:1052FC00BCEEE07A17EE102A9A4224BFB2FBF3F10F
:10530C0003FB11229042B8EE477A2CBF821AACEB09
:10531C00020205EB8201012A70EEC70A91ED007AB8
:10532C009ED8013A00F1BD83934298BFD21A05EB87
:10533C00820292ED001A31EE471A21EE201A31EE5C
:10534C00077A99E730BFFFF7F6B95FED727AF4EEA2
:10535C00E76AF1EE10FA40F3CC80F4EEC66AF1EE97
:10536C0010FA40F1C68040F6FF739942A8BF194667
:10537C0007EE901A5FED7C6AF8EEE77A67EEA67A94
:10538C0077EEE37A5FED7F6A9AF87C3867EEA67A5F
:10539C0073EEA73A002B00F0A480AB4BD3ED017A4F
:1053AC0073EEE76AF5EEC06AF1EE10FA00F1878051
:1053BC009FEDA66AF4EEC66AF1EE10FA00F1878052
:1053CC009AF87D38002B40F06F86F4EEE73AF1EE58
:1053DC0010FA04D8F4EE673AF1EE10FA77D09A4B43
:1053EC00C3ED023A01238AF87D38974BC3ED007A5E
:1053FC009AF880388BB9964B1B7D012B0DD1924BB3
:10540C0093ED096A76EE277AF7EE006AF4EEE67A07
:10541C00F1EE10FAC8BFF0EE667A8D4B019DC3ED2C
:10542C00067A17EE103AAAF82E38874BAAF83028CD
:10543C0043ED053A9AF89C38002B3FF466AB0026F6
:10544C00844C8AF89C683746B0463046FCF7B2FB71
:10545C00CDF82480099B44F61F62934207DC099B1C
:10546C0001330993099B44F61F629342F7DD4FF415
:10547C00C872002140F6FF70A36843F08043A3601C
:10548C0023689B07FCD5E36CC3F30B03984228BF3E
:10549C001846994238BF1946013AEDD10AEB8703F9
:1054AC00013706F11116082FA3F8A00806F5885647
:1054BC00A3F8A218C9D1FCF7D1FBFFF726BB9FEDCF
:1054CC00666AF4EEC66AF1EE10FA7FF779AF5E4BBE
:1054DC00C3ED023A4FF48073F0EE637AAAF87C388D
:1054EC0083E7594BF0EE637AC3ED003AC3ED023A11
:1054FC007EE7F8EEC77A67EEA67AFDEEE77A17EE4E
:10550C00903A59187FF52FAFDFED547A38E71A44EB
:10551C0076E64F48C26982EA423282EA524282EA15
:10552C00421212F0010408BF4FF4803412F0020F43
:10553C00C26118BF02274A4808BF4FF4003712F067
:10554C00040F14BF80264FF4000612F0080F84617C
:10555C0014BF4FF480744FF0807412F0100F14BF0E
:10556C004FF400624FF00062876186618461826152
:10557C0002E4012800F04082394C022603278AF805
:10558C00C078A6614FF40006A661DAF8C4489442CC
:10559C0041F234803E46CAF8C4280124FFF792BB7E
:1055AC0088469BF8D000DBF80820012840F02F85B6
:1055BC0025489FED2C7AD0ED097AF4EEC77AF1EEFE
:1055CC0010FA40F1038501208AF8C908022E00F078
:1055DC000A8507F4805757EA080740F004853E46D1
:1055EC001F4802248461802484614FF0807484619C
:1055FC009AF8C848CAF8C428002C00F08381013CF2
:10560C00E4B20120FFF75EBB012EAAF8241801F0CA
:10561C0003809AF8C008012800F0BA84022800F030
:10562C00AB840028BCD0DBF80820FFF730BB1A464F
:10563C00FFF714B9FF22FFF78EBBFF22FFF776BBF3
:10564C00FF22FFF75CBB00BF940800200AD7A33CE5
:10565C0000000020002201400AD7A3BC000000007B
:10566C00000002406F12033C039700293FF43DAA4F
:10567C00DAF8EC289AF8F008002A40F08B81DAF876
:10568C00DC28002A40F0C5810122CAF8EC28002849
:10569C007FF42FAA0A46DAF8DC188A1A41F27071E4
:1056AC008A427FF626AABE4A209200228DF87D20DF
:1056BC008DF87F20DBF81020CDF88A20DBF8142041
:1056CC00CDF88E20DBF81820CDF89220DBF81C20CA
:1056DC00CDF89620DBF82020CDF89A20DBF824209A
:1056EC00CDF89E20DBF82820CDF8A220DBF82C206A
:1056FC00CDF8A620AB4A8DF87CC092698DF87E500F
:10570C00CDF8AA20A84ACDF886201F9ACDF8AE2055
:10571C0001228AF8F0280DF185044FF6FF7241F250
:10572C00210014F8011F82EA01225100170448BF1E
:10573C0041404A000E0448BF42405100150448BF86
:10574C0041404A00090448BF42405100120448BF7E
:10575C0041404A000F0448BF42405100160448BF64
:10576C0041400D044FEA41020DF1B10148BF4240E6
:10577C008C42D6D18D49ADF884208D4A891A013AD4
:10578C00885C02F8010F8B488242F9D19A01A0F192
:10579C00FF048349A15004EB83132199596022998A
:1057AC0099602399D9602499196125995961269991
:1057BC0099612799D96128991962299959622A996D
:1057CC0099622B99D96202F132002546211802F117
:1057DC00300402F13E03BDF8B0202A534FF0FF32E3
:1057EC002A504A608A60EA52734B1A69002A04DA1A
:1057FC00724A5A6002F188325A606F4AD368D803F1
:10580C00FCD4F323D360136923F47E7323F00203D7
:10581C0043F40E7343F002031361136943F48033B2
:10582C001361654AD368D903FCD41369644823F027
:10583C00FA031361136923F4407323F0010343F457
:10584C00007343F001031361594A5B4B801A111F1B
:10585C0002F1FC04421851F8045F1560DA68D203B7
:10586C00FCD48C42F6D11A694E4922F001021A611D
:10587C001A6942F000421A619AF84D3801338AF8DD
:10588C004D38DAF8DC3803F6B833CAF8E038DAF811
:10589C00DC28CB695340CB61FFF72BB90126FFF70E
:1058AC00A2B99AF82408B0FA80F84FEA581862B3F3
:1058BC009AF82598B9F1000F27D14FF001094E4500
:1058CC008AF824188AF825987FF4D0A9FCEEE77A98
:1058DC00DBF8044017EE902A022A38BF0222201F60
:1058EC00824228BF0246DBF8080082428ABF241895
:1058FC00821AA21ACBE936200220CBF808208BF8AA
:10590C00D00039E60120FFF7E3B98AF825280122F7
:10591C0096428AF8242865D09AF8C00801284FF0DE
:10592C0000097FF4A8A9DBF80870DAF8CC289742B4
:10593C00C0F09A86B9F1000F40F08586B81AFCEEDB
:10594C00E77A17EE909A814540F26B839AF8C0681B
:10595C00B8F1000F00F02C8301241A48CAF8CC7857
:10596C00CBF8D4703A468BF8D04049E0FE2A3FF48D
:10597C007BAEFE229FED147A1448154C154EDFF8C1
:10598C0058E0DFF85880DFF858900292F3EE047A72
:10599C00FFF794B800283FF47EAEFFF7AAB800BF1B
:1059AC00723838320000002002002800010006087E
:1059BC0018090020170A0020003C0240230167450B
:1059CC0004000608000002400000204300000C43C5
:1059DC000000F0420000C8420000A04200007042EB
:1059EC0000002042002840F01786DBF80820CBF896
:1059FC00D42001208BF8D0000026DB488AF8C06840
:105A0C004FF400348461802484614FF48074846189
:105A1C00EEE5DAF8DC28CAF8EC2800287FF469A84F
:105A2C00002A3FF466A836E69AF8E628AA427FF4E4
:105A3C00C9A99AF8E7089AF8E828FFF7C8B9F1EE6F
:105A4C00477AFFF7DFBAB6EE007AF4EEC77AF1EEDA
:105A5C0010FAC0F2ED8037EEC77AF4EEC77AF1EEA9
:105A6C0010FAB4EEE77A94BF01230023F1EE10FA9A
:105A7C00B8BFF0EE477AF1EE465A83F00108FFF713
:105A8C00F8BA013A0FD4934298BFD21A05EB8202AE
:105A9C0092ED001A31EE661A21EE066A76EE266A4F
:105AAC0013E41A4443E41A44F0E7F4EEC24AF1EE6C
:105ABC0010FA049915D4F5EEC02AF1EE10FA00F1A3
:105ACC00BA80B0EE627A22EE877A74EE844A87EE60
