:020000040800F2
:1000000000000320016000085160000851600008F2
:1000100051600008516000085160000800000000B5
:100020000000000000000000000000005160000817
:100030005160000800000000516000085160000895
:1000400051600008516000085160000851600008CC
:1000500051600008516000085160000851600008BC
:1000600051600008516000085160000851600008AC
:10007000516000085160000851600008516000089C
:10008000516000085160000851600008516000088C
:10009000516000085160000851600008516000087C
:1000A000516000085160000851600008516000086C
:1000B000516000085160000851600008516000085C
:1000C000516000085160000851600008516000084C
:1000D000516000085160000851600008516000083C
:1000E000516000085160000851600008516000082C
:1000F000516000085160000851600008516000081C
:10010000516000085160000851600008516000080B
:1001100051600008516000085160000851600008FB
:1001200051600008ED1A0008516000085160000895
:1001300051600008516000085160000851600008DB
:1001400051600008516000085160000851600008CB
:1001500051600008516000085160000851600008BB
:1001600051600008516000085160000851600008AB
:100170005160000851600008516000080000000054
:10018000516000085160000851600008516000088B
:10019000516000085160000851600008516000087B
:0C01A00051600008516000085160000828
:1001AC0000EB820C012A00B5DCED006A0ED902F1DD
:1001BC00010E8E450AD21CED017A002B64D137EE6C
:1001CC00667A27EE007A37EE260A00BDB2F1010CF2
:1001DC0049D4614598BFACEB010C00EB8C0C9CED49
:1001EC00007A002BEBD0531C994298BF5B1A00EBA2
:1001FC008303012A93ED005AA2F1020342D09942E3
:10020C0098BF5B1A00EB8300D0ED005AB0EE046A85
:10021C0075EEC57A36EEC74A26EE866AF6EE004AC9
:10022C00F7EE083A24EE234A67EEA47A77EE073A03
:10023C0035EE466A77EE847A36EE236A65EEA45A7A
:10024C0067EE807A36EE656A37EE457A77EE867A17
:10025C0027EE247A67EE807A77EE877A67EE807ADB
:10026C0037EEA60A00BD8C4400EB8C0C9CED007A9A
:10027C00002BA4D0931E013237D50A4400EB820226
:10028C0092ED005A0B44BDE7DCED014A5CED025ADD
:10029C00B0EE046A75EEE47A36EEC74A26EE866A4C
:1002AC00B6EE005AF7EE083A24EE234A67EE857A4A
:1002BC0077EE073A34EEC66A77EE847A36EE236A26
:1002CC0065EE855A67EE807A36EE656A37EE647AAB
:1002DC0077EE867A27EE057A67EE807A77EE877A64
:1002EC0067EE807A37EEA60A00BD914298BF521A8B
:1002FC0000EB820292ED005A0B4483E72DE9F04F9C
:10030C002DED028BF5EEC00AF1EE10FA8BB005461E
:10031C0000F1AF84F7EE007AF4EEE70AF1EE10FA92
:10032C00C8BFF0EE670AE14CD4ED326AD4ED337AF3
:10033C0094ED307AD4ED315A94ED2C6A77EEE67A5E
:10034C0067EEA07A77EEA67A77EEC77A67EEA57A93
:10035C0077EE877AB4EE676AF1EE10FAC4ED307A74
:10036C0040F03183D4F8B430002B40F02C83206F54
:10037C00216B676F666B94ED2F7A421A67EB06035D
:10038C0052EA030C27D007EE902A9FEDC96AF8EECB
:10039C00676A07EE903A66EE866AF8EEE77A77EED1
:1003AC00A67A67EE877AFDEEE76AB8EEE66A16EE95
:1003BC0090CA77EEC67AB0EE676ABEEEE06A16EEC9
:1003CC00103ADA17DB184CEB420253EA020C40F0FD
:1003DC002284C4E90C07A06FA16BE76FE66B421A8D
:1003EC0067EB060352EA030C27D007EE902A9FED29
:1003FC00B06AF8EE676A07EE903A66EE866AF8EE37
:10040C00E77A77EEA67A67EE877AFDEEE76AB8EEC2
:10041C00E66A16EE90CA77EEC67AB0EE676ABEEE62
:10042C00E06A16EE103ADA17DB184CEB420253EA8C
:10043C00020C40F0EA83C4E90E07D4F88000216C6A
:10044C00D4F88470666C421A67EB060352EA030C0C
:10045C0027D007EE902A9FED966AF8EE676A07EEB2
:10046C00903A66EE866AF8EEE77A77EEA67A67EE51
:10047C00877AFDEEE76AB8EEE66A16EE90CA77EE7A
:10048C00C67AB0EE676ABEEEE06A16EE103ADA177C
:10049C00DB184CEB420253EA020C40F0B083C4E987
:1004AC001007D4F88800A16CD4F88C70E66C421A52
:1004BC0067EB060352EA030C27D007EE902A9FED58
:1004CC007C6AF8EE676A07EE903A66EE866AF8EE9A
:1004DC00E77A77EEA67A67EE877AFDEEE76AB8EEF2
:1004EC00E66A16EE90CA77EEC67AB0EE676ABEEE92
:1004FC00E06A16EE103ADA17DB184CEB420253EABC
:10050C00020C40F07683C4E91207D4F89000216DF8
:10051C00D4F89470666D421A67EB060352EA030C2A
:10052C0027D007EE902A9FED626AF8EE676A07EE15
:10053C00903A66EE866AF8EEE77A77EEA67A67EE80
:10054C00877AFDEEE76AB8EEE66A16EE90CA77EEA9
:10055C00C67AB0EE676ABEEEE06A16EE103ADA17AB
:10056C00DB184CEB420253EA020C40F03C83C4E92A
:10057C001407D4F89800A16DD4F89C70E66D421A5B
:10058C0067EB060352EA030C27D007EE902A9FED87
:10059C00486AF8EE676A07EE903A66EE866AF8EEFD
:1005AC00E77A77EEA67A67EE877AFDEEE76AB8EE21
:1005BC00E66A16EE90CA77EEC67AB0EE676ABEEEC1
:1005CC00E06A16EE103ADA17DB184CEB420253EAEB
:1005DC00020C40F00283C4E91607D4F8A000216E87
:1005EC00D4F8A470666E421A67EB060352EA030C49
:1005FC0027D007EE902A9FED2E6AF8EE676A07EE79
:10060C00903A66EE866AF8EEE77A77EEA67A67EEAF
:10061C00877AFDEEE76AB8EEE66A16EE90CA77EED8
:10062C00C67AB0EE676ABEEEE06A16EE103ADA17DA
:10063C00DB184CEB420253EA020C40F0C882C4E9CE
:10064C001807D4F8A800A16ED4F8AC70E66E421A64
:10065C0067EB060352EA030C30D007EE902A9FEDAD
:10066C00146AF8EE676A07EE903A66EE866AF8EE60
:10067C00E77A77EEA67A67EE877ABDEEE77AF8EE40
:10068C00C76A17EE10CA77EEE67AF0EE676AFEEEEE
:10069C00E06A16EE903ADA17DB184CEB420253EA9A
:1006AC00020C40F08E82C4E91A0707E0000000102B
:1006BC000000802F0000000000002043D4E9011747
:1006CC0094F8D0C0BCF1010FD4E9360207F1010651
:1006DC0040F0A882D4ED4A7AD4ED4D6AB7EE007A98
:1006EC00F4EEC77AF1EE10FA20EE260A09DA94ED50
:1006FC004B7A30EE470A20EE270A30EE070A84EDDB
:10070C004B0AD4F83C31002B00F3028323688E4251
:10071C0003EB870383ED000A00D300263346A36066
:10072C00D4F84031002B40F08B82BCF1010F94F8CF
:10073C003081276806EB010940F09F82626B9A4278
:10074C00B8BF1A46236BB8BF0023002A00F02283DF
:10075C0007EE903AB8EE670A5FED2B7A8A4220EEEC
:10076C00270A24BFB2FBF1F301FB1322B24288BF6C
:10077C00A9EB020240F2968443463846FFF710FD7F
:10078C00E26BA36B8DED020A002ABCBF0022002392
:10079C00002A40F0A48301291FED3A0A40F27F841D
:1007AC000122B24288BFA9EB020240F27884434690
:1007BC003846FFF7F5FC626C236C8DED030A002ABA
:1007CC00BCBF00220023002A40F07A8301291FEDD0
:1007DC00470A40F26F840122964238BFA9EB02020D
:1007EC0080F0688443463846FFF7DAFCE26CA36C71
:1007FC008DED040A002ABCBF00220023002A40F021
:10080C00508301291FED550A40F251840122964272
:10081C0038BFA9EB020280F04A8443463846FFF702
:10082C00BFFC626D236D8DED050A002ABCBF002252
:10083C000023002A40F0268301291FED620A40F2B2
:10084C003F840122964238BFA9EB020280F0388423
:10085C0043463846FFF7A4FCE26DA36D8DED060A06
:10086C00002ABCBF00220023002A40F0FC82012990
:10087C001FED700A40F221840122964238BFA9EB89
:10088C00020280F01A8443463846FFF789FC626EF8
:10089C00236E8DED070A002ABCBF00220023002A1C
:1008AC0040F0D28201291FED7D0A40F2FE83012225
:1008BC00964238BFA9EB020280F0F78343463846D4
:1008CC00FFF76EFCE26EA36E8DED080A002ABCBF2A
:1008DC0000220023002A40F0118301291FED8B0A0E
:1008EC0040F2DB830122964280F0D783A9EB02020F
:1008FC0043463846FFF754FC8DED090AD4ED397A9E
:10090C00DDED026A94ED417A9DED036ADDED054A59
:10091C009DED065ADDED075A67EEA67ADDED046A09
:10092C0067EE877AC5ED007AD4ED3A7A94ED427A87
:10093C0067EE867A9DED086A67EE877AC5ED017AD7
:10094C00D4ED3B7A94ED437A67EEA67A67EE877A1C
:10095C00C5ED027A94ED3C7AD4ED446ADDED097A6A
:10096C0027EE247A27EE267A85ED037A94ED3D7AEC
:10097C00D4ED456A27EE057A27EE267A85ED047AC2
:10098C0094ED3E7AD4ED466A27EE257A27EE267A48
:10099C0085ED057A94ED3F7AD4ED476A27EE067A19
:1009AC0027EE267A85ED067AD4ED406A94ED487AE6
:1009BC0067EEA67A67EE877AC5ED077A0BB0BDECC9
:1009CC00028BBDE8F08F1FEDC43AD4ED046A94EDB0
:1009DC00056AD4ED0B2AC4ED2C7A86EE837AC6EE2A
:1009EC00034AD4ED066A94ED076AC6EE833A86EEA6
:1009FC00035AD4ED086A94ED096A86EE834AD4ED65
:100A0C000A6AC6EE035A86EE836AC2EE836A94EDD6
:100A1C002E3A27EE037A64EE834A27EE277A64EEA9
:100A2C00A74A25EE035AFDEEC72ABDEEE42A25EEB1
:100A3C00275A66EE836AFDEEC50A63EE833A24EE0E
:100A4C00034A65EE835AF8EEE21A26EE036AB8EE14
:100A5C00C23A37EE617A74EEC34AB8EEE03A63EE0E
:100A6C00A73A35EE435AB0EE473ABDEEE31A24EE00
:100A7C00274ABEEEE03A65EEA75A26EE276AFDEE4F
:100A8C00C41A66EEA77A13EE103AF8EEC16AB0EE0D
:100A9C00643ABEEEE03A12EE902AD81873EEE63ABB
:100AAC00B8EEE17A4FEAE37342EB430313EE101A0C
:100ABC000022801834EE474AB0EE637ABEEEE07A3C
:100ACC0063672067CB1712EE100A49185B41184474
:100ADC0017EE103A8918B0EE457ABEEEE07AA167AF
:100AEC00D917DB18BDEEE58A4941E0679B1811EE7A
:100AFC00100AC4F8803017EE103A0144F8EEC84AD8
:100B0C00B0EE447ABEEEE07AC4F88410D917DB1844
:100B1C00FDEEC66A75EEE45A10EE900A49419B1838
:100B2C00C4F8883017EE103A0144F8EEE64AB0EEFD
:100B3C00657ABEEEE07AC4F88C10D917DB18BDEEDE
:100B4C00E73A36EE646A11EE900A49419B18C4F8F4
:100B5C00903017EE103A0144F8EEC34AB0EE467AE4
:100B6C00BEEEE07AC4F89410D917DB1818EE100A10
:100B7C00494177EEE47A9B18C4F8983017EE103A96
:100B8C000144B0EE677ABEEEE07AC4F89C10D91737
:100B9C00DB1816EE900A49419B18C4F8A03017EEEA
:100BAC00103A014413EE100AC4F8A410D917DB183C
:100BBC0040EB41019B18C4E92A31C4F8B420FFF77B
:100BCC00D6BBC91846EB0202C4E91A1276E5C9185D
:100BDC0046EB0202C4E9181233E5C91846EB0202CF
:100BEC00C4E91612F9E4C91846EB0202C4E914125E
:100BFC00BFE4C91846EB0202C4E9121285E4C91815
:100C0C0046EB0202C4E910124BE4C91846EB02028F
:100C1C00C4E90E1211E4C91846EB0202C4E90C1225
:100C2C00FFF7D9BB8E4228BF0026B2427FF476ADC7
:100C3C000346A360D4F840310646002B3FF475AD53
:100C4C009FEDC37AF0EE477A85ED007A85ED017A57
:100C5C0085ED027A85ED037A85ED047A85ED057ACA
:100C6C0085ED067AC5ED077A0BB0BDEC028BBDE8BD
:100C7C00F08FDFEDB70AFFF756BB53181B1AA2EB28
:100C8C00000B904288BF9B46BBF1000F00F06481C3
:100C9C00B0429FEDB03A00F28480A6EB000A0195B9
:100CAC00DFF8A89202AE054618E0D3459FEDA80ADE
:100CBC0040F23D81BBF1010F524640F04081121AC7
:100CCC002A448A4200D3521A43463846FFF768FA40
:100CDC009C4BA6EC010A4B4500F0B48059F8082F48
:100CEC00D9F80430002BAEBF184600200022034672
:100CFC000028DAD007EE902AB8EE670AD34520EE2A
:100D0C00030A00F29580BAFBFBF20BFB12A290E0F7
:100D1C0003F1FF3ED4F844319FED8B6A83EA4333F1
:100D2C0083EA534383EA431383EA433888EA5848F7
:100D3C0088EA48181B0AC4F844814FEA182807EEC1
:100D4C00903A07EE108AF8EEE77AB8EEC77A0123EC
:100D5C0003FA0EF377EE877A07EE103A67EE867A8F
:100D6C00B8EEC77AF7EE006A77EEE67A20EE070A5D
:100D7C00F6EE006A77EE807AF5EEC07AF1EE10FAB4
:100D8C0053DB77EEA67AFDEEE77AF8EEE77A87EE9C
:100D9C00870ABBE401299FED6E0A40F2838162460B
:100DAC00E4E4A9EB00060195DFF8A0A10DF1080918
:100DBC0005461AE0B3459FED660A40F2AF80BBF1E1
:100DCC00010F304603D00123984238BF5844C31A50
:100DDC00EA188A4228BF521A43463846FFF7E0F910
:100DEC00584BA9EC010A53452CD05AF8080FDAF8E5
:100DFC000420002AAEBF1346002300201A46002B05
:100E0C00D8D007EE900AB345B8EE670A96BFB6FB8A
:100E1C00FBF030460BFB10609B4520EE030A9CBF99
:100E2C00B3FBFBF30BFB1323CEE777EEE67AAAE7D3
:100E3C0052469B4540F2F38190427FF640AF5A44B4
:100E4C00121A3DE7019D59E507EE903AB8EE670A94
:100E5C00DFED407A914220EE270A9CBFB2FBF1F302
:100E6C0001FB132224E507EE903AB8EE670ADFED9A
:100E7C00397A914220EE270A9CBFB2FBF1F301FBB9
:100E8C001322FAE407EE903AB8EE670ADFED317AF6
:100E9C00914220EE270A9CBFB2FBF1F301FB132217
:100EAC00D0E407EE903AB8EE670ADFED2A7A914269
:100EBC0020EE270A9CBFB2FBF1F301FB1322A6E440
:100ECC0007EE903AB8EE670ADFED227A914220EEF7
:100EDC00270A9CBFB2FBF1F301FB13227CE407EE63
:100EEC00903AB8EE670ADFED1B7A8A4220EE270AA9
:100EFC0024BFB2FBF1F301FB132252E407EE903A4C
:100F0C00B8EE670ADFED137A8A4220EE270AFFF467
:100F1C00EAACB2FBF1F301FB1322E4E4BBF1010FE9
:100F2C0000F0D180B6FBFBF00BFB10604BE7BBF184
:100F3C00010F00F0CA80BAFBFBF20BFB12A20120DE
:100F4C007AE700BF68000010000080332800001012
:100F5C00000000000000802F626B236B5A45BCBF61
:100F6C005A465B46002A40F0B28001291FED080A60
:100F7C0000F2C180B21A43463846FFF711F9E26B12
:100F8C00A36B8DED020A002ABCBF00220023002AAD
:100F9C0040F0258101291FED120A00F23481B21AAA
:100FAC0043463846FFF7FCF8626C236C8DED030A60
:100FBC00002ABCBF00220023002A40F0FC8001293B
:100FCC001FED1D0A00F22381B21A43463846FFF783
:100FDC00E7F8E26CA36C8DED040A002ABCBF00227A
:100FEC000023002A40F0D38001291FED270A00F2CC
:100FFC000C81B21A43463846FFF7D2F8626D236D66
:10100C008DED050A002ABCBF00220023002A40F007
:10101C00AA8001291FED320A00F2FF80B21A434662
:10102C003846FFF7BDF8E26DA36D8DED060A002A78
:10103C00BCBF00220023002A40F0818001291FED53
:10104C003C0A00F2E880B21A43463846FFF7A8F88B
:10105C00626E236E8DED070A002ABCBF00220023AE
:10106C00002A59D101291FED460A00F2D280B21A8A
:10107C0043463846FFF794F8E26EA36E8DED080AEE
:10108C00002ABCBF00220023BABB01291FED500A65
:10109C0003D90122B2423FF629ACB21A28E4B21AA3
:1010AC00FFF785BBB21AFFF767BBB21A06E4B21A98
:1010BC00FFF7B3BBB21AFFF795BBB21AFFF7E3BB4E
:1010CC00B21AFFF7C5BB184681E60246F7E507EEF4
:1010DC00903AB8EE670A5FED617A914220EE270AEA
:1010EC009CBFB2FBF1F301FB13229642BFF442AF5B
:1010FC00A9EB02023FE70122F7E707EE903AB8EEC0
:10110C00670A5FED6C7A8A4220EE270A24BFB2FB95
:10111C00F1F301FB1322BDE707EE903AB8EE670A34
:10112C005FED747A914220EE270A9CBFB2FBF1F37B
:10113C0001FB132296429AD2A9EB020298E707EE22
:10114C00903AB8EE670A5FED7D7A914220EE270A5D
:10115C009CBFB2FBF1F301FB13229642BFF473AFB9
:10116C00A9EB020270E707EE903AB8EE670A5FED62
:10117C00877A914220EE270A9CBFB2FBF1F301FB68
:10118C0013229642BFF44AAFA9EB020247E707EEDF
:10119C00903AB8EE670A5FED917A914220EE270AF9
:1011AC009CBFB2FBF1F301FB13229642BFF421AFBB
:1011BC00A9EB02021EE707EE903AB8EE670A5FED64
:1011CC009B7A914220EE270A9CBFB2FBF1F301FB04
:1011DC0013229642BFF4F8AEA9EB0202F5E607EE35
:1011EC00903AB8EE670A5FEDA57A914220EE270A95
:1011FC009CBFB2FBF1F301FB13229642BFF4CFAEBE
:10120C00A9EB0202CCE60122F7E70122CDE701228D
:10121C00DFE701228EE701229FE70122B1E7B3FB52
:10122C00FBF00BFB103007E6BCEEC07ADFEDA66AD4
:10123C00F8EE477AF0B570EE677AA44C67EEA67AB2
:10124C00A268FDEEE76A064616EE903A4FEA831C5A
:10125C0017EE103A606807330D4606F14A019342C7
:10126C0004EB810188BF1218D31AD1F84821B8EECB
:10127C00E66A9A1A102A77EEC67A0CF1400716D94C
:10128C00934A2468C1F8483102F1800E0EEBC61166
:10129C0002EBC61204EB830E0133DEF800E042F8D9
:1012AC0004EB984298BF00238A42F3D1002205EB4D
:1012BC000C033D44D3ED005A93ED037A95ED002ACF
:1012CC00D3ED133A93ED016AD3ED026AD3ED112AF3
:1012DC0093ED123A93ED051A93ED065AD3ED090AE4
:1012EC00D3ED044A93ED144ADFED7A1A93ED080A14
:1012FC0032EE652A73EEC73A22EE272A72EEC62A20
:10130C0033EE663A63EEA73A32EE252A62EEA72A4E
:10131C00D3ED075A23EE273A73EE873A93ED177AFB
:10132C0072EE862A33EE263A93ED156AD3ED166AE1
:10133C0037EE657A36EE416A76EEC56A27EE277A85
:10134C0026EE276A66EEA76A37EE257AD3ED195A90
:10135C0002EB461236EE016A76EE856A93ED0A1AB6
:10136C0093ED1A5A75EEE05A02F10A015A4A65EEEB
:10137C00A75A35EE415A02EB810275EEA05A25EEC2
:10138C00275AD2ED000A35EE015A22EE202A92EDB0
:10139C00011AD2ED020A32EE212A34EE644A62EED0
:1013AC00812A24EE274A92ED031AD2ED041A72EE2A
:1013BC00822A23EE203A34EE244A33EE223A63EEAC
:1013CC00813AD3ED184A92ED052AD2ED062A73EE36
:1013DC00833A24EE214A74EEC04A34EE234A26EEB8
:1013EC00026A92ED073AD2ED083A36EE046A64EEE0
:1013FC00A74A66EEA26A92ED094A92ED0A2AD3ED4B
:10140C000B2A76EE866A74EE804A27EE037A93ED09
:10141C001B6A93ED0C3A93ED1E0A37EE267A64EEB6
:10142C00A34A36EE626AD3ED1C6AD3ED0D3A74EE24
:10143C00874A65EE845A26EE276A76EEC36A93EDE8
:10144C001D7A93ED0E4A75EEA45A25EE025A36EE2D
:10145C00226A66EEA76AD2ED0B2AD3ED0F4A37EE5D
:10146C00637A35EE255A26EE226A76EE836A27EEEB
:10147C00277A92ED0C3AD3ED1F5A30EE440A36EE31
:10148C00056A66EE836A92ED0D5A37EE237A20EEEA
:10149C00270A75EEE45A76EE866A30EE040A25EEDB
:1014AC00A76A27EE057A92ED0E5A37EE267A60EE91
:1014BC00057AD2ED0F6A36EE240A77EE877A20EEA3
:1014CC00260A30EE270AF0BD000000420000001092
:1014DC0070010010000000004801001030B5D04C25
:1014EC0094ED525AF7EE002A72EEC52A2DED048BBC
:1014FC00F5EEC02AF1EE10FA94ED538A83B000F1A8
:10150C00E080B0EE627ADFEDC77AD4ED544AB4EEE7
:10151C00E77AF1EE10FA00F1A58194ED553A9FEDC2
:10152C00C27ADFEDC26AF6EE007A23EE077AB4EEE9
:10153C00E73AF1EE10FA67EE266A80F2BF80F5EE1C
:10154C00C06AF1EE10FA73EE275A19DAFEEE007A41
:10155C0077EEA67A9FEDB66ADFEDB66AFDEEE77A16
:10156C00F8EEE77A67EE867A37EE677AB4EEE67ACB
:10157C00F1EE10FA40F34081DFEDAB7A37EEC77A2B
:10158C0027EE074ADFEDAC7A9FEDAC6ADFEDAC6A73
:10159C009FEDAC2AD4ED593A64EE277A77EEC67AF1
:1015AC00B7EE006A67EE847A77EEA67AD4ED586AC5
:1015BC0067EE847A76EEA36A77EEC27A67EE847A67
:1015CC00B6EE004A77EE867A66EE846A67EE877A24
:1015DC0036EE667A67EEA77AF5EEC07AF1EE10FA7F
:1015EC0076EE676A40F21881B1EEE76A36EE676A0A
:1015FC00F5EEC06A26EE076AF1EE10FA36EE276AAF
:10160C0040F20781F1EEE67A77EEE67AD4F884328E
:10161C0067EE877A77EEA67AF0EE678A002B53D0C6
:10162C0028EE030AD4ED567A616894ED577A30EEC1
:10163C00240A28EE252A30EE270A32EE242AFCEE64
:10164C00C07A32EE072A17EE902AF8EE677A8A42B1
:10165C0030EE670A03D3B2FBF1F301FB1322A3684C
:10166C0020688DED016A93421D4638BFCB189A1A3B
:10167C0001230090FEF794FDFCEEC27A9DED016A09
:10168C00009817EE902A8A4224BFB2FBF1F301FBBB
:10169C001322AA42F8EE677A88BF6B1866EE001A1E
:1016AC0088BF9A1A32EE670A98BFAA1A0123FEF76E
:1016BC0077FD28EE800A30EE210A64E073EE675A5B
:1016CC0046E7B1EE627A1EE7DFED5F7AB4EEE75AD9
:1016DC00F1EE10FAA4DDDFED5D7AB4EEE75AF1EE2F
:1016EC0010FA40F33881F0EE007AB4EEE75AF1EEDE
:1016FC0010FA40F33681DFED567AB4EEE75AF1EE8C
:10170C0010FA40F32A814FF4C650032368EE255A91
:10171C0028EE030A75EEA45AD4ED577AD4F87C223D
:10172C0094ED567AC4F8803230EE240A75EEA77A1E
:10173C009A4230EE070AB0EE679A00F006814549EE
:10174C00014400208DED016A0091FFF76DFD9DEDC8
:10175C00016A0099F0EE407A66EE277A0120B0EE2D
:10176C00490ACDED007AFFF75FFD94ED527ADDED7D
:10177C00007A94ED553A28EE800AF7EE002A30EE06
:10178C00270A72EEC72AC2EE887AB7EE007A77EE95
:10179C00837AF4EEC77AF1EE10FAC0F29F80D4F897
:1017AC008832002B40F0CF80D4F86C21D4F88832EA
:1017BC00C4F85821002B40F0C480D4F86821C4F838
:1017CC006021B7EE007AF4EEC77A4FF0FF33F1EEFA
:1017DC0010FAC4F888326CDB77EEC77AF4EEC77A6D
:1017EC00F1EE10FAF8DA0123C4F88C32C4ED557A14
:1017FC0003B0BDEC048B30BDDFED177AB4EEE77AA5
:10180C00F1EE10FA7FF5BCAEDFED147A37EEC77A45
:10181C00B6E6DFED137AF7E69FED116AE6E600BF58
:10182C000000001017B7D138DB0F494083F9223E76
:10183C00DB0FC940DB0FC93F91EE3836470C5039EE
:10184C008588083CABAA2A3E5C8F823F3333B33F7A
:10185C00B81E3540AC610008DB0FC9BFDB0F49C0B7
:10186C0000000000B6EE000A28EE000A616820684D
:10187C0030EE240A4FF0FF33FCEEC07AC4F8883205
:10188C0017EE902A8A4224BFB2FBF1F301FB13221C
:10189C00A368F8EE677A934238BF5B1830EE670A9C
:1018AC009A1A012303B0BDEC048BBDE83040FEF75F
:1018BC0077BCF5EEC07A0123F1EE10FAC4F88C3245
:1018CC0094D577EE877AF5EEC07AF1EE10FAF8D46B
:1018DC00C4ED557A03B0BDEC048B30BDF5EEC07A87
:1018EC00F1EE10FA3FF55BAFB6EE007AB4EEC73A04
:1018FC00F1EE10FAF4EEC77AACBF01220022F1EE41
:10190C0010FAACBF012300239A423FF46FAFD4F816
:10191C008832012B08BFD4F86C21D4F8883218BF58
:10192C000022012BC4F85C214FF0FF3308BFD4F820
:10193C006821C4F8883218BF0022C4F8642100233F
:10194C0052E700223BE7002230E7D4F87812002956
:10195C007FF4F7AEF3E61846D8E64FF48450022332
:10196C00D4E64FF404600123D0E600BFDFF8C0C01A
:10197C002E4BDCF8002042F48072CCF80020ACF541
:10198C00806C01E0013B44D0DCF81424D207F9D57B
:10199C00274A264B4FF0920CC2F810C0DFF894C0C7
:1019AC0001E0013B2DD0DCF814249207F9D5204A34
:1019BC001E4B9269DFF87CC001E0013B2CD0DCF8B7
:1019CC0014241206F9D51A4A184BDFF868C01061B6
:1019DC0001E0013B23D0DCF814241006F9D5144A9D
:1019EC00124B1448116101E0013B1BD0D0F81424B8
:1019FC005207F9D50E4A136843F4007300201360A4
:101A0C0070470B4A136843F400736FF001001360C6
:101A1C0070474FF0FF3070476FF0020070476FF067
:101A2C00030070476FF00400704700BF400D0300C7
:101A3C00005400400050004010B5DFF8A0C08646AE
:101A4C0084B0172200214FF480644FF080602EFA8E
:101A5C0002F313F0010F0CBF4FF080534FF480537F
:101A6C00CCF818300191019B0B2B05DC019B013349
:101A7C000193019B0B2BF9DDCCF818400291029BD2
:101A8C000B2B05DC029B01330293029B0B2BF9DD24
:101A9C00CCF818000391039B0B2B05DC039B013343
:101AAC000393039B0B2BF9DD013AD0D20A4A002396
:101ABC004FF4004191610093009B0B2B05DC009BC4
:101ACC0001330093009B0B2BF9DD034B4FF00042CD
:101ADC009A6104B010BD00BF000002400008024033
:101AEC002DE9F04F184B2DED068B1A6851058DB072
:101AFC0009D4154B1A68120500F116840DB0BDEC13
:101B0C00068BBDE8F08F4FF48061104A9960104E3F
:101B1C00DFF85080D2F804B09FED0EAA98ED058A3C
:101B2C00DFED0D9ADFED0D8A0D4FCDF80CB00023D3
:101B3C00029304ABB2467418B7EE009A06F50B6923
:101B4C0006F69C05019325E100640240001000E0BC
:101B5C0020000020000000346F12033B0000000046
:101B6C000000001000000020F6EE083AB4EEE34A44
:101B7C00F1EE10FA40F3E68134EE634AB1EE003A2E
:101B8C0024EE033A33EE093AC4EE032A32EEA34AAA
:101B9C00B4EEC94AF1EE10FA40F3D481F5EEC04A26
:101BAC00B14B2360F1EE10FA00F1E681B6EE084A73
:101BBC00F4EEC44AF1EE10FA40F3F78174EEC44A25
:101BCC00F1EE003A64EEA33A73EE893A84EEA33A4E
:101BDC0073EE044AF4EEC94AF1EE10FA40F3E581D3
:101BEC00B5EEC05AA04B6360F1EE10FA00F1F7812C
:101BFC00F6EE084AB4EEE45AF1EE10FA40F308821D
:101C0C0035EE645AB1EE004A25EE044A34EE094A28
:101C1C00C5EE043A33EEA45AB4EEC95AF1EE10FAFA
:101C2C0040F3F681F5EEC05A8F4BA360F1EE10FA3B
:101C3C0000F10882B6EE085AF4EEC55AF1EE10FA2D
:101C4C0040F3198275EEC55AF1EE004A65EEA44ACE
:101C5C0074EE894A85EEA44A74EE055AF4EEC95A1C
:101C6C00F1EE10FA40F30782B5EEC06A7E4BE360EA
:101C7C00F1EE10FA00F11982F6EE085AB4EEE56AAC
:101C8C00F1EE10FA40F32A8236EE656AB1EE005A94
:101C9C0026EE055A35EE095AC6EE054A34EEA56A0B
:101CAC00B4EEC96AF1EE10FA40F31882F5EEC06A90
:101CBC006D4B2361F1EE10FA00F12A82B6EE086A40
:101CCC00F4EEC66AF1EE10FA40F33B8276EEC66A89
:101CDC00F1EE005A66EEA55A75EE895A86EEA55AB3
:101CEC0075EE066AF4EEC96AF1EE10FA40F3298239
:101CFC00B5EEC07A5C4B6361F1EE10FA00F13B82F9
:101D0C00F6EE086AB4EEE67AF1EE10FA40F34C8285
:101D1C0037EE667AB1EE006A27EE066A36EE096A8D
:101D2C00C7EE065A35EEA67AB4EEC97AF1EE10FA81
:101D3C0040F33A82F5EEC07A4B4BA361F1EE10FA08
:101D4C0000F14C82B6EE087AF4EEC77AF1EE10FA96
:101D5C0040F35D8277EEC77AF1EE006A67EEA66A11
:101D6C0076EE896A87EEA66A76EE077AF4EEC97A81
:101D7C00F1EE10FA40F34B823B4BE36198F91C30C7
:101D8C00002B80F25D82394B2034A3420AF1200AE9
:101D9C0000F08C82DAF8003043F3170300EE103AAF
:101DAC00B8EEC00A20EE0A0AB5EEC00AF1EE10FA3F
:101DBC0000F11D87F0EE40AAD9ED007ADAF8043074
:101DCC0099ED007A7AEEE77A43F3170367EEA97A76
:101DDC0077EE877A07EE103ADAF80830C9ED007A18
:101DEC00B8EEC77A43F3170327EE0A7A07EE903A58
:101DFC00B5EEC07AF8EEE77AF1EE10FA67EE8A7A71
:101E0C0001D5B1EE477AF5EEC07AF1EE10FA01D5B4
:101E1C00F1EE677A95ED006AD5ED006A019837EE20
:101E2C00467AF0EE480A27EE297A37EE267A85EDC7
:101E3C00007AD5ED016A95ED017A77EEE67A67EED8
:101E4C00A97A77EE877AC5ED017A96F88038003B4F
:101E5C0018BF0123C7F84031FEF750FA96F88038C6
:101E6C00002B40F0D98605E0FFFF7F002006002004
:101E7C00FEFFFF4A9DED044AB4EEC94AF1EE10FA9A
:101E8C00C0F29F860123DDED054AF4EEC94AF1EE5E
:101E9C0010FAC0F28B8601239DED065AB4EEC95A96
:101EAC00F1EE10FAC0F277860123DDED075AF4EE5D
:101EBC00C95AF1EE10FAC0F2638601239DED086A4F
:101ECC00B4EEC96AF1EE10FAC0F24F860123DDEDD3
:101EDC00096AF4EEC96AF1EE10FAC0F23B860123EE
:101EEC009DED0A7AB4EEC97AF1EE10FAC0F22786AB
:101EFC000123DDED0B7AF4EEC97AF1EE10FAC0F2A3
:101F0C00128601230293B5EEC04AF1EE10FA7FF56A
:101F1C002BAEFEEE083AB4EEE34AF1EE10FA11D510
:101F2C00F6EE082AB1EE444A34EE624AF1EE003A7B
:101F3C0064EE233A73EE893A84EE233A33EE224A66
:101F4C00B1EE444AFFEE003AF4EEC43AF1EE10FA68
:101F5C001FED393AD8BFF0EE443A63EE833AF5EE12
:101F6C00C04ABDEEE34AF1EE10FA14EE103A23F03B
:101F7C007F4323607FF51AAEBEEE084AF4EEC44AE6
:101F8C00F1EE10FA11D5B6EE083AF1EE644A74EEA1
:101F9C00C34AB1EE004A24EE844A34EE094AC4EE38
:101FAC00843A73EE834AF1EE644ABFEE004AB4EE13
:101FBC00E44AF1EE10FA5FED523AD8BFB0EE644A43
:101FCC0024EE234AB5EEC05AFDEEC44AF1EE10FAE7
:101FDC0014EE903A23F07F4363607FF509AEFEEE7A
:101FEC00084AB4EEE45AF1EE10FA11D5F6EE083ABE
:101FFC00B1EE455A35EE635AF1EE004A65EE244ACD
:10200C0074EE894A85EE244A34EE235AB1EE455AD1
:10201C00FFEE004AF4EEC54AF1EE10FA1FED6C4AE1
:10202C00D8BFF0EE454A64EE844AF5EEC05ABDEED8
:10203C00E45AF1EE10FA15EE103A23F07F43A36048
:10204C007FF5F8ADBEEE085AF4EEC55AF1EE10FA73
:10205C0011D5B6EE084AF1EE655A75EEC45AB1EEDA
:10206C00005A25EE855A35EE095AC5EE854A74EEAE
:10207C00845AF1EE655ABFEE005AB4EEE55AF1EE11
:10208C0010FA5FED854AD8BFB0EE655A25EE245A9A
:10209C00B5EEC06AFDEEC55AF1EE10FA15EE903AA7
:1020AC0023F07F43E3607FF5E7ADFEEE085AB4EE14
:1020BC00E56AF1EE10FA11D5F6EE084AB1EE466A71
:1020CC0036EE646AF1EE005A66EE255A75EE895AC0
:1020DC0086EE255A35EE246AB1EE466AFFEE005ABA
:1020EC00F4EEC65AF1EE10FA1FED9F5AD8BFF0EE7F
:1020FC00465A65EE855AF5EEC06ABDEEE56AF1EE1C
:10210C0010FA16EE103A23F07F4323617FF5D6AD1B
:10211C00BEEE086AF4EEC66AF1EE10FA11D5B6EE10
:10212C00085AF1EE666A76EEC56AB1EE006A26EEE2
:10213C00866A36EE096AC6EE865A75EE856AF1EE47
:10214C00666ABFEE006AB4EEE66AF1EE10FA5FED75
:10215C00B85AD8BFB0EE666A26EE256AB5EEC07ADC
:10216C00FDEEC66AF1EE10FA16EE903A23F07F43BC
:10217C0063617FF5C5ADFEEE086AB4EEE67AF1EE6A
:10218C0010FA11D5F6EE085AB1EE477A37EE657AA9
:10219C00F1EE006A67EE266A76EE896A87EE266AA9
:1021AC0036EE257AB1EE477AFFEE006AF4EEC76A96
:1021BC00F1EE10FA1FEDD26AD8BFF0EE476A66EE68
:1021CC00866AF5EEC07ABDEEE67AF1EE10FA17EEFD
:1021DC00103A23F07F43A3617FF5B4ADBEEE087ACD
:1021EC00F4EEC77AF1EE10FA11D5B6EE086AF1EEFC
:1021FC00677A77EEC67AB1EE007A27EE877A37EEF9
:10220C00097AC7EE876A76EE867AF1EE677ABFEEC8
:10221C00007AB4EEE77AF1EE10FADFED546AD8BF2B
:10222C00B0EE677A27EE267AFDEEC77A17EE903A73
:10223C0023F07F43E36198F91C30002BFFF6A3AD2C
:10224C0098F91C300BB10023236098F91C30012B3A
:10225C001CBF0023636098F91C30022B1CBF0023A9
:10226C00A36098F91C30032B1CBF0023E36098F982
:10227C001C30042B1CBF0023236198F91C30052B48
:10228C001CBF0023636198F91C30062B1CBF002374
:10229C00A36198F91C30072B1CBF0023E361344B5E
:1022AC002034A3420AF1200A7FF474ADD6F8B83872
:1022BC00DDF80CB00133C6F8B8382E4B5B68A3EBD5
:1022CC000B031B094FF6FF72934228BF1346B6F857
:1022DC00B6289BB2934288BFA6F8B638029B002B57
:1022EC0041F02E81D6F8B828D6F8BC389A4281F045
:1022FC003981D6F8B828D6F8BC389A42FFF4F9AB35
:10230C0095ED007ADFED1C7A1C4BB4EEE77AF1EE1A
:10231C0010FACCBF4FF000624FF400629A61184B78
:10232C001A6812057FF5EAAB124A164EDFF8688080
:10233C00DFED159A9FED159ADFED15AA154F4FF4A9
:10234C00006199600023D2F804B0029304AB98EDBD
:10235C00058A0193B24606F58064F7EE008A06F50D
:10236C000B6906F69C05CDF80CB012E1FEFFFF4A96
:10237C0020060020001000E00AD7A33C0000024019
:10238C000064024020000020000000346F12033B68
:10239C00000000000000001000000020B6EE084A0B
:1023AC00F4EEC44AF1EE10FA40F3EF8174EEC44A35
:1023BC00F1EE003A64EEA33A73EEA83A84EEA33A37
:1023CC0073EE044AF4EEE84AF1EE10FA40F3DD81C4
:1023DC00B5EEC05AD94BC4F80432F1EE10FA00F144
:1023EC00EF81F6EE084AB4EEE45AF1EE10FA40F33F
:1023FC00008235EE645AB1EE004A25EE044A34EE02
:10240C00284AC5EE043A33EEA45AB4EEE85AF1EE7B
:10241C0010FA40F3EE81F5EEC05AC84BC4F80832FE
:10242C00F1EE10FA00F10082B6EE085AF4EEC55A3D
:10243C00F1EE10FA40F3118275EEC55AF1EE004A36
:10244C0065EEA44A74EEA84A85EEA44A74EE055AC9
:10245C00F4EEE85AF1EE10FA40F3FF81B5EEC06AE3
:10246C00B64BC4F80C32F1EE10FA00F11182F6EE14
:10247C00085AB4EEE56AF1EE10FA40F3228236EE19
:10248C00656AB1EE005A26EE055A35EE285AC6EEAC
:10249C00054A34EEA56AB4EEE86AF1EE10FA40F3A0
:1024AC001082F5EEC06AA54BC4F81032F1EE10FAAA
:1024BC0000F12282B6EE086AF4EEC66AF1EE10FA6A
:1024CC0040F3338276EEC66AF1EE005A66EEA55AF8
:1024DC0075EEA85A86EEA55A75EE066AF4EEE86A11
:1024EC00F1EE10FA40F32182B5EEC07A934BC4F8AA
:1024FC001432F1EE10FA00F13382F6EE086AB4EE03
:10250C00E67AF1EE10FA40F3448237EE667AB1EED9
:10251C00006A27EE066A36EE286AC7EE065A35EED2
:10252C00A67AB4EEE87AF1EE10FA40F33282F5EEC8
:10253C00C07A824BC4F81832F1EE10FA00F14482E2
:10254C00B6EE087AF4EEC77AF1EE10FA40F3558243
:10255C0077EEC77AF1EE006A67EEA66A76EEA86AA5
:10256C0087EEA66A76EE077AF4EEE87AF1EE10FAC8
:10257C0040F34382714BC4F81C3298F91C30002B89
:10258C0080F255826E4B20349C420AF1200A00F0F6
:10259C008C82DAF8003243F3170300EE103AB8EEEF
:1025AC00C00A20EE290AB5EEC00AF1EE10FA00F1CD
:1025BC00A585B0EE40AAD9ED007ADAF8043299ED8F
:1025CC00007A7AEE677A43F3170367EE897A77EE2F
:1025DC00877A07EE103ADAF80832C9ED007AB8EECD
:1025EC00C77A43F3170327EE297A07EE903AB5EE34
:1025FC00C07AF8EEE77AF1EE10FA67EEA97A01D517
:10260C00B1EE477AF5EEC07AF1EE10FA01D5F1EEA3
:10261C00677A95ED006AD5ED006A019837EE467A37
:10262C00F0EE480A27EE097A37EE267A85ED007A25
:10263C00D5ED016A95ED017A77EEE67A67EE897A47
:10264C0077EE877AC5ED017A96F88038003B18BF93
:10265C000123C7F84031FDF751FE96F88038002B66
:10266C0040F05A859DED044AB4EEE84AF1EE10FABA
:10267C00C0F22E850123DDED054AF4EEE84AF1EEB9
:10268C0010FAC0F21A8501239DED065AB4EEE85AF1
:10269C00F1EE10FAC0F206850123DDED075AF4EED7
:1026AC00E85AF1EE10FAC0F2F28401239DED086AAB
:1026BC00B4EEE86AF1EE10FAC0F2DE840123DDED2F
:1026CC00096AF4EEE86AF1EE10FAC0F2CA8401234A
:1026DC009DED0A7AB4EEE87AF1EE10FAC0F2B68407
:1026EC000123DDED0B7AF4EEE87AF1EE10FAC0F28C
:1026FC00A18401230293B5EEC04AF1EE10FA00F169
:10270C006B84F6EE083AB4EEE34AF1EE10FA40F3BD
:10271C007C8434EE634AB1EE003A24EE033A33EE95
:10272C00283AC4EE032A32EEA34AB4EEE84AF1EE9C
:10273C0010FA40F36A84014B06E000BFFFFF7F00F4
:10274C0020060020FEFFFF4AC4F80032F5EEC04A16
:10275C00F1EE10FA7FF522AEBEEE084AF4EEC44A52
:10276C00F1EE10FA11D5B6EE083AF1EE644A74EEB9
:10277C00C34AB1EE004A24EE844A34EE284AC4EE31
:10278C00843A73EE834AF1EE644ABFEE004AB4EE2B
:10279C00E44AF1EE10FA5FED153AD8BFB0EE644A98
:1027AC0024EE234AB5EEC05AFDEEC44AF1EE10FAFF
:1027BC0014EE903A23F07F43C4F804327FF511AE47
:1027CC00FEEE084AB4EEE45AF1EE10FA11D5F6EE2C
:1027DC00083AB1EE455A35EE635AF1EE004A65EE11
:1027EC00244A74EEA84A85EE244A34EE235AB1EEFC
:1027FC00455AFFEE004AF4EEC54AF1EE10FA1FED11
:10280C002F4AD8BFF0EE454A64EE844AF5EEC05A22
:10281C00BDEEE45AF1EE10FA15EE103A23F07F43B8
:10282C00C4F808327FF500AEBEEE085AF4EEC55A75
:10283C00F1EE10FA11D5B6EE084AF1EE655A75EEC6
:10284C00C45AB1EE005A25EE855A35EE285AC5EE1B
:10285C00854A74EE845AF1EE655ABFEE005AB4EE16
:10286C00E55AF1EE10FA5FED494AD8BFB0EE655A61
:10287C0025EE245AB5EEC06AFDEEC55AF1EE10FAFB
:10288C0015EE903A23F07F43C4F80C327FF5EFAD90
:10289C00FEEE085AB4EEE56AF1EE10FA11D5F6EE3A
:1028AC00084AB1EE466A36EE646AF1EE005A66EEFC
:1028BC00255A75EEA85A86EE255A35EE246AB1EEE5
:1028CC00466AFFEE005AF4EEC65AF1EE10FA1FED0E
:1028DC00635AD8BFF0EE465A65EE855AF5EEC06ADB
:1028EC00BDEEE56AF1EE10FA16EE103A23F07F43D6
:1028FC00C4F810327FF5DEADBEEE086AF4EEC66A9F
:10290C00F1EE10FA11D5B6EE085AF1EE666A76EED3
:10291C00C56AB1EE006A26EE866A36EE286AC6EE05
:10292C00865A75EE856AF1EE666ABFEE006AB4EE01
:10293C00E66AF1EE10FA5FED7D5AD8BFB0EE666A2A
:10294C0026EE256AB5EEC07AFDEEC66AF1EE10FAF7
:10295C0016EE903A23F07F43C4F814327FF5CDADD8
:10296C00FEEE086AB4EEE67AF1EE10FA11D5F6EE48
:10297C00085AB1EE477A37EE657AF1EE006A67EEE7
:10298C00266A76EEA86A87EE266A36EE257AB1EECE
:10299C00477AFFEE006AF4EEC76AF1EE10FA1FED0B
:1029AC00976AD8BFF0EE476A66EE866AF5EEC07A93
:1029BC00BDEEE67AF1EE10FA17EE103A23F07F43F3
:1029CC00C4F818327FF5BCADBEEE087AF4EEC77AC7
:1029DC00F1EE10FA11D5B6EE086AF1EE677A77EEE1
:1029EC00C67AB1EE007A27EE877A37EE287AC7EEF0
:1029FC00876A76EE867AF1EE677ABFEE007AB4EEED
:102A0C00E77AF1EE10FA5FEDB16AD8BFB0EE677AF3
:102A1C0027EE267AFDEEC77A17EE903A23F07F4325
:102A2C00C4F81C3298F91C30002BFFF6ABAD98F9AA
:102A3C001C3013B10023C4F8003298F91C30012B60
:102A4C001CBF0023C4F8043298F91C30022B1CBFA5
:102A5C000023C4F8083298F91C30032B1CBF002348
:102A6C00C4F80C3298F91C30042B1CBF0023C4F89A
:102A7C00103298F91C30052B1CBF0023C4F81432FB
:102A8C0098F91C30062B1CBF0023C4F8183298F997
:102A9C001C30072B1CBF0023C4F81C32564B2034AF
:102AAC009C420AF1200A7FF474ADD6F8B838DDF8F0
:102ABC000CB00133C6F8B838504B5B68A3EB0B0372
:102ACC001B094FF6FF72934228BF1346B6F8B6287F
:102ADC009BB2934288BFA6F8B638029B002B40F0FD
:102AEC004E85D6F8B828D6F8BC389A4280F059856D
:102AFC00D6F8B828D6F8BC389A42FEF4FFAF95ED5C
:102B0C00007ADFED3F7A3F4BB4EEE77AF1EE10FA44
:102B1C00CCBF4FF000624FF400629A610DB0BDEC77
:102B2C00068BBDE8F08FFFEE003AF4EEE37AF1EE9F
:102B3C0010FA98BF43F001030293FFF7E4B9FFEEDC
:102B4C00007AB4EEE77AF1EE10FA98BF43F0010385
:102B5C00FFF7CFB9FFEE007AF4EEE76AF1EE10FA68
:102B6C0098BF43F00103FFF7BBB9FFEE007AB4EE58
:102B7C00E76AF1EE10FA98BF43F00103FFF7A7B92B
:102B8C00FFEE007AF4EEE75AF1EE10FA98BF43F03C
:102B9C000103FFF793B9FFEE007AB4EEE75AF1EEBA
:102BAC0010FA98BF43F00103FFF77FB9FFEE007AEC
:102BBC00F4EEE74AF1EE10FA98BF43F00103FFF789
:102BCC006BB99FED117A029AF4EEC7AAFFEE007A68
:102BDC00F1EE10FAB4EEE74AACBF01230023F1EE9C
:102BEC0010FA98BF43F001031343FFF74CB9F1EE11
:102BFC0040AAFFF7E1B800BF20060020001000E05B
:102C0C000AD7A33C0000024072F97F3F0000484302
:102C1C00000000000000802FD7EDA46AD7EDA57A44
:102C2C0097EDA66A77EEE67AB5EE007A67EE867ACD
:102C3C0077EEA67AF4EEC77AF1EE10FAC7EDA47A25
:102C4C0008D4B1EE007AF4EEC77AF1EE10FAD8BFE0
:102C5C00B0EE677A87ED527AFEF740FC97EDA43A16
:102C6C0033EE493AB0EE402AB5EEC03AF1EE10FA26
:102C7C0001D5B1EE433AD7F834B05FED1C7A3B6B1B
:102C8C00BBF1000FB8BF002323EE273A07EE903AB2
:102C9C00B4EEC93AF8EE672A5FED227AB8BF4FF06E
:102CAC00000BF1EE10FA62EEA72A40F39D841FEDA3
:102CBC00280AB7EE003AD6F86828D6F86C18D6F879
:102CCC006438D7F838E0501E584538BF8346A1EB1E
:102CDC000B0B01EA020C0BEA020B03EB8C0C8CEDD8
:102CEC00002A0BF1FF3C0CEA020C03EB8B0B03EB01
:102CFC008C0C9BED007ADCED007AD7F83CC077EEBB
:102D0C00C77A38BFF0EE682A67EEA27ABCF1000FE2
:102D1C0077EE877AB8BF4FF0000C67EE837AB8BFB6
:102D2C004FF0000E77EE807A01F1010B6045CDED8E
:102D3C00047AC6F86CB8C0F0FF8307EE90EAB8EEE0
:102D4C00677A5FED4C7A27EE277AA1EB0C0C0CEA34
:102D5C00020C0CF1FF3E0EEA020E03EB8C0C03EBA3
:102D6C008E0EDCED006ADEED007AD7F844C0D7F8A1
:102D7C0040E077EEE67ABCF1000F67EE877AB8BFD9
:102D8C004FF0000C77EEA67AB8BF4FF0000E67EE4E
:102D9C00837A604577EE807ACDED057AC0F0C883F2
:102DAC0007EE90EAB8EE677A5FED667A27EE277A3F
:102DBC00A1EB0C0C0CEA020C0CF1FF3E0EEA020E1D
:102DCC0003EB8C0C03EB8E0EDCED006ADEED007A6F
:102DDC00D7F84CC0D7F848E077EEE67ABCF1000F94
:102DEC0067EE877AB8BF4FF0000C77EEA67AB8BFC3
:102DFC004FF0000E67EE837A604577EE807ACDED6A
:102E0C00067AC0F0918307EE90EAB8EE677A5FED30
:102E1C007F7A27EE277AA1EB0C0C0CEA020C0CF152
:102E2C00FF3E0EEA020E03EB8C0C03EB8E0EDCED78
:102E3C00006ADEED007AD7F854C0D7F850E077EE90
:102E4C00E67ABCF1000F67EE877AB8BF4FF0000C42
:102E5C0077EEA67AB8BF4FF0000E67EE837A604526
:102E6C0077EE807ACDED077AC0F05A8307EE90EAC0
:102E7C00B8EE677A5FED997A27EE277AA1EB0C0C06
:102E8C000CEA020C0CF1FF3E0EEA020E03EB8C0C6A
:102E9C0003EB8E0EDCED006ADEED007AD7F85CC039
:102EAC00D7F858E077EEE67ABCF1000F67EE877A38
:102EBC00B8BF4FF0000C77EEA67AB8BF4FF0000EFB
:102ECC0067EE837A604577EE807ACDED087AC0F0B4
:102EDC00238307EE90EAB8EE677A5FEDB27A27EEBD
:102EEC00277AA1EB0C0C0CEA020C0CF1FF3E0EEA5B
:102EFC00020E03EB8C0C03EB8E0EDCED006ADEEDA8
:102F0C00007AD7F864C0D7F860E077EEE67ABCF1C7
:102F1C00000F67EE877AB8BF4FF0000C77EEA67AF9
:102F2C00B8BF4FF0000E67EE837A604577EE807A7B
:102F3C00CDED097AC0F0EC8207EE90EAB8EE677A34
:102F4C005FEDCC7A27EE277AA1EB0C0C0CEA020C85
:102F5C000CF1FF3E0EEA020E03EB8C0C03EB8E0E13
:102F6C00DCED006ADEED007A77EEE67AD7E91AEC52
:102F7C0067EE877ABCF1000F77EEA67A67EE837A5C
:102F8C0077EE807ACDED0A7AC0F22A836045C0F0E4
:102F9C00BC8207EE90EAB8EE677A5FEDE27A27EE34
:102FAC00277A6046091A1140481E024003EB810142
:102FBC0003EB8203D1ED006AD3ED007A77EEE67A6B
:102FCC0067EE877A77EEA67A67EE837A77EE807A69
:102FDC00CDED0B7AFEF74EBFFEEE083AB4EEE34AA7
:102FEC00F1EE10FA11D5F6EE082AB1EE444A34EEA1
:102FFC00624AF1EE003A64EE233A73EEA83A84EE9C
:10300C00233A33EE224AB1EE444AFFEE003AF4EE94
:10301C00C43A9FED3C3AF1EE10FAD8BFF0EE443AC8
:10302C0063EE833ABDEEE34A14EE103A23F07F438D
:10303C00FFF78ABBFFEE003AF4EEE37AF1EE10FAFA
:10304C0098BF43F001030293FFF755BBFFEE007AE4
:10305C00B4EEE77AF1EE10FA98BF43F00103FFF7F4
:10306C0040BBFFEE007AF4EEE76AF1EE10FA98BF7F
:10307C0043F00103FFF72CBBFFEE007AB4EEE76AD6
:10308C00F1EE10FA98BF43F00103FFF718BBFFEE07
:10309C00007AF4EEE75AF1EE10FA98BF43F0010310
:1030AC00FFF704BBFFEE007AB4EEE75AF1EE10FA2C
:1030BC0098BF43F00103FFF7F0BAFFEE007AF4EE8D
:1030CC00E74AF1EE10FA98BF43F00103FFF7DCBAC0
:1030DC009FED0D7A029AB4EEC7AAFFEE007AF1EEDC
:1030EC0010FAB4EEE74AACBF01230023F1EE10FA5C
:1030FC0098BF43F001031343FFF7BDBAB1EE40AAEA
:10310C00FFF759BAFEFFFF4A72F97F3F00004843B0
:10311C000000802F00000000D7EDA46AD7EDA57A3F
:10312C0097EDA66A77EEE67AB5EE007A67EE867AC8
:10313C0077EEA67AF4EEC77AF1EE10FAC7EDA47A20
:10314C0008D4B1EE007AF4EEC77AF1EE10FAD8BFDB
:10315C00B0EE677A87ED527AFEF7C0F997EDA43A94
:10316C0033EE683AB0EE402AB5EEC03AF1EE10FA02
:10317C0001D5B1EE433AD7F834B05FED1C7A3B6B16
:10318C00BBF1000FB8BF002323EE273A07EE903AAD
:10319C00B4EEE83AF8EE672A5FED237AB8BF4FF049
:1031AC00000BF1EE10FA62EEA72A40F30B821FED32
:1031BC00270AB7EE003AD6F86828D6F86C18D6F875
:1031CC006438D7F838E0501E584538BF8346A1EB19
:1031DC000B0B01EA020C0BEA020B03EB8C0C8CEDD3
:1031EC00002A0BF1FF3C0CEA020C03EB8B0B03EBFC
:1031FC008C0C9BED007ADCED007AD7F83CC077EEB6
:10320C00C77A38BFF0EE6A2A67EEA27ABCF1000FDB
:10321C0077EE877AB8BF4FF0000C67EE837AB8BFB1
:10322C004FF0000E77EE807A01F1010B6045CDED89
:10323C00047AC6F86CB8C0F0618107EE90EAB8EE7B
:10324C00677A5FED4D7A27EE277AA1EB0C0C0CEA2E
:10325C00020C0CF1FF3E0EEA020E03EB8C0C03EB9E
:10326C008E0EDCED006ADEED007AD7F844C0D7F89C
:10327C0040E077EEE67ABCF1000F67EE877AB8BFD4
:10328C004FF0000C77EEA67AB8BF4FF0000E67EE49
:10329C00837A604577EE807ACDED057AC0F02A818D
:1032AC0007EE90EAB8EE677A5FED677A27EE277A39
:1032BC00A1EB0C0C0CEA020C0CF1FF3E0EEA020E18
:1032CC0003EB8C0C03EB8E0EDCED006ADEED007A6A
:1032DC00D7F84CC0D7F848E077EEE67ABCF1000F8F
:1032EC0067EE877AB8BF4FF0000C77EEA67AB8BFBE
:1032FC004FF0000E67EE837A604577EE807ACDED65
:10330C00067AC0F0F38007EE90EAB8EE677A5FEDCC
:10331C00807A27EE277AA1EB0C0C0CEA020C0CF14C
:10332C00FF3E0EEA020E03EB8C0C03EB8E0EDCED73
:10333C00006ADEED007AD7F854C0D7F850E077EE8B
:10334C00E67ABCF1000F67EE877AB8BF4FF0000C3D
:10335C0077EEA67AB8BF4FF0000E67EE837A604521
:10336C0077EE807ACDED077AC0F0BC8007EE90EA5C
:10337C00B8EE677A5FED9A7A27EE277AA1EB0C0C00
:10338C000CEA020C0CF1FF3E0EEA020E03EB8C0C65
:10339C0003EB8E0EDCED006ADEED007AD7F85CC034
:1033AC00D7F858E077EEE67ABCF1000F67EE877A33
:1033BC00B8BF4FF0000C77EEA67AB8BF4FF0000EF6
:1033CC0067EE837A604577EE807ACDED087AC0F0AF
:1033DC00858007EE90EAB8EE677A5FEDB37A27EE58
:1033EC00277AA1EB0C0C0CEA020C0CF1FF3E0EEA56
:1033FC00020E03EB8C0C03EB8E0EDCED006ADEEDA3
:10340C00007AD7F864C0D7F860E077EEE67ABCF1C2
:10341C00000F67EE877AB8BF4FF0000C77EEA67AF4
:10342C00B8BF4FF0000E67EE837A844577EE807A52
:10343C00CDED097A4ED807EE90EAB8EE677A5FEDDB
:10344C00CC7A27EE277AA1EB0C0C0CEA020C0CF1CF
:10345C00FF3E0EEA020E03EB8C0C03EB8E0EDCED42
:10346C00006ADEED007A77EEE67AD7E91AEC67EEC1
:10347C00877ABCF1000F77EEA67A67EE837A77EE47
:10348C00807ACDED0A7AC0F2998060453AD307EE86
:10349C0090EAB8EE677A5FEDE27A27EE277A60461B
:1034AC00091A1140481E024003EB810103EB820311
:1034BC00D1ED006AD3ED007A77EEE67A67EE877A83
:1034CC0077EEA67A67EE837A77EE807ACDED0B7A7B
:1034DC00FFF7C8B81FEDF17A8446B4E71FEDF37A15
:1034EC0084467EE79FED677A844647E79FED657AD1
:1034FC00844610E79FED637A8446D9E69FED617AA6
:10350C008446A2E69FED5F7ACAE79FED5E7A49E5B5
:10351C009FED5C7A844617E59FED5A7A8446E0E489
:10352C009FED587A8446A9E49FED567A844672E45E
:10353C009FED547A84463BE49FED527A844604E432
:10354C00D6F8B83803F2EE23C6F8D03996F8B4386A
:10355C00013386F8B438D6F8B828D6F8BC389A4275
:10356C00FEF4C7AED6F8B838D6F8D019464A8B4216
:10357C0034BF4FF4803301239361FEF7BABED6F803
:10358C00B83803F2EE23C6F8D03996F8B4380133C4
:10359C0086F8B438D6F8B828D6F8BC389A42FFF476
:1035AC00A7AAD6F8B838D6F8D019374A8B4234BF08
:1035BC004FF4803301239361FFF79ABA4FF0000E5A
:1035CC00F44664E7DFED317AB4EEE73AF1EE10FA47
:1035DC0078EEC31A17D4DFED2B7A21EEA70AEAE5B1
:1035EC004FF0000EF446D4E4DFED287AB4EEE73A5F
:1035FC00F1EE10FA79EE431A1ED4DFED227A21EEA9
:10360C00A70AFFF758BBD7E901125B46BBF1000FC5
:10361C0032D05945B0EE620A9CBFBBFBF1F301FB03
:10362C0013B3934288BF5218D21A38680123FCF79F
:10363C00B7FD20EE210ABEE5D7E901125B46BBF1CE
:10364C00000F13D05945B0EE620A9CBFBBFBF1F3DF
:10365C0001FB13B3934288BF5218D21A3868012366
:10366C00FCF79EFD20EE210AFFF725BB01299FEDFB
:10367C00050AF3D90123EDE701299FED020AD4D9FC
:10368C000123CEE7000000000000024077BE7F3F20
:10369C00704700BF054BD3F888204FF0006142F40F
:1036AC007002C3F888209960704700BF00ED00E0FD
:1036BC002DE98048414A424B9A42ADB016D2013BAB
:1036CC009B1A032B11460FD99B080133580802EBA8
:1036DC00C0050024C1E900440831A942FAD1B3EB7A
:1036EC00400F03D002EBC002002313604FF0E02127
:1036FC00344BD1F8FC2D002042F08072C1F8FC2D27
:10370C0058601A68304942F001021A600B682F4A5F
:10371C0043F480330B60D2F800389D03FBD52A4A62
:10372C002B49136C2B4843F080531364136C0B68B8
:10373C0040F2057443F440430B60046093682649DF
:10374C0023F47C4323F0F00343F41443936051605F
:10375C0013681E4943F080731360D1F800389C0144
:10376C00FBD5194B9A6822F0030242F002029A60D0
:10377C009C6804F00C04082CFAD1184AC3F8882071
:10378C00D3F88C20114922F4700222F4F85242F43E
:10379C00C062C3F88C201A6842F080521A60D1F8CB
:1037AC0000389800FBD5084B9A6802F00C02042AEA
:1037BC0018D0082A01F0D081094B14E00000001049
:1037CC00DC0A0010001000E000380240003002401B
:1037DC0000700040003C02400854400700560002B4
:1037EC000024F400BD4BBE4ABE499068C0F30310E0
:1037FC0001F5A07B085CC340BB480360136B43F02E
:10380C00FE031363136B01F110004FF0030A4FF02A
:10381C0002094FF001084FF00F0E4FF00C0C02682C
:10382C00037915685E000AFA06F725EA070509FA16
:10383C0006F635431560556808FA03F625EA0605C1
:10384C00556095683D439560D568072B25EA0705BB
:10385C00D56094BF0025012502EB850203F0070318
:10386C00156A9B000EFA03F6083025EA06050CFAD9
:10387C0003F32B4358451362D1D1994A936B43F010
:10388C0001039363994B926B994A4FF460501864FF
:10389C004FF4EA7058644FF483109864DA649A6DAC
:1038AC009206FCD409221A6544F61F6300BF1A461F
:1038BC00013B002AFAD18D4B9A6D9706FCD40A2253
:1038CC001A658A4B9A6D9606FCD4EB221A65874BC7
:1038DC009A6D9506FCD4874A1A654FF49F625A6517
:1038EC00824B9A6D9006FCD47D4A8348136BDFF8AB
:1038FC00509243F00A031363804B126B1A6822F444
:10390C0040121A60DA6822F4401242F48012DA6033
:10391C001A6822F440021A60DA6822F4400242F477
:10392C008002DA60026822F440020260C26822F46B
:10393C00400242F48002C260026822F040720260CF
:10394C00C26822F0407242F08072C2601A6822F49F
:10395C0040121A60DA6822F4401242F48012DA60E3
:10396C001A6822F440021A60DA6822F4400242F427
:10397C008002DA601B695A05614B4CBF9FED611ADE
:10398C009FED611AC9F800304FF4E012C9F8042019
:10399C00002003F5E00243F8040B9342FBD15B4B90
:1039AC00C9F8BC30C9F8C430594BC9F8B030594BC0
:1039BC00C9F81430584BC9F81830584BC9F81C309A
:1039CC00574BC9F82030574BC9F82430564BC9F81F
:1039DC002830564BC9F82C30554B564EC9F8C830C8
:1039EC00DFF860E1544BC9F8CC3000274FF07E5320
:1039FC0000220125C9F810600026C9E93522C9F852
:103A0C00C030C9F8E430C9F80431C9F80820C9F845
:103A1C00DC2089F8E020C9E90C67C9E90E67C9E91F
:103A2C001067C9E91267C9E91467C9E91667C9E9DA
:103A3C001867C9E91A6789ED2E1AC9F8B45089F8C4
:103A4C00D050C9F8E830C9E9502EDFF8ACC089F87D
:103A5C003051DCF81020C9F80831C9F8EC30C9F83D
:103A6C000C31C9F8F030C9F81031C9F8F430C9F884
:103A7C001431C9F8F830C9F81831C9F8FC30C9F854
:103A8C001C31C9F80031C9F82031C9F82831C9F8FE
:103A9C003431DCF81030C9F82C016FEA1333AB4029
:103AAC0003F0020325EAD22213434FF07858032B7C
:103ABC00C9F82481C9F8380101F0678001EB830152
:103ACC00D1F84031182B08BF00230C4AC9F83C31FF
:103ADC001369034A194F1B0536E000BF00127A0028
:103AEC00003802405460000800000020000100A0D3
:103AFC00610301010C600400000C02400004024050
:103B0C00000010D00080BB4700606A496F12833AF6
:103B1C00CAF249F100002042000070420000A042AD
:103B2C000000C8420000F04200000C43000020439B
:103B3C00CDCCCC3E0000A041CDCCCC3FC12012005E
:103B4C0000000010674523015CBFAD4BC9F828315C
:103B5C00136B43F002031363136C43F4804313643D
:103B6C00A84B116C196821F0406141F0006119609B
:103B7C00996841F000619960596A21F4700141F42F
:103B8C00A0015962196821F0405141F000511960AF
:103B9C00996841F000519960596A21F0706141F0C7
:103BAC00A0615962196821F0404141F0004119604F
:103BBC00996841F000419960596A21F0704141F0D7
:103BCC00A0415962196821F0407141F0807119606F
:103BDC004FF480558C499D6100204FF44D730B6060
:103BEC0048600B6843F040030B60536C43F4800354
:103BFC005364536C136B43F038031363136B834B95
:103C0C001D6825F0300545F020051D605D6825F028
:103C1C0004055D609D6845F030059D60DD6825F00C
:103C2C003005DD601D6A25F4706545F4C0651D62C4
:103C3C001D6825F4407545F400751D605D6825F020
:103C4C0010055D609D6845F440759D60DD6825F448
:103C5C004075DD601D6A25F4702545F4C0251D6294
:103C6C001D6825F4406545F400651D605D6825F010
:103C7C0020055D609D6845F440659D60DD6825F418
:103C8C004065DD601D6A25F4700501F5EA3145F4E7
:103C9C00C0051D620B685E4D23F4405343F4005382
:103CAC000B604B6823F040034B608B6843F440532C
:103CBC008B60CB6823F44053CB600B6A23F07063AA
:103CCC0043F0C0630B622968524B21F4405141F41C
:103CDC0000512960696821F040016960A96841F4CC
:103CEC004051A960E96821F44051E960296A21F04A
:103CFC00706141F0C061296201265F60464D474901
:103D0C009E6007F20147DD6019615F629E62DD62B1
:103D1C001963136B43F480031363136B404B98626A
:103D2C009A6A12F00102FBD13E491963DFF818B10F
:103D3C003D49C3F834B04FF48070D8629962C3F82F
:103D4C008820374AD2F8883013F001030093F9D158
:103D5C003649C2F890103649C2F89410354B3649A2
:103D6C004FF48070C2F88C00C2F88810102183F8D0
:103D7C0039134FF000715960936A43F00103936259
:103D8C00D2F8883043F00103C2F88830214B2B4A1B
:103D9C00596A41F480315962596841F48031596053
:103DAC00136B43F001031363136B254B1A6822F05A
:103DBC00300242F010021A605A684FF4802122F04F
:103DCC0004025A609961009B0A930A9B1D4A934214
:103DDC0005DC0A9B01330A930A9B9342F9DD184BCD
:103DEC001A6822F0300242F010021A605A6804215C
:103DFC0022F004025A60996100230993099B25E083
:103E0C007D99D63E0004024000380040001002406C
:103E1C000014024000580140FF0F06008007FF000D
:103E2C0000640240205801401855030040580140DE
:103E3C002004002000E100E040550300003802405F
:103E4C0000000240DF93040020000020914A9342BE
:103E5C0005DC099B01330993099B9342F9DD8E4ADA
:103E6C008E4B116B41F002011163116B196821F437
:103E7C00403141F400311960596841F48071596046
:103E8C00996841F480319960D96821F4403141F44A
:103E9C008031D960596A21F00F0141F00401596257
:103EAC00196821F4402141F400211960596841F44A
:103EBC0000715960996841F480219960D96821F4A6
:103ECC00402141F48021D960596A21F0F00141F080
:103EDC0040015962136C43F400131364136C704B60
:103EEC004FF400421A6000212A2219605A60D22233
:103EFC00DA6101252B221A624FF6FF361D60084647
:103F0C00684A01E0013A02D09F69BF07FAD41F68E2
:103F1C00644A47F480771F6001E0013A02D05F6980
:103F2C00FF07FAD55A69D20740F132864A00D2B25D
:103F3C005D4F1A6105E0520500F13586013F00F036
:103F4C0039865A6912F0020FF5D09A691A684F092E
:103F5C000BEB870742F400721A60D7F804C801F023
:103F6C001F0205FA02F242EA0C02C7F80428089074
:103F7C00089AB2F5FA6F06DA089A01320892089A92
:103F8C00B2F5FA6FF8DB01318029B9D1474BCBF888
:103F9C0014387F210220FDF7E9FCF02105460320AF
:103FAC00FDF7E4FC362105430420FDF7DFFCFF217F
:103FBC0005430720FDF7DAFC002105430220FDF73D
:103FCC00D5FC102105430620FDF7D0FC002105434C
:103FDC000720FDF7CBFC364B314A05435D60354D70
:103FEC00354B08464FF0920C9327EE26116815F8C6
:103FFC0001EB41F48071116080462B4902E00139DC
:10400C0000F0E585D3F81404C007F8D52649C2F8AA
:10401C0010C002E0013900F0DC85D3F814048007ED
:10402C00F8D59169204902E0013900F0D085D3F828
:10403C0014040006F8D5C2F810E01B49C64602E08D
:10404C00013900F0BD85D3F814044007F8D5116888
:10405C0041F480711160144902E0013900F0B0851F
:10406C00D3F81404C007F8D51761116821F48061E6
:10407C0011600D4902E0013900F0B585D3F8140444
:10408C008007F8D59169116841F4007111600649F7
:10409C0017E000BFDF930400003802400004024028
:1040AC0000540040410D0300400D0300EEFFC00022
:1040BC0000000020A061000800500040013900F011
:1040CC007F85D3F814044006F8D57046D2F810E07A
:1040DC00116841F4806111600BEB000181F818E864
:1040EC0001300A2882D1B64AB64B116BB64D41F05D
:1040FC0001011163116B196821F4407141F4807155
:10410C001960196821F4406141F4806119601968E3
:10411C00102721F44051202019609F619861116B88
:10412C0041F003011163116B196821F0030141F097
:10413C00010119604FF480319961196821F00C016B
:10414C0041F00401196002219961196821F4404180
:10415C0041F48041196080219961196821F4403142
:10416C0041F4803119604FF480719961196821F420
:10417C00400141F48001196000264FF400619961FF
:10418C00ABF824688BF82A68ABF82868296821F00A
:10419C000F0141F0050129604FF44031A961116B09
:1041AC0041F005011163116B196821F4407141F460
:1041BC0080711960196821F4406141F480611960C3
:1041CC00196821F0404141F080411960196805F5EA
:1041DC00806521F440511960296821F4401141F4A3
:1041EC0080112960296821F0407141F080712960AB
:1041FC004FF0806C4FF000419F619861C5F818C07A
:10420C009961136B43F004031363136B2B6823F056
:10421C000C032B60EB6823F00C0343F00403EB60FE
:10422C002B6823F030032B60EB6823F030033B4307
:10423C00EB602B6823F0C0032B60EB6823F0C0030A
:10424C0043F04003EB602B6823F440732B60EB6866
:10425C0023F4407343F48073EB602B6823F44063C6
:10426C002B60EB6823F4406343F48063EB602B68B2
:10427C0023F440532B60EB6823F4405343F48053F6
:10428C00EB60B046B246A4F1080707EB071007EB4A
:10429C00001000EB0030FDF7CFFB00230793079BCA
:1042AC000B2B05DC079B01330793079B0B2BF9DDCD
:1042BC0000230693069B0B2B05DC069B0133069310
:1042CC00069B0B2BF9DD0122296902FA07F74AEA52
:1042DC00070311F0200F9BB208BF9A4602FA04F3B1
:1042EC0014444AEA030211F0400F92B208BF9246FE
:1042FC0048EA070211F0080F92B208BF904648EA4C
:10430C000300374311F0100F80B2BAB208BF8046D9
:10431C0011F0020F08BF1646334311F0040F9BB285
:10432C0008BF1E46102CAED12848FDF785FB244B48
:10433C00ABF832A8ABF83488ABF836685A6C244921
:10434C0042F480625A641A6B42F020021A635B6C6E
:10435C000B68204A43F440330B60A1F571414B6864
:10436C0023F4403343F480334B6000230621536025
:10437C00D36251634FF4E0111161012191600B93F1
:10438C000B9B42F20F72934205DC0B9B01330B9398
:10439C000B9B9342F9DD0A4A0B49136B0E48DFF86D
:1043AC0040C00E4F43F00F031363136BCB6823F421
:1043BC007003CB60C3686FF38D03C36012E000BF62
:1043CC00003802400000024000040240777777007A
:1043DC00001402400022014000080240FFFF0300CD
:1043EC003480373AD1F80C3823F07073C1F80C389C
:1043FC00A1F580610025C868C54B20F04040C8601D
:10440C00506C40F010005064526C0A68C14822F4A1
:10441C00701242F420120A604A6A22F47F6242F45B
:10442C00EE624A62BC4AC9F84C214FF08742002127
:10443C00C9F8502140F2D92E4FF07E52C9F84821CC
:10444C00C9F86021C9F86421C9F85411C9F8581188
:10445C00C9F85C114FF0FF34C9F88C524FF000468C
:10446C00C0F808E042F20C0EC0F80CE0C9F8682164
:10447C00C9F86C11C9F88842C9E99C66C9F8902240
:10448C00C9F89422C9F898C2CBF86878C9F8785260
:10449C00C9F88452C9F87C42C9F88042CBF8643818
:1044AC0003F5801243F8041B9A42FBD10023CBF88E
:1044BC006C384FF48073ABF87C380123DFF888E25A
:1044CC0002939BF88038DFED958A9FED958A9FEDDE
:1044DC00950A9FED952ADFED952ADFED950ADFED24
:1044EC00951A009DF6EE007AB0EE677ACEED007A62
:1044FC00CEED017ACEED027A4FF0FF0A002B40F0A0
:10450C00708215F0030300F0818315F03F0340F037
:10451C006182894A4FF4801191611193119B0B2B8D
:10452C0005DC119B01331193119B0B2BF9DD824B95
:10453C0010229A6100231093109B0B2B05DC109B0F
:10454C0001331093109B0B2BF9DD00237A480D21BE
:10455C004FF400171C46202687610E940E9A0B2AE6
:10456C0005DC0E9A01320E920E9A0B2AF9DD0269C5
:10457C0086610F9412F0400F4FEA43030F9A9BB2DF
:10458C0018BF43F001030B2A05DC0F9A01320F927E
:10459C000F9A0B2AF9DD0139DED1674A4FF400116D
:1045AC009161990743BFC3F3800484F00104E4B222
:1045BC00022413F0080F0CBF022201221F060092E6
:1045CC00C3F3001640F1C086C3F3002181F0010152
:1045DC004900C9B213F4806200F0658613F4007FC1
:1045EC0014BF012202220192544FD9ED2E7A386960
:1045FC006FEAD32242EA902202F001003A69D7F81E
:10460C001080009FABF82C388BF848488BF8497811
:10461C008BF84A188BF88068494E019F37736FEA04
:10462C00133646EAD22202F001028BF84B088BF8C3
:10463C004C284EED047A002840F0E885002A00F062
:10464C001C879BF82528002A01F003804FF4807208
:10465C000129ABF8242800F0E387064684469BF832
:10466C009078012F00F08286022F00F06887002FCF
:10467C0000F03986D9F80820002E41F0C6832E4E62
:10468C0099F8D0104FF0020CC6F818C04FF4000C7B
:10469C00C6F818C0012900F04B86DBF894689642E6
:1046AC0000F213879BF89868CBF89428002E00F042
:1046BC001687013EF6B2204A8BF898684FF0807C42
:1046CC00C2F818C08BF84E788BF84F18DEED107AC4
:1046DC009FED1C6ADFED1E6A67EE867ADB43F4EE13
:1046EC00E67AF1EE10FA03F0010800F3F885FCEE1F
:1046FC00E77A17EE903A8BF850388BF85868DEED65
:10470C000B7A9FED126ADFED126A67EE867A23E070
:10471C00000000D0001001400000B44517B7D1389C
:10472C0095BFD6330AD7233C000000005F70893058
:10473C00CAF249F18FC2753D0000024000180240D8
:10474C00000000200000C8429008002000007A44BD
:10475C0000007F43C0FE8B49F4EEE67AF1EE10FACE
:10476C0000F3BA85FCEEE77A17EE903A8BF85138E5
:10477C00DEED0C7A1FED0B6A5FED0B6A67EE867A45
:10478C00F4EEE67AF1EE10FA00F3A385FCEEE77A8C
:10479C0017EE903A8BF852389BF8B4388BF85338A4
:1047AC00BBF8B638ABF85638DBF8B828DBF8BC38B1
:1047BC009A42C0F01C869BF8C03843B19BF8C138B4
:1047CC00009A934200F0478700238BF8C038DDE94C
:1047DC000023029942EA031C61451CD007EE902A83
:1047EC00F8EE677A67EE817A3BB1012B0CBFF6EEDF
:1047FC00006AF5EE006A67EEA67A5FED2A6AF4EEBF
:10480C00E76AF1EE10FAD8BFF0EE667A0123C9ED33
:10481C002E7AC9F8B430B8F1000F40F04785A245A4
:10482C0000F0E1854FEA841808F1006303F540437A
:10483C00C5491A688A4240F07486DA88022A40F028
:10484C0070861989282900F26C860A1DCDE903515E
:10485C0092B29F88029203F1050A4FF6FF7241F261
:10486C00210651461AF8015F82EA0522550012040E
:10487C0048BF75406A002D0448BF724055001204B1
:10488C0048BF75406A002D0448BF724055001204A1
:10489C0048BF75406A002D0448BF72405500120491
:1048AC0048BF75406A0092B22D04A1F1040502992B
:1048BC0048BF7240A5EB030548BF92B28D42D0D3DE
:1048CC009742DDE9035140F02C86002900F029863F
:1048DC004A1E052A41F201839C4A6A44A2EB080253
:1048EC00022A41F2FA829A4A8E0858F802701C97F2
:1048FC00012E424401F0EA8257681D97022E00F007
:10490C00F38597681E97032E00F0EE85D7681F97E6
:10491C00042E00F0E98517692097052E00F0E48538
:10492C0057692197062E00F0DF8597692297072E8D
:10493C0000F0DA85D7692397082E00F0D585176A21
:10494C0024970A2E40F0D085536A2593009B8BF850
:10495C00C138019B8BF8C238249BCEF80030CEF8BE
:10496C0004300123ABF87C388BF8C0389DF89430B8
:10497C008BF8C3389DF896308BF8C438DDED1C6A83
:10498C00DDED1D7ADDF878801F9F209E2199229AFB
:10499C00239B8EED022AA2464FF0FF0CC9F82C3057
:1049AC000123C9ED046AC9ED057AC9F81880C9F864
:1049BC001C70C9F82060C9F82410C9F82820CDF85B
:1049CC0008C0C9F8B430002840F0EE82CBF8C80813
:1049DC008BF8CC08013530BF9BF88038002B3FF4A6
:1049EC0090ADD9F88832002BBFF68BADD9ED527A49
:1049FC00F7EE006A76EEE76AF5EEC06AF1EE10FAB1
:104A0C0000F1E886F0EE667AF4EEE87AF1EE10FA50
:104A1C003FF577ADD9ED535AD9ED557A86EEA56AA7
:104A2C00B5EEC06AF1EE10FA41F3A481B6EE005A6D
:104A3C00F4EEC57AF7EE006AF1EE10FA76EEE76A5C
:104A4C0001D4B7EE085A75EE677AF4EEE76AF1EE28
:104A5C0010FAF4EEE67A94BF01230023F1EE10FA7B
:104A6C00B8BFF0EE676AF4EEE16A83F00108F1EE8C
:104A7C0010FAC9F88C823FF744ADF2EE007A26EEBC
:104A8C00276AB4EEE66AF1EE10FA3FF73AAD99ED0B
:104A9C00546AF0EE467AF6EE006A25EEA64AD9E99B
:104AAC00012409EB830334EE274AD3ED566ADFED7C
:104ABC00297AD9F8000034EE264A1719002114E09F
:104ACC0003F1010C62452ED916ED015A35EE665AEA
:104ADC0065EE255A75EEA66A66EEA66A0231B1F548
:104AEC00407F77EEA67A00F0798606EE901AF8EE03
:104AFC00E66A76EE846AFCEEE65A15EE903A93423C
:104B0C0024BFB3FBF2F602FB16339C422CBFE31A14
:104B1C00FB1AF8EE655A00EB8306012B76EEE55A8C
:104B2C00D6ED006ACCD8013B00F13C829A4298BF8A
:104B3C009B1A00EB830393ED005A35EE665A65EE33
:104B4C00255A75EEA66AC7E7723838326540FFF70A
:104B5C000AC000080000000059685A685B684902E6
:104B6C00C3F388134CBF2549254902F03F02B1FB22
:104B7C00F2F202FB03F3234A5268C2F30142013200
:104B8C005200B3FBF2F3FEF72EBE0423FEF79DBFDB
:104B9C001A6842F400721A60DBF800280132CBF874
:104BAC000028FFF7E4B95E611A6842F400721A60DB
:104BBC00FFF7DDB91A6842F400721A60FFF7D7B933
:104BCC0070460BEB000181F81868FFF789BA404674
:104BDC00F7E7DFF834E0DEF8001041F400714046EE
:104BEC00CEF80010EDE77046DFF81CE0DEF80010A0
:104BFC0041F40071CEF80010E3E700BF00127A0018
:104C0C000024F4000038024000540040AF4AD16840
:104C1C009268AF4A4FF0805191610D930D9B272BF9
:104C2C0005DC0D9B01330D930D9B272BF9DDA74A5A
:104C3C0093689F07FCD501231373A44A9368DE077E
:104C4C00FCD5137BA14A8BF8843893689C07FCD560
:104C5C00A02313739D4A9368D807FCD5137B9B4AFA
:104C6C008BF8853893689907FCD500231373974A02
:104C7C009368DB07FCD5137B944A8BF886389368D2
:104C8C0013F08003FBD1924A4FF4805191610C9345
:104C9C000C9B272B05DC0C9B01330C930C9B272BBB
:104CAC00F9DD8A4BDA689B68894B4FF080529A6128
:104CBC0000230D930D9B272B05DC0D9B01330D93CE
:104CCC000D9B272BF9DD814A93689F07FCD50123A7
:104CDC0013737E4A9368DE07FCD5137B7B4A8BF8F3
:104CEC00873893689C07FCD5E0231373774A936845
:104CFC00D807FCD5137B754A8BF8883893689907CD
:104D0C00FCD500231373714A9368DB07FCD5137B26
:104D1C006E4A8BF88938916811F08001FBD16C4B8D
:104D2C004FF480529A610C910C9B272B05DC0C9B49
:104D3C0001330C930C9B272BF9DD9BF885389BF8E2
:104D4C0086281B0203F47063134306EE903A9BF81B
:104D5C0088389BF889281B0203F47063134300F016
:104D6C00BC8340F23622934241F3A88040F2815238
:104D7C00934241F3D48040F60602934241F3C4803F
:104D8C0040F64B22934241F3D38040F601529342BA
:104D9C0041F3B18040F6FF72934241F069801C46AA
:104DAC0019464C48826842F080428260026896073D
:104DBC00FCD5C26C48489FED496A90ED025ADFED74
:104DCC00485ADFED484AC2F30B0207EE902AF8EE80
:104DDC00677A77EEC57A67EE867A77EE857A77EE24
:104DEC00E55AC0ED027AFCEEE77A65EEA45A17EEAE
:104DFC00902AABF838289BF88028002A00F0D8823B
:104E0C0007EE903A9FED385AF8EEE77AB7EE006A63
:104E1C0067EE857AF4EEC67AF1EE10FA40F351841F
:104E2C00F0EE467A2C4B9FED315A1B7BDFED304A6E
:104E3C00022B18BFB0EE615A67EE857AF4EEE45A95
:104E4C00B7EE006AF1EE10FA36EE676A40F31A8498
:104E5C00DFED227AF4EEE75AF1EE10FA40F13D84E0
:104E6C00DEED077AF5EEC07AF1EE10FA09DD9EED73
:104E7C00076AF5EE007AB4EEE76AF1EE10FA00F18B
:104E8C001C84F1EE007AB4EEE76AF1EE10FAD8BFAA
:104E9C00F0EE467AD9F88022C9EDA57A002A3CDBDF
:104EAC000D4B1B69934238D04FF0FF33C9F87C325D
:104EBC00032A10491346A8BF032303EB431301EB4A
:104ECC0083130021C9F8781216E000BF00380040A7
:104EDC00000402400022014000000020CDCC4C3DDB
:104EEC0000E0FF440210003A021080398FC2753E78
:104EFC00CDCC4CBDAC610008B749043B53F8040F52
:104F0C0041F8040BB5488142F8D1A0F50463C9F807
:104F1C007832B34BC9F87C221A61F0EE427A77EE04
:104F2C00C77A9FEDB06A9BF87C3867EE867A37EECD
:104F3C00277A002B00F0C182DEED017A37EE676A2A
:104F4C00B5EEC06AF1EE10FA00F18282DFEDA65ADE
:104F5C00B4EEE56AF1EE10FA00F182829BF87D382E
:104F6C00002B40F03C86B4EEE77AF1EE10FA05D84F
:104F7C00B4EE677AF1EE10FA00F0728201238EED36
:104F8C00027A8BF87D38CEED007A954BC3ED057A1D
:104F9C0016EE903AABF82E38ABF830480EED057A99
:104FAC00FFF7B3BA1344C4E5DBF8C8389BF8CC2838
:104FBC00002B40F05E82DBF8B838002B40F05783B2
:104FCC000123CBF8C838002A7FF404AD0346DBF884
:104FDC00B828D31A41F2707293427FF6FBAC009B57
:104FEC008DF86C30019B8DF86E30804B1C93002338
:104FFC008DF86D308DF86F30D9F81030CDF87A30DF
:10500C00D9F81430CDF87E30D9F81830CDF882307C
:10501C00D9F81C30CDF88630D9F82030CDF88A304C
:10502C00D9F82430CDF88E30D9F82830CDF892301C
:10503C00D9F82C30CDF89630694B5B69CDF89A30A5
:10504C006B4BCDF876301B9BCDF89E3001238BF843
:10505C00CC380DF175004FF6FF7341F2210110F8B9
:10506C00012F83EA02235A001E0448BF4A40530012
:10507C00120448BF4B405A001B0448BF4A4053001F
:10508C00170448BF4B405A001E0448BF4A40530007
:10509C00120448BF4B405A001F0448BF4A40160434
:1050AC004FEA42030DF1A10248BF4B409042D6D1CA
:1050BC005049ADF87430504BC91A013BCA5C03F827
:1050CC00012F4E4A9342F9D1A301A2F1FF01474AA5
:1050DC00CA5001EB84141D9A62601E9AA2601F9A3A
:1050EC00E260209A2261219A6261229AA261239A3B
:1050FC00E261249A2262259A6262269AA262279A17
:10510C00E2620E4603F1320003F13002BDF8A0401A
:10511C00B45201443E334FF0FF3232504A608A6041
:10512C00F252374B1A69002A04DA364A5A6002F1F5
:10513C0088325A60324AD368D803FCD4F323D36044
:10514C00136923F47E7323F0020343F4067343F0D4
:10515C0002031361136943F480331361284AD36843
:10516C00D903FCD41369284C23F0FA031361136997
:10517C0023F4407323F0010343F4007343F0010361
:10518C0013611D4B1E4AE41A191F03F1FC06631828
:10519C0051F8040F1860D368DB03FCD48E42F6D1AF
:1051AC0013690F4923F001031361136943F00043A2
:1051BC0013619BF84D3801338BF84D38DBF8B83858
:1051CC0003F6B833CBF8BC38DBF8B8288B695340FE
:1051DC008B61FFF7FFBB00BF9C020010DC0A0010C4
:1051EC00000000200AD7233D0AD7A33C723838327E
:1051FC000200280001C00008F0080020EF09002080
:10520C00003C02402301674504C000089BF8247849
:10521C00B7FA87F67609002A00F099809BF825C822
:10522C00BCF1000F40F093804FF0010C61458BF8FE
:10523C0024088BF825C87FF412AAFCEEE77AD9F87B
:10524C00046017EE902A022A38BF0222311F8A42CC
:10525C0028BF0A46D9F808108A428ABF76188A1ADB
:10526C00B21AC9E936210221C9F8082089F8D010F0
:10527C00BB4ED9F8082002274FF0030C8BF890C8CE
:10528C00B7614FF40007B761DBF89468964200F2FF
:10529C001B819BF89868CBF89428002E00F04E8563
:1052AC006746FFF706BA0192FFF79EB9BAF1FE0FF7
:1052BC0000F09980AB4BAC4AAC49AD4EAD4FDFF82A
:1052CC00D082DFEDAD7AF3EE046A4FF0FE0AFFF701
:1052DC0065BBFF23FFF75EBAFF23FFF747BAFF2337
:1052EC00FFF709BA064699F8D070D9F80820012FB3
:1052FC0040F03485DEED0B7ADFEDA06AF4EEE67A51
:10530C00F1EE10FA40F1408201278BF8A4780229C3
:10531C0000F0478208F48051314340F042820F463E
:10532C008F4902268E6180268E614FF080768E61C9
:10533C009BF89868CBF89428002E00F0CB80013EA7
:10534C00F6B20121FFF7B7B90121FFF743B98BF88A
:10535C002528012291428BF8242800F05E819BF8CD
:10536C009078012F4FF0000C7FF47EA9D9F808102B
:10537C00DBF8A8289142C0F0E984BCF1000F40F0A2
:10538C00AE848F1AFCEEE77A17EE902ABA4240F2FE
:10539C009A849BF89078002E00F080840126CBF83C
:1053AC00A818C9F8D4100A4689F8D0606C4947E1AE
:1053BC00DFED737AF4EEE75AF1EE10FA71DDF4EEEC
:1053CC00C65AF1EE10FA6CD50B4640F6FF729342BA
:1053DC00A8BF134607EE903A9FED6A6AF8EEE77A9B
:1053EC0067EE867A9BE5CDF808C0FFF7ECBA664A03
:1053FC00936983EA433383EA534383EA431313F0F9
:10540C00010108BF4FF4803113F0020F936118BFF4
:10541C000227534A08BF4FF4003713F0040F14BF90
:10542C0080264FF4000613F0080F916114BF4FF45F
:10543C0080714FF0807113F0100F14BF4FF40063A4
:10544C004FF000639761966191619361FFF7B3B977
:10545C00DFED4E5AB4EEE56AF1EE10FA7FF77EAD51
:10546C004FF48073F0EE477A8EED027AABF87C380D
:10547C0089E5002A7FF4AEAAA9E50129ABF8240836
:10548C0000F0CE809BF89078012F00F0F783022F6C
:10549C0000F0AD84002F3FF425AFD9F80820FFF7BA
:1054AC00EEB8F8EEE67A67EEA57AFDEEE77A17EE3F
:1054BC00903A5B183FF531AD87E7F0EE477A8EED09
:1054CC00007A8EED027A60E56746CBF894280126C7
:1054DC00FFF7F1B80121FFF7F5B81C4661E4032F83
:1054EC007FF4F0A800F02ABCB1EB860F4FEA8602DD
:1054FC0017D09E18B77A0DEB020686F87070561C02
:10550C00B6B2B1420DD99F19023292B26E44BF7A33
:10551C0086F87070914204D913446A449B7A82F8DD
:10552C007030104B104A1149114E124FDFF8608049
:10553C00DFED117AA246F3EE046AFFF72FBA99F861
:10554C00D020012A26D1BCF1000F2DD1D9F808208A
:10555C00002E40F0408402494FF40036E2E600BFD2
:10556C00000002400000204300000C430000F04209
:10557C000000C8420000A042000020426F12033C11
:10558C00CDCC4CBD01088039000000200AD7A3BC4B
:10559C0000007042D9F80820C9F8D420012289F8FB
:1055AC00D020BCF1000FD1D0D9F80460DBF8A828CA
:1055BC00DBF8AC18B24224BFB2FBF6F706FB17229D
:1055CC00B14224BFB1FBF6F706FB17118A4200F07B
:1055DC003384D04EC9F80820C9E936214FF4003C79
:1055EC000221032789F8D0108BF89078C6F818C0E0
:1055FC004FF0800CC6F818C04FF0807CC6F818C06D
:10560C00DBF89468B242FFF460AF9BF89868CBF873
:10561C009428002E7FF44DA890E3002F00F0CE804C
:10562C009BF8902899F8D010032A00F0CF8001291C
:10563C0040F0C480D9F80820B64900278BF8907840
:10564C004FF400368E6180268E614FF480768E6129
:10565C006EE60646E8E59BF8C238019A93427FF461
:10566C00B3A89BF8C3289BF8C438FFF7B2B8DBF893
:10567C00B838CBF8C838002A7FF4ACA9002B3FF41B
:10568C00A9A9A4E49FEDA45ADFEDA44AF8EEE67AAA
:10569C0067EE857A9FEDA25A67EEA57A67EEA47A3B
:1056AC00F4EEC57AF1EE10FA23D8DEED077AF5EEBA
:1056BC00C07AF1EE10FA3FF7DAABF5EE007AFFF7AD
:1056CC00E9BB9FED986AF4EEC67AF1EE10FA7FF51D
:1056DC00A9ABF0EE427AFFF7A5BBF8EEE67ADFED68
:1056EC008E4A9FED8E5A67EEA47A67EEA57A67EE26
:1056FC00857ADFED8D5AF4EEE57AF1EE10FAB8BF4B
:10570C00F0EE675AFDEEE57A17EE903AF8EEE77A8E
:10571C0075EEE75AF5EEC05AF1EE10FA40F19382AD
:10572C00B7EE005A75EE855ADFED827ADFED824ACC
:10573C00DFED833A9FED814A65EEA77A7E3377EEF3
:10574C00A47ADFED804A67EEA57ADB0577EEA37AC3
:10575C0067EEA57A77EE847A67EEA57A77EEA47A6F
:10576C0067EEA57A05EE903A77EE857A67EEA57A24
:10577C0026EE276ADEED077AF5EEC07AF1EE10FA26
:10578C003FF775ABFFF775BB9BF8A478002F3FF480
:10579C00BEADDFED646AF4EEE67AF1EE10FA7FF757
:1057AC00B6AD01270021CBF8A828C9F8D42089F878
:1057BC00D0708BF890788BF8A418B1E5D9F8082044
:1057CC00C9F8D420012189F8D01035E701297FF4DC
:1057DC004FAD2FE7F1EE667AFFF716B9F4EEC87A03
:1057EC00F1EE10FA3EF58DAECDE9005A4FF0000CFB
:1057FC0067EE803AB0EE423A664606EE906ADFED0E
:10580C004C5AF8EEE64AB0EE655A74EE864A002120
:10581C0018E003F1010A524558D915ED019A39EEF9
:10582C00669A29EE299A79EE266A6AEE266A2AEE9B
:10583C000A9A0231B1F5407F35EE265A75EE895A37
:10584C0000F0828006EE901AF8EEE69A34EEA99AF1
:10585C00FCEEC96A16EE903A934224BFB3FBF2F504
:10586C0002FB15339C422CBFE31AFB1AF8EE666A56
:10587C0000EB8305012B79EE666A95ED00AA35D90C
:10588C0003F1010A524531D915ED019A39EE4A9AC4
:10589C0069EE266A36EE8AAA34EE299AFCEEC96ABB
:1058AC0016EE903A934224BFB3FBF2F502FB15338C
:1058BC009C42F8EE666A2CBFE31AFB1A00EB8305D8
:1058CC00012B79EE669AD5ED006AA2D8013B1DD466
:1058DC009A4298BF9B1A00EB830393ED009A39EE22
:1058EC00669A29EE299A79EE266A9EE7013B0FD437
:1058FC009A4298BF9B1A00EB830393ED009A39EE02
:10590C004A9A69EE266A36EE8AAAC5E71344E2E79C
:10591C001344F0E700000240010AA03A5555553FE8
:10592C000000FCC20AD7A33C0000FE42088FA1EF86
:10593C000000000020C2AE3A3C951D3CF0FD753EC7
:10594C004458633D1872313FF4EEE35AF1EE10FA0D
:10595C0015D4B5EEC05AF1EE10FA00F1CC80F0EE91
:10596C00456A65EE266A75EEA25A86EEA55AB4EE25
:10597C00C35AF1EE10FA02DDB0EE453AB4460436E5
:10598C00B6F5966F7FF439AFF5EE006A67EEA66A4E
:10599C00DDE9005AF4EEC36AF1EE10FA00F342812D
:1059AC0000F2FC821CAB00930CF104030193CDF8C4
:1059BC001480CDE9035A009BF0EE606AACF103064B
:1059CC00ACF1030804E0019901368E4200F0BC8072
:1059DC00B6F5966FE3EC010AF5D205EE906A5FED31
:1059EC002C9ACDF800C0B8EEE5AAB0EE699A3AEE62
:1059FC0006AA00253DE001F1010A524557D95CED9C
:105A0C00014A74EEEA4A24EE855A75EE2AAA74EE1F
:105A1C00255ABCEEE55A15EE101A914224BFB1FB83
:105A2C00F2FC02FB1C118C42B8EE455A2CBF611AD9
:105A3C00791A00EB810C012975EEC55A9CED005AC0
:105A4C0045D901F1010A524541D95CED014A74EE88
:105A5C00C54A64EEA55A35EE855A6AEE855A02356A
:105A6C002AEEAA5AB5F5407F39EE259A79EE859A39
:105A7C0044D005EE905AF8EEE55A7AEE254ABCEE83
:105A8C00E45A15EE101A914224BFB1FBF2FC02FB52
:105A9C001C118C422CBF611A791AB8EE455A00EBD6
:105AAC00810C012934EEC55ADCED00AAA3D80139CA
:105ABC001DD48A4298BF891A00EB8101D1ED004AAE
:105ACC0074EEEA4A24EE855A75EE2AAA9FE701394C
