:020000040800F2
:100000000000032089440008D9440008D9440008AE
:10001000D9440008D9440008D94400080000000071
:10002000000000000000000000000000D9440008AB
:10003000D944000800000000D9440008D944000851
:10004000D9440008D9440008D9440008D94400081C
:10005000D9440008D9440008D9440008D94400080C
:10006000D9440008D9440008D9440008D9440008FC
:10007000D9440008D9440008D9440008D9440008EC
:10008000D9440008D9440008D9440008D9440008DC
:10009000D9440008D9440008D9440008D9440008CC
:1000A000D9440008D9440008D9440008D9440008BC
:1000B000D9440008D9440008D9440008D9440008AC
:1000C000D9440008D9440008D9440008D94400089C
:1000D000D9440008D9440008D9440008D94400088C
:1000E000D9440008D9440008D9440008D94400087C
:1000F000D9440008D9440008D9440008D94400086C
:10010000D9440008D9440008D9440008D94400085B
:10011000D9440008D9440008D9440008D94400084B
:10012000D94400085D180008D9440008D9440008E3
:10013000D9440008D9440008D9440008D94400082B
:10014000D9440008D9440008D9440008D94400081B
:10015000D9440008D9440008D9440008D94400080B
:10016000D9440008D9440008D9440008D9440008FB
:10017000D9440008D9440008D94400080000000010
:10018000D9440008D9440008D9440008D9440008DB
:10019000D9440008D9440008D9440008D9440008CB
:0C01A000D9440008D9440008D9440008E4
:1001AC0065494A68B5EEC00A07EE902AF1EE10FADE
:1001BC00F8EE677A0DD530EE270AB5EEC00AF1EEEF
:1001CC0010FAF8D4B4EEE70AF1EE10FA06DB30EED2
:1001DC00670AB4EEE70AF1EE10FAF8DAFDEEC07A2F
:1001EC00096817EE903AF8EEE77A30EE670A0028C5
:1001FC0064D0581E1BD4824298BF801A01EB800039
:10020C009A4290ED004A74D901EB8300D0ED004A7C
:10021C00581C824298BF801A01EB800090ED007A46
:10022C0002339A42184618D81046181A15E0104492
:10023C0001EB800090ED004A002B6FD0981801EB79
:10024C008000D0ED004A581C65D0104401EB8000B2
:10025C00023390ED007AE4D0D01801EB800191EDDF
:10026C00006AF0EE047A76EE446A34EEC75A64EE15
:10027C00A77AF6EE005AB7EE083A77EE073A74EE24
:10028C00677A66EEA56A25EE035A77EEA37A26EE18
:10029C00256A76EE856A77EEC67A66EE806A37EE68
:1002AC00447A77EEA67A27EE257A67EE807A77EE97
:1002BC00877A27EE800A30EE240A7047834203F1D6
:1002CC00010C1DDB9A4298BF9B1A01EB830393ED43
:1002DC00007A6046824298BFACEB020001EB8000D2
:1002EC00D0ED007A77EEC77A27EE800A30EE070A57
:1002FC007047981A01EB8000D0ED004A581C88E733
:10030C00134401EB830393ED007ABCF1000FE1D0B1
:10031C0002EB0C00E2E752B108467FE7002A7FF4BB
:10032C0073AFD1ED004A91ED017A02237CE791ED98
:10033C00007A012379E700BF00000010274AD2EDB4
:10034C00027A5068F8EE677A07EE100A37EEC00AA8
:10035C00B8EE477AB5EEC00AF1EE10FA0DD530EED4
:10036C00070AB5EEC00AF1EE10FAF8D4B4EEC70ADB
:10037C00F1EE10FA06DB30EE470AB4EEC70AF1EEE6
:10038C0010FAF8DAFDEEC07A116817EE903AF8EE32
:10039C00E77A002B70EE677A03F1010215DB9842C5
:1003AC0098BF1B1A01EB830393ED000A904213468E
:1003BC0098BF131A01EB830191ED007A37EE407A66
:1003CC0067EE277A37EE800A7047034401EB83030C
:1003DC0093ED000A8318002AECD1E7E70000001027
:1003EC0000EB820C012A00B5DCED006A0ED902F19B
:1003FC00010E8E450AD21CED017A002B64D137EE2A
:10040C00667A27EE007A37EE260A00BDB2F1010CAF
:10041C0049D4614598BFACEB010C00EB8C0C9CED06
:10042C00007A002BEBD0531C994298BF5B1A00EB5F
:10043C008303012A93ED005AA2F1020342D09942A0
:10044C0098BF5B1A00EB8300D0ED005AB0EE046A43
:10045C0075EEC57A36EEC74A26EE866AF6EE004A87
:10046C00F7EE083A24EE234A67EEA47A77EE073AC1
:10047C0035EE466A77EE847A36EE236A65EEA45A38
:10048C0067EE807A36EE656A37EE457A77EE867AD5
:10049C0027EE247A67EE807A77EE877A67EE807A99
:1004AC0037EEA60A00BD8C4400EB8C0C9CED007A58
:1004BC00002BA4D0931E013237D50A4400EB8202E4
:1004CC0092ED005A0B44BDE7DCED014A5CED025A9B
:1004DC00B0EE046A75EEE47A36EEC74A26EE866A0A
:1004EC00B6EE005AF7EE083A24EE234A67EE857A08
:1004FC0077EE073A34EEC66A77EE847A36EE236AE4
:10050C0065EE855A67EE807A36EE656A37EE647A68
:10051C0077EE867A27EE057A67EE807A77EE877A21
:10052C0067EE807A37EEA60A00BD914298BF521A48
:10053C0000EB820292ED005A0B4483E72DE9F04F59
:10054C002DED028BF5EEC00AF1EE10FA8BB00546DC
:10055C0000F1D784F7EE007AF4EEE70AF1EE10FA28
:10056C00C8BFF0EE670AE14CD4ED326AD4ED337AB1
:10057C0094ED307AD4ED315A94ED2C6A77EEE67A1C
:10058C0067EEA07A77EEA67A77EEC77A67EEA57A51
:10059C0077EE877AB4EE676AF1EE10FAC4ED307A32
:1005AC0040F0F682D4F8B430002B40F0F182206F8A
:1005BC00216B676F666B94ED2F7A421A67EB06031B
:1005CC0052EA030C27D007EE902A9FEDC96AF8EE89
:1005DC00676A07EE903A66EE866AF8EEE77A77EE8F
:1005EC00A67A67EE877AFDEEE76AB8EEE66A16EE53
:1005FC0090CA77EEC67AB0EE676ABEEEE06A16EE87
:10060C00103ADA17DB184CEB420253EA020C40F0BA
:10061C004984C4E90C07A06FA16BE76FE66B421A23
:10062C0067EB060352EA030C27D007EE902A9FEDE6
:10063C00B06AF8EE676A07EE903A66EE866AF8EEF4
:10064C00E77A77EEA67A67EE877AFDEEE76AB8EE80
:10065C00E66A16EE90CA77EEC67AB0EE676ABEEE20
:10066C00E06A16EE103ADA17DB184CEB420253EA4A
:10067C00020C40F01084C4E90E07D4F88000216C01
:10068C00D4F88470666C421A67EB060352EA030CCA
:10069C0027D007EE902A9FED966AF8EE676A07EE70
:1006AC00903A66EE866AF8EEE77A77EEA67A67EE0F
:1006BC00877AFDEEE76AB8EEE66A16EE90CA77EE38
:1006CC00C67AB0EE676ABEEEE06A16EE103ADA173A
:1006DC00DB184CEB420253EA020C40F0D683C4E91F
:1006EC001007D4F88800A16CD4F88C70E66C421A10
:1006FC0067EB060352EA030C27D007EE902A9FED16
:10070C007C6AF8EE676A07EE903A66EE866AF8EE57
:10071C00E77A77EEA67A67EE877AFDEEE76AB8EEAF
:10072C00E66A16EE90CA77EEC67AB0EE676ABEEE4F
:10073C00E06A16EE103ADA17DB184CEB420253EA79
:10074C00020C40F09C83C4E91207D4F89000216D90
:10075C00D4F89470666D421A67EB060352EA030CE8
:10076C0027D007EE902A9FED626AF8EE676A07EED3
:10077C00903A66EE866AF8EEE77A77EEA67A67EE3E
:10078C00877AFDEEE76AB8EEE66A16EE90CA77EE67
:10079C00C67AB0EE676ABEEEE06A16EE103ADA1769
:1007AC00DB184CEB420253EA020C40F06283C4E9C2
:1007BC001407D4F89800A16DD4F89C70E66D421A19
:1007CC0067EB060352EA030C27D007EE902A9FED45
:1007DC00486AF8EE676A07EE903A66EE866AF8EEBB
:1007EC00E77A77EEA67A67EE877AFDEEE76AB8EEDF
:1007FC00E66A16EE90CA77EEC67AB0EE676ABEEE7F
:10080C00E06A16EE103ADA17DB184CEB420253EAA8
:10081C00020C40F02883C4E91607D4F8A000216E1E
:10082C00D4F8A470666E421A67EB060352EA030C06
:10083C0027D007EE902A9FED2E6AF8EE676A07EE36
:10084C00903A66EE866AF8EEE77A77EEA67A67EE6D
:10085C00877AFDEEE76AB8EEE66A16EE90CA77EE96
:10086C00C67AB0EE676ABEEEE06A16EE103ADA1798
:10087C00DB184CEB420253EA020C40F0EE82C4E966
:10088C001807D4F8A800A16ED4F8AC70E66E421A22
:10089C0067EB060352EA030C30D007EE902A9FED6B
:1008AC00146AF8EE676A07EE903A66EE866AF8EE1E
:1008BC00E77A77EEA67A67EE877ABDEEE77AF8EEFE
:1008CC00C76A17EE10CA77EEE67AF0EE676AFEEEAC
:1008DC00E06A16EE903ADA17DB184CEB420253EA58
:1008EC00020C40F0B482C4E91A0707E000000010C3
:1008FC000000802F0000000000002043D4E9011309
:10090C0094F8D020012A03F1010940F03E82D4ED85
:10091C004A7AD4ED4D6AB7EE007AF4EEC77AF1EE6E
:10092C0010FA20EE260A09DA94ED4B7A30EE470ADB
:10093C0020EE270A30EE070A84ED4B0AD4F83C214E
:10094C00002A00F3BB822668894506EB830380F0FE
:10095C00B08209EB010AC846626B83ED000A002ADB
:10096C00B8BF0022236B94F83071C4F80890B8BF5C
:10097C000023002A40F0C98201291FED220A00F24F
:10098C005B84A8EB02023B463046FFF729FDE26B85
:10099C00A36B8DED020A002ABCBF00220023002AA3
:1009AC0040F0C88201291FED2D0A00F25984A8EBF2
:1009BC0002023B463046FFF713FD626C236C8DED53
:1009CC00030A002ABCBF00220023002A40F0C78281
:1009DC0001291FED380A00F24184A8EB02023B46C4
:1009EC003046FFF7FDFCE26CA36C8DED040A002A87
:1009FC00BCBF00220023002A40F0C68201291FED53
:100A0C00430A00F22984A8EB02023B463046FFF76A
:100A1C00E7FC626D236D8DED050A002ABCBF002238
:100A2C000023002A40F0C58201291FED4E0A00F276
:100A3C001184A8EB02023B463046FFF7D1FCE26D75
:100A4C00A36D8DED060A002ABCBF00220023002AEC
:100A5C0040F0C48201291FED590A00F2F983A8EB7A
:100A6C0002023B463046FFF7BBFC626E236E8DEDF7
:100A7C00070A002ABCBF00220023002A40F0C382D0
:100A8C0001291FED640A00F2E183A8EB02023B4648
:100A9C003046FFF7A5FCE26EA36E8DED080A002A26
:100AAC00BCBF00220023002A40F0C28201291FEDA6
:100ABC006F0A00F2C383A8EB02023B463046FFF7F5
:100ACC008FFC8DED090AD4ED397ADDED026A94EDD7
:100ADC00417A9DED036ADDED054A9DED065ADDED8B
:100AEC00075A67EEA67ADDED046A67EE877AC5EDE4
:100AFC00007AD4ED3A7A94ED427A67EE867A9DEDDF
:100B0C00086A67EE877AC5ED017AD4ED3B7A94EDED
:100B1C00437A67EEA67A67EE877AC5ED027A94ED92
:100B2C003C7AD4ED446ADDED097A27EE247A27EE7F
:100B3C00267A85ED037A94ED3D7AD4ED456A27EE5D
:100B4C00057A27EE267A85ED047A94ED3E7AD4ED7B
:100B5C00466A27EE257A27EE267A85ED057A94EDFE
:100B6C003F7AD4ED476A27EE067A27EE267A85ED92
:100B7C00067AD4ED406A94ED487A67EEA67A67EE71
:100B8C00877AC5ED077A0BB0BDEC028BBDE8F08F10
:100B9C001FEDA73AD4ED046A94ED056AD4ED0B2A47
:100BAC00C4ED2C7A86EE837AC6EE034AD4ED066A3F
:100BBC0094ED076AC6EE833A86EE035AD4ED086AC2
:100BCC0094ED096A86EE834AD4ED0A6AC6EE035A9E
:100BDC0086EE836AC2EE836A94ED2E3A27EE037A90
:100BEC0064EE834A27EE277A64EEA74A25EE035A71
:100BFC00FDEEC72ABDEEE42A25EE275A66EE836A7F
:100C0C00FDEEC50A63EE833A24EE034A65EE835A81
:100C1C00F8EEE21A26EE036AB8EEC23A37EE617AC3
:100C2C0074EEC34AB8EEE03A63EEA73A35EE435A97
:100C3C00B0EE473ABDEEE31A24EE274ABEEEE03A98
:100C4C0065EEA75A26EE276AFDEEC41A66EEA77A61
:100C5C0013EE103AF8EEC16AB0EE643ABEEEE03A2A
:100C6C0012EE902AD81873EEE63AB8EEE17A4FEA13
:100C7C00E37342EB430313EE101A0022801834EE98
:100C8C00474AB0EE637ABEEEE07A63672067CB1713
:100C9C0012EE100A49185B41184417EE103A8918E5
:100CAC00B0EE457ABEEEE07AA167D917DB18BDEE3F
:100CBC00E58A4941E0679B1811EE100AC4F88030B0
:100CCC0017EE103A0144F8EEC84AB0EE447ABEEE84
:100CDC00E07AC4F88410D917DB18FDEEC66A75EEFD
:100CEC00E45A10EE900A49419B18C4F8883017EE6C
:100CFC00103A0144F8EEE64AB0EE657ABEEEE07AC0
:100D0C00C4F88C10D917DB18BDEEE73A36EE646ADE
:100D1C0011EE900A49419B18C4F8903017EE103A26
:100D2C000144F8EEC34AB0EE467ABEEEE07AC4F85F
:100D3C009410D917DB1818EE100A494177EEE47AB3
:100D4C009B18C4F8983017EE103A0144B0EE677A4D
:100D5C00BEEEE07AC4F89C10D917DB1816EE900A98
:100D6C0049419B18C4F8A03017EE103A014413EE19
:100D7C00100AC4F8A410D917DB1840EB41019B18DA
:100D8C00C4E92A31C4F8B42011E4D4E93603894506
:100D9C0028BF4FF000095A184B45A2EB0002A3EBF9
:100DAC00000B0ABF8146A9EB000C4FF0000C9842D7
:100DBC0088BF9346266894F83071C4F8089009EB04
:100DCC000108BBF1000F00F0498148459FEDA03AA6
:100DDC0000F2EF81DFF87CA2CDE900050DF10808E7
:100DEC000AF14009654618E05D459FED9B0A80F0CD
:100DFC004482BBF1010F2A4640F04682121A009B36
:100E0C001A448A4200D3521A3B463046FFF7E8FA9E
:100E1C00D145A8EC010A00F046825AF8082FDAF8FE
:100E2C000430002BAEBF18460020002203460028D9
:100E3C00DAD007EE902AB8EE670A5D4520EE030A79
:100E4C00C0F01382B5FBFBF20BFB12520EE2C91879
:100E5C0046EB0206C4E91A1650E5C91846EB020621
:100E6C00C4E918160DE5C91846EB0206C4E91616B6
:100E7C00D3E4C91846EB0206C4E9141699E4C91860
:100E8C0046EB0206C4E912165FE4C91846EB0206EB
:100E9C00C4E9101625E4C91846EB0206C4E90E167F
:100EAC00FFF7EBBBC91846EB0206C4E90C16FFF7BB
:100EBC00B2BB4FF000098A46C8464DE5013A012005
:100ECC00904007EE100AB8EEC77ADFED637A20EE99
:100EDC00070AF6EE006A70EE277AF5EEC07AF1EEAC
:100EEC0010FAC0F2BF8177EEA67AFDEEE77A26689B
:100EFC00F8EEE77A894587EE870A06EB8303D8D2AA
:100F0C0027E5DFED550AFFF72EBB07EE903AB8EE5A
:100F1C00670ADFED4F7A8A4220EE270A24BFB2FB24
:100F2C00F1F301FB1322424588BFAAEB02023FF604
:100F3C002AAD26E507EE903AB8EE670ADFED447A63
:100F4C008A4220EE270A24BFB2FBF1F301FB1322E5
:100F5C00424588BFAAEB02023FF62BAD27E507EE10
:100F6C00903AB8EE670ADFED3A7A8A4220EE270A09
:100F7C0024BFB2FBF1F301FB1322424588BFAAEB5D
:100F8C0002023FF62CAD28E507EE903AB8EE670A60
:100F9C00DFED2F7A914220EE270A9CBFB2FBF1F3D2
:100FAC0001FB1322424588BFAAEB02023FF62DAD8E
:100FBC0029E507EE903AB8EE670ADFED257A914203
:100FCC0020EE270A9CBFB2FBF1F301FB1322424532
:100FDC0088BFAAEB02023FF62EAD2AE507EE903A47
:100FEC00B8EE670ADFED1A7A914220EE270A9CBF11
:100FFC00B2FBF1F301FB1322424588BFAAEB0202BC
:10100C003FF62FAD2BE507EE903AB8EE670ADFED11
:10101C00107A914220EE270A9CBFB2FBF1F301FB40
:10102C001322424588BFAAEB02023FF630AD2CE5F5
:10103C0007EE903AB8EE670ADFED057A8A4220EEA9
:10104C00270AC0F0FC80B2FBF1F301FB1322F6E09F
:10105C000000802F2800001000000000626B236B42
:10106C00002ABCBF00220023002A40F02481012961
:10107C001FED070A00F23381A9EB02023B46304612
:10108C00FFF7AEF9E26BA36B8DED020A002ABCBF31
:10109C0000220023002A40F09A8101291FED120A38
:1010AC0000F2AB81A9EB02023B463046FFF798F900
:1010BC00626C236C8DED030A002ABCBF0022002356
:1010CC00002A40F0708101291FED1D0A00F2938166
:1010DC00A9EB02023B463046FFF782F9E26CA36CA7
:1010EC008DED040A002ABCBF00220023002A40F028
:1010FC00468101291FED280A00F28381A9EB020227
:10110C003B463046FFF76CF9626D236D8DED050A99
:10111C00002ABCBF00220023002A40F01C810129B8
:10112C001FED330A00F26B81A9EB02023B463046FD
:10113C00FFF756F9E26DA36D8DED060A002ABCBFD0
:10114C0000220023002A40F0F28001291FED3E0A04
:10115C0000F25B81A9EB02023B463046FFF740F9F7
:10116C00626E236E8DED070A002ABCBF002200239D
:10117C00002A40F0C88001291FED490A00F2438182
:10118C00A9EB02023B463046FFF72AF9E26EA36E4A
:10119C008DED080A002ABCBF00220023002A40F073
:1011AC00A08001291FED540A00F23181A9EB020243
:1011BC0083E40095DFF868A2A8EB00080DF108099C
:1011CC00054619E0D8459FED930A64D2BBF1010F97
:1011DC00404603D00123984238BF5844C31AEA183A
:1011EC008A4228BF521A3B463046FFF7F9F88A4B21
:1011FC00A9EC010A9A4558D05AF8080FDAF80420DD
:10120C00002AAEBF1346002300201A46002BD9D06B
:10121C0007EE900AD845B8EE670A2ABFB8FBFBF078
:10122C0040460BFB10805B4520EE030A24BFB3FB4A
:10123C00FBF30BFB1323CEE7012274E6012242459C
:10124C0088BFAAEB02023FF638AC34E40122E8E690
:10125C000122D1E60122BAE60122A3E601228CE6A4
:10126C00012275E677EEE67A3FE62A465B450CD31B
:10127C00B3FBFBF00BFB103007E0BBF1010F18D0F8
:10128C00B5FBFBF20BFB1252012090427FF6B6AD80
:10129C005A44121AB3E5BBF1010F08D0B8FBFBF0AE
:1012AC000BFB108096E7019D0DE4009D0BE41846A6
:1012BC0094E70246A2E507EE903AB8EE670ADFED36
:1012CC00577A914220EE270A9CBFB2FBF1F301FB47
:1012DC0013229145BFF4D0AEA8EB0202CEE6012258
:1012EC00F7E707EE903AB8EE670ADFED4C7A8A42E0
:1012FC0020EE270A24BFB2FBF1F301FB1322914528
:10130C00FFF4D9AB52E707EE903AB8EE670ADFED7F
:10131C00437A914220EE270A9CBFB2FBF1F301FB0A
:10132C0013229145BFF42CAFA8EB02022AE707EE7B
:10133C00903AB8EE670ADFED397A914220EE270A2F
:10134C009CBFB2FBF1F301FB13229145BFF402AF3A
:10135C00A8EB020200E707EE903AB8EE670ADFED61
:10136C002F7A914220EE270A9CBFB2FBF1F301FBCE
:10137C0013229145BFF4D8AEA8EB0202D6E607EED5
:10138C00903AB8EE670ADFED257A914220EE270AF3
:10139C009CBFB2FBF1F301FB13229145BFF4AEAE3F
:1013AC00A8EB0202ACE607EE903AB8EE670ADFED66
:1013BC001B7A914220EE270A9CBFB2FBF1F301FB92
:1013CC0013229145BFF484AEA8EB020282E607EE2D
:1013DC00903AB8EE670ADFED117A914220EE270AB7
:1013EC009CBFB2FBF1F301FB13229145BFF45AAE43
:1013FC00A8EB020258E60122E3E70122F5E70122FD
:10140C00B7E70122C9E701228BE701229DE7012200
:10141C0075E700BF00000000680000100000802F7E
:10142C002800001010B5A14CD4ED507AF7EE001A3C
:10143C0071EEE71A2DED028BF5EEC01AF1EE10FAF3
:10144C0094ED518A84B000F1BA80B0EE617ADFED90
:10145C00987AD4ED026AD4ED525AB4EEE77AF1EEF2
:10146C0010FAF8EE666A00F1E98094ED531A9FEDDC
:10147C00917A9FED916AF6EE007A21EE077AB4EE3E
:10148C00E71AF1EE10FA27EE066A80F29580B5EEB7
:10149C00C06AF1EE10FA31EE272A18DAFEEE007A65
:1014AC0077EE867A9FED855A9FED856AFDEEE77A99
:1014BC00F8EEE77A67EE857A37EE677AB4EEC67A9D
:1014CC00F1EE10FA7EDDDFED7B7A37EEC77A67EE50
:1014DC00077ADFED7C2A9FED7C6ADFED7C4A9FED7D
:1014EC007C5ACDED035A67EEA22A28EE010A72EE61
:1014FC00C62AB7EE006A62EEA72A30EE250A72EE13
:10150C00A42A012062EEA72A8DED016A72EEC52A8B
:10151C0094ED545ACDED026A62EEA72A30EE050A1C
:10152C0072EE862A36EEC00A62EE872A62EEA22A94
:10153C0076EE620AFEF734FEDDED035AD4ED557AF1
:10154C00DDED026A28EE022A62EE802A32EE252AAE
:10155C00012032EE272A36EEC20AFEF721FEC1EE3A
:10156C00887A9DED016A77EE817A20EE800AF4EE9E
:10157C00C67AF1EE10FA30EE220A30DBD4F85C3188
:10158C00002B53D1D4F85821C4F850214FF0FF331D
:10159C00C4F85C31B7EE007A77EEC77AF4EEC77A0E
:1015AC00F1EE10FAF8DA0123C4F86031C4ED537A85
:1015BC0004B0BDEC028B10BD31EE672A70E7B1EEC2
:1015CC00617A44E7DFED437AB4EEE77AF1EE10FA94
:1015DC007FF57DAFDFED407A37EEC77A77E7F5EE32
:1015EC00C07AF1EE10FA4FF000033BD4B6EE007A5D
:1015FC00B4EEC71AF1EE10FAF4EEC77AACBF0121C3
:10160C000021F1EE10FAACBF012200229142CDD0A4
:10161C00D4F85C21012A08BFD4F85831C4F85431ED
:10162C004FF0FF32C4F85C210023BDE700224FF0DD
:10163C00FF33C4F85021C4F85C31ABE7B6EE000AB6
:10164C0028EE000A4FF0FF3330EE250A012036EE6B
:10165C00C00AC4F85C3104B0BDEC028BBDE810408C
:10166C00FEF79EBDD4F85C21BAB14FF0FF32C4F83E
:10167C005031C4F85C210123C4F86031B7EE007A14
:10168C0077EE877AF5EEC07AF1EE10FAF8D4C4ED65
:10169C00537A04B0BDEC028B10BDD4F85821C4F8B9
:1016AC0050214FF0FF33C4F85C31E4E70000001028
:1016BC0017B7D138DB0F494083F9223EDB0FC94005
:1016CC00DB0FC93F91EE3836470C50398588083C02
:1016DC00ABAA2A3EDB0FC9BFDB0F49C0DFF8C0C085
:1016EC002E4BDCF8002042F48072CCF80020ACF5D4
:1016FC00806C01E0013B44D0DCF81424D207F9D50E
:10170C00274A264B4FF0920CC2F810C0DFF894C059
:10171C0001E0013B2DD0DCF814249207F9D5204AC6
:10172C001E4B9269DFF87CC001E0013B2CD0DCF849
:10173C0014241206F9D51A4A184BDFF868C0106148
:10174C0001E0013B23D0DCF814241006F9D5144A2F
:10175C00124B1448116101E0013B1BD0D0F814244A
:10176C005207F9D50E4A136843F400730020136036
:10177C0070470B4A136843F400736FF00100136059
:10178C0070474FF0FF3070476FF0020070476FF0FA
:10179C00030070476FF00400704700BF400D03005A
:1017AC00005400400050004010B5DFF8A0C0864641
:1017BC0084B0172200214FF480644FF080602EFA21
:1017CC0002F313F0010F0CBF4FF080534FF4805312
:1017DC00CCF818300191019B0B2B05DC019B0133DC
:1017EC000193019B0B2BF9DDCCF818400291029B65
:1017FC000B2B05DC029B01330293029B0B2BF9DDB7
:10180C00CCF818000391039B0B2B05DC039B0133D5
:10181C000393039B0B2BF9DD013AD0D20A4A002328
:10182C004FF4004191610093009B0B2B05DC009B56
:10183C0001330093009B0B2BF9DD034B4FF000425F
:10184C009A6104B010BD00BF0000024000080240C5
:10185C002DE9F047CE4B2DED068B1A68510588B05B
:10186C0009D4CB4B1A68120500F1D98008B0BDEC35
:10187C00068BBDE8F087C74CC74A9FEDC89ADFEDD1
:10188C00C88A9FEDC8AA4FF480619960D2ED049A82
:10189C004FF00008A4F5806504F59067B7EE008A58
:1018AC006CE0F1EE407AD7ED006A97ED007A77EEB6
:1018BC00E67AF0EE690A67EEA87A684677EE877AE0
:1018CC00C7ED007AFEF73AFE95F86C38002B40F025
:1018DC00DD819DED000AB4EEC80AF1EE10FA40F37A
:1018EC00C381B14B9DED017A2360B4EEC87AF1EE61
:1018FC0010FA40F3A781AC4B9DED027A6360B4EE15
:10190C00C87AF1EE10FA40F38B81A74B9DED037A68
:10191C00A360B4EEC87AF1EE10FA40F36F81A24BDB
:10192C009DED047AE360B4EEC87AF1EE10FA40F360
:10193C0053819D4B9DED057A2361B4EEC87AF1EE8F
:10194C0010FA40F33781984B9DED067A6361B4EE43
:10195C00C87AF1EE10FA40F30981934B9DED077AAA
:10196C00A361B4EEC87AF1EE10FA21DD08F1080893
:10197C008D4BE361B8F1800F31D0203455F828300D
:10198C00D5F8902843F3170300EE103AD5F89438A5
:10199C00B8EEC00A9A4220EE090A80F0BC81B5EE7E
:1019AC00C00AF1EE10FA3FF57CAFF0EE407A7AE720
:1019BC00FFEE007AF4EEC77AF1EE10FAD8BFF0EE33
:1019CC00477A67EE8A7A08F10808FDEEE77AB8F1F3
:1019DC00800F17EE903A23F07F43E361CDD1D5F819
:1019EC0090380133C5F89038D5F89028D5F894384C
:1019FC009A42FFF436AF97ED007A6C4BF5EE007A15
:101A0C00B4EEE77AF1EE10FACCBF4FF000624FF46F
:101A1C0000629A615E4B1A6812057FF527AF644D20
:101A2C005D4A9FED5E9ADFED5E8A9FED5EAA4FF4F4
:101A3C0000619960D2ED049AA94605F5806405F51C
:101A4C00C06805F50867B7EE008A75E0F1EE407ADC
:101A5C00D7ED006A97ED007A77EEE67AF0EE690A38
:101A6C0067EEA87A684677EE877AC7ED007AFEF7BC
:101A7C0065FD95F86C38002B40F021829DED000A35
:101A8C00B4EEC80AF1EE10FA40F3F981464B9DED25
:101A9C00017AC4F80032B4EEC87AF1EE10FA40F3D1
:101AAC00DC81414B9DED027AC4F80432B4EEC87A65
:101ABC00F1EE10FA40F3BF813B4B9DED037AC4F875
:101ACC000832B4EEC87AF1EE10FA40F3A281364B2C
:101ADC009DED047AC4F80C32B4EEC87AF1EE10FA2B
:101AEC0040F38581304B9DED057AC4F81032B4EE8D
:101AFC00C87AF1EE10FA40F368812B4B9DED067A13
:101B0C00C4F81432B4EEC87AF1EE10FA40F34B81FB
:101B1C00254B9DED077AC4F81832B4EEC87AF1EE75
:101B2C0010FA40F30981204BC4F81C322034444590
:101B3C0000F0198109F12009D9F80032D5F8902864
:101B4C0043F3170300EE103AD5F89438B8EEC00AF8
:101B5C009A4220EE090A80F0A481B5EEC00AF1EE9B
:101B6C0010FA3FF573AFF0EE407A71E7FFEE007AB2
:101B7C00F4EEC77AF1EE10FAD8BFF0EE477A67EEC2
:101B8C008A7AFDEEE77A17EE903A23F07F43E5E68A
:101B9C000064024018040020000000200000003403
:101BAC006F12033BFEFFFF4AFFFF7F000000024065
:101BBC0018000020FFEE007AF4EEC77AF1EE10FA6E
:101BCC00D8BFF0EE477A67EE8A7AFDEEE77A17EE29
:101BDC00903A23F07F43B7E6FFEE007AF4EEC77A33
:101BEC00F1EE10FAD8BFF0EE477A67EE8A7AFDEE86
:101BFC00E77A17EE903A23F07F439BE6FFEE007AEC
:101C0C00F4EEC77AF1EE10FAD8BFF0EE477A67EE31
:101C1C008A7AFDEEE77A17EE903A23F07F437FE65F
:101C2C00FFEE007AF4EEC77AF1EE10FAD8BFF0EEC0
:101C3C00477A67EE8A7AFDEEE77A17EE903A23F050
:101C4C007F4363E6FFEE007AF4EEC77AF1EE10FA0A
:101C5C00D8BFF0EE477A67EE8A7AFDEEE77A17EE98
:101C6C00903A23F07F4347E6FFEE007AF4EEC07A19
:101C7C00F1EE10FAD8BFF0EE407A67EE8A7AFDEEFC
:101C8C00E77A17EE903A23F07F432BE6DFF8CCA2ED
:101C9C00DAED596ADAED5A7A9AED5B6A77EEE67A02
:101CAC00B5EE007A67EE867A77EEA67AF4EEC77A0E
:101CBC00F1EE10FACAED597A08D4B1EE007AF4EECE
:101CCC00C77AF1EE10FAD8BFB0EE677A8AED507A87
:101CDC00FFF7A8FBDAED597A77EEC87AF5EEC07A01
:101CEC00F1EE10FA01D5F1EE677A9FED997ADFEDFE
:101CFC00996A67EE877A9DED007AF4EEC87AF1EE78
:101D0C0010FAC8BFF0EE487A67EEA67A27EE800A82
:101D1C0030EE070ADFE5F6EE007AB4EEE70AF1EEF4
:101D2C0010FA8D4B05DD4FF480329A61F0EE407A5B
:101D3C00B9E501229A6132E6FFEE007AF4EEC77A39
:101D4C00F1EE10FAD8BFF0EE477A67EE8A7A2034BB
:101D5C00FDEEE77A444517EE903A23F07F43C4F842
:101D6C00FC317FF4E7AED5F890380133C5F89038E4
:101D7C00D5F89028D5F894389A42FFF477AD97EDC2
:101D8C00007A754BF5EE007AB4EEE77AF1EE10FAC4
:101D9C00CCBF4FF000624FF400629A6108B0BDEC0A
:101DAC00068BBDE8F087FFEE007AF4EEC77AF1EE11
:101DBC0010FAD8BFF0EE477A67EE8A7AFDEEE77A32
:101DCC0017EE903A23F07F43A3E6FFEE007AF4EE91
:101DDC00C77AF1EE10FAD8BFF0EE477A67EE8A7A3E
:101DEC00FDEEE77A17EE903A23F07F4386E6FFEE9E
:101DFC00007AF4EEC77AF1EE10FAD8BFF0EE477A1B
:101E0C0067EE8A7AFDEEE77A17EE903A23F07F437D
:101E1C0069E6FFEE007AF4EEC77AF1EE10FAD8BF5D
:101E2C00F0EE477A67EE8A7AFDEEE77A17EE903A93
:101E3C0023F07F434CE6FFEE007AF4EEC77AF1EE26
:101E4C0010FAD8BFF0EE477A67EE8A7AFDEEE77AA1
:101E5C0017EE903A23F07F432FE6FFEE007AF4EE74
:101E6C00C77AF1EE10FAD8BFF0EE477A67EE8A7AAD
:101E7C00FDEEE77A17EE903A23F07F4312E6FFEE81
:101E8C00007AF4EEC07AF1EE10FAD8BFF0EE407A98
:101E9C0067EE8A7AFDEEE77A17EE903A23F07F43ED
:101EAC00F5E5F6EE007AB4EEE70AF1EE10FA2A4BFD
:101EBC004ADD4FF480329A61F0EE407AC8E5DFF8E3
:101ECC009CA0DAED596ADAED5A7A9AED5B6A77EEF4
:101EDC00E67AB5EE007A67EE867A77EEA67AF4EEBD
:101EEC00C77AF1EE10FACAED597A08D4B1EE007A3D
:101EFC00F4EEC77AF1EE10FAD8BFB0EE677A8AED3D
:101F0C00507AFFF78FFADAED597A77EEC87AF5EE58
:101F1C00C07AF1EE10FA01D5F1EE677A9FED0C7AEA
:101F2C00DFED0C6A67EE877A9DED007AF4EEC87AE5
:101F3C00F1EE10FAC8BFF0EE487A67EEA67A27EEFB
:101F4C00800A30EE070A9BE501229A6105E600BF84
:101F5C00000048423333333F0000024000000010C1
:101F6C00704700BF054BD3F888204FF0006142F456
:101F7C007002C3F888209960704700BF00ED00E044
:101F8C002DE98048AB4AAC4B9A42ADB016D2013B1E
:101F9C009B1A032B11460FD99B080133580802EBEF
:101FAC00C0050024C1E900440831A942FAD1B3EBC1
:101FBC00400F03D002EBC002002313609F4AA049DC
:101FCC00136843F480331360D1F800389D03FBD5BC
:101FDC009A4A9C49136C9C4843F080531364136CCD
:101FEC000B6840F2057443F440430B600460936843
:101FFC00964923F47C4323F0F00343F41443936099
:10200C00516013688E4943F080731360D1F8003827
:10201C009C01FBD5894B9A6822F0030242F0020224
:10202C009A609C6804F00C04082CFAD1884AC3F816
:10203C008820D3F88C20824922F4700222F4F852C2
:10204C0042F4C062C3F88C201A6842F080521A60C5
:10205C00D1F800389800FBD5784B9A6802F00C0246
:10206C00042A02F0D181082A02F0DA81794B734AF2
:10207C0079499068C0F3031001F5A07B085CC3405C
:10208C0076480360136B43F0FE031363136B01F18B
:10209C0010004FF0030A4FF002094FF001084FF007
:1020AC000F0E4FF00C0C0268037915685E000AFAEB
:1020BC0006F725EA070509FA06F635431560556853
:1020CC0008FA03F625EA0605556095683D439560C8
:1020DC00D568072B25EA0705D56094BF0025012597
:1020EC0002EB850203F00703156A9B000EFA03F658
:1020FC00083025EA06050CFA03F32B435845136206
:10210C00D1D14E4A936B43F001039363544B926BC2
:10211C00544A4FF4605018644FF4EA7058644FF40A
:10212C0083109864DA649A6D9206FCD409221A65BD
:10213C0044F61F6300BF1A46013B002AFAD1484BF4
:10214C009A6D9706FCD40A221A65454B9A6D960631
:10215C00FCD4EB221A65424B9A6D9506FCD4424A8C
:10216C001A654FF49F625A653D4B9A6D9006FCD4EC
:10217C00324A3E48136BDFF80CB143F00A03136389
:10218C003B4B126B1A6822F440121A60DA6822F484
:10219C00401242F48012DA601A6822F440021A608B
:1021AC00DA6822F4400242F48002DA60026822F417
:1021BC0040020260C26822F4400242F48002C26013
:1021CC00026822F040720260C26822F0407242F053
:1021DC008072C2601A6822F440121A60DA6822F423
:1021EC00401242F48012DA601A6822F440021A603B
:1021FC00DA6822F4400242F48002DA601B695A0564
:10220C001C4B4CBF9FED1C1A9FED1C1ACBF80030D9
:10221C004FF40012CBF80420002003F5000243F821
:10222C00040B9342FBD1164BCBF8BC30CBF8C4302B
:10223C002AE000BF000000107001001000380240BE
:10224C000030024000700040003C0240085440073F
:10225C00005600020024F400DC44000800000020BA
:10226C00000100A0610301010C600400000C02409D
:10227C0000040240000000D00080BB4700606A49A7
:10228C009A99193E00000010BE4BCBF8B030BE4BF3
:10229C00CBF81430BD4BCBF81830BD4BCBF81C3001
:1022AC00BC4BCBF82030BC4BCBF82430BB4BCBF821
:1022BC002830BB4BCBF82C30BA4BBB4ECBF8C830CC
:1022CC000022BA4BBA4DCBF8CC3000274FF07E53DE
:1022DC00CBE93522CBF80820CBF8DC208BF8E020BA
:1022EC00CBF8106001220026CBF8C030CBF8E430DC
:1022FC00CBF80431CBF8B4208BF8D020CBE90C67A9
:10230C00CBE90E67CBE91067CBE91267CBE9146711
:10231C00CBE91667CBE91867CBE91A678BED2E1A58
:10232C00CBF8E8308BF830212A69CBF80831CBF8A0
:10233C00EC30CBF80C31CBF8F030CBF81031CBF8CB
:10234C00F430CBF81431CBF8F830CBF81831CBF89B
:10235C00FC30CBF81C31CBF80031CBF82031CBF86A
:10236C002831CBF834312B69CBF82C016FEA1333BD
:10237C006FEAD2225B0003F0020302F00102134366
:10238C004FF0785C032BCBF824C1CBF8380102F06A
:10239C00448001EB8301D1F84031182B08BF002396
:1023AC00844ACBF83C311369834A844F1B055CBFCC
:1023BC00834BCBF82831136B43F002031363136C7C
:1023CC0043F4804313647B4B116C196821F040611A
:1023DC0041F000611960996841F000619960596A97
:1023EC0021F4700141F4A0015962196821F04051A7
:1023FC0041F000511960996841F000519960596A97
:10240C0021F0706141F0A0615962196821F04041DE
:10241C0041F000411960996841F000419960596A96
:10242C0021F0704141F0A0415962196821F04071CE
:10243C0041F0807119604FF4805562499D61002014
:10244C004FF44D730B6048600B6843F040030B6016
:10245C00536C43F480035364536C136B43F0380395
:10246C001363136B584B1D6825F0300545F02005A0
:10247C001D605D6825F004055D609D6845F03005C4
:10248C009D60DD6825F03005DD601D6A25F4706502
:10249C0045F4C0651D621D6825F4407545F4007552
:1024AC001D605D6825F010055D609D6845F4407504
:1024BC009D60DD6825F44075DD601D6A25F470258E
:1024CC0045F4C0251D621D6825F4406545F4006582
:1024DC001D605D6825F020055D609D6845F44065D4
:1024EC009D60DD6825F44065DD601D6A25F470058E
:1024FC0001F5EA3145F4C0051D620B68334D23F438
:10250C00405343F400530B604B6823F040034B6083
:10251C008B6843F440538B60CB6823F44053CB60FF
:10252C000B6A23F0706343F0C0630B622968284B7D
:10253C0021F4405141F400512960696821F04001B7
:10254C006960A96841F44051A960E96821F44051DF
:10255C00E960296A21F0706141F0C06129620126AD
:10256C005F601C4D1C499E6007F20147DD601961DC
:10257C005F629E62DD621963136B43F48003136325
:10258C00136B2BE0CAF249F10000204200007042AC
:10259C000000A0420000C8420000F04200000C43C2
:1025AC0000002043CDCCCC3E0000A041CDCCCC3F94
:1025BC00000C02400004024000380240C12012000E
:1025CC007D99D63E003800400010024000140240B5
:1025DC0000580140FF0F06008007FF00AA4B9862CD
:1025EC009A6A12F00102FBD1A8491963DFF8E4A240
:1025FC00A749C3F834A04FF48070D8629962C3F82D
:10260C008820A14BD3F8882012F001020192F9D155
:10261C00A049C3F89010A049C3F894109F4AA04950
:10262C004FF48070C3F88C00C3F88810102182F826
:10263C0039134FF0007151609A6A42F001029A62AC
:10264C00D3F8882042F00102C3F88820954B964AB3
:10265C00596A41F480315962596841F480315960AA
:10266C00136B43F001031363136B904B1A6822F046
:10267C00300242F010021A605A684FF4802122F0A6
:10268C0004025A609961019B0A930A9B884A9342FF
:10269C0005DC0A9B01330A930A9B9342F9DD834BB9
:1026AC001A6822F0300242F010021A605A680421B3
:1026BC0022F004025A60996100230993099B7C4A19
:1026CC00934205DC099B01330993099B9342F9DD85
:1026DC00754A784B116B41F002011163116B19684B
:1026EC0021F4403141F400311960596841F4807192
:1026FC005960996841F480319960D96821F440316E
:10270C0041F48031D960596A21F00F0141F0040184
:10271C005962196821F4402141F40021196059686B
:10272C0041F400715960996841F480219960D9682D
:10273C0021F4402141F48021D960596A21F0F00143
:10274C0041F040015962136C43F400131364136C91
:10275C00594B4FF400421A6000212A2219605A602A
:10276C00D222DA6101202B221A624FF6FF36186052
:10277C000D46524A01E0013A02D09F69BF07FAD4D4
:10278C001F684E4A47F480771F6001E0013A02D07F
:10279C005F69FF07FAD55A69D20740F10C854A00E8
:1027AC00D2B2474F1A6105E0520500F10F85013F87
:1027BC0000F013855A6912F0020FF5D09A691A6865
:1027CC004F090AEB870742F400721A60D7F804C865
:1027DC0001F01F0200FA02F242EA0C02C7F80428C8
:1027EC000895089AB2F5FA6F06DA089A013208923F
:1027FC00089AB2F5FA6FF8DB01318029B9D1314B67
:10280C00CAF814387F210220FEF768FFF021054634
:10281C000320FEF763FF362105430420FEF75EFF1D
:10282C00FF2105430720FEF759FF00210543022035
:10283C00FEF754FF102105430620FEF74FFF002141
:10284C0005430720FEF74AFF1F4B204A05435D60F6
:10285C001F4D194B4FF0920C9327EE26186815F864
:10286C0001EBDFF85C8040F48070186003E0B8F195
:10287C00010800F0C084D2F81404C007F7D5104842
:10288C00C3F810C02BE000BF006402402058014088
:10289C0018550300405801401804002000E100E0E6
:1028AC00405503000058014000380240000002402F
:1028BC00DF9304000004024000540040410D03006B
:1028CC00400D0300EEFFC00000000020005000404F
:1028DC002846000818000020013800F08484D2F843
:1028EC00148418F0020FF7D098691D4802E00138E3
:1028FC0000F08184D2F8148418F0800FF7D01848B7
:10290C00C3F810E002E0013800F07584D2F814E44A
:10291C001EF0040FF7D0186840F48070186010484F
:10292C0002E0013800F06784D2F814E41EF0010FC5
:10293C00F7D01F61186820F480601860084802E026
:10294C00013800F05084D2F814E41EF0020FF7D0D6
:10295C009869186840F400701860014805E000BFE1
:10296C00400D0300013800F04684D2F814E41EF048
:10297C00400FF7D0D3F810E0186840F4806018606E
:10298C000AEB010001310A2980F818E87FF466AFE0
:10299C00B64AB74B116BB74D41F001011163116B86
:1029AC00196821F4407141F480711960196821F49F
:1029BC00406141F4806119601968102721F440517D
:1029CC00202019609F619861116B41F00301116324
:1029DC00116B196821F0030141F0010119604FF4EA
:1029EC0080319961196821F00C0141F004011960E2
:1029FC0002219961196821F4404141F48041196028
:102A0C0080219961196821F4403141F480311960B9
:102A1C004FF480719961196821F4400141F48001EF
:102A2C00196000264FF400619961AAF824688AF8AD
:102A3C002A68AAF82868296821F00F0141F00501DD
:102A4C0029604FF44031A961116B41F0050111630C
:102A5C00116B196821F4407141F480711960196887
:102A6C0021F4406141F480611960196821F0404102
:102A7C0041F080411960196805F5806521F44051D9
:102A8C001960296821F4401141F4801129602968EA
:102A9C0021F0407141F0807129604FF0806C4FF053
:102AAC0000419F619861C5F818C09961136B43F0A0
:102ABC0004031363136B2B6823F00C032B60EB687C
:102ACC0023F00C0343F00403EB602B6823F030037A
:102ADC002B60EB6823F030033B43EB602B6823F057
:102AEC00C0032B60EB6823F0C00343F04003EB60A2
:102AFC002B6823F440732B60EB6823F4407343F48E
:102B0C008073EB602B6823F440632B60EB6823F439
:102B1C00406343F48063EB602B6823F440532B60D9
:102B2C00EB6823F4405343F48053EB60B046B1465A
:102B3C00A4F1080707EB071007EB001000EB0030BF
:102B4C00FEF732FE00230793079B0B2B05DC079B3C
:102B5C0001330793079B0B2BF9DD00230693069B90
:102B6C000B2B05DC069B01330693069B0B2BF9DD27
:102B7C000120296900FA07F249EA020311F0200F3B
:102B8C009BB208BF994600FA04F3044449EA0300D7
:102B9C0011F0400F80B208BF814648EA020011F0E4
:102BAC00080F80B208BF804648EA0300324311F098
:102BBC00100F80B292B208BF804611F0020F08BF0E
:102BCC001646334311F0040F9BB208BF1E46102C5F
:102BDC00AED12948FEF7E8FD244BAAF83298AAF8A2
:102BEC003488AAF836685A6C244942F480625A64D4
:102BFC001A6B42F020021A635B6C0B68204A43F498
:102C0C0040330B60A1F571414B6823F4403343F41E
:102C1C0080334B60002306215360D36251634FF421
:102C2C00E0111161012191600B930B9B42F20F7229
:102C3C00934205DC0B9B01330B930B9B9342F9DD09
:102C4C000A4B0C481A6B0F49DFF840909FED0E2A87
:102C5C0042F00F021A631A6BC26822F47002C2604F
:102C6C00CA686FF38D02CA6012E000BF00380240E0
:102C7C000000024000040240777777000014024005
:102C8C0000220140000802400AD7233C74080020AF
:102C9C00D0F80C18B64A21F07071C0F80C18D16835
:102CAC0021F04041D160596C41F0100159645B6CCA
:102CBC001368B04923F4701343F420131360536A60
:102CCC0023F47F6343F4EE635362AB4ACBF84421A5
:102CDC004FF08742CBF84821A84ACBF86C214FF033
:102CEC007E520023CBF84021CBF86421CBF868212D
:102CFC0040F2D922CBF84C31CBF85031CBF85431CF
:102D0C008A6042F20C02CA60CBF858314FF0FF33A4
:102D1C00CBF85C310023F6EE007ACBF860314FF43F
:102D2C008073C9ED007AFF25AAF868380123CDE934
:102D3C0002539AF86C38C9ED017AB0EE676AC9EDA6
:102D4C00027A002B40F0A282019B13F0030200F0E8
:102D5C006584019B13F03F0340F08F82844A4FF44B
:102D6C00801191611193119B0B2B05DC119B01338D
:102D7C001193119B0B2BF9DD7D4B10229A610023D3
:102D8C001093109B0B2B05DC109B01331093109BA5
:102D9C000B2BF9DD4FF0000C754A0D214FF400158B
:102DAC006046202495610E900E9B0B2B05DC0E9B30
:102DBC0001330E930E9B0B2BF9DD136994610F906D
:102DCC0013F0400F4FEA4C0C0F9B1FFA8CFC18BFF2
:102DDC004CF0010C0B2B05DC0F9B01330F930F9B5D
:102DEC000B2BF9DD0139DDD1614B1CF0020F4FF4D7
:102DFC0000129A611DBFCCF3800383F00103DBB298
:102E0C0002231CF0080F0CBF022701271CF0800FB7
:102E1C00CCF3001001F06980CCF3002484F00104A1
:102E2C006400E4B21CF4806504D01CF4007F14BF71
:102E3C0001250225524EDBED2E7A31696FEADC2238
:102E4C0042EA912202F001013269D6F81080AAF808
:102E5C002CC88AF848388AF849788AF84A488AF897
:102E6C006C08484805726FEA1C3040EAD22202F026
:102E7C0001028AF84B188AF84C2849ED017A00298E
:102E8C0040F09587002A01F018809AF82528002A2E
:102E9C0001F0A6824FF48072012CAAF8242801F0CC
:102EAC0093828E460E469AF87608012801F03280FD
:102EBC00022801F04882002801F0DB81DBF80820B1
:102ECC00BEF1000F41F02F829BF8D0400646204601
:102EDC00274C4FF0020EC4F818E04FF4000EC4F863
:102EEC0018E0012800F0DF87DAF87848944200F205
:102EFC00A1879AF87C48CAF87828002C01F0F98050
:102F0C00013CE4B21A4A8AF87C484FF0807EC2F841
:102F1C0018E08AF84E688AF84F08D9ED097ADFED87
:102F2C001A6A9FED1A7A67EEA67A6FEA0C06F4EE2F
:102F3C00C77AF1EE10FA06F0010600F30587FCEEF5
:102F4C00E77A17EE902A8AF850288AF85148DAF86E
:102F5C009008DAF894289042C0F090859AF8982856
:102F6C00DAB19AF89928BA4201F0B88012E000BFA1
:102F7C0000000240001001400000B4456F12033BFA
:102F8C0000180240000000200000C84200007F43EF
:102F9C00C0FE9F4900228AF898282A463846039C8E
:102FAC0040EA021C64451CD007EE900AF8EE677AE2
:102FBC0067EE817A3AB1012A0CBFB6EE007AB5EE13
:102FCC00007A67EE877A1FED0E7AB4EEE77AF1EEAF
:102FDC0010FAD8BFF0EE477A0122CBED2E7ACBF85F
:102FEC00B420029A002E40F01B819A4200F03C81E2
:102FFC004FEA831E0EF1006202F54042834C1068CA
:10300C00A04240F0C486D088022840F0C0861489C3
:10301C00282C00F2BC86201D80B2CDE904C302909E
:10302C00B2F80480501D009041F221064FF6FF705B
:10303C00009B039313F801CF009380EA0C204FEA16
:10304C00400C000448BF8CEA060C4FEA4C001CF400
:10305C00004F18BF70404FEA400C030448BF8CEA85
:10306C00060C4FEA4C001CF4004F18BF70404FEA9E
:10307C00400C000448BF8CEA060C4FEA4C001CF4D0
:10308C00004F18BF70404FEA400C030448BF8CEA55
:10309C00060C039B4FEA4C001CF4004F80B2A3F1CA
:1030AC00040C029B18BF7040ACEB020C18BF80B232
:1030BC006345BDD88045DDE904C340F06886002C2B
:1030CC0000F06586601E052841F2908150486844E6
:1030DC00A0EB0E00022841F289814E48A6085EF84A
:1030EC000080CDF87080012E704401F09081D0F8F2
:1030FC0004E0CDF874E0022E00F02986D0F808E048
:10310C00CDF878E0032E00F02286D0F80CE0CDF854
:10311C007CE0042E00F01B86D0F810E0CDF880E0A7
:10312C00052E00F01486D0F814E0CDF884E0062EBD
:10313C0000F00D86D0F818E0CDF888E0072E00F0EE
:10314C000686D0F81CE0CDF88CE0082E00F0FF8548
:10315C00D0F820E0CDF890E00A2E40F0F885426AD5
:10316C002592249AC9F80020C9F804200022C9F835
:10317C0008200122AAF868288AF898289DF894203B
:10318C008AF89B289DF896209DED1C7ADDED1D7A22
:10319C00DDF87880DDF87CE0209E219C2298DDED26
:1031AC00236A8AF899788AF89A588AF89C280293A4
:1031BC004FF0FF0C45E01A6842F400721A60DAF81E
:1031CC0000280132CAF80028FFF70ABB5E611A68B2
:1031DC0042F400721A60FFF703BB1A6842F40072E3
:1031EC001A60FFF7FDBADFF830E0DEF8000040F4BB
:1031FC000070CEF800000AEB010001310A2980F8BA
:10320C0018687FF42BABFFF7C3BB00BF72383832A2
:10321C006540FFF70AC0000800540040000020433E
:10322C00FE2A21D0FE225FED036AD248D24CD34E47
:10323C00DFF864E3DFF86483DFEDD17A0292B3EE5A
:10324C00047A01228BED047ACBED057ACBF8188049
:10325C00CBF81CE0CBF82060CBF82440CBF828004E
:10326C00CBED0B6ACBF8B420002940F05784CAF898
:10327C00A0188AF8A418CDF80CC0019B0133019357
:10328C0030BF9AF86C38002B3FF45EADDBF85C3144
:10329C00002BBFF659ADDBED507AB7EE007A37EE66
:1032AC00677AB5EEC07AF1EE10FA00F18986F0EE8D
:1032BC00477ADFEDB46AF4EEE67AF1EE10FA3FF5F8
:1032CC0043ADDBED516ADBED537AC7EE265AF5EED2
:1032DC00C05AF1EE10FA40F33F86B6EE005AF4EE07
:1032EC00C57AB7EE007AF1EE10FA37EE677A01D4B0
:1032FC00B7EE085A75EE677AB4EEE77AF1EE10FA8B
:10330C00F4EEC77A94BF01230023F1EE10FAB8BF94
:10331C00B0EE677ADFED9C7AB4EEE77A83F00107C2
:10332C00F1EE10FACBF860713FF70EADF2EE007AC9
:10333C0065EEA75AF4EEC75AF1EE10FA3FF704AD5A
:10334C00DBED521AF0EE617AB6EE007A66EE873A51
:10335C000BEB830393ED547ADFED8C5A73EEA73AA3
:10336C00002473EE873A07EE904AB8EEE70A02346F
:10337C0030EE230AFCF7E2FF20EE000AB4F5407FA2
:10338C0075EE805AEFD1DFED827AF4EEE75AF1EE6A
:10339C0010FA3FF5D9ACDBED027ADBF80410DFED67
:1033AC007B2ADFED7C0ADBF80040B8EE674A07EEBB
:1033BC00901A0025F8EE676A2E4607EE906AB8EE72
:1033CC00E73A9FED725A33EE213AF0EE454A00206F
:1033DC0007EE900AF8EEE77A33EE277A34EE477A66
:1033EC00B5EEC07AF1EE10FA0DD537EE267AB5EEC1
:1033FC00C07AF1EE10FAF8D4B4EEE67AF1EE10FAE7
:10340C0006DB37EE667AB4EEE67AF1EE10FAF8DA0D
:10341C00BDEEC70A10EE103AB8EEC00A002B37EE1C
:10342C00407A03F10102C0F23286994298BF5B1ACE
:10343C0004EB830393ED000A914298BF521A04EBFC
:10344C00820292ED008A73EEA77A38EE408A74EE0F
:10345C00677A28EE077AF5EEC07AF1EE10FA37EEBD
:10346C00008A0DD577EEA67AF5EEC07AF1EE10FA59
:10347C00F8D4F4EEE67AF1EE10FA06DB77EEE67AA3
:10348C00F4EEE67AF1EE10FAF8DABDEEE77A17EE22
:10349C00103AB8EEC77A002B77EEC77A03F1010227
:1034AC00C0F2EA85994298BF5B1A04EB8303D3ED13
:1034BC00008A914298BF521A04EB820292ED007A74
:1034CC0037EE687A28EE080A67EE277A023077EE34
:1034DC00A87AB0F5407F67EE887A35EE005A74EE24
:1034EC00A74A7FF475AF25EE823AB4EEC35AF1EEDB
:1034FC0010FA15D4F5EEC04AF1EE10FA00F1D285AF
:10350C00F0EE647A64EEA77A35EE205A87EE857A6F
:10351C00F4EEC72AF1EE10FA02D5F0EE472A354642
:10352C000436B6F5966F7FF448AFF5EE007A65EE8B
:10353C00A75AF4EEE25AF1EE10FA00F3BA85DFED79
:10354C00150A3B46EC1EA8462F1DB4F5966F5FD2AC
:10355C00AC4208BF013407EE904AB8EEE75ADFEDF3
:10356C000B5A009735EE215A2746F0EE656A002675
:10357C001C4615E000000C430000F0420000C8425D
:10358C000000204217B7D1388FC2753D00000000F3
:10359C0095BFD6335F7089300000A04200007042A6
:1035AC0007EE906AB8EEE74A023635EE040AFCF7ED
:1035BC00C5FEF0EE404A33EE840AFCF7BFFE64EE23
:1035CC00A47A64EE804AB6F5407F76EEA46A75EE76
:1035DC00A75AE5D1B4EEE53AF1EE10FA23463C4693
:1035EC00009F15DCF5EEC06AF1EE10FA00F1728561
:1035FC00F0EE667A66EEA76A75EEA05AC6EEA57A6C
:10360C00F4EEE27AF1EE10FA02DDF0EE672AA04653
:10361C000134BC4299D11F4600F04DBDB54BD96861
:10362C009B68B54B4FF0805199610D920D9B272BE8
:10363C0005DC0D9B01330D930D9B272BF9DDAD4B59
:10364C009A689407FCD501221A73AA4B9A68D00782
:10365C00FCD51B7B8AF87038A64B9A689107FCD571
:10366C00A0221A73A34B9A68D207FCD51B7B8AF84D
:10367C007138A04B9A689607FCD500221A739D4BA3
:10368C009A68D507FCD51B7B9A4A8AF872389368DE
:10369C0013F08003FBD1984A4FF4805191610C9345
:1036AC000C9B272B05DC0C9B01330C930C9B272BC1
:1036BC00F9DD904BDA689B688F4B4FF080529A6122
:1036CC0000230D930D9B272B05DC0D9B01330D93D4
:1036DC000D9B272BF9DD874B9A689407FCD50122AB
:1036EC001A73844B9A68D007FCD51B7B8AF8733805
:1036FC00804B9A689107FCD5E0221A737D4B9A682F
:10370C00D207FCD51B7B8AF874387A4B9A689607DB
:10371C00FCD500221A73774B9A68D507FCD51B7B16
:10372C00744A8AF87538936813F08003FBD1724A97
:10373C004FF4805191610C930C9B272B05DC0C9B57
:10374C0001330C930C9B272BF9DD9AF871389AF8FE
:10375C0072281B0203F47063134306EE903A9AF836
:10376C0074389AF875281B0203F470631343B3F58D
:10377C001B7F40F38081B3F57F6F80F26184A3F5EA
:10378C001B7307EE903A9FED5D5ADFED5D5AF8EE34
:10379C00E77A87EE857A67EE257AFCEEE77A17EE04
:1037AC00902ACDED007A9AF86C38002B00F011813C
:1037BC00544BDDED007A93ED037ADFED535ADFEDD8
:1037CC00534A1B7A9FED524AB8EEE75A37EE657AA8
:1037DC00DFED505ADFED507A25EE245A27EE257A8C
:1037EC00022BDFED4E4A08BFF0EE447A67EE857A85
:1037FC00B4EEE47AF7EE005AF1EE10FA75EEE75AF1
:10380C0040F3D080DFED467AB4EEE77AF1EE10FAB1
:10381C004CD4F8EEE67ADFED434A9FED435A67EE5F
:10382C00A47A67EE877A67EE857A9FED407AF4EE9C
:10383C00C77AF1EE10FAB8BFB0EE677AFDEEC77A30
:10384C0017EE903AF8EEE77A37EE677AB5EEC07A73
:10385C00F1EE10FA40F14B85B7EE005A37EE057ACF
:10386C00DFED337ADFED334ADFED333A9FED334A48
:10387C0067EE277A7E3377EEA47ADFED314A67EE76
:10388C00877ADB0577EEA37A67EE877A77EE847A10
:10389C0067EE877A77EEA47A67EE877A07EE103AAE
:1038AC0077EE857A67EE877A65EEA75ACBED5A5A92
:1038BC00DFED247A9FED247A9AF8683877EEC67A91
:1038CC0067EE877A36EE276A002B64D0D9ED017A41
:1038DC0036EE677AB5EEC07AF1EE10FA00F1BA80E6
:1038EC00DFED1A5AB4EEE57AF1EE10FA00F1BA8077
:1038FC002EE000BF00380040000402400040584554
:10390C0000F07F450000002000E0FF4401088039F2
:10391C008FC2753E0210003A8FC2753DCDCC4CBDA6
:10392C00CDCC4C3D010AA03A5555553F0000FE4206
:10393C0020C2AE3A3C951D3C4458633DF0FD753EAB
:10394C001872313F000000000AD7233D0AD7A33C70
:10395C009AF86938002B40F03783B4EEE76AF1EE41
:10396C0010FA04D8B4EE676AF1EE10FA7AD001239B
:10397C0089ED026A8AF86938C9ED007A5A4BC3EDB1
:10398C00047A16EE903AAAF82E38AAF8302809EDE7
:10399C00026AFFF7DEB9F0EE467A89ED006A89ED2E
:1039AC00026AEBE79FED515ADFED514AF8EEE67AE9
:1039BC0067EE857A9FED4F5A67EE877A67EEA47AA9
:1039CC00F4EEC57AF1EE10FA3FF62FAFDFED4A5A5E
:1039DC006CE74A4B996841F08041996019688C07F3
:1039EC00FCD5DB6C4049DFED465A91ED035A9FED57
:1039FC00457ADFED454AC3F30B0307EE903AF8EE38
:103A0C00677A77EEC57A67EEA57A77EE857A9FEDC1
:103A1C003F5AC1ED037A37EEC77AFCEEE77A27EE10
:103A2C00247A17EE903AB4EEC57AF1EE10FAAAF8B1
:103A3C00383840F3EB82B4EEE57AF1EE10FA40F14F
:103A4C00E582DDED007A9FED327AF8EEE77A67EEEB
:103A5C00877A2FE7DFED2F5AB4EEE57AF1EE10FA04
:103A6C007FF776AF4FF48073F0EE467A89ED026AF9
:103A7C00AAF8683880E70022009294E61A48426956
:103A8C0082EA423282EA524282EA421212F0010483
:103A9C0008BF4FF4803412F0020F426118BF4FF090
:103AAC00020E1D4808BF4FF4003E12F0040F14BF65
:103ABC004FF0800C4FF4000C12F0080F846114BF0F
:103ACC004FF480744FF0807412F0100F14BF4FF449
:103ADC0000624FF00062C0F818E0C0F818C08461B2
:103AEC008261FFF73BBA00BF00000020010AA03A38
:103AFC005555553F0000FCC200000000002201405B
:103B0C00CDCC4C3D00E0FF440210003ACDCC4CBD76
:103B1C00010880390AD7A3BC00000240DAF8A028BB
:103B2C009AF8A408002A40F0DB81DAF89028002AE1
:103B3C0040F022830122CAF8A02800287FF49BAB16
:103B4C000A46DAF890188A1A41F270718A427FF6A6
:103B5C0092ABBB4A1C9200228DF86D208DF86F2021
:103B6C00DBF81020CDF87A20DBF81420CDF87E207D
:103B7C00DBF81820CDF88220DBF81C20CDF886204D
:103B8C00DBF82020CDF88A20DBF82420CDF88E201D
:103B9C00DBF82820CDF89220DBF82C20CDF89620ED
:103BAC00A84A8DF86C7012698DF86E50CDF89A2079
:103BBC00A54ACDF876201B9ACDF89E2001228AF8D2
:103BCC00A4280DF175044FF6FF7241F2210014F890
:103BDC00011F82EA01225100150448BF41404A00EE
:103BEC00090448BF42405100120448BF41404A00FA
:103BFC000E0448BF42405100150448BF41404A00E2
:103C0C00090448BF42405100160448BF41400D040E
:103C1C004FEA41020DF1A10148BF4240A142D6D169
:103C2C008A49ADF874208A4A891A013A885C02F8EC
:103C3C00010F88488242F9D19A01A0F1FF04804912
:103C4C00A15004EB83131D9959601E9999601F991B
:103C5C00D960209919612199596122999961239907
:103C6C00D9612499196225995962269999622799E3
:103C7C00D96202F132002546211802F1300402F11A
:103C8C003E03BDF8A0202A534FF0FF322A504A6061
:103C9C008A60EA52704B1A69002A04DA6F4A5A6039
:103CAC0002F188325A606C4AD368D803FCD4F323EF
:103CBC00D360136923F47E7323F0020343F4067379
:103CCC0043F002031361136943F480331361624AB6
:103CDC00D368D903FCD41369614823F0FA03136148
:103CEC00136923F4407323F0010343F4007343F08E
:103CFC0001031361564B584AC01A191F03F1FC04F7
:103D0C00431851F8045F1D60D368DB03FCD4A14257
:103D1C00F6D113694B4923F001031361136943F086
:103D2C00004313619AF84D3801338AF84D38DAF8AC
:103D3C00903803F6B833CAF89438DAF890284B69FF
:103D4C0053404B61FFF797BAFF22FFF7FCB8B4EB77
:103D5C00860F4FEA86001AD0161896F80AE00DEB7B
:103D6C00000686F870E0461CB6B2B4420FD902EBDE
:103D7C00060E023080B26E449EF80AE086F870E0BF
:103D8C00844204D902446844927A80F87020DFEDB2
:103D9C00356A3548354C364EDFF8E0E0DFF8E08028
:103DAC00DFED347A0293B3EE047AFFF74ABA9AF84D
:103DBC002408B0FA80FE4FEA5E1E002A00F09B80B9
:103DCC009AF82568002E40F096800126B4428AF8B5
:103DDC0024188AF825687FF466A8FCEEE77ADBF8ED
:103DEC00044017EE902A022A38BF0222201F82427A
:103DFC0028BF0246DBF8080082428ABF2418821AC8
:103E0C00A21ACBE936200220CBF808208BF8D00080
:103E1C00194CDBF8082002264FF0030E8AF876E8DE
:103E2C00A6614FF40006A661DAF87848944240F295
:103E3C009A817646CAF878280124FFF763B800BF48
:103E4C0072383832000000200200280001C000083F
:103E5C00C0080020BF090020003C02402301674538
:103E6C0004C000080000204300000C430000F04296
:103E7C000000C84200002042000002400000A042A6
:103E8C00000070429BF8D020012ADBF8082040F09B
:103E9C00A1810646D2484FF40034846180248461A9
:103EAC004FF0807484619AF87C48CAF87828FCB189
:103EBC00013CE4B20120FFF725B8012CAAF8241824
:103ECC0000F082829AF87608012800F060810228BE
:103EDC00D8D0002800F0CC81DBF80820FEF7F4BF26
:103EEC0000283FF42EAEFFF7C6B90124FEF79ABFA7
:103EFC000120FFF70EB88AF82528012294428AF88F
:103F0C00242800F0A2809AF8760801284FF00006C9
:103F1C007EF4CEAFDBF80840DAF888289442C0F083
:103F2C004382002E40F02F82A01AFCEEE77A17EEA7
:103F3C00902A824240F25D819AF87668BEF1000FB9
:103F4C0000F03681CAF88848CBF8D44022460124C8
:103F5C00A3488BF8D04086E0B6EE007AF4EEC77A30
:103F6C00F1EE10FAC0F2A28037EEC77AF4EEC77AFF
:103F7C00F1EE10FAB4EEE77A94BF01230023F1EED0
:103F8C0010FAB8BFF0EE477A9FED967AF4EEC77A46
:103F9C0083F00107F1EE10FACBF860713EF7D4AE66
:103FAC00B2EE007A65EEC75AF4EEE75AF1EE10FA6B
:103FBC003EF7CAAEDBED527A76EEA71AFFF7C4B91C
:103FCC00F1EE477AFFF775B999ED027AF4EEC77AFC
:103FDC00F1EE10FA05DBB4EEE76AF1EE10FABFF67B
:103FEC0041ADF4EEC77AF1EE10FA3FF6C0ACB4EE88
:103FFC00E76AF1EE10FA3FF6BAAC4FF48073F0EECC
:10400C00467A89ED026AAAF86838B5E4F8EEE67AE1
:10401C00009967EE877AFDEEE77A17EE903A5B1817
:10402C003FF546AC40F6FF718B42A8BF0B4607EE3E
:10403C00903A9FED6D7AF8EEE77A67EE877A39E47D
:10404C0040F6FF720092FFF7AEBB002840F0BC8137
:10405C00DBF80820CBF8D42001208BF8D000002608
:10406C005F488AF876684FF4003484618024846158
:10407C004FF48074846116E70B4404EB8303D3ED97
:10408C00008A002A3FF415AA0A44FFF715BA0B441C
:10409C0004EB830393ED000A002A3FF4CDA90A44F4
:1040AC00FFF7CDB9F1EE647AFFF72CBA37EE877AC9
:1040BC005CE74FF00008DBF85C31002BBEF644AE39
:1040CC0007EE908AF8EEE77ACBED567ACBF85C7176
:1040DC00FEF73ABEF1EE667AFFF78CBA9AF89A2898
:1040EC00AA427EF457AF9AF89B089AF89C28FEF7E0
:1040FC0056BF032E7EF40DAF394A4FF48074946191
:10410C0003260024FEF705BFDBF80460DAF88828E4
:10411C00DAF88C48B24224BFB2FBF6FE06FB1E2234
:10412C00B44224BFB4FBF6FE06FB1E44A24200F0D0
:10413C004081CBE936244FF0020E294C8BF8D0E0AD
:10414C004FF400364FF0030ECBF808208AF876E8CF
:10415C00A6618026A6614FF08076A661DAF87848D1
:10416C0094423FF666AE9AF87C48CAF87828002C40
:10417C00C2D07646FEF7C4BEDAF89028CAF8A0285A
:10418C0000287FF478A8002A3FF475A8D9E4DBF85E
:10419C000840DAF88868FCEEE77AA64217EE902A17
:1041AC0024D904F5001EAEEB0606B24221D9064610
:1041BC009BF8D00022460A4C4FF4003EC4F818E09D
:1041CC004FF0800EC4F818E04FF4807EC4F818E06D
:1041DC00FEF787BE0124CBF8D4208BF8D04058E6EC
:1041EC00000002408FC2753D01088039A61BB24207
:1041FC00DDD81CF0400F08D002269BF8D000CAF87E
:10420C008C4822468AF87668D5E7DBF80460022AE7
:10421C0038BF0222301F824228BF0246A2428ABF08
:10422C003619A21AB21ACBE936248A4CCBF80820DC
:10423C004FF4003E022003268BF8D0008AF87668F3
:10424C00C4F818E04FF0800EC4F818E04FF4807EEC
:10425C00C4F818E0DAF87848A242FFF4EBAD9AF80B
:10426C007C48CAF87828002C7EF44AAE022043E73A
:10427C008E469BF8D000DBF80820012831D199ED4F
:10428C00097ADFED757AB4EEE77AF1EE10FA23D500
:10429C0001208AF8840899ED097AF5EE007AB4EEDB
:1042AC00E77AF1EE10FA0ADC022C08D008F48058F8
:1042BC0058EA0E0803D1464666480224EDE501266D
:1042CC000020CAF88828CBF8D4208BF8D0608AF864
:1042DC0076688AF88408EFE79AF884080028E3D017
:1042EC00D9E70120CBF8D4208BF8D000C7E7DFED5D
:1042FC005B7ADFED5B4A9FED5B5A9FED5B4A67EEA5
:10430C00277A7F3377EEA47ADB0567EE877ADFEDC9
:10431C00574A77EE857AB7EE005A67EE877A77EED2
:10432C00847AFFF7B5BA4B48CAF8882801260224CC
:10433C00CBF8D4208BF8D0608AF8766884614FF47F
:10434C0000048461AFE59BF8D020012A13D1002E24
:10435C007FF4DAAEDBF80820BEF1000F3FF499AD24
:10436C0001263C48CAF88828CBF8D4208BF8D060BA
:10437C008AF876688FE5DBF80820CBF8D420012288
:10438C008BF8D020E3E7DBF80400824203D3B2FBC6
:10439C00F0F600FB162294427FF445AF03269BF8FF
:1043AC00D0008AF8766806E74EB904F50010801A3A
:1043BC00BBE50320DBF808208AF8760869E5DBF812
:1043CC0004008242E3D22EE79AF876289BF8D000BC
:1043DC00032A07D001287FF43BAEDBF808203EE629
:1043EC008E46F2E401287FF413ADF6E709321CA8DF
:1043FC00A61812F801EF00F801EBB242F9D1282C03
:10440C007FF4C5ACFEF7ADBE194BFDF730BE907B0B
:10441C008DF8740005260420A9E40423FDF7C0BF21
:10442C0059685A685B684902C3F388134CBF10493A
:10443C00104902F03F02B1FBF2F202FB03F30E4A09
:10444C005268C2F3014201325200B3FBF2F3FDF7A2
:10445C000EBE00BF00000240CDCCCC3D20C2AE3A17
:10446C003C951D3C4458633DF0FD753E1872313F40
:10447C0000127A000024F40000380240DFF834D037
:10448C00FDF770FD0C480D490D4A002302E0D4588D
:10449C00C4500433C4188C42F9D30A4A0A4C002382
:1044AC0001E013600432A242FBD3FDF759FDFDF786
:1044BC0067FD70470000032000000020180000205A
:1044CC003446000818000020C0090020FEE7000058
:1044DC0000000000000000000102030406070809A8
:1044EC00000C02400E000000000C02400F00000007
:1044FC00000C024000000000000C02400100000013
:10450C0000100240070000000010024008000000EC
:10451C000010024009000000001002400A000000D8
:10452C00001002400B000000001002400C000000C4
:10453C00001002400D000000001002400E000000B0
:10454C00001002400F000000000C024008000000A8
:10455C00000C024009000000000C02400A000000A0
:10456C000014024000000000001402400100000092
:10457C00001402400200000000140240030000007E
:10458C00001402400400000000140240050000006A
:10459C00001402400C000000001402400D0000004A
:1045AC00001402400E000000001402400F00000036
:1045BC00001802400000000000180240010000003A
:1045CC000018024004000000001802400500000022
:1045DC00001002400000000000100240010000002A
:1045EC00001402400B000000001802400F000000F5
:1045FC000008024000000000001802400800000003
:10460C000004024005000000000402400600000007
:10461C00180000000C000000080000000102030458
:08462C00050607081118000043
:104634000024F400EEEEEEEE0100000000E0FF4482
:084644000000003F785634121B
:040000050800448922
:00000001FF
