:020000040800F2
:100000000000032059550008A9550008A95500080B
:10001000A9550008A9550008A955000800000000CE
:10002000000000000000000000000000A9550008CA
:10003000A955000800000000A9550008A9550008AE
:10004000A9550008A9550008A9550008A955000898
:10005000A9550008A9550008A9550008A955000888
:10006000A9550008A9550008A9550008A955000878
:10007000A9550008A9550008A9550008A955000868
:10008000A9550008A9550008A9550008A955000858
:10009000A9550008A9550008A9550008A955000848
:1000A000A9550008A9550008A9550008A955000838
:1000B000A9550008A9550008A9550008A955000828
:1000C000A9550008A9550008A9550008A955000818
:1000D000A9550008A9550008A9550008A955000808
:1000E000A9550008A9550008A9550008A9550008F8
:1000F000A9550008A9550008A9550008A9550008E8
:10010000A9550008A9550008A9550008A9550008D7
:10011000A9550008A9550008A9550008A9550008C7
:10012000A955000829170008A9550008A955000875
:10013000A9550008A9550008A9550008A9550008A7
:10014000A9550008A9550008A9550008A955000897
:10015000A9550008A9550008A9550008A955000887
:10016000A9550008A9550008A9550008A955000877
:10017000A9550008A9550008A9550008000000006D
:10018000A9550008A9550008A9550008A955000857
:10019000A9550008A9550008A9550008A955000847
:0C01A000A9550008A9550008A955000841
:1001AC0000EB820C012A00B5DCED006A0ED902F1DD
:1001BC00010E8E450AD21CED017A002B64D137EE6C
:1001CC00667A27EE007A37EE260A00BDB2F1010CF2
:1001DC0049D4614598BFACEB010C00EB8C0C9CED49
:1001EC00007A002BEBD0531C994298BF5B1A00EBA2
:1001FC008303012A93ED005AA2F1020342D09942E3
:10020C0098BF5B1A00EB8300D0ED005AB0EE046A85
:10021C0075EEC57A36EEC74A26EE866AF6EE004AC9
:10022C00F7EE083A24EE234A67EEA47A77EE073A03
:10023C0035EE466A77EE847A36EE236A65EEA45A7A
:10024C0067EE807A36EE656A37EE457A77EE867A17
:10025C0027EE247A67EE807A77EE877A67EE807ADB
:10026C0037EEA60A00BD8C4400EB8C0C9CED007A9A
:10027C00002BA4D0931E013237D50A4400EB820226
:10028C0092ED005A0B44BDE7DCED014A5CED025ADD
:10029C00B0EE046A75EEE47A36EEC74A26EE866A4C
:1002AC00B6EE005AF7EE083A24EE234A67EE857A4A
:1002BC0077EE073A34EEC66A77EE847A36EE236A26
:1002CC0065EE855A67EE807A36EE656A37EE647AAB
:1002DC0077EE867A27EE057A67EE807A77EE877A64
:1002EC0067EE807A37EEA60A00BD914298BF521A8B
:1002FC0000EB820292ED005A0B4483E72DE9F04F9C
:10030C002DED028BF5EEC00AF1EE10FA8BB005461E
:10031C0000F1F984F7EE007AF4EEE70AF1EE10FA48
:10032C00C8BFF0EE670AE14CD4ED326AD4ED337AF3
:10033C0094ED307AD4ED315A94ED2C6A77EEE67A5E
:10034C0067EEA07A77EEA67A77EEC77A67EEA57A93
:10035C0077EE877AB4EE676AF1EE10FAC4ED307A74
:10036C0040F0F682D4F8B430002B40F0F182206FCC
:10037C00216B676F666B94ED2F7A421A67EB06035D
:10038C0052EA030C27D007EE902A9FEDC96AF8EECB
:10039C00676A07EE903A66EE866AF8EEE77A77EED1
:1003AC00A67A67EE877AFDEEE76AB8EEE66A16EE95
:1003BC0090CA77EEC67AB0EE676ABEEEE06A16EEC9
:1003CC00103ADA17DB184CEB420253EA020C40F0FD
:1003DC004984C4E90C07A06FA16BE76FE66B421A66
:1003EC0067EB060352EA030C27D007EE902A9FED29
:1003FC00B06AF8EE676A07EE903A66EE866AF8EE37
:10040C00E77A77EEA67A67EE877AFDEEE76AB8EEC2
:10041C00E66A16EE90CA77EEC67AB0EE676ABEEE62
:10042C00E06A16EE103ADA17DB184CEB420253EA8C
:10043C00020C40F01084C4E90E07D4F88000216C43
:10044C00D4F88470666C421A67EB060352EA030C0C
:10045C0027D007EE902A9FED966AF8EE676A07EEB2
:10046C00903A66EE866AF8EEE77A77EEA67A67EE51
:10047C00877AFDEEE76AB8EEE66A16EE90CA77EE7A
:10048C00C67AB0EE676ABEEEE06A16EE103ADA177C
:10049C00DB184CEB420253EA020C40F0D683C4E961
:1004AC001007D4F88800A16CD4F88C70E66C421A52
:1004BC0067EB060352EA030C27D007EE902A9FED58
:1004CC007C6AF8EE676A07EE903A66EE866AF8EE9A
:1004DC00E77A77EEA67A67EE877AFDEEE76AB8EEF2
:1004EC00E66A16EE90CA77EEC67AB0EE676ABEEE92
:1004FC00E06A16EE103ADA17DB184CEB420253EABC
:10050C00020C40F09C83C4E91207D4F89000216DD2
:10051C00D4F89470666D421A67EB060352EA030C2A
:10052C0027D007EE902A9FED626AF8EE676A07EE15
:10053C00903A66EE866AF8EEE77A77EEA67A67EE80
:10054C00877AFDEEE76AB8EEE66A16EE90CA77EEA9
:10055C00C67AB0EE676ABEEEE06A16EE103ADA17AB
:10056C00DB184CEB420253EA020C40F06283C4E904
:10057C001407D4F89800A16DD4F89C70E66D421A5B
:10058C0067EB060352EA030C27D007EE902A9FED87
:10059C00486AF8EE676A07EE903A66EE866AF8EEFD
:1005AC00E77A77EEA67A67EE877AFDEEE76AB8EE21
:1005BC00E66A16EE90CA77EEC67AB0EE676ABEEEC1
:1005CC00E06A16EE103ADA17DB184CEB420253EAEB
:1005DC00020C40F02883C4E91607D4F8A000216E61
:1005EC00D4F8A470666E421A67EB060352EA030C49
:1005FC0027D007EE902A9FED2E6AF8EE676A07EE79
:10060C00903A66EE866AF8EEE77A77EEA67A67EEAF
:10061C00877AFDEEE76AB8EEE66A16EE90CA77EED8
:10062C00C67AB0EE676ABEEEE06A16EE103ADA17DA
:10063C00DB184CEB420253EA020C40F0EE82C4E9A8
:10064C001807D4F8A800A16ED4F8AC70E66E421A64
:10065C0067EB060352EA030C30D007EE902A9FEDAD
:10066C00146AF8EE676A07EE903A66EE866AF8EE60
:10067C00E77A77EEA67A67EE877ABDEEE77AF8EE40
:10068C00C76A17EE10CA77EEE67AF0EE676AFEEEEE
:10069C00E06A16EE903ADA17DB184CEB420253EA9A
:1006AC00020C40F0B482C4E91A0707E00000001005
:1006BC000000802F0000000000002043D4E901124C
:1006CC0094F8D030012B02F1010940F03E82D4EDB8
:1006DC004A7AD4ED4D6AB7EE007AF4EEC77AF1EEB1
:1006EC0010FA20EE260A09DA94ED4B7A30EE470A1E
:1006FC0020EE270A30EE070A84ED4B0AD4F83C6151
:10070C00002E00F3BB822668894506EB820380F03D
:10071C00B08209EB010AC846626B83ED000A002A1D
:10072C00B8BF0022236B94F83071C4F80890B8BF9E
:10073C000023002A40F0EB8201291FED220A00F26F
:10074C007F84A8EB02023B463046FFF729FDE26BA3
:10075C00A36B8DED020A002ABCBF00220023002AE5
:10076C0040F0EA8201291FED2D0A00F27D84A8EBEE
:10077C0002023B463046FFF713FD626C236C8DED95
:10078C00030A002ABCBF00220023002A40F0E982A1
:10079C0001291FED380A00F26584A8EB02023B46E2
:1007AC003046FFF7FDFCE26CA36C8DED040A002AC9
:1007BC00BCBF00220023002A40F0E88201291FED73
:1007CC00430A00F24D84A8EB02023B463046FFF789
:1007DC00E7FC626D236D8DED050A002ABCBF00227B
:1007EC000023002A40F0E78201291FED4E0A00F297
:1007FC003584A8EB02023B463046FFF7D1FCE26D94
:10080C00A36D8DED060A002ABCBF00220023002A2E
:10081C0040F0E68201291FED590A00F21D84A8EB75
:10082C0002023B463046FFF7BBFC626E236E8DED39
:10083C00070A002ABCBF00220023002A40F0E582F0
:10084C0001291FED640A00F20584A8EB02023B4665
:10085C003046FFF7A5FCE26EA36E8DED080A002A68
:10086C00BCBF00220023002A40F0E48201291FEDC6
:10087C006F0A00F2E783A8EB02023B463046FFF713
:10088C008FFC8DED090AD4ED397ADDED026A94ED19
:10089C00417A9DED036ADDED054A9DED065ADDEDCD
:1008AC00075A67EEA67ADDED046A67EE877AC5ED26
:1008BC00007AD4ED3A7A94ED427A67EE867A9DED21
:1008CC00086A67EE877AC5ED017AD4ED3B7A94ED30
:1008DC00437A67EEA67A67EE877AC5ED027A94EDD5
:1008EC003C7AD4ED446ADDED097A27EE247A27EEC2
:1008FC00267A85ED037A94ED3D7AD4ED456A27EEA0
:10090C00057A27EE267A85ED047A94ED3E7AD4EDBD
:10091C00466A27EE257A27EE267A85ED057A94ED40
:10092C003F7AD4ED476A27EE067A27EE267A85EDD4
:10093C00067AD4ED406A94ED487A67EEA67A67EEB3
:10094C00877AC5ED077A0BB0BDEC028BBDE8F08F52
:10095C001FEDA73AD4ED046A94ED056AD4ED0B2A89
:10096C00C4ED2C7A86EE837AC6EE034AD4ED066A81
:10097C0094ED076AC6EE833A86EE035AD4ED086A04
:10098C0094ED096A86EE834AD4ED0A6AC6EE035AE0
:10099C0086EE836AC2EE836A94ED2E3A27EE037AD2
:1009AC0064EE834A27EE277A64EEA74A25EE035AB3
:1009BC00FDEEC72ABDEEE42A25EE275A66EE836AC1
:1009CC00FDEEC50A63EE833A24EE034A65EE835AC4
:1009DC00F8EEE21A26EE036AB8EEC23A37EE617A06
:1009EC0074EEC34AB8EEE03A63EEA73A35EE435ADA
:1009FC00B0EE473ABDEEE31A24EE274ABEEEE03ADB
:100A0C0065EEA75A26EE276AFDEEC41A66EEA77AA3
:100A1C0013EE103AF8EEC16AB0EE643ABEEEE03A6C
:100A2C0012EE902AD81873EEE63AB8EEE17A4FEA55
:100A3C00E37342EB430313EE101A0022801834EEDA
:100A4C00474AB0EE637ABEEEE07A63672067CB1755
:100A5C0012EE100A49185B41184417EE103A891827
:100A6C00B0EE457ABEEEE07AA167D917DB18BDEE81
:100A7C00E58A4941E0679B1811EE100AC4F88030F2
:100A8C0017EE103A0144F8EEC84AB0EE447ABEEEC6
:100A9C00E07AC4F88410D917DB18FDEEC66A75EE3F
:100AAC00E45A10EE900A49419B18C4F8883017EEAE
:100ABC00103A0144F8EEE64AB0EE657ABEEEE07A02
:100ACC00C4F88C10D917DB18BDEEE73A36EE646A21
:100ADC0011EE900A49419B18C4F8903017EE103A69
:100AEC000144F8EEC34AB0EE467ABEEEE07AC4F8A2
:100AFC009410D917DB1818EE100A494177EEE47AF6
:100B0C009B18C4F8983017EE103A0144B0EE677A8F
:100B1C00BEEEE07AC4F89C10D917DB1816EE900ADA
:100B2C0049419B18C4F8A03017EE103A014413EE5B
:100B3C00100AC4F8A410D917DB1840EB41019B181C
:100B4C00C4E92A31C4F8B42011E4D4E93603894548
:100B5C0028BF4FF000095A184B45A2EB0002A3EB3B
:100B6C00000B0ABF8146A9EB000C4FF0000C984219
:100B7C0088BF9346266894F83071C4F8089009EB46
:100B8C000108BBF1000F00F06D8148459FEDB13AB3
:100B9C0000F21382DFF8C4A2CDE900050DF10808BC
:100BAC000AF14009654618E05D459FEDAD0A80F0FD
:100BBC006882BBF1010F2A4640F06A82121A009B30
:100BCC001A448A4200D3521A3B463046FFF7E8FAE1
:100BDC00D145A8EC010A00F06A825AF8082FDAF81D
:100BEC000430002BAEBF184600200022034600281C
:100BFC00DAD007EE902AB8EE670A5D4520EE030ABC
:100C0C00C0F03782B5FBFBF20BFB125232E2C91873
:100C1C0046EB0206C4E91A1650E5C91846EB020663
:100C2C00C4E918160DE5C91846EB0206C4E91616F8
:100C3C00D3E4C91846EB0206C4E9141699E4C918A2
:100C4C0046EB0206C4E912165FE4C91846EB02062D
:100C5C00C4E9101625E4C91846EB0206C4E90E16C1
:100C6C00FFF7EBBBC91846EB0206C4E90C16FFF7FD
:100C7C00B2BB4FF000098A46C8464DE5D4F8403166
:100C8C009FED756A83EA433383EA534383EA431344
:100C9C0083EA433080EA504080EA40101B0AC4F8D3
:100CAC004001000A07EE903A07EE100AF8EEE77AD8
:100CBC00B8EEC77A013E0123B34077EE877A07EE90
:100CCC00103A67EE867AB8EEC77AF7EE006A77EEDE
:100CDC00E67A20EE070AF6EE006A77EE807AF5EEF9
:100CEC00C07AF1EE10FAC0F2C18177EEA67AFDEE71
:100CFC00E77A2668F8EEE77A894587EE870A06EBED
:100D0C008203B6D205E5DFED560AFFF70CBB07EE02
:100D1C00903AB8EE670ADFED4F7A8A4220EE270A46
:100D2C0024BFB2FBF1F301FB1322424588BFAAEBAF
:100D3C0002023FF608AD04E507EE903AB8EE670AFA
:100D4C00DFED447A8A4220EE270A24BFB2FBF1F38E
:100D5C0001FB1322424588BFAAEB02023FF609AD04
:100D6C0005E507EE903AB8EE670ADFED3A7A8A426B
:100D7C0020EE270A24BFB2FBF1F301FB13224245FC
:100D8C0088BFAAEB02023FF60AAD06E507EE903AE1
:100D9C00B8EE670ADFED2F7A8A4220EE270A24BFCD
:100DAC00B2FBF1F301FB1322424588BFAAEB02020E
:100DBC003FF60BAD07E507EE903AB8EE670ADFEDAC
:100DCC00257A8A4220EE270A24BFB2FBF1F301FBFD
:100DDC001322424588BFAAEB02023FF60CAD08E590
:100DEC0007EE903AB8EE670ADFED1A7A914220EEE0
:100DFC00270A9CBFB2FBF1F301FB1322424588BFCB
:100E0C00AAEB02023FF60DAD09E507EE903AB8EEFB
:100E1C00670ADFED107A914220EE270A9CBFB2FBE5
:100E2C00F1F301FB1322424588BFAAEB02023FF605
:100E3C000EAD0AE507EE903AB8EE670ADFED057ADB
:100E4C008A4220EE270AC0F0FE80B2FBF1F301FBD0
:100E5C001322F8E00000802F0000803328000010DF
:100E6C0000000000626B236B002ABCBF0022002331
:100E7C00002A40F0268101291FED070A00F2358176
:100E8C00A9EB02023B463046FFF78AF9E26BA36BF3
:100E9C008DED020A002ABCBF00220023002A40F07C
:100EAC009C8101291FED120A00F2AD81A9EB02020F
:100EBC003B463046FFF774F9626C236C8DED030AE8
:100ECC00002ABCBF00220023002A40F072810129B5
:100EDC001FED1D0A00F29581A9EB02023B4630463C
:100EEC00FFF75EF9E26CA36C8DED040A002ABCBF1F
:100EFC0000220023002A40F0488101291FED280A16
:100F0C0000F28581A9EB02023B463046FFF748F917
:100F1C00626D236D8DED050A002ABCBF00220023F3
:100F2C00002A40F01E8101291FED330A00F26D8169
:100F3C00A9EB02023B463046FFF732F9E26DA36D96
:100F4C008DED060A002ABCBF00220023002A40F0C7
:100F5C00F48001291FED3E0A00F25D81A9EB02022B
:100F6C003B463046FFF71CF9626E236E8DED070A87
:100F7C00002ABCBF00220023002A40F0CA800129AD
:100F8C001FED490A00F24581A9EB02023B463046AF
:100F9C00FFF706F9E26EA36E8DED080A002ABCBFBE
:100FAC0000220023002A40F0A28001291FED540AE0
:100FBC0000F23381A9EB02025FE40095DFF86CA22A
:100FCC00A8EB00080DF10809054619E0D8459FED7E
:100FDC00940A64D2BBF1010F404603D00123834233
:100FEC0088BF5844C31AEA188A4228BF521A3B4693
:100FFC003046FFF7D5F88B4BA9EC010A9A4559D02E
:10100C005AF8080FDAF80420002AAEBF1346002362
:10101C0000201A46002BD9D007EE900AD845B8EE1E
:10102C00670A2ABFB8FBFBF040460BFB10805B4500
:10103C0020EE030A24BFB3FBFBF30BFB1323CEE719
:10104C00012272E60122424588BFAAEB02023FF65A
:10105C0014AC10E40122E6E60122CFE60122B8E648
:10106C000122A1E601228AE6012273E677EEE67AF6
:10107C003DE62A465B450CD3B3FBFBF00BFB103073
:10108C0007E0BBF1010F1AD0B5FBFBF20BFB1252C0
:10109C0001208242BFF492AD5A44121A8FE5BBF183
:1010AC00010F0AD0B8FBFBF00BFB108096E7019DFB
:1010BC00FFF7E9BB009DFFF7E6BB184692E7024637
:1010CC007CE507EE903AB8EE670ADFED577A91426D
:1010DC0020EE270A9CBFB2FBF1F301FB13229145D2
:1010EC00BFF4CEAEA8EB0202CCE60122F7E707EE86
:1010FC00903AB8EE670ADFED4C7A8A4220EE270A66
:10110C0024BFB2FBF1F301FB13229145FFF4B3AB07
:10111C0050E707EE903AB8EE670ADFED437A91425A
:10112C0020EE270A9CBFB2FBF1F301FB1322914581
:10113C00BFF42AAFA8EB020228E707EE903AB8EE0C
:10114C00670ADFED397A914220EE270A9CBFB2FB89
:10115C00F1F301FB13229145BFF400AFA8EB02029F
:10116C00FEE607EE903AB8EE670ADFED2F7A914271
:10117C0020EE270A9CBFB2FBF1F301FB1322914531
:10118C00BFF4D6AEA8EB0202D4E607EE903AB8EE66
:10119C00670ADFED257A914220EE270A9CBFB2FB4D
:1011AC00F1F301FB13229145BFF4ACAEA8EB0202A4
:1011BC00AAE607EE903AB8EE670ADFED1B7A914289
:1011CC0020EE270A9CBFB2FBF1F301FB13229145E1
:1011DC00BFF482AEA8EB020280E607EE903AB8EEBE
:1011EC00670ADFED117A914220EE270A9CBFB2FB11
:1011FC00F1F301FB13229145BFF458AEA8EB0202A8
:10120C0056E60122E3E70122F5E70122B7E70122C6
:10121C00C9E701228BE701229DE7012275E700BF98
:10122C0000000000680000100000802F2800001053
:10123C0030B5D04CD4ED527A94ED531AF7EE001A27
:10124C0071EEE71A83B0F5EEC01AF1EE10FA00F168
:10125C001D81B0EE617ADFEDC87AD4ED540A616875
:10126C00B4EEE77AF1EE10FA00F1608194ED552AB4
:10127C009FEDC27ADFEDC26AF6EE007A22EE077AB3
:10128C00B4EEE72AF1EE10FA67EE266A80F2E880F7
:10129C00F5EEC06AF1EE10FA72EE272A19DAFEEEBC
:1012AC00007A77EEA67A9FEDB76ADFEDB76AFDEEAE
:1012BC00E77AF8EEE77A67EE867A37EE677AB4EE7D
:1012CC00E67AF1EE10FA40F3E480DFEDAC7A37EE1B
:1012DC00C77A67EE075ADFEDAD7A9FEDAD6ADFEDA9
:1012EC00AD6ADFEDAD4A94ED595A65EEA77A77EE0B
:1012FC00C67AB7EE006A67EEA57A77EEA67AD4EDD9
:10130C00586A67EEA57A76EE856A77EEE47A67EE30
:10131C00A57AF6EE005A77EE867A66EEA56A67EE47
:10132C00877A76EE666A67EEA77AF5EEC07AF1EE0A
:10133C0010FA36EE676A40F2F680B1EEE77A37EED5
:10134C00677AB5EEC06A27EE267AF1EE10FA37EE20
:10135C00277A40F2E580B1EEC63A21EE020AD4EDCE
:10136C00567AA56820688DED017A30EE200A33EEAE
:10137C00463A30EE270A23EE263AFCEEC07A33EEDC
:10138C00063A17EE902A8A4224BFB2FBF1F301FB16
:10139C0013229542F8EE677A36BF6B18AA1A9A1A7E
:1013AC0030EE670A01230090FEF7FAFE61EE227A16
:1013BC00D4ED576A9DED017A009877EEA07A67EE2E
:1013CC00002A77EEA67ABCEEE77A17EE102A8A424C
:1013DC0024BFB2FBF1F301FB1322AA42B8EE477A09
:1013EC0088BF6D1837EEC70AAA1A0123FEF7D8FE7C
:1013FC00C1EE817AB7EE007A77EE827A23EE000A9C
:10140C00F4EEC77AF1EE10FA30EE220A4EDBD4F885
:10141C007031002B7BD1D4F86C21D4F87031C4F826
:10142C005821002B7AD1D4F86821C4F86021B7EE8A
:10143C00007AF4EEC77A4FF0FF33F1EE10FAC4F8ED
:10144C00703110DB77EEC77AF4EEC77AF1EE10FA52
:10145C00F8DA0123C4F87431C4ED557A03B030BD09
:10146C0072EE672A1DE7F5EEC07A0123F1EE10FA51
:10147C00C4F87431F0D577EE877AF5EEC07AF1EED8
:10148C0010FAF8D4C4ED557A03B030BDB1EE617AE0
:10149C00E1E6DFED427AB4EEE77AF1EE10FA7FF591
:1014AC0018AFDFED3F7A37EEC77A12E7F5EEC07A68
:1014BC00F1EE10FAABD4B6EE007AB4EEC72AF1EE28
:1014CC0010FAF4EEC77AACBF01220022F1EE10FA4A
:1014DC00ACBF012300239A42BED0D4F87031012B4B
:1014EC0008BFD4F86C21D4F8703118BF0022012B3E
:1014FC00C4F85C214FF0FF3308BFD4F86821C4F85E
:10150C00703118BF0022C4F864210023A2E7D4F87C
:10151C0070310022C4F85821002B84D0002284E7BB
:10152C009FED203A19E79FED1F7A08E7B6EE000A07
:10153C0021EE000A4FF0FF3330EE200AC4F8703170
:10154C00FCEEC07A206817EE902A8A4224BFB2FBC8
:10155C00F1F301FB1322A368F8EE677A934238BFCC
:10156C005B1830EE670A9A1A012303B0BDE83040CD
:10157C00FEF716BE0000001017B7D138DB0F49403C
:10158C0083F9223EDB0FC940DB0FC93F91EE3836A1
:10159C00470C50398588083CABAA2A3EDB0FC9BFE3
:1015AC00DB0F49C000000000DFF8C0C02E4BDCF898
:1015BC00002042F48072CCF80020ACF5806C01E085
:1015CC00013B44D0DCF81424D207F9D5274A264B2A
:1015DC004FF0920CC2F810C0DFF894C001E0013B50
:1015EC002DD0DCF814249207F9D5204A1E4B9269B1
:1015FC00DFF87CC001E0013B2CD0DCF8142412068F
:10160C00F9D51A4A184BDFF868C0106101E0013BAC
:10161C0023D0DCF814241006F9D5144A124B1448C4
:10162C00116101E0013B1BD0D0F814245207F9D50D
:10163C000E4A136843F400730020136070470B4A82
:10164C00136843F400736FF00100136070474FF0A0
:10165C00FF3070476FF0020070476FF00300704767
:10166C006FF00400704700BF400D030000540040B1
:10167C000050004010B5DFF8A0C0864684B0172299
:10168C0000214FF480644FF080602EFA02F313F0C7
:10169C00010F0CBF4FF080534FF48053CCF818302F
:1016AC000191019B0B2B05DC019B01330193019BE9
:1016BC000B2BF9DDCCF818400291029B0B2B05DCAF
:1016CC00029B01330293029B0B2BF9DDCCF8180023
:1016DC000391039B0B2B05DC039B01330393039BAF
:1016EC000B2BF9DD013AD0D20A4A00234FF400410A
:1016FC0091610093009B0B2B05DC009B0133009345
:10170C00009B0B2BF9DD034B4FF000429A6104B0A8
:10171C0010BD00BF00000240000802402DE9F04F50
:10172C00154B2DED088B1A6852058BB009D4124B52
:10173C001A68100500F143830BB0BDEC088BBDE8B3
:10174C00F08FDFF848A00D4D9FED0DAADFED0D9A3F
:10175C009FED0D9A4FF480629A60D5ED048AD146C4
:10176C000AEB020BB7EE008A4FF000080AF6980657
:10177C000AF6840402AF3FE100640240000000203E
:10178C00000000346F12033BFEFFFF4A1C000020D8
:10179C00B6EE083AB4EEC34AF1EE10FA40F3038207
:1017AC0034EE434AF1EE002A64EE222A72EE882AC5
:1017BC00C4EE223A73EE833AF4EEC83AF1EE10FA24
:1017CC0040F3F181894BCBF80030F5EEC05AF1EEC5
:1017DC0010FAB0EE654A00F11C86F6EE083AF4EE0B
:1017EC00E35AF1EE10FA40F32D8675EEE35AB1EEA2
:1017FC00003A25EE833A33EE083A85EE834A34EE0E
:10180C00234AB4EEC84AF1EE10FA40F31B86774B2C
:10181C00CBF80430B5EEC05AF1EE10FAB0EE454AF2
:10182C0000F1CB85F6EE085AB4EEE55AF1EE10FA5B
:10183C0040F3DC8535EE655AF1EE003A65EE233A5D
:10184C0073EE883A85EE234A34EE254AB4EEC84A44
:10185C00F1EE10FA40F3CA85644BCBF80830B5EEC4
:10186C00C06AF1EE10FAF0EE465A00F17A85B6EE47
:10187C00085AB4EEC56AF1EE10FA40F38B8536EED9
:10188C00456AB1EE004A26EE044A34EE084AC6EE2A
:10189C00045A75EE855AF4EEC85AF1EE10FA40F37C
:1018AC007985524BCBF80C30F5EEC06AF1EE10FA9C
:1018BC00B0EE666A00F12985F6EE085AF4EEE56A98
:1018CC00F1EE10FA40F33A8576EEE56AB1EE005A85
:1018DC0026EE855A35EE085A86EE856A36EE256A6E
:1018EC00B4EEC86AF1EE10FA40F328853F4BCBF802
:1018FC001030B5EEC07AF1EE10FAF0EE476A00F156
:10190C00D884B6EE086AB4EEC67AF1EE10FA40F35B
:10191C00E98437EE467AF1EE005A67EE255A75EEF9
:10192C00885AC7EE256A76EE866AF4EEC86AF1EE3E
:10193C0010FA40F3D7842D4BCBF81430F5EEC07A67
:10194C00F1EE10FAB0EE677A00F18784F6EE086AD1
:10195C00F4EEE67AF1EE10FA40F3988477EEE67A3C
:10196C00B1EE006A27EE866A36EE086A87EE867A52
:10197C0037EE267AB4EEC87AF1EE10FA40F386848C
:10198C001A4BCBF81830F5EEC04AF1EE10FAB0EE67
:10199C00647A00F17981F6EE087AF4EEE74AF1EE1A
:1019AC0010FA40F38A8174EEE74AF1EE006A64EEB5
:1019BC00A66A76EE886A84EEA67A37EE277AB4EEBB
:1019CC00C87AF1EE10FA40F3788195F91820074B9C
:1019DC00CBF81C30002A80F28881054B0BF1200BD0
:1019EC009B4509F1200900F0BF8105E0FFFF7F0056
:1019FC001C06002072F97F3FD9F8003043F317031F
:101A0C0000EE103AB8EEC00A20EE0A0AB5EEC00A93
:101A1C00F1EE10FA00F13581F0EE40AAD9F804206D
:101A2C00D6ED006AD9F8083096ED006A42F3170239
:101A3C0007EE102A7AEEE66AB8EEC77A43F317037C
:101A4C0066EEA96A07EE903A27EE0A7A76EE866A77
:101A5C00F8EEE77AB5EEC07AF1EE10FA67EE8A7A14
:101A6C00C6ED006A01D5B1EE477AF5EEC07AF1EE1B
:101A7C0010FA01D5F1EE677A94ED006AD4ED006AA4
:101A8C0037EE467AF0EE680A27EE297A384637EEBA
:101A9C00267A84ED007AD4ED016A94ED017A77EE22
:101AAC00E67A67EEA97A77EE877AC4ED017AFEF7CB
:101ABC0025FC9AF87038002B40F0DA849DED024A30
:101ACC00DDED035A9DED045A9DED056ADDED066AC8
:101ADC009DED077ADDED087ADDED094AB0EE441A8A
:101AEC00F0EE651AB0EE452AF0EE462AB0EE663AF4
:101AFC00B0EE470AF0EE670AF0EE643AB4EEC81A9C
:101B0C00F1EE10FAC0F2A8800123F4EEC81AF1EE3F
:101B1C0010FAC0F297800123B4EEC82AF1EE10FA45
:101B2C00C0F286800123F4EEC82AF1EE10FA75DBC0
:101B3C000123B4EEC83AF1EE10FA65DB0123B4EEE2
:101B4C00C80AF1EE10FA55DB0123F4EEC80AF1EEE7
:101B5C0010FA45DB0123F4EEC83AF1EE10FA34DB4F
:101B6C004FF00108B5EEC04AF1EE10FAF0EE443A2F
:101B7C007FF50EAEBEEE084AF4EEC43AF1EE10FA62
:101B8C0011D5F6EE082AF1EE633A73EEE23AB1EEB5
:101B9C00004A23EE844A34EE084A83EE843A33EE4C
:101BAC00224AF1EE443ABFEE004AB4EEE34AF1EEBB
:101BBC0010FAD8BFB0EE634A24EE094ABDEEC44A0F
:101BCC0014EE103A23F07F43FDE5BFEE003AF4EE3D
:101BDC00C33AF1EE10FA8CBF984643F00108C1E706
:101BEC00BFEE003AF4EEC30AF1EE10FA98BF43F0E0
:101BFC000103B0E7BFEE003AB4EEC30AF1EE10FAFF
:101C0C0098BF43F00103A0E7FFEE002AB4EEE23ADE
:101C1C00F1EE10FA98BF43F0010390E7BFEE002AF3
:101C2C00F4EEC22AF1EE10FA98BF43F0010380E7FC
:101C3C00FFEE001AB4EEE12AF1EE10FA98BF43F071
:101C4C00010370E7BFEE001AF4EEC11AF1EE10FAC0
:101C5C0098BF43F001035FE71FED9ABAF4EECBAAED
:101C6C00FFEE00AAF1EE10FAB4EEEA1AACBF0123B3
:101C7C000023F1EE10FA98BF43F0010343EA080386
:101C8C0043E7F1EE40AAC9E6FEEE087AF4EEE74A25
:101C9C00F1EE10FA11D5B6EE086AB1EE647A37EEB1
:101CAC00467AF1EE007A67EE277A77EE887AC7EEFD
:101CBC00276A76EE867AB1EE677AFFEE007AF4EE5A
:101CCC00C77AF1EE10FAD8BFF0EE477A67EE897A50
:101CDC0095F91820FDEEE77A002A17EE903A23F0DA
:101CEC007F43CBF81C30FFF678AE95F9183013B162
:101CFC000023CBF8003095F91830012B1CBF0023C2
:101D0C00CBF8043095F91830022B1CBF0023CBF80C
:101D1C00083095F91830032B1CBF0023CBF80C307E
:101D2C0095F91830042B1CBF0023CBF8103095F913
:101D3C001830052B1CBF0023CBF8143095F9183044
:101D4C00062B1CBF0023CBF8183095F91830072B45
:101D5C001CBF0023CBF81C30264B0BF1200B9B45F2
:101D6C0009F120097FF448AEDAF8A0380133CAF83B
:101D7C00A038B8F1000F40F07D87DAF8A028DAF827
:101D8C00A4389A4280F08887DAF8A028DAF8A438C8
:101D9C009A42FFF4CCAC94ED007ADFED177A174B36
:101DAC00B4EEE77AF1EE10FACCBF4FF000624FF4CC
:101DBC0000629A61124B1A6810057FF5BDACDFF812
:101DCC0054A0104D9FED10AADFED109A9FED109AC4
:101DDC004FF400629A60D5ED048AD1460AF5806B07
:101DEC00B7EE008A4FF000080AF698060AF684044B
:101DFC0002AF1FE11C0600200AD7A33C00000240E2
:101E0C000064024000000020000000346F12033B0D
:101E1C00FEFFFF4A1C000020F6EE083AF4EEE35AEF
:101E2C00F1EE10FA40F3078275EEE35AB1EE003A88
:101E3C0025EE833A33EE083A85EE834A34EE234A94
:101E4C00B4EEC84AF1EE10FA40F3F581774BCBF8BB
:101E5C000432B5EEC05AF1EE10FAB0EE454A00F17C
:101E6C00CE85F6EE085AB4EEE55AF1EE10FA40F3D0
:101E7C00DF8535EE655AF1EE003A65EE233A73EEE6
:101E8C00883A85EE234A34EE254AB4EEC84AF1EE80
:101E9C0010FA40F3CD85654BCBF80832B5EEC06A2D
:101EAC00F1EE10FAF0EE465A00F17D85B6EE085AC6
:101EBC00B4EEC56AF1EE10FA40F38E8536EE456A43
:101ECC00B1EE004A26EE044A34EE084AC6EE045A35
:101EDC0075EE855AF4EEC85AF1EE10FA40F37C8593
:101EEC00524BCBF80C32F5EEC06AF1EE10FAB0EEB4
:101EFC00666A00F12C85F6EE085AF4EEE56AF1EE0E
:101F0C0010FA40F33D8576EEE56AB1EE005A26EE06
:101F1C00855A35EE085A86EE856A36EE256AB4EE99
:101F2C00C86AF1EE10FA40F32B85404BCBF8103217
:101F3C00B5EEC07AF1EE10FAF0EE476A00F1DB84F0
:101F4C00B6EE086AB4EEC67AF1EE10FA40F3EC8401
:101F5C0037EE467AF1EE005A67EE255A75EE885A3E
:101F6C00C7EE256A76EE866AF4EEC86AF1EE10FAD0
:101F7C0040F3DA842D4BCBF81432F5EEC07AF1EE47
:101F8C0010FAB0EE677A00F18A84F6EE086AF4EE85
:101F9C00E67AF1EE10FA40F39B8477EEE67AB1EE36
:101FAC00006A27EE866A36EE086A87EE867A37EE86
:101FBC00267AB4EEC87AF1EE10FA40F389841B4B02
:101FCC00CBF81832F5EEC04AF1EE10FAB0EE647AA6
:101FDC0000F1CA83F6EE087AF4EEE74AF1EE10FA55
:101FEC0040F3DB8374EEE74AF1EE006A64EEA66A16
:101FFC0076EE886A84EEA67A37EE277AB4EEC87A43
:10200C00F1EE10FA40F3C98395F91820074BCBF881
:10201C001C32002A80F2D983054B0BF1200B9B4517
:10202C0009F1200900F0108404E000BFFFFF7F00DD
:10203C001C060020D9F8003243F3170300EE103AC7
:10204C00B8EEC00A20EE0A0AB5EEC00AF1EE10FA9C
:10205C0000F17E83F0EE40AAD9F80422D6ED006A96
:10206C00D9F8083296ED006A42F3170207EE102AEF
:10207C007AEEE66AB8EEC77A43F3170366EEA96AFE
:10208C0007EE903A27EE0A7A76EE866AF8EEE77A51
:10209C00B5EEC07AF1EE10FA67EE8A7AC6ED006AF8
:1020AC0001D5B1EE477AF5EEC07AF1EE10FA01D512
:1020BC00F1EE677A94ED006AD4ED006A37EE467A59
:1020CC00F0EE680A27EE297A384637EE267A84ED48
:1020DC00007AD4ED016A94ED017A77EEE67A67EE38
:1020EC00A97A77EE877AC4ED017AFEF707F99AF8A8
:1020FC007038002B40F0B6849DED024ADDED035A9A
:10210C009DED045A9DED056ADDED066A9DED077A9D
:10211C00DDED087ADDED094AF0EE440AB0EE651A01
:10212C00B0EE45BAF0EE461AB0EE662AF0EE472A4B
:10213C00B0EE673AF0EE643AF4EEC80AF1EE10FA3B
:10214C00C0F2F1820123B4EEC81AF1EE10FAC0F21B
:10215C00E0820123B4EEC8BAF1EE10FAC0F2CF82DD
:10216C000123F4EEC81AF1EE10FAC0F2BE8201237C
:10217C00B4EEC82AF1EE10FAC0F2AD820123F4EEEF
:10218C00C82AF1EE10FAC0F29C820123B4EEC83AD0
:10219C00F1EE10FAC0F28B820123F4EEC83AF1EEA4
:1021AC0010FAC0F279824FF00108B5EEC04AF1EE98
:1021BC0010FAF0EE443A00F14482B6EE083AB4EE6E
:1021CC00C34AF1EE10FA40F3558234EE434AF1EE75
:1021DC00002A64EE222A72EE882AC4EE223A73EEAA
:1021EC00833AF4EEC83AF1EE10FA40F343829F4B77
:1021FC00CBF80032F5EEC05AF1EE10FAB0EE654AAB
:10220C007FF50AAEFEEE085AB4EEE54AF1EE10FA8E
:10221C0011D5B6EE083AB1EE444A34EE434AF1EE2B
:10222C00005A64EE255A75EE885AC4EE253A73EEC0
:10223C00835AB1EE654AFFEE005AF4EEC45AF1EE41
:10224C0010FAD8BFF0EE445A65EE895AFDEEE55A05
:10225C0015EE903A23F07F43F9E5FEEE087AB4EEE2
:10226C00E77AF1EE10FA11D5B6EE086AB1EE477ABC
:10227C0037EE467AF1EE007A67EE277A77EE887AB7
:10228C00C7EE276A76EE867AB1EE677AFFEE007AB1
:10229C00F4EEC77AF1EE10FAD8BFF0EE477A67EE9B
:1022AC00897AFDEEE77A17EE903A23F07F43FFF739
:1022BC0068BBBEEE087AF4EEC76AF1EE10FA11D5DF
:1022CC00F6EE085AF1EE666A76EEE56AB1EE007A41
:1022DC0026EE877A37EE087A86EE876A36EE257A0E
:1022EC00F1EE476ABFEE007AB4EEE67AF1EE10FA40
:1022FC00D8BFB0EE667A27EE097ABDEEC77A17EE34
:10230C00103A23F07F43FFF717BBFEEE086AB4EEDA
:10231C00E66AF1EE10FA11D5B6EE085AB1EE466A3D
:10232C0036EE456AF1EE006A66EE266A76EE886A4B
:10233C00C6EE265A75EE856AB1EE666AFFEE006A45
:10234C00F4EEC66AF1EE10FAD8BFF0EE466A66EE0D
:10235C00896AFDEEE66A16EE903A23F07F43FFF7AA
:10236C00C6BABEEE086AF4EEC65AF1EE10FA11D5F2
:10237C00B6EE084AF1EE655A75EEC45AB1EE006A33
:10238C0025EE866A36EE086A85EE865A35EE046AC4
:10239C00F1EE465ABFEE006AB4EEE56AF1EE10FAC1
:1023AC00D8BFB0EE656A26EE096ABDEEC66A16EEB7
:1023BC00103A23F07F43FFF775BAFEEE085AB4EEDD
:1023CC00E55AF1EE10FA11D5B1EE454AF6EE083A9F
:1023DC0034EE634AF1EE005A64EE255A75EE885AD3
:1023EC0084EE255A75EE235AB1EE654AFFEE005A7B
:1023FC00F4EEC45AF1EE10FAD8BFF0EE445A65EE82
:10240C00895AFDEEE55A15EE903A23F07F43FFF71B
:10241C0024BAFEEE085AB4EEE54AF1EE10FA11D5E4
:10242C00B6EE083AB1EE444A34EE434AF1EE005AA5
:10243C0064EE255A75EE885AC4EE253A73EE835A2B
:10244C00B1EE654AFFEE005AF4EEC45AF1EE10FA02
:10245C00D8BFF0EE445A65EE895AFDEEE55A15EEFA
:10246C00903A23F07F43FFF7D3B900BFFFFF7F0003
:10247C00B94BD3ED5E6AD3ED5F7A93ED606A77EE7C
:10248C00E67AB5EE007A67EE867A77EEA67AF4EE07
:10249C00C77AF1EE10FAC3ED5E7A08D4B1EE007A89
:1024AC00F4EEC77AF1EE10FAD8BFB0EE677A83ED8E
:1024BC00527A0193FEF7BCFE019BD3ED5E3A73EEAC
:1024CC00C83AF5EEC03AF1EE10FA01D5F1EE633AE6
:1024DC00DAF8B839A14ADFEDA27A9DED024ADDEDBA
:1024EC00094ADDED035A9DED045A9DED056ADDEDBB
:1024FC00066A9DED077AC3F3090002EB800080EDBC
:10250C00000AA3F17F00C0F3090002EB8000D0EDBC
:10251C00001AA3F1FB00C0F3090002EB80006FF47A
:10252C00BF7C90ED002A03EB0C00C0F3090002EB1A
:10253C0080006FF4FE71D0ED002A5818C0F309002A
:10254C0063EEA73A02EB800090ED003A6FF4207036
:10255C00F4EEC83A1818F1EE10FAC0F30900C8BF2F
:10256C00F0EE483A02EB80006FF4407C63EE807A28
:10257C0090ED000A03EB0C00C0F3090038EE63BACF
:10258C0002EB8000D0ED000AA3F277302BEE041A98
:10259C00C0F3090002EB800231EE271AD2ED007A6B
:1025AC008DED021A63EEA11A23EE822A63EEA22AA3
:1025BC0023EE833A23EE800A63EEA00A63EEA73A79
:1025CC00DDED087A6BEE277A6BEE255A70EEA70AD2
:1025DC002BEE055A6BEE247A2BEE066A6BEE266A0E
:1025EC002BEE077A73EEA73A71EEA51A32EE052A96
:1025FC0072EE862A33EE263A30EE070A0133B0EE3D
:10260C00414AF0EE615ACDED031AB0EE425A8DED0F
:10261C00042ACAF8B839CDED052A8DED063A8DEDB0
:10262C00070ACDED080ACDED093AB0EE626AF0EE7C
:10263C00436AB0EE407AF0EE607AF0EE634AFFF750
:10264C005DBABEEE084AF4EEC43AF1EE10FA11D5BA
:10265C00F6EE082AF1EE633A73EEE23AB1EE004A76
:10266C0023EE844A34EE084A83EE843A33EE224A4F
:10267C00F1EE443ABFEE004AB4EEE34AF1EE10FA42
:10268C00D8BFB0EE634A24EE094ABDEEC44A14EE3C
:10269C00103A23F07F43ABE5BFEE003AF4EEC33AB9
:1026AC00F1EE10FA8CBF984643F001087DE5FFEE81
:1026BC00002AB4EEE23AF1EE10FA98BF43F00103AF
:1026CC006BE5BFEE002AF4EEC22AF1EE10FA98BFC9
:1026DC0043F001035AE5FFEE001AB4EEE12AF1EEE5
:1026EC0010FA98BF43F0010349E5BFEE001AF4EE6F
:1026FC00C11AF1EE10FA98BF43F0010338E5BFEEB2
:10270C00001AB4EEC1BAF1EE10FA98BF43F001030F
:10271C0027E5FFEE000AB4EEE01AF1EE10FA98BFCE
:10272C0043F0010316E5BFEE000AF4EEC00ADFED3C
:10273C000D0AF1EE10FAF4EEE0AA94BF0123002387
:10274C00F1EE10FAA8BF43F0010343EA0803FAE4E0
:10275C00F1EE40AA80E400BF0000001084010010DC
:10276C000000484272F97F3FFEEE087AF4EEE74A29
:10277C00F1EE10FA11D5B6EE086AB1EE647A37EEC6
:10278C00467AF1EE007A67EE277A77EE887AC7EE12
:10279C00276A76EE867AB1EE677AFFEE007AF4EE6F
:1027AC00C77AF1EE10FAD8BFF0EE477A67EE897A65
:1027BC0095F91820FDEEE77A002A17EE903A23F0EF
:1027CC007F43CBF81C32FFF627AC95F9183013B1C8
:1027DC000023CBF8003295F91830012B1CBF0023D5
:1027EC00CBF8043295F91830022B1CBF0023CBF820
:1027FC00083295F91830032B1CBF0023CBF80C3290
:10280C0095F91830042B1CBF0023CBF8103295F926
:10281C001830052B1CBF0023CBF8143295F9183057
:10282C00062B1CBF0023CBF8183295F91830072B58
:10283C001CBF0023CBF81C32874B0BF1200B9B45A4
:10284C0009F120097FF4F6ABDAF8A0380133CAF8A5
:10285C00A038B8F1000F40F0EF81DAF8A028DAF8D0
:10286C00A4389A4280F0FA81DAF8A028DAF8A43871
:10287C009A42FEF461AF94ED007ADFED787A784BF2
:10288C00B4EEE77AF1EE10FACCBF4FF000624FF4E1
:10289C0000629A610BB0BDEC088BBDE8F08FFEEEC8
:1028AC00087AB4EEE77AF1EE10FA11D5B6EE086AB2
:1028BC00B1EE477A37EE467AF1EE007A67EE277A78
:1028CC0077EE887AC7EE276A76EE867AB1EE677A6B
:1028DC00FFEE007AF4EEC77AF1EE10FAD8BFF0EE04
:1028EC00477A67EE897AFDEEE77A17EE903A23F095
:1028FC007F43FFF765BBBEEE087AF4EEC76AF1EED4
:10290C0010FA11D5F6EE085AF1EE666A76EEE56A23
:10291C00B1EE007A26EE877A37EE087A86EE876A71
:10292C0036EE257AF1EE476ABFEE007AB4EEE67A1F
:10293C00F1EE10FAD8BFB0EE667A27EE097ABDEE4A
:10294C00C77A17EE103A23F07F43FFF714BBFEEE65
:10295C00086AB4EEE66AF1EE10FA11D5B6EE085A32
:10296C00B1EE466A36EE456AF1EE006A66EE266A0C
:10297C0076EE886AC6EE265A75EE856AB1EE666A00
:10298C00FFEE006AF4EEC66AF1EE10FAD8BFF0EE74
:10299C00466A66EE896AFDEEE66A16EE903A23F018
:1029AC007F43FFF7C3BABEEE086AF4EEC65AF1EEE7
:1029BC0010FA11D5B6EE084AF1EE655A75EEC45A06
:1029CC00B1EE006A25EE866A36EE086A85EE865A06
:1029DC0035EE046AF1EE465ABFEE006AB4EEE56AD3
:1029EC00F1EE10FAD8BFB0EE656A26EE096ABDEEBC
:1029FC00C66A16EE103A23F07F43FFF772BAFEEE6A
:102A0C00085AB4EEE55AF1EE10FA11D5B1EE454A7A
:102A1C00F6EE083A34EE634AF1EE005A64EE255AAB
:102A2C0075EE885A84EE255A75EE235AB1EE654A36
:102A3C00FFEE005AF4EEC45AF1EE10FAD8BFF0EEE5
:102A4C00445A65EE895AFDEEE55A15EE903A23F09C
:102A5C007F43FFF721BA00BF1C0600200AD7A33C16
:102A6C0000000240934BD3ED5E6AD3ED5F7A93ED99
:102A7C00606A77EEE67AB5EE007A67EE867A77EEE4
:102A8C00A67AF4EEC77AF1EE10FAC3ED5E7A08D4AA
:102A9C00B1EE007AF4EEC77AF1EE10FAD8BFB0EED0
:102AAC00677A83ED527A0193FEF7C2FB019BD3ED5B
:102ABC005E7A77EEC87AB0EE407AF5EEC07AF1EE37
:102ACC0010FA01D5F1EE677ADAF8B8397A4ADFED07
:102ADC007B6ADDED094A9DED024ADDED035A9DED61
:102AEC00045A9DED056AC3F3090002EB800080EDEA
:102AFC00007AA3F17F00C0F3090002EB800090ED97
:102B0C00001AA3F1FB00C0F3090002EB80006FF484
:102B1C00BF7190ED00BA5818C0F3090002EB8000A9
:102B2C00D0ED001A6FF4FE701818C0F3090002EB18
:102B3C0080006FF4207C90ED002A03EB0C00C0F3B6
:102B4C00090002EB80006FF44071D0ED002A581898
:102B5C0067EEA67AC0F3090002EB800090ED003A14
:102B6C00DDED066AF4EEC87AA3F27730F1EE10FAD6
:102B7C00C0F30900C8BFF0EE487A02EB800267EEA2
:102B8C00870A92ED007A38EE670A67EE873A27EEED
:102B9C00811A27EE8BBA67EEA11A27EE822A67EE0E
:102BAC00A22A27EE833ADDED087A9DED077A60EED6
:102BBC00277A20EE044A33EE273A60EE255A60EE6F
:102BCC00247A20EE055A20EE066A60EE266A20EE84
:102BDC00077A73EEA73A74EE200A31EE251A3BEE13
:102BEC0005BA71EE861A32EE262A72EE872A013366
:102BFC00B0EE604ACDED020AF0EE415A8DED031AAB
:102C0C00B0EE4B5A8DED04BACAF8B839CDED051AB1
:102C1C008DED062ACDED072A8DED083ACDED093A5A
:102C2C00B0EE616AF0EE426AB0EE627AF0EE437A90
:102C3C00F0EE634AFFF780BADAF8A03803F2EE231D
:102C4C00CAF8BC399AF89C3801338AF89C38DAF8FF
:102C5C00A028DAF8A4389A42FFF406AEDAF8A038C5
:102C6C00DAF8BC19164A8B4234BF4FF48033012377
:102C7C009361F9E5DAF8A03803F2EE23CAF8BC390F
:102C8C009AF89C3801338AF89C38DAF8A028DAF8DC
:102C9C00A4389A42FFF478A8DAF8A038DAF8BC190C
:102CAC00074A8B4234BF4FF4803301239361FFF703
:102CBC006BB800BF000000108401001000004842F7
:102CCC0000000240704700BF054BD3F888204FF03E
:102CDC00006142F47002C3F888209960704700BF0D
:102CEC0000ED00E02DE98048AB4AAC4B9A42AFB006
:102CFC0016D2013B9B1A032B11460FD99B080133AB
:102D0C00580802EBC0050024C1E900440831A9426F
:102D1C00FAD1B3EB400F03D002EBC00200231360D7
:102D2C009F4AA049136843F480331360D1F80038EC
:102D3C009D03FBD59A4A9C49136C9C4843F08053E5
:102D4C001364136C0B6840F2057443F440430B603E
:102D5C0004609368964923F47C4323F0F00343F416
:102D6C0014439360516013688E4943F08073136071
:102D7C00D1F800389C01FBD5894B9A6822F00302EC
:102D8C0042F002029A609E6806F00C06082EFAD1F8
:102D9C00884AC3F88820D3F88C20824922F4700228
:102DAC0022F4F85242F4C062C3F88C201A6842F044
:102DBC0080521A60D1F800389800FBD5784B9A688D
:102DCC0002F00C02042A02F0B383082A02F0978363
:102DDC00794B734A79499068C0F3031001F5A07BD5
:102DEC00085CC34076480360136B43F0FE03136327
:102DFC00136B01F110004FF0030A4FF002094FF072
:102E0C0001084FF00F0E4FF00C0C02680379146898
:102E1C005D000AFA05F724EA070409FA05F52C43C4
:102E2C001460546808FA03F524EA050454609468A5
:102E3C003C439460D468072B24EA0704D46094BF05
:102E4C000024012402EB840203F00703146A9B00A4
:102E5C000EFA03F5083024EA05040CFA03F32343B5
:102E6C0058451362D1D14E4A936B43F001039363DF
:102E7C00544B926B544A4FF4605018644FF4EA7000
:102E8C0058644FF483109864DA649A6D9206FCD4FB
:102E9C0009221A6544F61F6300BF1A46013B002A3B
:102EAC00FAD1484B9A6D9706FCD40A221A65454B09
:102EBC009A6D9506FCD4EB221A65424B9A6D9406DA
:102ECC00FCD4424A1A654FF49F625A653D4B9A6D89
:102EDC009006FCD4324A3E48136BDFF80C9143F059
:102EEC000A0313633B4B126B1A6822F440121A60EC
:102EFC00DA6822F4401242F48012DA601A6822F482
:102F0C0040021A60DA6822F4400242F48002DA606D
:102F1C00026822F440020260C26822F4400242F4C9
:102F2C008002C260026822F040720260C26822F025
:102F3C00407242F08072C2601A6822F440121A6029
:102F4C00DA6822F4401242F48012DA601A6822F431
:102F5C0040021A60DA6822F4400242F48002DA601D
:102F6C001B695A051C4B4CBF9FED1C1A9FED1C1A7C
:102F7C00C9F800304FF40012C9F80420002003F502
:102F8C00000243F8040B9A42FBD1164BC9F8BC3033
:102F9C00C9F8C4302AE000BF0000001084110010F2
:102FAC00003802400030024000700040003C0240FB
:102FBC0008544007005600020024F400AC550008E9
:102FCC0000000020000100A0610301010C6004005E
:102FDC00000C024000040240000000D00080BB47FF
:102FEC0000606A496F12833A00000010BF4BC9F8A9
:102FFC00B030BF4BC9F81430BE4BC9F81830BE4BBB
:10300C00C9F81C30BD4BC9F82030BD4BC9F8243071
:10301C00BC4BC9F82830BC4BC9F82C30BB4BBC4C52
:10302C00C9F8C8300022BB4BBB4FC9F8CC300025C7
:10303C004FF07E53C9E93522C9F80820C9F8DC20C5
:10304C0089F8E020C9F8104001220024DFF8F4C20E
:10305C00C9F8C030C9F8E430C9F80431C9F8B42053
:10306C0089F8D020C9E90C45C9E90E45C9E91045D4
:10307C00C9E91245C9E91445C9E91645C9E9184514
:10308C00C9E91A4589ED2E1AC9F8E83089F83021BA
:10309C00C9F840C13A69C9F80831C9F8EC30C9F827
:1030AC000C31C9F8F030C9F81031C9F8F430C9F84E
:1030BC001431C9F8F830C9F81831C9F8FC30C9F81E
:1030CC001C31C9F80031C9F82031C9F82831C9F8C8
:1030DC0034313B69C9F82C016FEA13336FEAD22201
:1030EC005B0003F0020302F0010213434FF0785E21
:1030FC00032BC9F824E1C9F8380102F0FD8101EB7A
:10310C008301D1F84031182B08BF0023834AC9F83A
:10311C003C311369824A834F1B055CBF824BC9F853
:10312C002831136B43F002031363136C43F4804395
:10313C0013647A4B116C196821F0406141F0006105
:10314C001960996841F000619960596A21F4700125
:10315C0041F4A0015962196821F0405141F000512D
:10316C001960996841F000519960596A21F07061B9
:10317C0041F0A0615962196821F0404141F00041D1
:10318C001960996841F000419960596A21F07041C9
:10319C0041F0A0415962196821F0407141F08071F1
:1031AC0019604FF4805461499C6100204FF44D73B9
:1031BC000B6048600B6843F040030B60536C43F4A6
:1031CC0080035364536C136B43F038031363136B1A
:1031DC00574B1C6824F0300444F020041C605C68DD
:1031EC0024F004045C609C6844F030049C60DC684F
:1031FC0024F03004DC601C6A24F4706444F4C06471
:10320C001C621C6824F4407444F400741C605C68F8
:10321C0024F010045C609C6844F440749C60DC688E
:10322C0024F44074DC601C6A24F4702444F4C0243C
:10323C001C621C6824F4406444F400641C605C68E8
:10324C0024F020045C609C6844F440649C60DC685E
:10325C0024F44064DC601C6A24F4700401F5EA3147
:10326C0044F4C0041C620B68324C23F4405343F406
:10327C0000530B604B6823F040034B608B6843F4A6
:10328C0040538B60CB6823F44053CB600B6A23F024
:10329C00706343F0C0630B622168274B21F44051EB
:1032AC0041F400512160616821F040016160A16826
:1032BC0041F44051A160E16821F44051E160216A80
:1032CC0021F0706141F0C061216201255F601B4CEF
:1032DC001B499D6007F20147DC6019615F629D62CA
:1032EC00DC621963136B43F480032DE0CAF249F1DD
:1032FC0000002042000070420000A0420000C842C2
:10330C000000F04200000C4300002043CDCCCC3E2A
:10331C000000A041CDCCCC3F000C02400004024088
:10332C0000380240C12012007D99D63E0038004082
:10333C00001002400014024000580140FF0F06002C
:10334C008007FF00674523011363136BAA4B986238
:10335C009A6A12F00102FBD1A8491963DFF8E4B2B2
:10336C00A749C3F834B04FF48070D8629962C3F89F
:10337C008820A14AD2F8883013F001030193F9D1C7
:10338C00A049C2F89010A049C2F894109F4BA049D4
:10339C004FF48070C2F88C00C2F88810102183F8AA
:1033AC0039134FF000715960936A43F00103936233
:1033BC00D2F8883043F00103C2F88830954B964A16
:1033CC00596A41F480315962596841F4803159602D
:1033DC00136B43F001031363136B904B1A6822F0C9
:1033EC00300242F010021A605A684FF4802122F029
:1033FC0004025A609961019B0C930C9B884A93427E
:10340C0005DC0C9B01330C930C9B9342F9DD834B35
:10341C001A6822F0300242F010021A605A68042135
:10342C0022F004025A60996100230B930B9B7C4A97
:10343C00934205DC0B9B01330B930B9B9342F9DD01
:10344C00754A784B116B41F002011163116B1968CD
:10345C0021F4403141F400311960596841F4807114
:10346C005960996841F480319960D96821F44031F0
:10347C0041F48031D960596A21F00F0141F0040107
:10348C005962196821F4402141F4002119605968EE
:10349C0041F400715960996841F480219960D968B0
:1034AC0021F4402141F48021D960596A21F0F001C6
:1034BC0041F040015962136C43F400131364136C14
:1034CC00594B4FF400421A6000212A2219605A60AD
:1034DC00D222DA6101242B221A624FF6FF351C60CE
:1034EC000846524A01E0013A02D09F69BF07FAD45C
:1034FC001F684E4A47F480771F6001E0013A02D002
:10350C005F69FF07FAD55A69D20740F1FD854A0079
:10351C00D2B2474F1A6105E0520500F10986013F0E
:10352C0000F00D865A6912F0020FF5D09A691A68EC
:10353C004F090BEB870742F400721A60D7F804C8E6
:10354C0001F01F0204FA02F242EA0C02C7F8042846
:10355C000A900A9AB2F5FA6F06DA0A9A01320A92BE
:10356C000A9AB2F5FA6FF8DB01318029B9D1314BE7
:10357C00CBF814387F210220FEF716F8F021044610
:10358C000320FEF711F8362104430420FEF70CF853
:10359C00FF2104430720FEF707F800210443022013
:1035AC00FEF702F8102104430620FDF7FDFF002171
:1035BC0004430720FDF7F8FF1F4B1B4A04435C60D4
:1035CC001E4C1F4B08464FF0920C9327EE251168AA
:1035DC0014F801EB41F4807111608046144902E04B
:1035EC00013900F0B985D3F81404C007F8D5104997
:1035FC00C2F810C02BE000BF00640240205801400C
:10360C0018550300405801401C04002000E100E064
:10361C0040550300005801400038024000000240B1
:10362C00DF9304000004024000540040410D0300ED
:10363C00400D0300EEFFC00000000020F85600080B
:10364C00005000401C000020013900F08785D3F8A1
:10365C0014048007F8D591691B4902E0013900F088
:10366C007B85D3F814040006F8D5C2F810E016498F
:10367C00C64602E0013900F06885D3F8140440070F
:10368C00F8D5116841F4807111600F4902E00139DD
:10369C0000F05B85D3F81404C007F8D517611168E6
:1036AC0021F480611160084902E0013900F0608565
:1036BC00D3F814048007F8D59169116841F40071AE
:1036CC001160014905E000BF400D0300013900F015
:1036DC003C85D3F814044006F8D57046D2F810E0B7
:1036EC00116841F4806111600BEB000181F818E85E
:1036FC0001300A287FF46BAFB64AB74B116BB74C4D
:10370C0041F001011163116B196821F4407141F40E
:10371C0080711960196821F4406141F4806119606D
:10372C001968102721F44051202019609F6198617D
:10373C00116B41F003011163116B196821F0030146
:10374C0041F0010119604FF480319961196821F041
:10375C000C0141F00401196002219961196821F4EE
:10376C00404141F48041196080219961196821F42C
:10377C00403141F4803119604FF4807199611968BE
:10378C0021F4400141F48001196000254FF40061DF
:10379C009961ABF824588BF82A58ABF82858216853
:1037AC0021F00F0141F0050121604FF44031A1617E
:1037BC00116B41F005011163116B196821F4407113
:1037CC0041F480711960196821F4406141F4806101
:1037DC001960196821F0404141F080411960196865
:1037EC0004F5806421F440511960216821F44011E2
:1037FC0041F480112160216821F0407141F0807109
:10380C0021604FF0806C4FF000419F619861C4F8CB
:10381C0018C09961136B43F004031363136B236893
:10382C0023F00C032360E36823F00C0343F0040340
:10383C00E360236823F030032360E36823F0300354
:10384C003B43E360236823F0C0032360E36823F069
:10385C00C00343F04003E360236823F44073236008
:10386C00E36823F4407343F48073E360236823F428
:10387C0040632360E36823F4406343F48063E360B4
:10388C00236823F440532360E36823F4405343F448
:10389C008053E360A846AA46A6F1080707EB071079
:1038AC0007EB001000EB0030FDF7E4FE002309935A
:1038BC00099B0B2B05DC099B01330993099B0B2BF3
:1038CC00F9DD00230893089B0B2B05DC089B0133C7
:1038DC000893089B0B2BF9DD0122216902FA07F7EB
:1038EC004AEA070311F0200F9BB208BF9A4602FA6E
:1038FC0006F316444AEA030211F0400F92B208BFD5
:10390C00924648EA070211F0080F92B208BF90469F
:10391C0048EA03002F4311F0100F80B2BAB208BF6F
:10392C00804611F0020F08BF15462B4311F0040F0F
:10393C009BB208BF1D46102EAED12948FDF79AFE4A
:10394C00244BABF832A8ABF83488ABF836585A6C29
:10395C00244942F480625A641A6B42F020021A63C2
:10396C005B6C0B68204A43F440330B60A1F571414A
:10397C004B6823F4403343F480334B60002306211F
:10398C005360D36251634FF4E011116101219160D6
:10399C000D930D9B42F20F72934205DC0D9B01338C
:1039AC000D930D9B9342F9DD0A4BDFED102A1A6B38
:1039BC000A48C9ED552A42F00F02C9ED562AC9ED45
:1039CC00572A1A631A6BC2680949DFF82CE0DFED3D
:1039DC00098A1DE000380240000002400004024049
:1039EC0077777700001402400022014000000000AD
:1039FC000008024017B7D1387C08002095BFD63399
:103A0C000AD7233C5F708930CAF249F18FC2753DE9
:103A1C001FED068A1FED060A1FED062A5FED060A4A
:103A2C005FED061A22F47002C260CA686FF38D0251
:103A3C00CA60D0F80C18C04A21F07071C0F80C188C
:103A4C00D16821F04041D160596C41F010015964AA
:103A5C005B6C1368B94923F4701343F4201313609F
:103A6C00536A23F47F6343F4EE635362B44BC9F897
:103A7C004C31A2F570424FF08743C9F8503140F2F7
:103A8C00D9204FF07E53C9F84831C9F86031C9F8D4
:103A9C006431906042F20C00D0604FF0FF32C9F8F4
:103AAC006831C9ED5B2AC9F870210022C9F874216C
:103ABC00C9F87831C9F87C314FF48073ABF86C38A5
:103ACC00012303939BF87038019DC9F88011F6EE21
:103ADC00007AB0EE677ACEED007ACEED017ACEEDBB
:103AEC00027A4FF0FF0A002B40F05B8215F00303C3
:103AFC0000F04A8315F03F0340F04C828E4A4FF49D
:103B0C00801191611393139B0B2B05DC139B0133D9
:103B1C001393139B0B2BF9DD874B10229A61002317
:103B2C001293129B0B2B05DC129B01331293129BED
:103B3C000B2BF9DD002380490D204FF400171C4698
:103B4C0020268F611094109A0B2A05DC109A0132F2
:103B5C001092109A0B2AF9DD0A698E61119412F0F9
:103B6C00400F4FEA4303119A9BB218BF43F0010375
:103B7C000B2A05DC119A01321192119A0B2AF9DDEC
:103B8C000138DED16C4A4FF400119161990743BFA3
:103B9C00C3F3800484F00104E4B2022413F0080F90
:103BAC000CBF022201221F060192C3F3001640F142
:103BBC008586C3F3002181F001014900C9B213F4D9
:103BCC00806200F0788613F4007F14BF0122022279
:103BDC0002925C4FD9ED2E7A38696FEAD32242EA11
:103BEC00902202F001003A69D7F81080019FABF8DF
:103BFC002C388BF848488BF849788BF84A188BF896
:103C0C007068514E029F37736FEA133646EAD22220
:103C1C0002F001028BF84B088BF84C284EED017A20
:103C2C00002840F0FD85002A00F0FD869BF8252831
:103C3C00002A01F03C804FF480720129ABF8242853
:103C4C0001F02680064684469BF87A78012F00F016
:103C5C007886022F00F0C887002F00F03386D9F841
:103C6C000820002E41F05182334E99F8D0104FF0BD
:103C7C00020CC6F818C04FF4000CC6F818C0012985
:103C8C0000F04586DBF87C68964200F2BE869BF815
:103C9C008068CBF87C28002E00F04687013EF6B2F7
:103CAC00254A8BF880684FF0807CC2F818C08BF8DE
:103CBC004E788BF84F18DEED0E7A9FED246ADFED0F
:103CCC00246A67EE867ADB43F4EEE67AF1EE10FABC
:103CDC0003F0010800F36A84FCEEE77A17EE903AE1
:103CEC008BF850388BF85468DEED097A9FED196A21
:103CFC00DFED176A67EE867AF4EEE67AF1EE10FAEB
:103D0C0000F35184FCEEE77A17EE903A8BF85138B9
:103D1C00DEED0A7A9FED0F6ADFED0D6A67EE867AAB
:103D2C00F4EEE67AF1EE10FA00F33A84FCEEE77A60
:103D3C0017EE903A12E000BF000002403480373A90
:103D4C000000B44500180240000000200000C842EA
:103D5C0000007F4300007A44C0FE9F498BF8523824
:103D6C009BF89C388BF85338DBF8A028DBF8A43888
:103D7C009A42C0F071869BF8A83843B19BF8A938D9
:103D8C00019A934200F0DF8600238BF8A838DDE916
:103D9C000123039942EA031C61451CD007EE902ACB
:103DAC00F8EE677A67EE817A3BB1012B0CBFF6EE29
:103DBC00006AF5EE006A67EEA67A5FED196AF4EE1A
:103DCC00E76AF1EE10FAD8BFF0EE667A0123C9ED7E
:103DDC002E7AC9F8B430B8F1000F40F0CF83A24569
:103DEC0000F0FD854FEA841808F1006303F54043A9
:103DFC00CB491A688A4240F08986DA88022A40F058
:103E0C0085861989282900F281860A1DCDE904517D
:103E1C0092B29F88039203F1050A4FF6FF7241F2AA
:103E2C00210651461AF8015F82EA05225500120458
:103E3C0048BF75406A002D0448BF724055001204FB
:103E4C0048BF75406A002D0448BF724055001204EB
:103E5C0048BF75406A002D0448BF724055001204DB
:103E6C0048BF75406A0092B22D04A1F10405039974
:103E7C0048BF7240A5EB030548BF92B28D42D0D328
:103E8C009742DDE9045140F04186002900F03E865E
:103E9C004A1E052A41F24682A24A6A44A2EB080253
:103EAC00022A41F23F82A04A8E0858F802701E97EF
:103EBC00012E424401F0198357681F97022E00F01F
:103ECC00088697682097032E00F00386D768219701
:103EDC00042E00F0FE8517692297052E00F0F98557
:103EEC0057692397062E00F0F48597692497072EBF
:103EFC0000F0EF85D7692597082E00F0EA85176A40
:103F0C0026970A2E40F0E585536A2793019B8BF880
:103F1C00A938029B8BF8AA38269BCEF80030CEF835
:103F2C0004300123ABF86C388BF8A8389DF89C3022
:103F3C008BF8AB389DF89E308BF8AC38DDED1E6AF3
:103F4C00DDED1F7ADDF88080219F229E2399249A33
:103F5C00259BCEED022AA2464FF0FF0CC9F82C305F
:103F6C000123C9ED046AC9ED057AC9F81880C9F8AE
:103F7C001C70C9F82060C9F82410C9F82820CDF8A5
:103F8C000CC0C9F8B430002840F01383CBF8B0084B
:103F9C008BF8B408013530BF9BF87038002B3FF418
:103FAC00A5ADD9F87031002BBFF6A0ADD9ED527A82
:103FBC00F7EE006A76EEE76AF5EEC06AF1EE10FAFB
:103FCC0000F19D86F0EE667AF4EEE87AF1EE10FAE6
:103FDC003FF58CADD9ED535AD9ED557A86EEA56ADD
:103FEC00B5EEC06AF1EE10FA41F35C81B6EE005A00
:103FFC00F4EEC57AF7EE006AF1EE10FA76EEE76AA7
:10400C0001D4B7EE085A75EE677AF4EEE76AF1EE72
:10401C0010FAF4EEE67A94BF01230023F1EE10FAC5
:10402C00B8BFF0EE676AF4EEE16A83F00108F1EED6
:10403C0010FAC9F874813FF759ADF2EE007A26EE0A
:10404C00276AB4EEE66AF1EE10FA3FF74FAD99ED40
:10405C00546AF0EE467AF6EE006A25EEA64AD9E9E5
:10406C00012409EB830334EE274AD3ED566ADFEDC6
:10407C002F7AD9F8000034EE264A1719002114E0E3
:10408C0003F1010C62452ED916ED015A35EE665A34
:10409C0065EE255A75EEA66A66EEA66A0231B1F592
:1040AC00407F77EEA67A00F0508606EE901AF8EE76
:1040BC00E66A76EE846AFCEEE65A15EE903A934286
:1040CC0024BFB3FBF2F602FB16339C422CBFE31A5F
:1040DC00FB1AF8EE655A00EB8306012B76EEE55AD7
:1040EC00D6ED006ACCD8013B00F146829A4298BFCB
:1040FC009B1A00EB830393ED005A35EE665A65EE7E
:10410C00255A75EEA66AC7E71A6842F400721A605F
:10411C00DBF800280132CBF80028FFF719BA00BFF2
:10412C00723838326D40FFF70AC0000800000000FA
:10413C005D611A6842F400721A60FFF709BA1A68D6
:10414C0042F400721A60FFF703BA70460BEB0001E1
:10415C0081F81858FFF7CCBA4046F7E7DFF824E0AF
:10416C00DEF8001041F400714046CEF80010EDE787
:10417C007046DFF810E0DEF8001041F40071CEF864
:10418C000010E3E700540040B34AD1689268B34A88
:10419C004FF0805191610F930F9B272B05DC0F9BE8
:1041AC0001330F930F9B272BF9DDAB4A93689F07C5
:1041BC00FCD501231373A84A9368DE07FCD5137B47
:1041CC00A54A8BF8743893689C07FCD5A02313730D
:1041DC00A14A9368D807FCD5137B9F4A8BF8753896
:1041EC0093689907FCD5002313739B4A9368DB07EC
:1041FC00FCD5137B984A8BF87638936813F08003C0
:10420C00FBD1964A4FF4805191610E930E9B272B54
:10421C0005DC0E9B01330E930E9B272BF9DD8E4B89
:10422C00DA689B688D4B4FF080529A6100230F9394
:10423C000F9B272B05DC0F9B01330F930F9B272B19
:10424C00F9DD854A93689F07FCD501231373824AD5
:10425C009368DE07FCD5137B7F4A8BF8773893681D
:10426C009C07FCD5E02313737B4A9368D807FCD5D5
:10427C00137B794A8BF8783893689907FCD500231F
:10428C001373754A9368DB07FCD5137B724A8BF862
:10429C007938916811F08001FBD1704B4FF480524A
:1042AC009A610E910E9B272B05DC0E9B01330E930E
:1042BC000E9B272BF9DD9BF875389BF876281B0293
:1042CC0003F47063134306EE903A9BF878389BF82E
:1042DC0079281B0203F47063134300F0A28340F2AD
:1042EC003622934241F3908040F28152934241F343
:1042FC00828040F60602934241F35A8040F64B22EC
:10430C00934241F34C8040F60152934241F33E807C
:10431C0040F6FF72934241F013801C4619465048F8
:10432C00826842F08042826002689607FCD5C26CBB
:10433C004C489FED4D6A90ED025ADFED4C5ADFED83
:10434C004C4AC2F30B0207EE902AF8EE677A77EE2E
:10435C00C57A67EE867A77EE857A77EEE55AC0ED08
:10436C00027AFCEEE77A65EEA45A17EE902AABF8C7
:10437C0038289BF87028002A00F0158307EE903A35
:10438C009FED3C5AF8EEE77AB7EE006A67EE857A55
:10439C00F4EEC67AF1EE10FA40F3F883F0EE467ABA
:1043AC00304B9FED355A1B7BDFED344A022B18BF87
:1043BC00B0EE615A67EE857AF4EEE45AB7EE006A15
:1043CC00F1EE10FA36EE676A40F3C983DFED267A18
:1043DC00F4EEE75AF1EE10FA7ED4F8EEE67ADFED61
:1043EC00284A9FED285A67EEA47A67EEA57A67EE05
:1043FC00857ADFED255AF4EEE57AF1EE10FAB8BFC6
:10440C00F0EE675AFDEEE57A17EE903AF8EEE77AA1
:10441C0075EEE75AF5EEC05AF1EE10FA40F113873B
:10442C00B7EE005A75EE855ADFED187ADFED184AB3
:10443C00DFED183A9FED184A65EEA77A7E3377EEDA
:10444C00A47ADFED164A67EEA57ADB0577EEA37A40
:10445C0067EEA57A28E000BF003800400004024057
:10446C000022014000000020CDCC4C3D00E0FF4478
:10447C000210003A021080398FC2753ECDCC4CBD73
:10448C00010AA03A5555553F0000FE4220C2AE3AF3
:10449C003C951D3C4458633DF0FD753E1872313F10
:1044AC000AD7233D0AD7A33C77EE847A67EEA57A28
:1044BC0077EEA47A67EEA57A05EE903A77EE857AD8
:1044CC0067EEA57A26EE276AF5EE007AB4EEE76A77
:1044DC00F1EE10FA00F15783F1EE007AB4EEE76AD0
:1044EC00F1EE10FAD8BFF0EE467AC9ED5F7AF0EE35
:1044FC00627A77EEC77A1FED166A9BF86C3867EE16
:10450C00867A37EE277A002B00F08482DEED017A72
:10451C0037EE676AB5EEC06AF1EE10FA00F163820D
:10452C005FED205AB4EEE56AF1EE10FA00F1638209
:10453C009BF86D38002B40F0E683B4EEE77AF1EE91
:10454C0010FA05D8B4EE677AF1EE10FA00F0538247
:10455C0001238EED027A8BF86D38CEED007AA04BEC
:10456C00C3ED047A16EE903AABF82E38ABF830481F
:10457C000EED027AFFF7BEBA1344BAE5BAF1FE0F9C
:10458C0000F02D82974B984A9849994E994FDFF835
:10459C008C82DFED997AF3EE046A4FF0FE0ADDE4CB
:1045AC00FF23FFF7DBBBFF23FFF7B0BBFF23FFF7B6
:1045BC0097BBDBF8B0389BF8B428002B40F047824F
:1045CC00DBF8A038002B40F0B3820123CBF8B038D5
:1045DC00002A7FF4DFAC0346DBF8A028D31A41F2A3
:1045EC00707293427FF6D6AC019B8DF87430029BAF
:1045FC008DF87630814B1E9300238DF875308DF835
:10460C007730D9F81030CDF88230D9F81430CDF895
:10461C008630D9F81830CDF88A30D9F81C30CDF85E
:10462C008E30D9F82030CDF89230D9F82430CDF82E
:10463C009630D9F82830CDF89A30D9F82C30CDF8FE
:10464C009E30674B1B69CDF8A2306D4BCDF87E3098
:10465C001D9BCDF8A63001238BF8B4380DF17D00ED
:10466C004FF6FF7341F2210110F8012F83EA022368
:10467C005A001E0448BF4A405300120448BF4B4026
:10468C005A001B0448BF4A405300170448BF4B4014
:10469C005A001E0448BF4A405300120448BF4B4006
:1046AC005A001F0448BF4A4016044FEA42030DF15A
:1046BC00A90248BF4B409042D6D15249ADF87C304C
:1046CC00514BC91A013BCA5C03F8012F4F4A934264
:1046DC00F9D1A301A2F1FF01484ACA5001EB84149D
:1046EC001F9A6260209AA260219AE260229A22614B
:1046FC00239A6261249AA261259AE261269A226227
:10470C00279A6262289AA262299AE2620E4603F103
:10471C00320003F13002BDF8A840B45201443E33DC
:10472C004FF0FF3232504A608A60F252384B1A69AD
:10473C00002A04DA374A5A6002F188325A60344A45
:10474C00D368D803FCD4F323D360136923F47E73AA
:10475C0023F0020343F4067343F00203136113695D
:10476C0043F4803313612A4AD368D903FCD4136908
:10477C00294C23F0FA031361136923F4407323F0DB
:10478C00010343F4007343F0010313611E4B204AF1
:10479C00191FE41A03F1FC06631851F8040F186092
:1047AC00D368DB03FCD48E42F6D113690C4923F099
:1047BC0001031361136943F0004313619BF84D38F7
:1047CC0001338BF84D38DBF8A03803F6B833CBF84F
:1047DC00A438DBF8A0284B6953404B61FFF7DABBD8
:1047EC00000000200000204300000C430000F042B9
:1047FC000000C8420000A04200002042723838324B
:10480C000200280001C00008D4080020D3090020B1
:10481C00003C02402301674504C0000800007042C0
:10482C009BF82478B7FA87F67609002A7AD09BF899
:10483C0025C8BCF1000F75D14FF0010C61458BF808
:10484C0024088BF825C87FF4FFA9FCEEE77AD9F889
:10485C00046017EE902A022A38BF0222311F8A42C6
:10486C0028BF0A46D9F808108A428ABF76188A1AD5
:10487C00B21AC9E936210221C9F8082089F8D010EA
:10488C00C84ED9F8082002274FF0030C8BF87AC8D1
:10489C00B7614FF40007B761DBF87C68964200F211
:1048AC00B3809BF88068CBF87C28002E00F0C38482
:1048BC006746FFF7F3B90292FFF78BB90121FFF7B7
:1048CC007EB9064699F8D070D9F80820012F40F02F
:1048DC006D84DEED097ADFEDB46AF4EEE67AF1EE82
:1048EC0010FA40F1E68101278BF88C78022900F050
:1048FC00ED8108F48051314340F0E8810F46A9491D
:10490C0002268E6180268E614FF080768E619BF838
:10491C008068CBF87C28002E42D0013EF6B20121F3
:10492C00FFF7BEB98BF82528012291428BF8242879
:10493C0000F0AD819BF87A78012F4FF0000C7FF4DA
:10494C0088A9D9F80810DBF890289142C0F0A2840D
:10495C00BCF1000F40F040848F1AFCEEE77A17EEA2
:10496C00902ABA4240F22C849BF87A78002E00F000
:10497C00FA83CBF89018C9F8D4100A460126894955
:10498C0089F8D0604FF400368E6180268E614FF42A
:10499C0080768E619BF88068CBF87C28002EBCD189
:1049AC000121FFF784B9DFED817AF4EEE75AF1EEDD
:1049BC0010FA40F38280F4EEC65AF1EE10FA7CD570
:1049CC000B4640F6FF729342A8BF134607EE903A8F
:1049DC009FED776AF8EEE77A67EE867A89E5CDF88F
:1049EC000CC0FFF7D0BADFED735AB4EEE56AF1EE06
:1049FC0010FA7FF79DAD4FF48073F0EE477A8EED91
:104A0C00027AABF86C38A8E56746CBF87C2801260F
:104A1C00FFF746B9F0EE477A8EED007A8EED027A0A
:104A2C009DE51C467BE40129ABF8240800F030819D
:104A3C009BF87A78012F00F08683022F00F07683A2
:104A4C00002F3FF43EAFD9F80820FFF70DB9002A2C
:104A5C003FF4C2ADFFF79EBA574A536983EA43331A
:104A6C0083EA534383EA431313F0010108BF4FF465
:104A7C00803113F0020F536118BF0227494A08BF57
:104A8C004FF4003713F0040F14BF80264FF40006C8
:104A9C0013F0080F916114BF4FF480714FF08071C7
:104AAC0013F0100F14BF4FF400634FF000639761C5
:104ABC00966191619361FFF75EB9F8EEE67A67EE65
:104ACC00A57AFDEEE77A17EE903A5B183FF50FAD3D
:104ADC0077E7B1EB860F4FEA860217D09E18B77AAC
:104AEC000DEB020686F87870561CB6B2B1420DD9A1
:104AFC009F19023292B26E44BF7A86F87870914256
:104B0C0004D913446A449B7A82F878302B4B2C4A94
:104B1C002C492D4E2D4FDFF8CC80DFED2D7AA2469F
:104B2C00F3EE046AFFF71ABA032F7FF4C0A882E3EE
:104B3C00DBF8A038CBF8B038002A7FF42BAA002B76
:104B4C003FF428AA48E59BF8AA38029A93427FF4CE
:104B5C001BA99BF8AB289BF8AC38FFF71AB99FED53
:104B6C001D5ADFED1D4AF8EEE67A67EE857A9FED69
:104B7C001B5A67EEA57A67EEA47AF4EEC57AF1EECD
:104B8C0010FA3FF636ACF5EE007AAEE49FED146AFF
:104B9C00F4EEC67AF1EE10FA7FF502ACF0EE627A22
:104BAC00FFF7FEBB000002406F12033CCDCC4CBDA6
:104BBC00010880390AD7A3BC000000200000204364
:104BCC0000000C430000F0420000C8420000A0426C
:104BDC0000002042010AA03A5555553F0000FCC286
:104BEC000AD7A33C0000704299F8D020012A0BD1BF
:104BFC00BCF1000F12D1D9F80820002E40F03F83F1
:104C0C00C9494FF400367CE6D9F80820C9F8D420FD
:104C1C00012289F8D020BCF1000FECD0D9F8046047
:104C2C00DBF89028DBF89418B24224BFB2FBF6F7FD
:104C3C0006FB1722B14224BFB1FBF6F706FB171196
:104C4C008A4200F0CF83B84EC9F80820C9E9362152
:104C5C004FF4003C0221032789F8D0108BF87A78A6
:104C6C00C6F818C04FF0800CC6F818C04FF0807C06
:104C7C00C6F818C0DBF87C68B242FFF4C6AE9BF8ED
:104C8C008068CBF87C28002E7FF408A8D3E257B3B9
:104C9C009BF87A2899F8D010032A2CD0012922D11C
:104CAC00D9F80820A04900278BF87A786AE60646DE
:104CBC00C2E59BF88C78002F3FF418AEDFED9B6AB1
:104CCC00F4EEE67AF1EE10FA7FF710AE0127002130
:104CDC00CBF89028C9F8D42089F8D0708BF87A7862
:104CEC008BF88C180BE6D9F80820C9F8D4200121D0
:104CFC0089F8D010D6E701297FF4C2ADD0E7F1EEE8
:104D0C00667AFFF761B99EED026AF4EEC67AF1EEAF
:104D1C0010FA05DBB4EEE77AF1EE10FABFF66BAEE3
:104D2C00F4EEC67AF1EE10FA3FF612ACB4EEE77A76
:104D3C00F1EE10FA3FF60CAC4FF48073F0EE477ABC
:104D4C008EED027AABF86C3807E4F4EEC87AF1EE2B
:104D5C0010FA3EF5CBAECDE9015A4FF0000C67EEE0
:104D6C00803AB0EE623A664606EE906ADFED715A12
:104D7C00F8EEE64AB0EE655A74EE864A002117E06A
:104D8C0003F1010A524557D915ED019A39EE669A8D
:104D9C0029EE299A79EE266A6AEE266A2AEE0A9A92
:104DAC000231B1F5407F35EE265A75EE895A67D03F
:104DBC0006EE901AF8EEE69A34EEA99AFCEEC96A61
:104DCC0016EE903A934224BFB3FBF2F502FB153377
:104DDC009C422CBFE31AFB1AF8EE666A00EB8305C3
:104DEC00012B79EE666A95ED00AA35D903F1010A1B
:104DFC00524531D915ED019A39EE4A9A69EE266A77
:104E0C0036EE8AAA34EE299AFCEEC96A16EE903A6E
:104E1C00934224BFB3FBF2F502FB15339C42F8EE30
:104E2C00666A2CBFE31AFB1A00EB8305012B79EEA3
:104E3C00669AD5ED006AA3D8013B1DD49A4298BF5F
:104E4C009B1A00EB830393ED009A39EE669A29EED8
:104E5C00299A79EE266A9FE7013B0FD49A4298BFB4
:104E6C009B1A00EB830393ED009A39EE4A9A69EE94
:104E7C00266A36EE8AAAC5E71344E2E71344F0E744
:104E8C00F4EEE35AF1EE10FA15D4B5EEC05AF1EE89
:104E9C0010FA00F1D180F0EE456A65EE266A75EEE7
:104EAC00825A86EEA55AB4EEC35AF1EE10FA02DD20
:104EBC00B0EE453AB4460436B6F5966F7FF454AF6F
:104ECC00F5EE006A67EEA66ADDE9015AF4EEC36AF4
:104EDC00F1EE10FA00F3598100F22D831EABACF108
:104EEC00030101930CF104030293CDE9045ACDE9BB
:104EFC000681019BF0EE606A0E4604E002990136D1
:104F0C008E4200F0C080B6F5966FE3EC010AF5D244
:104F1C0005EE906ADFED079AB8EEE5AAB0EE699A55
:104F2C003AEE06AA00251FE0000002400AD7A33C77
:104F3C00088FA1EF0000000001F1010A524557D97A
:104F4C0058ED014A74EEC54A64EEA55A35EE855A01
:104F5C006AEE855A02352AEEAA5AB5F5407F39EE2B
:104F6C00259A79EE859A6AD005EE905AF8EEE55AB4
:104F7C007AEE254ABCEEE45A15EE101A914224BF83
:104F8C00B1FBF2F802FB18118C422CBF611A791A92
:104F9C00B8EE455A00EB8108012934EEC55AD8ED1C
:104FAC0000AA35D901F1010A524531D958ED014A0F
:104FBC0074EEEA4A24EE855A75EE2AAA74EE255A46
:104FCC00BCEEE55A15EE101A914224BFB1FBF2F873
:104FDC0002FB18118C42B8EE455A2CBF611A791A93
:104FEC0000EB8108012975EEC55A98ED005AA3D83B
:104FFC0001391DD48A4298BF891A00EB8101D1ED89
:10500C00004A74EEC54A64EEA55A35EE855A9FE700
:10501C0001390FD48A4298BF891A00EB8101D1ED76
:10502C00004A74EEEA4A24EE855A75EE2AAAC5E7C0
:10503C001144E2E71144F0E7F1EE456A2DE7F4EE96
:10504C00E93AF1EE10FA3FF759AFB5EEC09AF1EE2E
:10505C0010FA00F1CD81F0EE495A29EE259A79EE3D
:10506C00829AC9EE295AF4EEE65AF1EE10FA43EDA3
:10507C00015A7FF743AF0299B44601368E42F0EEE7
:10508C00656A7FF440AFDDE90681ACEB010106EE09
:10509C0090CA4B1E042BDDE9045AF8EEE66A0CD8D4
:1050AC002EAA02EB830353ED105A1FED5F6AF4EE48
:1050BC00C65AF1EE10FA00F3E181D9F87031002BE9
:1050CC00BEF614ADC3EE275A1FED666AB4EEE66A5F
:1050DC00F1EE10FAC8BFF0EE466AF7EE007AF4EE85
:1050EC00E75AF1EE10FAD8BFF0EE657AF5EEC07A19
:1050FC00F1EE10FA57D9F1EEE77AC9ED5A7AC9ED0B
:10510C005B6AC9F87081FEF7F1BCC349CBF89028F3
:10511C0001270226C9F8D42089F8D0708BF87A7848
:10512C008E614FF400068E61FFF7F1BB99F8D02029
:10513C00012AD9F808203FF463AD0121C9F8D42025
:10514C0089F8D0105CE5D9F80810DBF89068FCEE13
:10515C00E77A8E4217EE902A2FD901F5001CACEBA2
:10516C00060C94452CD20A4699F8D010AA4E4FF44E
:10517C00003CC6F818C04FF0800CC6F818C04FF4AD
:10518C00807CC6F818C0FEF77ABDF0EE626AD9F8DA
:10519C007031002BBEF6AAACC3EE275AF5EEC05AFE
:1051AC00F1EE10FA99D5DFED9D7AA6E70127C9F843
:1051BC00D42089F8D070FFF78CBB8E1BB242D2D8AA
:1051CC005E0640F100810227CBF894180A468BF852
:1051DC007A7899F8D010C9E7D9F80460B24203D3B1
:1051EC00B2FBF6F706FB1722914200F095808A4E2F
:1051FC00C9F80820C9E936214FF4003C02210327E5
:10520C0089F8D0108BF87A78C6F818C04FF0800C5B
:10521C00C6F818C04FF4807CC6F818C0DBF87C6860
:10522C00B242FFF4F2AB9BF88068CBF87C28002EDE
:10523C007EF434AD0221784A4FF4807696610327D0
:10524C000026FEF734BDDFED767ADFED764A9FED72
:10525C00765A9FED764A65EEA77A7F3377EEA47A7D
:10526C00DB0567EEA57ADFED724A77EE857AB7EE4D
:10527C00005A67EEA57A77EE847AFFF717B9012703
:10528C006549CBF89028C9F8D42089F8D0708BF8F0
:10529C007A78B6E4BCF1000F35D101F50017BF1ACE
:1052AC00FFF75BBBF6EE006AF4EEE67AF1EE10FA6D
:1052BC002FDB77EEE66AF4EEE67AF1EE10FAF4EE16
:1052CC00E76A94BF01230023F1EE10FAB8BFF0EEA9
:1052DC00667AF4EEE17A83F00108F1EE10FAC9F87F
:1052EC0074813EF703ACF2EE006A26EE666AB4EE09
:1052FC00E76AF1EE10FA3EF7F9ABD9ED547A35EED8
:10530C00A76AFEF7A8BED9F80460B242BFF468AF32
:10531C006DE777EEA66ACEE7032799F8D0108BF8E5
:10532C007A7823E709331EAACE1813F8017F02F806
:10533C00017B9E42F9D128297FF4E8ABFEF7E6BD4C
:10534C006FF450679FED3B5ADFED3B5ADFED3B4A64
:10535C00DA1907EE902AB8EEE76A9FED394AC6EEE5
:10536C00247ADFED384A9FED386A67EE857A77EE5E
:10537C00A57A77EEC47A67EEA47A67EE867AFCEEAD
:10538C00E77A17EE901A0C46FEF7C9BF9FED2F5A1D
:10539C00DFED2F5ADFED2F4AA3F64B22D9E79FED15
:1053AC00255ADFED2D4AF7EE005AA3F60602D0E798
:1053BC006FF4B06C9FED295ADFED295ADFED294AC5
:1053CC0003EB0C02C5E7D9F80470022A38BF02229D
:1053DC003E1FB24228BF3246914236BF7F188A1A0E
:1053EC00BA1A04E70327D9F808208BF87A7807E46F
:1053FC00F1EE495A31E69FED195ADFED1B5ADFEDFC
:10540C001B4AA3F23622A4E79FED195ADFED0C5A82
:10541C00DFED184A1A469CE700000240000000002D
:10542C0020C2AE3A3C951D3C4458633DF0FD753EA0
:10543C001872313FD0CC4C3E3333B33F00403F4425
:10544C00CDCCCC3E5555553F00F07F45C8CC4C3E9D
:10545C009A99993F00802D4400401144CCCC4C3E8D
:10546C00CDCC4C3F004021449A99193F00C0524486
:10547C00CECC4C3E00800D44CCBC8CAB02EB8103FB
:10548C0013ED0F5AB4EEC65AF1EE10FA7FF715AEC3
:10549C0002EB810111ED106A5FED094A36EE066AE6
:1054AC0035EEC66A36EE056AB4EEE46AF1EE10FA31
:1054BC007FF503AE75EEC55AB6EE005A65EE855A09
:1054CC00FFEE004A85EE865AB4EEE45AF1EE10FA7D
:1054DC007FF7F3ADB7EE006AB4EEC65AF1EE10FAF0
:1054EC007FF5EBAD76EE856AE7E59A7B8DF87C204F
:1054FC0005260422FFF7FCBA0423FDF707BE596802
:10550C005A685B684902C3F388134CBF0C490D49B8
:10551C0002F03F02B1FBF2F202FB03F30A4A5268BB
:10552C00C2F3014201325200B3FBF2F3FDF751BC5E
:10553C00034BFDF74EBC06EE90CAF8EEE66A26E683
:10554C0000127A000024F40000380240DFF834D056
:10555C00FDF7BAFB0C480D490D4A002302E0D45864
:10556C00C4500433C4188C42F9D30A4A0A4C0023A1
:10557C0001E013600432A242FBD3FDF7A3FBFDF75D
:10558C00B1FB704700000320000000201C0000202D
:10559C00045700081C000020DC090020FEE7000076
:1055AC0000000000000000000102030406070809C7
:1055BC00000C02400E000000000C02400F00000026
:1055CC00000C024000000000000C02400100000032
:1055DC00001002400700000000100240080000000C
:1055EC000010024009000000001002400A000000F8
:1055FC00001002400B000000001002400C000000E4
:10560C00001002400D000000001002400E000000CF
:10561C00001002400F000000000C024008000000C7
:10562C00000C024009000000000C02400A000000BF
:10563C0000140240000000000014024001000000B1
:10564C00001402400200000000140240030000009D
:10565C000014024004000000001402400500000089
:10566C00001402400C000000001402400D00000069
:10567C00001402400E000000001402400F00000055
:10568C000018024000000000001802400100000059
:10569C000018024004000000001802400500000041
:1056AC000010024000000000001002400100000049
:1056BC00001402400B000000001802400F00000014
:1056CC000008024000000000001802400800000022
:1056DC000004024005000000000402400600000027
:1056EC00180000000C000000080000000102030478
:0856FC00050607081118000063
:105704000024F400EEEEEEEE00E0FF4401000000A1
:0C5714000000003F78563412FF00000037
:040000050800555941
:00000001FF
