:020000040800F2
:10000000000003203573000885730008857300081D
:1000100085730008857300088573000800000000E0
:1000200000000000000000000000000085730008D0
:1000300085730008000000008573000885730008C0
:1000400085730008857300088573000885730008B0
:1000500085730008857300088573000885730008A0
:100060008573000885730008857300088573000890
:100070008573000885730008857300088573000880
:100080008573000885730008857300088573000870
:100090008573000885730008857300088573000860
:1000A0008573000885730008857300088573000850
:1000B0008573000885730008857300088573000840
:1000C0008573000885730008857300088573000830
:1000D0008573000885730008857300088573000820
:1000E0008573000885730008857300088573000810
:1000F0008573000885730008857300088573000800
:1001000085730008857300088573000885730008EF
:1001100085730008857300088573000885730008DF
:1001200085730008E12200088573000885730008C4
:1001300085730008857300088573000885730008BF
:1001400085730008857300088573000885730008AF
:10015000857300088573000885730008857300089F
:10016000857300088573000885730008857300088F
:10017000857300088573000885730008000000007F
:10018000857300088573000885730008857300086F
:10019000857300088573000885730008857300085F
:0C01A00085730008857300088573000853
:1001AC0000EB820C012A00B5DCED006A0ED902F1DD
:1001BC00010E8E450AD21CED017A002B64D137EE6C
:1001CC00667A27EE007A37EE260A00BDB2F1010CF2
:1001DC0049D4614598BFACEB010C00EB8C0C9CED49
:1001EC00007A002BEBD0531C994298BF5B1A00EBA2
:1001FC008303012A93ED005AA2F1020342D09942E3
:10020C0098BF5B1A00EB8300D0ED005AB0EE046A85
:10021C0075EEC57A36EEC74A26EE866AF6EE004AC9
:10022C00F7EE083A24EE234A67EEA47A77EE073A03
:10023C0035EE466A77EE847A36EE236A65EEA45A7A
:10024C0067EE807A36EE656A37EE457A77EE867A17
:10025C0027EE247A67EE807A77EE877A67EE807ADB
:10026C0037EEA60A00BD8C4400EB8C0C9CED007A9A
:10027C00002BA4D0931E013237D50A4400EB820226
:10028C0092ED005A0B44BDE7DCED014A5CED025ADD
:10029C00B0EE046A75EEE47A36EEC74A26EE866A4C
:1002AC00B6EE005AF7EE083A24EE234A67EE857A4A
:1002BC0077EE073A34EEC66A77EE847A36EE236A26
:1002CC0065EE855A67EE807A36EE656A37EE647AAB
:1002DC0077EE867A27EE057A67EE807A77EE877A64
:1002EC0067EE807A37EEA60A00BD914298BF521A8B
:1002FC0000EB820292ED005A0B4483E743688B4279
:10030C009CBFB1FBF3FC03FB1C11D0F808C00068C8
:10031C008C4538BF9C44ACEB010100EB810C0129EE
:10032C0000B5DCED006A0ED901F1010E73450AD956
:10033C001CED017A002A64D137EE667A27EE007A3A
:10034C0037EE260A00BDB1F1010C49D4634598BFC4
:10035C00ACEB030C00EB8C0C9CED007A002AEBD080
:10036C004A1C934298BFD21A00EB8202012992EDEB
:10037C00005AA1F1020242D0934298BFD21A00EB6C
:10038C008200D0ED005AF0EE047A35EEC56A36EEF6
:10039C00C74A66EEA77AF6EE004AB7EE083A77EE51
:1003AC00073A75EE677A26EE246A24EE034A77EE56
:1003BC00A37A65EEA45A36EE046A77EEE57A26EE59
:1003CC00006A37EE457A77EE867A27EE247A67EE66
:1003DC00807A77EE877A67EE807A37EEA60A00BDD0
:1003EC009C4400EB8C0C9CED007A002AA4D08A1E55
:1003FC00013137D5194400EB810191ED005A1A44B3
:10040C00BDE7DCED014A5CED025AF0EE047A35EE04
:10041C00E46A36EEC74A66EEA77AB6EE005AB7EE35
:10042C00083A77EE073A74EEE77A26EE056A24EE80
:10043C00034A77EEA37A65EE855A36EE046A77EEB8
:10044C00E57A26EE006A37EE647A77EE867A27EE46
:10045C00057A67EE807A77EE877A67EE807A37EEE8
:10046C00A60A00BD8B4298BFC91A00EB810191ED21
:10047C00005A1A4483E700BF2DE9F04F2DED028B93
:10048C00F5EEC00AF1EE10FA8BB0054600F1AF8420
:10049C00F7EE007AF4EEE70AF1EE10FAC8BFF0EED0
:1004AC00670AE14CD4ED326AD4ED337A94ED307AAC
:1004BC00D4ED315A94ED2C6A77EEE67A67EEA07A99
:1004CC0077EEA67A77EEC77A67EEA57A77EE877A1B
:1004DC00B4EE676AF1EE10FAC4ED307A40F0318375
:1004EC00D4F8B430002B40F02C83206F216B676F55
:1004FC00666B94ED2F7A421A67EB060352EA030CF3
:10050C0027D007EE902A9FEDC96AF8EE676A07EECE
:10051C00903A66EE866AF8EEE77A77EEA67A67EEA0
:10052C00877AFDEEE76AB8EEE66A16EE90CA77EEC9
:10053C00C67AB0EE676ABEEEE06A16EE103ADA17CB
:10054C00DB184CEB420253EA020C40F02284C4E963
:10055C000C07A06FA16BE76FE66B421A67EB060303
:10056C0052EA030C27D007EE902A9FEDB06AF8EE02
:10057C00676A07EE903A66EE866AF8EEE77A77EEEF
:10058C00A67A67EE877AFDEEE76AB8EEE66A16EEB3
:10059C0090CA77EEC67AB0EE676ABEEEE06A16EEE7
:1005AC00103ADA17DB184CEB420253EA020C40F01B
:1005BC00EA83C4E90E07D4F88000216CD4F8847067
:1005CC00666C421A67EB060352EA030C27D007EE5F
:1005DC00902A9FED966AF8EE676A07EE903A66EEFF
:1005EC00866AF8EEE77A77EEA67A67EE877AFDEE02
:1005FC00E76AB8EEE66A16EE90CA77EEC67AB0EE07
:10060C00676ABEEEE06A16EE103ADA17DB184CEBAE
:10061C00420253EA020C40F0B083C4E91007D4F84C
:10062C008800A16CD4F88C70E66C421A67EB060358
:10063C0052EA030C27D007EE902A9FED7C6AF8EE65
:10064C00676A07EE903A66EE866AF8EEE77A77EE1E
:10065C00A67A67EE877AFDEEE76AB8EEE66A16EEE2
:10066C0090CA77EEC67AB0EE676ABEEEE06A16EE16
:10067C00103ADA17DB184CEB420253EA020C40F04A
:10068C007683C4E91207D4F89000216DD4F89470E5
:10069C00666D421A67EB060352EA030C27D007EE8D
:1006AC00902A9FED626AF8EE676A07EE903A66EE62
:1006BC00866AF8EEE77A77EEA67A67EE877AFDEE31
:1006CC00E76AB8EEE66A16EE90CA77EEC67AB0EE36
:1006DC00676ABEEEE06A16EE103ADA17DB184CEBDE
:1006EC00420253EA020C40F03C83C4E91407D4F8EC
:1006FC009800A16DD4F89C70E66D421A67EB060366
:10070C0052EA030C27D007EE902A9FED486AF8EEC8
:10071C00676A07EE903A66EE866AF8EEE77A77EE4D
:10072C00A67A67EE877AFDEEE76AB8EEE66A16EE11
:10073C0090CA77EEC67AB0EE676ABEEEE06A16EE45
:10074C00103ADA17DB184CEB420253EA020C40F079
:10075C000283C4E91607D4F8A000216ED4F8A47063
:10076C00666E421A67EB060352EA030C27D007EEBB
:10077C00902A9FED2E6AF8EE676A07EE903A66EEC5
:10078C00866AF8EEE77A77EEA67A67EE877AFDEE60
:10079C00E76AB8EEE66A16EE90CA77EEC67AB0EE65
:1007AC00676ABEEEE06A16EE103ADA17DB184CEB0D
:1007BC00420253EA020C40F0C882C4E91807D4F88C
:1007CC00A800A16ED4F8AC70E66E421A67EB060373
:1007DC0052EA030C30D007EE902A9FED146AF8EE23
:1007EC00676A07EE903A66EE866AF8EEE77A77EE7D
:1007FC00A67A67EE877ABDEEE77AF8EEC76A17EE4F
:10080C0010CA77EEE67AF0EE676AFEEEE06A16EE54
:10081C00903ADA17DB184CEB420253EA020C40F028
:10082C008E82C4E91A0707E0000000100000802F38
:10083C000000000000002043D4E9011794F8D0C058
:10084C00BCF1010FD4E9360207F1010640F0A88291
:10085C00D4ED4A7AD4ED4D6AB7EE007AF4EEC77A4D
:10086C00F1EE10FA20EE260A09DA94ED4B7A30EE0E
:10087C00470A20EE270A30EE070A84ED4B0AD4F81B
:10088C003C31002B00F3028323688E4203EB870379
:10089C0083ED000A00D300263346A360D4F8403120
:1008AC00002B40F08B82BCF1010F94F8308127684B
:1008BC0006EB010940F09F82626B9A42B8BF1A4660
:1008CC00236BB8BF0023002A00F0228307EE903A76
:1008DC00B8EE670A5FED2B7A8A4220EE270A24BF16
:1008EC00B2FBF1F301FB1322B24288BFA9EB020267
:1008FC0040F2968443463846FFF752FCE26BA36BFA
:10090C008DED020A002ABCBF00220023002A40F011
:10091C00A48301291FED3A0A40F27F840122B242DE
:10092C0088BFA9EB020240F2788443463846FFF7B1
:10093C0037FC626C236C8DED030A002ABCBF0022CD
:10094C000023002A40F07A8301291FED470A40F268
:10095C006F840122964238BFA9EB020280F06884B2
:10096C0043463846FFF71CFCE26CA36C8DED040A81
:10097C00002ABCBF00220023002A40F0508301292A
:10098C001FED550A40F251840122964238BFA9EB63
:10099C00020280F04A8443463846FFF701FC626D40
:1009AC00236D8DED050A002ABCBF00220023002A0E
:1009BC0040F0268301291FED620A40F23F84012298
:1009CC00964238BFA9EB020280F038844346384681
:1009DC00FFF7E6FBE26DA36D8DED060A002ABCBFA6
:1009EC0000220023002A40F0FC8201291FED700A2E
:1009FC0040F221840122964238BFA9EB020280F01A
:100A0C001A8443463846FFF7CBFB626E236E8DED9E
:100A1C00070A002ABCBF00220023002A40F0D28221
:100A2C0001291FED7D0A40F2FE830122964238BF58
:100A3C00A9EB020280F0F78343463846FFF7B0FB80
:100A4C00E26EA36E8DED080A002ABCBF00220023C3
:100A5C00002A40F0118301291FED8B0A40F2DB8341
:100A6C000122964280F0D783A9EB02024346384616
:100A7C00FFF796FB8DED090AD4ED397ADDED026AAC
:100A8C0094ED417A9DED036ADDED054A9DED065A24
:100A9C00DDED075A67EEA67ADDED046A67EE877A1C
:100AAC00C5ED007AD4ED3A7A94ED427A67EE867A07
:100ABC009DED086A67EE877AC5ED017AD4ED3B7A35
:100ACC0094ED437A67EEA67A67EE877AC5ED027AE3
:100ADC0094ED3C7AD4ED446ADDED097A27EE247A64
:100AEC0027EE267A85ED037A94ED3D7AD4ED456AAE
:100AFC0027EE057A27EE267A85ED047A94ED3E7A78
:100B0C00D4ED466A27EE257A27EE267A85ED057A0E
:100B1C0094ED3F7AD4ED476A27EE067A27EE267AD3
:100B2C0085ED067AD4ED406A94ED487A67EEA67AA4
:100B3C0067EE877AC5ED077A0BB0BDEC028BBDE88A
:100B4C00F08F1FEDC43AD4ED046A94ED056AD4ED30
:100B5C000B2AC4ED2C7A86EE837AC6EE034AD4EDCA
:100B6C00066A94ED076AC6EE833A86EE035AD4ED14
:100B7C00086A94ED096A86EE834AD4ED0A6AC6EED9
:100B8C00035A86EE836AC2EE836A94ED2E3A27EE00
:100B9C00037A64EE834A27EE277A64EEA74A25EEA1
:100BAC00035AFDEEC72ABDEEE42A25EE275A66EE5F
:100BBC00836AFDEEC50A63EE833A24EE034A65EEC2
:100BCC00835AF8EEE21A26EE036AB8EEC23A37EE12
:100BDC00617A74EEC34AB8EEE03A63EEA73A35EEAA
:100BEC00435AB0EE473ABDEEE31A24EE274ABEEE66
:100BFC00E03A65EEA75A26EE276AFDEEC41A66EEB9
:100C0C00A77A13EE103AF8EEC16AB0EE643ABEEE73
:100C1C00E03A12EE902AD81873EEE63AB8EEE17A82
:100C2C004FEAE37342EB430313EE101A00228018D1
:100C3C0034EE474AB0EE637ABEEEE07A6367206723
:100C4C00CB1712EE100A49185B41184417EE103AF4
:100C5C008918B0EE457ABEEEE07AA167D917DB1899
:100C6C00BDEEE58A4941E0679B1811EE100AC4F805
:100C7C00803017EE103A0144F8EEC84AB0EE447AD0
:100C8C00BEEEE07AC4F88410D917DB18FDEEC66A04
:100C9C0075EEE45A10EE900A49419B18C4F888305E
:100CAC0017EE103A0144F8EEE64AB0EE657ABEEE65
:100CBC00E07AC4F88C10D917DB18BDEEE73A36EEA3
:100CCC00646A11EE900A49419B18C4F8903017EEF3
:100CDC00103A0144F8EEC34AB0EE467ABEEEE07A22
:100CEC00C4F89410D917DB1818EE100A494177EEA6
:100CFC00E47A9B18C4F8983017EE103A0144B0EE21
:100D0C00677ABEEEE07AC4F89C10D917DB1816EEA1
:100D1C00900A49419B18C4F8A03017EE103A0144D0
:100D2C0013EE100AC4F8A410D917DB1840EB4101DC
:100D3C009B18C4E92A31C4F8B420FFF7D6BBC918F4
:100D4C0046EB0202C4E91A1276E5C91846EB020218
:100D5C00C4E9181233E5C91846EB0202C4E91612AD
:100D6C00F9E4C91846EB0202C4E91412BFE4C9182D
:100D7C0046EB0202C4E9121285E4C91846EB0202E2
:100D8C00C4E910124BE4C91846EB0202C4E90E1276
:100D9C0011E4C91846EB0202C4E90C12FFF7D9BBE7
:100DAC008E4228BF0026B2427FF476AD0346A36084
:100DBC00D4F840310646002B3FF475AD9FEDC37A55
:100DCC00F0EE477A85ED007A85ED017A85ED027AB1
:100DDC0085ED037A85ED047A85ED057A85ED067A45
:100DEC00C5ED077A0BB0BDEC028BBDE8F08FDFEDE3
:100DFC00B70AFFF756BB53181B1AA2EB000B904215
:100E0C0088BF9B46BBF1000F00F06481B0429FEDA0
:100E1C00B03A00F28480A6EB000A0195DFF8A892A4
:100E2C0002AE054618E0D3459FEDA80A40F23D817D
:100E3C00BBF1010F524640F04081121A2A448A42FB
:100E4C0000D3521A43463846FFF7AAF99C4BA6EC3E
:100E5C00010A4B4500F0B48059F8082FD9F804303A
:100E6C00002BAEBF18460020002203460028DAD023
:100E7C0007EE902AB8EE670AD34520EE030A00F27B
:100E8C009580BAFBFBF20BFB12A290E003F1FF3E44
:100E9C00D4F844319FED8B6A83EA433383EA53439E
:100EAC0083EA431383EA433888EA584888EA4818A7
:100EBC001B0AC4F844814FEA182807EE903A07EE53
:100ECC00108AF8EEE77AB8EEC77A012303FA0EF32C
:100EDC0077EE877A07EE103A67EE867AB8EEC77A25
:100EEC00F7EE006A77EEE67A20EE070AF6EE006A75
:100EFC0077EE807AF5EEC07AF1EE10FA53DB77EEEE
:100F0C00A67AFDEEE77AF8EEE77A87EE870ABBE47D
:100F1C0001299FED6E0A40F283816246E4E4A9EB5D
:100F2C0000060195DFF8A0A10DF1080905461AE0AD
:100F3C00B3459FED660A40F2AF80BBF1010F30461E
:100F4C0003D00123984238BF5844C31AEA188A4286
:100F5C0028BF521A43463846FFF722F9584BA9ECE2
:100F6C00010A53452CD05AF8080FDAF80420002A4D
:100F7C00AEBF1346002300201A46002BD8D007EE34
:100F8C00900AB345B8EE670A96BFB6FBFBF0304645
:100F9C000BFB10609B4520EE030A9CBFB3FBFBF3DD
:100FAC000BFB1323CEE777EEE67AAAE752469B4576
:100FBC0040F2F38190427FF640AF5A44121A3DE75B
:100FCC00019D59E507EE903AB8EE670ADFED407ADD
:100FDC00914220EE270A9CBFB2FBF1F301FB1322D6
:100FEC0024E507EE903AB8EE670ADFED397A9142C4
:100FFC0020EE270A9CBFB2FBF1F301FB1322FAE4AB
:10100C0007EE903AB8EE670ADFED317A914220EEA6
:10101C00270A9CBFB2FBF1F301FB1322D0E407EECD
:10102C00903AB8EE670ADFED2A7A914220EE270A51
:10103C009CBFB2FBF1F301FB1322A6E407EE903A3E
:10104C00B8EE670ADFED227A914220EE270A9CBFA8
:10105C00B2FBF1F301FB13227CE407EE903AB8EEFD
:10106C00670ADFED1B7A8A4220EE270A24BFB2FB07
:10107C00F1F301FB132252E407EE903AB8EE670A43
:10108C00DFED137A8A4220EE270AFFF4EAACB2FBBA
:10109C00F1F301FB1322E4E4BBF1010F00F0D1806A
:1010AC00B6FBFBF00BFB10604BE7BBF1010F00F044
:1010BC00CA80BAFBFBF20BFB12A201207AE700BF3D
:1010CC0068000010000080332800001000000000B1
:1010DC000000802F626B236B5A45BCBF5A465B469F
:1010EC00002A40F0B28001291FED080A00F2C180ED
:1010FC00B21A43463846FFF753F8E26BA36B8DEDFB
:10110C00020A002ABCBF00220023002A40F02581DD
:10111C0001291FED120A00F23481B21A43463846F7
:10112C00FFF73EF8626C236C8DED030A002ABCBFFE
:10113C0000220023002A40F0FC8001291FED1D0A2B
:10114C0000F22381B21A43463846FFF729F8E26CC5
:10115C00A36C8DED040A002ABCBF00220023002AD8
:10116C0040F0D38001291FED270A00F20C81B21A3E
:10117C0043463846FFF714F8626D236D8DED050A72
:10118C00002ABCBF00220023002A40F0AA800129BB
:10119C001FED320A00F2FF80B21A43463846FEF7C2
:1011AC00FFFFE26DA36D8DED060A002ABCBF002285
:1011BC000023002A40F0818001291FED3C0A00F237
:1011CC00E880B21A43463846FEF7EAFF626E236E99
:1011DC008DED070A002ABCBF00220023002A59D13A
:1011EC0001291FED460A00F2D280B21A4346384656
:1011FC00FEF7D6FFE26EA36E8DED080A002ABCBF87
:10120C0000220023BABB01291FED500A03D9012289
:10121C00B2423FF629ACB21A28E4B21AFFF785BBEA
:10122C00B21AFFF767BBB21A06E4B21AFFF7B3BBE8
:10123C00B21AFFF795BBB21AFFF7E3BBB21AFFF76E
:10124C00C5BB184681E60246F7E507EE903AB8EEC4
:10125C00670A5FED617A914220EE270A9CBFB2FBD0
:10126C00F1F301FB13229642BFF442AFA9EB020249
:10127C003FE70122F7E707EE903AB8EE670A5FED19
:10128C006C7A8A4220EE270A24BFB2FBF1F301FBF1
:10129C001322BDE707EE903AB8EE670A5FED747A59
:1012AC00914220EE270A9CBFB2FBF1F301FB132203
:1012BC0096429AD2A9EB020298E707EE903AB8EE62
:1012CC00670A5FED7D7A914220EE270A9CBFB2FB44
:1012DC00F1F301FB13229642BFF473AFA9EB0202A8
:1012EC0070E707EE903AB8EE670A5FED877A9142A5
:1012FC0020EE270A9CBFB2FBF1F301FB13229642AE
:10130C00BFF44AAFA9EB020247E707EE903AB8EEFA
:10131C00670A5FED917A914220EE270A9CBFB2FBDF
:10132C00F1F301FB13229642BFF421AFA9EB0202A9
:10133C001EE707EE903AB8EE670A5FED9B7A914292
:10134C0020EE270A9CBFB2FBF1F301FB132296425D
:10135C00BFF4F8AEA9EB0202F5E607EE903AB8EE50
:10136C00670A5FEDA57A914220EE270A9CBFB2FB7B
:10137C00F1F301FB13229642BFF4CFAEA9EB0202AC
:10138C00CCE60122F7E70122CDE70122DFE70122BB
:10139C008EE701229FE70122B1E7B3FBFBF00BFBC9
:1013AC00103007E6DFF818C1DFED433A2DE9F04FB6
:1013BC00424D06460024ACF59630B6EE004AF7EEE8
:1013CC00004A4FF4166E0CF164080CF16007FCEC4B
:1013DC00017A9CED077ADCF83C9037EE677A09F5D8
:1013EC00166327EE237A37EE277AFCEEC76A0CEDEC
:1013FC00017A16EE902A9B1AA5FB0321090A0EFB13
:10140C00113101F65F13A5FB03A2120A0EFB123277
:10141C0002F65F1BA5FB0B3A4FEA1A2A0EFB04F3EC
:10142C000EFB1ABB1A4403EB010A03EB0B0100EB96
:10143C008A0A00EB820200EB8101D2ED005A9AED90
:10144C00005AD1ED007AB8EE666A77EEE57A37EE9F
:10145C00467A75EEC56A67EE877A66EE876A77EE2E
:10146C00A57A98ED007A76EE856A27EE046A77EE17
:10147C00A67A34EEC77A67EE867A27EE267AD7ED0F
:10148C00006A77EE877A09F1010267EEA67AA5FB6E
:10149C0002A137EE807A4B44090A013400EB830336
:1014AC000EFB1122082C83ED007ACCF83C20E6ECE4
:1014BC00017A8CD1BDE8F08F6F12033BB5814E1BC6
:1014CC002C360120BCEEC07ADFEDA66AF8EE477A26
:1014DC00F0B570EE677AA44C67EEA67AA268FDEEC2
:1014EC00E76A064616EE903A4FEA831C17EE103A5E
:1014FC00606807330D4606F14A01934204EB810103
:10150C0088BF1218D31AD1F84821B8EEE66A9A1A95
:10151C00102A77EEC67A0CF1400716D9934A246844
:10152C00C1F8483102F1800E0EEBC61102EBC61267
:10153C0004EB830E0133DEF800E042F804EB984232
:10154C0098BF00238A42F3D1002205EB0C033D44E3
:10155C00D3ED005A93ED037A95ED002AD3ED133AAF
:10156C0093ED016AD3ED026AD3ED112A93ED123A91
:10157C0093ED051A93ED065AD3ED090AD3ED044AFF
:10158C0093ED144ADFED7A1A93ED080A32EE652AD0
:10159C0073EEC73A22EE272A72EEC62A33EE663A6B
:1015AC0063EEA73A32EE252A62EEA72AD3ED075A4C
:1015BC0023EE273A73EE873A93ED177A72EE862A6A
:1015CC0033EE263A93ED156AD3ED166A37EE657A4B
:1015DC0036EE416A76EEC56A27EE277A26EE276A42
:1015EC0066EEA76A37EE257AD3ED195A02EB46124E
:1015FC0036EE016A76EE856A93ED0A1A93ED1A5A65
:10160C0075EEE05A02F10A015A4A65EEA75A35EE18
:10161C00415A02EB810275EEA05A25EE275AD2ED03
:10162C00000A35EE015A22EE202A92ED011AD2ED73
:10163C00020A32EE212A34EE644A62EE812A24EE4A
:10164C00274A92ED031AD2ED041A72EE822A23EE87
:10165C00203A34EE244A33EE223A63EE813AD3ED4B
:10166C00184A92ED052AD2ED062A73EE833A24EE3F
:10167C00214A74EEC04A34EE234A26EE026A92EDF9
:10168C00073AD2ED083A36EE046A64EEA74A66EEE3
:10169C00A26A92ED094A92ED0A2AD3ED0B2A76EE54
:1016AC00866A74EE804A27EE037A93ED1B6A93EDFB
:1016BC000C3A93ED1E0A37EE267A64EEA34A36EE08
:1016CC00626AD3ED1C6AD3ED0D3A74EE874A65EE6F
:1016DC00845A26EE276A76EEC36A93ED1D7A93ED53
:1016EC000E4A75EEA45A25EE025A36EE226A66EEC2
:1016FC00A76AD2ED0B2AD3ED0F4A37EE637A35EE9B
:10170C00255A26EE226A76EE836A27EE277A92ED28
:10171C000C3AD3ED1F5A30EE440A36EE056A66EEEB
:10172C00836A92ED0D5A37EE237A20EE270A75EE76
:10173C00E45A76EE866A30EE040A25EEA76A27EEA6
:10174C00057A92ED0E5A37EE267A60EE057AD2EDD6
:10175C000F6A36EE240A77EE877A20EE260A30EEF0
:10176C00270AF0BD000000420000001070010010BC
:10177C0000000000480100105A4BDFED5B5AD3F813
:10178C0000C070B5D3E9012E0446B0EE655A02EBE9
:10179C000E00002116E05E1CB2425DD915ED016A07
:1017AC0036EE476A66EE277A77EE877A26EEA77AC8
:1017BC00043167EEA77AB1F5006F35EE075A75EE76
:1017CC00A75A6DD007EE901AF8EEE77A77EE807A8A
:1017DC00BCEEE77A17EE103A934224BFB3FBF2F556
:1017EC0002FB15339E45B8EE477A2CBFAEEB0303D4
:1017FC00C31A0CEB8305012B77EEC77A95ED007AB3
:10180C003AD95E1CB24237D955ED016A76EEC76AF9
:10181C0066EEA77A77EE876A0B1907EE903AF8EE28
:10182C00E77A77EE807ABCEEE77A17EE103A9342BD
:10183C0024BFB3FBF2F502FB15337345B8EE477AC0
:10184C0094BFAEEB0303C31A0CEB8305012B77EEAD
:10185C00C77A95ED007A9ED8013B1DD49A4298BF69
:10186C009B1A0CEB830393ED006A36EE476A66EE27
:10187C00277A77EE877A99E7013B0FD49A4298BF83
:10188C009B1A0CEB8303D3ED006A76EEC76A66EE07
:10189C00A77A77EE876ABFE71344E2E71344F0E7D1
:1018AC00DFED127A60EEA77AF4EEE75AF1EE10FA59
:1018BC0002D59FED0D0A70BDB5EEC05AF1EE10FACF
:1018CC000CD4F0EE456A65EEA07A9FED097A25EE10
:1018DC00265A77EE877A85EE270A70BDF1EE456AB7
:1018EC00F1E700BF00000010000000000AD7233C05
:1018FC005F70893030B5D04C94ED525AF7EE002A17
:10190C0072EEC52A2DED048BF5EEC02AF1EE10FA1D
:10191C0094ED538A83B000F1E080B0EE627ADFED93
:10192C00C77AD4ED544AB4EEE77AF1EE10FA00F12E
:10193C00A58194ED553A9FEDC27ADFEDC26AF6EEC1
:10194C00007A23EE077AB4EEE73AF1EE10FA67EE7E
:10195C00266A80F2BF80F5EEC06AF1EE10FA73EEE3
:10196C00275A19DAFEEE007A77EEA67A9FEDB66A60
:10197C00DFEDB66AFDEEE77AF8EEE77A67EE867A87
:10198C0037EE677AB4EEE67AF1EE10FA40F3408166
:10199C00DFEDAB7A37EEC77A27EE074ADFEDAC7A8C
:1019AC009FEDAC6ADFEDAC6A9FEDAC2AD4ED593AF1
:1019BC0064EE277A77EEC67AB7EE006A67EE847A21
:1019CC0077EEA67AD4ED586A67EE847A76EEA36A3F
:1019DC0077EEC27A67EE847AB6EE004A77EE867AB4
:1019EC0066EE846A67EE877A36EE667A67EEA77AD9
:1019FC00F5EEC07AF1EE10FA76EE676A40F21881D5
:101A0C00B1EEE76A36EE676AF5EEC06A26EE076A53
:101A1C00F1EE10FA36EE276A40F20781F1EEE67A23
:101A2C0077EEE67AD4F8843267EE877A77EEA67A88
:101A3C00F0EE678A002B53D028EE030AD4ED567AC9
:101A4C00616894ED577A30EE240A28EE252A30EEA0
:101A5C00270A32EE242AFCEEC07A32EE072A17EE61
:101A6C00902AF8EE677A8A4230EE670A03D3B2FB0B
:101A7C00F1F301FB1322A36820688DED016A9342F8
:101A8C001D4638BFCB189A1A01230090FEF788FB2D
:101A9C00FCEEC27A9DED016A009817EE902A8A42FC
:101AAC0024BFB2FBF1F301FB1322AA42F8EE677AD2
:101ABC0088BF6B1866EE001A88BF9A1A32EE670A56
:101ACC0098BFAA1A0123FEF76BFB28EE800A30EEB2
:101ADC00210A64E073EE675A46E7B1EE627A1EE7BC
:101AEC00DFED5F7AB4EEE75AF1EE10FAA4DDDFED2C
:101AFC005D7AB4EEE75AF1EE10FA40F33881F0EE6D
:101B0C00007AB4EEE75AF1EE10FA40F33681DFEDCD
:101B1C00567AB4EEE75AF1EE10FA40F32A814FF4FC
:101B2C00C650032368EE255A28EE030A75EEA45A14
:101B3C00D4ED577AD4F87C2294ED567AC4F88032DE
:101B4C0030EE240A75EEA77A9A4230EE070AB0EE10
:101B5C00679A00F006814549014400208DED016A29
:101B6C000091FFF7AFFC9DED016A0099F0EE407A11
:101B7C0066EE277A0120B0EE490ACDED007AFFF728
:101B8C00A1FC94ED527ADDED007A94ED553A28EEF5
:101B9C00800AF7EE002A30EE270A72EEC72AC2EE50
:101BAC00887AB7EE007A77EE837AF4EEC77AF1EEA4
:101BBC0010FAC0F29F80D4F89432002B40F0CF8002
:101BCC00D4F86C21D4F89432C4F85821002B40F08E
:101BDC00C480D4F86821C4F86021B7EE007AF4EE22
:101BEC00C77A4FF0FF33F1EE10FAC4F894326CDB85
:101BFC0077EEC77AF4EEC77AF1EE10FAF8DA012331
:101C0C00C4F89832C4ED557A03B0BDEC048B30BDEA
:101C1C00DFED177AB4EEE77AF1EE10FA7FF5BCAE91
:101C2C00DFED147A37EEC77AB6E6DFED137AF7E616
:101C3C009FED116AE6E600BF0000001017B7D1381F
:101C4C00DB0F494083F9223EDB0FC940DB0FC93F54
:101C5C0091EE3836470C50398588083CABAA2A3EA1
:101C6C005C8F823F3333B33FB81E3540EC740008B1
:101C7C00DB0FC9BFDB0F49C000000000B6EE000A45
:101C8C0028EE000A6168206830EE240A4FF0FF331A
:101C9C00FCEEC07AC4F8943217EE902A8A4224BF24
:101CAC00B2FBF1F301FB1322A368F8EE677A9342BF
:101CBC0038BF5B1830EE670A9A1A012303B0BDECEB
:101CCC00048BBDE83040FEF76BBAF5EEC07A012309
:101CDC00F1EE10FAC4F8983294D577EE877AF5EED7
:101CEC00C07AF1EE10FAF8D4C4ED557A03B0BDEC1D
:101CFC00048B30BDF5EEC07AF1EE10FA3FF55BAF18
:101D0C00B6EE007AB4EEC73AF1EE10FAF4EEC77AFA
:101D1C00ACBF01220022F1EE10FAACBF012300236C
:101D2C009A423FF46FAFD4F89432012B08BFD4F829
:101D3C006C21D4F8943218BF0022012BC4F85C211A
:101D4C004FF0FF3308BFD4F86821C4F8943218BFA1
:101D5C000022C4F86421002352E700223BE7002252
:101D6C0030E7D4F8781200297FF4F7AEF3E6184682
:101D7C00D8E64FF484500223D4E64FF404600123D8
:101D8C00D0E600BF00B53A4A3A4B116B41F0020164
:101D9C0087B01163126B5A684FF4407002435A605B
:101DAC00DA6822F4702242F4A022DA6098611A6890
:101DBC0022F47022002142F4A0221A600191019BAE
:101DCC00B3F5FA6F06DA019B01330193019BB3F56E
:101DDC00FA6FF8DB274A09214FF0807E4FF4807CA4
:101DEC000020136913F400731DD1C2F818E002939C
:101DFC00029BB3F5617F06DA029B01330293029BCF
:101E0C00B3F5617FF8DBC2F818C00390039BB3F500
:101E1C00617F06DA039B01330393039BB3F5617F68
:101E2C00F8DB0139DDD1134A00234FF000719161C9
:101E3C000493049BB3F5617F06DA049B013304938E
:101E4C00049BB3F5617FF8DB0A4A00234FF4007161
:101E5C0091610593059BB3F5617F06DA059B013310
:101E6C000593059BB3F5617FF8DB07B000BD00BFA0
:101E7C0000380240000402401D4A1E4B116B41F019
:101E8C0002011163126B1A6822F4403242F40032E0
:101E9C001A605A6842F480725A609A6842F480322E
:101EAC009A60DA6822F4403242F48032DA605A6A7C
:101EBC0022F00F0242F004025A621A6822F4402205
:101ECC0042F400221A605A6842F400725A609A680E
:101EDC0042F480229A60DA6822F4402242F4802292
:101EEC00DA605A6A22F0F00242F040025A627047FD
:101EFC000038024000040240DFF828C1484BDCF8EF
:101F0C00002042F48072CCF80020ACF5806C01E02B
:101F1C00013B6ED0DCF81424D207F9D5414A404B72
:101F2C004FF0920CC2F810C0DFF8FCC001E0013B8E
:101F3C0057D0DCF814249207F9D53A4A384B9269F9
:101F4C00DFF8E4C001E0013B56D0DCF814241206A3
:101F5C00F9D5344A324BDFF8D0C0106101E0013BB7
:101F6C004DD0DCF814245007F9D5DFF8B8C02C4B51
:101F7C00DCF800202C4842F48072CCF8002001E000
:101F8C00013B3FD0D0F81424D207F9D5254A93232E
:101F9C0013611068224B20F4806CC2F800C02248F8
:101FAC0001E0013B34D0D0F814249207F9D51D4A36
:101FBC001B4B9069D2F800C01B484CF4007CC2F853
:101FCC0000C001E0013B20D0D0F814245206F9D512
:101FDC00144B1A690A701A6842F4806200201A6065
:101FEC007047104A136843F400736FF001001360DC
:101FFC0070474FF0FF3070476FF0020070476FF082
:10200C00030070476FF0040070476FF006007047D4
:10201C00044A136843F400736FF0050013607047B3
:10202C00400D03000054004000500040DFF8C0C0D9
:10203C002E4BDCF8002042F48072CCF80020ACF57A
:10204C00806C01E0013B44D0DCF81424D207F9D5B4
:10205C00274A264B4FF0920CC2F810C0DFF894C000
:10206C0001E0013B2DD0DCF814249207F9D5204A6D
:10207C001E4B9269DFF87CC001E0013B2CD0DCF8F0
:10208C0014241206F9D51A4A184BDFF868C01061EF
:10209C0001E0013B23D0DCF814241006F9D5144AD6
:1020AC00124B1448116101E0013B1BD0D0F81424F1
:1020BC005207F9D50E4A136843F4007300201360DD
:1020CC0070470B4A136843F400736FF00100136000
:1020DC0070474FF0FF3070476FF0020070476FF0A1
:1020EC00030070476FF00400704700BF400D030001
:1020FC0000540040005000401F4A204B116B41F02F
:10210C00010182B01163126B1A6822F0300242F0A6
:10211C0010021A6059681A4A4FF4802C002021F0E2
:10212C0004015960C3F818C00090009B934205DC71
:10213C00009B01330093009B9342F9DD0F4B1A680F
:10214C0022F0300242F010021A6059680C4A4FF02B
:10215C00040C002021F004015960C3F818C0019050
:10216C00019B934205DC019B01330193019B93423C
:10217C00F9DD02B0704700BF003802400000024099
:10218C00DF93040010B5DFF8A0C0864684B0172298
:10219C0000214FF480644FF080602EFA02F313F0AC
:1021AC00010F0CBF4FF080534FF48053CCF8183014
:1021BC000191019B0B2B05DC019B01330193019BCE
:1021CC000B2BF9DDCCF818400291029B0B2B05DC94
:1021DC00029B01330293029B0B2BF9DDCCF8180008
:1021EC000391039B0B2B05DC039B01330393039B94
:1021FC000B2BF9DD013AD0D20A4A00234FF40041EF
:10220C0091610093009B0B2B05DC009B0133009329
:10221C00009B0B2BF9DD034B4FF000429A6104B08D
:10222C0010BD00BF000002400008024030B4DFF8CF
:10223C00A0C0254884B0172200214FF480654FF0D0
:10224C0080642CFA02F313F0010F0CBF4FF0805393
:10225C004FF4805383610291029B0B2B05DC029B94
:10226C0001330293029B0B2BF9DD85610191019BDC
:10227C000B2B05DC019B01330193019B0B2BF9DD2F
:10228C0084610091009B0B2B05DC009B01330093B8
:10229C00009B0B2BF9DD013AD3D20C4A00234FF4EF
:1022AC00004191610393039B0B2B05DC039B0133D2
:1022BC000393039B0B2BF9DD044B4FF000429A6107
:1022CC0004B030BC704700BF000802400000024060
:1022DC00777777002DE9F04F194B2DED088B1A68A5
:1022EC0051058DB009D4164B1A68120500F13F84C4
:1022FC000DB0BDEC088BBDE8F08F4FF48061114A36
:10230C009960114DDFF858805268DFED10BA98EDE6
:10231C00079A9FED0FBADFED0F9A0F4FDFED0FAA63
:10232C00DFF8409003920023029304ABAB46B7EE68
:10233C00008A6C1805F6E80A05F6940601932AE162
:10234C0000640240001000E028000020000000346F
:10235C006F12033B72F97F3FFFFF7F00FEFFFF4AC6
:10236C000000002000000010F6EE083AB4EEE34A3C
:10237C00F1EE10FA40F3EA8134EE634AB1EE003A22
:10238C0024EE033A33EE083AC4EE032A32EEA34AA3
:10239C00B4EEC84AF1EE10FA40F3D881F5EEC04A1B
:1023AC003B46F1EE10FA236000F1E881B6EE084AE4
:1023BC00F4EEC44AF1EE10FA40F3F98174EEC44A1B
:1023CC00F1EE003A64EEA33A73EE883A84EEA33A47
:1023DC0073EE044AF4EEC84AF1EE10FA40F3E781CA
:1023EC00B5EEC05A3B46F1EE10FA636000F1F7818E
:1023FC00F6EE084AB4EEE45AF1EE10FA40F3088215
:10240C0035EE645AB1EE004A25EE044A34EE084A21
:10241C00C5EE043A33EEA45AB4EEC85AF1EE10FAF3
:10242C0040F3F681F5EEC05A3B46F1EE10FAA3608C
:10243C0000F10682B6EE085AF4EEC55AF1EE10FA27
:10244C0040F3178275EEC55AF1EE004A65EEA44AC8
:10245C0074EE884A85EEA44A74EE055AF4EEC85A16
:10246C00F1EE10FA40F30582B5EEC06A3B46F1EE90
:10247C0010FAE36000F11582F6EE085AB4EEE56A44
:10248C00F1EE10FA40F3268236EE656AB1EE005A90
:10249C0026EE055A35EE085AC6EE054A34EEA56A04
:1024AC00B4EEC86AF1EE10FA40F31482F5EEC06A8D
:1024BC003B46F1EE10FA236100F12882B6EE086A71
:1024CC00F4EEC66AF1EE10FA40F3398276EEC66A83
:1024DC00F1EE005A66EEA55A75EE885A86EEA55AAC
:1024EC0075EE066AF4EEC86AF1EE10FA40F3278234
:1024FC00B5EEC07A3B46F1EE10FA636100F137821B
:10250C00F6EE086AB4EEE67AF1EE10FA40F3488281
:10251C0037EE667AB1EE006A27EE066A36EE086A86
:10252C00C7EE065A35EEA67AB4EEC87AF1EE10FA7A
:10253C0040F33682F5EEC07A3B46F1EE10FAA36119
:10254C0000F14682B6EE087AF4EEC77AF1EE10FA94
:10255C0040F3578277EEC77AF1EE006A67EEA66A0F
:10256C0076EE886A87EEA66A76EE077AF4EEC87A7B
:10257C00F1EE10FAC8BF3B4640F34382E36198F991
:10258C002430002B80F25482DF4B20349C420BF120
:10259C00200B00F08382DBF8003043F317030AEEC4
:1025AC00103AB8EECAAA2AEE2BAAB5EEC0AAF1EEE2
:1025BC0010FA00F17087F0EE4A8ADAED007ADBF857
:1025CC0004309AED007A78EEE77A43F3170367EE5E
:1025DC008B7A77EE877A07EE103ADBF80830CAED83
:1025EC00007AB8EEC77A43F3170327EE2B7A07EE7F
:1025FC00903AB5EEC07AF8EEE77AF1EE10FA67EEA3
:10260C00AB7A01D5B1EE477AF5EEC07AF1EE10FA5D
:10261C0001D5F1EE677A96ED006AD6ED006A019865
:10262C0037EE467AF0EE490A27EE0B7AB0EE4A0AFC
:10263C0037EE267A86ED007AD6ED016A96ED017AB0
:10264C0077EEE67A67EE8B7A77EE877AC6ED017ACB
:10265C0095F8803895F89C28134314BF0123002368
:10266C00C9F84031FDF708FF95F89C38002B40F075
:10267C00168795F88038002B41F094819DED044A23
:10268C00B4EEC84AF1EE10FAC0F2F0860123DDED8B
:10269C00054AF4EEC84AF1EE10FAC0F2DC860123CA
:1026AC009DED065AB4EEC85AF1EE10FAC0F2C88687
:1026BC000123DDED075AF4EEC85AF1EE10FAC0F220
:1026CC00B48601239DED086AB4EEC86AF1EE10FAE7
:1026DC00C0F2A0860123DDED096AF4EEC86AF1EEC2
:1026EC0010FAC0F28C8601239DED0A7AB4EEC87AFA
:1026FC00F1EE10FAC0F278860123DDED0B7AF4EEE0
:10270C00C87AF1EE10FAC0F2638601230293B5EE9B
:10271C00C04AF1EE10FA7FF527AEFEEE083AB4EEA1
:10272C00E34AF1EE10FA11D5F6EE082AB1EE444A5E
:10273C0034EE624AF1EE003A64EE233A73EE883AD4
:10274C0084EE233A33EE224AB1EE444AFFEE003ACD
:10275C00F4EEC43AF1EE10FAD8BFF0EE443A63EE60
:10276C00AA3AF5EEC04ABDEEE34AF1EE10FA14EEC9
:10277C00103A23F07F4323607FF518AEBEEE084A73
:10278C00F4EEC44AF1EE10FA11D5B6EE083AF1EEB9
:10279C00644A74EEC34AB1EE004A24EE844A34EE25
:1027AC00084AC4EE843A73EE834AF1EE644ABFEEF3
:1027BC00004AB4EEE44AF1EE10FAD8BFB0EE644A27
:1027CC0024EE2A4AB5EEC05AFDEEC44AF1EE10FAD8
:1027DC0014EE903A23F07F4363607FF509AEFEEE72
:1027EC00084AB4EEE45AF1EE10FA11D5F6EE083AB6
:1027FC00B1EE455A35EE635AF1EE004A65EE244AC5
:10280C0074EE884A85EE244A34EE235AB1EE455ACA
:10281C00FFEE004AF4EEC54AF1EE10FAD8BFF0EE26
:10282C00454A64EEAA4AF5EEC05ABDEEE45AF1EE02
:10283C0010FA15EE103A23F07F43A3607FF5FAAD42
:10284C00BEEE085AF4EEC55AF1EE10FA11D5B6EEFA
:10285C00084AF1EE655A75EEC45AB1EE005A25EEEF
:10286C00855A35EE085AC5EE854A74EE845AF1EE57
:10287C00655ABFEE005AB4EEE55AF1EE10FAD8BF25
:10288C00B0EE655A25EE2A5AB5EEC06AFDEEC55A71
:10289C00F1EE10FA15EE903A23F07F43E3607FF5EA
:1028AC00EBADFEEE085AB4EEE56AF1EE10FA11D576
:1028BC00F6EE084AB1EE466A36EE646AF1EE005A5C
:1028CC0066EE255A75EE885A86EE255A35EE246A40
:1028DC00B1EE466AFFEE005AF4EEC65AF1EE10FA6B
:1028EC00D8BFF0EE465A65EEAA5AF5EEC06ABDEEB8
:1028FC00E56AF1EE10FA16EE103A23F07F432361ED
:10290C007FF5DCAD02E000BF28060020BEEE086AB1
:10291C00F4EEC66AF1EE10FA11D5B6EE085AF1EEE5
:10292C00666A76EEC56AB1EE006A26EE866A36EE07
:10293C00086AC6EE865A75EE856AF1EE666ABFEED7
:10294C00006AB4EEE66AF1EE10FAD8BFB0EE666A31
:10295C0026EE2A6AB5EEC07AFDEEC66AF1EE10FAE2
:10296C0016EE903A23F07F4363617FF5C9ADFEEE1E
:10297C00086AB4EEE67AF1EE10FA11D5F6EE085AC2
:10298C00B1EE477A37EE657AF1EE006A67EE266AA9
:10299C0076EE886A87EE266A36EE257AB1EE477AAD
:1029AC00FFEE006AF4EEC76AF1EE10FAD8BFF0EE53
:1029BC00476A66EEAA6AF5EEC07ABDEEE67AF1EEEB
:1029CC0010FA17EE103A23F07F43A3617FF5BAADEE
:1029DC00BEEE087AF4EEC77AF1EE10FA11D5B6EE27
:1029EC00086AF1EE677A77EEC67AB1EE007A27EED6
:1029FC00877A37EE087AC7EE876A76EE867AF1EE3A
:102A0C00677ABFEE007AB4EEE77AF1EE10FAD8BF2F
:102A1C00B0EE677A27EE2A7AFDEEC77A17EE903A77
:102A2C0023F07F43E36198F92430002BFFF6ACAD23
:102A3C0098F924300BB10023236098F92430012B32
:102A4C001CBF0023636098F92430022B1CBF0023A9
:102A5C00A36098F92430032B1CBF0023E36098F982
:102A6C002430042B1CBF0023236198F92430052B40
:102A7C001CBF0023636198F92430062B1CBF002374
:102A8C00A36198F92430072B1CBF0023E3614A4B48
:102A9C0020349C420BF1200B7FF47DADD5F8C4386B
:102AAC00039A0133C5F8C438444B5B689B1A1B0965
:102ABC004FF6FF72934228BF1346B5F8EE289BB22F
:102ACC00934288BFA5F8EE38029B002B41F06E8133
:102ADC00D5F8C428D5F8D0389A4281F0798195F888
:102AEC009C384BB3D5F8C428D5F8D0389A4223D3A8
:102AFC00D5F8C428324BA3FB020341F27071DB09F9
:102B0C0001FB132340F6B732934288BFCB1AD5F89A
:102B1C00C4282B49C3EB0323A1FB031302EB420193
:102B2C0002EB4112D2B2B2EB931F264934BF4FF0E5
:102B3C0080734FF480738B61D5F8C428D5F8D038E6
:102B4C009A42FFF4D0AB96ED007ADFED1F7A1D4B65
:102B5C00B4EEE77AF1EE10FACCBF4FF000624FF40E
:102B6C0000629A61194B1A6812057FF5C1AB134AC2
:102B7C00174DDFF874809FED17BADFED17AADFED64
:102B8C0017BA174C9FED17AADFF860904FF400614D
:102B9C00996000235268029304AB98ED079A019355
:102BAC00AB46B7EE008A05F5806705F6E80A05F630
:102BBC00940603921EE100BF28060020001000E0DE
:102BCC00F1197605000002400AD7A33C00640240CC
:102BDC0028000020000000346F12033B72F97F3F85
:102BEC00FFFF7F00FEFFFF4A0000002000000010E6
:102BFC00B6EE084AF4EEC44AF1EE10FA40F3F9814D
:102C0C0074EEC44AF1EE003A64EEA33A73EE883ADD
:102C1C0084EEA33A73EE044AF4EEC84AF1EE10FACD
:102C2C00C8BF234640F3E581B5EEC05AF1EE10FA69
:102C3C00C7F8043200F1F681F6EE084AB4EEE45A15
:102C4C00F1EE10FA40F3078235EE645AB1EE004A09
:102C5C0025EE044A34EE084AC5EE043A33EEA45A83
:102C6C00B4EEC85AF1EE10FAC8BF234640F3F38114
:102C7C00F5EEC05AF1EE10FAC7F8083200F10482F2
:102C8C00B6EE085AF4EEC55AF1EE10FA40F315827E
:102C9C0075EEC55AF1EE004A65EEA44A74EE884A08
:102CAC0085EEA44A74EE055AF4EEC85AF1EE10FA09
:102CBC00C8BF234640F30182B5EEC06AF1EE10FAAC
:102CCC00C7F80C3200F11282F6EE085AB4EEE56A3F
:102CDC00F1EE10FA40F3238236EE656AB1EE005A3B
:102CEC0026EE055A35EE085AC6EE054A34EEA56AAC
:102CFC00B4EEC86AF1EE10FAC8BF234640F30F8257
:102D0C00F5EEC06AF1EE10FAC7F8103200F1248229
:102D1C00B6EE086AF4EEC66AF1EE10FA40F33582AC
:102D2C0076EEC66AF1EE005A66EEA55A75EE885A32
:102D3C0086EEA55A75EE066AF4EEC86AF1EE10FA44
:102D4C00C8BF234640F32182B5EEC07AF1EE10FAEB
:102D5C00C7F8143200F13282F6EE086AB4EEE67A65
:102D6C00F1EE10FA40F3438237EE667AB1EE006A68
:102D7C0027EE066A36EE086AC7EE065A35EEA67AD4
:102D8C00B4EEC87AF1EE10FAC8BF234640F32F8296
:102D9C00F5EEC07AF1EE10FAC7F8183200F1408265
:102DAC00B6EE087AF4EEC77AF1EE10FA40F35182DF
:102DBC0077EEC77AF1EE006A67EEA66A76EE886A5D
:102DCC0087EEA66A76EE077AF4EEC87AF1EE10FA80
:102DDC00C8BF234640F33D82C7F81C3298F9243013
:102DEC00002B80F24E82DB4B20379F420BF1200BE5
:102DFC0000F08582DBF8003243F3170309EE903ABA
:102E0C00F8EEE99A69EE8B9AF5EEC09AF1EE10FAAB
:102E1C0000F1D283F0EE698ADAED007ADBF8043245
:102E2C009AED007A78EEE77A43F3170367EEAA7A05
:102E3C0077EE877A07EE103ADBF80832CAED007AA3
:102E4C00B8EEC77A43F3170327EE0B7A07EE903AE6
:102E5C00B5EEC07AF8EEE77AF1EE10FA67EE8B7AFF
:102E6C0001D5B1EE477AF5EEC07AF1EE10FA01D544
:102E7C00F1EE677A96ED006AD6ED006A019837EEAE
:102E8C00467AF0EE490A27EE2A7AB0EE690A37EE56
:102E9C00267A86ED007AD6ED016A96ED017A77EE08
:102EAC00E67A67EEAA7A77EE877AC6ED017A95F81C
:102EBC00803895F89C28134314BF01230023C9F8CC
:102ECC004031FDF7D9FA95F89C38002B40F0778308
:102EDC0095F88038002B40F089839DED044AB4EEC0
:102EEC00C84AF1EE10FAC0F253830123DDED054A16
:102EFC00F4EEC84AF1EE10FAC0F2408301239DEDC6
:102F0C00065AB4EEC85AF1EE10FAC0F22D83012322
:102F1C00DDED075AF4EEC85AF1EE10FAC0F21A833E
:102F2C0001239DED086AB4EEC86AF1EE10FAC0F206
:102F3C0007830123DDED096AF4EEC86AF1EE10FA9D
:102F4C00C0F2F48201239DED0A7AB4EEC87AF1EE58
:102F5C0010FAC0F2E1820123DDED0B7AF4EEC87AAF
:102F6C00F1EE10FAC0F2CD8201230293B5EEC04A05
:102F7C00F1EE10FA00F19A82F6EE083AB4EEE34A5A
:102F8C00F1EE10FA40F3AB8234EE634AB1EE003A44
:102F9C0024EE033A33EE083AC4EE032A32EEA34A87
:102FAC00B4EEC84AF1EE10FAC8BF234640F397823C
:102FBC00F5EEC04AF1EE10FAC7F800327FF518AE04
:102FCC00BEEE084AF4EEC44AF1EE10FA11D5B6EE94
:102FDC00083AF1EE644A74EEC34AB1EE004A24EEAC
:102FEC00844A34EE084AC4EE843A73EE834AF1EE16
:102FFC00644ABFEE004AB4EEE44AF1EE10FAD8BFD0
:10300C00B0EE644A24EE0A4AB5EEC05AFDEEC44A4C
:10301C00F1EE10FA14EE903A23F07F43C7F8043225
:10302C007FF50AAEFEEE084AB4EEE45AF1EE10FA61
:10303C0011D5F6EE083AB1EE455A35EE635AF1EE7B
:10304C00004A65EE244A74EE884A85EE244A34EE32
:10305C00235AB1EE455AFFEE004AF4EEC54AF1EEA2
:10306C0010FAD8BFF0EE454A64EE8A4AF5EEC05A23
:10307C00BDEEE45AF1EE10FA15EE103A23F07F4350
:10308C00C7F808327FF5FCADBEEE085AF4EEC55A0F
:10309C00F1EE10FA11D5B6EE084AF1EE655A75EE5E
:1030AC00C45AB1EE005A25EE855A35EE085AC5EED3
:1030BC00854A74EE845AF1EE655ABFEE005AB4EEAE
:1030CC00E55AF1EE10FAD8BFB0EE655A25EE0A5A61
:1030DC00B5EEC06AFDEEC55AF1EE10FA15EE903A57
:1030EC0023F07F43C7F80C327FF5EEADFEEE085AA5
:1030FC00B4EEE56AF1EE10FA11D5F6EE084AB1EE2F
:10310C00466A36EE646AF1EE005A66EE255A75EEA2
:10311C00885A86EE255A35EE246AB1EE466AFFEEE1
:10312C00005AF4EEC65AF1EE10FAD8BFF0EE465A39
:10313C0065EE8A5AF5EEC06ABDEEE56AF1EE10FA5C
:10314C0016EE103A23F07F43C7F810327FF5E0AD4E
:10315C0002E000BF28060020BEEE086AF4EEC66A44
:10316C00F1EE10FA11D5B6EE085AF1EE666A76EE6B
:10317C00C56AB1EE006A26EE866A36EE086AC6EEBD
:10318C00865A75EE856AF1EE666ABFEE006AB4EE99
:10319C00E66AF1EE10FAD8BFB0EE666A26EE0A6A5D
:1031AC00B5EEC07AFDEEC66AF1EE10FA16EE903A64
:1031BC0023F07F43C7F814327FF5CEADFEEE086ADC
:1031CC00B4EEE67AF1EE10FA11D5F6EE085AB1EE3D
:1031DC00477A37EE657AF1EE006A67EE266A76EE8C
:1031EC00886A87EE266A36EE257AB1EE477AFFEECC
:1031FC00006AF4EEC76AF1EE10FAD8BFF0EE476A37
:10320C0066EE8A6AF5EEC07ABDEEE67AF1EE10FA59
:10321C0017EE103A23F07F43C7F818327FF5C0AD94
:10322C00BEEE087AF4EEC77AF1EE10FA11D5B6EECE
:10323C00086AF1EE677A77EEC67AB1EE007A27EE7D
:10324C00877A37EE087AC7EE876A76EE867AF1EEE1
:10325C00677ABFEE007AB4EEE77AF1EE10FAD8BFD7
:10326C00B0EE677A27EE0A7AFDEEC77A17EE903A3F
:10327C0023F07F43C7F81C3298F92430002BFFF65B
:10328C00B2AD98F9243013B10023C7F8003298F985
:10329C002430012B1CBF0023C7F8043298F92430CA
:1032AC00022B1CBF0023C7F8083298F92430032BDB
:1032BC001CBF0023C7F80C3298F92430042B1CBF18
:1032CC000023C7F8103298F92430052B1CBF0023BB
:1032DC00C7F8143298F92430062B1CBF0023C7F80A
:1032EC00183298F92430072B1CBF0023C7F81C3266
:1032FC00B64B20379F420BF1200B7FF47BADD5F8FA
:10330C00C438039A0133C5F8C438B14B5B689B1AB7
:10331C001B094FF6FF72934228BF1346B5F8EE28EF
:10332C009BB2934288BFA5F8EE38029B002B40F06D
:10333C001585D5F8C428D5F8D0389A4280F0208568
:10334C0095F89C384BB3D5F8C428D5F8D0389A42A8
:10335C0023D3D5F8C4289F4BA3FB020341F2707111
:10336C00DB0901FB132340F6B732934288BFCB1A1B
:10337C00D5F8C4289749C3EB0323A1FB031302EB35
:10338C00420102EB4112D2B2B2EB931F924934BF0D
:10339C004FF080734FF480738B61D5F8C428D5F847
:1033AC00D0389A42FEF4A4AF96ED007ADFED8B7A1A
:1033BC00894BB4EEE77AF1EE10FACCBF4FF0006215
:1033CC004FF400629A610DB0BDEC088BBDE8F08F34
:1033DC00FFEE003AF4EEE37AF1EE10FA98BF43F008
:1033EC0001030293FFF793B9FFEE007AB4EEE77A8C
:1033FC00F1EE10FA98BF43F00103FFF77EB9FFEE30
:10340C00007AF4EEE76AF1EE10FA98BF43F001038C
:10341C00FFF76AB9FFEE007AB4EEE76AF1EE10FA44
:10342C0098BF43F00103FFF756B9FFEE007AF4EEB4
:10343C00E75AF1EE10FA98BF43F00103FFF742B9D7
:10344C00FFEE007AB4EEE75AF1EE10FA98BF43F0B3
:10345C000103FFF72EB9FFEE007AF4EEE74AF1EE26
:10346C0010FA98BF43F00103FFF71AB9F4EEE98A9A
:10347C00FFEE007AF1EE10FAB4EEE74AA8BF012392
:10348C00029AB8BF0023F1EE10FA98BF43F0010383
:10349C001343FFF7FCB8F1EE4A8AFFF78EB8019898
:1034AC00B0EE4A0AFDF77EFFFFF7E8B8FEEE083AE9
:1034BC00B4EEE34AF1EE10FA11D5F6EE082AB1EEAD
:1034CC00444A34EE624AF1EE003A64EE233A73EE6B
:1034DC00883A84EE233A33EE224AB1EE444AFFEEA8
:1034EC00003AF4EEC43AF1EE10FAD8BFF0EE443ADA
:1034FC0063EE8A3ABDEEE34A14EE103A23F07F43B2
:10350C0056E5FFEE003AF4EEE37AF1EE10FA98BFCE
:10351C0043F00103029329E5FFEE007AB4EEE77A5B
:10352C00F1EE10FA98BF43F0010315E5FFEE007AB7
:10353C00F4EEE76AF1EE10FA98BF43F0010302E5EE
:10354C00FFEE007AB4EEE76AF1EE10FA98BF43F0A2
:10355C000103EFE4FFEE007AF4EEE75AF1EE10FA15
:10356C0098BF43F00103DCE4FFEE007AB4EEE75AB7
:10357C00F1EE10FA98BF43F00103C9E4FFEE007AB4
:10358C00F4EEE74AF1EE10FA98BF43F00103B6E40B
:10359C00F4EEEB8AFFEE007AF1EE10FAB4EEE74AA5
:1035AC00A8BF0123029AB8BF0023F1EE10FA98BF0E
:1035BC0043F00103134399E4F1EE698A2CE401987A
:1035CC00B0EE690AFDF7EEFE87E400BF2806002086
:1035DC00001000E0F1197605000002400AD7A33C68
:1035EC0000004843000000000000802FD9EDA76ABE
:1035FC00D9EDA87A99EDA96A77EEE67AB5EE007A5C
:10360C0067EE867A77EEA67AF4EEC77AF1EE10FAC8
:10361C00C9EDA77A40F1F38389ED527AFEF76AF986
:10362C00D9EDA72AF7EE007A72EEE72AF0EE401AEF
:10363C00F5EEC02AF1EE10FA00F1FC831FED187ABA
:10364C0062EE872AF7EE007AF4EEE72AF1EE10FA32
:10365C0040F3DF831FED1D7AF0EE672AD9F8343082
:10366C00D5F86C18D5F86828D9F830E0002BA8BF2D
:10367C009C46D5F8643801EA020003EB8000C0EDEB
:10368C00001A01F10100B8BF4FF0000CC5F86C082E
:10369C0002F1FF30B8BF4FF0000E6045C0F0F98367
:1036AC0007EE90EAF8EE676A5FED317A66EEA76A8C
:1036BC00A1EB0C0C0CEA020C0CF1FF3E0EEA020E14
:1036CC0003EB8C0C03EB8E0E9CED006ADEED007AA6
:1036DC00D9F83CC0D9F838E077EEC67ABCF1000FC7
:1036EC0067EEA67AB8BF4FF0000C77EE867AB8BFBB
:1036FC004FF0000E67EEA27A604577EE877ACDED3B
:10370C00047AC0F0C28307EE90EAF8EE676A5FEDC8
:10371C004A7A66EEA76AA1EB0C0C0CEA020C0CF1CF
:10372C00FF3E0EEA020E03EB8C0C03EB8E0E9CEDAF
:10373C00006ADEED007AD9F844C0D9F840E077EEA3
:10374C00C67ABCF1000F67EEA67AB8BF4FF0000C3A
:10375C0077EE867AB8BF4FF0000E67EEA27A60451E
:10376C0077EE877ACDED057AC0F08B8307EE90EA81
:10377C00F8EE676A5FED647A66EEA76AA1EB0C0C53
:10378C000CEA020C0CF1FF3E0EEA020E03EB8C0C61
:10379C0003EB8E0E9CED006ADEED007AD9F84CC07E
:1037AC00D9F848E077EEC67ABCF1000F67EEA67A3E
:1037BC00B8BF4FF0000C77EE867AB8BF4FF0000E12
:1037CC0067EEA27A604577EE877ACDED067AC0F087
:1037DC00548307EE90EAF8EE676A5FED7D7A66EE49
:1037EC00A76AA1EB0C0C0CEA020C0CF1FF3E0EEAE2
:1037FC00020E03EB8C0C03EB8E0E9CED006ADEEDDF
:10380C00007AD9F854C0D9F850E077EEC67ABCF1FA
:10381C00000F67EEA67AB8BF4FF0000C77EE867AF1
:10382C00B8BF4FF0000E67EEA27A604577EE877A4C
:10383C00CDED077AC0F01D8307EE90EAF8EE676ACB
:10384C005FED977A66EEA76AA1EB0C0C0CEA020C02
:10385C000CF1FF3E0EEA020E03EB8C0C03EB8E0E0A
:10386C009CED006ADEED007AD9F85CC0D9F858E01E
:10387C0077EEC67ABCF1000F67EEA67AB8BF4FF0B0
:10388C00000C77EE867AB8BF4FF0000E67EEA27A86
:10389C00844577EE877ACDED087A00F2E68207EE62
:1038AC0090EAF8EE676A5FEDB07A66EEA76AA1EB74
:1038BC000C0C0CEA020C0CF1FF3E0EEA020E03EBB0
:1038CC008C0C03EB8E0E9CED006ADEED007AD9F8C1
:1038DC0064C0D9F860E077EEC67ABCF1000F67EEF1
:1038EC00A67AB8BF4FF0000C77EE867AB8BF4FF0CF
:1038FC00000E67EEA27A604577EE877ACDED097AF5
:10390C00C0F0AF8207EE90EAF8EE676A5FEDCA7A14
:10391C0066EEA76AA1EB0C0C0CEA020C0CF1FF3E54
:10392C000EEA020E03EB8C0C03EB8E0E9CED006A80
:10393C00DEED007A77EEC67AD9E91AEC67EEA67A54
:10394C00BCF1000F77EE867A67EEA27A77EE877A73
:10395C00CDED0A7AC0F2BD826045C0F07C8207EEE4
:10396C0090EAF8EE676A5FEDE07A66EEA76A604669
:10397C00091A1140481E024003EB810103EB82033C
:10398C0091ED006AD3ED007A77EEC67A67EEA67AEF
:10399C0077EE867A67EEA27A77EE877ACDED0B7AA0
:1039AC00FFF79BBAD9EDA76AD9EDA87A99EDA96A68
:1039BC0077EEE67AB5EE007A67EE867A77EEA67A3F
:1039CC00F4EEC77AF1EE10FAC9EDA77A40F10D8248
:1039DC0089ED527AFDF78EFFD9EDA72AF7EE007A22
:1039EC0072EEE72AF0EE401AF5EEC02AF1EE10FA6C
:1039FC0000F11D829FEDE97A62EE872AF7EE007ADC
:103A0C00F4EEE72AF1EE10FA40F317829FEDE47A18
:103A1C00F0EE672AD9F83430D5F86C18D5F8682848
:103A2C00D9F830E0002BA8BF9C46D5F8643801EAE1
:103A3C00020003EB8000C0ED001A01F10100B8BFD9
:103A4C004FF0000CC5F86C0802F1FF30B8BF4FF016
:103A5C00000E6045C0F0398207EE90EAF8EE676A16
:103A6C00DFEDD07A66EEA76AA1EB0C0C0CEA020C27
:103A7C000CF1FF3E0EEA020E03EB8C0C03EB8E0EE8
:103A8C009CED006ADEED007AD9F83CC0D9F838E03C
:103A9C0077EEC67ABCF1000F67EEA67AB8BF4FF08E
:103AAC00000C77EE867AB8BF4FF0000E67EEA27A64
:103ABC00604577EE877ACDED047AC0F0028207EE8E
:103ACC0090EAF8EE676ADFEDB77A66EEA76AA1EBCB
:103ADC000C0C0CEA020C0CF1FF3E0EEA020E03EB8E
:103AEC008C0C03EB8E0E9CED006ADEED007AD9F89F
:103AFC0044C0D9F840E077EEC67ABCF1000F67EE0F
:103B0C00A67AB8BF4FF0000C77EE867AB8BF4FF0AC
:103B1C00000E67EEA27A604577EE877ACDED057AD6
:103B2C00C0F0CB8107EE90EAF8EE676ADFED9D7A84
:103B3C0066EEA76AA1EB0C0C0CEA020C0CF1FF3E32
:103B4C000EEA020E03EB8C0C03EB8E0E9CED006A5E
:103B5C00DEED007AD9F84CC0D9F848E077EEC67A99
:103B6C00BCF1000F67EEA67AB8BF4FF0000C77EEF1
:103B7C00867AB8BF4FF0000E67EEA27A604577EEFA
:103B8C00877ACDED067AC0F0948107EE90EAF8EED4
:103B9C00676ADFED847A66EEA76AA1EB0C0C0CEA7F
:103BAC00020C0CF1FF3E0EEA020E03EB8C0C03EB45
:103BBC008E0E9CED006ADEED007AD9F854C0D9F86F
:103BCC0050E077EEC67ABCF1000F67EEA67AB8BF6C
:103BDC004FF0000C77EE867AB8BF4FF0000E67EE10
:103BEC00A27A604577EE877ACDED077AC0F05D81D9
:103BFC0007EE90EAF8EE676ADFED6A7A66EEA76A7E
:103C0C00A1EB0C0C0CEA020C0CF1FF3E0EEA020EBE
:103C1C0003EB8C0C03EB8E0E9CED006ADEED007A50
:103C2C00D9F85CC0D9F858E077EEC67ABCF1000F31
:103C3C0067EEA67AB8BF4FF0000C77EE867AB8BF65
:103C4C004FF0000E67EEA27A604577EE877ACDEDE5
:103C5C00087AC0F0268107EE90EAF8EE676ADFED8D
:103C6C00517A66EEA76AA1EB0C0C0CEA020C0CF173
:103C7C00FF3E0EEA020E03EB8C0C03EB8E0E9CED5A
:103C8C00006ADEED007AD9F864C0D9F860E077EE0E
:103C9C00C67ABCF1000F67EEA67AB8BF4FF0000CE5
:103CAC0077EE867AB8BF4FF0000E67EEA27A6045C9
:103CBC0077EE877ACDED097AC0F0EF8007EE90EAC7
:103CCC00F8EE676ADFED377A66EEA76AA1EB0C0CAB
:103CDC000CEA020C0CF1FF3E0EEA020E03EB8C0C0C
:103CEC0003EB8E0E9CED006ADEED007A77EEC67A61
:103CFC00D9E91AEC67EEA67ABCF1000F77EE867A5A
:103D0C0067EEA27A77EE877ACDED0A7AC0F2E5807B
:103D1C006045C0F0A38007EE90EAF8EE676ADFED2D
:103D2C00217A66EEA76A6046091A1140481E0240C5
:103D3C0003EB810103EB820391ED006AD3ED007A72
:103D4C0077EEC67A67EEA67A77EE867A67EEA27A77
:103D5C0077EE877ACDED0B7AFEF790BCD5F8C438A8
:103D6C0003F2EE23C5F8003A95F8EC38013385F8E8
:103D7C00EC38D5F8C428D5F8D0389A42FFF4E0AA2C
:103D8C00D5F8C438D5F8001A074A8B4234BF4FF423
:103D9C00803301239361FFF7D3BA00BF000048437F
:103DAC00000000000000802F00000240D5F8C4384D
:103DBC0003F2EE23C5F8003A95F8EC38013385F898
:103DCC00EC38D5F8C428D5F8D0389A42FEF487AE32
:103DDC00D5F8C438D5F8001A5E4A8B4234BF4FF47C
:103DEC00803301239361FEF77ABEB1EE007AF4EED4
:103DFC00C77AF1EE10FAD8BFB0EE677AE8E5B1EE0B
:103E0C00007AF4EEC77AF1EE10FAD8BFB0EE677A0A
:103E1C0002E49FED517AF4EEC72AF1EE10FA37EE78
:103E2C00E22A5ED49FED4D7A22EE077A16E4F1EE8B
:103E3C00622ADFE5F1EE622A00E49FED477AF4EEA8
:103E4C00C72AF1EE10FA37EEE22A63D49FED437ADB
:103E5C0022EE077ADEE5DFED416A89E5DFED3F6AA8
:103E6C0062E7DFED3E6A844654E5DFED3C6A84464A
:103E7C001DE5DFED3A6A8446E6E4DFED386A8446F8
:103E8C00AFE4DFED366A844678E4DFED346A8446CD
:103E9C0041E4DFED326A84460AE4DFED306A8446A1
:103EAC0014E7DFED2E6A8446DDE6DFED2C6A8446EE
:103EBC00A6E6DFED2A6A84466FE6DFED286A8446C3
:103ECC0038E6DFED266A844601E6DFED246A844697
:103EDC00CAE54FF0000EF44641E54FF0000EF446F3
:103EEC0019E7D9F83410D9F830300029BCBF0021BB
:103EFC00002339B307EE903AB8EE670ADFED187A73
:103F0C0020EE270A17480122FCF7F8F920EE027A76
:103F1C00FFF7A4BBD9F83410D9F830300029BCBF56
:103F2C000021002391B107EE903AB8EE670ADFED5D
:103F3C000C7A20EE270A0B480122FCF7DFF920EE61
:103F4C00027A67E59FED050A0121DBE79FED030A85
:103F5C000121F0E70000024077BE7F3F0000000027
:103F6C000000802F00000010704700BF054BD3F8F5
:103F7C0088204FF0006142F47002C3F888209960E9
:103F8C00704700BF00ED00E02DE98048AB4AAC4B18
:103F9C009A42AFB016D2013B9B1A032B11460FD994
:103FAC009B080133580802EBC0050024C1E900440A
:103FBC000831A942FAD1B3EB400F03D002EBC00297
:103FCC00002313604FF0E0219E4BD1F8FC2D002014
:103FDC0042F08072C1F8FC2D58601A689A4942F080
:103FEC0001021A600B68994A43F480330B60D2F8D3
:103FFC0000389903FBD5944A9549136C954843F0C6
:10400C0080531364136C0B6840F2057443F4404303
:10401C000B6004609368904923F47C4323F0F00315
:10402C0043F41443936051601368884943F08073E0
:10403C001360D1F800389A01FBD5834B9A6822F0B3
:10404C00030242F002029A609C6804F00C04082CF3
:10405C00FAD1824AC3F88820D3F88C207B4922F409
:10406C00700222F4F85242F4C062C3F88C201A6831
:10407C0042F080521A60D1F800389B00FBD5724B8D
:10408C009A6802F00C02042A03F06680082A03F0F6
:10409C00BD80734B6C4A73499068C0F3031001F5F3
:1040AC00A07B085CC34070480360136B43F0FE03B5
:1040BC001363136B01F110004FF0030A4FF0020968
:1040CC004FF001084FF00F0E4FF00C0C0268037903
:1040DC0015685E000AFA06F725EA070509FA06F6DE
:1040EC0035431560556808FA03F625EA0605556050
:1040FC0095683D439560D568072B25EA0705D56083
:10410C0094BF0025012502EB850203F00703156A15
:10411C009B000EFA03F6083025EA06050CFA03F3A9
:10412C002B4383451362D1D1474A936B43F0010370
:10413C0093634E4B926B4E4A4FF4605018644FF49D
:10414C00EA7058644FF483109864DA649A6D96069A
:10415C00FCD409221A6544F61F6300BF1A46013BC2
:10416C00002AFAD1414B9A6D9506FCD40A221A65A5
:10417C003E4B9A6D9006FCD4EB221A653B4B9A6D24
:10418C009206FCD43B4A1A654FF49F625A65374B32
:10419C009A6D9706FCD42C4A3748136BDFF8ECB0B9
:1041AC0043F00A031363354B126B1A6822F4401266
:1041BC001A60DA6822F4401242F48012DA601A684B
:1041CC0022F440021A60DA6822F4400242F48002BF
:1041DC00DA60026822F440020260C26822F44002F3
:1041EC0042F48002C260026822F040720260C2682F
:1041FC0022F0407242F08072C2601A6822F44012BF
:10420C001A60DA6822F4401242F48012DA601A68FA
:10421C0022F440021A60DA6822F4400242F480026E
:10422C00DA601B695E05164B4CBF9FED163A9FED8D
:10423C00163ACBF800304FF4E01229E000000010E1
:10424C00E80A0010001000E0003802400030024084
:10425C0000700040003C0240085440070056000229
:10426C000024F4008873000800000020000100A066
:10427C00610301010C600400000C024000040240C8
:10428C00000010D00080BB4700606A49000000109D
:10429C00CBF80420002003F5E00243F8040B9A420B
:1042AC00FBD1C14BCBF8BC30CBF8C430BF4BCBF8F7
:1042BC00B030BF4BCBF81430BE4BCBF81830BE4BE4
:1042CC00CBF81C30BD4BCBF82030BD4BCBF8243099
:1042DC00BC4BCBF82830BC4BCBF82C30BB4BBC4E7A
:1042EC00CBF8C830DFF818E3BA4BCBF8CC3000274A
:1042FC004FF07E5300220125CBF810600026CBE94D
:10430C003522CBF8C030CBF8E430CBF80431CBF805
:10431C000820CBF8DC208BF8E020CBE90C67CBE94C
:10432C000E67CBE91067CBE91267CBE91467CBE9D1
:10433C001667CBE91867CBE91A678BED2E3ACBF8E9
:10434C00B4508BF8D050CBF8E830CBE9502EDFF8D6
:10435C00B4C28BF83051DCF81020CBF80831CBF814
:10436C00EC30CBF80C31CBF8F030CBF81031CBF87B
:10437C00F430CBF81431CBF8F830CBF81831CBF84B
:10438C00FC30CBF81C31CBF80031CBF82031CBF81A
:10439C002831CBF83431DCF81030CBF82C016FEA33
:1043AC001333AB4003F0020325EAD22213434FF040
:1043BC007858032BCBF82481CBF8380102F02387F3
:1043CC0001EB8301D1F84031182B08BF0023824A3E
:1043DC00CBF83C311369814A814F1D055CBF814B81
:1043EC00CBF82831136B43F002031363136C43F4C3
:1043FC0080431364784B116C196821F0406141F0D3
:10440C0000611960996841F000619960596A21F462
:10441C00700141F4A0015962196821F0405141F03A
:10442C0000511960996841F000519960596A21F066
:10443C00706141F0A0615962196821F0404141F06E
:10444C0000411960996841F000419960596A21F066
:10445C00704141F0A0415962196821F0407141F05E
:10446C00807119604FF480555F499D6100204FF4B5
:10447C004D730B6048600B6843F040030B60536C4A
:10448C0043F480035364536C136B43F0380313638E
:10449C00136B564B1D6825F0300545F020051D604B
:1044AC005D6825F004055D609D6845F030059D60F4
:1044BC00DD6825F03005DD601D6A25F4706545F476
:1044CC00C0651D621D6825F4407545F400751D60BE
:1044DC005D6825F010055D609D6845F440759D6034
:1044EC00DD6825F44075DD601D6A25F4702545F402
:1044FC00C0251D621D6825F4406545F400651D60EE
:10450C005D6825F020055D609D6845F440659D6003
:10451C00DD6825F44065DD601D6A25F4700501F544
:10452C00EA3145F4C0051D620B68314D23F440534C
:10453C0043F400530B604B6823F040034B608B68D3
:10454C0043F440538B60CB6823F44053CB600B6A2D
:10455C0023F0706343F0C0630B622968254B21F490
:10456C00405141F400512960696821F040016960B3
:10457C00A96841F44051A960E96821F44051E9600F
:10458C00296A21F0706141F0C061296201265F60E7
:10459C00194D1A499E6007F20147DD6019615F628F
:1045AC009E62DD6219632FE06F12833ACAF249F101
:1045BC0000002042000070420000A0420000C842EF
:1045CC000000F04200000C4300002043CDCCCC3E58
:1045DC000000A041CDCCCC3F00040240003802408A
:1045EC00C12012007D99D63E0038004000100240D8
:1045FC000014024000580140FF0F06008007FF0026
:10460C0067452301000C0240136B43F480031363D2
:10461C00136B974B98629A6A12F00102FBD1954981
:10462C001963DFF89CA29449C3F834A04FF480704E
:10463C00D8629962C3F888208D4BD3F8885015F056
:10464C000105FAD18D49C3F890108D49C3F8941027
:10465C008C4A8D494FF48070C3F88C00C3F88810D5
:10466C00102182F839134FF0007151609A6A42F0B0
:10467C0001029A62D3F8882042F00102C3F8882024
:10468C00824B5A6A42F480325A625A6842F480323F
:10469C005A60FDF731FDFDF775FBFDF7EDFB7C4A2C
:1046AC007C4B116C41F400111164126C4FF40042FC
:1046BC001A602A221D605A60D222DA6129462B2206
:1046CC0001251A624FF6FF371D600E46724A01E053
:1046DC00013A02D098698007FAD418686E4A40F4FF
:1046EC008070186001E0013A02D05869C007FAD511
:1046FC005A69D20740F152844A00D2B267481A6113
:10470C0005E0520500F15584013800F059845A69CE
:10471C0012F0020FF5D09A691A6848090AEB80006A
:10472C0042F400721A60D0F804C801F01F0205FAB6
:10473C0002F242EA0C02C0F804280A960A9AB2F570
:10474C00FA6F06DA0A9A01320A920A9AB2F5FA6FED
:10475C00F8DB01318029B9D1514B524FCAF81438CA
:10476C0000267F210220FDF761FCF0210546032085
:10477C00FDF75CFC362105430420FDF757FCFF21B7
:10478C0005430720FDF752FC002105430220FDF7ED
:10479C004DFC102105430620FDF748FC0021054384
:1047AC000720FDF743FC054340F010843E4D4FF0CD
:1047BC00FF0905F1040828788DF878901EA9FDF7FB
:1047CC009BFB002840F0028498F800209DF878307C
:1047DC009A4205F1010508F1010840F0F783BD424A
:1047EC00E9D1324B05465E604FF0FF08304E9860C1
:1047FC00EE2709E00AEB050301359DF8782083F8D4
:10480C0018280A2D0FD0013630788DF878801EA923
:10481C00FDF772FB0028EDD00AEB050301350A2DDC
:10482C0083F81878EFD11A4B224A196B41F0010129
:10483C0019631B6B136823F4407343F48073136088
:10484C00136823F4406343F480631360136823F408
:10485C00405313600023AAF82438AAF828388AF8A1
:10486C002A381023936120239361134B134A2CE0B5
:10487C000064024020580140185503004058014084
:10488C002804002000E100E04055030000580140DE
:10489C000038024000540040410D0300400D03005D
:1048AC00EEFFC000D8740008D4740008000000208B
:1048BC00DC74000800000240000006080001060835
:1048CC0028000020934202F0BA841978FF2903F1E2
:1048DC000103F7D0B54AB64B116BB648B64D41F053
:1048EC0003011163116B196821F0030141F00101FF
:1048FC0019604FF480319961196821F00C0141F075
:10490C000401196002219961196821F4404141F4B4
:10491C008041196080219961196821F4403141F47A
:10492C00803119604FF480719961196821F440014C
:10493C0041F4800119604FF400619961016821F024
:10494C000F0141F0050101604FF440318161116BA1
:10495C0041F005011163116B196821F4407141F4A8
:10496C0080711960196821F4406141F4806119600B
:10497C00196821F0404141F080411960196821F417
:10498C0040511960296821F4401141F480112960CB
:10499C00296821F0407141F080712960102020219C
:1049AC00986199614FF08061A9614FF00041996164
:1049BC00136B43F004031363136B2B6823F00C038A
:1049CC002B60EB6823F00C0343F00403EB602B68C3
:1049DC0023F030032B60EB6823F030030343EB60D0
:1049EC002B6823F0C0032B60EB6823F0C00343F06B
:1049FC004003EB602B6823F440732B60EB6823F4CB
:104A0C00407343F48073EB602B6823F440632B609A
:104A1C00EB6823F4406343F48063EB602B6823F46E
:104A2C0040532B60EB6823F44053002743F480532E
:104A3C00EB60B846B946A4F1080606EB061006EB87
:104A4C00001000EB0030FDF79DFB00230C930C9B3A
:104A5C000B2B05DC0C9B01330C930C9B0B2BF9DD06
:104A6C0000230B930B9B0B2B05DC0B9B01330B9344
:104A7C000B9B0B2BF9DD0120296900FA06F249EAA0
:104A8C00020311F0200F9BB208BF994600FA04F301
:104A9C00044449EA030011F0400F80B208BF81467C
:104AAC0048EA020011F0080F80B208BF804648EABD
:104ABC0003003A4311F0100F80B292B208BF804647
:104ACC0011F0020F08BF17463B4311F0040F9BB2C5
:104ADC0008BF1F46102CAED1FDF7A8FB334BAAF82C
:104AEC003298AAF83488AAF836785A6C334942F4CA
:104AFC0080625A641A6B42F020021A635B6C0B687A
:104B0C002F4A43F440330B60A1F571414B6823F4F9
:104B1C00403343F480334B60002306215360D3624F
:104B2C0051634FF4E0111161012191600D930D9BC4
:104B3C0042F20F72934205DC0D9B01330D930D9BDA
:104B4C009342F9DD194A1B49136B1B481D4CDFF8C6
:104B5C0080C01D4F43F00F031363136BCB6823F41A
:104B6C007003CB60C3686FF38D03C360D1F80C384E
:104B7C0023F07073C1F80C38A1F5806140F2D92E86
:104B8C00C868124B20F04040C860506C40F01000D8
:104B9C005064526C0A6822F4701242F420120A60BB
:104BAC004A6A22F47F6242F4EE6213E0003802405B
:104BBC0000000240000402400008024000140240C1
:104BCC000022014000100140FFFF0300000000D054
:104BDC003480373A4A62C049CBF84C114FF08741C8
:104BEC000022CBF8501100204FF07E51CBF8481129
:104BFC00CBF86011CBF86411CBF85421CBF85821C9
:104C0C00CBF85C21CBF898024FF0FF35C4F808E0E4
:104C1C004FF0004642F20C0EC4F80CE0CBF86811D1
:104C2C00CBF86C21CBF89452CBE99C66CBE99E0572
:104C3C00CBF89C12CBF8A012CBF8A4C2CAF86878B7
:104C4C00CBF88052CBF88402CBF89002CBF88822B8
:104C5C00CBF88C22CAF8643803F5801143F8042B86
:104C6C008B42FBD19D4B9E4E9E4C0025CAF86C5836
:104C7C00002103F5963203F5165043F8041B8342CA
:104C8C00FBD142F8044B9642D461D563F3D1964BD9
:104C9C00964A9FED974AF6EE007AC3ED007AC3ED83
:104CAC00017AC3ED027A934B1A60934BC3ED007AF1
:104CBC004FF48073AAF87C380020FF23CDE9010360
:104CCC000123F0EE673A03939AF88038002B40F0FA
:104CDC00CC84019B13F0030240F04782874E884B33
:104CEC00884D4FF0805E14464FF0010C4FF4805706
:104CFC00D96816F8018B9968C5F818E00F940F99CC
:104D0C00272905DC0F9901310F910F992729F9DD1E
:104D1C0099688907FCD583F80CC09968C807FCD53D
:104D2C0002EB42015144187B81F8840850009968C9
:104D3C008907FCD583F80C809968C907FCD58118C4
:104D4C00514493F80C8081F8858899688907FCD5C3
:104D5C001C739968C907FCD581185144187B81F8DC
:104D6C008608996811F08001FBD1AF610E910E9805
:104D7C00272805DC0E9801300E900E982728F9DDB7
:104D8C000132042AB4D19AF888389AF889281B027F
:104D9C0003F47063134307EE103A9AF88E389AF8BE
:104DAC008F281B0203F47063134301F0178040F249
:104DBC003622934241F3BE8240F28152934241F338
:104DCC00078340F60602934241F3F88240F64B22E9
:104DDC00934241F3EA8240F60152934241F3DC8262
:104DEC0040F6FF72934241F0BF8318461946464A7B
:104DFC00946844F0804494601468A407FCD5D26C89
:104E0C00424C9FED436AD4ED035ADFED426A9FEDAD
:104E1C00425AC2F30B0207EE902AF8EE677A77EE4D
:104E2C00E57A67EE867A77EEA57A77EEE66AC4EDD8
:104E3C00037AFCEEE77A66EE856A17EE902AAAF8FA
:104E4C0038289AF88028002A00F0EF8507EE903A6F
:104E5C00DFED325AF8EEE77AB7EE006A67EEA57A24
:104E6C00F4EEC67AF1EE10FA41F37283F0EE467A64
:104E7C00264ADFED2B5A127CDFED2A4A9FED2A5A87
:104E8C00022A08BFF0EE645A67EEA57AF4EEC56A02
:104E9C00B7EE006AF1EE10FA36EE676A41F36E83F4
:104EAC00DFED1B7AF4EEE76AF1EE10FA42F1DC80EA
:104EBC000D4AD2ED087AF5EEC07AF1EE10FA35DD36
:104ECC00094A92ED086AF5EE007AB4EEE76AF1EE63
:104EDC0010FA01F1708329E00000B4452C0A00207F
:104EEC004C3601200000F0439808002052B87E3F59
:104EFC005F7089308C36012090360120E8740008F0
:104F0C000038004000040240002201400000002054
:104F1C00CDCC4C3D00E0FF440210003A0210803929
:104F2C008FC2753D8FC2753ECDCC4CBDF1EE007A73
:104F3C00B4EEE76AF1EE10FAD8BFF0EE467ADBF881
:104F4C008012CBEDA87A0029C0F24B86564A5269E2
:104F5C008A4200F046864FF0FF32CBF87C220329C0
:104F6C00524C0A46A8BF032202EB421204EB8212F7
:104F7C000024CBF878424E4C043A52F8045F44F8C3
:104F8C00045B4C4DAC42F8D1A5F50462CBF8782209
:104F9C00454ACBF87C12516100F023BE1A6842F4EA
:104FAC0000721A60DAF800280132CAF80028FFF7FC
:104FBC00C4BB5F611A6842F400721A60FFF7BDBB94
:104FCC001A6842F400721A60FFF7B7BB0136052E5F
:104FDC001BD0FDF791F8FCF7D5FEFCF74DFF364AD8
:104FEC00364B116C41F400111164126C4FF40042F9
:104FFC001A6000221A602A225A60D222DA612B220D
:10500C001A6201221A60FFF7ACBB274A2C49FF2316
:10501C00536000222B4B4FF0010C022780264FF4DB
:10502C008075914612F0010E29D14FF400384FF4DF
:10503C0080309861C3F818804FF40008C3F81880CA
:10504C004FF08078C3F818804FF00068C3F81880D0
:10505C00CDF820E0DDF820E08E4523DCDDF820E003
:10506C000EF1010ECDF820E0DDF820E08E45F5DDE7
:10507C0001321E2A3FF4D7AB12F0010ED5D04FF4FB
:10508C000060C3F818C09F619E619D619861CDF866
:10509C002090DDF820E08E45E0DD01321E2AEBD1B8
:1050AC00FFF7C1BB0132BDE700000020EC74000823
:1050BC00A8020010E80A001000380240005400401A
:1050CC00FF340C000000024000002043B4EB860FBC
:1050DC004FEA86001AD0161896F80AE00DEB000677
:1050EC0086F878E0461CB6B2B4420FD902EB060E35
:1050FC00023080B26E449EF80AE086F878E0844272
:10510C0004D902446844927A80F878201FED127A10
:10511C00C148C24CC24EDFF828E3DFF82883DFF821
:10512C0028930293F3EE047A0122CBED047ACBF8A8
:10513C001490CBF81880CBF81CE0CBF82060CBF89F
:10514C002440CBF828008BED0B7A0397CBF8B420D6
:10515C00002940F08F86CAF8F8188AF8FC1830BF7E
:10516C009AF88038002B40F080829AF89D38019D87
:10517C00002B40F0D984019B15F03F0503F101038E
:10518C00019340F01F84A74B4FF480129A61139542
:10519C00139B0B2B05DC139B01331393139B0B2BD2
:1051AC00F9DDA04B10229A6100231293129B0B2B5A
:1051BC0005DC129B01331293129B0B2BF9DD0022A1
:1051CC0098480D214FF40016144620258661109442
:1051DC00109B0B2B05DC109B01331093109B0B2B9E
:1051EC00F9DD03698561119413F0400F4FEA420217
:1051FC00119B92B218BF42F001020B2B05DC119BE4
:10520C0001331193119B0B2BF9DD0139DED1854B49
:10521C004FF400119961D34303F0010395070493F4
:10522C0043BFC2F3800383F00103DBB2022312F00D
:10523C00080F0CBF4FF0020C4FF0010C12F080065F
:10524C00C2F3001800F08185C2F3002080F0010049
:10525C004000C0F34006C0B212F4806504D012F4D2
:10526C00007F14BF012502256F4C2769D4F810E08C
:10527C006FEAD22141EA972127696C4CAAF82C28B5
:10528C008AF848388AF849C88AF84A0820766FEABA
:10529C00123444EADE24022801F0010104F0010476
:1052AC0000F02A858AF8C068604E8AF88088DBEDA9
:1052BC002E7A35745E4E8AF84B188AF84C4846EDB7
:1052CC00047A002940F0BF84002C00F097849AF8EF
:1052DC002548002C01F0CB804FF480740128AAF8EB
:1052EC00244801F0BA800E460C469AF8D4E8BEF178
:1052FC00010F00F03C85BEF1020F01F07280BEF18F
:10530C00000F00F07C87DBF8082046B10120CAF8BA
:10531C00D828CBF8D4208BF8D0008AF8D4089AF887
:10532C009C08002800F081849AF89C08002800F062
:10533C0084849BF8D040012C00F08485DAF8E008D6
:10534C00CAF8E028904240F2558501209AF89C2832
:10535C00002A00F049859AF8D4688AF8E408344A9F
:10536C008AF84E688AF84F48D2ED1E7ADFED316A22
:10537C009FED317A67EEA67AF4EEC77AF1EE10FA69
:10538C0000F32F85FCEEE77A17EE902A8AF8502866
:10539C00274A8AF85808D2ED097ADFED286A9FED82
:1053AC00267A67EEA67AF4EEC77AF1EE10FA00F3DD
:1053BC005885FCEEE77A17EE902A8AF851281C4A99
:1053CC00DFED1E6AD2ED0A7A9FED1B7A67EEA67AA4
:1053DC00F4EEC77AF1EE10FA00F34085FCEEE77AB2
:1053EC0017EE902A8AF852289AF8EC288AF8532853
:1053FC00BAF8EE28AAF85628DAF8C408DAF8D02851
:10540C009042C0F0E2829AF8F02822B39AF8F12880
:10541C00624500F059871BE000000C430000F0428D
:10542C000000C842000002400018024000000020AA
:10543C00980800200000C84200007F4300007A4416
:10544C000000A0420000704200002042C0FE8B49C8
:10545C0000228AF8F0282A466046039C40EA02178C
:10546C00A7421CD007EE900AF8EE677A67EE837AB3
:10547C003AB1012A0CBFB6EE007AB5EE007A67EEAF
:10548C00877A1FED0E7AB4EEE77AF1EE10FAD8BFF8
:10549C00F0EE477A0122CBED2E7ACBF8B420049AA9
:1054AC00002A40F0FD85029A934200F0DF844FEA17
:1054BC00831808F1006202F5C022CA4C1068A042A1
:1054CC007FF424AED08802287FF420AE1489282CD7
:1054DC003FF61CAE201D80B20390B2F804E0059399
:1054EC00501D029041F221064FF6FF70029B04936F
:1054FC0013F8019F029380EA09204FEA4009000447
:10550C0048BF89EA06094FEA490019F4004F18BF51
:10551C0070404FEA4009030448BF89EA06094FEA84
:10552C00490019F4004F18BF70404FEA40090004BD
:10553C0048BF89EA06094FEA490019F4004F18BF21
:10554C0070404FEA4009030448BF89EA0609049BEE
:10555C004FEA490019F4004F80B2A3F10409039BF0
:10556C0018BF7040A9EB020918BF80B29945BDD392
:10557C008645059B7FF4CAAD002C3FF4C7AD601E79
:10558C00052840F2B28598486844A0EB0800022830
:10559C0040F2AB859548A60858F800E0CDF878E0C5
:1055AC00012E404401F02886D0F804E0CDF87CE0D0
:1055BC00022E3FF48BADD0F808E0CDF880E0032E3E
:1055CC003FF484ADD0F80CE0CDF884E0042E3FF429
:1055DC007DADD0F810E0CDF888E0052E3FF476AD27
:1055EC00D0F814E0CDF88CE0062E3FF46FADD0F877
:1055FC0018E0CDF890E0072E3FF468ADD0F81CE031
:10560C00CDF894E0082E3FF461ADD0F820E0CDF851
:10561C0098E00A2E7FF45AAD426A27927448269A73
:10562C0002604260002282600122AAF87C288AF87B
:10563C00F0289DF89C208AF8F3289DF89E20DDED3B
:10564C001E7ADDF87C90DDF88080DDF884E0229E07
:10565C00239C24989DED257A8AF8F1C88AF8F25893
:10566C008AF8F4280293FF275EE5DBF89432002BCE
:10567C00BFF62FABDBED527AB7EE007A37EE677AD6
:10568C00B5EEC07AF1EE10FA01F16085F0EE477AD2
:10569C00DFED586AF4EEE67AF1EE10FA3FF519AB4D
:1056AC00DBED534ADBED557A87EE246AB5EEC06A22
:1056BC00F1EE10FA41F37382F6EE006AF4EEE67A3C
:1056CC00B7EE007AF1EE10FA37EE677A01D4F7EE06
:1056DC00086A76EEE76AF0EE465AB4EEE67AF1EE38
:1056EC0010FAF4EEC76A94BF01230023F1EE10FA0E
:1056FC00B4BFF0EE667AF0EE477A83F001089FEDC6
:10570C003E7ACBF89882F4EEC77AF1EE10FA01F3F8
:10571C00DE80B2EE007A25EE877AF4EEC77AF1EEEF
:10572C0010FA3FF5D6AADBEDA36AB6EE007AF4EEDA
:10573C00C76AF1EE10FA41F3BA809BEDA27ADFED65
:10574C002F6AB4EEE67AF1EE10FA41F3B08087EEF0
:10575C00A55AB4EEE65AF1EE10FA41F3A88077EEB2
:10576C00077ADFED276AFDEEE77A27EE267A17EE49
:10577C00904AFDEEC77A40F6B83217EE906AB6F54D
:10578C00616FA8BF4FF46166B6F5966FB8BF4FF462
:10579C0096669442A8BF1446B4F5407FB5EEC06A35
:1057AC00B8BF4FF44074F1EE10FA9BED547A41F30C
:1057BC008A80B0EE475AF6EE007A0BEB830364EE68
:1057CC00A77A93ED566ADFED118ADBF80050DBE91E
:1057DC00013077EE877A03EB000C77EE867A0021A6
:1057EC0029E000BF723838326D00FAF70A0006085B
:1057FC009808002017B7D1388FC2753D00001644A9
:10580C00CDCCCC3F95BFD6330AD7233C000000004B
:10581C0002F1010E73452DD957ED015A75EEC75A99
:10582C00023125EE866AA14236EE077A27EE077A18
:10583C0078EE878A35DA07EE101AB8EEC76A36EEBC
:10584C00276ABCEEC67A17EE102A9A4224BFB2FB26
:10585C00F3F703FB17229042B8EE477A2CBF821A5B
:10586C00ACEB020205EB8207012A36EE476A97ED94
:10587C00007ACDD8013A00F1BF81934298BFD21A79
:10588C0005EB8202D2ED005A75EEC75A023125EEB5
:10589C00866AA14236EE077A27EE077A78EE878A77
:1058AC00C9DB1FED287AF4EEC78AF1EE10FA3FF54A
:1058BC0010AA1FED2B2A5FED2B5A002128EE822A0D
:1058CC008E46474607EE10EA5FED304A0491F8EE3B
:1058DC00C71AF0EE642A71EE851A4FF0000841E009
:1058EC0002F101094B455CD911ED011A31EE471A51
:1058FC0021EE201A31EE077A37EE866AFCEEC66A84
:10590C0016EE902A9A4224BFB2FBF3F103FB11224C
:10591C009042B8EE661A2CBF821AACEB020205EB71
:10592C008201012A36EE416AD1ED006A41F25581BD
:10593C0002F101094B4541F2508111ED011A31EE92
:10594C00661A21EE066A76EE266A67EE266A08F17A
:10595C00020827EE077A444572EEA62A74EE874AAF
:10596C0041F3518107EE108AB8EEC76A71EE860AD0
:10597C00BCEEE07A17EE102A9A4224BFB2FBF3F188
:10598C0003FB11229042B8EE477A2CBF821AACEB83
:10599C00020205EB8201012A70EEC70A91ED007A32
:1059AC009ED8013A01F12A81934298BFD21A05EB95
:1059BC00820292ED001A31EE471A21EE201A31EED6
:1059CC00077A99E730BFFFF77FB9C148026A82EACC
:1059DC00423282EA524282EA421212F0010408BFB9
:1059EC004FF4803412F0020F026218BF0227B9483C
:1059FC0008BF4FF4003712F0040F14BF80264FF489
:105A0C00000612F0080F846114BF4FF480744FF03D
:105A1C00807412F0100F14BF4FF400624FF000624C
:105A2C008761866184618261EDE4DFEDAB7AF4EE2F
:105A3C00E76AF1EE10FA40F3C980F4EEC66AF1EEB3
:105A4C0010FA40F1C38040F6FF729142A8BF114694
:105A5C0007EE901ADFEDA16AF8EEE77A67EEA67A08
:105A6C0077EEE37ADFED9E6A9AF87C2867EEA67AE9
:105A7C0073EEA73A002A00F0B7809A4AD2ED017A69
:105A8C0073EEE76AF5EEC06AF1EE10FA00F18C8065
:105A9C009FED956AF4EEC66AF1EE10FA00F18C8077
:105AAC009AF87D28002A40F08A85F4EEE73AF1EE68
:105ABC0010FA04D8F4EE673AF1EE10FA7CD0894A69
:105ACC00C2ED023A01228AF87D28864AC2ED007A9C
