:020000040800F2
:1000000000000320095A0008595A0008595A0008EC
:10001000595A0008595A0008595A000800000000AF
:10002000000000000000000000000000595A000815
:10003000595A000800000000595A0008595A00088F
:10004000595A0008595A0008595A0008595A0008C4
:10005000595A0008595A0008595A0008595A0008B4
:10006000595A0008595A0008595A0008595A0008A4
:10007000595A0008595A0008595A0008595A000894
:10008000595A0008595A0008595A0008595A000884
:10009000595A0008595A0008595A0008595A000874
:1000A000595A0008595A0008595A0008595A000864
:1000B000595A0008595A0008595A0008595A000854
:1000C000595A0008595A0008595A0008595A000844
:1000D000595A0008595A0008595A0008595A000834
:1000E000595A0008595A0008595A0008595A000824
:1000F000595A0008595A0008595A0008595A000814
:10010000595A0008595A0008595A0008595A000803
:10011000595A0008595A0008595A0008595A0008F3
:10012000595A0008F51A0008595A0008595A000887
:10013000595A0008595A0008595A0008595A0008D3
:10014000595A0008595A0008595A0008595A0008C3
:10015000595A0008595A0008595A0008595A0008B3
:10016000595A0008595A0008595A0008595A0008A3
:10017000595A0008595A0008595A0008000000004E
:10018000595A0008595A0008595A0008595A000883
:10019000595A0008595A0008595A0008595A000873
:0C01A000595A0008595A0008595A000822
:1001AC0000EB820C012A00B5DCED006A0ED902F1DD
:1001BC00010E8E450AD21CED017A002B64D137EE6C
:1001CC00667A27EE007A37EE260A00BDB2F1010CF2
:1001DC0049D4614598BFACEB010C00EB8C0C9CED49
:1001EC00007A002BEBD0531C994298BF5B1A00EBA2
:1001FC008303012A93ED005AA2F1020342D09942E3
:10020C0098BF5B1A00EB8300D0ED005AB0EE046A85
:10021C0075EEC57A36EEC74A26EE866AF6EE004AC9
:10022C00F7EE083A24EE234A67EEA47A77EE073A03
:10023C0035EE466A77EE847A36EE236A65EEA45A7A
:10024C0067EE807A36EE656A37EE457A77EE867A17
:10025C0027EE247A67EE807A77EE877A67EE807ADB
:10026C0037EEA60A00BD8C4400EB8C0C9CED007A9A
:10027C00002BA4D0931E013237D50A4400EB820226
:10028C0092ED005A0B44BDE7DCED014A5CED025ADD
:10029C00B0EE046A75EEE47A36EEC74A26EE866A4C
:1002AC00B6EE005AF7EE083A24EE234A67EE857A4A
:1002BC0077EE073A34EEC66A77EE847A36EE236A26
:1002CC0065EE855A67EE807A36EE656A37EE647AAB
:1002DC0077EE867A27EE057A67EE807A77EE877A64
:1002EC0067EE807A37EEA60A00BD914298BF521A8B
:1002FC0000EB820292ED005A0B4483E72DE9F04F9C
:10030C002DED028BF5EEC00AF1EE10FA8BB005461E
:10031C0000F1F984F7EE007AF4EEE70AF1EE10FA48
:10032C00C8BFF0EE670AE14CD4ED326AD4ED337AF3
:10033C0094ED307AD4ED315A94ED2C6A77EEE67A5E
:10034C0067EEA07A77EEA67A77EEC77A67EEA57A93
:10035C0077EE877AB4EE676AF1EE10FAC4ED307A74
:10036C0040F0F682D4F8B430002B40F0F182206FCC
:10037C00216B676F666B94ED2F7A421A67EB06035D
:10038C0052EA030C27D007EE902A9FEDC96AF8EECB
:10039C00676A07EE903A66EE866AF8EEE77A77EED1
:1003AC00A67A67EE877AFDEEE76AB8EEE66A16EE95
:1003BC0090CA77EEC67AB0EE676ABEEEE06A16EEC9
:1003CC00103ADA17DB184CEB420253EA020C40F0FD
:1003DC004984C4E90C07A06FA16BE76FE66B421A66
:1003EC0067EB060352EA030C27D007EE902A9FED29
:1003FC00B06AF8EE676A07EE903A66EE866AF8EE37
:10040C00E77A77EEA67A67EE877AFDEEE76AB8EEC2
:10041C00E66A16EE90CA77EEC67AB0EE676ABEEE62
:10042C00E06A16EE103ADA17DB184CEB420253EA8C
:10043C00020C40F01084C4E90E07D4F88000216C43
:10044C00D4F88470666C421A67EB060352EA030C0C
:10045C0027D007EE902A9FED966AF8EE676A07EEB2
:10046C00903A66EE866AF8EEE77A77EEA67A67EE51
:10047C00877AFDEEE76AB8EEE66A16EE90CA77EE7A
:10048C00C67AB0EE676ABEEEE06A16EE103ADA177C
:10049C00DB184CEB420253EA020C40F0D683C4E961
:1004AC001007D4F88800A16CD4F88C70E66C421A52
:1004BC0067EB060352EA030C27D007EE902A9FED58
:1004CC007C6AF8EE676A07EE903A66EE866AF8EE9A
:1004DC00E77A77EEA67A67EE877AFDEEE76AB8EEF2
:1004EC00E66A16EE90CA77EEC67AB0EE676ABEEE92
:1004FC00E06A16EE103ADA17DB184CEB420253EABC
:10050C00020C40F09C83C4E91207D4F89000216DD2
:10051C00D4F89470666D421A67EB060352EA030C2A
:10052C0027D007EE902A9FED626AF8EE676A07EE15
:10053C00903A66EE866AF8EEE77A77EEA67A67EE80
:10054C00877AFDEEE76AB8EEE66A16EE90CA77EEA9
:10055C00C67AB0EE676ABEEEE06A16EE103ADA17AB
:10056C00DB184CEB420253EA020C40F06283C4E904
:10057C001407D4F89800A16DD4F89C70E66D421A5B
:10058C0067EB060352EA030C27D007EE902A9FED87
:10059C00486AF8EE676A07EE903A66EE866AF8EEFD
:1005AC00E77A77EEA67A67EE877AFDEEE76AB8EE21
:1005BC00E66A16EE90CA77EEC67AB0EE676ABEEEC1
:1005CC00E06A16EE103ADA17DB184CEB420253EAEB
:1005DC00020C40F02883C4E91607D4F8A000216E61
:1005EC00D4F8A470666E421A67EB060352EA030C49
:1005FC0027D007EE902A9FED2E6AF8EE676A07EE79
:10060C00903A66EE866AF8EEE77A77EEA67A67EEAF
:10061C00877AFDEEE76AB8EEE66A16EE90CA77EED8
:10062C00C67AB0EE676ABEEEE06A16EE103ADA17DA
:10063C00DB184CEB420253EA020C40F0EE82C4E9A8
:10064C001807D4F8A800A16ED4F8AC70E66E421A64
:10065C0067EB060352EA030C30D007EE902A9FEDAD
:10066C00146AF8EE676A07EE903A66EE866AF8EE60
:10067C00E77A77EEA67A67EE877ABDEEE77AF8EE40
:10068C00C76A17EE10CA77EEE67AF0EE676AFEEEEE
:10069C00E06A16EE903ADA17DB184CEB420253EA9A
:1006AC00020C40F0B482C4E91A0707E00000001005
:1006BC000000802F0000000000002043D4E901124C
:1006CC0094F8D030012B02F1010940F03E82D4EDB8
:1006DC004A7AD4ED4D6AB7EE007AF4EEC77AF1EEB1
:1006EC0010FA20EE260A09DA94ED4B7A30EE470A1E
:1006FC0020EE270A30EE070A84ED4B0AD4F83C6151
:10070C00002E00F3BB822668894506EB820380F03D
:10071C00B08209EB010AC846626B83ED000A002A1D
:10072C00B8BF0022236B94F83071C4F80890B8BF9E
:10073C000023002A40F0EB8201291FED220A00F26F
:10074C007F84A8EB02023B463046FFF729FDE26BA3
:10075C00A36B8DED020A002ABCBF00220023002AE5
:10076C0040F0EA8201291FED2D0A00F27D84A8EBEE
:10077C0002023B463046FFF713FD626C236C8DED95
:10078C00030A002ABCBF00220023002A40F0E982A1
:10079C0001291FED380A00F26584A8EB02023B46E2
:1007AC003046FFF7FDFCE26CA36C8DED040A002AC9
:1007BC00BCBF00220023002A40F0E88201291FED73
:1007CC00430A00F24D84A8EB02023B463046FFF789
:1007DC00E7FC626D236D8DED050A002ABCBF00227B
:1007EC000023002A40F0E78201291FED4E0A00F297
:1007FC003584A8EB02023B463046FFF7D1FCE26D94
:10080C00A36D8DED060A002ABCBF00220023002A2E
:10081C0040F0E68201291FED590A00F21D84A8EB75
:10082C0002023B463046FFF7BBFC626E236E8DED39
:10083C00070A002ABCBF00220023002A40F0E582F0
:10084C0001291FED640A00F20584A8EB02023B4665
:10085C003046FFF7A5FCE26EA36E8DED080A002A68
:10086C00BCBF00220023002A40F0E48201291FEDC6
:10087C006F0A00F2E783A8EB02023B463046FFF713
:10088C008FFC8DED090AD4ED397ADDED026A94ED19
:10089C00417A9DED036ADDED054A9DED065ADDEDCD
:1008AC00075A67EEA67ADDED046A67EE877AC5ED26
:1008BC00007AD4ED3A7A94ED427A67EE867A9DED21
:1008CC00086A67EE877AC5ED017AD4ED3B7A94ED30
:1008DC00437A67EEA67A67EE877AC5ED027A94EDD5
:1008EC003C7AD4ED446ADDED097A27EE247A27EEC2
:1008FC00267A85ED037A94ED3D7AD4ED456A27EEA0
:10090C00057A27EE267A85ED047A94ED3E7AD4EDBD
:10091C00466A27EE257A27EE267A85ED057A94ED40
:10092C003F7AD4ED476A27EE067A27EE267A85EDD4
:10093C00067AD4ED406A94ED487A67EEA67A67EEB3
:10094C00877AC5ED077A0BB0BDEC028BBDE8F08F52
:10095C001FEDA73AD4ED046A94ED056AD4ED0B2A89
:10096C00C4ED2C7A86EE837AC6EE034AD4ED066A81
:10097C0094ED076AC6EE833A86EE035AD4ED086A04
:10098C0094ED096A86EE834AD4ED0A6AC6EE035AE0
:10099C0086EE836AC2EE836A94ED2E3A27EE037AD2
:1009AC0064EE834A27EE277A64EEA74A25EE035AB3
:1009BC00FDEEC72ABDEEE42A25EE275A66EE836AC1
:1009CC00FDEEC50A63EE833A24EE034A65EE835AC4
:1009DC00F8EEE21A26EE036AB8EEC23A37EE617A06
:1009EC0074EEC34AB8EEE03A63EEA73A35EE435ADA
:1009FC00B0EE473ABDEEE31A24EE274ABEEEE03ADB
:100A0C0065EEA75A26EE276AFDEEC41A66EEA77AA3
:100A1C0013EE103AF8EEC16AB0EE643ABEEEE03A6C
:100A2C0012EE902AD81873EEE63AB8EEE17A4FEA55
:100A3C00E37342EB430313EE101A0022801834EEDA
:100A4C00474AB0EE637ABEEEE07A63672067CB1755
:100A5C0012EE100A49185B41184417EE103A891827
:100A6C00B0EE457ABEEEE07AA167D917DB18BDEE81
:100A7C00E58A4941E0679B1811EE100AC4F88030F2
:100A8C0017EE103A0144F8EEC84AB0EE447ABEEEC6
:100A9C00E07AC4F88410D917DB18FDEEC66A75EE3F
:100AAC00E45A10EE900A49419B18C4F8883017EEAE
:100ABC00103A0144F8EEE64AB0EE657ABEEEE07A02
:100ACC00C4F88C10D917DB18BDEEE73A36EE646A21
:100ADC0011EE900A49419B18C4F8903017EE103A69
:100AEC000144F8EEC34AB0EE467ABEEEE07AC4F8A2
:100AFC009410D917DB1818EE100A494177EEE47AF6
:100B0C009B18C4F8983017EE103A0144B0EE677A8F
:100B1C00BEEEE07AC4F89C10D917DB1816EE900ADA
:100B2C0049419B18C4F8A03017EE103A014413EE5B
:100B3C00100AC4F8A410D917DB1840EB41019B181C
:100B4C00C4E92A31C4F8B42011E4D4E93603894548
:100B5C0028BF4FF000095A184B45A2EB0002A3EB3B
:100B6C00000B0ABF8146A9EB000C4FF0000C984219
:100B7C0088BF9346266894F83071C4F8089009EB46
:100B8C000108BBF1000F00F06D8148459FEDB13AB3
:100B9C0000F21382DFF8C4A2CDE900050DF10808BC
:100BAC000AF14009654618E05D459FEDAD0A80F0FD
:100BBC006882BBF1010F2A4640F06A82121A009B30
:100BCC001A448A4200D3521A3B463046FFF7E8FAE1
:100BDC00D145A8EC010A00F06A825AF8082FDAF81D
:100BEC000430002BAEBF184600200022034600281C
:100BFC00DAD007EE902AB8EE670A5D4520EE030ABC
:100C0C00C0F03782B5FBFBF20BFB125232E2C91873
:100C1C0046EB0206C4E91A1650E5C91846EB020663
:100C2C00C4E918160DE5C91846EB0206C4E91616F8
:100C3C00D3E4C91846EB0206C4E9141699E4C918A2
:100C4C0046EB0206C4E912165FE4C91846EB02062D
:100C5C00C4E9101625E4C91846EB0206C4E90E16C1
:100C6C00FFF7EBBBC91846EB0206C4E90C16FFF7FD
:100C7C00B2BB4FF000098A46C8464DE5D4F8403166
:100C8C009FED756A83EA433383EA534383EA431344
:100C9C0083EA433080EA504080EA40101B0AC4F8D3
:100CAC004001000A07EE903A07EE100AF8EEE77AD8
:100CBC00B8EEC77A013E0123B34077EE877A07EE90
:100CCC00103A67EE867AB8EEC77AF7EE006A77EEDE
:100CDC00E67A20EE070AF6EE006A77EE807AF5EEF9
:100CEC00C07AF1EE10FAC0F2C18177EEA67AFDEE71
:100CFC00E77A2668F8EEE77A894587EE870A06EBED
:100D0C008203B6D205E5DFED560AFFF70CBB07EE02
:100D1C00903AB8EE670ADFED4F7A8A4220EE270A46
:100D2C0024BFB2FBF1F301FB1322424588BFAAEBAF
:100D3C0002023FF608AD04E507EE903AB8EE670AFA
:100D4C00DFED447A8A4220EE270A24BFB2FBF1F38E
:100D5C0001FB1322424588BFAAEB02023FF609AD04
:100D6C0005E507EE903AB8EE670ADFED3A7A8A426B
:100D7C0020EE270A24BFB2FBF1F301FB13224245FC
:100D8C0088BFAAEB02023FF60AAD06E507EE903AE1
:100D9C00B8EE670ADFED2F7A8A4220EE270A24BFCD
:100DAC00B2FBF1F301FB1322424588BFAAEB02020E
:100DBC003FF60BAD07E507EE903AB8EE670ADFEDAC
:100DCC00257A8A4220EE270A24BFB2FBF1F301FBFD
:100DDC001322424588BFAAEB02023FF60CAD08E590
:100DEC0007EE903AB8EE670ADFED1A7A914220EEE0
:100DFC00270A9CBFB2FBF1F301FB1322424588BFCB
:100E0C00AAEB02023FF60DAD09E507EE903AB8EEFB
:100E1C00670ADFED107A914220EE270A9CBFB2FBE5
:100E2C00F1F301FB1322424588BFAAEB02023FF605
:100E3C000EAD0AE507EE903AB8EE670ADFED057ADB
:100E4C008A4220EE270AC0F0FE80B2FBF1F301FBD0
:100E5C001322F8E00000802F0000803328000010DF
:100E6C0000000000626B236B002ABCBF0022002331
:100E7C00002A40F0268101291FED070A00F2358176
:100E8C00A9EB02023B463046FFF78AF9E26BA36BF3
:100E9C008DED020A002ABCBF00220023002A40F07C
:100EAC009C8101291FED120A00F2AD81A9EB02020F
:100EBC003B463046FFF774F9626C236C8DED030AE8
:100ECC00002ABCBF00220023002A40F072810129B5
:100EDC001FED1D0A00F29581A9EB02023B4630463C
:100EEC00FFF75EF9E26CA36C8DED040A002ABCBF1F
:100EFC0000220023002A40F0488101291FED280A16
:100F0C0000F28581A9EB02023B463046FFF748F917
:100F1C00626D236D8DED050A002ABCBF00220023F3
:100F2C00002A40F01E8101291FED330A00F26D8169
:100F3C00A9EB02023B463046FFF732F9E26DA36D96
:100F4C008DED060A002ABCBF00220023002A40F0C7
:100F5C00F48001291FED3E0A00F25D81A9EB02022B
:100F6C003B463046FFF71CF9626E236E8DED070A87
:100F7C00002ABCBF00220023002A40F0CA800129AD
:100F8C001FED490A00F24581A9EB02023B463046AF
:100F9C00FFF706F9E26EA36E8DED080A002ABCBFBE
:100FAC0000220023002A40F0A28001291FED540AE0
:100FBC0000F23381A9EB02025FE40095DFF86CA22A
:100FCC00A8EB00080DF10809054619E0D8459FED7E
:100FDC00940A64D2BBF1010F404603D00123834233
:100FEC0088BF5844C31AEA188A4228BF521A3B4693
:100FFC003046FFF7D5F88B4BA9EC010A9A4559D02E
:10100C005AF8080FDAF80420002AAEBF1346002362
:10101C0000201A46002BD9D007EE900AD845B8EE1E
:10102C00670A2ABFB8FBFBF040460BFB10805B4500
:10103C0020EE030A24BFB3FBFBF30BFB1323CEE719
:10104C00012272E60122424588BFAAEB02023FF65A
:10105C0014AC10E40122E6E60122CFE60122B8E648
:10106C000122A1E601228AE6012273E677EEE67AF6
:10107C003DE62A465B450CD3B3FBFBF00BFB103073
:10108C0007E0BBF1010F1AD0B5FBFBF20BFB1252C0
:10109C0001208242BFF492AD5A44121A8FE5BBF183
:1010AC00010F0AD0B8FBFBF00BFB108096E7019DFB
:1010BC00FFF7E9BB009DFFF7E6BB184692E7024637
:1010CC007CE507EE903AB8EE670ADFED577A91426D
:1010DC0020EE270A9CBFB2FBF1F301FB13229145D2
:1010EC00BFF4CEAEA8EB0202CCE60122F7E707EE86
:1010FC00903AB8EE670ADFED4C7A8A4220EE270A66
:10110C0024BFB2FBF1F301FB13229145FFF4B3AB07
:10111C0050E707EE903AB8EE670ADFED437A91425A
:10112C0020EE270A9CBFB2FBF1F301FB1322914581
:10113C00BFF42AAFA8EB020228E707EE903AB8EE0C
:10114C00670ADFED397A914220EE270A9CBFB2FB89
:10115C00F1F301FB13229145BFF400AFA8EB02029F
:10116C00FEE607EE903AB8EE670ADFED2F7A914271
:10117C0020EE270A9CBFB2FBF1F301FB1322914531
:10118C00BFF4D6AEA8EB0202D4E607EE903AB8EE66
:10119C00670ADFED257A914220EE270A9CBFB2FB4D
:1011AC00F1F301FB13229145BFF4ACAEA8EB0202A4
:1011BC00AAE607EE903AB8EE670ADFED1B7A914289
:1011CC0020EE270A9CBFB2FBF1F301FB13229145E1
:1011DC00BFF482AEA8EB020280E607EE903AB8EEBE
:1011EC00670ADFED117A914220EE270A9CBFB2FB11
:1011FC00F1F301FB13229145BFF458AEA8EB0202A8
:10120C0056E60122E3E70122F5E70122B7E70122C6
:10121C00C9E701228BE701229DE7012275E700BF98
:10122C0000000000680000100000802F2800001053
:10123C00BCEEC07ADFEDA66AF8EE477AF0B570EE38
:10124C00677AA44C67EEA67AA268FDEEE76A0646BA
:10125C0016EE903A4FEA831C17EE103A606807338B
:10126C000D4606F14A01934204EB810188BF121826
:10127C00D31AD1F84821B8EEE66A9A1A102A77EEFA
:10128C00C67A0CF1400716D9934A2468C1F8483144
:10129C0002F1800E0EEBC61102EBC61204EB830EAC
:1012AC000133DEF800E042F804EB984298BF0023CB
:1012BC008A42F3D1002205EB0C033D44D3ED005AD6
:1012CC0093ED037A95ED002AD3ED133A93ED016A71
:1012DC00D3ED026AD3ED112A93ED123A93ED051A70
:1012EC0093ED065AD3ED090AD3ED044A93ED144A53
:1012FC00DFED7A1A93ED080A32EE652A73EEC73ADF
:10130C0022EE272A72EEC62A33EE663A63EEA73A2D
:10131C0032EE252A62EEA72AD3ED075A23EE273A9E
:10132C0073EE873A93ED177A72EE862A33EE263AED
:10133C0093ED156AD3ED166A37EE657A36EE416A8F
:10134C0076EEC56A27EE277A26EE276A66EEA76A3E
:10135C0037EE257AD3ED195A02EB461236EE016AB6
:10136C0076EE856A93ED0A1A93ED1A5A75EEE05AE9
:10137C0002F10A015A4A65EEA75A35EE415A02EBC0
:10138C00810275EEA05A25EE275AD2ED000A35EEF1
:10139C00015A22EE202A92ED011AD2ED020A32EE07
:1013AC00212A34EE644A62EE812A24EE274A92ED19
:1013BC00031AD2ED041A72EE822A23EE203A34EE8E
:1013CC00244A33EE223A63EE813AD3ED184A92ED79
:1013DC00052AD2ED062A73EE833A24EE214A74EEE6
:1013EC00C04A34EE234A26EE026A92ED073AD2ED59
:1013FC00083A36EE046A64EEA74A66EEA26A92EDEB
:10140C00094A92ED0A2AD3ED0B2A76EE866A74EE1F
:10141C00804A27EE037A93ED1B6A93ED0C3A93ED19
:10142C001E0A37EE267A64EEA34A36EE626AD3EDD4
:10143C001C6AD3ED0D3A74EE874A65EE845A26EE9B
:10144C00276A76EEC36A93ED1D7A93ED0E4A75EE1C
:10145C00A45A25EE025A36EE226A66EEA76AD2ED3F
:10146C000B2AD3ED0F4A37EE637A35EE255A26EE6A
:10147C00226A76EE836A27EE277A92ED0C3AD3ED48
:10148C001F5A30EE440A36EE056A66EE836A92ED18
:10149C000D5A37EE237A20EE270A75EEE45A76EED3
:1014AC00866A30EE040A25EEA76A27EE057A92EDDD
:1014BC000E5A37EE267A60EE057AD2ED0F6A36EECA
:1014CC00240A77EE877A20EE260A30EE270AF0BD42
:1014DC00000000420000001070010010000000002D
:1014EC004801001030B5D04C94ED525AF7EE002A5A
:1014FC0072EEC52A2DED048BF5EEC02AF1EE10FA32
:10150C0094ED538A83B000F1E080B0EE627ADFEDA7
:10151C00C77AD4ED544AB4EEE77AF1EE10FA00F142
:10152C00A58194ED553A9FEDC27ADFEDC26AF6EED5
:10153C00007A23EE077AB4EEE73AF1EE10FA67EE92
:10154C00266A80F2BF80F5EEC06AF1EE10FA73EEF7
:10155C00275A19DAFEEE007A77EEA67A9FEDB66A74
:10156C00DFEDB66AFDEEE77AF8EEE77A67EE867A9B
:10157C0037EE677AB4EEE67AF1EE10FA40F340817A
:10158C00DFEDAB7A37EEC77A27EE074ADFEDAC7AA0
:10159C009FEDAC6ADFEDAC6A9FEDAC2AD4ED593A05
:1015AC0064EE277A77EEC67AB7EE006A67EE847A35
:1015BC0077EEA67AD4ED586A67EE847A76EEA36A53
:1015CC0077EEC27A67EE847AB6EE004A77EE867AC8
:1015DC0066EE846A67EE877A36EE667A67EEA77AED
:1015EC00F5EEC07AF1EE10FA76EE676A40F21881E9
:1015FC00B1EEE76A36EE676AF5EEC06A26EE076A68
:10160C00F1EE10FA36EE276A40F20781F1EEE67A37
:10161C0077EEE67AD4F8843267EE877A77EEA67A9C
:10162C00F0EE678A002B53D028EE030AD4ED567ADD
:10163C00616894ED577A30EE240A28EE252A30EEB4
:10164C00270A32EE242AFCEEC07A32EE072A17EE75
:10165C00902AF8EE677A8A4230EE670A03D3B2FB1F
:10166C00F1F301FB1322A36820688DED016A93420C
:10167C001D4638BFCB189A1A01230090FEF790FD37
:10168C00FCEEC27A9DED016A009817EE902A8A4210
:10169C0024BFB2FBF1F301FB1322AA42F8EE677AE6
:1016AC0088BF6B1866EE001A88BF9A1A32EE670A6A
:1016BC0098BFAA1A0123FEF773FD28EE800A30EEBC
:1016CC00210A64E073EE675A46E7B1EE627A1EE7D0
:1016DC00DFED5F7AB4EEE75AF1EE10FAA4DDDFED40
:1016EC005D7AB4EEE75AF1EE10FA40F33881F0EE81
:1016FC00007AB4EEE75AF1EE10FA40F33681DFEDE2
:10170C00567AB4EEE75AF1EE10FA40F32A814FF410
:10171C00C650032368EE255A28EE030A75EEA45A28
:10172C00D4ED577AD4F87C2294ED567AC4F88032F2
:10173C0030EE240A75EEA77A9A4230EE070AB0EE24
:10174C00679A00F006814549014400208DED016A3D
:10175C000091FFF76DFD9DED016A0099F0EE407A66
:10176C0066EE277A0120B0EE490ACDED007AFFF73C
:10177C005FFD94ED527ADDED007A94ED553A28EE4A
:10178C00800AF7EE002A30EE270A72EEC72AC2EE64
:10179C00887AB7EE007A77EE837AF4EEC77AF1EEB8
:1017AC0010FAC0F29F80D4F88832002B40F0CF8022
:1017BC00D4F86C21D4F88832C4F85821002B40F0AE
:1017CC00C480D4F86821C4F86021B7EE007AF4EE36
:1017DC00C77A4FF0FF33F1EE10FAC4F888326CDBA5
:1017EC0077EEC77AF4EEC77AF1EE10FAF8DA012345
:1017FC00C4F88C32C4ED557A03B0BDEC048B30BD0B
:10180C00DFED177AB4EEE77AF1EE10FA7FF5BCAEA5
:10181C00DFED147A37EEC77AB6E6DFED137AF7E62A
:10182C009FED116AE6E600BF0000001017B7D13833
:10183C00DB0F494083F9223EDB0FC940DB0FC93F68
:10184C0091EE3836470C50398588083CABAA2A3EB5
:10185C005C8F823F3333B33FB81E3540B45B000816
:10186C00DB0FC9BFDB0F49C000000000B6EE000A59
:10187C0028EE000A6168206830EE240A4FF0FF332E
:10188C00FCEEC07AC4F8883217EE902A8A4224BF44
:10189C00B2FBF1F301FB1322A368F8EE677A9342D3
:1018AC0038BF5B1830EE670A9A1A012303B0BDECFF
:1018BC00048BBDE83040FEF773BCF5EEC07A012313
:1018CC00F1EE10FAC4F88C3294D577EE877AF5EEF7
:1018DC00C07AF1EE10FAF8D4C4ED557A03B0BDEC31
:1018EC00048B30BDF5EEC07AF1EE10FA3FF55BAF2C
:1018FC00B6EE007AB4EEC73AF1EE10FAF4EEC77A0F
:10190C00ACBF01220022F1EE10FAACBF0123002380
:10191C009A423FF46FAFD4F88832012B08BFD4F849
:10192C006C21D4F8883218BF0022012BC4F85C213A
:10193C004FF0FF3308BFD4F86821C4F8883218BFC1
:10194C000022C4F86421002352E700223BE7002266
:10195C0030E7D4F8781200297FF4F7AEF3E6184696
:10196C00D8E64FF484500223D4E64FF404600123EC
:10197C00D0E600BFDFF8C0C02E4BDCF8002042F4EC
:10198C008072CCF80020ACF5806C01E0013B44D0B7
:10199C00DCF81424D207F9D5274A264B4FF0920CC9
:1019AC00C2F810C0DFF894C001E0013B2DD0DCF888
:1019BC0014249207F9D5204A1E4B9269DFF87CC09B
:1019CC0001E0013B2CD0DCF814241206F9D51A4A9C
:1019DC00184BDFF868C0106101E0013B23D0DCF844
:1019EC0014241006F9D5144A124B1448116101E065
:1019FC00013B1BD0D0F814245207F9D50E4A1368BA
:101A0C0043F400730020136070470B4A136843F4CF
:101A1C0000736FF00100136070474FF0FF30704798
:101A2C006FF0020070476FF0030070476FF0040016
:101A3C00704700BF400D03000054004000500040B0
:101A4C0010B5DFF8A0C0864684B0172200214FF4F1
:101A5C0080644FF080602EFA02F313F0010F0CBF7C
:101A6C004FF080534FF48053CCF818300191019B08
:101A7C000B2B05DC019B01330193019B0B2BF9DD37
:101A8C00CCF818400291029B0B2B05DC029B013316
:101A9C000293029B0B2BF9DDCCF818000391039BEE
:101AAC000B2B05DC039B01330393039B0B2BF9DD01
:101ABC00013AD0D20A4A00234FF4004191610093BD
:101ACC00009B0B2B05DC009B01330093009B0B2B25
:101ADC00F9DD034B4FF000429A6104B010BD00BF1A
:101AEC0000000240000802402DE9F04F164B2DED8E
:101AFC00088B1A6852058BB009D4134B1A68110560
:101B0C0000F155830BB0BDEC088BBDE8F08F4FF4A2
:101B1C0080610E4ADFF848A099600D4E53689FED26
:101B2C000DAAD6ED058ADFED0C9A9FED0C9A019368
:101B3C00D0460AEB0109B7EE008A00240AF6A40B82
:101B4C000AF5096502AF41E100640240001000E0B3
:101B5C0000000020000000346F12033BFEFFFF4A20
:101B6C0020000020B6EE083AB4EEC34AF1EE10FAAB
:101B7C0040F3028234EE434AF1EE002A64EE222A4C
:101B8C0072EE882AC4EE223A73EE833AF4EEC83A27
:101B9C00F1EE10FA40F3F081894BC9F80030F5EE04
:101BAC00C05AF1EE10FAB0EE654A00F12E86F6EE50
:101BBC00083AF4EEE35AF1EE10FA40F33F8675EE74
:101BCC00E35AB1EE003A25EE833A33EE083A85EE4D
:101BDC00834A34EE234AB4EEC84AF1EE10FA40F3CD
:101BEC002D86774BC9F80430B5EEC05AF1EE10FAD9
:101BFC00B0EE454A00F1DD85F6EE085AB4EEE55A32
:101C0C00F1EE10FA40F3EE8535EE655AF1EE003A3E
:101C1C0065EE233A73EE883A85EE234A34EE254A74
:101C2C00B4EEC84AF1EE10FA40F3DC85644BC9F807
:101C3C000830B5EEC06AF1EE10FAF0EE465A00F13B
:101C4C008C85B6EE085AB4EEC56AF1EE10FA40F384
:101C5C009D8536EE456AB1EE004A26EE044A34EE16
:101C6C00084AC6EE045A75EE855AF4EEC85AF1EEDF
:101C7C0010FA40F38B85524BC9F80C30F5EEC06A64
:101C8C00F1EE10FAB0EE666A00F13B85F6EE085AFA
:101C9C00F4EEE56AF1EE10FA40F34C8576EEE56A67
:101CAC00B1EE005A26EE855A35EE085A86EE856A54
:101CBC0036EE256AB4EEC86AF1EE10FA40F33A85B6
:101CCC003F4BC9F81030B5EEC07AF1EE10FAF0EED9
:101CDC00476A00F1EA84B6EE086AB4EEC67AF1EE11
:101CEC0010FA40F3FB8437EE467AF1EE005A67EEB9
:101CFC00255A75EE885AC7EE256A76EE866AF4EE9A
:101D0C00C86AF1EE10FA40F3E9842D4BC9F814308F
:101D1C00F5EEC07AF1EE10FAB0EE677A00F1998424
:101D2C00F6EE086AF4EEE67AF1EE10FA40F3AA84C5
:101D3C0077EEE67AB1EE006A27EE866A36EE086A2E
:101D4C0087EE867A37EE267AB4EEC87AF1EE10FA80
:101D5C0040F398841A4BC9F81830F5EEC04AF1EEEE
:101D6C0010FAB0EE647A00F17781F6EE087AF4EEB0
:101D7C00E74AF1EE10FA40F3888174EEE74AF1EE8F
:101D8C00006A64EEA66A76EE886A84EEA67A37EE6E
:101D9C00277AB4EEC87AF1EE10FA40F37681084B4C
:101DAC00C9F81C3096F91C30002B80F28681054B4B
:101DBC0009F12009994508F1200800F0BD8105E0E2
:101DCC00FFFF7F002006002072F97F3FD8F800301B
:101DDC0043F3170300EE103AB8EEC00A20EE0A0ADD
:101DEC00B5EEC00AF1EE10FA00F13381F0EE40AA24
:101DFC00D8F80430DBED006A9BED006A43F317035F
:101E0C0007EE103AD8F808307AEEE66AB8EEC77AE0
:101E1C0043F3170366EEA96A07EE903A27EE0A7AA7
:101E2C0076EE866AF8EEE77AB5EEC07AF1EE10FA45
:101E3C0067EE8A7ACBED006A01D5B1EE477AF5EE02
:101E4C00C07AF1EE10FA01D5F1EE677A95ED006AE1
:101E5C00D5ED006A37EE467AF0EE680A27EE297A5D
:101E6C00384637EE267A85ED007AD5ED016A95ED88
:101E7C00017A77EEE67A67EEA97A77EE877AC5ED86
:101E8C00017AFEF73BFA9AF87438002B40F0E9849B
:101E9C009DED024ADDED035A9DED045A9DED056A58
:101EAC00DDED066A9DED077ADDED087ADDED094A78
:101EBC00B0EE441AF0EE651AB0EE452AF0EE462A62
:101ECC00B0EE663AB0EE470AF0EE670AF0EE643A0E
:101EDC00B4EEC81AF1EE10FAC0F2A7800123F4EEAA
:101EEC00C81AF1EE10FAC0F296800123B4EEC82A9B
:101EFC00F1EE10FAC0F285800123F4EEC82AF1EE5F
:101F0C0010FA74DB0123B4EEC83AF1EE10FA64DB7C
:101F1C000123B4EEC80AF1EE10FA54DB0123F4EEFF
:101F2C00C80AF1EE10FA44DB0123F4EEC83AF1EEE4
:101F3C0010FA33DB0124B5EEC04AF1EE10FAF0EEE4
:101F4C00443A7FF50FAEBEEE084AF4EEC43AF1EE19
:101F5C0010FA11D5F6EE082AF1EE633A73EEE23A76
:101F6C00B1EE004A23EE844A34EE084A83EE843AFA
:101F7C0033EE224AF1EE443ABFEE004AB4EEE34AA5
:101F8C00F1EE10FAD8BFB0EE634A24EE094ABDEE6A
:101F9C00C44A14EE103A23F07F43FEE5BFEE003A3C
:101FAC00F4EEC33AF1EE10FA8CBF1C4643F0010478
:101FBC00C1E7BFEE003AF4EEC30AF1EE10FA98BF97
:101FCC0043F00103B1E7BFEE003AB4EEC30AF1EE01
:101FDC0010FA98BF43F00103A1E7FFEE002AB4EE1C
:101FEC00E23AF1EE10FA98BF43F0010391E7BFEE2D
:101FFC00002AF4EEC22AF1EE10FA98BF43F0010366
:10200C0081E7FFEE001AB4EEE12AF1EE10FA98BF68
:10201C0043F0010371E7BFEE001AF4EEC11AF1EEC2
:10202C0010FA98BF43F0010360E71FED99BAF4EE84
:10203C00CBAAFFEE00AAF1EE10FAB4EEEA1AACBF8E
:10204C0001230023F1EE10FA98BF43F00103234360
:10205C0045E7F1EE40AACBE6FEEE087AF4EEE74A4D
:10206C00F1EE10FA11D5B6EE086AB1EE647A37EEDD
:10207C00467AF1EE007A67EE277A77EE887AC7EE29
:10208C00276A76EE867AB1EE677AFFEE007AF4EE86
:10209C00C77AF1EE10FAD8BFF0EE477A67EE897A7C
:1020AC00FDEEE77A17EE903A23F07F43C9F81C3027
:1020BC0096F91C30002BFFF67AAE96F91C3013B152
:1020CC000023C9F8003096F91C30012B1CBF0023EB
:1020DC00C9F8043096F91C30022B1CBF0023C9F838
:1020EC00083096F91C30032B1CBF0023C9F80C30A8
:1020FC0096F91C30042B1CBF0023C9F8103096F93C
:10210C001C30052B1CBF0023C9F8143096F91C3069
:10211C00062B1CBF0023C9F8183096F91C30072B6E
:10212C001CBF0023C9F81C30304B09F1200999451C
:10213C0008F120087FF44AAEDAF8AC38019A013382
:10214C00CAF8AC382A4B5B689B1A1B094FF6FF7216
:10215C00934228BF1346BAF8AA289BB2934288BF71
:10216C00AAF8AA38002C40F08F87DAF8AC28DAF8F5
:10217C00B0389A4280F09A87DAF8AC28DAF8B0389E
:10218C009A42FFF4BAAC95ED007ADFED1A7A1A4B4D
:10219C00B4EEE77AF1EE10FACCBF4FF000624FF4D8
:1021AC0000629A61154B1A6811057FF5ABAC104AA9
:1021BC00DFF85CA0124E9FED13AADFED139A9FED92
:1021CC00139A4FF40061996053680193D6ED058A18
:1021DC00D1460AF58064B7EE008A4FF000080AF683
:1021EC00A40B0AF5096502AF1BE100BF2006002015
:1021FC00001000E00AD7A33C00000240006402403B
:10220C0000000020000000346F12033BFEFFFF4A69
:10221C0020000020F6EE083AF4EEE35AF1EE10FA44
:10222C0040F3058275EEE35AB1EE003A25EE833A9F
:10223C0033EE083A85EE834A34EE234AB4EEC84AAC
:10224C00F1EE10FA40F3F381E54BC4F80432B5EE2D
:10225C00C05AF1EE10FAB0EE454A00F1D885F6EE10
:10226C00085AB4EEE55AF1EE10FA40F3E98535EE72
:10227C00655AF1EE003A65EE233A73EE883A85EE34
:10228C00234A34EE254AB4EEC84AF1EE10FA40F374
:10229C00D785D34BC4F80832B5EEC06AF1EE10FA0C
:1022AC00F0EE465A00F18785B6EE085AB4EEC56AD0
:1022BC00F1EE10FA40F3988536EE456AB1EE004A1D
:1022CC0026EE044A34EE084AC6EE045A75EE855AD8
:1022DC00F4EEC85AF1EE10FA40F38685C04BC4F800
:1022EC000C32F5EEC06AF1EE10FAB0EE666A00F14F
:1022FC003685F6EE085AF4EEE56AF1EE10FA40F384
:10230C00478576EEE56AB1EE005A26EE855A35EE33
:10231C00085A86EE856A36EE256AB4EEC86AF1EE86
:10232C0010FA40F33585AE4BC4F81032B5EEC07AD6
:10233C00F1EE10FAF0EE476A00F1E584B6EE086AA9
:10234C00B4EEC67AF1EE10FA40F3F68437EE467A24
:10235C00F1EE005A67EE255A75EE885AC7EE256ADB
:10236C0076EE866AF4EEC86AF1EE10FA40F3E48475
:10237C009B4BC4F81432F5EEC07AF1EE10FAB0EEC5
:10238C00677A00F19484F6EE086AF4EEE67AF1EEE0
:10239C0010FA40F3A58477EEE67AB1EE006A27EEE8
:1023AC00866A36EE086A87EE867A37EE267AB4EEBF
:1023BC00C87AF1EE10FA40F39384894BC4F81832C2
:1023CC00F5EEC04AF1EE10FAB0EE647A00F1C48377
:1023DC00F6EE087AF4EEE74AF1EE10FA40F3D58304
:1023EC0074EEE74AF1EE006A64EEA66A76EE886A4D
:1023FC0084EEA67A37EE277AB4EEC87AF1EE10FAAC
:10240C0040F3C383764BC4F81C3296F91C30002B76
:10241C0080F2D383734B20349C4209F1200900F0E5
:10242C000A84D9F8003243F3170300EE103AB8EEE1
:10243C00C00A20EE0A0AB5EEC00AF1EE10FA00F15D
:10244C008083F0EE40AAD9F80432DBED006A9BEDF4
:10245C00006A43F3170307EE103AD9F808327AEE04
:10246C00E66AB8EEC77A43F3170366EEA96A07EE7D
:10247C00903A27EE0A7A76EE866AF8EEE77AB5EEAF
:10248C00C07AF1EE10FA67EE8A7ACBED006A01D5CC
:10249C00B1EE477AF5EEC07AF1EE10FA01D5F1EE15
:1024AC00677A95ED006AD5ED006A37EE467AF0EE64
:1024BC00680A27EE297A384637EE267A85ED007AB7
:1024CC00D5ED016A95ED017A77EEE67A67EEA97A99
:1024DC0077EE877AC5ED017AFDF710FF9AF874381C
:1024EC00002B40F0C9849DED024ADDED035A9DEDB1
:1024FC00045A9DED056ADDED066A9DED077ADDED6A
:10250C00087ADDED094AF0EE440AB0EE651AB0EE39
:10251C0045BAF0EE461AB0EE662AF0EE472AB0EE57
:10252C00673AF0EE643AF4EEC80AF1EE10FAC0F233
:10253C00F3820123B4EEC81AF1EE10FAC0F2E28273
:10254C000123B4EEC8BAF1EE10FAC0F2D182012325
:10255C00F4EEC81AF1EE10FAC0F2C0820123B4EE08
:10256C00C82AF1EE10FAC0F2AF820123F4EEC82AA9
:10257C00F1EE10FAC0F29E820123B4EEC83AF1EEED
:10258C0010FAC0F28D820123F4EEC83AF1EE10FA83
:10259C00C0F27B824FF00108B5EEC04AF1EE10FAA2
:1025AC00F0EE443A00F14682B6EE083AB4EEC34A75
:1025BC00F1EE10FA40F3578234EE434AF1EE002A62
:1025CC0064EE222A72EE882AC4EE223A73EE833A23
:1025DC00F4EEC83AF1EE10FA40F34582004B03E0FA
:1025EC00FFFF7F0020060020C4F80032F5EEC05A31
:1025FC00F1EE10FAB0EE654A7FF50CAEFEEE085A1D
:10260C00B4EEE54AF1EE10FA11D5B6EE083AB1EE99
:10261C00444A34EE434AF1EE005A64EE255A75EE04
:10262C00885AC4EE253A73EE835AB1EE654AFFEE32
:10263C00005AF4EEC45AF1EE10FAD8BFF0EE445A38
:10264C0065EE895AFDEEE55A15EE903A23F07F437C
:10265C00FBE5FEEE087AB4EEE77AF1EE10FA11D54E
:10266C00B6EE086AB1EE477A37EE467AF1EE007AAA
:10267C0067EE277A77EE887AC7EE276A76EE867A47
:10268C00B1EE677AFFEE007AF4EEC77AF1EE10FA4B
:10269C00D8BFF0EE477A67EE897AFDEEE77A17EE4F
:1026AC00903A23F07F43FFF756BBBEEE087AF4EE68
:1026BC00C76AF1EE10FA11D5F6EE085AF1EE666A19
:1026CC0076EEE56AB1EE007A26EE877A37EE087A76
:1026DC0086EE876A36EE257AF1EE476ABFEE007A0F
:1026EC00B4EEE67AF1EE10FAD8BFB0EE667A27EEC9
:1026FC00097ABDEEC77A17EE103A23F07F43FFF745
:10270C0005BBFEEE086AB4EEE66AF1EE10FA11D5DE
:10271C00B6EE085AB1EE466A36EE456AF1EE006A3C
:10272C0066EE266A76EE886AC6EE265A75EE856ADD
:10273C00B1EE666AFFEE006AF4EEC66AF1EE10FACC
:10274C00D8BFF0EE466A66EE896AFDEEE66A16EED2
:10275C00903A23F07F43FFF7B4BABEEE086AF4EE6A
:10276C00C65AF1EE10FA11D5B6EE084AF1EE655ADA
:10277C0075EEC45AB1EE006A25EE866A36EE086A2A
:10278C0085EE865A35EE046AF1EE465ABFEE006AC3
:10279C00B4EEE56AF1EE10FAD8BFB0EE656A26EE3B
:1027AC00096ABDEEC66A16EE103A23F07F43FFF7B6
:1027BC0063BAFEEE085AB4EEE55AF1EE10FA11D5F2
:1027CC00B1EE454AF6EE083A34EE634AF1EE005AA1
:1027DC0064EE255A75EE885A84EE255A75EE235A06
:1027EC00B1EE654AFFEE005AF4EEC45AF1EE10FA5F
:1027FC00D8BFF0EE445A65EE895AFDEEE55A15EE57
:10280C00903A23F07F43FFF712BAFEEE085AB4EE6B
:10281C00E54AF1EE10FA11D5B6EE083AB1EE444A9B
:10282C0034EE434AF1EE005A64EE255A75EE885A9E
:10283C00C4EE253A73EE835AB1EE654AFFEE005AA8
:10284C00F4EEC45AF1EE10FAD8BFF0EE445A65EE2D
:10285C00895AFDEEE55A15EE903A23F07F43FFF7C7
:10286C00C1B9B94BD3EDA46AD3EDA57A93EDA66AA1
:10287C0077EEE67AB5EE007A67EE867A77EEA67A90
:10288C00F4EEC77AF1EE10FAC3EDA47A08D4B1EEE7
:10289C00007AF4EEC77AF1EE10FAD8BFB0EE677A90
:1028AC0083ED527A0093FEF71DFE009BD3EDA43A04
:1028BC0073EEC83AF5EEC03AF1EE10FA01D5F1EE2E
:1028CC00633ADAF8C439A148DFEDA17A9DED024AEA
:1028DC00DDED094ADDED035A9DED045A9DED056AC7
:1028EC00DDED066A9DED077AC3F3090C00EB8C0C49
:1028FC008CED000AA3F17F0CCCF3090C00EB8C0CD3
:10290C00DCED001AA3F1FB0CCCF3090C00EB8C0CE6
:10291C009CED002A6FF4BF7C9C44CCF3090C00EBBB
:10292C008C0C6FF4FE72DCED002A03EB020C63EEF0
:10293C00A73ACCF3090C00EB8C0C6FF420719CEDD6
:10294C00003AF4EEC83A03EB010CF1EE10FACCF3BA
:10295C00090CC8BFF0EE483A00EB8C0C63EE807AA1
:10296C009CED000A6FF4407C9C44CCF3090C38EECF
:10297C0063BA00EB8C0CDCED000AA3F2773C2BEE77
:10298C00041ACCF3090C00EB8C0031EE271AD0EDB5
:10299C00007A8DED021A63EEA11A23EE822A63EE01
:1029AC00A22A23EE833A23EE800A63EEA00A63EE9A
:1029BC00A73ADDED087A6BEE277A6BEE255A70EEAE
:1029CC00A70A2BEE055A6BEE247A2BEE066A6BEEF9
:1029DC00266A2BEE077A73EEA73A71EEA51A32EE41
:1029EC00052A72EE862A33EE263A30EE070A0133B8
:1029FC00B0EE414AF0EE615ACDED031AB0EE425AF8
:102A0C008DED042ACAF8C439CDED052A8DED063AB0
:102A1C008DED070ACDED080ACDED093AB0EE626AEC
:102A2C00F0EE436AB0EE407AF0EE607AF0EE634A74
:102A3C00FFF74EBABEEE084AF4EEC43AF1EE10FAC5
:102A4C0011D5F6EE082AF1EE633A73EEE23AB1EEE6
:102A5C00004A23EE844A34EE084A83EE843A33EE7D
:102A6C00224AF1EE443ABFEE004AB4EEE34AF1EEEC
:102A7C0010FAD8BFB0EE634A24EE094ABDEEC44A40
:102A8C0014EE103A23F07F43AEE5BFEE003AF4EEBD
:102A9C00C33AF1EE10FA8CBF984643F001087BE57F
:102AAC00FFEE002AB4EEE23AF1EE10FA98BF43F0D2
:102ABC00010369E5BFEE002AF4EEC22AF1EE10FA2A
:102ACC0098BF43F0010358E5FFEE001AB4EEE12A7B
:102ADC00F1EE10FA98BF43F0010347E5BFEE001A80
:102AEC00F4EEC11AF1EE10FA98BF43F0010336E58B
:102AFC00BFEE001AB4EEC1BAF1EE10FA98BF43F073
:102B0C00010325E5FFEE000AB4EEE01AF1EE10FA2F
:102B1C0098BF43F0010314E5BFEE000AF4EEC00ABF
:102B2C00DFED0C0AF1EE10FAF4EEE0AA94BF0123EB
:102B3C000023F1EE10FAA8BF43F0010343EA0803A7
:102B4C00F8E4F1EE40AA7EE400000010DC0A00106C
:102B5C000000484272F97F3FFEEE087AF4EEE74A35
:102B6C00F1EE10FA11D5B6EE086AB1EE647A37EED2
:102B7C00467AF1EE007A67EE277A77EE887AC7EE1E
:102B8C00276A76EE867AB1EE677AFFEE007AF4EE7B
:102B9C00C77AF1EE10FAD8BFF0EE477A67EE897A71
:102BAC00FDEEE77A17EE903A23F07F43C4F81C321F
:102BBC0096F91C30002BFFF62DAC96F91C3013B196
:102BCC000023C4F8003296F91C30012B1CBF0023E3
:102BDC00C4F8043296F91C30022B1CBF0023C4F835
:102BEC00083296F91C30032B1CBF0023C4F80C329E
:102BFC0096F91C30042B1CBF0023C4F8103296F934
:102C0C001C30052B1CBF0023C4F8143296F91C3061
:102C1C00062B1CBF0023C4F8183296F91C30072B66
:102C2C001CBF0023C4F81C328F4B20349C4209F18A
:102C3C0020097FF4F6ABDAF8AC38019A0133CAF804
:102C4C00AC388A4B5B689B1A1B094FF6FF72934298
:102C5C0028BF1346BAF8AA289BB2934288BFAAF899
:102C6C00AA38B8F1000F40F0F181DAF8AC28DAF8A4
:102C7C00B0389A4280F0FC81DAF8AC28DAF8B03837
:102C8C009A42FEF43FAF95ED007ADFED797A794BFD
:102C9C00B4EEE77AF1EE10FACCBF4FF000624FF4CD
:102CAC0000629A610BB0BDEC088BBDE8F08FFEEEB4
:102CBC00087AB4EEE77AF1EE10FA11D5B6EE086A9E
:102CCC00B1EE477A37EE467AF1EE007A67EE277A64
:102CDC0077EE887AC7EE276A76EE867AB1EE677A57
:102CEC00FFEE007AF4EEC77AF1EE10FAD8BFF0EEF0
:102CFC00477A67EE897AFDEEE77A17EE903A23F081
:102D0C007F43FFF75BBBBEEE087AF4EEC76AF1EEC9
:102D1C0010FA11D5F6EE085AF1EE666A76EEE56A0F
:102D2C00B1EE007A26EE877A37EE087A86EE876A5D
:102D3C0036EE257AF1EE476ABFEE007AB4EEE67A0B
:102D4C00F1EE10FAD8BFB0EE667A27EE097ABDEE36
:102D5C00C77A17EE103A23F07F43FFF70ABBFEEE5B
:102D6C00086AB4EEE66AF1EE10FA11D5B6EE085A1E
:102D7C00B1EE466A36EE456AF1EE006A66EE266AF8
:102D8C0076EE886AC6EE265A75EE856AB1EE666AEC
:102D9C00FFEE006AF4EEC66AF1EE10FAD8BFF0EE60
:102DAC00466A66EE896AFDEEE66A16EE903A23F004
:102DBC007F43FFF7B9BABEEE086AF4EEC65AF1EEDD
:102DCC0010FA11D5B6EE084AF1EE655A75EEC45AF2
:102DDC00B1EE006A25EE866A36EE086A85EE865AF2
:102DEC0035EE046AF1EE465ABFEE006AB4EEE56ABF
:102DFC00F1EE10FAD8BFB0EE656A26EE096ABDEEA8
:102E0C00C66A16EE103A23F07F43FFF768BAFEEE5F
:102E1C00085AB4EEE55AF1EE10FA11D5B1EE454A66
:102E2C00F6EE083A34EE634AF1EE005A64EE255A97
:102E3C0075EE885A84EE255A75EE235AB1EE654A22
:102E4C00FFEE005AF4EEC45AF1EE10FAD8BFF0EED1
:102E5C00445A65EE895AFDEEE55A15EE903A23F088
:102E6C007F43FFF717BA00BF20060020001000E0D8
:102E7C000AD7A33C00000240934BD3EDA46AD3EDD8
:102E8C00A57A93EDA66A77EEE67AB5EE007A67EE50
:102E9C00867A77EEA67AF4EEC77AF1EE10FAC3EDE5
:102EAC00A47A08D4B1EE007AF4EEC77AF1EE10FAF7
:102EBC00D8BFB0EE677A83ED527A0093FEF712FB1F
:102ECC00009BD3EDA47A77EEC87AB0EE407AF5EE9B
:102EDC00C07AF1EE10FA01D5F1EE677ADAF8C4395E
:102EEC007A49DFED7B6ADDED094A9DED024ADDEDA5
:102EFC00035A9DED045A9DED056AC3F3090001EBDD
:102F0C00800080ED007AA3F17F00C0F3090001EB93
:102F1C00800090ED001AA3F1FB00C0F3090001EB57
:102F2C0080006FF4BF7290ED00BA9818C0F30900DE
:102F3C0001EB8000D0ED001A6FF4FE701818C0F38E
:102F4C00090001EB80006FF4207C90ED002A03EB6C
:102F5C000C00C0F3090001EB80006FF44072D0ED5F
:102F6C00002A981867EEA67AC0F3090001EB8000DE
:102F7C0090ED003ADDED066AF4EEC87AA3F27730F4
:102F8C00F1EE10FAC0F30900C8BFF0EE487A01EB7D
:102F9C00800167EE870A91ED007A38EE670A67EEDA
:102FAC00873A27EE811A27EE8BBA67EEA11A27EE25
:102FBC00822A67EEA22A27EE833ADDED087A9DED90
:102FCC00077A60EE277A20EE044A33EE273A60EE59
:102FDC00255A60EE247A20EE055A20EE066A60EE41
:102FEC00266A20EE077A73EEA73A74EE200A31EEC9
:102FFC00251A3BEE05BA71EE861A32EE262A72EECF
:10300C00872A0133B0EE604ACDED020AF0EE415A48
:10301C008DED031AB0EE4B5A8DED04BACAF8C439D3
:10302C00CDED051A8DED062ACDED072A8DED083A6A
:10303C00CDED093AB0EE616AF0EE426AB0EE627A1A
:10304C00F0EE437AF0EE634AFFF76DBADAF8AC387B
:10305C0003F2EE23CAF8C8399AF8A83801338AF873
:10306C00A838DAF8AC28DAF8B0389A42FFF404AE93
:10307C00DAF8AC38DAF8C819164A8B4234BF4FF478
:10308C00803301239361F7E5DAF8AC3803F2EE23D1
:10309C00CAF8C8399AF8A83801338AF8A838DAF887
:1030AC00AC28DAF8B0389A42FFF466A8DAF8AC38F3
:1030BC00DAF8C819074A8B4234BF4FF48033012326
:1030CC009361FFF759B800BF00000010DC0A001034
:1030DC000000484200000240704700BF054BD3F887
:1030EC0088204FF0006142F47002C3F88820996088
:1030FC00704700BF00ED00E02DE98048414A424B8B
:10310C009A42ADB016D2013B9B1A032B11460FD934
:10311C009B080133580802EBC0050024C1E90044A8
:10312C000831A942FAD1B3EB400F03D002EBC00235
:10313C00002313604FF0E021344BD1F8FC2D00201C
:10314C0042F08072C1F8FC2D58601A68304942F088
:10315C0001021A600B682F4A43F480330B60D2F8DB
:10316C0000389D03FBD52A4A2B49136C2B4843F09E
:10317C0080531364136C0B6840F2057443F44043A2
:10318C000B6004609368264923F47C4323F0F0031E
:10319C0043F414439360516013681E4943F08073E9
:1031AC001360D1F800389C01FBD5194B9A6822F0BA
:1031BC00030242F002029A609C6804F00C04082C92
:1031CC00FAD1184AC3F88820D3F88C20114922F47C
:1031DC00700222F4F85242F4C062C3F88C201A68D0
:1031EC0042F080521A60D1F800389800FBD5084B99
:1031FC009A6802F00C02042A18D0082A01F0B48153
:10320C00094B14E000000010DC1A0010001000E064
:10321C00003802400030024000700040003C024088
:10322C0008544007005600020024F400BC4BBD4A71
:10323C00BD499068C0F3031001F5A07B085CC34046
:10324C00BA480360136B43F0FE031363136B01F175
:10325C0010004FF0030A4FF002094FF001084FF035
:10326C000F0E4FF00C0C0268037915685E000AFA19
:10327C0006F725EA070509FA06F635431560556881
:10328C0008FA03F625EA0605556095683D439560F6
:10329C00D568072B25EA0705D56094BF00250125C5
:1032AC0002EB850203F00703156A9B000EFA03F686
:1032BC00083025EA06050CFA03F32B435845136234
:1032CC00D1D1984A936B43F001039363984B926B63
:1032DC00984A4FF4605018644FF4EA7058644FF4F5
:1032EC0083109864DA649A6D9206FCD409221A65EC
:1032FC0044F61F6300BF1A46013B002AFAD18C4BDF
:10330C009A6D9706FCD40A221A65894B9A6D96061B
:10331C00FCD4EB221A65864B9A6D9506FCD4864A32
:10332C001A654FF49F625A65814B9A6D9006FCD4D6
:10333C007C4A8248136BDFF84C9243F00A03136308
:10334C007F4B126B1A6822F440121A60DA6822F46E
:10335C00401242F48012DA601A6822F440021A60B9
:10336C00DA6822F4400242F48002DA60026822F445
:10337C0040020260C26822F4400242F48002C26041
:10338C00026822F040720260C26822F0407242F081
:10339C008072C2601A6822F440121A60DA6822F451
:1033AC00401242F48012DA601A6822F440021A6069
:1033BC00DA6822F4400242F48002DA601B695A0592
:1033CC00604B4CBF9FED601A9FED601AC9F800303E
:1033DC004FF40012C9F80420002003F5000243F852
:1033EC00040B9342FBD15A4BC9F8BC30C9F8C4301A
:1033FC00584BC9F8B030584BC9F81430574BC9F872
:10340C001830574BC9F81C30564BC9F82030564B66
:10341C00C9F82430554BC9F82830554BC9F82C3015
:10342C00544B554EC9F8C8300022544B434DC9F883
:10343C00CC3000274FF07E53C9E93522C9F808205B
:10344C00C9F8DC2089F8E020C9F8106001220026B8
:10345C00DFF834C1C9F8C030C9F8E430C9F8043118
:10346C00C9F8B42089F8D020C9E90C67C9E90E67FE
:10347C00C9E91067C9E91267C9E91467C9E9166790
:10348C00C9E91867C9E91A6789ED2E1AC9F8E83035
:10349C0089F83021C9F840C12A69C9F80831C9F83E
:1034AC00EC30C9F80C31C9F8F030C9F81031C9F852
:1034BC00F430C9F81431C9F8F830C9F81831C9F822
:1034CC00FC30C9F81C31C9F80031C9F82031C9F8F1
:1034DC002831C9F834312B69C9F82C016FEA133340
:1034EC006FEAD2225B0003F0020302F001021343E5
:1034FC004FF0785E032BC9F824E1C9F8380101F0CC
:10350C004C8001EB8301D1F84031182B08BF00230C
:10351C000B4AC9F83C311369024A194F1B0535E0B7
:10352C0000127A00003802405C5A000800000020AB
:10353C00000100A0610301010C600400000C0240BA
:10354C0000040240000000D00080BB4700606A49C4
:10355C006F12833ACAF249F1000020420000704217
:10356C000000A0420000C8420000F04200000C43E2
:10357C0000002043CDCCCC3E0000A041CDCCCC3FB4
:10358C00C120120000000010674523015CBFAD4B49
:10359C00C9F82831136B43F002031363136C43F423
:1035AC0080431364A84B116C196821F0406141F001
:1035BC0000611960996841F000619960596A21F4C1
:1035CC00700141F4A0015962196821F0405141F099
:1035DC0000511960996841F000519960596A21F0C5
:1035EC00706141F0A0615962196821F0404141F0CD
:1035FC0000411960996841F000419960596A21F0C5
:10360C00704141F0A0415962196821F0407141F0BC
:10361C00807119604FF480558C499D6100204FF4E6
:10362C004D730B6048600B6843F040030B60536CA8
:10363C0043F480035364536C136B43F038031363EC
:10364C00136B834B1D6825F0300545F020051D607C
:10365C005D6825F004055D609D6845F030059D6052
:10366C00DD6825F03005DD601D6A25F4706545F4D4
:10367C00C0651D621D6825F4407545F400751D601C
:10368C005D6825F010055D609D6845F440759D6092
:10369C00DD6825F44075DD601D6A25F4702545F460
:1036AC00C0251D621D6825F4406545F400651D604C
:1036BC005D6825F020055D609D6845F440659D6062
:1036CC00DD6825F44065DD601D6A25F4700501F5A3
:1036DC00EA3145F4C0051D620B685E4D23F440537E
:1036EC0043F400530B604B6823F040034B608B6832
:1036FC0043F440538B60CB6823F44053CB600B6A8C
:10370C0023F0706343F0C0630B622968524B21F4C1
:10371C00405141F400512960696821F04001696011
:10372C00A96841F44051A960E96821F44051E9606D
:10373C00296A21F0706141F0C061296201265F6045
:10374C00464D47499E6007F20147DD6019615F6293
:10375C009E62DD621963136B43F480031363136B76
:10376C00404B98629A6A12F00102FBD13E491963F0
:10377C00DFF818B13D49C3F834B04FF48070D8620B
:10378C009962C3F88820374AD2F8883013F00103C5
:10379C000093F9D13649C2F890103649C2F894100A
:1037AC00354B36494FF48070C2F88C00C2F8881043
:1037BC00102183F839134FF000715960936A43F06C
:1037CC0001039362D2F8883043F00103C2F88830C9
:1037DC00214B2B4A596A41F480315962596841F4A2
:1037EC0080315960136B43F001031363136B254B4A
:1037FC001A6822F0300242F010021A605A684FF434
:10380C00802122F004025A609961009B0A930A9B62
:10381C001D4A934205DC0A9B01330A930A9B93428F
:10382C00F9DD184B1A6822F0300242F010021A60CF
:10383C005A68042122F004025A609961002309930A
:10384C00099B25E07D99D63E0004024000380040DB
:10385C00001002400014024000580140FF0F060007
:10386C008007FF00006402402058014018550300F7
:10387C00405801402004002000E100E040550300C6
:10388C000038024000000240DF93040020000020BA
:10389C00914A934205DC099B01330993099B93429E
:1038AC00F9DD8E4A8E4B116B41F002011163116BE5
:1038BC00196821F4403141F400311960596841F420
:1038CC0080715960996841F480319960D96821F40C
:1038DC00403141F48031D960596A21F00F0141F037
:1038EC0004015962196821F4402141F40021196046
:1038FC00596841F400715960996841F480219960CC
:10390C00D96821F4402141F48021D960596A21F011
:10391C00F00141F040015962136C43F4001313643D
:10392C00136C704B4FF400421A6000212A2219606C
:10393C005A60D222DA6101252B221A624FF6FF3629
:10394C001D600846684A01E0013A02D09F69BF0732
:10395C00FAD41F68644A47F480771F6001E0013A8B
:10396C0002D05F69FF07FAD55A69D20740F1188671
:10397C004A00D2B25D4F1A6105E0520500F11B8678
:10398C00013F00F01F865A6912F0020FF5D09A69B8
:10399C001A684F090BEB870742F400721A60D7F8CC
:1039AC0004C801F01F0205FA02F242EA0C02C7F841
:1039BC0004280890089AB2F5FA6F06DA089A0132D0
:1039CC000892089AB2F5FA6FF8DB01318029B9D167
:1039DC00474BCBF814387F210220FDF7CBFFF021A9
:1039EC0005460320FDF7C6FF362105430420FDF7ED
:1039FC00C1FFFF2105430720FDF7BCFF0021054354
:103A0C000220FDF7B7FF102105430620FDF7B2FF9A
:103A1C00002105430720FDF7ADFF364B314A054326
:103A2C005D60354D354B08464FF0920C9327EE26D2
:103A3C00116815F801EB41F48071116080462B4937
:103A4C0002E0013900F0CB85D3F81404C007F8D597
:103A5C002649C2F810C002E0013900F0C285D3F843
:103A6C0014048007F8D59169204902E0013900F06F
:103A7C00B685D3F814040006F8D5C2F810E01B493B
:103A8C00C64602E0013900F0A385D3F814044007C0
:103A9C00F8D5116841F480711160144902E00139C4
:103AAC0000F09685D3F81404C007F8D51761116897
:103ABC0021F4806111600D4902E0013900F09B8511
:103ACC00D3F814048007F8D59169116841F400719A
:103ADC001160064917E000BFDF9304000038024074
:103AEC000004024000540040410D0300400D03004F
:103AFC00EEFFC00000000020A85B00080050004052
:103B0C00013900F06585D3F814044006F8D57046E9
:103B1C00D2F810E0116841F4806111600BEB0001E8
:103B2C0081F818E801300A2882D1B64AB64B116BDD
:103B3C00B64D41F001011163116B196821F440710C
:103B4C0041F480711960196821F4406141F480617D
:103B5C0019601968102721F44051202019609F61C9
:103B6C009861116B41F003011163116B196821F01D
:103B7C00030141F0010119604FF48031996119681A
:103B8C0021F00C0141F004011960022199611968BE
:103B9C0021F4404141F480411960802199611968F8
:103BAC0021F4403141F4803119604FF480719961F6
:103BBC00196821F4400141F48001196000264FF48A
:103BCC0000619961ABF824688BF82A68ABF8286817
:103BDC00296821F00F0141F0050129604FF44031B3
:103BEC00A961116B41F005011163116B196821F486
:103BFC00407141F480711960196821F4406141F4FD
:103C0C0080611960196821F0404141F080411960D0
:103C1C00196805F5806521F440511960296821F473
:103C2C00401141F480112960296821F0407141F064
:103C3C00807129604FF0806C4FF000419F6198615A
:103C4C00C5F818C09961136B43F004031363136B2D
:103C5C002B6823F00C032B60EB6823F00C0343F070
:103C6C000403EB602B6823F030032B60EB6823F02C
:103C7C0030033B43EB602B6823F0C0032B60EB68F5
:103C8C0023F0C00343F04003EB602B6823F4407334
:103C9C002B60EB6823F4407343F48073EB602B6868
:103CAC0023F440632B60EB6823F4406343F480639C
:103CBC00EB602B6823F440532B60EB6823F44053E8
:103CCC0043F48053EB60B046B246A4F1080707EB0F
:103CDC00071007EB001000EB0030FDF7B1FE0023DE
:103CEC000793079B0B2B05DC079B01330793079B63
:103CFC000B2BF9DD00230693069B0B2B05DC069B97
:103D0C0001330693069B0B2BF9DD0122296902FA7C
:103D1C0007F74AEA070311F0200F9BB208BF9A4637
:103D2C0002FA04F314444AEA030211F0400F92B26F
:103D3C0008BF924648EA070211F0080F92B208BF7A
:103D4C00904648EA0300374311F0100F80B2BAB224
:103D5C0008BF804611F0020F08BF1646334311F01E
:103D6C00040F9BB208BF1E46102CAED12848FDF79D
:103D7C0067FE244BABF832A8ABF83488ABF8366846
:103D8C005A6C244942F480625A641A6B42F0200245
:103D9C001A635B6C0B68204A43F440330B60A1F54B
:103DAC0071414B6823F4403343F480334B60002360
:103DBC0006215360D36251634FF4E011116101216C
:103DCC0091600B930B9B42F20F72934205DC0B9BA1
:103DDC0001330B930B9B9342F9DD0A4BDFED0F2A5A
:103DEC001A6B0A48C9ED552A42F00F02C9ED562A42
:103DFC00C9ED572A1A631A6BC2680949DFF828E023
:103E0C00084D1FE000380240000002400004024050
:103E1C007777770000140240002201400000000078
:103E2C00000802403480373A8408002017B7D13894
:103E3C0095BFD6330AD7233C5F708930CAF249F15B
:103E4C008FC2753D5FED078A1FED078A1FED070ACC
:103E5C001FED072A5FED070A5FED071A22F47002C7
:103E6C00C260CA686FF38D02CA60D0F80C18C34ADE
:103E7C0021F07071C0F80C18D16821F04041D1606C
:103E8C00596C41F0100159645B6C136823F4701386
:103E9C0043F420131360536A23F47F6343F4EE63FB
:103EAC005362B74BC9F84C31A2F570424FF08743BF
:103EBC00C9F8503100204FF07E5340F2D926C9F892
:103ECC004831C9F86031C9F864314FF0FF31C9F895
:103EDC008C024FF00044966042F20C06D660C9F892
:103EEC006831C9ED5B2AC9F88812C9E99C44C9F844
:103EFC009032C9F894324FF48073C9F88012ABF841
:103F0C007038012302939BF87438C9F89852F6EE76
:103F1C00007A009DC9F87802B0EE677AC9F884027D
:103F2C00C9F87C12CEED007ACEED017ACEED027A94
:103F3C004FF0FF0A002B40F05C8215F0030300F0F9
:103F4C006D8315F03F0340F04D828C4A4FF4801185
:103F5C0091611193119B0B2B05DC119B0133119378
:103F6C00119B0B2BF9DD854B10229A6100231093CA
:103F7C00109B0B2B05DC109B01331093109B0B2B10
:103F8C00F9DD00237D480D214FF400171C46202637
:103F9C0087610E940E9A0B2A05DC0E9A01320E9252
:103FAC000E9A0B2AF9DD026986610F9412F0400F0C
:103FBC004FEA43030F9A9BB218BF43F001030B2A3D
:103FCC0005DC0F9A01320F920F9A0B2AF9DD013999
:103FDC00DED16A4A4FF400119161990743BFC3F3D4
:103FEC00800484F00104E4B2022413F0080F0CBF27
:103FFC00022201221F060092C3F3001640F1AC8688
:10400C00C3F3002181F001014900C9B213F48062AD
:10401C0000F0518613F4007F14BF0122022201929A
:10402C00584FD9ED2E7A38696FEAD32242EA9022A2
:10403C0002F001003A69D7F81080009FABF82C38D9
:10404C008BF848488BF849788BF84A188BF87468C9
:10405C004D4E019F37736FEA133646EAD22202F0B7
:10406C0001028BF84B088BF84C284EED017A002896
:10407C0040F0D485002A00F008879BF82528002AF8
:10408C0000F0EF874FF480720129ABF8242800F080
:10409C00CF87064684469BF88478012F00F06E8605
:1040AC00022F00F05487002F00F02586D9F8082045
:1040BC00002E41F0AF83314E99F8D0104FF0020C26
:1040CC00C6F818C04FF4000CC6F818C0012900F04F
:1040DC003786DBF88868964200F2FF869BF88C687E
:1040EC00CBF88828002E00F00287013EF6B2234A56
:1040FC008BF88C684FF0807CC2F818C08BF84E7827
:10410C008BF84F18DEED107A9FED206ADFED206AF8
:10411C0067EE867ADB43F4EEE67AF1EE10FA03F002
:10412C00010800F3E485FCEEE77A17EE903A8BF881
:10413C0050388BF85868DEED0B7A9FED166ADFED80
:10414C00146A67EE867AF4EEE67AF1EE10FA00F372
:10415C00CB85FCEEE77A17EE903A8BF85138DEED12
:10416C000C7A9FED0C6ADFED0A6A67EE867AF4EE44
:10417C00E67AF1EE10FA00F3B4850FE0000002408D
:10418C000000B44500180240000000200000C842A6
:10419C0000007F4300007A44C0FE9F49FCEEE77AA2
:1041AC0017EE903A8BF852389BF8A8388BF85338A6
:1041BC00BBF8AA38ABF85638DBF8AC28DBF8B038CB
:1041CC009A42C0F01C869BF8B43843B19BF8B538C2
:1041DC00009A934200F0478700238BF8B438DDE94E
:1041EC000023029942EA031C61451CD007EE902A79
:1041FC00F8EE677A67EE817A3BB1012B0CBFF6EED5
:10420C00006AF5EE006A67EEA67A5FED1D6AF4EEC1
:10421C00E76AF1EE10FAD8BFF0EE667A0123C9ED29
:10422C002E7AC9F8B430B8F1000F40F04785A2459A
:10423C0000F0E1854FEA841808F1006303F5404370
:10424C00C5491A688A4240F07486DA88022A40F01E
:10425C0070861989282900F26C860A1DCDE9031095
:10426C0092B29F88029203F1050A4FF6FF7241F257
:10427C00210650461AF8011F82EA0122510012044D
:10428C0048BF71404A00090448BF724051001204F3
:10429C0048BF71404A00090448BF724051001204E3
:1042AC0048BF71404A00090448BF724051001204D3
:1042BC0048BF71404A0092B20904A0F1040102986F
:1042CC0048BF7240A1EB030148BF92B28142D0D3E8
:1042DC009742DDE9031040F02C86002900F0298676
:1042EC004A1E052A41F2FE829C4A6A44A2EB08024D
:1042FC00022A41F2F7829A4A8E0858F802701C97EB
:10430C00012E424401F0E78257681D97022E00F0FF
:10431C00F38597681E97032E00F0EE85D7681F97DC
:10432C00042E00F0E98517692097052E00F0E4852E
:10433C0057692197062E00F0DF8597692297072E83
:10434C0000F0DA85D7692397082E00F0D585176A17
:10435C0024970A2E40F0D085536A2593009B8BF846
:10436C00B538019B8BF8B638249BCEF80030CEF8CC
:10437C0004300123ABF870388BF8B4389DF89430C6
:10438C008BF8B7389DF896308BF8B838DDED1C6A91
:10439C00DDED1D7ADDF878801F9F209E2199229AF1
:1043AC00239BCEED022AA2464FF0FF0CC9F82C300D
:1043BC000123C9ED046AC9ED057AC9F81880C9F85A
:1043CC001C70C9F82060C9F82410C9F82820CDF851
:1043DC0008C0C9F8B430002840F0EE82CBF8BC0815
:1043EC008BF8C008013530BF9BF87438002B3FF4B4
:1043FC00A4ADD9F88832002BBFF69FADD9ED527A17
:10440C00F7EE006A76EEE76AF5EEC06AF1EE10FAA6
:10441C0000F1E886F0EE667AF4EEE87AF1EE10FA46
:10442C003FF58BADD9ED535AD9ED557A86EEA56A89
:10443C00B5EEC06AF1EE10FA41F3A181B6EE005A66
:10444C00F4EEC57AF7EE006AF1EE10FA76EEE76A52
:10445C0001D4B7EE085A75EE677AF4EEE76AF1EE1E
:10446C0010FAF4EEE67A94BF01230023F1EE10FA71
:10447C00B8BFF0EE676AF4EEE16A83F00108F1EE82
:10448C0010FAC9F88C823FF758ADF2EE007A26EE9E
:10449C00276AB4EEE66AF1EE10FA3FF74EAD99EDED
:1044AC00546AF0EE467AF6EE006A25EEA64AD9E991
:1044BC00012409EB830334EE274AD3ED566ADFED72
:1044CC00297AD9F8000034EE264A1719002114E095
:1044DC0003F1010C62452ED916ED015A35EE665AE0
:1044EC0065EE255A75EEA66A66EEA66A0231B1F53E
:1044FC00407F77EEA67A00F0798606EE901AF8EEF9
:10450C00E66A76EE846AFCEEE65A15EE903A934231
:10451C0024BFB3FBF2F602FB16339C422CBFE31A0A
:10452C00FB1AF8EE655A00EB8306012B76EEE55A82
:10453C00D6ED006ACCD8013B00F13C829A4298BF80
:10454C009B1A00EB830393ED005A35EE665A65EE29
:10455C00255A75EEA66AC7E7723838326540FFF700
:10456C000AC000080000000059685A685B684902DC
:10457C00C3F388134CBF2549254902F03F02B1FB18
:10458C00F2F202FB03F3234A5268C2F301420132F6
:10459C005200B3FBF2F3FEF74ABE0423FEF7B8BF9A
:1045AC001A6842F400721A60DBF800280132CBF86A
:1045BC000028FFF7FEB95E611A6842F400721A60B7
:1045CC00FFF7F7B91A6842F400721A60FFF7F1B9F5
:1045DC0070460BEB000181F81868FFF7A3BA404650
:1045EC00F7E7DFF834E0DEF8001041F400714046E4
:1045FC00CEF80010EDE77046DFF81CE0DEF8001096
:10460C0041F40071CEF80010E3E700BF00127A000D
:10461C000024F4000038024000540040AF4AD16836
:10462C009268AF4A4FF0805191610D930D9B272BEF
:10463C0005DC0D9B01330D930D9B272BF9DDA74A50
:10464C0093689F07FCD501231373A44A9368DE0774
:10465C00FCD5137BA14A8BF8783893689C07FCD562
:10466C00A02313739D4A9368D807FCD5137B9B4AF0
:10467C008BF8793893689907FCD500231373974A04
:10468C009368DB07FCD5137B944A8BF87A389368D4
:10469C0013F08003FBD1924A4FF4805191610C933B
:1046AC000C9B272B05DC0C9B01330C930C9B272BB1
:1046BC00F9DD8A4BDA689B68894B4FF080529A611E
:1046CC0000230D930D9B272B05DC0D9B01330D93C4
:1046DC000D9B272BF9DD814A93689F07FCD501239D
:1046EC0013737E4A9368DE07FCD5137B7B4A8BF8E9
:1046FC007B3893689C07FCD5E0231373774A936847
:10470C00D807FCD5137B754A8BF87C3893689907CE
:10471C00FCD500231373714A9368DB07FCD5137B1C
:10472C006E4A8BF87D38916811F08001FBD16C4B8F
:10473C004FF480529A610C910C9B272B05DC0C9B3F
:10474C0001330C930C9B272BF9DD9BF879389BF8E4
:10475C007A281B0203F47063134306EE903A9BF81D
:10476C007C389BF87D281B0203F47063134300F024
:10477C00BC8340F23622934241F3A58040F2815231
:10478C00934241F3D18040F60602934241F3C1803B
:10479C0040F64B22934241F3D08040F601529342B3
:1047AC0041F3AE8040F6FF72934241F066801C46A6
:1047BC0019464C48826842F0804282600268960733
:1047CC00FCD5C26C48489FED496A90ED025ADFED6A
:1047DC00485ADFED484AC2F30B0207EE902AF8EE76
:1047EC00677A77EEC57A67EE867A77EE857A77EE1A
:1047FC00E55AC0ED027AFCEEE77A65EEA45A17EEA4
:10480C00902AABF838289BF87428002A00F0D8823C
:10481C0007EE903A9FED385AF8EEE77AB7EE006A59
:10482C0067EE857AF4EEC67AF1EE10FA40F3518415
:10483C00F0EE467A2C4B9FED315A1B7BDFED304A64
:10484C00022B18BFB0EE615A67EE857AF4EEE45A8B
:10485C00B7EE006AF1EE10FA36EE676A40F31A848E
:10486C00DFED227AF4EEE75AF1EE10FA40F13D84D6
:10487C00DEED077AF5EEC07AF1EE10FA09DD9EED69
:10488C00076AF5EE007AB4EEE76AF1EE10FA00F181
:10489C001C84F1EE007AB4EEE76AF1EE10FAD8BFA0
:1048AC00F0EE467AD9F88022C9EDA57A002A3CDBD5
:1048BC000D4B1B69934238D04FF0FF33C9F87C3253
:1048CC00032A10491346A8BF032303EB431301EB40
:1048DC0083130021C9F8781216E000BF003800409D
:1048EC00000402400022014000000020CDCC4C3DD1
:1048FC0000E0FF440210003A021080398FC2753E6E
:10490C00CDCC4CBDB45B0008B749043B53F8040F45
:10491C0041F8040BB5488142F8D1A0F50463C9F8FD
:10492C007832B34BC9F87C221A61F0EE627A77EEDA
:10493C00C77A9FEDB06A9BF8703867EE867A37EECF
:10494C00277A002B00F0C182DEED017A37EE676A20
:10495C00B5EEC06AF1EE10FA00F18282DFEDA65AD4
:10496C00B4EEE56AF1EE10FA00F182829BF8713830
:10497C00002B40F03986B4EEE77AF1EE10FA05D848
:10498C00B4EE677AF1EE10FA00F0728201238EED2C
:10499C00027A8BF87138CEED007A954BC3ED057A1F
:1049AC0016EE903AABF82E38ABF830480EED027A92
:1049BC00FFF7C7BA1344C4E5DBF8BC389BF8C02832
:1049CC00002B40F05E82DBF8AC38002B40F05783B4
:1049DC000123CBF8BC38002A7FF404AD0346DBF886
:1049EC00AC28D31A41F2707293427FF6FBAC009B59
:1049FC008DF86C30019B8DF86E30804B1C9300232E
:104A0C008DF86D308DF86F30D9F81030CDF87A30D4
:104A1C00D9F81430CDF87E30D9F81830CDF8823072
:104A2C00D9F81C30CDF88630D9F82030CDF88A3042
:104A3C00D9F82430CDF88E30D9F82830CDF8923012
:104A4C00D9F82C30CDF89630694B5B69CDF89A309B
:104A5C006B4BCDF876301B9BCDF89E3001238BF839
:104A6C00C0380DF175004FF6FF7341F2210110F8BB
:104A7C00012F83EA02235A001E0448BF4A40530008
:104A8C00120448BF4B405A001B0448BF4A40530015
:104A9C00170448BF4B405A001E0448BF4A405300FD
:104AAC00120448BF4B405A001F0448BF4A4016042A
:104ABC004FEA42030DF1A10248BF4B409042D6D1C0
:104ACC005049ADF87430504BC91A013BCA5C03F81D
:104ADC00012F4E4A9342F9D1A301A2F1FF01474A9B
:104AEC00CA5001EB84141D9A62601E9AA2601F9A30
:104AFC00E260209A2261219A6261229AA261239A31
:104B0C00E261249A2262259A6262269AA262279A0C
:104B1C00E2620E4603F1320003F13002BDF8A04010
:104B2C00B45201443E334FF0FF3232504A608A6037
:104B3C00F252374B1A69002A04DA364A5A6002F1EB
:104B4C0088325A60324AD368D803FCD4F323D3603A
:104B5C00136923F47E7323F0020343F4067343F0CA
:104B6C0002031361136943F480331361284AD36839
:104B7C00D903FCD41369284C23F0FA03136113698D
:104B8C0023F4407323F0010343F4007343F0010357
:104B9C0013611D4B1E4AE41A191F03F1FC0663181E
:104BAC0051F8040F1860D368DB03FCD48E42F6D1A5
:104BBC0013690F4923F001031361136943F0004398
:104BCC0013619BF84D3801338BF84D38DBF8AC385A
:104BDC0003F6B833CBF8B038DBF8AC288B6953400C
:104BEC008B61FFF7FFBB00BF9C020010DC0A0010BA
:104BFC00000000200AD7233D0AD7A33C7238383274
:104C0C000200280001C00008E4080020E30900208D
:104C1C00003C02402301674504C000089BF824783F
:104C2C00B7FA87F67609002A00F099809BF825C818
:104C3C00BCF1000F40F093804FF0010C61458BF8F4
:104C4C0024088BF825C87FF426AAFCEEE77AD9F85D
:104C5C00046017EE902A022A38BF0222311F8A42C2
:104C6C0028BF0A46D9F808108A428ABF76188A1AD1
:104C7C00B21AC9E936210221C9F8082089F8D010E6
:104C8C00BB4ED9F8082002274FF0030C8BF884C8D0
:104C9C00B7614FF40007B761DBF88868964200F201
:104CAC001B819BF88C68CBF88828002E00F04B8574
:104CBC006746FFF71ABA0192FFF7B2B9BAF1FE0FC5
:104CCC0000F09980AB4BAC4AAC49AD4EAD4FDFF820
:104CDC00D082DFEDAD7AF3EE046A4FF0FE0AFFF7F7
:104CEC0065BBFF23FFF75EBAFF23FFF736BAFF233E
:104CFC00FFF71DBA064699F8D070D9F80820012F95
:104D0C0040F03185DEED0B7ADFEDA06AF4EEE67A49
:104D1C00F1EE10FA40F1408201278BF898780229C5
:104D2C0000F0478208F48051314340F042820F4634
:104D3C008F4902268E6180268E614FF080768E61BF
:104D4C009BF88C68CBF88828002E00F0CB80013EB5
:104D5C00F6B20121FFF7CBB90121FFF757B98BF858
:104D6C002528012291428BF8242800F05E819BF8C3
:104D7C008478012F4FF0000C7FF492A9D9F8081019
:104D8C00DBF89C289142C0F0E684BCF1000F40F0A7
:104D9C00AB848F1AFCEEE77A17EE902ABA4240F2F7
:104DAC0097849BF88478002E00F07D840126CBF844
:104DBC009C18C9F8D4100A4689F8D0606C4947E1B0
:104DCC00DFED737AF4EEE75AF1EE10FA71DDF4EEE2
:104DDC00C65AF1EE10FA6CD50B4640F6FF729342B0
:104DEC00A8BF134607EE903A9FED6A6AF8EEE77A91
:104DFC0067EE867A9BE5CDF808C0FFF7ECBA664AF9
:104E0C00936983EA433383EA534383EA431313F0EE
:104E1C00010108BF4FF4803113F0020F936118BFEA
:104E2C000227534A08BF4FF4003713F0040F14BF86
:104E3C0080264FF4000613F0080F916114BF4FF455
:104E4C0080714FF0807113F0100F14BF4FF400639A
:104E5C004FF000639761966191619361FFF7B3B96D
:104E6C00DFED4E5AB4EEE56AF1EE10FA7FF77EAD47
:104E7C004FF48073F0EE477A8EED027AABF870380F
:104E8C0089E5002A7FF4AEAAA9E50129ABF824082C
:104E9C0000F0CE809BF88478012F00F0F483022F71
:104EAC0000F0AA84002F3FF425AFD9F80820FFF7B3
:104EBC0002B9F8EEE67A67EEA57AFDEEE77A17EE20
:104ECC00903A5B183FF531AD87E7F0EE477A8EEDFF
:104EDC00007A8EED027A60E56746CBF888280126C9
:104EEC00FFF705B90121FFF709B91C4661E4032F4F
:104EFC007FF404A900F027BCB1EB860F4FEA8602C1
:104F0C0017D09E18B77A0DEB020686F87070561CF7
:104F1C00B6B2B1420DD99F19023292B26E44BF7A29
:104F2C0086F87070914204D913446A449B7A82F8D3
:104F3C007030104B104A1149114E124FDFF860803F
:104F4C00DFED117AA246F3EE046AFFF72FBA99F857
:104F5C00D020012A26D1BCF1000F2DD1D9F8082080
:104F6C00002E40F03D8402494FF40036E2E600BFCB
:104F7C00000002400000204300000C430000F042FF
:104F8C000000C8420000A042000020426F12033C07
:104F9C00CDCC4CBD01088039000000200AD7A3BC41
:104FAC0000007042D9F80820C9F8D420012289F8F1
:104FBC00D020BCF1000FD1D0D9F80460DBF89C28CC
:104FCC00DBF8A018B24224BFB2FBF6F706FB17229F
:104FDC00B14224BFB1FBF6F706FB17118A4200F071
:104FEC003084D04EC9F80820C9E936214FF4003C72
:104FFC000221032789F8D0108BF88478C6F818C0E2
:10500C004FF0800CC6F818C04FF0807CC6F818C062
:10501C00DBF88868B242FFF460AF9BF88C68CBF881
:10502C008828002E7FF461A88DE3002F00F0CE803D
:10503C009BF8842899F8D010032A00F0CF8001291E
:10504C0040F0C480D9F80820B64900278BF8847842
:10505C004FF400368E6180268E614FF480768E611F
:10506C006EE60646E8E59BF8B638019A93427FF463
:10507C00B3A89BF8B7289BF8B838FFF7B2B8DBF8A1
:10508C00AC38CBF8BC38002A7FF4ACA9002B3FF429
:10509C00A9A9A4E49FEDA45ADFEDA44AF8EEE67AA0
:1050AC0067EE857A9FEDA25A67EEA57A67EEA47A31
:1050BC00F4EEC57AF1EE10FA23D8DEED077AF5EEB0
:1050CC00C07AF1EE10FA3FF7DAABF5EE007AFFF7A3
:1050DC00E9BB9FED986AF4EEC67AF1EE10FA7FF513
:1050EC00A9ABF0EE627AFFF7A5BBF8EEE67ADFED3E
:1050FC008E4A9FED8E5A67EEA47A67EEA57A67EE1C
:10510C00857ADFED8D5AF4EEE57AF1EE10FAB8BF40
:10511C00F0EE675AFDEEE57A17EE903AF8EEE77A84
:10512C0075EEE75AF5EEC05AF1EE10FA40F19082A6
:10513C00B7EE005A75EE855ADFED827ADFED824AC2
:10514C00DFED833A9FED814A65EEA77A7E3377EEE9
:10515C00A47ADFED804A67EEA57ADB0577EEA37AB9
:10516C0067EEA57A77EE847A67EEA57A77EEA47A65
:10517C0067EEA57A05EE903A77EE857A67EEA57A1A
:10518C0026EE276ADEED077AF5EEC07AF1EE10FA1C
:10519C003FF775ABFFF775BB9BF89878002F3FF482
:1051AC00BEADDFED646AF4EEE67AF1EE10FA7FF74D
:1051BC00B6AD01270021CBF89C28C9F8D42089F87A
:1051CC00D0708BF884788BF89818B1E5D9F8082052
:1051DC00C9F8D420012189F8D01035E701297FF4D2
:1051EC004FAD2FE7F1EE667AFFF716B9F4EEC87AF9
:1051FC00F1EE10FA3EF5A1AECDE9005A4FF0000CDD
:10520C0067EE803AB0EE623A664606EE906ADFEDE3
:10521C004C5AF8EEE64AB0EE655A74EE864A002116
:10522C0018E003F1010A524558D915ED019A39EEEF
:10523C00669A29EE299A79EE266A6AEE266A2AEE91
:10524C000A9A0231B1F5407F35EE265A75EE895A2D
:10525C0000F0828006EE901AF8EEE69A34EEA99AE7
:10526C00FCEEC96A16EE903A934224BFB3FBF2F5FA
:10527C0002FB15339C422CBFE31AFB1AF8EE666A4C
:10528C0000EB8305012B79EE666A95ED00AA35D902
:10529C0003F1010A524531D915ED019A39EE4A9ABA
:1052AC0069EE266A36EE8AAA34EE299AFCEEC96AB1
:1052BC0016EE903A934224BFB3FBF2F502FB153382
:1052CC009C42F8EE666A2CBFE31AFB1A00EB8305CE
:1052DC00012B79EE669AD5ED006AA2D8013B1DD45C
:1052EC009A4298BF9B1A00EB830393ED009A39EE18
:1052FC00669A29EE299A79EE266A9EE7013B0FD42D
:10530C009A4298BF9B1A00EB830393ED009A39EEF7
:10531C004A9A69EE266A36EE8AAAC5E71344E2E792
:10532C001344F0E700000240010AA03A5555553FDE
:10533C000000FCC20AD7A33C0000FE42088FA1EF7C
:10534C000000000020C2AE3A3C951D3CF0FD753EBD
:10535C004458633D1872313FF4EEE35AF1EE10FA03
:10536C0015D4B5EEC05AF1EE10FA00F1CA80F0EE89
:10537C00456A65EE266A75EE825A86EEA55AB4EE3B
:10538C00C35AF1EE10FA02DDB0EE453AB4460436DB
:10539C00B6F5966F7FF439AFF5EE006A67EEA66A44
:1053AC00DDE9005AF4EEC36AF1EE10FA00F33F8126
:1053BC0000F2F9821CABACF1030100930CF1040375
:1053CC000193CDE9035A009B0591F0EE606A0E46FD
:1053DC0004E0019901368E4200F0BC80B6F5966F60
:1053EC00E3EC010AF5D205EE906A5FED2B9ACDF84D
:1053FC0000C0B8EEE5AAB0EE699A3AEE06AA00250E
:10540C003DE001F1010A524557D95CED014A74EEB9
:10541C00EA4A24EE855A75EE2AAA74EE255ABCEE99
:10542C00E55A15EE101A914224BFB1FBF2FC02FBB7
:10543C001C118C42B8EE455A2CBF611A791A00EB3C
:10544C00810C012975EEC55A9CED005A45D901F124
:10545C00010A524541D95CED014A74EEC54A64EE2D
:10546C00A55A35EE855A6AEE855A02352AEEAA5AA5
:10547C00B5F5407F39EE259A79EE859A44D005EE44
:10548C00905AF8EEE55A7AEE254ABCEEE45A15EE3F
:10549C00101A914224BFB1FBF2FC02FB1C118C428E
:1054AC002CBF611A791AB8EE455A00EB810C012910
:1054BC0034EEC55ADCED00AAA3D801391DD48A42BA
:1054CC0098BF891A00EB8101D1ED004A74EEEA4ACB
:1054DC0024EE855A75EE2AAA9FE701390FD48A4229
:1054EC0098BF891A00EB8101D1ED004A74EEC54AD0
:1054FC0064EEA55A35EE855AB5E71144E2E711443E
:10550C00F0E7F1EE456A34E7F4EEE93AF1EE10FA21
:10551C00DDF800C03FF75DAFB5EEC09AF1EE10FAC2
:10552C0000F18C81F0EE495A29EE259A79EE829A97
:10553C00C9EE295AF4EEE65AF1EE10FA43ED015A8F
:10554C007FF747AF0199B44601368E42F0EE656A9B
:10555C007FF444AF0599ACEB010106EE90CA4B1EEB
:10556C00042BDDE9035AF8EEE66A15D82CAA02EBF7
:10557C00830353ED105A1FED8F6AF4EEC65AF1EE09
:10558C0010FA09DD02EB810313ED0F5AB4EEC65A83
:10559C00F1EE10FA00F3DA81D9F88832002BBEF65E
:1055AC00CCACC3EE275A1FED9A6AB4EEE66AF1EE64
:1055BC0010FAC8BFF0EE466AF7EE007AF4EEE75A3E
:1055CC00F1EE10FAD8BFF0EE657AF5EEC07AF1EE96
:1055DC0010FA3AD9F1EEE77AC9ED5A7AC9ED5B6A5D
:1055EC00C9F88882FEF7A9BC9EED026AF4EEC67A71
:1055FC00F1EE10FA05DBB4EEE77AF1EE10FABFF635
:10560C0037ACF4EEC67AF1EE10FA3FF6BFA9B4EE61
:10561C00E77AF1EE10FA3FF6B9A94FF48073F0EE89
:10562C00477A8EED027AABF87038FFF7B4B9F0EE2A
:10563C00626AD9F88832002BBEF67FACC3EE275ACB
:10564C00F5EEC05AF1EE10FAB6D55FEDC37AC3E7AA
:10565C005FEDC47A5FEDC44A1FEDC35A1FEDC54A16
:10566C0065EEA77A7F3377EEA47ADB0567EEA57A31
:10567C005FEDC84A77EE857AB7EE005A67EEA57AE9
:10568C0077EE847A70E5D9F80810DBF89C68FCEEAC
:10569C00E77A8E4217EE902A17D901F5001CACEB75
:1056AC00060C944514D20A4699F8D010C04E4FF40B
:1056BC00003CC6F818C04FF0800CC6F818C04FF468
:1056CC00807CC6F818C0FEF701BD8E1BB242EAD82A
:1056DC005E0640F1C3800227CBF8A0180A468BF86F
:1056EC00847899F8D010E1E7D9F80460B24203D37A
:1056FC00B2FBF6F706FB1722914200F0A980AC4EE4
:10570C00C9F80820C9E936214FF4003C02210327CF
:10571C0089F8D0108BF88478C6F818C04FF0800C3C
:10572C00C6F818C04FF4807CC6F818C0DBF888683F
:10573C00B242FFF4D2AB9BF88C68CBF88828002ED1
:10574C007EF4D3AC02219A4A4FF4807696610327FB
:10575C000026FEF7D3BCBCF1000F0BD101F50017EE
:10576C00BF1AFFF717BB0127C9F8D42089F8D070EE
:10577C00FFF7C8BAD9F80460B242B9D2BFE7F6EE67
:10578C00006AF4EEE67AF1EE10FA54DB77EEE66A94
:10579C00F4EEE67AF1EE10FAF4EEE76A94BF012328
:1057AC000023F1EE10FAB8BFF0EE667AF4EEE17A6F
:1057BC0083F00108F1EE10FAC9F88C823EF7BDAB0C
:1057CC00F2EE006A26EE666AB4EEE76AF1EE10FAC3
:1057DC003EF7B3ABD9ED547A35EEA76AFEF763BE4C
:1057EC0001277349CBF89C28C9F8D42089F8D070CC
:1057FC008BF88478FFF7B8BB99F8D020012AD9F838
:10580C0008203FF4B0AB0121C9F8D42089F8D0109E
:10581C00FFF7A9BB6649CBF89C2801270226C9F8DB
:10582C00D42089F8D0708BF884788E614FF4000600
:10583C008E61FFF785BA77EEA66AA9E7F1EE495AB1
:10584C0072E60327D9F808208BF88478FFF78BBB16
:10585C00032799F8D0108BF8847827E7D9F80470CF
:10586C00022A38BF02223E1FB24228BF32468A4269
:10587C008ABF7F188A1ABA1A41E76FF450679FEDF6
:10588C004D5ADFED4D5ADFED4D4ADA1907EE902AED
:10589C00B8EEE76A9FED4A4AC6EE247ADFED494A34
:1058AC009FED496A67EE857A77EEA57A77EEC47A32
:1058BC0067EEA47A67EE867AFCEEE77A17EE901A1A
:1058CC000C46FEF776BF9FED415ADFED3D5ADFEDFA
:1058DC00404A1A46DAE79A7B8DF874200526042292
:1058EC00FFF719BB09331CAACE1813F8017F02F875
:1058FC00017B9E42F9D128297FF41BABFEF72EBD0C
:10590C009FED345ADFED345ADFED344AA3F64B22C7
:10591C00BCE76FF4B06C9FED325ADFED325ADFED1D
:10592C00324A03EB0C02B1E79FED2D5ADFED2F5AF3
:10593C00DFED2F4AA3F23622A8E79FED1E5ADFEDCA
:10594C002D4AF7EE005AA3F606029FE702EB8101FF
:10595C0011ED106ADFED284A36EE066A35EEC66A9E
:10596C0036EE056AB4EEE46AF1EE10FA7FF514AE89
:10597C0075EEC55AB6EE005A65EE855AFFEE004A32
:10598C0085EE865AB4EEE45AF1EE10FA7FF704AEC7
:10599C00B7EE006AB4EEC65AF1EE10FA7FF5FCAD24
:1059AC0076EE856AF8E506EE90CAF8EEE66A40E611
:1059BC0000000240D0CC4C3E3333B33F00403F4458
:1059CC00CDCCCC3E5555553F00F07F45CECC4C3E12
:1059DC0000800D44C8CC4C3E9A99993F00802D44D0
:1059EC00CCCC4C3ECDCC4C3F004021449A99193F35
:1059FC0000C0524400401144CCBC8CABDFF834D016
:105A0C00FDF76CFB0C480D490D4A002302E0D458FD
:105A1C00C4500433C4188C42F9D30A4A0A4C0023EC
:105A2C0001E013600432A242FBD3FDF755FBFDF7F6
:105A3C0063FB7047000003200000002020000020C2
:105A4C00B47C000820000020EC090020FEE70000D8
:105A5C000000000000000000010203040607080912
:105A6C00000C02400E000000000C02400F00000071
:105A7C00000C024000000000000C0240010000007D
:105A8C000010024007000000001002400800000057
:105A9C000010024009000000001002400A00000043
:105AAC00001002400B000000001002400C0000002F
:105ABC00001002400D000000001002400E0000001B
:105ACC00001002400F000000000C02400800000013
