:020000040800F2
:1000000000000320995A0008E95A0008E95A00083C
:10001000E95A0008E95A0008E95A000800000000FF
:10002000000000000000000000000000E95A000885
:10003000E95A000800000000E95A0008E95A0008DF
:10004000E95A0008E95A0008E95A0008E95A000884
:10005000E95A0008E95A0008E95A0008E95A000874
:10006000E95A0008E95A0008E95A0008E95A000864
:10007000E95A0008E95A0008E95A0008E95A000854
:10008000E95A0008E95A0008E95A0008E95A000844
:10009000E95A0008E95A0008E95A0008E95A000834
:1000A000E95A0008E95A0008E95A0008E95A000824
:1000B000E95A0008E95A0008E95A0008E95A000814
:1000C000E95A0008E95A0008E95A0008E95A000804
:1000D000E95A0008E95A0008E95A0008E95A0008F4
:1000E000E95A0008E95A0008E95A0008E95A0008E4
:1000F000E95A0008E95A0008E95A0008E95A0008D4
:10010000E95A0008E95A0008E95A0008E95A0008C3
:10011000E95A0008E95A0008E95A0008E95A0008B3
:10012000E95A0008ED1A0008E95A0008E95A0008DF
:10013000E95A0008E95A0008E95A0008E95A000893
:10014000E95A0008E95A0008E95A0008E95A000883
:10015000E95A0008E95A0008E95A0008E95A000873
:10016000E95A0008E95A0008E95A0008E95A000863
:10017000E95A0008E95A0008E95A0008000000009E
:10018000E95A0008E95A0008E95A0008E95A000843
:10019000E95A0008E95A0008E95A0008E95A000833
:0C01A000E95A0008E95A0008E95A000872
:1001AC0000EB820C012A00B5DCED006A0ED902F1DD
:1001BC00010E8E450AD21CED017A002B64D137EE6C
:1001CC00667A27EE007A37EE260A00BDB2F1010CF2
:1001DC0049D4614598BFACEB010C00EB8C0C9CED49
:1001EC00007A002BEBD0531C994298BF5B1A00EBA2
:1001FC008303012A93ED005AA2F1020342D09942E3
:10020C0098BF5B1A00EB8300D0ED005AB0EE046A85
:10021C0075EEC57A36EEC74A26EE866AF6EE004AC9
:10022C00F7EE083A24EE234A67EEA47A77EE073A03
:10023C0035EE466A77EE847A36EE236A65EEA45A7A
:10024C0067EE807A36EE656A37EE457A77EE867A17
:10025C0027EE247A67EE807A77EE877A67EE807ADB
:10026C0037EEA60A00BD8C4400EB8C0C9CED007A9A
:10027C00002BA4D0931E013237D50A4400EB820226
:10028C0092ED005A0B44BDE7DCED014A5CED025ADD
:10029C00B0EE046A75EEE47A36EEC74A26EE866A4C
:1002AC00B6EE005AF7EE083A24EE234A67EE857A4A
:1002BC0077EE073A34EEC66A77EE847A36EE236A26
:1002CC0065EE855A67EE807A36EE656A37EE647AAB
:1002DC0077EE867A27EE057A67EE807A77EE877A64
:1002EC0067EE807A37EEA60A00BD914298BF521A8B
:1002FC0000EB820292ED005A0B4483E72DE9F04F9C
:10030C002DED028BF5EEC00AF1EE10FA8BB005461E
:10031C0000F1AF84F7EE007AF4EEE70AF1EE10FA92
:10032C00C8BFF0EE670AE14CD4ED326AD4ED337AF3
:10033C0094ED307AD4ED315A94ED2C6A77EEE67A5E
:10034C0067EEA07A77EEA67A77EEC77A67EEA57A93
:10035C0077EE877AB4EE676AF1EE10FAC4ED307A74
:10036C0040F03183D4F8B430002B40F02C83206F54
:10037C00216B676F666B94ED2F7A421A67EB06035D
:10038C0052EA030C27D007EE902A9FEDC96AF8EECB
:10039C00676A07EE903A66EE866AF8EEE77A77EED1
:1003AC00A67A67EE877AFDEEE76AB8EEE66A16EE95
:1003BC0090CA77EEC67AB0EE676ABEEEE06A16EEC9
:1003CC00103ADA17DB184CEB420253EA020C40F0FD
:1003DC002284C4E90C07A06FA16BE76FE66B421A8D
:1003EC0067EB060352EA030C27D007EE902A9FED29
:1003FC00B06AF8EE676A07EE903A66EE866AF8EE37
:10040C00E77A77EEA67A67EE877AFDEEE76AB8EEC2
:10041C00E66A16EE90CA77EEC67AB0EE676ABEEE62
:10042C00E06A16EE103ADA17DB184CEB420253EA8C
:10043C00020C40F0EA83C4E90E07D4F88000216C6A
:10044C00D4F88470666C421A67EB060352EA030C0C
:10045C0027D007EE902A9FED966AF8EE676A07EEB2
:10046C00903A66EE866AF8EEE77A77EEA67A67EE51
:10047C00877AFDEEE76AB8EEE66A16EE90CA77EE7A
:10048C00C67AB0EE676ABEEEE06A16EE103ADA177C
:10049C00DB184CEB420253EA020C40F0B083C4E987
:1004AC001007D4F88800A16CD4F88C70E66C421A52
:1004BC0067EB060352EA030C27D007EE902A9FED58
:1004CC007C6AF8EE676A07EE903A66EE866AF8EE9A
:1004DC00E77A77EEA67A67EE877AFDEEE76AB8EEF2
:1004EC00E66A16EE90CA77EEC67AB0EE676ABEEE92
:1004FC00E06A16EE103ADA17DB184CEB420253EABC
:10050C00020C40F07683C4E91207D4F89000216DF8
:10051C00D4F89470666D421A67EB060352EA030C2A
:10052C0027D007EE902A9FED626AF8EE676A07EE15
:10053C00903A66EE866AF8EEE77A77EEA67A67EE80
:10054C00877AFDEEE76AB8EEE66A16EE90CA77EEA9
:10055C00C67AB0EE676ABEEEE06A16EE103ADA17AB
:10056C00DB184CEB420253EA020C40F03C83C4E92A
:10057C001407D4F89800A16DD4F89C70E66D421A5B
:10058C0067EB060352EA030C27D007EE902A9FED87
:10059C00486AF8EE676A07EE903A66EE866AF8EEFD
:1005AC00E77A77EEA67A67EE877AFDEEE76AB8EE21
:1005BC00E66A16EE90CA77EEC67AB0EE676ABEEEC1
:1005CC00E06A16EE103ADA17DB184CEB420253EAEB
:1005DC00020C40F00283C4E91607D4F8A000216E87
:1005EC00D4F8A470666E421A67EB060352EA030C49
:1005FC0027D007EE902A9FED2E6AF8EE676A07EE79
:10060C00903A66EE866AF8EEE77A77EEA67A67EEAF
:10061C00877AFDEEE76AB8EEE66A16EE90CA77EED8
:10062C00C67AB0EE676ABEEEE06A16EE103ADA17DA
:10063C00DB184CEB420253EA020C40F0C882C4E9CE
:10064C001807D4F8A800A16ED4F8AC70E66E421A64
:10065C0067EB060352EA030C30D007EE902A9FEDAD
:10066C00146AF8EE676A07EE903A66EE866AF8EE60
:10067C00E77A77EEA67A67EE877ABDEEE77AF8EE40
:10068C00C76A17EE10CA77EEE67AF0EE676AFEEEEE
:10069C00E06A16EE903ADA17DB184CEB420253EA9A
:1006AC00020C40F08E82C4E91A0707E0000000102B
:1006BC000000802F0000000000002043D4E9011747
:1006CC0094F8D0C0BCF1010FD4E9360207F1010651
:1006DC0040F0A882D4ED4A7AD4ED4D6AB7EE007A98
:1006EC00F4EEC77AF1EE10FA20EE260A09DA94ED50
:1006FC004B7A30EE470A20EE270A30EE070A84EDDB
:10070C004B0AD4F83C31002B00F3028323688E4251
:10071C0003EB870383ED000A00D300263346A36066
:10072C00D4F84031002B40F08B82BCF1010F94F8CF
:10073C003081276806EB010940F09F82626B9A4278
:10074C00B8BF1A46236BB8BF0023002A00F02283DF
:10075C0007EE903AB8EE670A5FED2B7A8A4220EEEC
:10076C00270A24BFB2FBF1F301FB1322B24288BF6C
:10077C00A9EB020240F2968443463846FFF710FD7F
:10078C00E26BA36B8DED020A002ABCBF0022002392
:10079C00002A40F0A48301291FED3A0A40F27F841D
:1007AC000122B24288BFA9EB020240F27884434690
:1007BC003846FFF7F5FC626C236C8DED030A002ABA
:1007CC00BCBF00220023002A40F07A8301291FEDD0
:1007DC00470A40F26F840122964238BFA9EB02020D
:1007EC0080F0688443463846FFF7DAFCE26CA36C71
:1007FC008DED040A002ABCBF00220023002A40F021
:10080C00508301291FED550A40F251840122964272
:10081C0038BFA9EB020280F04A8443463846FFF702
:10082C00BFFC626D236D8DED050A002ABCBF002252
:10083C000023002A40F0268301291FED620A40F2B2
:10084C003F840122964238BFA9EB020280F0388423
:10085C0043463846FFF7A4FCE26DA36D8DED060A06
:10086C00002ABCBF00220023002A40F0FC82012990
:10087C001FED700A40F221840122964238BFA9EB89
:10088C00020280F01A8443463846FFF789FC626EF8
:10089C00236E8DED070A002ABCBF00220023002A1C
:1008AC0040F0D28201291FED7D0A40F2FE83012225
:1008BC00964238BFA9EB020280F0F78343463846D4
:1008CC00FFF76EFCE26EA36E8DED080A002ABCBF2A
:1008DC0000220023002A40F0118301291FED8B0A0E
:1008EC0040F2DB830122964280F0D783A9EB02020F
:1008FC0043463846FFF754FC8DED090AD4ED397A9E
:10090C00DDED026A94ED417A9DED036ADDED054A59
:10091C009DED065ADDED075A67EEA67ADDED046A09
:10092C0067EE877AC5ED007AD4ED3A7A94ED427A87
:10093C0067EE867A9DED086A67EE877AC5ED017AD7
:10094C00D4ED3B7A94ED437A67EEA67A67EE877A1C
:10095C00C5ED027A94ED3C7AD4ED446ADDED097A6A
:10096C0027EE247A27EE267A85ED037A94ED3D7AEC
:10097C00D4ED456A27EE057A27EE267A85ED047AC2
:10098C0094ED3E7AD4ED466A27EE257A27EE267A48
:10099C0085ED057A94ED3F7AD4ED476A27EE067A19
:1009AC0027EE267A85ED067AD4ED406A94ED487AE6
:1009BC0067EEA67A67EE877AC5ED077A0BB0BDECC9
:1009CC00028BBDE8F08F1FEDC43AD4ED046A94EDB0
:1009DC00056AD4ED0B2AC4ED2C7A86EE837AC6EE2A
:1009EC00034AD4ED066A94ED076AC6EE833A86EEA6
:1009FC00035AD4ED086A94ED096A86EE834AD4ED65
:100A0C000A6AC6EE035A86EE836AC2EE836A94EDD6
:100A1C002E3A27EE037A64EE834A27EE277A64EEA9
:100A2C00A74A25EE035AFDEEC72ABDEEE42A25EEB1
:100A3C00275A66EE836AFDEEC50A63EE833A24EE0E
:100A4C00034A65EE835AF8EEE21A26EE036AB8EE14
:100A5C00C23A37EE617A74EEC34AB8EEE03A63EE0E
:100A6C00A73A35EE435AB0EE473ABDEEE31A24EE00
:100A7C00274ABEEEE03A65EEA75A26EE276AFDEE4F
:100A8C00C41A66EEA77A13EE103AF8EEC16AB0EE0D
:100A9C00643ABEEEE03A12EE902AD81873EEE63ABB
:100AAC00B8EEE17A4FEAE37342EB430313EE101A0C
:100ABC000022801834EE474AB0EE637ABEEEE07A3C
:100ACC0063672067CB1712EE100A49185B41184474
:100ADC0017EE103A8918B0EE457ABEEEE07AA167AF
:100AEC00D917DB18BDEEE58A4941E0679B1811EE7A
:100AFC00100AC4F8803017EE103A0144F8EEC84AD8
:100B0C00B0EE447ABEEEE07AC4F88410D917DB1844
:100B1C00FDEEC66A75EEE45A10EE900A49419B1838
:100B2C00C4F8883017EE103A0144F8EEE64AB0EEFD
:100B3C00657ABEEEE07AC4F88C10D917DB18BDEEDE
:100B4C00E73A36EE646A11EE900A49419B18C4F8F4
:100B5C00903017EE103A0144F8EEC34AB0EE467AE4
:100B6C00BEEEE07AC4F89410D917DB1818EE100A10
:100B7C00494177EEE47A9B18C4F8983017EE103A96
:100B8C000144B0EE677ABEEEE07AC4F89C10D91737
:100B9C00DB1816EE900A49419B18C4F8A03017EEEA
:100BAC00103A014413EE100AC4F8A410D917DB183C
:100BBC0040EB41019B18C4E92A31C4F8B420FFF77B
:100BCC00D6BBC91846EB0202C4E91A1276E5C9185D
:100BDC0046EB0202C4E9181233E5C91846EB0202CF
:100BEC00C4E91612F9E4C91846EB0202C4E914125E
:100BFC00BFE4C91846EB0202C4E9121285E4C91815
:100C0C0046EB0202C4E910124BE4C91846EB02028F
:100C1C00C4E90E1211E4C91846EB0202C4E90C1225
:100C2C00FFF7D9BB8E4228BF0026B2427FF476ADC7
:100C3C000346A360D4F840310646002B3FF475AD53
:100C4C009FEDC37AF0EE477A85ED007A85ED017A57
:100C5C0085ED027A85ED037A85ED047A85ED057ACA
:100C6C0085ED067AC5ED077A0BB0BDEC028BBDE8BD
:100C7C00F08FDFEDB70AFFF756BB53181B1AA2EB28
:100C8C00000B904288BF9B46BBF1000F00F06481C3
:100C9C00B0429FEDB03A00F28480A6EB000A0195B9
:100CAC00DFF8A89202AE054618E0D3459FEDA80ADE
:100CBC0040F23D81BBF1010F524640F04081121AC7
:100CCC002A448A4200D3521A43463846FFF768FA40
:100CDC009C4BA6EC010A4B4500F0B48059F8082F48
:100CEC00D9F80430002BAEBF184600200022034672
:100CFC000028DAD007EE902AB8EE670AD34520EE2A
:100D0C00030A00F29580BAFBFBF20BFB12A290E0F7
:100D1C0003F1FF3ED4F844319FED8B6A83EA4333F1
:100D2C0083EA534383EA431383EA433888EA5848F7
:100D3C0088EA48181B0AC4F844814FEA182807EEC1
:100D4C00903A07EE108AF8EEE77AB8EEC77A0123EC
:100D5C0003FA0EF377EE877A07EE103A67EE867A8F
:100D6C00B8EEC77AF7EE006A77EEE67A20EE070A5D
:100D7C00F6EE006A77EE807AF5EEC07AF1EE10FAB4
:100D8C0053DB77EEA67AFDEEE77AF8EEE77A87EE9C
:100D9C00870ABBE401299FED6E0A40F2838162460B
:100DAC00E4E4A9EB00060195DFF8A0A10DF1080918
:100DBC0005461AE0B3459FED660A40F2AF80BBF1E1
:100DCC00010F304603D00123984238BF5844C31A50
:100DDC00EA188A4228BF521A43463846FFF7E0F910
:100DEC00584BA9EC010A53452CD05AF8080FDAF8E5
:100DFC000420002AAEBF1346002300201A46002B05
:100E0C00D8D007EE900AB345B8EE670A96BFB6FB8A
:100E1C00FBF030460BFB10609B4520EE030A9CBF99
:100E2C00B3FBFBF30BFB1323CEE777EEE67AAAE7D3
:100E3C0052469B4540F2F38190427FF640AF5A44B4
:100E4C00121A3DE7019D59E507EE903AB8EE670A94
:100E5C00DFED407A914220EE270A9CBFB2FBF1F302
:100E6C0001FB132224E507EE903AB8EE670ADFED9A
:100E7C00397A914220EE270A9CBFB2FBF1F301FBB9
:100E8C001322FAE407EE903AB8EE670ADFED317AF6
:100E9C00914220EE270A9CBFB2FBF1F301FB132217
:100EAC00D0E407EE903AB8EE670ADFED2A7A914269
:100EBC0020EE270A9CBFB2FBF1F301FB1322A6E440
:100ECC0007EE903AB8EE670ADFED227A914220EEF7
:100EDC00270A9CBFB2FBF1F301FB13227CE407EE63
:100EEC00903AB8EE670ADFED1B7A8A4220EE270AA9
:100EFC0024BFB2FBF1F301FB132252E407EE903A4C
:100F0C00B8EE670ADFED137A8A4220EE270AFFF467
:100F1C00EAACB2FBF1F301FB1322E4E4BBF1010FE9
:100F2C0000F0D180B6FBFBF00BFB10604BE7BBF184
:100F3C00010F00F0CA80BAFBFBF20BFB12A20120DE
:100F4C007AE700BF68000010000080332800001012
:100F5C00000000000000802F626B236B5A45BCBF61
:100F6C005A465B46002A40F0B28001291FED080A60
:100F7C0000F2C180B21A43463846FFF711F9E26B12
:100F8C00A36B8DED020A002ABCBF00220023002AAD
:100F9C0040F0258101291FED120A00F23481B21AAA
:100FAC0043463846FFF7FCF8626C236C8DED030A60
:100FBC00002ABCBF00220023002A40F0FC8001293B
:100FCC001FED1D0A00F22381B21A43463846FFF783
:100FDC00E7F8E26CA36C8DED040A002ABCBF00227A
:100FEC000023002A40F0D38001291FED270A00F2CC
:100FFC000C81B21A43463846FFF7D2F8626D236D66
:10100C008DED050A002ABCBF00220023002A40F007
:10101C00AA8001291FED320A00F2FF80B21A434662
:10102C003846FFF7BDF8E26DA36D8DED060A002A78
:10103C00BCBF00220023002A40F0818001291FED53
:10104C003C0A00F2E880B21A43463846FFF7A8F88B
:10105C00626E236E8DED070A002ABCBF00220023AE
:10106C00002A59D101291FED460A00F2D280B21A8A
:10107C0043463846FFF794F8E26EA36E8DED080AEE
:10108C00002ABCBF00220023BABB01291FED500A65
:10109C0003D90122B2423FF629ACB21A28E4B21AA3
:1010AC00FFF785BBB21AFFF767BBB21A06E4B21A98
:1010BC00FFF7B3BBB21AFFF795BBB21AFFF7E3BB4E
:1010CC00B21AFFF7C5BB184681E60246F7E507EEF4
:1010DC00903AB8EE670A5FED617A914220EE270AEA
:1010EC009CBFB2FBF1F301FB13229642BFF442AF5B
:1010FC00A9EB02023FE70122F7E707EE903AB8EEC0
:10110C00670A5FED6C7A8A4220EE270A24BFB2FB95
:10111C00F1F301FB1322BDE707EE903AB8EE670A34
:10112C005FED747A914220EE270A9CBFB2FBF1F37B
:10113C0001FB132296429AD2A9EB020298E707EE22
:10114C00903AB8EE670A5FED7D7A914220EE270A5D
:10115C009CBFB2FBF1F301FB13229642BFF473AFB9
:10116C00A9EB020270E707EE903AB8EE670A5FED62
:10117C00877A914220EE270A9CBFB2FBF1F301FB68
:10118C0013229642BFF44AAFA9EB020247E707EEDF
:10119C00903AB8EE670A5FED917A914220EE270AF9
:1011AC009CBFB2FBF1F301FB13229642BFF421AFBB
:1011BC00A9EB02021EE707EE903AB8EE670A5FED64
:1011CC009B7A914220EE270A9CBFB2FBF1F301FB04
:1011DC0013229642BFF4F8AEA9EB0202F5E607EE35
:1011EC00903AB8EE670A5FEDA57A914220EE270A95
:1011FC009CBFB2FBF1F301FB13229642BFF4CFAEBE
:10120C00A9EB0202CCE60122F7E70122CDE701228D
:10121C00DFE701228EE701229FE70122B1E7B3FB52
:10122C00FBF00BFB103007E6BCEEC07ADFEDA66AD4
:10123C00F8EE477AF0B570EE677AA44C67EEA67AB2
:10124C00A268FDEEE76A064616EE903A4FEA831C5A
:10125C0017EE103A606807330D4606F14A019342C7
:10126C0004EB810188BF1218D31AD1F84821B8EECB
:10127C00E66A9A1A102A77EEC67A0CF1400716D94C
:10128C00934A2468C1F8483102F1800E0EEBC61166
:10129C0002EBC61204EB830E0133DEF800E042F8D9
:1012AC0004EB984298BF00238A42F3D1002205EB4D
:1012BC000C033D44D3ED005A93ED037A95ED002ACF
:1012CC00D3ED133A93ED016AD3ED026AD3ED112AF3
:1012DC0093ED123A93ED051A93ED065AD3ED090AE4
:1012EC00D3ED044A93ED144ADFED7A1A93ED080A14
:1012FC0032EE652A73EEC73A22EE272A72EEC62A20
:10130C0033EE663A63EEA73A32EE252A62EEA72A4E
:10131C00D3ED075A23EE273A73EE873A93ED177AFB
:10132C0072EE862A33EE263A93ED156AD3ED166AE1
:10133C0037EE657A36EE416A76EEC56A27EE277A85
:10134C0026EE276A66EEA76A37EE257AD3ED195A90
:10135C0002EB461236EE016A76EE856A93ED0A1AB6
:10136C0093ED1A5A75EEE05A02F10A015A4A65EEEB
:10137C00A75A35EE415A02EB810275EEA05A25EEC2
:10138C00275AD2ED000A35EE015A22EE202A92EDB0
:10139C00011AD2ED020A32EE212A34EE644A62EED0
:1013AC00812A24EE274A92ED031AD2ED041A72EE2A
:1013BC00822A23EE203A34EE244A33EE223A63EEAC
:1013CC00813AD3ED184A92ED052AD2ED062A73EE36
:1013DC00833A24EE214A74EEC04A34EE234A26EEB8
:1013EC00026A92ED073AD2ED083A36EE046A64EEE0
:1013FC00A74A66EEA26A92ED094A92ED0A2AD3ED4B
:10140C000B2A76EE866A74EE804A27EE037A93ED09
:10141C001B6A93ED0C3A93ED1E0A37EE267A64EEB6
:10142C00A34A36EE626AD3ED1C6AD3ED0D3A74EE24
:10143C00874A65EE845A26EE276A76EEC36A93EDE8
:10144C001D7A93ED0E4A75EEA45A25EE025A36EE2D
:10145C00226A66EEA76AD2ED0B2AD3ED0F4A37EE5D
:10146C00637A35EE255A26EE226A76EE836A27EEEB
:10147C00277A92ED0C3AD3ED1F5A30EE440A36EE31
:10148C00056A66EE836A92ED0D5A37EE237A20EEEA
:10149C00270A75EEE45A76EE866A30EE040A25EEDB
:1014AC00A76A27EE057A92ED0E5A37EE267A60EE91
:1014BC00057AD2ED0F6A36EE240A77EE877A20EEA3
:1014CC00260A30EE270AF0BD000000420000001092
:1014DC0070010010000000004801001030B5D04C25
:1014EC0094ED525AF7EE002A72EEC52A2DED048BBC
:1014FC00F5EEC02AF1EE10FA94ED538A83B000F1A8
:10150C00E080B0EE627ADFEDC77AD4ED544AB4EEE7
:10151C00E77AF1EE10FA00F1A58194ED553A9FEDC2
:10152C00C27ADFEDC26AF6EE007A23EE077AB4EEE9
:10153C00E73AF1EE10FA67EE266A80F2BF80F5EE1C
:10154C00C06AF1EE10FA73EE275A19DAFEEE007A41
:10155C0077EEA67A9FEDB66ADFEDB66AFDEEE77A16
:10156C00F8EEE77A67EE867A37EE677AB4EEE67ACB
:10157C00F1EE10FA40F34081DFEDAB7A37EEC77A2B
:10158C0027EE074ADFEDAC7A9FEDAC6ADFEDAC6A73
:10159C009FEDAC2AD4ED593A64EE277A77EEC67AF1
:1015AC00B7EE006A67EE847A77EEA67AD4ED586AC5
:1015BC0067EE847A76EEA36A77EEC27A67EE847A67
:1015CC00B6EE004A77EE867A66EE846A67EE877A24
:1015DC0036EE667A67EEA77AF5EEC07AF1EE10FA7F
:1015EC0076EE676A40F21881B1EEE76A36EE676A0A
:1015FC00F5EEC06A26EE076AF1EE10FA36EE276AAF
:10160C0040F20781F1EEE67A77EEE67AD4F884328E
:10161C0067EE877A77EEA67AF0EE678A002B53D0C6
:10162C0028EE030AD4ED567A616894ED577A30EEC1
:10163C00240A28EE252A30EE270A32EE242AFCEE64
:10164C00C07A32EE072A17EE902AF8EE677A8A42B1
:10165C0030EE670A03D3B2FBF1F301FB1322A3684C
:10166C0020688DED016A93421D4638BFCB189A1A3B
:10167C0001230090FEF794FDFCEEC27A9DED016A09
:10168C00009817EE902A8A4224BFB2FBF1F301FBBB
:10169C001322AA42F8EE677A88BF6B1866EE001A1E
:1016AC0088BF9A1A32EE670A98BFAA1A0123FEF76E
:1016BC0077FD28EE800A30EE210A64E073EE675A5B
:1016CC0046E7B1EE627A1EE7DFED5F7AB4EEE75AD9
:1016DC00F1EE10FAA4DDDFED5D7AB4EEE75AF1EE2F
:1016EC0010FA40F33881F0EE007AB4EEE75AF1EEDE
:1016FC0010FA40F33681DFED567AB4EEE75AF1EE8C
:10170C0010FA40F32A814FF4C650032368EE255A91
:10171C0028EE030A75EEA45AD4ED577AD4F87C223D
:10172C0094ED567AC4F8803230EE240A75EEA77A1E
:10173C009A4230EE070AB0EE679A00F006814549EE
:10174C00014400208DED016A0091FFF76DFD9DEDC8
:10175C00016A0099F0EE407A66EE277A0120B0EE2D
:10176C00490ACDED007AFFF75FFD94ED527ADDED7D
:10177C00007A94ED553A28EE800AF7EE002A30EE06
:10178C00270A72EEC72AC2EE887AB7EE007A77EE95
:10179C00837AF4EEC77AF1EE10FAC0F29F80D4F897
:1017AC008832002B40F0CF80D4F86C21D4F88832EA
:1017BC00C4F85821002B40F0C480D4F86821C4F838
:1017CC006021B7EE007AF4EEC77A4FF0FF33F1EEFA
:1017DC0010FAC4F888326CDB77EEC77AF4EEC77A6D
:1017EC00F1EE10FAF8DA0123C4F88C32C4ED557A14
:1017FC0003B0BDEC048B30BDDFED177AB4EEE77AA5
:10180C00F1EE10FA7FF5BCAEDFED147A37EEC77A45
:10181C00B6E6DFED137AF7E69FED116AE6E600BF58
:10182C000000001017B7D138DB0F494083F9223E76
:10183C00DB0FC940DB0FC93F91EE3836470C5039EE
:10184C008588083CABAA2A3E5C8F823F3333B33F7A
:10185C00B81E3540445C0008DB0FC9BFDB0F49C024
:10186C0000000000B6EE000A28EE000A616820684D
:10187C0030EE240A4FF0FF33FCEEC07AC4F8883205
:10188C0017EE902A8A4224BFB2FBF1F301FB13221C
:10189C00A368F8EE677A934238BF5B1830EE670A9C
:1018AC009A1A012303B0BDEC048BBDE83040FEF75F
:1018BC0077BCF5EEC07A0123F1EE10FAC4F88C3245
:1018CC0094D577EE877AF5EEC07AF1EE10FAF8D46B
:1018DC00C4ED557A03B0BDEC048B30BDF5EEC07A87
:1018EC00F1EE10FA3FF55BAFB6EE007AB4EEC73A04
:1018FC00F1EE10FAF4EEC77AACBF01220022F1EE41
:10190C0010FAACBF012300239A423FF46FAFD4F816
:10191C008832012B08BFD4F86C21D4F8883218BF58
:10192C000022012BC4F85C214FF0FF3308BFD4F820
:10193C006821C4F8883218BF0022C4F8642100233F
:10194C0052E700223BE7002230E7D4F87812002956
:10195C007FF4F7AEF3E61846D8E64FF48450022332
:10196C00D4E64FF404600123D0E600BFDFF8C0C01A
:10197C002E4BDCF8002042F48072CCF80020ACF541
:10198C00806C01E0013B44D0DCF81424D207F9D57B
:10199C00274A264B4FF0920CC2F810C0DFF894C0C7
:1019AC0001E0013B2DD0DCF814249207F9D5204A34
:1019BC001E4B9269DFF87CC001E0013B2CD0DCF8B7
:1019CC0014241206F9D51A4A184BDFF868C01061B6
:1019DC0001E0013B23D0DCF814241006F9D5144A9D
:1019EC00124B1448116101E0013B1BD0D0F81424B8
:1019FC005207F9D50E4A136843F4007300201360A4
:101A0C0070470B4A136843F400736FF001001360C6
:101A1C0070474FF0FF3070476FF0020070476FF067
:101A2C00030070476FF00400704700BF400D0300C7
:101A3C00005400400050004010B5DFF8A0C08646AE
:101A4C0084B0172200214FF480644FF080602EFA8E
:101A5C0002F313F0010F0CBF4FF080534FF480537F
:101A6C00CCF818300191019B0B2B05DC019B013349
:101A7C000193019B0B2BF9DDCCF818400291029BD2
:101A8C000B2B05DC029B01330293029B0B2BF9DD24
:101A9C00CCF818000391039B0B2B05DC039B013343
:101AAC000393039B0B2BF9DD013AD0D20A4A002396
:101ABC004FF4004191610093009B0B2B05DC009BC4
:101ACC0001330093009B0B2BF9DD034B4FF00042CD
:101ADC009A6104B010BD00BF000002400008024033
:101AEC002DE9F04F184B2DED088B1A6852058BB071
:101AFC0009D4154B1A68100500F153830BB0BDECDB
:101B0C00088BBDE8F08F4FF48061104A104E99603D
:101B1C00104F53689FED10AAD7ED058ADFED0F9A91
:101B2C009FED0F9ADFF83CA001930DF1080BCDF857
:101B3C0000B0B1467418B7EE008A06F6A40806F594
:101B4C0009654FF0000B3BE100640240001000E01F
:101B5C002000002000000020000000346F12033B26
:101B6C00FEFFFF4A00000010B6EE083AB4EEC34A7E
:101B7C00F1EE10FA40F3028234EE434AF1EE002A01
:101B8C0064EE222A72EE882AC4EE223A73EE833A6D
:101B9C00F4EEC83AF1EE10FA40F3F081854B236075
:101BAC00F5EEC04AF1EE10FAB0EE644A00F1388658
:101BBC00F6EE083AF4EEE34AF1EE10FA40F34986F9
:101BCC0074EEE34AB1EE003A24EE833A33EE083A6F
:101BDC0084EE834A34EE234AB4EEC84AF1EE10FA8E
:101BEC0040F33786734B6360B5EEC05AF1EE10FAD2
:101BFC00F0EE454A00F1E885B6EE084AB4EEC45A58
:101C0C00F1EE10FA40F3F98535EE445AF1EE003A54
:101C1C0065EE233A73EE883AC5EE234A74EE844A95
:101C2C00F4EEC84AF1EE10FA40F3E785614BA3607D
:101C3C00F5EEC05AF1EE10FAB0EE655A00F1988547
:101C4C00F6EE084AF4EEE45AF1EE10FA40F3A985E8
:101C5C0075EEE45AB1EE004A25EE844A34EE084A99
:101C6C0085EE845A35EE245AB4EEC85AF1EE10FAC9
:101C7C0040F397854F4BE360B5EEC06AF1EE10FA76
:101C8C00F0EE465A00F14885B6EE085AB4EEC56A35
:101C9C00F1EE10FA40F3598536EE456AF1EE004A42
:101CAC0066EE244A74EE884AC6EE245A75EE855ABE
:101CBC00F4EEC85AF1EE10FA40F347853D4B236120
:101CCC00F5EEC06AF1EE10FAB0EE666A00F1F88437
:101CDC00F6EE085AF4EEE56AF1EE10FA40F30985D7
:101CEC0076EEE56AB1EE005A26EE855A35EE085AC4
:101CFC0086EE856A36EE256AB4EEC86AF1EE10FA05
:101D0C0040F3F7842B4B6361B5EEC07AF1EE10FA19
:101D1C00F0EE476A00F1A884B6EE086AB4EEC67A13
:101D2C00F1EE10FA40F3B98437EE467AF1EE005A30
:101D3C0067EE255A75EE885AC7EE256A76EE866AE6
:101D4C00F4EEC86AF1EE10FA40F3A784194BA361C4
:101D5C00F5EEC07AF1EE10FAB0EE677A00F17F8101
:101D6C00F6EE086AF4EEE67AF1EE10FA40F39081A2
:101D7C0077EEE67AB1EE006A27EE866A36EE086AEE
:101D8C0087EE867A37EE267AB4EEC87AF1EE10FA40
:101D9C0040F37E81074BE36197F91C30002B80F2F6
:101DAC008E81054B20349C4209F1200900F0BD8145
:101DBC0006E000BFFFFF7F002006002072F97F3F86
:101DCC00D9F8003043F3170300EE103AB8EEC00A0E
:101DDC0020EE0A0AB5EEC00AF1EE10FA00F13C81D1
:101DEC00F0EE40AAD8ED007AD9F8043098ED007ADC
:101DFC007AEEE77A43F3170367EEA97A77EE877AE0
:101E0C0007EE103AD9F80830C8ED007AB8EEC77A68
:101E1C0043F3170327EE0A7A07EE903AB5EEC07A31
:101E2C00F8EEE77AF1EE10FA67EE8A7A01D5B1EEA8
:101E3C00477AF5EEC07AF1EE10FA01D5F1EE677A39
:101E4C0095ED006AD5ED006A009837EE467AF0EE13
:101E5C00680A27EE297A37EE267A85ED007AD5EDD9
:101E6C00016A95ED017A77EEE67A67EEA97A77EE5C
:101E7C00877AC5ED017A96F87438003B18BF0123B8
:101E8C00CAF84031FEF73AFA96F87438002B40F055
:101E9C00F9849DED024ADDED034A9DED045ADDED1A
:101EAC00055A9DED066ADDED076A9DED087ADDEDBC
:101EBC00097AF0EE44BAB0EE64BAF0EE450AB0EE30
:101ECC00651AF0EE461AB0EE662AF0EE472AF0EEEE
:101EDC00673AF4EEC8BAF1EE10FAC0F2A88001230A
:101EEC00B4EEC8BAF1EE10FAC0F297800123F4EE0A
:101EFC00C80AF1EE10FAC0F286800123B4EEC81ABB
:101F0C00F1EE10FA75DB0123F4EEC81AF1EE10FABB
:101F1C0065DB0123B4EEC82AF1EE10FA55DB012380
:101F2C00F4EEC82AF1EE10FA45DB0123F4EEC83AC0
:101F3C00F1EE10FA34DB4FF0010BB5EEC04AF1EEC6
:101F4C0010FAF0EE443A7FF50FAEBEEE084AF4EE0E
:101F5C00C43AF1EE10FA11D5F6EE082AF1EE633A16
:101F6C0073EEE23AB1EE004A23EE844A34EE084AAC
:101F7C0083EE843A33EE224AF1EE443ABFEE004A45
:101F8C00B4EEE34AF1EE10FAD8BFB0EE634A24EE99
:101F9C00094ABDEEC44A14EE103A23F07F43FEE525
:101FAC00BFEE003AF4EEC33AF1EE10FA8CBF9B464A
:101FBC0043F0010BC1E7BFEE003AF4EEC32AF1EE99
:101FCC0010FA98BF43F00103B0E7BFEE003AB4EE4D
:101FDC00C32AF1EE10FA98BF43F00103A0E7BFEE5D
:101FEC00003AF4EEC31AF1EE10FA98BF43F0010375
:101FFC0090E7BFEE003AB4EEC31AF1EE10FA98BFB8
:10200C0043F0010380E7BFEE003AF4EEC30AF1EEB1
:10201C0010FA98BF43F0010370E7BFEE003AB4EE3C
:10202C00C3BAF1EE10FA98BF43F001035FE7BFEEBD
:10203C00003AF4EEC3BA1FED9F3AF1EE10FAF4EE4B
:10204C00C3AA94BF01230023F1EE10FAA8BF43F0FA
:10205C00010343EA0B0343E7F1EE40AAC2E6FEEEAE
:10206C00087AB4EEE77AF1EE10FA11D5B6EE086AFA
:10207C00B1EE477A37EE467AF1EE007A67EE277AC0
:10208C0077EE887AC7EE276A76EE867AB1EE677AB3
:10209C00FFEE007AF4EEC77AF1EE10FAD8BFF0EE4C
:1020AC00477A67EE897AFDEEE77A17EE903A23F0DD
:1020BC007F43E36197F91C30002BFFF672AE97F962
:1020CC001C300BB10023236097F91C30012B1CBF73
:1020DC000023636097F91C30022B1CBF0023A36004
:1020EC0097F91C30032B1CBF0023E36097F91C30BD
:1020FC00042B1CBF0023236197F91C30052B1CBF3C
:10210C000023636197F91C30062B1CBF0023A361CD
:10211C0097F91C30072B1CBF0023E361334B203491
:10212C009C4209F120097FF44BAED6F8AC38019AE9
:10213C000133C6F8AC382E4B5B689B1A1B094FF663
:10214C00FF72934228BF1346B6F8AA289BB293425B
:10215C00584688BFA6F8AA38002840F05F87D6F802
:10216C00AC28D6F8B0389A4280F06A87D6F8AC28FA
:10217C00D6F8B0389A42FFF4BCAC95ED007ADFED9E
:10218C001D7A1D4BB4EEE77AF1EE10FACCBF4FF08E
:10219C0000624FF400629A61184B1A6810057FF5C3
:1021AC00ADAC134A164E174F9FED17AADFED179AD9
:1021BC00DFED17BA9FED179ADFF85CA04FF40061C2
:1021CC009960536801930DF1080BCDF800B0D7ED71
:1021DC00058AB14606F58064B7EE008A06F6A408B7
:1021EC0006F509654FF0000B24E100BF2006002026
:1021FC00001000E00AD7A33C00000240006402403B
:10220C002000002000000020000000346F12033B6F
:10221C0072F97F3FFEFFFF4A00000010F6EE083A0D
:10222C00F4EEE34AF1EE10FA40F30C8274EEE34A5A
:10223C00B1EE003A24EE833A33EE083A84EE834A48
:10224C0034EE234AB4EEC84AF1EE10FA40F3FA81A8
:10225C00764BC4F80432B5EEC05AF1EE10FAF0EE3B
:10226C00454A00F1C985B6EE084AB4EEC45AF1EEFF
:10227C0010FA40F3DA8535EE445AF1EE003A65EE89
:10228C00233A73EE883AC5EE234A74EE844AF4EE90
:10229C00C84AF1EE10FA40F3C885644BC4F8083212
:1022AC00F5EEC05AF1EE10FAB0EE655A00F17885F1
:1022BC00F6EE084AF4EEE45AF1EE10FA40F3898592
:1022CC0075EEE45AB1EE004A25EE844A34EE084A23
:1022DC0085EE845A35EE245AB4EEC85AF1EE10FA53
:1022EC0040F37785514BC4F80C32B5EEC06AF1EE71
:1022FC0010FAF0EE465A00F12785B6EE085AB4EE05
:10230C00C56AF1EE10FA40F3388536EE456AF1EE07
:10231C00004A66EE244A74EE884AC6EE245A75EEDC
:10232C00855AF4EEC85AF1EE10FA40F326853F4B6D
:10233C00C4F81032F5EEC06AF1EE10FAB0EE666A2F
:10234C0000F1D684F6EE085AF4EEE56AF1EE10FAD6
:10235C0040F3E78476EEE56AB1EE005A26EE855A34
:10236C0035EE085A86EE856A36EE256AB4EEC86AF2
:10237C00F1EE10FA40F3D5842C4BC4F81432B5EEC0
:10238C00C07AF1EE10FAF0EE476A00F18584B6EEF1
:10239C00086AB4EEC67AF1EE10FA40F3968437EE82
:1023AC00467AF1EE005A67EE255A75EE885AC7EE5A
:1023BC00256A76EE866AF4EEC86AF1EE10FA40F3FE
:1023CC0084841A4BC4F81832F5EEC07AF1EE10FA88
:1023DC00B0EE677A00F1A783F6EE086AF4EEE67ABF
:1023EC00F1EE10FA40F3B88377EEE67AB1EE006ABC
:1023FC0027EE866A36EE086A87EE867A37EE267AFC
:10240C00B4EEC87AF1EE10FA40F3A683074BC4F889
:10241C001C3297F91C30002B80F2B683044B20340D
:10242C009C4209F1200900F0ED8303E0FFFF7F00DF
:10243C0020060020D9F8003243F3170300EE103ABF
:10244C00B8EEC00A20EE0A0AB5EEC00AF1EE10FA98
:10245C0000F16683F0EE40AAD8ED007AD9F8043288
:10246C0098ED007A7AEEE77A43F3170367EEA97AD0
:10247C0077EE877A07EE103AD9F80832C8ED007A71
:10248C00B8EEC77A43F3170327EE0A7A07EE903AB1
:10249C00B5EEC07AF8EEE77AF1EE10FA67EE8A7ACA
:1024AC0001D5B1EE477AF5EEC07AF1EE10FA01D50E
:1024BC00F1EE677A95ED006AD5ED006A009837EE7B
:1024CC00467AF0EE680A27EE297A37EE267A85ED01
:1024DC00007AD5ED016A95ED017A77EEE67A67EE32
:1024EC00A97A77EE877AC5ED017A96F87438003BB5
:1024FC0018BF0123CAF84031FDF700FF96F8743875
:10250C00002B40F0A5849DED024ADDED034A9DEDC4
:10251C00045ADDED055A9DED066ADDED076A9DED69
:10252C00087ADDED097AB0EE44BAB0EE640AF0EE4A
:10253C00450AB0EE651AF0EE461AB0EE662AF0EED9
:10254C00472AF0EE673AB4EEC8BAF1EE10FAC0F2D0
:10255C00D4820123B4EEC80AF1EE10FAC0F2C382A1
:10256C000123F4EEC80AF1EE10FAC0F2B282012394
:10257C00B4EEC81AF1EE10FAC0F2A1820123F4EE07
:10258C00C81AF1EE10FAC0F290820123B4EEC82AF8
:10259C00F1EE10FAC0F27F820123F4EEC82AF1EEBC
:1025AC0010FAC0F26E820123F4EEC83AF1EE10FA82
:1025BC00C0F25C824FF0010BB5EEC04AF1EE10FA9E
:1025CC00F0EE443A00F12782B6EE083AB4EEC34A74
:1025DC00F1EE10FA40F3388234EE434AF1EE002A61
:1025EC0064EE222A72EE882AC4EE223A73EE833A03
:1025FC00F4EEC83AF1EE10FA40F326829E4BC4F882
:10260C000032F5EEC04AF1EE10FAB0EE644A7FF5F6
:10261C0005AEFEEE084AB4EEE44AF1EE10FA11D51E
:10262C00B6EE083AB1EE444A34EE434AF1EE004AB3
:10263C0064EE244A74EE884AC4EE243A73EE834A5C
:10264C00B1EE644AFFEE004AF4EEC44AF1EE10FA21
:10265C00D8BFF0EE444A64EE894AFDEEE44A14EE2B
:10266C00903A23F07F43F4E5BEEE087AF4EEC76AA5
:10267C00F1EE10FA11D5F6EE085AF1EE666A76EE26
:10268C00E56AB1EE007A26EE877A37EE087A86EEA6
:10269C00876A36EE257AF1EE476ABFEE007AB4EE21
:1026AC00E67AF1EE10FAD8BFB0EE667A27EE097A28
:1026BC00BDEEC77A17EE103A23F07F43FFF747BB06
:1026CC00FEEE086AB4EEE66AF1EE10FA11D5B6EE3B
:1026DC00085AB1EE466A36EE456AF1EE006A66EECD
:1026EC00266A76EE886AC6EE265A75EE856AB1EED3
:1026FC00666AFFEE006AF4EEC66AF1EE10FAD8BF15
:10270C00F0EE466A66EE896AFDEEE66A16EE903ADF
:10271C0023F07F43FFF7F7BABEEE086AF4EEC65A11
:10272C00F1EE10FA11D5F6EE084AF1EE655A75EE97
:10273C00E45AB1EE006A25EE866A36EE086A85EE3A
:10274C00865A35EE246AF1EE465ABFEE006AB4EEB4
:10275C00E56AF1EE10FAD8BFB0EE656A26EE096AAA
:10276C00BDEEC66A16EE103A23F07F43FFF7A7BA08
:10277C00FEEE085AB4EEE55AF1EE10FA11D5B6EEAB
:10278C00084AB1EE455A35EE445AF1EE005A65EE60
:10279C00255A75EE885AC5EE254A74EE845AB1EE68
:1027AC00655AFFEE005AF4EEC55AF1EE10FAD8BF96
:1027BC00F0EE455A65EE895AFDEEE55A15EE903A63
:1027CC0023F07F43FFF757BABEEE085AF4EEC54A22
:1027DC00F1EE10FA11D5F6EE083AF1EE644A74EE09
:1027EC00E34AB1EE005A24EE855A35EE085A84EECF
:1027FC00854A34EE235AF1EE454ABFEE005AB4EE48
:10280C00E45AF1EE10FAD8BFB0EE645A25EE095A2C
:10281C00BDEEC55A15EE103A23F07F43FFF707BA09
:10282C00FEEE084AB4EEE44AF1EE10FA11D5B6EE1B
:10283C00083AB1EE444A34EE434AF1EE004A64EEF3
:10284C00244A74EE884AC4EE243A73EE834AB1EEFD
:10285C00644AFFEE004AF4EEC44AF1EE10FAD8BF17
:10286C00F0EE444A64EE894AFDEEE44A14EE903AE6
:10287C0023F07F43FFF7B7B9FFFF7F000000484309
:10288C0000000000DAEDA46ADAEDA57A9AEDA66AEA
:10289C0077EEE67AB5EE007A67EE867A77EEA67A70
:1028AC00F4EEC77AF1EE10FACAEDA47A08D4B1EEC0
:1028BC00007AF4EEC77AF1EE10FAD8BFB0EE677A70
:1028CC008AED527AFEF70AFE9AEDA43A33EE483AB4
:1028DC00F0EE402AB5EEC03AF1EE10FA01D5B1EEA9
:1028EC00433A5FED1A7A23EE273AB4EEC83AF1EE8A
:1028FC0010FA40F3C2831FED1E0AF0EE62BAB7EE77
:10290C00003AD6F8C439DD4AC3F3090102EB810160
:10291C00C1ED002AA3F17F01C1F3090102EB810192
:10292C0091ED00BAA3F1FB01C1F3090102EB8101A6
:10293C006FF4BF7CD1ED000A03EB0C01C1F309016C
:10294C0002EB810191ED001A6FF4FE715918C1F37D
:10295C00090102EB81016FF42070D1ED001A1918F6
:10296C00C1F3090102EB81016FF4407C91ED002A67
:10297C0003EB0C01C1F3090102EB8101D1ED002A3B
:10298C00A3F27731C1F3090102EB8102D2ED007A97
:10299C0023EE0BBA63EE273A63EE200A23EE011AFC
:1029AC0063EE211A23EE022A63EE222A70EE2BBA72
:1029BC003BEE00BA70EE800A31EE001A71EE801A0E
:1029CC0032EE002A72EE802A73EE803A0133CDED9E
:1029DC0002BA8DED03BACDED040A8DED051ACDEDDD
:1029EC00061A8DED072ACDED082AC6F8C439CDEDAF
:1029FC00093AB0EE6B4AF0EE4B4AB0EE605AF0EE8C
:102A0C00415AB0EE616AF0EE426AB0EE627AF0EED4
:102A1C00637AFFF75EBABEEE084AF4EEC43AF1EE02
:102A2C0010FA11D5F6EE082AF1EE633A73EEE23A9B
:102A3C00B1EE004A23EE844A34EE084A83EE843A1F
:102A4C0033EE224AF1EE443ABFEE004AB4EEE34ACA
:102A5C00F1EE10FAD8BFB0EE634A24EE094ABDEE8F
:102A6C00C44A14EE103A23F07F43C8E5BFEE003A97
:102A7C00F4EEC33AF1EE10FA8CBF9B4643F0010B17
:102A8C009AE5BFEE003AF4EEC32AF1EE10FA98BFC5
:102A9C0043F0010388E5BFEE003AB4EEC32AF1EE31
:102AAC0010FA98BF43F0010377E5BFEE003AF4EE5D
:102ABC00C31AF1EE10FA98BF43F0010366E5BFEEBE
:102ACC00003AB4EEC31AF1EE10FA98BF43F00103CA
:102ADC0055E5BFEE003AF4EEC30AF1EE10FA98BFDA
:102AEC0043F0010344E5BFEE003AB4EEC30AF1EE45
:102AFC0010FA98BF43F0010333E5F4EEEBAABFEEF6
:102B0C00003AF1EE10FAB4EEC3BAACBF01230023C5
:102B1C00F1EE10FA98BF43F0010343EA0B0319E5F9
:102B2C00F1EE40AA98E4FEEE087AB4EEE77AF1EE04
:102B3C0010FA11D5B6EE086AB1EE477A37EE467A3E
:102B4C00F1EE007A67EE277A77EE887AC7EE276A7D
:102B5C0076EE867AB1EE677AFFEE007AF4EEC77AFB
:102B6C00F1EE10FAD8BFF0EE477A67EE897AFDEEF7
:102B7C00E77A17EE903A23F07F43C4F81C3297F9AA
:102B8C001C30002BFFF64AAC97F91C3013B1002314
:102B9C00C4F8003297F91C30012B1CBF0023C4F879
:102BAC00043297F91C30022B1CBF0023C4F80832E6
:102BBC0097F91C30032B1CBF0023C4F80C3297F977
:102BCC001C30042B1CBF0023C4F8103297F91C30A6
:102BDC00052B1CBF0023C4F8143297F91C30062BAC
:102BEC001CBF0023C4F8183297F91C30072B1CBFEC
:102BFC000023C4F81C32224B20349C4209F12009DA
:102C0C007FF418ACD6F8AC38019A0133C6F8AC385E
:102C1C001C4B5B689B1A1B094FF6FF72934228BF33
:102C2C001346B6F8AA289BB29342584688BFA6F81A
:102C3C00AA38002840F0D481D6F8AC28D6F8B038A1
:102C4C009A4280F0DF81D6F8AC28D6F8B0389A4298
:102C5C00FEF454AF95ED007ADFED0B7A0B4BB4EE2E
:102C6C00E77AF1EE10FACCBF4FF000624FF400623D
:102C7C009A610BB0BDEC088BBDE8F08FDC0A00103C
:102C8C0020060020001000E00AD7A33C0000024000
:102C9C000000484300000000BEEE087AF4EEC76A5C
:102CAC00F1EE10FA11D5F6EE085AF1EE666A76EEF0
:102CBC00E56AB1EE007A26EE877A37EE087A86EE70
:102CCC00876A36EE257AF1EE476ABFEE007AB4EEEB
:102CDC00E67AF1EE10FAD8BFB0EE667A27EE097AF2
:102CEC00BDEEC77A17EE103A23F07F43FFF76ABBAD
:102CFC00FEEE086AB4EEE66AF1EE10FA11D5B6EE05
:102D0C00085AB1EE466A36EE456AF1EE006A66EE96
:102D1C00266A76EE886AC6EE265A75EE856AB1EE9C
:102D2C00666AFFEE006AF4EEC66AF1EE10FAD8BFDE
:102D3C00F0EE466A66EE896AFDEEE66A16EE903AA9
:102D4C0023F07F43FFF719BBBEEE086AF4EEC65AB8
:102D5C00F1EE10FA11D5F6EE084AF1EE655A75EE61
:102D6C00E45AB1EE006A25EE866A36EE086A85EE04
:102D7C00865A35EE246AF1EE465ABFEE006AB4EE7E
:102D8C00E56AF1EE10FAD8BFB0EE656A26EE096A74
:102D9C00BDEEC66A16EE103A23F07F43FFF7C8BAB1
:102DAC00FEEE085AB4EEE55AF1EE10FA11D5B6EE75
:102DBC00084AB1EE455A35EE445AF1EE005A65EE2A
:102DCC00255A75EE885AC5EE254A74EE845AB1EE32
:102DDC00655AFFEE005AF4EEC55AF1EE10FAD8BF60
:102DEC00F0EE455A65EE895AFDEEE55A15EE903A2D
:102DFC0023F07F43FFF777BABEEE085AF4EEC54ACC
:102E0C00F1EE10FA11D5F6EE083AF1EE644A74EED2
:102E1C00E34AB1EE005A24EE855A35EE085A84EE98
:102E2C00854A34EE235AF1EE454ABFEE005AB4EE11
:102E3C00E45AF1EE10FAD8BFB0EE645A25EE095AF6
:102E4C00BDEEC55A15EE103A23F07F43FFF726BAB4
:102E5C00DAEDA46ADAEDA57A9AEDA66A77EEE67A4F
:102E6C00B5EE007A67EE867A77EEA67AF4EEC77A3C
:102E7C00F1EE10FACAEDA47A08D4B1EE007AF4EEB1
:102E8C00C77AF1EE10FAD8BFB0EE677A8AED527AB3
:102E9C00FEF724FB9AEDA43A33EE483AF0EE402AC2
:102EAC00B5EEC03AF1EE10FA01D5B1EE433A5FED52
:102EBC00887A23EE273AB4EEC83AF1EE10FA40F3D2
:102ECC00CC805FED8C7AB0EE62BAB7EE003AD6F8F1
:102EDC00C4399F4AC3F3090102EB8101C1ED002AF9
:102EEC00A3F17F01C1F3090102EB810191ED000A0D
:102EFC00A3F1FB01C1F3090102EB8101D1ED000A41
:102F0C006FF4BF715918C1F3090102EB81016FF421
:102F1C00FE7091ED001A1918C1F3090102EB810141
:102F2C006FF4207CD1ED001A03EB0C01C1F3090105
:102F3C0002EB810191ED002A6FF440715918C1F335
:102F4C00090102EB8101D1ED002AA3F27731C1F323
:102F5C00090102EB810292ED007A23EE000A63EE86
:102F6C00073A63EE200A23EE011A63EE211A23EED0
:102F7C00022A63EE222A37EE8BBA30EE270A70EE65
:102F8C00A70A31EE271A71EEA71A32EE272A72EE33
:102F9C00A72A73EEA73A01338DED02BA8DED030A21
:102FAC00CDED040A8DED051ACDED061A8DED072A2F
:102FBC00CDED082AC6F8C439CDED093AB0EE4B4A2E
:102FCC00F0EE404AB0EE605AF0EE415AB0EE616A53
:102FDC00F0EE426AB0EE627AF0EE637AFFF7B3BAC3
:102FEC00D6F8AC3803F2EE23C6F8C83996F8A838F0
:102FFC00013386F8A838D6F8AC28D6F8B0389A42FF
:10300C00FFF421AED6F8AC38D6F8C819514A8B4229
:10301C0034BF4FF480330123936114E6D6F8AC38F7
:10302C0003F2EE23C6F8C83996F8A838013386F8AF
:10303C00A838D6F8AC28D6F8B0389A42FFF496A83F
:10304C00D6F8AC38D6F8C819424A8B4234BF4FF484
:10305C00803301239361FFF789B89FED3F7AB4EE7B
:10306C00C73AF1EE10FA38EE432A23EE22BA14D402
:10307C00DFED3A7A62EE277A29E7DFED377AB4EEA4
:10308C00E73AF1EE10FA38EE432A63EE22BA2BD46B
:10309C00DFED327A22EE270A33E4DAF83430DAF84C
:1030AC003020DFED2F7A002BB8BF002207EE102A5C
:1030BC00B8EE470AB8BF0023DAE9011220EE270A5E
:1030CC00002B3ED08B4224BFB3FBF1F001FB10333D
:1030DC00934288BF5218D21ADAF800000123FDF788
:1030EC005FF860EE027AF2E6DAF83430DAF8302083
:1030FC00DFED1B7A002BB8BF002207EE102AB8EECA
:10310C00470AB8BF0023DAE9011220EE270A93B16F
:10311C008B4224BFB3FBF1F001FB1033934288BF09
:10312C005218D21ADAF800000123FDF739F820EE14
:10313C00020AFFF7E6BB01299FED080AF2D9012329
:10314C00ECE701299FED050AC6D90123C0E700BFB2
:10315C00DC0A00100000024077BE7F3F0000000038
:10316C000000802F704700BF054BD3F888204FF02C
:10317C00006142F47002C3F888209960704700BF68
:10318C0000ED00E02DE98048414A424B9A42ADB037
:10319C0016D2013B9B1A032B11460FD99B08013306
:1031AC00580802EBC0050024C1E900440831A942CB
:1031BC00FAD1B3EB400F03D002EBC0020023136033
:1031CC004FF0E021344BD1F8FC2D002042F08072FE
:1031DC00C1F8FC2D58601A68304942F001021A609F
:1031EC000B682F4A43F480330B60D2F800389D03F0
:1031FC00FBD52A4A2B49136C2B4843F0805313649C
:10320C00136C0B6840F2057443F440430B6004608C
:10321C009368264923F47C4323F0F00343F41443CE
:10322C009360516013681E4943F080731360D1F8AA
:10323C0000389C01FBD5194B9A6822F0030242F02E
:10324C0002029A609C6804F00C04082CFAD1184A0B
:10325C00C3F88820D3F88C20114922F4700222F490
:10326C00F85242F4C062C3F88C201A6842F08052C3
:10327C001A60D1F800389800FBD5084B9A6802F018
:10328C000C02042A18D0082A01F0B681094B14E06C
:10329C0000000010DC1A0010001000E000380240A2
:1032AC000030024000700040003C024008544007CF
:1032BC00005600020024F400BD4BBE4ABE49906883
:1032CC00C0F3031001F5A07B085CC340BB4803604E
:1032DC00136B43F0FE031363136B01F110004FF0FB
:1032EC00030A4FF002094FF001084FF00F0E4FF098
:1032FC000C0C0268037915685E000AFA06F725EAD9
:10330C00070509FA06F635431560556808FA03F601
:10331C0025EA0605556095683D439560D568072BF1
:10332C0025EA0705D56094BF0025012502EB85022F
:10333C0003F00703156A9B000EFA03F6083025EA22
:10334C0006050CFA03F32B4358451362D1D1994A65
:10335C00936B43F001039363994B926B994A4FF42F
:10336C00605018644FF4EA7058644FF483109864FA
:10337C00DA649A6D9206FCD409221A6544F61F632E
:10338C0000BF1A46013B002AFAD18D4B9A6D970665
:10339C00FCD40A221A658A4B9A6D9606FCD4EB2251
:1033AC001A65874B9A6D9506FCD4874A1A654FF4BB
:1033BC009F625A65824B9A6D9006FCD47D4A834875
:1033CC00136BDFF8509243F00A031363804B126BBC
:1033DC001A6822F440121A60DA6822F4401242F49D
:1033EC008012DA601A6822F440021A60DA6822F459
:1033FC00400242F48002DA60026822F44002026069
:10340C00C26822F4400242F48002C260026822F0D8
:10341C0040720260C26822F0407242F08072C26058
:10342C001A6822F440121A60DA6822F4401242F44C
:10343C008012DA601A6822F440021A60DA6822F408
:10344C00400242F48002DA601B695A05614B4CBFA2
:10345C009FED611A9FED611AC9F800304FF400120C
:10346C00C9F80420002003F5000243F8040B934232
:10347C00FBD15B4BC9F8BC30C9F8C430594BC9F807
:10348C00B030594BC9F81430584BC9F81830584B58
:10349C00C9F81C30574BC9F82030574BC9F82430A9
:1034AC00564BC9F82830564BC9F82C30554B564E54
:1034BC00C9F8C830DFF860E1544BC9F8CC300027AC
:1034CC004FF07E5300220125C9F810600026C9E98F
:1034DC003522C9F8C030C9F8E430C9F80431C9F84C
:1034EC000820C9F8DC2089F8E020C9E90C67C9E993
:1034FC000E67C9E91067C9E91267C9E91467C9E918
:10350C001667C9E91867C9E91A6789ED2E1AC9F84F
:10351C00B45089F8D050C9F8E830C9E9502EDFF81A
:10352C00ACC089F83051DCF81020C9F80831C9F862
:10353C00EC30C9F80C31C9F8F030C9F81031C9F8C1
:10354C00F430C9F81431C9F8F830C9F81831C9F891
:10355C00FC30C9F81C31C9F80031C9F82031C9F860
:10356C002831C9F83431DCF81030C9F82C016FEA75
:10357C001333AB4003F0020325EAD22213434FF07E
:10358C007858032BC9F82481C9F8380101F04D8013
:10359C0001EB8301D1F84031182B08BF00230C4AF2
:1035AC00C9F83C311369034A194F1B0536E000BFBB
:1035BC0000127A0000380240EC5A0008000000208B
:1035CC00000100A0610301010C600400000C02402A
:1035DC0000040240000000D00080BB4700606A4934
:1035EC006F12833ACAF249F1000020420000704287
:1035FC000000A0420000C8420000F04200000C4352
:10360C0000002043CDCCCC3E0000A041CDCCCC3F23
:10361C00C120120000000010674523015CBFAD4BB8
:10362C00C9F82831136B43F002031363136C43F492
:10363C0080431364A84B116C196821F0406141F070
:10364C0000611960996841F000619960596A21F430
:10365C00700141F4A0015962196821F0405141F008
:10366C0000511960996841F000519960596A21F034
:10367C00706141F0A0615962196821F0404141F03C
:10368C0000411960996841F000419960596A21F034
:10369C00704141F0A0415962196821F0407141F02C
:1036AC00807119604FF480558C499D6100204FF456
:1036BC004D730B6048600B6843F040030B60536C18
:1036CC0043F480035364536C136B43F0380313635C
:1036DC00136B834B1D6825F0300545F020051D60EC
:1036EC005D6825F004055D609D6845F030059D60C2
:1036FC00DD6825F03005DD601D6A25F4706545F444
:10370C00C0651D621D6825F4407545F400751D608B
:10371C005D6825F010055D609D6845F440759D6001
:10372C00DD6825F44075DD601D6A25F4702545F4CF
:10373C00C0251D621D6825F4406545F400651D60BB
:10374C005D6825F020055D609D6845F440659D60D1
:10375C00DD6825F44065DD601D6A25F4700501F512
:10376C00EA3145F4C0051D620B685E4D23F44053ED
:10377C0043F400530B604B6823F040034B608B68A1
:10378C0043F440538B60CB6823F44053CB600B6AFB
:10379C0023F0706343F0C0630B622968524B21F431
:1037AC00405141F400512960696821F04001696081
:1037BC00A96841F44051A960E96821F44051E960DD
:1037CC00296A21F0706141F0C061296201265F60B5
:1037DC00464D47499E6007F20147DD6019615F6203
:1037EC009E62DD621963136B43F480031363136BE6
:1037FC00404B98629A6A12F00102FBD13E49196360
:10380C00DFF818B13D49C3F834B04FF48070D8627A
:10381C009962C3F88820374AD2F8883013F0010334
:10382C000093F9D13649C2F890103649C2F8941079
:10383C00354B36494FF48070C2F88C00C2F88810B2
:10384C00102183F839134FF000715960936A43F0DB
:10385C0001039362D2F8883043F00103C2F8883038
:10386C00214B2B4A596A41F480315962596841F411
:10387C0080315960136B43F001031363136B254BB9
:10388C001A6822F0300242F010021A605A684FF4A3
:10389C00802122F004025A609961009B0A930A9BD2
:1038AC001D4A934205DC0A9B01330A930A9B9342FF
:1038BC00F9DD184B1A6822F0300242F010021A603F
:1038CC005A68042122F004025A609961002309937A
:1038DC00099B25E07D99D63E00040240003800404B
:1038EC00001002400014024000580140FF0F060077
:1038FC008007FF0000640240205801401855030067
:10390C00405801402004002000E100E04055030035
:10391C000038024000000240DF9304002000002029
:10392C00914A934205DC099B01330993099B93420D
:10393C00F9DD8E4A8E4B116B41F002011163116B54
:10394C00196821F4403141F400311960596841F48F
:10395C0080715960996841F480319960D96821F47B
:10396C00403141F48031D960596A21F00F0141F0A6
:10397C0004015962196821F4402141F400211960B5
:10398C00596841F400715960996841F4802199603B
:10399C00D96821F4402141F48021D960596A21F081
:1039AC00F00141F040015962136C43F400131364AD
:1039BC00136C704B4FF400421A6000212A221960DC
:1039CC005A60D222DA6101252B221A624FF6FF3699
:1039DC001D600846684A01E0013A02D09F69BF07A2
:1039EC00FAD41F68644A47F480771F6001E0013AFB
:1039FC0002D05F69FF07FAD55A69D20740F11886E1
:103A0C004A00D2B25D4F1A6105E0520500F11B86E7
:103A1C00013F00F01F865A6912F0020FF5D09A6927
:103A2C001A684F090BEB870742F400721A60D7F83B
:103A3C0004C801F01F0205FA02F242EA0C02C7F8B0
:103A4C0004280890089AB2F5FA6F06DA089A01323F
:103A5C000892089AB2F5FA6FF8DB01318029B9D1D6
:103A6C00474BCBF814387F210220FDF77FFFF02164
:103A7C0005460320FDF77AFF362105430420FDF7A8
:103A8C0075FFFF2105430720FDF770FF002105435B
:103A9C000220FDF76BFF102105430620FDF766FFA2
:103AAC00002105430720FDF761FF364B314A0543E2
:103ABC005D60354D354B08464FF0920C9327EE2642
:103ACC00116815F801EB41F48071116080462B49A7
:103ADC0002E0013900F0CB85D3F81404C007F8D507
:103AEC002649C2F810C002E0013900F0C285D3F8B3
:103AFC0014048007F8D59169204902E0013900F0DF
:103B0C00B685D3F814040006F8D5C2F810E01B49AA
:103B1C00C64602E0013900F0A385D3F8140440072F
:103B2C00F8D5116841F480711160144902E0013933
:103B3C0000F09685D3F81404C007F8D51761116806
:103B4C0021F4806111600D4902E0013900F09B8580
:103B5C00D3F814048007F8D59169116841F4007109
:103B6C001160064917E000BFDF93040000380240E3
:103B7C000004024000540040410D0300400D0300BE
:103B8C00EEFFC00000000020385C00080050004030
:103B9C00013900F06585D3F814044006F8D5704659
:103BAC00D2F810E0116841F4806111600BEB000158
:103BBC0081F818E801300A2882D1B64AB64B116B4D
:103BCC00B64D41F001011163116B196821F440717C
:103BDC0041F480711960196821F4406141F48061ED
:103BEC0019601968102721F44051202019609F6139
:103BFC009861116B41F003011163116B196821F08D
:103C0C00030141F0010119604FF480319961196889
:103C1C0021F00C0141F0040119600221996119682D
:103C2C0021F4404141F48041196080219961196867
:103C3C0021F4403141F4803119604FF48071996165
:103C4C00196821F4400141F48001196000264FF4F9
:103C5C0000619961ABF824688BF82A68ABF8286886
:103C6C00296821F00F0141F0050129604FF4403122
:103C7C00A961116B41F005011163116B196821F4F5
:103C8C00407141F480711960196821F4406141F46C
:103C9C0080611960196821F0404141F08041196040
:103CAC00196805F5806521F440511960296821F4E3
:103CBC00401141F480112960296821F0407141F0D4
:103CCC00807129604FF0806C4FF000419F619861CA
:103CDC00C5F818C09961136B43F004031363136B9D
:103CEC002B6823F00C032B60EB6823F00C0343F0E0
:103CFC000403EB602B6823F030032B60EB6823F09C
:103D0C0030033B43EB602B6823F0C0032B60EB6864
:103D1C0023F0C00343F04003EB602B6823F44073A3
:103D2C002B60EB6823F4407343F48073EB602B68D7
:103D3C0023F440632B60EB6823F4406343F480630B
:103D4C00EB602B6823F440532B60EB6823F4405357
:103D5C0043F48053EB60B046B246A4F1080707EB7E
:103D6C00071007EB001000EB0030FDF765FE002399
:103D7C000793079B0B2B05DC079B01330793079BD2
:103D8C000B2BF9DD00230693069B0B2B05DC069B06
:103D9C0001330693069B0B2BF9DD0122296902FAEC
:103DAC0007F74AEA070311F0200F9BB208BF9A46A7
:103DBC0002FA04F314444AEA030211F0400F92B2DF
:103DCC0008BF924648EA070211F0080F92B208BFEA
:103DDC00904648EA0300374311F0100F80B2BAB294
:103DEC0008BF804611F0020F08BF1646334311F08E
:103DFC00040F9BB208BF1E46102CAED12848FDF70D
:103E0C001BFE244BABF832A8ABF83488ABF8366801
:103E1C005A6C244942F480625A641A6B42F02002B4
:103E2C001A635B6C0B68204A43F440330B60A1F5BA
:103E3C0071414B6823F4403343F480334B600023CF
:103E4C0006215360D36251634FF4E01111610121DB
:103E5C0091600B930B9B42F20F72934205DC0B9B10
:103E6C0001330B930B9B9342F9DD0A4BDFED0F2AC9
:103E7C001A6B0A48C9ED552A42F00F02C9ED562AB1
:103E8C00C9ED572A1A631A6BC2680949DFF828E092
:103E9C00084D1FE0003802400000024000040240C0
:103EAC0077777700001402400022014000000000E8
:103EBC00000802403480373A8408002017B7D13804
:103ECC0095BFD6330AD7233C5F708930CAF249F1CB
:103EDC008FC2753D5FED078A1FED078A1FED070A3C
:103EEC001FED072A5FED070A5FED071A22F4700237
:103EFC00C260CA686FF38D02CA60D0F80C18C34A4E
:103F0C0021F07071C0F80C18D16821F04041D160DB
:103F1C00596C41F0100159645B6C136823F47013F5
:103F2C0043F420131360536A23F47F6343F4EE636A
:103F3C005362B74BC9F84C31A2F570424FF087432E
:103F4C00C9F8503100204FF07E5340F2D926C9F801
:103F5C004831C9F86031C9F864314FF0FF31C9F804
:103F6C008C024FF00044966042F20C06D660C9F801
:103F7C006831C9ED5B2AC9F88812C9E99C44C9F8B3
:103F8C009032C9F894324FF48073C9F88012ABF8B0
:103F9C007038012302939BF87438C9F89852F6EEE6
:103FAC00007A009DC9F87802B0EE677AC9F88402ED
:103FBC00C9F87C12CEED007ACEED017ACEED027A04
:103FCC004FF0FF0A002B40F05C8215F0030300F069
:103FDC006D8315F03F0340F04D828C4A4FF48011F5
:103FEC0091611193119B0B2B05DC119B01331193E8
:103FFC00119B0B2BF9DD854B10229A61002310933A
:10400C00109B0B2B05DC109B01331093109B0B2B7F
:10401C00F9DD00237D480D214FF400171C462026A6
:10402C0087610E940E9A0B2A05DC0E9A01320E92C1
:10403C000E9A0B2AF9DD026986610F9412F0400F7B
:10404C004FEA43030F9A9BB218BF43F001030B2AAC
:10405C0005DC0F9A01320F920F9A0B2AF9DD013908
:10406C00DED16A4A4FF400119161990743BFC3F343
:10407C00800484F00104E4B2022413F0080F0CBF96
:10408C00022201221F060092C3F3001640F1AC86F7
:10409C00C3F3002181F001014900C9B213F480621D
:1040AC0000F0518613F4007F14BF0122022201920A
:1040BC00584FD9ED2E7A38696FEAD32242EA902212
:1040CC0002F001003A69D7F81080009FABF82C3849
:1040DC008BF848488BF849788BF84A188BF8746839
:1040EC004D4E019F37736FEA133646EAD22202F027
:1040FC0001028BF84B088BF84C284EED017A002806
:10410C0040F0D485002A00F008879BF82528002A67
:10411C0000F0EF874FF480720129ABF8242800F0EF
:10412C00CF87064684469BF88478012F00F06E8674
:10413C00022F00F05487002F00F02586D9F80820B4
:10414C00002E41F0AF83314E99F8D0104FF0020C95
:10415C00C6F818C04FF4000CC6F818C0012900F0BE
:10416C003786DBF88868964200F2FF869BF88C68ED
:10417C00CBF88828002E00F00287013EF6B2234AC5
:10418C008BF88C684FF0807CC2F818C08BF84E7896
:10419C008BF84F18DEED107A9FED206ADFED206A68
:1041AC0067EE867ADB43F4EEE67AF1EE10FA03F072
:1041BC00010800F3E485FCEEE77A17EE903A8BF8F1
:1041CC0050388BF85868DEED0B7A9FED166ADFEDF0
:1041DC00146A67EE867AF4EEE67AF1EE10FA00F3E2
:1041EC00CB85FCEEE77A17EE903A8BF85138DEED82
:1041FC000C7A9FED0C6ADFED0A6A67EE867AF4EEB4
:10420C00E67AF1EE10FA00F3B4850FE000000240FC
:10421C000000B44500180240000000200000C84215
:10422C0000007F4300007A44C0FE9F49FCEEE77A11
:10423C0017EE903A8BF852389BF8A8388BF8533815
:10424C00BBF8AA38ABF85638DBF8AC28DBF8B0383A
:10425C009A42C0F01C869BF8B43843B19BF8B53831
:10426C00009A934200F0478700238BF8B438DDE9BD
:10427C000023029942EA031C61451CD007EE902AE8
:10428C00F8EE677A67EE817A3BB1012B0CBFF6EE44
:10429C00006AF5EE006A67EEA67A5FED1D6AF4EE31
:1042AC00E76AF1EE10FAD8BFF0EE667A0123C9ED99
:1042BC002E7AC9F8B430B8F1000F40F04785A2450A
:1042CC0000F0E1854FEA841808F1006303F54043E0
:1042DC00C5491A688A4240F07486DA88022A40F08E
:1042EC0070861989282900F26C860A1DCDE9031005
:1042FC0092B29F88029203F1050A4FF6FF7241F2C7
:10430C00210650461AF8011F82EA012251001204BC
:10431C0048BF71404A00090448BF72405100120462
:10432C0048BF71404A00090448BF72405100120452
:10433C0048BF71404A00090448BF72405100120442
:10434C0048BF71404A0092B20904A0F104010298DE
:10435C0048BF7240A1EB030148BF92B28142D0D357
:10436C009742DDE9031040F02C86002900F02986E5
:10437C004A1E052A41F2FE829C4A6A44A2EB0802BC
:10438C00022A41F2F7829A4A8E0858F802701C975A
:10439C00012E424401F0E78257681D97022E00F06F
:1043AC00F38597681E97032E00F0EE85D7681F974C
:1043BC00042E00F0E98517692097052E00F0E4859E
:1043CC0057692197062E00F0DF8597692297072EF3
:1043DC0000F0DA85D7692397082E00F0D585176A87
:1043EC0024970A2E40F0D085536A2593009B8BF8B6
:1043FC00B538019B8BF8B638249BCEF80030CEF83C
:10440C0004300123ABF870388BF8B4389DF8943035
:10441C008BF8B7389DF896308BF8B838DDED1C6A00
:10442C00DDED1D7ADDF878801F9F209E2199229A60
:10443C00239BCEED022AA2464FF0FF0CC9F82C307C
:10444C000123C9ED046AC9ED057AC9F81880C9F8C9
:10445C001C70C9F82060C9F82410C9F82820CDF8C0
:10446C0008C0C9F8B430002840F0EE82CBF8BC0884
:10447C008BF8C008013530BF9BF87438002B3FF423
:10448C00A4ADD9F88832002BBFF69FADD9ED527A86
:10449C00F7EE006A76EEE76AF5EEC06AF1EE10FA16
:1044AC0000F1E886F0EE667AF4EEE87AF1EE10FAB6
:1044BC003FF58BADD9ED535AD9ED557A86EEA56AF9
:1044CC00B5EEC06AF1EE10FA41F3A181B6EE005AD6
:1044DC00F4EEC57AF7EE006AF1EE10FA76EEE76AC2
:1044EC0001D4B7EE085A75EE677AF4EEE76AF1EE8E
:1044FC0010FAF4EEE67A94BF01230023F1EE10FAE1
:10450C00B8BFF0EE676AF4EEE16A83F00108F1EEF1
:10451C0010FAC9F88C823FF758ADF2EE007A26EE0D
:10452C00276AB4EEE66AF1EE10FA3FF74EAD99ED5C
:10453C00546AF0EE467AF6EE006A25EEA64AD9E900
:10454C00012409EB830334EE274AD3ED566ADFEDE1
:10455C00297AD9F8000034EE264A1719002114E004
:10456C0003F1010C62452ED916ED015A35EE665A4F
:10457C0065EE255A75EEA66A66EEA66A0231B1F5AD
:10458C00407F77EEA67A00F0798606EE901AF8EE68
:10459C00E66A76EE846AFCEEE65A15EE903A9342A1
:1045AC0024BFB3FBF2F602FB16339C422CBFE31A7A
:1045BC00FB1AF8EE655A00EB8306012B76EEE55AF2
:1045CC00D6ED006ACCD8013B00F13C829A4298BFF0
:1045DC009B1A00EB830393ED005A35EE665A65EE99
:1045EC00255A75EEA66AC7E7723838326540FFF770
:1045FC000AC000080000000059685A685B6849024C
:10460C00C3F388134CBF2549254902F03F02B1FB87
:10461C00F2F202FB03F3234A5268C2F30142013265
:10462C005200B3FBF2F3FEF748BE0423FEF7B7BF0C
:10463C001A6842F400721A60DBF800280132CBF8D9
:10464C000028FFF7FEB95E611A6842F400721A6026
:10465C00FFF7F7B91A6842F400721A60FFF7F1B964
:10466C0070460BEB000181F81868FFF7A3BA4046BF
:10467C00F7E7DFF834E0DEF8001041F40071404653
:10468C00CEF80010EDE77046DFF81CE0DEF8001005
:10469C0041F40071CEF80010E3E700BF00127A007D
:1046AC000024F4000038024000540040AF4AD168A6
:1046BC009268AF4A4FF0805191610D930D9B272B5F
:1046CC0005DC0D9B01330D930D9B272BF9DDA74AC0
:1046DC0093689F07FCD501231373A44A9368DE07E4
:1046EC00FCD5137BA14A8BF8783893689C07FCD5D2
:1046FC00A02313739D4A9368D807FCD5137B9B4A60
:10470C008BF8793893689907FCD500231373974A73
:10471C009368DB07FCD5137B944A8BF87A38936843
:10472C0013F08003FBD1924A4FF4805191610C93AA
:10473C000C9B272B05DC0C9B01330C930C9B272B20
:10474C00F9DD8A4BDA689B68894B4FF080529A618D
:10475C0000230D930D9B272B05DC0D9B01330D9333
:10476C000D9B272BF9DD814A93689F07FCD501230C
:10477C0013737E4A9368DE07FCD5137B7B4A8BF858
:10478C007B3893689C07FCD5E0231373774A9368B6
:10479C00D807FCD5137B754A8BF87C38936899073E
:1047AC00FCD500231373714A9368DB07FCD5137B8C
:1047BC006E4A8BF87D38916811F08001FBD16C4BFF
:1047CC004FF480529A610C910C9B272B05DC0C9BAF
:1047DC0001330C930C9B272BF9DD9BF879389BF854
:1047EC007A281B0203F47063134306EE903A9BF88D
:1047FC007C389BF87D281B0203F47063134300F094
:10480C00BC8340F23622934241F3A58040F28152A0
:10481C00934241F3D18040F60602934241F3C180AA
:10482C0040F64B22934241F3D08040F60152934222
:10483C0041F3AE8040F6FF72934241F066801C4615
:10484C0019464C48826842F08042826002689607A2
:10485C00FCD5C26C48489FED496A90ED025ADFEDD9
:10486C00485ADFED484AC2F30B0207EE902AF8EEE5
:10487C00677A77EEC57A67EE867A77EE857A77EE89
:10488C00E55AC0ED027AFCEEE77A65EEA45A17EE13
:10489C00902AABF838289BF87428002A00F0D882AC
:1048AC0007EE903A9FED385AF8EEE77AB7EE006AC9
:1048BC0067EE857AF4EEC67AF1EE10FA40F3518485
:1048CC00F0EE467A2C4B9FED315A1B7BDFED304AD4
:1048DC00022B18BFB0EE615A67EE857AF4EEE45AFB
:1048EC00B7EE006AF1EE10FA36EE676A40F31A84FE
:1048FC00DFED227AF4EEE75AF1EE10FA40F13D8446
:10490C00DEED077AF5EEC07AF1EE10FA09DD9EEDD8
:10491C00076AF5EE007AB4EEE76AF1EE10FA00F1F0
:10492C001C84F1EE007AB4EEE76AF1EE10FAD8BF0F
:10493C00F0EE467AD9F88022C9EDA57A002A3CDB44
:10494C000D4B1B69934238D04FF0FF33C9F87C32C2
:10495C00032A10491346A8BF032303EB431301EBAF
:10496C0083130021C9F8781216E000BF003800400C
:10497C00000402400022014000000020CDCC4C3D40
:10498C0000E0FF440210003A021080398FC2753EDD
:10499C00CDCC4CBD445C0008B749043B53F8040F24
:1049AC0041F8040BB5488142F8D1A0F50463C9F86D
:1049BC007832B34BC9F87C221A61F0EE627A77EE4A
:1049CC00C77A9FEDB06A9BF8703867EE867A37EE3F
:1049DC00277A002B00F0C182DEED017A37EE676A90
:1049EC00B5EEC06AF1EE10FA00F18282DFEDA65A44
:1049FC00B4EEE56AF1EE10FA00F182829BF87138A0
:104A0C00002B40F03986B4EEE77AF1EE10FA05D8B7
:104A1C00B4EE677AF1EE10FA00F0728201238EED9B
:104A2C00027A8BF87138CEED007A954BC3ED057A8E
:104A3C0016EE903AABF82E38ABF830480EED027A01
:104A4C00FFF7C7BA1344C4E5DBF8BC389BF8C028A1
:104A5C00002B40F05E82DBF8AC38002B40F0578323
:104A6C000123CBF8BC38002A7FF404AD0346DBF8F5
:104A7C00AC28D31A41F2707293427FF6FBAC009BC8
:104A8C008DF86C30019B8DF86E30804B1C9300239D
:104A9C008DF86D308DF86F30D9F81030CDF87A3044
:104AAC00D9F81430CDF87E30D9F81830CDF88230E2
:104ABC00D9F81C30CDF88630D9F82030CDF88A30B2
:104ACC00D9F82430CDF88E30D9F82830CDF8923082
:104ADC00D9F82C30CDF89630694B5B69CDF89A300B
:104AEC006B4BCDF876301B9BCDF89E3001238BF8A9
:104AFC00C0380DF175004FF6FF7341F2210110F82B
:104B0C00012F83EA02235A001E0448BF4A40530077
:104B1C00120448BF4B405A001B0448BF4A40530084
:104B2C00170448BF4B405A001E0448BF4A4053006C
:104B3C00120448BF4B405A001F0448BF4A40160499
:104B4C004FEA42030DF1A10248BF4B409042D6D12F
:104B5C005049ADF87430504BC91A013BCA5C03F88C
:104B6C00012F4E4A9342F9D1A301A2F1FF01474A0A
:104B7C00CA5001EB84141D9A62601E9AA2601F9A9F
:104B8C00E260209A2261219A6261229AA261239AA0
:104B9C00E261249A2262259A6262269AA262279A7C
:104BAC00E2620E4603F1320003F13002BDF8A04080
:104BBC00B45201443E334FF0FF3232504A608A60A7
:104BCC00F252374B1A69002A04DA364A5A6002F15B
:104BDC0088325A60324AD368D803FCD4F323D360AA
:104BEC00136923F47E7323F0020343F4067343F03A
:104BFC0002031361136943F480331361284AD368A9
:104C0C00D903FCD41369284C23F0FA0313611369FC
:104C1C0023F4407323F0010343F4007343F00103C6
:104C2C0013611D4B1E4AE41A191F03F1FC0663188D
:104C3C0051F8040F1860D368DB03FCD48E42F6D114
:104C4C0013690F4923F001031361136943F0004307
:104C5C0013619BF84D3801338BF84D38DBF8AC38C9
:104C6C0003F6B833CBF8B038DBF8AC288B6953407B
:104C7C008B61FFF7FFBB00BF9C020010DC0A001029
:104C8C00000000200AD7233D0AD7A33C72383832E3
:104C9C000200280001C00008E4080020E3090020FD
:104CAC00003C02402301674504C000089BF82478AF
:104CBC00B7FA87F67609002A00F099809BF825C888
:104CCC00BCF1000F40F093804FF0010C61458BF864
:104CDC0024088BF825C87FF426AAFCEEE77AD9F8CD
:104CEC00046017EE902A022A38BF0222311F8A4232
:104CFC0028BF0A46D9F808108A428ABF76188A1A41
:104D0C00B21AC9E936210221C9F8082089F8D01055
:104D1C00BB4ED9F8082002274FF0030C8BF884C83F
:104D2C00B7614FF40007B761DBF88868964200F270
:104D3C001B819BF88C68CBF88828002E00F04B85E3
:104D4C006746FFF71ABA0192FFF7B2B9BAF1FE0F34
:104D5C0000F09980AB4BAC4AAC49AD4EAD4FDFF88F
:104D6C00D082DFEDAD7AF3EE046A4FF0FE0AFFF766
:104D7C0065BBFF23FFF75EBAFF23FFF736BAFF23AD
:104D8C00FFF71DBA064699F8D070D9F80820012F04
:104D9C0040F03185DEED0B7ADFEDA06AF4EEE67AB9
:104DAC00F1EE10FA40F1408201278BF89878022935
:104DBC0000F0478208F48051314340F042820F46A4
:104DCC008F4902268E6180268E614FF080768E612F
:104DDC009BF88C68CBF88828002E00F0CB80013E25
:104DEC00F6B20121FFF7CBB90121FFF757B98BF8C8
:104DFC002528012291428BF8242800F05E819BF833
:104E0C008478012F4FF0000C7FF492A9D9F8081088
:104E1C00DBF89C289142C0F0E684BCF1000F40F016
:104E2C00AB848F1AFCEEE77A17EE902ABA4240F266
:104E3C0097849BF88478002E00F07D840126CBF8B3
:104E4C009C18C9F8D4100A4689F8D0606C4947E11F
:104E5C00DFED737AF4EEE75AF1EE10FA71DDF4EE51
:104E6C00C65AF1EE10FA6CD50B4640F6FF7293421F
:104E7C00A8BF134607EE903A9FED6A6AF8EEE77A00
:104E8C0067EE867A9BE5CDF808C0FFF7ECBA664A68
:104E9C00936983EA433383EA534383EA431313F05E
:104EAC00010108BF4FF4803113F0020F936118BF5A
:104EBC000227534A08BF4FF4003713F0040F14BFF6
:104ECC0080264FF4000613F0080F916114BF4FF4C5
:104EDC0080714FF0807113F0100F14BF4FF400630A
:104EEC004FF000639761966191619361FFF7B3B9DD
:104EFC00DFED4E5AB4EEE56AF1EE10FA7FF77EADB7
:104F0C004FF48073F0EE477A8EED027AABF870387E
:104F1C0089E5002A7FF4AEAAA9E50129ABF824089B
:104F2C0000F0CE809BF88478012F00F0F483022FE0
:104F3C0000F0AA84002F3FF425AFD9F80820FFF722
:104F4C0002B9F8EEE67A67EEA57AFDEEE77A17EE8F
:104F5C00903A5B183FF531AD87E7F0EE477A8EED6E
:104F6C00007A8EED027A60E56746CBF88828012638
:104F7C00FFF705B90121FFF709B91C4661E4032FBE
:104F8C007FF404A900F027BCB1EB860F4FEA860230
:104F9C0017D09E18B77A0DEB020686F87070561C67
:104FAC00B6B2B1420DD99F19023292B26E44BF7A99
:104FBC0086F87070914204D913446A449B7A82F843
:104FCC007030104B104A1149114E124FDFF86080AF
:104FDC00DFED117AA246F3EE046AFFF72FBA99F8C7
:104FEC00D020012A26D1BCF1000F2DD1D9F80820F0
:104FFC00002E40F03D8402494FF40036E2E600BF3B
:10500C00000002400000204300000C430000F0426E
:10501C000000C8420000A042000020426F12033C76
:10502C00CDCC4CBD01088039000000200AD7A3BCB0
:10503C0000007042D9F80820C9F8D420012289F860
:10504C00D020BCF1000FD1D0D9F80460DBF89C283B
:10505C00DBF8A018B24224BFB2FBF6F706FB17220E
:10506C00B14224BFB1FBF6F706FB17118A4200F0E0
:10507C003084D04EC9F80820C9E936214FF4003CE1
:10508C000221032789F8D0108BF88478C6F818C051
:10509C004FF0800CC6F818C04FF0807CC6F818C0D2
:1050AC00DBF88868B242FFF460AF9BF88C68CBF8F1
:1050BC008828002E7FF461A88DE3002F00F0CE80AD
:1050CC009BF8842899F8D010032A00F0CF8001298E
:1050DC0040F0C480D9F80820B64900278BF88478B2
:1050EC004FF400368E6180268E614FF480768E618F
:1050FC006EE60646E8E59BF8B638019A93427FF4D3
:10510C00B3A89BF8B7289BF8B838FFF7B2B8DBF810
:10511C00AC38CBF8BC38002A7FF4ACA9002B3FF498
:10512C00A9A9A4E49FEDA45ADFEDA44AF8EEE67A0F
:10513C0067EE857A9FEDA25A67EEA57A67EEA47AA0
:10514C00F4EEC57AF1EE10FA23D8DEED077AF5EE1F
:10515C00C07AF1EE10FA3FF7DAABF5EE007AFFF712
:10516C00E9BB9FED986AF4EEC67AF1EE10FA7FF582
:10517C00A9ABF0EE627AFFF7A5BBF8EEE67ADFEDAD
:10518C008E4A9FED8E5A67EEA47A67EEA57A67EE8B
:10519C00857ADFED8D5AF4EEE57AF1EE10FAB8BFB0
:1051AC00F0EE675AFDEEE57A17EE903AF8EEE77AF4
:1051BC0075EEE75AF5EEC05AF1EE10FA40F1908216
:1051CC00B7EE005A75EE855ADFED827ADFED824A32
:1051DC00DFED833A9FED814A65EEA77A7E3377EE59
:1051EC00A47ADFED804A67EEA57ADB0577EEA37A29
:1051FC0067EEA57A77EE847A67EEA57A77EEA47AD5
:10520C0067EEA57A05EE903A77EE857A67EEA57A89
:10521C0026EE276ADEED077AF5EEC07AF1EE10FA8B
:10522C003FF775ABFFF775BB9BF89878002F3FF4F1
:10523C00BEADDFED646AF4EEE67AF1EE10FA7FF7BC
:10524C00B6AD01270021CBF89C28C9F8D42089F8E9
:10525C00D0708BF884788BF89818B1E5D9F80820C1
:10526C00C9F8D420012189F8D01035E701297FF441
:10527C004FAD2FE7F1EE667AFFF716B9F4EEC87A68
:10528C00F1EE10FA3EF5A1AECDE9005A4FF0000C4C
:10529C0067EE803AB0EE623A664606EE906ADFED53
:1052AC004C5AF8EEE64AB0EE655A74EE864A002186
:1052BC0018E003F1010A524558D915ED019A39EE5F
:1052CC00669A29EE299A79EE266A6AEE266A2AEE01
:1052DC000A9A0231B1F5407F35EE265A75EE895A9D
:1052EC0000F0828006EE901AF8EEE69A34EEA99A57
:1052FC00FCEEC96A16EE903A934224BFB3FBF2F56A
:10530C0002FB15339C422CBFE31AFB1AF8EE666ABB
:10531C0000EB8305012B79EE666A95ED00AA35D971
:10532C0003F1010A524531D915ED019A39EE4A9A29
:10533C0069EE266A36EE8AAA34EE299AFCEEC96A20
:10534C0016EE903A934224BFB3FBF2F502FB1533F1
:10535C009C42F8EE666A2CBFE31AFB1A00EB83053D
:10536C00012B79EE669AD5ED006AA2D8013B1DD4CB
:10537C009A4298BF9B1A00EB830393ED009A39EE87
:10538C00669A29EE299A79EE266A9EE7013B0FD49C
:10539C009A4298BF9B1A00EB830393ED009A39EE67
:1053AC004A9A69EE266A36EE8AAAC5E71344E2E702
:1053BC001344F0E700000240010AA03A5555553F4E
:1053CC000000FCC20AD7A33C0000FE42088FA1EFEC
:1053DC000000000020C2AE3A3C951D3CF0FD753E2D
:1053EC004458633D1872313FF4EEE35AF1EE10FA73
:1053FC0015D4B5EEC05AF1EE10FA00F1CA80F0EEF9
:10540C00456A65EE266A75EE825A86EEA55AB4EEAA
:10541C00C35AF1EE10FA02DDB0EE453AB44604364A
:10542C00B6F5966F7FF439AFF5EE006A67EEA66AB3
:10543C00DDE9005AF4EEC36AF1EE10FA00F33F8195
:10544C0000F2F9821CABACF1030100930CF10403E4
:10545C000193CDE9035A009B0591F0EE606A0E466C
:10546C0004E0019901368E4200F0BC80B6F5966FCF
:10547C00E3EC010AF5D205EE906A5FED2B9ACDF8BC
:10548C0000C0B8EEE5AAB0EE699A3AEE06AA00257D
:10549C003DE001F1010A524557D95CED014A74EE29
:1054AC00EA4A24EE855A75EE2AAA74EE255ABCEE09
:1054BC00E55A15EE101A914224BFB1FBF2FC02FB27
:1054CC001C118C42B8EE455A2CBF611A791A00EBAC
:1054DC00810C012975EEC55A9CED005A45D901F194
:1054EC00010A524541D95CED014A74EEC54A64EE9D
:1054FC00A55A35EE855A6AEE855A02352AEEAA5A15
:10550C00B5F5407F39EE259A79EE859A44D005EEB3
:10551C00905AF8EEE55A7AEE254ABCEEE45A15EEAE
:10552C00101A914224BFB1FBF2FC02FB1C118C42FD
:10553C002CBF611A791AB8EE455A00EB810C01297F
:10554C0034EEC55ADCED00AAA3D801391DD48A4229
:10555C0098BF891A00EB8101D1ED004A74EEEA4A3A
:10556C0024EE855A75EE2AAA9FE701390FD48A4298
:10557C0098BF891A00EB8101D1ED004A74EEC54A3F
:10558C0064EEA55A35EE855AB5E71144E2E71144AD
:10559C00F0E7F1EE456A34E7F4EEE93AF1EE10FA91
:1055AC00DDF800C03FF75DAFB5EEC09AF1EE10FA32
:1055BC0000F18C81F0EE495A29EE259A79EE829A07
:1055CC00C9EE295AF4EEE65AF1EE10FA43ED015AFF
:1055DC007FF747AF0199B44601368E42F0EE656A0B
:1055EC007FF444AF0599ACEB010106EE90CA4B1E5B
:1055FC00042BDDE9035AF8EEE66A15D82CAA02EB67
:10560C00830353ED105A1FED8F6AF4EEC65AF1EE78
:10561C0010FA09DD02EB810313ED0F5AB4EEC65AF2
:10562C00F1EE10FA00F3DA81D9F88832002BBEF6CD
:10563C00CCACC3EE275A1FED9A6AB4EEE66AF1EED3
:10564C0010FAC8BFF0EE466AF7EE007AF4EEE75AAD
:10565C00F1EE10FAD8BFF0EE657AF5EEC07AF1EE05
:10566C0010FA3AD9F1EEE77AC9ED5A7AC9ED5B6ACC
:10567C00C9F88882FEF7A9BC9EED026AF4EEC67AE0
:10568C00F1EE10FA05DBB4EEE77AF1EE10FABFF6A4
:10569C0037ACF4EEC67AF1EE10FA3FF6BFA9B4EED1
:1056AC00E77AF1EE10FA3FF6B9A94FF48073F0EEF9
:1056BC00477A8EED027AABF87038FFF7B4B9F0EE9A
:1056CC00626AD9F88832002BBEF67FACC3EE275A3B
:1056DC00F5EEC05AF1EE10FAB6D55FEDC37AC3E71A
:1056EC005FEDC47A5FEDC44A1FEDC35A1FEDC54A86
:1056FC0065EEA77A7F3377EEA47ADB0567EEA57AA1
:10570C005FEDC84A77EE857AB7EE005A67EEA57A58
:10571C0077EE847A70E5D9F80810DBF89C68FCEE1B
:10572C00E77A8E4217EE902A17D901F5001CACEBE4
:10573C00060C944514D20A4699F8D010C04E4FF47A
:10574C00003CC6F818C04FF0800CC6F818C04FF4D7
:10575C00807CC6F818C0FEF701BD8E1BB242EAD899
:10576C005E0640F1C3800227CBF8A0180A468BF8DE
:10577C00847899F8D010E1E7D9F80460B24203D3E9
:10578C00B2FBF6F706FB1722914200F0A980AC4E53
:10579C00C9F80820C9E936214FF4003C022103273F
:1057AC0089F8D0108BF88478C6F818C04FF0800CAC
:1057BC00C6F818C04FF4807CC6F818C0DBF88868AF
:1057CC00B242FFF4D2AB9BF88C68CBF88828002E41
:1057DC007EF4D3AC02219A4A4FF48076966103276B
:1057EC000026FEF7D3BCBCF1000F0BD101F500175E
:1057FC00BF1AFFF717BB0127C9F8D42089F8D0705E
:10580C00FFF7C8BAD9F80460B242B9D2BFE7F6EED6
:10581C00006AF4EEE67AF1EE10FA54DB77EEE66A03
:10582C00F4EEE67AF1EE10FAF4EEE76A94BF012397
:10583C000023F1EE10FAB8BFF0EE667AF4EEE17ADE
:10584C0083F00108F1EE10FAC9F88C823EF7BDAB7B
:10585C00F2EE006A26EE666AB4EEE76AF1EE10FA32
:10586C003EF7B3ABD9ED547A35EEA76AFEF763BEBB
:10587C0001277349CBF89C28C9F8D42089F8D0703B
:10588C008BF88478FFF7B8BB99F8D020012AD9F8A7
:10589C0008203FF4B0AB0121C9F8D42089F8D0100E
:1058AC00FFF7A9BB6649CBF89C2801270226C9F84B
:1058BC00D42089F8D0708BF884788E614FF4000670
:1058CC008E61FFF785BA77EEA66AA9E7F1EE495A21
:1058DC0072E60327D9F808208BF88478FFF78BBB86
:1058EC00032799F8D0108BF8847827E7D9F804703F
:1058FC00022A38BF02223E1FB24228BF32468A42D9
:10590C008ABF7F188A1ABA1A41E76FF450679FED65
:10591C004D5ADFED4D5ADFED4D4ADA1907EE902A5C
:10592C00B8EEE76A9FED4A4AC6EE247ADFED494AA3
:10593C009FED496A67EE857A77EEA57A77EEC47AA1
:10594C0067EEA47A67EE867AFCEEE77A17EE901A89
:10595C000C46FEF776BF9FED415ADFED3D5ADFED69
:10596C00404A1A46DAE79A7B8DF874200526042201
:10597C00FFF719BB09331CAACE1813F8017F02F8E4
:10598C00017B9E42F9D128297FF41BABFEF72EBD7B
:10599C009FED345ADFED345ADFED344AA3F64B2237
:1059AC00BCE76FF4B06C9FED325ADFED325ADFED8D
:1059BC00324A03EB0C02B1E79FED2D5ADFED2F5A63
:1059CC00DFED2F4AA3F23622A8E79FED1E5ADFED3A
:1059DC002D4AF7EE005AA3F606029FE702EB81016F
:1059EC0011ED106ADFED284A36EE066A35EEC66A0E
:1059FC0036EE056AB4EEE46AF1EE10FA7FF514AEF9
:105A0C0075EEC55AB6EE005A65EE855AFFEE004AA1
:105A1C0085EE865AB4EEE45AF1EE10FA7FF704AE36
:105A2C00B7EE006AB4EEC65AF1EE10FA7FF5FCAD93
:105A3C0076EE856AF8E506EE90CAF8EEE66A40E680
:105A4C0000000240D0CC4C3E3333B33F00403F44C7
:105A5C00CDCCCC3E5555553F00F07F45CECC4C3E81
:105A6C0000800D44C8CC4C3E9A99993F00802D443F
:105A7C00CCCC4C3ECDCC4C3F004021449A99193FA4
:105A8C0000C0524400401144CCBC8CABDFF834D085
:105A9C00FDF76AFB0C480D490D4A002302E0D4586F
:105AAC00C4500433C4188C42F9D30A4A0A4C00235C
:105ABC0001E013600432A242FBD3FDF753FBFDF768
:105ACC0061FB704700000320000000202000002034
