:020000040800F2
:100000000000032009520008595200085952000804
:1000100059520008595200085952000800000000C7
:10002000000000000000000000000000595200081D
:1000300059520008000000005952000859520008A7
:1000400059520008595200085952000859520008E4
:1000500059520008595200085952000859520008D4
:1000600059520008595200085952000859520008C4
:1000700059520008595200085952000859520008B4
:1000800059520008595200085952000859520008A4
:100090005952000859520008595200085952000894
:1000A0005952000859520008595200085952000884
:1000B0005952000859520008595200085952000874
:1000C0005952000859520008595200085952000864
:1000D0005952000859520008595200085952000854
:1000E0005952000859520008595200085952000844
:1000F0005952000859520008595200085952000834
:100100005952000859520008595200085952000823
:100110005952000859520008595200085952000813
:1001200059520008A91800085952000859520008ED
:1001300059520008595200085952000859520008F3
:1001400059520008595200085952000859520008E3
:1001500059520008595200085952000859520008D3
:1001600059520008595200085952000859520008C3
:100170005952000859520008595200080000000066
:1001800059520008595200085952000859520008A3
:100190005952000859520008595200085952000893
:0C01A0005952000859520008595200083A
:1001AC0065494A68B5EEC00A07EE902AF1EE10FADE
:1001BC00F8EE677A0DD530EE270AB5EEC00AF1EEEF
:1001CC0010FAF8D4B4EEE70AF1EE10FA06DB30EED2
:1001DC00670AB4EEE70AF1EE10FAF8DAFDEEC07A2F
:1001EC00096817EE903AF8EEE77A30EE670A0028C5
:1001FC0064D0581E1BD4824298BF801A01EB800039
:10020C009A4290ED004A74D901EB8300D0ED004A7C
:10021C00581C824298BF801A01EB800090ED007A46
:10022C0002339A42184618D81046181A15E0104492
:10023C0001EB800090ED004A002B6FD0981801EB79
:10024C008000D0ED004A581C65D0104401EB8000B2
:10025C00023390ED007AE4D0D01801EB800191EDDF
:10026C00006AF0EE047A76EE446A34EEC75A64EE15
:10027C00A77AF6EE005AB7EE083A77EE073A74EE24
:10028C00677A66EEA56A25EE035A77EEA37A26EE18
:10029C00256A76EE856A77EEC67A66EE806A37EE68
:1002AC00447A77EEA67A27EE257A67EE807A77EE97
:1002BC00877A27EE800A30EE240A7047834203F1D6
:1002CC00010C1DDB9A4298BF9B1A01EB830393ED43
:1002DC00007A6046824298BFACEB020001EB8000D2
:1002EC00D0ED007A77EEC77A27EE800A30EE070A57
:1002FC007047981A01EB8000D0ED004A581C88E733
:10030C00134401EB830393ED007ABCF1000FE1D0B1
:10031C0002EB0C00E2E752B108467FE7002A7FF4BB
:10032C0073AFD1ED004A91ED017A02237CE791ED98
:10033C00007A012379E700BF00000010274AD2EDB4
:10034C00027A5068F8EE677A07EE100A37EEC00AA8
:10035C00B8EE477AB5EEC00AF1EE10FA0DD530EED4
:10036C00070AB5EEC00AF1EE10FAF8D4B4EEC70ADB
:10037C00F1EE10FA06DB30EE470AB4EEC70AF1EEE6
:10038C0010FAF8DAFDEEC07A116817EE903AF8EE32
:10039C00E77A002B70EE677A03F1010215DB9842C5
:1003AC0098BF1B1A01EB830393ED000A904213468E
:1003BC0098BF131A01EB830191ED007A37EE407A66
:1003CC0067EE277A37EE800A7047034401EB83030C
:1003DC0093ED000A8318002AECD1E7E70000001027
:1003EC0000EB820C012A00B5DCED006A0ED902F19B
:1003FC00010E8E450AD21CED017A002B64D137EE2A
:10040C00667A27EE007A37EE260A00BDB2F1010CAF
:10041C0049D4614598BFACEB010C00EB8C0C9CED06
:10042C00007A002BEBD0531C994298BF5B1A00EB5F
:10043C008303012A93ED005AA2F1020342D09942A0
:10044C0098BF5B1A00EB8300D0ED005AB0EE046A43
:10045C0075EEC57A36EEC74A26EE866AF6EE004A87
:10046C00F7EE083A24EE234A67EEA47A77EE073AC1
:10047C0035EE466A77EE847A36EE236A65EEA45A38
:10048C0067EE807A36EE656A37EE457A77EE867AD5
:10049C0027EE247A67EE807A77EE877A67EE807A99
:1004AC0037EEA60A00BD8C4400EB8C0C9CED007A58
:1004BC00002BA4D0931E013237D50A4400EB8202E4
:1004CC0092ED005A0B44BDE7DCED014A5CED025A9B
:1004DC00B0EE046A75EEE47A36EEC74A26EE866A0A
:1004EC00B6EE005AF7EE083A24EE234A67EE857A08
:1004FC0077EE073A34EEC66A77EE847A36EE236AE4
:10050C0065EE855A67EE807A36EE656A37EE647A68
:10051C0077EE867A27EE057A67EE807A77EE877A21
:10052C0067EE807A37EEA60A00BD914298BF521A48
:10053C0000EB820292ED005A0B4483E72DE9F04F59
:10054C002DED028BF5EEC00AF1EE10FA8BB00546DC
:10055C0000F1F984F7EE007AF4EEE70AF1EE10FA06
:10056C00C8BFF0EE670AE14CD4ED326AD4ED337AB1
:10057C0094ED307AD4ED315A94ED2C6A77EEE67A1C
:10058C0067EEA07A77EEA67A77EEC77A67EEA57A51
:10059C0077EE877AB4EE676AF1EE10FAC4ED307A32
:1005AC0040F0F682D4F8B430002B40F0F182206F8A
:1005BC00216B676F666B94ED2F7A421A67EB06031B
:1005CC0052EA030C27D007EE902A9FEDC96AF8EE89
:1005DC00676A07EE903A66EE866AF8EEE77A77EE8F
:1005EC00A67A67EE877AFDEEE76AB8EEE66A16EE53
:1005FC0090CA77EEC67AB0EE676ABEEEE06A16EE87
:10060C00103ADA17DB184CEB420253EA020C40F0BA
:10061C004984C4E90C07A06FA16BE76FE66B421A23
:10062C0067EB060352EA030C27D007EE902A9FEDE6
:10063C00B06AF8EE676A07EE903A66EE866AF8EEF4
:10064C00E77A77EEA67A67EE877AFDEEE76AB8EE80
:10065C00E66A16EE90CA77EEC67AB0EE676ABEEE20
:10066C00E06A16EE103ADA17DB184CEB420253EA4A
:10067C00020C40F01084C4E90E07D4F88000216C01
:10068C00D4F88470666C421A67EB060352EA030CCA
:10069C0027D007EE902A9FED966AF8EE676A07EE70
:1006AC00903A66EE866AF8EEE77A77EEA67A67EE0F
:1006BC00877AFDEEE76AB8EEE66A16EE90CA77EE38
:1006CC00C67AB0EE676ABEEEE06A16EE103ADA173A
:1006DC00DB184CEB420253EA020C40F0D683C4E91F
:1006EC001007D4F88800A16CD4F88C70E66C421A10
:1006FC0067EB060352EA030C27D007EE902A9FED16
:10070C007C6AF8EE676A07EE903A66EE866AF8EE57
:10071C00E77A77EEA67A67EE877AFDEEE76AB8EEAF
:10072C00E66A16EE90CA77EEC67AB0EE676ABEEE4F
:10073C00E06A16EE103ADA17DB184CEB420253EA79
:10074C00020C40F09C83C4E91207D4F89000216D90
:10075C00D4F89470666D421A67EB060352EA030CE8
:10076C0027D007EE902A9FED626AF8EE676A07EED3
:10077C00903A66EE866AF8EEE77A77EEA67A67EE3E
:10078C00877AFDEEE76AB8EEE66A16EE90CA77EE67
:10079C00C67AB0EE676ABEEEE06A16EE103ADA1769
:1007AC00DB184CEB420253EA020C40F06283C4E9C2
:1007BC001407D4F89800A16DD4F89C70E66D421A19
:1007CC0067EB060352EA030C27D007EE902A9FED45
:1007DC00486AF8EE676A07EE903A66EE866AF8EEBB
:1007EC00E77A77EEA67A67EE877AFDEEE76AB8EEDF
:1007FC00E66A16EE90CA77EEC67AB0EE676ABEEE7F
:10080C00E06A16EE103ADA17DB184CEB420253EAA8
:10081C00020C40F02883C4E91607D4F8A000216E1E
:10082C00D4F8A470666E421A67EB060352EA030C06
:10083C0027D007EE902A9FED2E6AF8EE676A07EE36
:10084C00903A66EE866AF8EEE77A77EEA67A67EE6D
:10085C00877AFDEEE76AB8EEE66A16EE90CA77EE96
:10086C00C67AB0EE676ABEEEE06A16EE103ADA1798
:10087C00DB184CEB420253EA020C40F0EE82C4E966
:10088C001807D4F8A800A16ED4F8AC70E66E421A22
:10089C0067EB060352EA030C30D007EE902A9FED6B
:1008AC00146AF8EE676A07EE903A66EE866AF8EE1E
:1008BC00E77A77EEA67A67EE877ABDEEE77AF8EEFE
:1008CC00C76A17EE10CA77EEE67AF0EE676AFEEEAC
:1008DC00E06A16EE903ADA17DB184CEB420253EA58
:1008EC00020C40F0B482C4E91A0707E000000010C3
:1008FC000000802F0000000000002043D4E901120A
:10090C0094F8D030012B02F1010940F03E82D4ED75
:10091C004A7AD4ED4D6AB7EE007AF4EEC77AF1EE6E
:10092C0010FA20EE260A09DA94ED4B7A30EE470ADB
:10093C0020EE270A30EE070A84ED4B0AD4F83C610E
:10094C00002E00F3BB822668894506EB820380F0FB
:10095C00B08209EB010AC846626B83ED000A002ADB
:10096C00B8BF0022236B94F83071C4F80890B8BF5C
:10097C000023002A40F0EB8201291FED220A00F22D
:10098C007F84A8EB02023B463046FFF729FDE26B61
:10099C00A36B8DED020A002ABCBF00220023002AA3
:1009AC0040F0EA8201291FED2D0A00F27D84A8EBAC
:1009BC0002023B463046FFF713FD626C236C8DED53
:1009CC00030A002ABCBF00220023002A40F0E9825F
:1009DC0001291FED380A00F26584A8EB02023B46A0
:1009EC003046FFF7FDFCE26CA36C8DED040A002A87
:1009FC00BCBF00220023002A40F0E88201291FED31
:100A0C00430A00F24D84A8EB02023B463046FFF746
:100A1C00E7FC626D236D8DED050A002ABCBF002238
:100A2C000023002A40F0E78201291FED4E0A00F254
:100A3C003584A8EB02023B463046FFF7D1FCE26D51
:100A4C00A36D8DED060A002ABCBF00220023002AEC
:100A5C0040F0E68201291FED590A00F21D84A8EB33
:100A6C0002023B463046FFF7BBFC626E236E8DEDF7
:100A7C00070A002ABCBF00220023002A40F0E582AE
:100A8C0001291FED640A00F20584A8EB02023B4623
:100A9C003046FFF7A5FCE26EA36E8DED080A002A26
:100AAC00BCBF00220023002A40F0E48201291FED84
:100ABC006F0A00F2E783A8EB02023B463046FFF7D1
:100ACC008FFC8DED090AD4ED397ADDED026A94EDD7
:100ADC00417A9DED036ADDED054A9DED065ADDED8B
:100AEC00075A67EEA67ADDED046A67EE877AC5EDE4
:100AFC00007AD4ED3A7A94ED427A67EE867A9DEDDF
:100B0C00086A67EE877AC5ED017AD4ED3B7A94EDED
:100B1C00437A67EEA67A67EE877AC5ED027A94ED92
:100B2C003C7AD4ED446ADDED097A27EE247A27EE7F
:100B3C00267A85ED037A94ED3D7AD4ED456A27EE5D
:100B4C00057A27EE267A85ED047A94ED3E7AD4ED7B
:100B5C00466A27EE257A27EE267A85ED057A94EDFE
:100B6C003F7AD4ED476A27EE067A27EE267A85ED92
:100B7C00067AD4ED406A94ED487A67EEA67A67EE71
:100B8C00877AC5ED077A0BB0BDEC028BBDE8F08F10
:100B9C001FEDA73AD4ED046A94ED056AD4ED0B2A47
:100BAC00C4ED2C7A86EE837AC6EE034AD4ED066A3F
:100BBC0094ED076AC6EE833A86EE035AD4ED086AC2
:100BCC0094ED096A86EE834AD4ED0A6AC6EE035A9E
:100BDC0086EE836AC2EE836A94ED2E3A27EE037A90
:100BEC0064EE834A27EE277A64EEA74A25EE035A71
:100BFC00FDEEC72ABDEEE42A25EE275A66EE836A7F
:100C0C00FDEEC50A63EE833A24EE034A65EE835A81
:100C1C00F8EEE21A26EE036AB8EEC23A37EE617AC3
:100C2C0074EEC34AB8EEE03A63EEA73A35EE435A97
:100C3C00B0EE473ABDEEE31A24EE274ABEEEE03A98
:100C4C0065EEA75A26EE276AFDEEC41A66EEA77A61
:100C5C0013EE103AF8EEC16AB0EE643ABEEEE03A2A
:100C6C0012EE902AD81873EEE63AB8EEE17A4FEA13
:100C7C00E37342EB430313EE101A0022801834EE98
:100C8C00474AB0EE637ABEEEE07A63672067CB1713
:100C9C0012EE100A49185B41184417EE103A8918E5
:100CAC00B0EE457ABEEEE07AA167D917DB18BDEE3F
:100CBC00E58A4941E0679B1811EE100AC4F88030B0
:100CCC0017EE103A0144F8EEC84AB0EE447ABEEE84
:100CDC00E07AC4F88410D917DB18FDEEC66A75EEFD
:100CEC00E45A10EE900A49419B18C4F8883017EE6C
:100CFC00103A0144F8EEE64AB0EE657ABEEEE07AC0
:100D0C00C4F88C10D917DB18BDEEE73A36EE646ADE
:100D1C0011EE900A49419B18C4F8903017EE103A26
:100D2C000144F8EEC34AB0EE467ABEEEE07AC4F85F
:100D3C009410D917DB1818EE100A494177EEE47AB3
:100D4C009B18C4F8983017EE103A0144B0EE677A4D
:100D5C00BEEEE07AC4F89C10D917DB1816EE900A98
:100D6C0049419B18C4F8A03017EE103A014413EE19
:100D7C00100AC4F8A410D917DB1840EB41019B18DA
:100D8C00C4E92A31C4F8B42011E4D4E93603894506
:100D9C0028BF4FF000095A184B45A2EB0002A3EBF9
:100DAC00000B0ABF8146A9EB000C4FF0000C9842D7
:100DBC0088BF9346266894F83071C4F8089009EB04
:100DCC000108BBF1000F00F06D8148459FEDB13A71
:100DDC0000F21382DFF8C4A2CDE900050DF108087A
:100DEC000AF14009654618E05D459FEDAD0A80F0BB
:100DFC006882BBF1010F2A4640F06A82121A009BEE
:100E0C001A448A4200D3521A3B463046FFF7E8FA9E
:100E1C00D145A8EC010A00F06A825AF8082FDAF8DA
:100E2C000430002BAEBF18460020002203460028D9
:100E3C00DAD007EE902AB8EE670A5D4520EE030A79
:100E4C00C0F03782B5FBFBF20BFB125232E2C91831
:100E5C0046EB0206C4E91A1650E5C91846EB020621
:100E6C00C4E918160DE5C91846EB0206C4E91616B6
:100E7C00D3E4C91846EB0206C4E9141699E4C91860
:100E8C0046EB0206C4E912165FE4C91846EB0206EB
:100E9C00C4E9101625E4C91846EB0206C4E90E167F
:100EAC00FFF7EBBBC91846EB0206C4E90C16FFF7BB
:100EBC00B2BB4FF000098A46C8464DE5D4F8403124
:100ECC009FED756A83EA433383EA534383EA431302
:100EDC0083EA433080EA504080EA40101B0AC4F891
:100EEC004001000A07EE903A07EE100AF8EEE77A96
:100EFC00B8EEC77A013E0123B34077EE877A07EE4E
:100F0C00103A67EE867AB8EEC77AF7EE006A77EE9B
:100F1C00E67A20EE070AF6EE006A77EE807AF5EEB6
:100F2C00C07AF1EE10FAC0F2C18177EEA67AFDEE2E
:100F3C00E77A2668F8EEE77A894587EE870A06EBAA
:100F4C008203B6D205E5DFED560AFFF70CBB07EEC0
:100F5C00903AB8EE670ADFED4F7A8A4220EE270A04
:100F6C0024BFB2FBF1F301FB1322424588BFAAEB6D
:100F7C0002023FF608AD04E507EE903AB8EE670AB8
:100F8C00DFED447A8A4220EE270A24BFB2FBF1F34C
:100F9C0001FB1322424588BFAAEB02023FF609ADC2
:100FAC0005E507EE903AB8EE670ADFED3A7A8A4229
:100FBC0020EE270A24BFB2FBF1F301FB13224245BA
:100FCC0088BFAAEB02023FF60AAD06E507EE903A9F
:100FDC00B8EE670ADFED2F7A8A4220EE270A24BF8B
:100FEC00B2FBF1F301FB1322424588BFAAEB0202CC
:100FFC003FF60BAD07E507EE903AB8EE670ADFED6A
:10100C00257A8A4220EE270A24BFB2FBF1F301FBBA
:10101C001322424588BFAAEB02023FF60CAD08E54D
:10102C0007EE903AB8EE670ADFED1A7A914220EE9D
:10103C00270A9CBFB2FBF1F301FB1322424588BF88
:10104C00AAEB02023FF60DAD09E507EE903AB8EEB9
:10105C00670ADFED107A914220EE270A9CBFB2FBA3
:10106C00F1F301FB1322424588BFAAEB02023FF6C3
:10107C000EAD0AE507EE903AB8EE670ADFED057A99
:10108C008A4220EE270AC0F0FE80B2FBF1F301FB8E
:10109C001322F8E00000802F00008033280000109D
:1010AC0000000000626B236B002ABCBF00220023EF
:1010BC00002A40F0268101291FED070A00F2358134
:1010CC00A9EB02023B463046FFF78AF9E26BA36BB1
:1010DC008DED020A002ABCBF00220023002A40F03A
:1010EC009C8101291FED120A00F2AD81A9EB0202CD
:1010FC003B463046FFF774F9626C236C8DED030AA6
:10110C00002ABCBF00220023002A40F07281012972
:10111C001FED1D0A00F29581A9EB02023B463046F9
:10112C00FFF75EF9E26CA36C8DED040A002ABCBFDC
:10113C0000220023002A40F0488101291FED280AD3
:10114C0000F28581A9EB02023B463046FFF748F9D5
:10115C00626D236D8DED050A002ABCBF00220023B1
:10116C00002A40F01E8101291FED330A00F26D8127
:10117C00A9EB02023B463046FFF732F9E26DA36D54
:10118C008DED060A002ABCBF00220023002A40F085
:10119C00F48001291FED3E0A00F25D81A9EB0202E9
:1011AC003B463046FFF71CF9626E236E8DED070A45
:1011BC00002ABCBF00220023002A40F0CA8001296B
:1011CC001FED490A00F24581A9EB02023B4630466D
:1011DC00FFF706F9E26EA36E8DED080A002ABCBF7C
:1011EC0000220023002A40F0A28001291FED540A9E
:1011FC0000F23381A9EB02025FE40095DFF86CA2E8
:10120C00A8EB00080DF10809054619E0D8459FED3B
:10121C00940A64D2BBF1010F404603D001238342F0
:10122C0088BF5844C31AEA188A4228BF521A3B4650
:10123C003046FFF7D5F88B4BA9EC010A9A4559D0EB
:10124C005AF8080FDAF80420002AAEBF1346002320
:10125C0000201A46002BD9D007EE900AD845B8EEDC
:10126C00670A2ABFB8FBFBF040460BFB10805B45BE
:10127C0020EE030A24BFB3FBFBF30BFB1323CEE7D7
:10128C00012272E60122424588BFAAEB02023FF618
:10129C0014AC10E40122E6E60122CFE60122B8E606
:1012AC000122A1E601228AE6012273E677EEE67AB4
:1012BC003DE62A465B450CD3B3FBFBF00BFB103031
:1012CC0007E0BBF1010F1AD0B5FBFBF20BFB12527E
:1012DC0001208242BFF492AD5A44121A8FE5BBF141
:1012EC00010F0AD0B8FBFBF00BFB108096E7019DB9
:1012FC00FFF7E9BB009DFFF7E6BB184692E70246F5
:10130C007CE507EE903AB8EE670ADFED577A91422A
:10131C0020EE270A9CBFB2FBF1F301FB132291458F
:10132C00BFF4CEAEA8EB0202CCE60122F7E707EE43
:10133C00903AB8EE670ADFED4C7A8A4220EE270A23
:10134C0024BFB2FBF1F301FB13229145FFF4B3ABC5
:10135C0050E707EE903AB8EE670ADFED437A914218
:10136C0020EE270A9CBFB2FBF1F301FB132291453F
:10137C00BFF42AAFA8EB020228E707EE903AB8EECA
:10138C00670ADFED397A914220EE270A9CBFB2FB47
:10139C00F1F301FB13229145BFF400AFA8EB02025D
:1013AC00FEE607EE903AB8EE670ADFED2F7A91422F
:1013BC0020EE270A9CBFB2FBF1F301FB13229145EF
:1013CC00BFF4D6AEA8EB0202D4E607EE903AB8EE24
:1013DC00670ADFED257A914220EE270A9CBFB2FB0B
:1013EC00F1F301FB13229145BFF4ACAEA8EB020262
:1013FC00AAE607EE903AB8EE670ADFED1B7A914247
:10140C0020EE270A9CBFB2FBF1F301FB132291459E
:10141C00BFF482AEA8EB020280E607EE903AB8EE7B
:10142C00670ADFED117A914220EE270A9CBFB2FBCE
:10143C00F1F301FB13229145BFF458AEA8EB020265
:10144C0056E60122E3E70122F5E70122B7E7012284
:10145C00C9E701228BE701229DE7012275E700BF56
:10146C0000000000680000100000802F2800001011
:10147C0010B5A14CD4ED527AF7EE001A71EEE71AC2
:10148C002DED028BF5EEC01AF1EE10FA94ED538AA5
:10149C0084B000F1BA80B0EE617ADFED987AD4EDC9
:1014AC00026AD4ED545AB4EEE77AF1EE10FAF8EE83
:1014BC00666A00F1E98094ED551A9FED917A9FEDE3
:1014CC00916AF6EE007A21EE077AB4EEE71AF1EEA5
:1014DC0010FA27EE066A80F29580B5EEC06AF1EE3E
:1014EC0010FA31EE272A18DAFEEE007A77EE867AB9
:1014FC009FED855A9FED856AFDEEE77AF8EEE77A67
:10150C0067EE857A37EE677AB4EEC67AF1EE10FAAA
:10151C007EDDDFED7B7A37EEC77A67EE077ADFED9B
:10152C007C2A9FED7C6ADFED7C4A9FED7C5ACDEDE9
:10153C00035A67EEA22A28EE010A72EEC62AB7EE0B
:10154C00006A62EEA72A30EE250A72EEA42A012068
:10155C0062EEA72A8DED016A72EEC52A94ED565AF9
:10156C00CDED026A62EEA72A30EE050A72EE862AEB
:10157C0036EEC00A62EE872A62EEA22A76EE620A84
:10158C00FEF70EFEDDED035AD4ED577ADDED026A5F
:10159C0028EE022A62EE802A32EE252A012032EE53
:1015AC00272A36EEC20AFEF7FBFDC1EE887A9DEDC6
:1015BC00016A77EE817A20EE800AF4EEC67AF1EEBB
:1015CC0010FA30EE220A30DBD4F86431002B53D100
:1015DC00D4F86021C4F858214FF0FF33C4F86431BB
:1015EC00B7EE007A77EEC77AF4EEC77AF1EE10FA1E
:1015FC00F8DA0123C4F86831C4ED557A04B0BDECB7
:10160C00028B10BD31EE672A70E7B1EE617A44E7C8
:10161C00DFED437AB4EEE77AF1EE10FA7FF57DAFA9
:10162C00DFED407A37EEC77A77E7F5EEC07AF1EE68
:10163C0010FA4FF000033BD4B6EE007AB4EEC71AA2
:10164C00F1EE10FAF4EEC77AACBF01210021F1EEF5
:10165C0010FAACBF012200229142CDD0D4F8642103
:10166C00012A08BFD4F86031C4F85C314FF0FF3266
:10167C00C4F864210023BDE700224FF0FF33C4F807
:10168C005821C4F86431ABE7B6EE000A28EE000A24
:10169C004FF0FF3330EE250A012036EEC00AC4F8B5
:1016AC00643104B0BDEC028BBDE81040FEF778BD90
:1016BC00D4F86421BAB14FF0FF32C4F85831C4F8F1
:1016CC0064210123C4F86831B7EE007A77EE877A8B
:1016DC00F5EEC07AF1EE10FAF8D4C4ED557A04B0F8
:1016EC00BDEC028B10BDD4F86021C4F858214FF02A
:1016FC00FF33C4F86431E4E70000001017B7D138A9
:10170C00DB0F494083F9223EDB0FC940DB0FC93F99
:10171C0091EE3836470C50398588083CABAA2A3EE6
:10172C00DB0FC9BFDB0F49C0DFF8C0C02E4BDCF8A4
:10173C00002042F48072CCF80020ACF5806C01E003
:10174C00013B44D0DCF81424D207F9D5274A264BA8
:10175C004FF0920CC2F810C0DFF894C001E0013BCE
:10176C002DD0DCF814249207F9D5204A1E4B92692F
:10177C00DFF87CC001E0013B2CD0DCF8142412060D
:10178C00F9D51A4A184BDFF868C0106101E0013B2B
:10179C0023D0DCF814241006F9D5144A124B144843
:1017AC00116101E0013B1BD0D0F814245207F9D58C
:1017BC000E4A136843F400730020136070470B4A01
:1017CC00136843F400736FF00100136070474FF01F
:1017DC00FF3070476FF0020070476FF003007047E6
:1017EC006FF00400704700BF400D03000054004030
:1017FC000050004010B5DFF8A0C0864684B0172218
:10180C0000214FF480644FF080602EFA02F313F045
:10181C00010F0CBF4FF080534FF48053CCF81830AD
:10182C000191019B0B2B05DC019B01330193019B67
:10183C000B2BF9DDCCF818400291029B0B2B05DC2D
:10184C00029B01330293029B0B2BF9DDCCF81800A1
:10185C000391039B0B2B05DC039B01330393039B2D
:10186C000B2BF9DD013AD0D20A4A00234FF4004188
:10187C0091610093009B0B2B05DC009B01330093C3
:10188C00009B0B2BF9DD034B4FF000429A6104B027
:10189C0010BD00BF00000240000802402DE9F04FCF
:1018AC00144B2DED068B1A6851058BB009D4114BD6
:1018BC001A68120500F1C5830BB0BDEC068BBDE8B0
:1018CC00F08FDFF840A00C4A9FED0CAADFED0C9ACC
:1018DC004FF480619960D2ED048AD3460AEB01087B
:1018EC000AF5C0670025B7EE009A0AF698090AF6C1
:1018FC00840427E100640240000000200000003452
:10190C006F12033B18000020B6EE083AF4EEC37ACF
:10191C00F1EE10FA40F3E38177EEC37AF1EE002A90
:10192C0067EEA22A72EE892AC7EEA23A73EE833AC8
:10193C00F4EEC93AF1EE10FA40F3D181B5EEC04A9B
:10194C007E4BC8F80030F1EE10FA00F1E381F6EEB0
:10195C00087AB4EEE74AF1EE10FA40F3F48134EE73
:10196C00674AF1EE003A64EE233A73EE893A84EE5C
:10197C00233A33EE274AB4EEC94AF1EE10FA40F39B
:10198C00E281F5EEC04A6D4BC8F80430F1EE10FA66
:10199C0000F1F481F6EE087AF4EEE74AF1EE10FA73
:1019AC0040F3058274EEE74AB1EE004A24EE844A15
:1019BC0034EE094AC4EE843A73EEA74AF4EEC94AEF
:1019CC00F1EE10FA40F3F381B5EEC05A5B4BC8F858
:1019DC000830F1EE10FA00F10582F6EE087AB4EE5A
:1019EC00E75AF1EE10FA40F3168235EE675AF1EE33
:1019FC00004A65EE244A74EE894A85EE244A34EE98
:101A0C00275AB4EEC95AF1EE10FA40F30482F5EEFF
:101A1C00C05A4A4BC8F80C30F1EE10FA00F116829D
:101A2C00F6EE087AF4EEE75AF1EE10FA40F327825C
:101A3C0075EEE75AB1EE005A25EE855A35EE095A85
:101A4C00C5EE854A74EEA75AF4EEC95AF1EE10FAB7
:101A5C0040F31582B5EEC06A384BC8F81030F1EE81
:101A6C0010FA00F12782F6EE087AB4EEE76AF1EE8E
:101A7C0010FA40F3388236EE676AF1EE005A66EEE1
:101A8C00255A75EE895A86EE255A35EE276AB4EE3C
:101A9C00C96AF1EE10FA40F32682F5EEC06A274BC4
:101AAC00C8F81430F1EE10FA00F13882F6EE087A2C
:101ABC00F4EEE76AF1EE10FA40F3498276EEE76A4B
:101ACC00B1EE006A26EE866A36EE096AC6EE865AD2
:101ADC0075EEA76AF4EEC96AF1EE10FA40F337829C
:101AEC00B5EEC07A154BC8F81830F1EE10FA00F1CB
:101AFC004982F6EE087AB4EEE77AF1EE10FA40F38A
:101B0C005A8237EE677AF1EE006A67EE266A76EE55
:101B1C00896A87EE266A36EE277AB4EEC97AF1EE38
:101B2C0010FA40F34882054BC8F81C3008F1200825
:101B3C0047450BF1200B00F05A8203E0FFFF7F00BA
:101B4C00FEFFFF4ADBF8003043F3170300EE103AB8
:101B5C00B8EEC00A20EE0A0AB5EEC00AF1EE10FA91
:101B6C0000F16486B0EE408ADBF80420D9ED006AFF
:101B7C00DBF8083099ED006A42F3170207EE102AE1
:101B8C0078EE666AB8EEC77A43F3170366EEA96A75
:101B9C0007EE903A27EE0A7A76EE866AF8EEE77A46
:101BAC00B5EEC07AF1EE10FA67EE8A7AC9ED006AEA
:101BBC0001D5B1EE477AF5EEC07AF1EE10FA01D507
:101BCC00F1EE677A94ED006AD4ED006A37EE467A4E
:101BDC00F0EE680A27EE297A02A837EE267A84ED11
:101BEC00007AD4ED016A94ED017A77EEE67A67EE2D
:101BFC00A97A77EE877AC4ED017AFEF79FFC9AF802
:101C0C007038002B40F01686DDED027AB0EE670AD4
:101C1C00B4EEC90AF1EE10FAC0F2F38501239DED82
:101C2C00034AB4EEC94AF1EE10FAC0F2DF85012383
:101C3C00DDED044AF4EEC94AF1EE10FAC0F2CB85A0
:101C4C0001239DED055AB4EEC95AF1EE10FAC0F21B
:101C5C00B7850123DDED065AF4EEC95AF1EE10FA00
:101C6C00C0F2A38501239DED076AB4EEC96AF1EEBB
:101C7C0010FAC0F28F850123DDED086AF4EEC96A13
:101C8C00F1EE10FAC0F27B8501239DED097AB4EEDA
:101C9C00C97AF1EE10FAC0F266850125F5EEC07A2C
:101CAC00F1EE10FAF0EE673A7FF52EAEFEEE087A02
:101CBC00F4EEE73AF1EE10FA11D5F6EE082AF1EE51
:101CCC00633A73EEE23AF1EE007A63EEA77A77EEBE
:101CDC00897A83EEA73A73EE227AF1EE673AFFEE39
:101CEC00007AF4EEE37AF1EE10FA1FED6B3AD8BFFE
:101CFC00F0EE637A67EE837AB5EEC04AFDEEE77AD2
:101D0C00F1EE10FA17EE903A23F07F43C8F800304A
:101D1C007FF51DAEFEEE087AB4EEE74AF1EE10FA4E
:101D2C0011D5B6EE083AB1EE444A34EE434AF1EE20
:101D3C00007A64EE277A77EE897AC4EE273A73EE4E
:101D4C00837AB1EE674AFFEE007AF4EEC47AF1EED4
:101D5C0010FA5FED853AD8BFF0EE447A67EEA37ABD
:101D6C00F5EEC04AFDEEE77AF1EE10FA17EE903A76
:101D7C0023F07F43C8F804307FF50CAEFEEE087AF2
:101D8C00F4EEE74AF1EE10FA11D5F6EE083AF1EE60
:101D9C00644A74EEE34AF1EE007A64EEA77A77EEC9
:101DAC00897A84EEA74A74EE237AF1EE674AFFEE45
:101DBC00007AF4EEE47AF1EE10FA1FED9F4AD8BFE8
:101DCC00F0EE647A67EE847AB5EEC05AFDEEE77AEF
:101DDC00F1EE10FA17EE903A23F07F43C8F8083072
:101DEC007FF5FBADFEEE087AB4EEE75AF1EE10FA91
:101DFC0011D5B6EE084AB1EE455A35EE445AF1EE1D
:101E0C00007A65EE277A77EE897AC5EE274A74EE6A
:101E1C00847AB1EE675AFFEE007AF4EEC57AF1EEF1
:101E2C0010FA5FEDB94AD8BFF0EE457A67EEA47AA6
:101E3C00F5EEC05AFDEEE77AF1EE10FA17EE903A95
:101E4C0023F07F43C8F80C307FF5EAADFEEE087A3C
:101E5C00F4EEE75AF1EE10FA11D5F6EE084AF1EE6F
:101E6C00655A75EEE45AF1EE007A65EEA77A77EED4
:101E7C00897A85EEA75A75EE247AF1EE675AFFEE51
:101E8C00007AF4EEE57AF1EE10FA1FEDD35AD8BFD2
:101E9C00F0EE657A67EE857AB5EEC06AFDEEE77A0C
:101EAC00F1EE10FA17EE903A23F07F43C8F8103099
:101EBC007FF5D9ADFEEE087AB4EEE76AF1EE10FAD2
:101ECC0011D5B6EE085AB1EE466A36EE456AF1EE19
:101EDC00007A66EE277A77EE897AC6EE275A75EE87
:101EEC00857AB1EE676AFFEE007AF4EEC67AF1EE0F
:101EFC0010FADFED605AD8BFF0EE467A67EEA57A9D
:101F0C00F5EEC06AFDEEE77AF1EE10FA17EE903AB4
:101F1C0023F07F43C8F814307FF5C8ADFEEE087A85
:101F2C00F4EEE76AF1EE10FA11D5F6EE085AF1EE7E
:101F3C00666A76EEE56AF1EE007A66EEA77A77EEDF
:101F4C00897A86EEA76A76EE257AF1EE676AFFEE5D
:101F5C00007AF4EEE67AF1EE10FA9FED466AD8BFFD
:101F6C00F0EE667A67EE867AB5EEC07AFDEEE77A29
:101F7C00F1EE10FA17EE903A23F07F43C8F81830C0
:101F8C007FF5B7ADFEEE087AB4EEE77AF1EE10FA13
:101F9C0011D5B6EE086AB1EE477A37EE467AF1EE15
:101FAC00007A67EE277A77EE897AC7EE276A76EEA3
:101FBC00867AB1EE677AFFEE007AF4EEC77AF1EE2C
:101FCC0010FADFED2C6AD8BFF0EE477A67EEA67AEE
:101FDC0008F12008FDEEE77A0BF1200B17EE903A92
:101FEC0023F07F4348F8043C47457FF4ABADDAF867
:101FFC00A0380133CAF8A038002D40F06585DAF816
:10200C00A028DAF8A4389A4280F07085DAF8A02873
:10201C00DAF8A4389A42FFF44AAC94ED007ADFED7A
:10202C00167A164BB4EEE77AF1EE10FACCBF4FF0FD
:10203C0000624FF400629A61114B1A6812057FF529
:10204C003BACDFF84CA00F4A9FED0FAADFED0F9AC7
:10205C004FF400619960D2ED048AD3460AF580658D
:10206C000AF5C0680027B7EE009A0AF698090AF636
:10207C00840404E1FEFFFF4A0AD7A33C000002409F
:10208C000064024000000020000000346F12033B8B
:10209C0018000020F6EE087AB4EEE74AF1EE10FADA
:1020AC0040F3E48134EE674AF1EE003A64EE233AF1
:1020BC0073EE893A84EE233A33EE274AB4EEC94ADA
:1020CC00F1EE10FA40F3D281F5EEC04AE44BC5F8BC
:1020DC000432F1EE10FA00F1E481F6EE087AF4EE37
:1020EC00E74AF1EE10FA40F3F58174EEE74AB1EEEF
:1020FC00004A24EE844A34EE094AC4EE843A73EE64
:10210C00A74AF4EEC94AF1EE10FA40F3E381B5EEBA
:10211C00C05AD34BC5F80832F1EE10FA00F1F58134
:10212C00F6EE087AB4EEE75AF1EE10FA40F30682B6
:10213C0035EE675AF1EE004A65EE244A74EE894A90
:10214C0085EE244A34EE275AB4EEC95AF1EE10FA51
:10215C0040F3F481F5EEC05AC14BC5F80C32F1EEE8
:10216C0010FA00F10682F6EE087AF4EEE75AF1EE78
:10217C0010FA40F3178275EEE75AB1EE005A25EECD
:10218C00855A35EE095AC5EE854A74EEA75AF4EE17
:10219C00C95AF1EE10FA40F30582B5EEC06AB04BA5
:1021AC00C5F81032F1EE10FA00F11782F6EE087A4B
:1021BC00B4EEE76AF1EE10FA40F3288236EE676A65
:1021CC00F1EE005A66EE255A75EE895A86EE255ABE
:1021DC0035EE276AB4EEC96AF1EE10FA40F31682B6
:1021EC00F5EEC06A9E4BC5F81432F1EE10FA00F110
:1021FC002882F6EE087AF4EEE76AF1EE10FA40F374
:10220C00398276EEE76AB1EE006A26EE866A36EE21
:10221C00096AC6EE865A75EEA76AF4EEC96AF1EE43
:10222C0010FA40F32782B5EEC07A8D4BC5F8183200
:10223C00F1EE10FA00F13982F6EE087AB4EEE77A94
:10224C00F1EE10FA40F34A8237EE677AF1EE006A4B
:10225C0067EE266A76EE896A87EE266A36EE277A6C
:10226C00B4EEC97AF1EE10FA40F338827C4BC5F823
:10227C001C322035A8450BF1200B00F04A82DBF80C
:10228C00003243F3170300EE103AB8EEC00A20EE0A
:10229C000A0AB5EEC00AF1EE10FA00F19E83B0EE18
:1022AC00408ADBF80422D9ED006ADBF8083299ED9C
:1022BC00006A42F3170207EE102A78EE666AB8EE4F
:1022CC00C77A43F3170366EEA96A07EE903A27EE36
:1022DC000A7A76EE866AF8EEE77AB5EEC07AF1EE17
:1022EC0010FA67EE8A7AC9ED006A01D5B1EE477A29
:1022FC00F5EEC07AF1EE10FA01D5F1EE677A94EDB5
:10230C00006AD4ED006A37EE467AF0EE680A27EEE2
:10231C00297A02A837EE267A84ED007AD4ED016A88
:10232C0094ED017A77EEE67A67EEA97A77EE877A02
:10233C00C4ED017AFEF702F99AF87038002B40F0E0
:10234C004F83DDED027AB0EE670AB4EEC90AF1EE06
:10235C0010FAC0F22E8301239DED034AB4EEC94A54
:10236C00F1EE10FAC0F21B830123DDED044AF4EE0A
:10237C00C94AF1EE10FAC0F2088301239DED055A0B
:10238C00B4EEC95AF1EE10FAC0F2F5820123DDED7C
:10239C00065AF4EEC95AF1EE10FAC0F2E2820123A9
:1023AC009DED076AB4EEC96AF1EE10FAC0F2CF8265
:1023BC000123DDED086AF4EEC96AF1EE10FAC0F201
:1023CC00BC8201239DED097AB4EEC97AF1EE10FAC4
:1023DC00C0F2A8820127F5EEC07AF1EE10FAF0EE09
:1023EC00673A00F17282B6EE083AF4EEC37AF1EE77
:1023FC0010FA40F3838277EEC37AF1EE002A67EE8F
:10240C00A22A72EE892AC7EEA23A73EE833AF4EE50
:10241C00C93AF1EE10FA40F37182114BC5F8003253
:10242C00B5EEC04AF1EE10FA7FF534AEFEEE087A46
:10243C00B4EEE74AF1EE10FA18D5B6EE083AB1EE62
:10244C00444A34EE434AF1EE007A64EE277A77EE92
:10245C00897AC4EE273A73EE837AB1EE674A05E0C7
:10246C00FFFF7F00FEFFFF4A0AD7A33CFFEE007A76
:10247C00F4EEC47AF1EE10FA5FED063AD8BFF0EE46
:10248C00447A67EEA37AF5EEC04AFDEEE77AF1EEF8
:10249C0010FA17EE903A23F07F43C5F804327FF51B
:1024AC001CAEFEEE087AF4EEE74AF1EE10FA11D506
:1024BC00F6EE083AF1EE644A74EEE34AF1EE007A75
:1024CC0064EEA77A77EE897A84EEA74A74EE237AC3
:1024DC00F1EE674AFFEE007AF4EEE47AF1EE10FAD0
:1024EC001FED204AD8BFF0EE647A67EE847AB5EE21
:1024FC00C05AFDEEE77AF1EE10FA17EE903A23F09F
:10250C007F43C5F808327FF50BAEFEEE087AB4EEC9
:10251C00E75AF1EE10FA11D5B6EE084AB1EE455A6B
:10252C0035EE445AF1EE007A65EE277A77EE897A29
:10253C00C5EE274A74EE847AB1EE675AFFEE007A44
:10254C00F4EEC57AF1EE10FA5FED3A4AD8BFF0EE30
:10255C00457A67EEA47AF5EEC05AFDEEE77AF1EE15
:10256C0010FA17EE903A23F07F43C5F80C327FF542
:10257C00FAADFEEE087AF4EEE75AF1EE10FA11D548
:10258C00F6EE084AF1EE655A75EEE45AF1EE007A71
:10259C0065EEA77A77EE897A85EEA75A75EE247ADE
:1025AC00F1EE675AFFEE007AF4EEE57AF1EE10FAEE
:1025BC001FED545AD8BFF0EE657A67EE857AB5EE0A
:1025CC00C06AFDEEE77AF1EE10FA17EE903A23F0BE
:1025DC007F43C5F810327FF5E9ADFEEE087AB4EE14
:1025EC00E76AF1EE10FA11D5B6EE085AB1EE466A6A
:1025FC0036EE456AF1EE007A66EE277A77EE897A46
:10260C00C6EE275A75EE857AB1EE676AFFEE007A50
:10261C00F4EEC67AF1EE10FA5FED6E5AD8BFF0EE1A
:10262C00467A67EEA57AF5EEC06AFDEEE77AF1EE32
:10263C0010FA17EE903A23F07F43C5F814327FF569
:10264C00D8ADFEEE087AF4EEE76AF1EE10FA11D589
:10265C00F6EE085AF1EE666A76EEE56AF1EE007A6D
:10266C0066EEA77A77EE897A86EEA76A76EE257AF9
:10267C00F1EE676AFFEE007AF4EEE67AF1EE10FA0C
:10268C001FED886AD8BFF0EE667A67EE867AB5EEF3
:10269C00C07AFDEEE77AF1EE10FA17EE903A23F0DD
:1026AC007F43C5F818327FF5C7ADFEEE087AB4EE5D
:1026BC00E77AF1EE10FA11D5B6EE086AB1EE477A68
:1026CC0037EE467AF1EE007A67EE277A77EE897A62
:1026DC00C7EE276A76EE867AB1EE677AFFEE007A5D
:1026EC00F4EEC77AF1EE10FA5FEDA26AD8BFF0EE05
:1026FC00477A67EEA67A2035FDEEE77A0BF1200BD0
:10270C0017EE903A23F07F43C5F8FC31A8457FF4CF
:10271C00B6ADDAF8A0380133CAF8A038002F40F073
:10272C00A981DAF8A028DAF8A4389A4280F0B481AA
:10273C00DAF8A028DAF8A4389A42FFF4BDA894ED90
:10274C00007A5FEDB77ADA4BB4EEE77AF1EE10FA75
:10275C00CCBF4FF000624FF400629A610BB0BDEC3D
:10276C00068BBDE8F08FFFEE003AB4EEE37AF1EEA3
:10277C0010FA8CBF1D4643F00105FFF78FBABFEE70
:10278C00007AF4EEC76AF1EE10FA98BF43F0010339
:10279C00FFF77BBABFEE007AB4EEC76AF1EE10FA1F
:1027AC0098BF43F00103FFF767BABFEE007AF4EE6F
:1027BC00C75AF1EE10FA98BF43F00103FFF753BA72
:1027CC00BFEE007AB4EEC75AF1EE10FA98BF43F0A0
:1027DC000103FFF73FBABFEE007AF4EEC74AF1EE01
:1027EC0010FA98BF43F00103FFF72BBABFEE007A43
:1027FC00B4EEC74AF1EE10FA98BF43F00103FFF7AD
:10280C0017BABFEE007AB4EEC70A9FEDAA7AF1EEC2
:10281C0010FAB4EEC78A94BF01230023F1EE10FA2C
:10282C00A8BF43F001032B43FFF7F9B9B1EE408A7F
:10283C00FFF79AB9A04BD3ED5B6AD3ED5C7A93EDBD
:10284C005D6A77EEE67AB5EE007A67EE867A77EE19
:10285C00A67AF4EEC77AF1EE10FAC3ED5B7A08D4DF
:10286C00B1EE007AF4EEC77AF1EE10FAD8BFB0EE02
:10287C00677A83ED527A0193FEF7FAFD019BD3ED53
:10288C005B7A77EEC97AF5EEC07AF1EE10FA01D5E3
:10289C00F1EE677A9FED897ADFED896A27EE877A08
:1028AC00DDED027AB4EEC97AF1EE10FAC8BFB0EEE3
:1028BC00497A27EE267A27EE000A30EE270AF0EE48
:1028CC00407A8DED020AFFF7A3B9FEEE087AF4EE1A
:1028DC00E73AF1EE10FA11D5F6EE082AF1EE633A6A
:1028EC0073EEE23AF1EE007A63EEA77A77EE897A2C
:1028FC0083EEA73A73EE227AF1EE673AFFEE007A96
:10290C00F4EEE37A9FED6F3AF1EE10FAD8BFF0EEE9
:10291C00637A67EE837AFDEEE77A17EE903A23F04E
:10292C007F437BE5FFEE003AB4EEE37AF1EE10FA6A
:10293C008CBF1F4643F001074DE5BFEE007AF4EE65
:10294C00C76AF1EE10FA98BF43F001033AE5BFEE07
:10295C00007AB4EEC76AF1EE10FA98BF43F00103A7
:10296C0027E5BFEE007AF4EEC75AF1EE10FA98BFE5
:10297C0043F0010314E5BFEE007AB4EEC75AF1EE52
:10298C0010FA98BF43F0010301E5BFEE007AF4EEB4
:10299C00C74AF1EE10FA98BF43F00103EEE4BFEE24
:1029AC00007AB4EEC74AF1EE10FA98BF43F0010377
:1029BC00DBE49FED407AB4EEC78ABFEE007AF1EE0D
:1029CC0010FAB4EEC70AACBF01230023F1EE10FAE3
:1029DC0098BF43F001033B43BEE4B1EE408A60E490
:1029EC00354BD3ED5B6AD3ED5C7A93ED5D6A77EE94
:1029FC00E67AB5EE007A67EE867A77EEA67AF4EE92
:102A0C00C77AF1EE10FAC3ED5B7A08D4B1EE007A16
:102A1C00F4EEC77AF1EE10FAD8BFB0EE677A83ED18
:102A2C00527A0193FEF724FD019BD3ED5B7A77EE8E
:102A3C00C97AF5EEC07AF1EE10FA01D5F1EE677AAB
:102A4C009FED1E7ADFED1E6A27EE877ADDED027AA6
:102A5C00B4EEC97AF1EE10FAC8BFB0EE497A27EE9F
:102A6C00267A27EE000A30EE270AF0EE407A8DED3A
:102A7C00020A6AE4DAF8A03803F2EE23CAF8B8398D
:102A8C009AF89C3801338AF89C38DAF8A028DAF8DE
:102A9C00A4389A42FFF44CAEDAF8A038DAF8B81938
:102AAC00034A8B4234BF4FF48033012393613FE6DA
:102ABC000000024072F97F3F000000100000484205
:102ACC003333333FFEFFFF4ADAF8A03803F2EE232C
:102ADC00CAF8B8399AF89C3801338AF89C38DAF875
:102AEC00A028DAF8A4389A42FFF490AADAF8A038B1
:102AFC00DAF8B819044A8B4234BF4FF480330123FF
:102B0C009361FFF783BA00BF00000240704700BF1B
:102B1C00054BD3F888204FF0006142F47002C3F8E3
:102B2C0088209960704700BF00ED00E02DE98048D7
:102B3C00AB4AAC4B9A42ADB016D2013B9B1A032B5D
:102B4C0011460FD99B080133580802EBC00500242D
:102B5C00C1E9004408318D42FAD1B3EB400F03D0E8
:102B6C0002EBC002002313609F4AA049136843F490
:102B7C0080331360D1F800389D03FBD59A4A9C49E9
:102B8C00136C9C4843F080531364136C0B6840F235
:102B9C00057443F440430B6004609368964923F436
:102BAC007C4323F0F00343F41443936051601368A7
:102BBC008E4943F080731360D1F800389C01FBD52B
:102BCC00894B9A6822F0030242F002029A609C68D8
:102BDC0004F00C04082CFAD1884AC3F88820D3F8E6
:102BEC008C20824922F4700222F4F85242F4C06222
:102BFC00C3F88C201A6842F080521A60D1F8003861
:102C0C009800FBD5784B9A6802F00C02042A02F06B
:102C1C00C482082A02F0CD82794B734A79499068B4
:102C2C00C0F3031001F5A07B085CC3407648036039
:102C3C00136B43F0FE031363136B01F110004FF0A1
:102C4C00030A4FF002094FF001084FF00F0E4FF03E
:102C5C000C0C0268037915685E000AFA06F725EA7F
:102C6C00070509FA06F635431560556808FA03F6A8
:102C7C0025EA0605556095683D439560D568072B98
:102C8C0025EA0705D56094BF0025012502EB8502D6
:102C9C0003F00703156A9B000EFA03F6083025EAC9
:102CAC0006050CFA03F32B4383451362D1D14E4A2C
:102CBC00936B43F001039363544B926B544A4FF460
:102CCC00605018644FF4EA7058644FF483109864A1
:102CDC00DA649A6D9206FCD409221A6544F61F63D5
:102CEC0000BF1A46013B002AFAD1484B9A6D970651
:102CFC00FCD40A221A65454B9A6D9606FCD4EB223D
:102D0C001A65424B9A6D9506FCD4424A1A654FF4EB
:102D1C009F625A653D4B9A6D9006FCD4324A3E48F0
:102D2C00136BDFF80CB143F00A0313633B4B126BCC
:102D3C001A6822F440121A60DA6822F4401242F443
:102D4C008012DA601A6822F440021A60DA6822F4FF
:102D5C00400242F48002DA60026822F4400202600F
:102D6C00C26822F4400242F48002C260026822F07F
:102D7C0040720260C26822F0407242F08072C260FF
:102D8C001A6822F440121A60DA6822F4401242F4F3
:102D9C008012DA601A6822F440021A60DA6822F4AF
:102DAC00400242F48002DA601B695A051C4B4CBF8E
:102DBC00DFED1C1ADFED1C1ACBF800304FF40012BB
:102DCC00CBF80420002003F5000243F8040B9342D7
:102DDC00FBD1164BCBF8BC30CBF8C4302AE000BF8B
:102DEC000000001078010010003802400030024052
:102DFC0000700040003C024008544007005600029E
:102E0C000024F4005C52000800000020000100A027
:102E1C00610301010C600400000C0240000402403C
:102E2C00000000D00080BB4700606A496F12833AF3
:102E3C0000000010BF4BCBF8B030BF4BCBF81430B8
:102E4C00BE4BCBF81830BE4BCBF81C30BD4BCBF87F
:102E5C002030BD4BCBF82430BC4BCBF82830BC4BCE
:102E6C00CBF82C30BB4BBC4ECBF8C8300022BB4B44
:102E7C00BB4DCBF8CC3000274FF07E53CBE935223D
:102E8C00CBF80820CBF8DC208BF8E020CBF81060D6
:102E9C0001220026DFF8F4C2CBF8C030CBF8E430C6
:102EAC00CBF80431CBF8B4208BF8D020CBE90C67ED
:102EBC00CBE90E67CBE91067CBE91267CBE9146756
:102ECC00CBE91667CBE91867CBE91A67CBED2E1A5D
:102EDC00CBF8E8308BF83021CBF840C12A69CBF81D
:102EEC000831CBF8EC30CBF80C31CBF8F030CBF818
:102EFC001031CBF8F430CBF81431CBF8F830CBF8E8
:102F0C001831CBF8FC30CBF81C31CBF80031CBF8B6
:102F1C002031CBF82831CBF834312B69CBF82C018C
:102F2C006FEA13336FEAD2225B0003F0020302F064
:102F3C00010213434FF0785E032BCBF824E1CBF85E
:102F4C00380102F0338101EB8301D1F84031182BA9
:102F5C0008BF0023834ACBF83C311369824A834F64
:102F6C001B055CBF824BCBF82831136B43F002037B
:102F7C001363136C43F4804313647A4B116C19681C
:102F8C0021F0406141F000611960996841F00061E5
:102F9C009960596A21F4700141F4A00159621968D1
:102FAC0021F0405141F000511960996841F00051F5
:102FBC009960596A21F0706141F0A06159621968F9
:102FCC0021F0404141F000411960996841F0004105
:102FDC009960596A21F0704141F0A0415962196819
:102FEC0021F0407141F0807119604FF480556149B6
:102FFC009D6100204FF44D730B6048600B6843F0EB
:10300C0040030B60536C43F480035364536C136B99
:10301C0043F038031363136B574B1D6825F03005D1
:10302C0045F020051D605D6825F004055D609D6818
:10303C0045F030059D60DD6825F03005DD601D6ACA
:10304C0025F4706545F4C0651D621D6825F4407556
:10305C0045F400751D605D6825F010055D609D6888
:10306C0045F440759D60DD6825F44075DD601D6A92
:10307C0025F4702545F4C0251D621D6825F44065B6
:10308C0045F400651D605D6825F020055D609D6858
:10309C0045F440659D60DD6825F44065DD601D6A82
:1030AC0025F4700501F5EA3145F4C0051D620B6885
:1030BC00324D23F4405343F400530B604B6823F020
:1030CC0040034B608B6843F440538B60CB6823F414
:1030DC004053CB600B6A23F0706343F0C0630B6208
:1030EC002968274B21F4405141F40051296069684B
:1030FC0021F040016960A96841F44051A960E96878
:10310C0021F44051E960296A21F0706141F0C061FD
:10311C00296201265F601B4D1B499E6007F2014727
:10312C00DD6019615F629E62DD621963136B43F4AB
:10313C0080032DE0CAF249F10000204200007042E9
:10314C000000A0420000C8420000F04200000C4306
:10315C0000002043CDCCCC3E0000A041CDCCCC3FD8
:10316C00000C02400004024000380240C120120052
:10317C007D99D63E003800400010024000140240F9
:10318C0000580140FF0F06008007FF006745230130
:10319C001363136BAA4B98629A6A12F00102FBD16B
:1031AC00A8491963DFF8E4A2A749C3F834A04FF487
:1031BC008070D8629962C3F88820A14BD3F888201C
:1031CC0012F001020092F9D1A049C3F89010A04965
:1031DC00C3F894109F4AA0494FF48070C3F88C0038
:1031EC00C3F88810102182F839134FF00071516028
:1031FC009A6A42F001029A62D3F8882042F00102E6
:10320C00C3F88820954B964A596A41F4803159622B
:10321C00596841F480315960136B43F00103136317
:10322C00136B904B1A6822F0300242F010021A60B5
:10323C005A684FF4802122F004025A609961009B75
:10324C000A930A9B884A934205DC0A9B01330A9332
:10325C000A9B9342F9DD834B1A6822F0300242F04C
:10326C0010021A605A68042122F004025A60996113
:10327C0000230993099B7C4A934205DC099B01338B
:10328C000993099B9342F9DD754A784B116B41F018
:10329C0002011163116B196821F4403141F40031C2
:1032AC001960596841F480715960996841F4803112
:1032BC009960D96821F4403141F48031D960596A60
:1032CC0021F00F0141F004015962196821F44021E9
:1032DC0041F400211960596841F4007159609968F2
:1032EC0041F480219960D96821F4402141F4802176
:1032FC00D960596A21F0F00141F040015962136C18
:10330C0043F400131364136C594B4FF400421A60CE
:10331C0000212A2219605A60D222DA6101202B2264
:10332C001A624FF6FF3618600D46524A01E0013A18
:10333C0002D09F69BF07FAD41F684E4A47F48077C2
:10334C001F6001E0013A02D05F69FF07FAD55A69A4
:10335C00D20740F13B854A00D2B2474F1A6105E0D3
:10336C00520500F13E85013F00F042855A6912F08A
:10337C00020FF5D09A691A684F090AEB870742F4D5
:10338C0000721A60D7F804C801F01F0200FA02F2AA
:10339C0042EA0C02C7F804280895089AB2F5FA6FAD
:1033AC0006DA089A01320892089AB2F5FA6FF8DB3D
:1033BC0001318029B9D1314BCAF814387F21022050
:1033CC00FEF7B2F9F02105460320FEF7ADF93621E0
:1033DC0005430420FEF7A8F9FF2105430720FEF75B
:1033EC00A3F9002105430220FEF79EF910210543A5
:1033FC000620FEF799F9002105430720FEF794F902
:10340C001F4B204A05435D601F4D194B4FF0920C2A
:10341C009327EE26186815F801EBDFF85C8040F472
:10342C008070186003E0B8F1010800F0EF84D2F866
:10343C001404C007F7D51048C3F810C02BE000BF28
:10344C0000640240205801401855030040580140C8
:10345C001804002000E100E0405503000058014032
:10346C000038024000000240DF93040000040240D8
:10347C0000540040410D0300400D0300EEFFC0005E
:10348C000000002000500040A85300081800002045
:10349C00013800F0B384D2F8148418F0020FF7D07E
:1034AC0098691D4802E0013800F0B084D2F8148409
:1034BC0018F0800FF7D01848C3F810E002E001387C
:1034CC0000F0A484D2F814E41EF0040FF7D01868AE
:1034DC0040F480701860104802E0013800F09684C7
:1034EC00D2F814E41EF0010FF7D01F61186820F415
:1034FC0080601860084802E0013800F07F84D2F840
:10350C0014E41EF0020FF7D09869186840F40070AC
:10351C001860014805E000BF400D0300013800F0C1
:10352C007584D2F814E41EF0400FF7D0D3F810E0F5
:10353C00186840F4806018600AEB010001310A2918
:10354C0080F818E87FF466AFB64AB74B116BB74DED
:10355C0041F001011163116B196821F4407141F4C0
:10356C0080711960196821F4406141F4806119601F
:10357C001968102721F44051202019609F6198612F
:10358C00116B41F003011163116B196821F00301F8
:10359C0041F0010119604FF480319961196821F0F3
:1035AC000C0141F00401196002219961196821F4A0
:1035BC00404141F48041196080219961196821F4DE
:1035CC00403141F4803119604FF480719961196870
:1035DC0021F4400141F48001196000264FF4006190
:1035EC009961AAF824688AF82A68AAF828682968D0
:1035FC0021F00F0141F0050129604FF44031A96120
:10360C00116B41F005011163116B196821F44071C4
:10361C0041F480711960196821F4406141F48061B2
:10362C001960196821F0404141F080411960196816
:10363C0005F5806521F440511960296821F4401189
:10364C0041F480112960296821F0407141F08071AA
:10365C0029604FF0806C4FF000419F619861C5F874
:10366C0018C09961136B43F004031363136B2B683D
:10367C0023F00C032B60EB6823F00C0343F00403E2
:10368C00EB602B6823F030032B60EB6823F03003E6
:10369C003B43EB602B6823F0C0032B60EB6823F0FB
:1036AC00C00343F04003EB602B6823F440732B60A2
:1036BC00EB6823F4407343F48073EB602B6823F4C2
:1036CC0040632B60EB6823F4406343F48063EB604E
:1036DC002B6823F440532B60EB6823F4405343F4E2
:1036EC008053EB60B046B146A4F1080707EB071016
:1036FC0007EB001000EB0030FEF77CF8002307937B
:10370C00079B0B2B05DC079B01330793079B0B2BAC
:10371C00F9DD00230693069B0B2B05DC069B01337E
:10372C000693069B0B2BF9DD0120296900FA07F2A1
:10373C0049EA020311F0200F9BB208BF994600FA28
:10374C0004F3044449EA030011F0400F80B208BFAF
:10375C00814648EA020011F0080F80B208BF80468B
:10376C0048EA0300324311F0100F80B292B208BF46
:10377C00804611F0020F08BF1646334311F0040FB8
:10378C009BB208BF1E46102CAED12948FEF732F86A
:10379C00244BAAF83298AAF83488AAF836685A6CDE
:1037AC00244942F480625A641A6B42F020021A6374
:1037BC005B6C0B68204A43F440330B60A1F57141FC
:1037CC004B6823F4403343F480334B6000230621D1
:1037DC005360D36251634FF4E01111610121916088
:1037EC000B930B9B42F20F72934205DC0B9B013344
:1037FC000B930B9B9342F9DD0A4B0C481A6B0F4948
:10380C00DFF840909FED0E2A42F00F021A631A6BFC
:10381C00C26822F47002C260CA686FF38D02CA607B
:10382C0012E000BF003802400000024000040240D9
:10383C007777770000140240002201400008024014
:10384C000AD7233C78080020D0F80C18C24A21F083
:10385C007071C0F80C18D16821F04041D160596CDE
:10386C0041F0100159645B6C1368BC4923F470136C
:10387C0043F420131360536A23F47F6343F4EE6321
:10388C005362B74ACBF84C214FF08742CBF850210A
:10389C00B44ACBF874214FF07E520023CBF8482168
:1038AC00CBF86C21CBF8702140F2D922CBF85431F3
:1038BC00CBF85831CBF85C318A6042F20C02CA600A
:1038CC00CBF860314FF0FF33CBF864310023F6EEC8
:1038DC00007ACBF868314FF48073C9ED007A4FF061
:1038EC00FF0CAAF86C380123CDE901C39AF87038A3
:1038FC00C9ED017AB0EE676AC9ED027A002B40F08F
:10390C00CF82009B13F0030200F0F784009B13F0AE
:10391C003F0340F0BC82904A4FF4801191611193A7
:10392C00119B0B2B05DC119B01331193119B0B2B62
:10393C00F9DD894B10229A6100231093109B0B2BFD
:10394C0005DC109B01331093109B0B2BF9DD4FF012
:10395C00000C814A0D214FF400156046202495611E
:10396C000E900E9B0B2B05DC0E9B01330E930E9BC6
:10397C000B2BF9DD136994610F9013F0400F4FEA94
:10398C004C0C0F9B1FFA8CFC18BF4CF0010C0B2B32
:10399C0005DC0F9B01330F930F9B0B2BF9DD0139CA
:1039AC00DDD16D4B1CF0020F4FF400129A611DBF5C
:1039BC00CCF3800383F00103DBB202231CF0080F6D
:1039CC000CBF022701271CF0800FCCF3001001F074
:1039DC00BE80CCF3002484F001046400E4B21CF437
:1039EC00806504D01CF4007F14BF012502255E4EB7
:1039FC00DBED2E7A31696FEADC2242EA912202F089
:103A0C0001013269D6F81080AAF82CC88AF8483817
:103A1C008AF849788AF84A488AF870085348057336
:103A2C006FEA1C3040EAD22202F001028AF84B18ED
:103A3C008AF84C2849ED017A002941F05A80002A75
:103A4C0001F043809AF82528002A01F0B1814FF447
:103A5C008072012CAAF8242801F084818E460E462F
:103A6C009AF87A08012801F08480022800F0D687A1
:103A7C00002801F0AA82DBF80820BEF1000F41F00B
:103A8C00C2829BF8D04006462046334C4FF0020EC3
:103A9C00C4F818E04FF4000EC4F818E0012800F048
:103AAC00D587DAF87C48944200F2B3879AF88048BC
:103ABC00CAF87C28002C01F0B380013CE4B2264A01
:103ACC008AF880484FF0807EC2F818E08AF84E6879
:103ADC008AF84F08D9ED0E7ADFED256A9FED257A2D
:103AEC0067EEA67A6FEA0C06F4EEC77AF1EE10FADE
:103AFC0006F0010601F37080FCEEE77A17EE902ACF
:103B0C008AF850288AF85448D9ED097ADFED1A6AF8
:103B1C009FED187A67EEA67AF4EEC77AF1EE10FAFA
:103B2C0001F35D80FCEEE77A17EE902A8AF85128B3
:103B3C00D9ED0A7ADFED106A9FED0E7A67EEA67A60
:103B4C00F4EEC77AF1EE10FA00F38C87FCEEE77A0C
:103B5C0017EE902A14E000BF000002400010014054
:103B6C000000B4456F12033B001802400000002017
:103B7C000000C84200007F4300007A44C0FE9F4909
:103B8C008AF852289AF89C288AF85328DAF8A00860
:103B9C00DAF8A4289042C0F08E859AF8A8283AB199
:103BAC009AF8A928BA4201F0EC8100228AF8A828D8
:103BBC002A463846029C40EA021C64451CD007EE9B
:103BCC00900AF8EE677A67EEA17A3AB1012A0CBF37
:103BDC00B6EE007AB5EE007A67EE877A1FED197AA9
:103BEC00B4EEE77AF1EE10FAD8BFF0EE477A012284
:103BFC00CBED2E7ACBF8B420019A002E40F01A812E
:103C0C009A4200F03B814FEA831E0EF1006202F5EE
:103C1C004042834C1068A04240F04787D08802286D
:103C2C0040F043871489282C00F23F87201D80B276
:103C3C00CDE904C30290B2F80480501D019041F20A
:103C4C0021064FF6FF70019B039313F801CF0193EC
:103C5C0080EA0C204FEA400C000448BF8CEA060CAA
:103C6C004FEA4C001CF4004F18BF70404FEA400C58
:103C7C00030448BF8CEA060C4FEA4C001CF4004FBE
:103C8C0018BF70404FEA400C000448BF8CEA060C89
:103C9C004FEA4C001CF4004F18BF70404FEA400C28
:103CAC00030448BF8CEA060C039B4FEA4C001CF43F
:103CBC00004F80B2A3F1040C029B18BF7040ACEB18
:103CCC00020C18BF80B26345BDD88045DDE904C342
:103CDC0040F0EB86002C00F0E886601E052841F2CF
:103CEC00BA8150486844A0EB0E00022841F2B3811F
:103CFC004D48A6085EF80080CDF87080012E704407
:103D0C0001F04E82D0F804E0CDF874E0022E00F001
:103D1C00AC86D0F808E0CDF878E0032E00F0A5864C
:103D2C00D0F80CE0CDF87CE0042E00F09E86D0F8A4
:103D3C0010E0CDF880E0052E00F09786D0F814E066
:103D4C00CDF884E0062E00F09086D0F818E0CDF87F
:103D5C0088E0072E00F08986D0F81CE0CDF88CE0C6
:103D6C00082E00F08286D0F820E0CDF890E00A2EE4
:103D7C0040F07B86426A2592249AC9F80020C9F843
:103D8C0004200022C9F808200122AAF86C288AF81D
:103D9C00A8289DF894208AF8AB289DF896209DEDD4
:103DAC001C7ADDED1D7ADDF87880DDF87CE0209E54
:103DBC00219C2298DDED236A8AF8A9788AF8AA5802
:103DCC008AF8AC2801934FF0FF0C44E01A6842F4D7
:103DDC0000721A60DAF800280132CAF80028FFF7DE
:103DEC00DBBA5E611A6842F400721A60FFF7D4BA4B
:103DFC001A6842F400721A60FFF7CEBADFF82CE0B2
:103E0C00DEF8000040F40070CEF800000AEB010070
:103E1C0001310A2980F818687FF4FCAAFFF794BBDB
:103E2C00723838326540FFF70AC000080054004071
:103E3C0000002043FE2A21D0FE225FED036ACC480D
:103E4C00CC4CCD4EDFF84CE3DFF84C83DFEDCB7A76
:103E5C000192B3EE047A01228BED047ACBED057A54
:103E6C00CBF81880CBF81CE0CBF82060CBF82440C2
:103E7C00CBF82800CBED0B6ACBF8B420002940F02E
:103E8C004F84CAF8B0188AF8B418CDF808C0009B53
:103E9C000133009330BF9AF87038002B3FF431ADEA
:103EAC00DBF86431002BBFF62CADDBED527AB7EEAC
:103EBC00007A37EE677AB5EEC07AF1EE10FA00F1BF
:103ECC003187F0EE477ADFEDAE6AF4EEE67AF1EE8A
:103EDC0010FA3FF516ADDBED536ADBED557AC7EE04
:103EEC00265AF5EEC05AF1EE10FA40F3E786B6EE1C
:103EFC00005AF4EEC57AB7EE007AF1EE10FA37EE0E
:103F0C00677A01D4B7EE085A75EE677AB4EEE77AA1
:103F1C00F1EE10FAF4EEC77A94BF01230023F1EE10
:103F2C0010FAB8BFB0EE677ADFED967AB4EEE77AA6
:103F3C0083F00107F1EE10FACBF868713FF7E1ACB2
:103F4C00F2EE007A65EEA75AF4EEC75AF1EE10FACB
:103F5C003FF7D7ACDBED542AF0EE627AB6EE007A7E
:103F6C0066EE873A0BEB830393ED567ADFED8D5AB1
:103F7C0073EEA73A002473EE873A07EE904AB8EE38
:103F8C00E70A023430EE230AFCF7D8F920EE000AD7
:103F9C00B4F5407F75EE805AEFD1DFED7B7AF4EE0D
:103FAC00E75AF1EE10FA3FF5ACACDBED027ADBF838
:103FBC0004109FED7C7A9FED751ADBF80040B8EE8B
:103FCC00674A07EE901A0025F8EE676A2E4607EE50
:103FDC00906AB8EEE73A9FED735A33EE223AF0EE60
:103FEC00454A002007EE900AF8EEE77A73EE270AAE
:103FFC0034EE600AB5EEC00AF1EE10FA0DD530EED3
:10400C00260AB5EEC00AF1EE10FAF8D4B4EEE60AC0
:10401C00F1EE10FA06DB30EE660AB4EEE60AF1EECB
:10402C0010FAF8DAFDEEC00A10EE903AF8EEE00A5B
:10403C00002B30EE600A03F10102C0F2AA8699420D
:10404C0098BF5B1A04EB8303D3ED000A914298BF2F
:10405C00521A04EB820292ED008A73EEA77A38EEC4
:10406C00608A74EE677A28EE000AF5EEC07AF1EEFB
:10407C0010FA30EE200A0DD577EEA67AF5EEC07A5E
:10408C00F1EE10FAF8D4F4EEE67AF1EE10FA06DB63
:10409C0077EEE67AF4EEE67AF1EE10FAF8DAFDEE67
:1040AC00E70A10EE903AF8EEE00A002B77EEE07A91
:1040BC0003F10102C0F26286994298BF5B1A04EBCD
:1040CC00830393ED008A914298BF521A04EB82024B
:1040DC00D2ED008A78EEC88A60EE000A68EEA77A04
:1040EC00023077EE887AB0F5407F67EE807A35EE55
:1040FC00205A74EEA74A7FF475AF25EE823AB4EEDF
:10410C00C35AF1EE10FA15D4F5EEC04AF1EE10FADE
:10411C0000F14A86F0EE647A64EEA77A35EE015A25
:10412C00C7EE854AB4EEE47AF1EE10FA02D5B0EEA1
:10413C00647A35460436B6F5966F7FF448AFF5EEE3
:10414C00007A65EEA75AF4EEC75AF1EE10FA00F3B6
:10415C00078701F247809FED0E4A9FED0C8A3A4685
:10416C00F0EE440AEE1EEB1E1CAC2F1D1FE000BF30
:10417C0000000C430000F0420000C8420000204246
:10418C0017B7D1388FC2753D95BFD6335F70893064
:10419C00CAF249F10000A04200007042088FA1EF62
:1041AC00CCBC8CAB000000000136BE4253D0B6F53F
:1041BC00966FE4EC010AF7D207EE906AB8EEE75A74
:1041CC005FED085A039735EE225A0494F0EE656AB7
:1041DC004FF0000817461C4607EE908AB8EEE71A17
:1041EC0008F1020835EE010AFCF7A8F8F0EE404A97
:1041FC0033EE810AFCF7A2F864EEA47A64EE804AEE
:10420C00B8F5407F76EEA46A75EEA75AE4D1B4EE09
:10421C00E53AF1EE10FA23463A46DDE90374C3DCC5
:10422C00F5EEC06AF1EE10FA00F1A786F0EE667AB0
:10423C0066EEA76A75EE885AC6EEA57AF4EEC47AD5
:10424C00F1EE10FA44ED017AAEDD35460136BE4290
:10425C00B0EE674AABD1EB1A07EE905A17465A1ECE
:10426C00042AF8EEE77A3DD82CA901EB820252ED34
:10427C00106A1FED367AF4EEC76AF1EE10FA31DDF2
:10428C0001EB830252ED0F5AF4EEC75AF1EE10FA1D
:10429C0028DD01EB830313ED107A1FED3F5A37EE47
:1042AC00077A36EEC77A37EE257AB4EEC57AF1EE98
:1042BC0010FA17D576EEE56AF6EE005A66EEA56AA8
:1042CC00BFEE005AC6EE875AF4EEC55AF1EE10FA5C
:1042DC0008DDB7EE007AF4EEC75AF1EE10FA01D50C
:1042EC0077EEA57A1FED517AB4EEE77AF1EE10FA7B
:1042FC00C8BFF0EE477A00F035BEAE4BD9689B686C
:10430C00AD4B4FF0805199610D920D9B272B05DC25
:10431C000D9B01330D930D9B272BF9DDA54B9A6853
:10432C009607FCD501221A73A24B9A68D507FCD5C7
:10433C001B7B8AF874389F4B9A689407FCD5A02293
:10434C001A739C4B9A68D007FCD51B7B8AF875387E
:10435C00984B9A689107FCD500221A73954B9A6872
:10436C00D207FCD51B7B934A8AF87638936813F0F6
:10437C008003FBD1904A4FF4805191610C930C9BBC
:10438C00272B05DC0C9B01330C930C9B272BF9DDA5
:10439C00884BDA689B68884B4FF080529A610023F7
:1043AC000D930D9B272B05DC0D9B01330D930D9B62
:1043BC00272BF9DD7F4B9A689607FCD501221A73DF
:1043CC007C4B9A68D507FCD51B7B8AF87738794BE0
:1043DC009A689407FCD5E0221A73764B9A68D0073A
:1043EC00FCD51B7B8AF87838724B9A689107FCD500
:1043FC0000221A736F4B9A68D207FCD51B7B8AF884
:10440C0079386C4B9A6812F08002FBD16A4B4FF4EE
:10441C00805199610C920C9B272B05DC0C9B013372
:10442C000C930C9B272BF9DD9AF875389AF87618B3
:10443C001B0203F470630B4305EE903A9AF878383C
:10444C009AF879181B0203F470630B431ED040F2E8
:10445C003622934240F39A8640F28152934240F3C3
:10446C005D8640F60602934240F34E8640F64B22A0
:10447C00934240F3408640F60152934240F32C861F
:10448C0040F6FF72934240F001861A464B49886809
:10449C0040F08040886008688407FCD5C96C4848A7
:1044AC009FED485AD0ED026A9FED477ADFED474AFF
:1044BC00C1F30B0107EE901AF8EE677A77EEE67A05
:1044CC0067EE857A77EEA67A37EEC77AC0ED027A78
:1044DC00FCEEE77A27EE247A17EE901AAAF8381831
:1044EC009AF87018002900F0638207EE902ADFED2D
:1044FC00386A027BDFED373A9FED374AF8EEE74A30
:10450C00DFED367A64EEA64A022A08BFF0EE637A33
:10451C0067EEA47AB4EEC47AF7EE006AF1EE10FA04
:10452C0076EEE76A40F33885B4EEC57AF1EE10FA10
:10453C007AD4F8EEE57ADFED2A4A9FED2A5A67EE37
:10454C00A47A67EE877A67EE857A9FED277AF4EE88
:10455C00C77AF1EE10FAB8BFB0EE677AFDEEC77A03
:10456C0017EE902AF8EEE77A37EE677AB5EEC07A56
:10457C00F1EE10FA40F13983B7EE005A37EE057AB6
:10458C00DFED1A7ADFED1A4ADFED1A3A9FED1A4A7F
:10459C0067EE277A7E3277EEA47ADFED184A67EE63
:1045AC00877AD20577EEA37A67EE877A77EE847AEC
:1045BC002CE000BF00380040000402400022014003
:1045CC0000000020CDCC4C3D00E0FF440210003A2E
:1045DC00010880398FC2753ECDCC4CBD8FC2753D64
:1045EC00010AA03A5555553F0000FE4220C2AE3A92
:1045FC003C951D3C4458633DF0FD753E1872313FAF
:10460C00000000000AD7233D0AD7A33C67EE877A47
:10461C0077EEA47A67EE877A07EE102A77EE857A22
:10462C0067EE877A66EEA76ACBED5C6A5FED0C7A73
:10463C001FED0C7A9AF86C2877EEC67A67EE877ABB
:10464C0036EE276A002A00F09281D9ED017A36EE17
:10465C00677AB5EEC07AF1EE10FA00F177815FED72
:10466C00166AB4EEE67AF1EE10FA00F177819AF858
:10467C006D28002A40F0DF82B4EEE76AF1EE10FA02
:10468C0005D8B4EE676AF1EE10FA00F067810122EA
:10469C0089ED026A8AF86D28C9ED007AB74AC2ED35
:1046AC00047A15EE902AAAF82E28AAF8303809EDCB
:1046BC00026AFFF72BB9B148426982EA423282EAB8
:1046CC00524282EA421212F0010408BF4FF48034C5
:1046DC0012F0020F426118BF4FF0020EA84808BF3B
:1046EC004FF4003E12F0040F14BF4FF0800C4FF447
:1046FC00000C12F0080F846114BF4FF480744FF05B
:10470C00807412F0100F14BF4FF400624FF000626F
:10471C00C0F818E0C0F818C084618261FFF73DBA98
:10472C00DAF8B0289AF8B408002A40F04482DAF893
:10473C00A028002A40F0A1820122CAF8B028002843
:10474C007FF4A3AB0A46DAF8A0188A1A41F270710A
:10475C008A427FF69AAB8B4A1C9200228DF86D2010
:10476C008DF86F20DBF81020CDF87A20DBF81420C0
:10477C00CDF87E20DBF81820CDF88220DBF81C2049
:10478C00CDF88620DBF82020CDF88A20DBF8242019
:10479C00CDF88E20DBF82820CDF89220DBF82C20E9
:1047AC00CDF89620754A8DF86C7012698DF86E50A4
:1047BC00CDF89A20744ACDF876201B9ACDF89E201D
:1047CC0001228AF8B4280DF175044FF6FF7241F2FC
:1047DC00210014F8011F82EA01225100150448BF80
:1047EC0041404A00090448BF42405100120448BFEE
:1047FC0041404A000E0448BF42405100150448BFD6
:10480C0041404A00090448BF42405100160448BFC9
:10481C0041400D044FEA41020DF1A10148BF424055
:10482C00A142D6D15949ADF87420594A891A013A96
:10483C00885C02F8010F57488242F9D19A01A0F125
:10484C00FF045049A15004EB83131D9959601E9924
:10485C0099601F99D9602099196121995961229900
:10486C0099612399D96124991962259959622699DC
:10487C0099622799D96202F132002546211802F17A
:10488C00300402F13E03BDF8A0202A534FF0FF3252
:10489C002A504A608A60EA523F4B1A69002A04DAAD
:1048AC003E4A5A6002F188325A603B4AD368D803B8
:1048BC00FCD4F323D360136923F47E7323F0020337
:1048CC0043F4067343F002031361136943F480331A
:1048DC001361314AD368D903FCD41369304823F0EF
:1048EC00FA031361136923F4407323F0010343F4B7
:1048FC00007343F001031361254B274AC01A191F9B
:10490C0003F1FC04431851F8045F1D60D368DB030A
:10491C00FCD4A142F6D11369184923F001031361A9
:10492C00136943F0004313619AF84D3801338AF848
:10493C004D38DAF8A03803F6B833CAF8A438DAF8E8
:10494C00A0284B6953404B61FFF79FBADFED156A06
:10495C00B4EEE67AF1EE10FA7FF789AE4FF480727E
:10496C00F0EE467A89ED026AAAF86C2894E6F0EE2D
:10497C00467A89ED006A89ED026A8FE60000002014
:10498C0000000240723838320200280001C00008D2
:10499C00D0080020CF090020003C024023016745CD
:1049AC0004C000080AD7A3BCCDCC4CBD010880398B
:1049BC005FED037AB4EEE77AF1EE10FA40F3008182
:1049CC00B4EEC57AF1EE10FA40F1FA8040F6FF71C0
:1049DC008A42A8BF0A4607EE902A1FED0C7AF8EE21
:1049EC00E77A67EE877A23E6012800F0C481CF4C82
:1049FC00DBF8082002264FF0030E8AF87AE8A6614D
:104A0C004FF40006A661DAF87C48944240F28A82A0
:104A1C007646CAF87C280124FFF751B89BF8D020C1
:104A2C00012A40F04782002E40F04E82DBF808202D
:104A3C00BEF1000F40F080820646BC484FF40034B3
:104A4C008461802484614FF0807484619AF880487A
:104A5C00CAF87C28002C00F0C580013CE4B201208F
:104A6C00FFF72DB8FF22FFF78BB8B4EB860F4FEA98
:104A7C0086001AD0161896F80AE00DEB000686F898
:104A8C0070E0461CB6B2B4420FD902EB060E0230EF
:104A9C0080B26E449EF80AE086F870E0844204D935
:104AAC0002446844927A80F87020DFEDA16AA14834
:104ABC00A14CA24EDFF8A4E2DFF8A482DFEDA07ACD
:104ACC000193B3EE047AFFF7C6B9012CAAF82418A7
:104ADC0000F048819AF87A08012800F06B810228CE
:104AEC0000F0C782002800F06F82DBF80820FEF788
:104AFC00C8BF9AF82408B0FA80FE4FEA5E1E4AB38B
:104B0C009AF8256836BB0126B4428AF824188AF82C
:104B1C0025687EF4A5AFFCEEE77ADBF8044017EECF
:104B2C00902A022A38BF0222201F824228BF024646
:104B3C00DBF8080082428ABF2418821AA21ACBE939
:104B4C0036200220CBF808208BF8D0004FE7012448
:104B5C00FEF745BF8AF82528012294428AF82428BA
:104B6C0000F096809AF87A0801284FF000067EF43F
:104B7C007CAFDBF80840DAF890289442C0F07B81D7
:104B8C00002E40F04981A01AFCEEE77A17EE902A2D
:104B9C00824240F235819AF87A68BEF1000F00F03B
:104BAC001A81CAF89048CBF8D440224601245F48B9
:104BBC008BF8D04079E000283FF4C5ADFFF765B91C
:104BCC00F8EEE57A67EE877AFDEEE77A17EE901A43
:104BDC008A183FF52BADF9E6FF22FEF791BFFF22B5
:104BEC00FEF7A4BF0120FEF771BFDFED567ADFEDB3
:104BFC00564A9FED565A9FED564A67EE277A7F32FA
:104C0C0077EEA47AD20567EE877ADFED524A77EE1B
:104C1C00857AB7EE005A67EE877A77EE847AF5E4F8
:104C2C00032E7EF453AF414A4FF4807494610326F3
:104C3C000024FEF74BBF99ED027AF4EEC77AF1EE41
:104C4C0010FA05DBB4EEE76AF1EE10FABFF686AEA9
:104C5C00F4EEC77AF1EE10FA3FF619ADB4EEE76A4E
:104C6C00F1EE10FA3FF613AD4FF48072F0EE467A87
:104C7C0089ED026AAAF86C280EE5DAF8A028CAF8C1
:104C8C00B02800287FF401A9002A3FF4FEA85AE5B9
:104C9C00002867D1DBF80820CBF8D42001208BF852
:104CAC00D000002621488AF87A684FF400348461D9
:104CBC00802484614FF480748461C7E6B6EE007A78
:104CCC00F4EEC77AF1EE10FAC0F2478137EEC77AEC
:104CDC00F4EEC77AF1EE10FAB4EEE77A94BF012342
:104CEC000023F1EE10FAB8BFF0EE477A9FED1A7A76
:104CFC00F4EEC77A83F00107F1EE10FACBF8687185
:104D0C003EF7FFADB2EE007A65EEC75AF4EEE75A05
:104D1C00F1EE10FA3EF7F5ADDBED547A76EEA72AFC
:104D2C00FFF71CB9F1EE477AFFF7CDB8000002404F
:104D3C000000204300000C430000F0420000C84279
:104D4C000000204220C2AE3A3C951D3C4458633DC5
:104D5C00F0FD753E1872313F8FC2753D0000A042C8
:104D6C00000070429AF87A289BF8D000032A3FF48E
:104D7C003BAE01288ED1DBF8082092E70B4404EB04
:104D8C00830393ED008A002A3FF49DA90A44FFF7A0
:104D9C009DB90B4404EB8303D3ED000A002A3FF4C6
:104DAC0055A90A44FFF755B9F1EE647AFFF7B4B987
:104DBC008E46A8E6DBF80840DAF89068FCEEE77A55
:104DCC00A64217EE902A18D904F5001EAEEB060683
:104DDC00964215D206469BF8D0002246D44C4FF48E
:104DEC00003EC4F818E04FF0800EC4F818E04FF401
:104DFC00807EC4F818E0FEF751BEA61BB242E9D87B
:104E0C001CF0400F3CD002269BF8D000CAF8944806
:104E1C0022468AF87A68E1E7DBF80400824203D381
:104E2C00B2FBF0F600FB1622944238D0CBE93624C4
:104E3C00BF4CCBF808204FF4003E022003268BF821
:104E4C00D0008AF87A68C4F818E04FF0800EC4F8E5
:104E5C0018E04FF4807EC4F818E0DAF87C48A242DF
:104E6C00FFF4D7AD9AF88048CAF87C28002C7EF461
:104E7C0024AE0220D7E6C6B904F50010801A83E6EA
:104E8C00DBF80460022A38BF0222301F824228BF9E
:104E9C000246A2428ABF3619A21AB21AC6E70326E4
:104EAC009BF8D0008AF87A6898E7DBF80400824215
:104EBC00B6D2BBE7DBF80820CBF8D42001228BF864
:104ECC00D020002E3FF4B2ADDBF80460DAF8902865
:104EDC00DAF89448B24224BFB2FBF6FE06FB1E225F
:104EEC00B44224BFB4FBF6FE06FB1E44A2422ED0F5
:104EFC00CBE936244FF0020E8D4C8BF8D0E04FF4FA
:104F0C0000364FF0030ECBF808208AF87AE8A66139
:104F1C008026A6614FF08076A661DAF87C48A24222
:104F2C00FFF476AD9AF88048CAF87C28002C3FF440
:104F3C007AAE7646FEF7C1BD01267D48CAF89028A8
:104F4C00CBF8D4208BF8D0608AF87A6876E5032009
:104F5C00DBF808208AF87A086EE537EE877AB7E630
:104F6C00DFED747ADBF86431002BBEF6CAACCBED06
:104F7C00587ACBF86471FEF7C4BCF1EE667AFFF791
:104F8C0057B99AF8AA28AA427EF40FAE9AF8AB0841
:104F9C009AF8AC28FEF70EBE9FED675ADFED674A14
:104FAC00F8EEE57A67EE857A9FED655A67EE877ABB
:104FBC0067EEA47AF4EEC57AF1EE10FA3FF6C5AAC4
:104FCC00DFED5C6AFFF730BB8E469BF8D000DBF858
:104FDC000820012840F08980D9ED097A9FED597A93
:104FEC00F4EEC77AF1EE10FA1DD501208AF88C0880
:104FFC00022C23D008F4805858EA0E081ED14646DD
:10500C004B4802241CE54A48CAF890280126022481
:10501C00CBF8D4208BF8D0608AF87A6884614FF48E
:10502C000004846112E59AF88C080028E0D09FED0A
:10503C00467AF4EEC77AF1EE10FAD9DD012600209B
:10504C00CAF89028CBF8D4208BF8D0608AF87A680C
:10505C008AF88C08D4E709321CA8A61812F801EFBC
:10506C0000F801EBB242F9D1282C7FF41EADFEF70B
:10507C0083BE9BF8D020012ADBF808203FF4DCAC7F
:10508C000124CBF8D4208BF8D040D5E46FF45065D4
:10509C00DFED2E6A9FED2E7A9FED2E5A2B4407EEF4
:1050AC00903AF8EEE74A9FED374AC4EE857ADFED89
:1050BC00234A9FED295A67EEA67A77EE877A77EE28
:1050CC00C47A67EEA47A67EE857AFCEEE77A17EE7F
:1050DC00902A1346FFF7DAB9DFED206A9FED207AAC
:1050EC009FED205AA3F64B23D9E70120CBF8D4200F
:1050FC008BF8D00070E7DFED156A9FED1B5AA3F615
:10510C000603B7EE007ACAE76FF4B066DFED176AF4
:10511C009FED177A9FED175A3344C0E7DFED136A02
:10512C009FED157A9FED155AA3F23623B7E700BF12
:10513C000000024000000000010AA03A5555553FFE
:10514C000000FCC26F12033C0AD7A33CD0CC4C3EEF
:10515C003333B33F00403F4400F07F45C8CC4C3E56
:10516C009A99993F00802D4400401144CCCC4C3E80
:10517C00CDCC4C3F004021449A99193F00C0524479
:10518C00CECC4C3ECDCCCC3E00800D445FED046AC1
:10519C001FED047A1FED045A81E7154BFDF73DBD59
:1051AC00907B8DF87400052604206EE40423FDF733
:1051BC00D1BE59685A685B684902C3F388134CBF67
:1051CC000B490C4902F03F02B1FBF2F202FB03F374
:1051DC00094A5268C2F3014201325200B3FBF2F3A6
:1051EC00FDF71BBD07EE905AF8EEE77ABAE600BF62
:1051FC0000127A000024F40000380240DFF834D0AA
:10520C00FDF786FC0C480D490D4A002302E0D458EA
:10521C00C4500433C4188C42F9D30A4A0A4C0023F4
:10522C0001E013600432A242FBD3FDF76FFCFDF7E3
:10523C007DFC7047000003200000002018000020B7
:10524C00B453000818000020D4090020FEE7000029
:10525C00000000000000000001020304060708091A
:10526C00000C02400E000000000C02400F00000079
:10527C00000C024000000000000C02400100000085
:10528C00001002400700000000100240080000005F
:10529C000010024009000000001002400A0000004B
:1052AC00001002400B000000001002400C00000037
:1052BC00001002400D000000001002400E00000023
:1052CC00001002400F000000000C0240080000001B
:1052DC00000C024009000000000C02400A00000013
:1052EC000014024000000000001402400100000005
:1052FC0000140240020000000014024003000000F1
:10530C0000140240040000000014024005000000DC
:10531C00001402400C000000001402400D000000BC
:10532C00001402400E000000001402400F000000A8
:10533C0000180240000000000018024001000000AC
:10534C000018024004000000001802400500000094
:10535C00001002400000000000100240010000009C
:10536C00001402400B000000001802400F00000067
:10537C000008024000000000001802400800000075
:10538C00000402400500000000040240060000007A
:10539C00180000000C0000000800000001020304CB
:0853AC000506070811180000B6
:1053B4000024F400EEEEEEEE00E0FF4401000000F5
:0853C4000000003F785634128E
:040000050800520994
:00000001FF
