:020000040800F2
:1000000000000320811D0008D11D0008D11D00083B
:10001000D11D0008D11D0008D11D000800000000FE
:10002000000000000000000000000000D11D0008DA
:10003000D11D000800000000D11D0008D11D0008DE
:10004000D11D0008D11D0008D11D0008D11D0008D8
:10005000D11D0008D11D0008D11D0008D11D0008C8
:10006000D11D0008D11D0008D11D0008D11D0008B8
:10007000D11D0008D11D0008D11D0008D11D0008A8
:10008000D11D0008D11D0008D11D0008D11D000898
:10009000D11D0008D11D0008D11D0008D11D000888
:1000A000D11D0008D11D0008D11D0008D11D000878
:1000B000D11D0008D11D0008D11D0008D11D000868
:1000C000D11D0008D11D0008D11D0008D11D000858
:1000D000D11D0008D11D0008D11D0008D11D000848
:1000E000D11D0008D11D0008D11D0008D11D000838
:1000F000D11D0008D11D0008D11D0008D11D000828
:10010000D11D0008D11D0008D11D0008D11D000817
:10011000D11D0008D11D0008D11D0008D11D000807
:10012000D11D0008A5100008D11D0008D11D000830
:10013000D11D0008D11D0008D11D0008D11D0008E7
:10014000D11D0008D11D0008D11D0008D11D0008D7
:10015000D11D0008D11D0008D11D0008D11D0008C7
:10016000D11D0008D11D0008D11D0008D11D0008B7
:10017000D11D0008D11D0008D11D0008000000009D
:10018000D11D0008D11D0008D11D0008D11D000897
:10019000D11D0008D11D0008D11D0008D11D000887
:0C01A000D11D0008D11D0008D11D000871
:1001B00040F3170300EE103ABAEEE40A704700BFAE
:1001C000F7EE007AB4EEE70AF1EE10FA01DD0B4823
:1001D0007047FFEE007AF4EEC07A9FED097AF1EEF7
:1001E00010FAD8BFF0EE407A67EE877AFDEEE77A34
:1001F00017EE903A23F07F40704700BFFFFF7F006B
:10020000FEFFFF4AF5EEC00A0023F1EE10FA43604C
:1002100008D9F6EE007A60EE277AF4EEE07AF1EE95
:1002200010FA04D8F7EE007AC0ED007A70479FED1F
:10023000077A60EE870AF7EE007AC0EE806A36EE43
:10024000A77AC6EE877AC0ED007A7047DB0FC94007
:10025000D0ED007AB7EE007AF4EEC77AF1EE10FA3C
:1002600009DA90ED017A30EE470A20EE270A30EEE7
:10027000070A80ED010A70470023038083707047EE
:1002800089B10388934203D3837843B10020704738
:1002900001339BB293420380F6D2002070470121C4
:1002A000817008467047018081700846704700BF22
:1002B00000EB820C9CED006AB2F1010C50D4614558
:1002C00098BFACEB010C00EB8C0C9CED007A002B82
:1002D0003FD0531C994298BF5B1A00EB8303012A5D
:1002E00093ED005AA2F1020349D0994298BF5B1ADC
:1002F00000EB8300D0ED005AF0EE046A75EEC57A8B
:1003000036EE474A66EE266AF6EE004AF7EE083AFF
:1003100024EE234A67EEA47A77EE073A75EE666A12
:1003200077EE847A76EEA36A65EEA45A67EE807A59
:1003300076EEE56A37EE457A77EEA67A27EE247AEE
:1003400067EE807A77EE877A67EE807A37EE860AF4
:10035000704737EE467A27EE007A37EE060A704786
:100360008C4400EB8C0C9CED007A002BF1D0931E9A
:10037000013206D50A4400EB820292ED005A0B448A
:10038000B6E7914298BF521A00EB820292ED005AF2
:100390000B44ADE70023C0E900128360704700BF43
:1003A00042683AB10368002103EB820243F8041B60
:1003B0009342FBD100238360704700BF81680268CD
:1003C0004B1C02EB8102416882ED000A8B4228BF80
:1003D00000238360704700BF10B483684468013312
:1003E0009C4298BF0023934218BF194610BC8160FD
:1003F000704700BF01380123834007EE903AF8EEC2
:10040000E77AB6EE007A27EE800A70EE200AF5EE63
:10041000C00AF1EE10FA08DB70EE870AFDEEE00A82
:10042000F8EEE00A80EEA70A704770EEC70AFDEE0C
:10043000E00AF8EEE00A80EEA70A70478C464168B1
:10044000614513469CBFBCFBF1F201FB12CC8268F4
:10045000624504D30068A2EB0C02FFF729BF00B588
:1004600002EB010EAEEB0C0200685DF804EBFFF747
:100470001FBF00BF30B58C4614464168D0F808E075
:100480009A1AA34238BF52189DF80C30FAB174453D
:1004900088BF8E44AEEB040E72459CBFBEFBF2F5E6
:1004A00002FB15EE62459CBFBCFBF2F502FB15CCCE
:1004B000E64538BF9644AEEB0C0C0CEB04029142BF
:1004C000BDE83040006898BF521AFFF7F1BE6145A1
:1004D0009CBFBCFBF1F201FB12CCE64538BF8E4459
:1004E000AEEB0C020068BDE83040FFF7E1BE00BF94
:1004F00030B52DED028B044683B0B0EE618AF0EE8C
:10050000608A8DED001A8DED010AFFF743FF20464A
:10051000FFF746FF9DED010AF0EE480A04F11000D6
:1005200000F0FEFBDDED001AB0EE681AF0EE480AAE
:10053000B7EE000A04F1780000F0A0FC9FED148AE9
:10054000002104F1880000F0CDFC04F19C0000F0D3
:10055000C1FA04F1E000B7EE000AF0EE480AFFF736
:1005600051FE012184F8E810A16884ED3C8A4FF027
:100570007E52002304F18800C4F8EC20C4F8F43063
:1005800003B0BDEC028BBDE8304000F0B3BC00BF4F
:1005900000000000E030FFF735BE00BFF5EEC00AF6
:1005A000F1EE10FA07EE900A01DCF7EE000A9FED7B
:1005B000087AF8EE677A77EEC77A87EEA07AB4EE1B
:1005C000C07AF1EE10FAD8BFB0EE470A704700BF0C
:1005D000000080422DE9F04F2DED028B05468FB0D3
:1005E0007830B0EE408A05F11007B0EE600A039152
:1005F00000F04EFC384600F0C1FB05F1880000F029
:1006000083FCD5E9249A8046002860D0D5ED3B0ACA
:10061000B0EE480A00F09AFA05F1E000FFF718FE84
:10062000D5F8F4000028F0EE407A56DCB0EE670A08
:100630002846FFF7C3FE9FED2C8A06AE00244FF03C
:10064000010B12E09DED050A95F8E8C053464A46B5
:100650002846B8F1000F20D1CDF800C0FFF70AFFFF
:100660000134082CA6EC010A1FD0214605AB04AAD0
:10067000384600F0E9FB04999FED1B0A0029E1D1FF
:1006800095F8E8C0CDF810B001218DED058A5346EC
:100690004A462846B8F1000FDED06246FFF7CEFE8C
:1006A0000134082CA6EC010ADFD1039A06A905F152
:1006B0009C0000F01DFA95ED3C0A06A905F19C008E
:1006C00000F028FA0FB0BDEC028BBDE8F08F524667
:1006D00049462846FFF780FEADE7DFED030AFFF746
:1006E00089FEF0EE407AA1E7000000000346883062
:1006F000996800F0FFBB00BF03468830996800F09E
:10070000FDBB00BF2DE9F0432DED028B134B89B0EB
:1007100093ED008AE2B189468046174600267501AE
:100720006C4658F80500FFF743FD0D486946F0EEAA
:10073000480AFFF74FFF4D44B4EC010AFFF740FDB4
:1007400008AB9C4245F8040BF6D10136B742E6D11E
:1007500009B0BDEC028BBDE8F08300BF00000020B3
:10076000380000202DE9F04F2DED068BA5B000F0EC
:10077000BFFC01F08BF900F057FF00F08DFF00285F
:1007800000F07E819FEDC08A00F0A8FF18B1F2EE64
:10079000047A28EE278ADFEDBD0ADFF800B34FF4B4
:1007A0000010B0EE480AFFF7F9FEDFEDB91A9FED31
:1007B000B71ADFEDB80AB849B8484FF40012B0EEE6
:1007C00040AAFFF795FE00F071FF182828BF00200F
:1007D000CBF8F40000F084FF002800F04E81DFED3C
:1007E000B00A9FEDA90AAD489FEDAE9ADFEDAE8A43
:1007F000DFEDA69AAD4DAE4FDFF8D0A2DFF8D08284
:10080000FFF7C8FE01F0CCF900F08AFB00F030FCE5
:1008100000F0A6FD00F0A4FFA64800F07DFBA6486E
:10082000FFF72AFD01F05CF801F0A0F84FF0000C92
:100830000120FF23B6EE008A0593039064460DF174
:1008400070090190CDF810C039E09DF82010019397
:10085000029BAAF800308AF80C109DF821108AF843
:100860000D1096489DF822108AF80E108AF80F6035
:1008700000F04AFBB0FA80F0DBF87020019B4009E1
:100880008AF81000CAF818208A489DF82120002113
:1008900001700398904240F0EA809DF8202005986E
:1008A0000493904240F0C3808348C822FFF7E8FCDD
:1008B000002840F09A8000230193013430BF01F0FA
:1008C000B7F96A78AB78120202F470621A432B7996
:1008D00068791B0203F470630343D01840F6FF717C
:1008E000884228BF084607EE900AF8EEE77A14F02F
:1008F0003F0667EE897A77EEC87A67EEA87A38EE17
:10090000278A87ED008AAAF80220AAF804308AED27
:10091000058AD2D100F044FF08A9029000F01AF92C
:1009200006A801F047F8BDF81830AAF80630019A79
:10093000BDF81A30AAF80830BDF81C30AAF80A3001
:100940009DF82430002A80D1029AAAF800209DF850
:1009500020208AF80C209DF821208AF80D209DF88F
:1009600022208AF80E20049A54480193D61A18BF00
:1009700001268AF80F6000F0C7FAB0FA80F0DBF8C1
:100980007020019B40098AF81000CAF81820049AC8
:100990009A423FF479AF474B1B78002B5FD0454913
:1009A0009DF8213001220A70039A934210D008A8C2
:1009B00000F0FAF8F0EE690A4FF4001020EE0A0A8F
:1009C000FFF7ECFD3E4800F0D5F99DF82130039388
:1009D0009DF82030059A934229D131463648C822E5
:1009E000FFF74EFC00283FF466AF354B0AAA53F8D8
:1009F000041B42F8041B9845F9D1039B8DF84C3039
:100A00003B68129314A900230AA88DF84D30ADF865
:100A10004E3000F0CFF814A902469DF8200000F0F7
:100A2000E9FD9AF8113001338AF8113043E700F0FC
:100A3000DDFD14AA9DF8201000F0C2F814AB0AAA3C
:100A400053F8041B42F8041B9945F9D10AA91C4824
:100A500000F086F99DF8203005933146BEE717482F
:100A600000F052FA28B10D48FFF746FE97E70493CD
:100A70009DE70A48FFF73AFE91E7DFED120AB0E67C
:100A80009FED118A80E600BF0080BB47CDCCCC3FF4
:100A90009A99193ECDCCCC3E000000D03800002001
:100AA00000442C46010880398FC2F53C540A0020CE
:100AB00000000020300000202C000020C00000209A
:100AC00048000020000000000080BB46100000200D
:100AD00068000020034600F120014FF07E5243F8E9
:100AE000042B8B42DA61FAD14FF0785303647047DC
:100AF00001F12003F0EC016AF1EC017A90ED077A44
:100B000067EEA67A994267EE877AE2EC017AF1D134
:100B1000704700BF9FED0C7A034601F12002B3EC51
:100B2000016AF1EC017AD3ED076A67EE867A8A42B0
:100B300067EEA67A37EE277AF1D130EE070AD0EDCC
:100B4000107A20EE270A70470000000020EE200AED
:100B5000704700BF10F0010302D082071DD40123AB
:100B600010F0080F0CBF4FF0020C4FF0010C0B708F
:100B700000236CF30703C0F3001CC0F300226CF3E6
:100B80000F23C0F3801060F3174362F31F634A71B1
:100B90000022C1F801308A71704710F0040F0CBFB9
:100BA00002230323DCE700BF437800EE103AB8EEDF
:100BB000400A7047024628230846012100F038B851
:100BC00010B503298CB014460AD8282300EB8110F5
:100BD0000093012202AB402100F064F8282817D0CE
:100BE00022460023B3EE047A013307EE903AF8EE82
:100BF000E77A082B67EE877AE2EC017AF4D10123D9
:100C0000636200234FF07C52184622620CB010BD84
:100C10000DF1080CBCE80F000FC4BCE80F000FC4B6
:100C20009CE80300012384E8030018460CB010BDC3
:100C300010B51C46194B0360002361F30703090A32
:100C400061F30F2364F31743210A61F31F63C0F8B4
:100C500006304CB100F1090302EB040C12F8011B41
:100C600003F8011F6245F9D104F1090E0C4B411D37
:100C700086444FF6FF7211F801CF82EA0C22C2F3CC
:100C8000072C714533F81CC08CEA0222F3D1130AF9
:100C90000271437104F10A0010BD00BF723838328E
:100CA000D41D000870B50929BDF8104031D9D0F81D
:100CB00000C0194DAC452CD1C588954229D1058974
:100CC000AC4226D305F10A028A4222D8828800F17A
:100CD000090400F1050C1148164605EB040E4FF609
:100CE000FF721CF8011F82EA0122110AF44530F854
:100CF000111081EA022292B2F3D1964209D135B1A4
:100D0000591914F8012F03F8012B9942F9D12846FB
:100D100070BD4FF0FF3070BD72383832D41D0008FE
:100D20009FED0D6B024680ED180AC0ED190A00F127
:100D300018010023B3EE047A013307EE903AF8EE7F
:100D4000E77A083167EE877A082BE2EC017A81EDC9
:100D5000006BF1D1704700BF0000000000000000F0
:100D600001F1200251F8043B40F8043B9142F9D1D3
:100D7000704700BF80ED180A704700BFDFED305AA2
:100D80009FED306AD0ED184A90ED195A2DE9F041E7
:100D900000F11801864600F120050020BEEC017A22
:100DA00051F808CFC7EE257A4C6867EEA47A67EE53
:100DB000807ABDEEE77AF8EEC76A77EEE67AF0EE73
:100DC000676AFEEEE06A16EE903ADE184FEAE373C9
:100DD0005B413618B6EB0C0207EE902A17EE102A8C
:100DE0001A4462EB040307EE103AF8EE677AB8EEA5
:100DF000C77A67EE867A77EE877A67EE857ABDEEF8
:100E0000E77AF8EEC76A17EE108A77EEE67AF0EE28
:100E1000676AFEEEE06A16EE903ADF184FEAE37377
:100E200048EB43033F1857EA030803D017EB0C06BF
:100E300043EB04027545C1E90062AFD1BDE8F08122
:100E4000000020430000802F043100EBC10C50F85B
:100E50003110DCF804009FED087A0028B8BF0021AB
:100E600007EE901AF8EE677AB8BF002067EE877A2F
:100E70001060C3ED007A70470000802F80ED021AE9
:100E8000C0ED031AC0ED010A80ED000A704700BFF3
:100E9000B5EEC00AF1EE10FA1FD4F7EE007AB4EE08
:100EA000E70AF1EE10FAD8BFF0EE407AD0ED026A10
:100EB00090ED030A90ED007A90ED016A30EE660A3B
:100EC00020EE270A30EE260A30EE470A20EE060A08
:100ED00030EE070A80ED000A7047DFED017AE5E7A2
:100EE0000000000000230122C0E901330270C3604A
:100EF0000174704701230370416070474368022208
:100F0000C0E90231027070470078A0F10100B0FA28
:100F100080F04009704700BF4FF000030380704726
:100F2000454B46495A6C42F480022DE9F0475A6419
:100F30005A6C1A6B42F038021A631B6B01F12807D6
:100F4000032602254FF0010C0F244FF0060E0A680D
:100F50000B7910684FEA430906FA09F820EA0800FD
:100F600005FA09F940EA0900106050680CFA03F923
:100F700020EA09005060906848EA00009060D2F8CA
:100F80000C904FEAD30A02EB8A0029EA0808C2F85B
:100F90000C8003F00703026A9B0004FA03F822EABC
:100FA00008020EFA03F308311343B9420362CED1AB
:100FB000234B24495960244A2448C3F808C001F24D
:100FC0000141D8601A6159621B49C3F828C0D86230
:100FD0001A630B6B1E4A43F480030B630023096BF7
:100FE0009362936A13F00103FBD11A491A4D1563FA
:100FF0001A4851634FF480741549D4629062C2F864
:101000008830D1F88830DB07FBD4154B154D164AD4
:10101000C1F890501548C1F894204FF48074102204
:10102000C1F88C40C1F8880083F839234FF0007272
:101030005A60BDE8F08700BF00380240D41F0008A6
:1010400000580140C12012008007FF00FF0F06007A
:10105000006402403005002020580140185503006C
:1010600000E100E0405801403001002040550300FD
:101070000A4A0B4B916A41F001019162D2F8881043
:1010800041F00101C2F888105A6A42F480325A6273
:101090005A6842F480325A60704700BF00640240D0
:1010A0000058014008B50D4B1A6851050DD40B4B83
:1010B0001A68120500D408BD4FF400629A6008490E
:1010C00008481022FFF71EFB08BD4FF480629A60AB
:1010D000054906481022FFF715FBE8E700640240C7
:1010E00030030020300700203001002030050020B0
:1010F0002849294A0B6843F480330B60D2F8003842
:101100009803FBD5234B25491A6C254842F08052A1
:101110001A641A6C0A6840F2057C42F440420A6084
:10112000C0F800C09A681F4922F47C4222F0F00205
:1011300042F414429A6059601968174A41F080716C
:101140001960D2F800389901FBD5124A936823F050
:10115000030343F002039360936803F00C03082B2E
:10116000FAD1114BC2F88830D2F88C300A4923F4F6
:10117000700323F4F85343F4C063C2F88C3013684F
:1011800043F080531360D1F800389B00FBD500F08A
:10119000BFBD00BF00380240003002400070004078
:1011A000003C02400854400700560002DFF8C0C06F
:1011B0002E4BDCF8002042F48072CCF80020ACF515
:1011C000806C01E0013B44D0DCF81424D207F9D54F
:1011D000274A264B4FF0920CC2F810C0DFF894C09B
:1011E00001E0013B2DD0DCF814249207F9D5204A08
:1011F0001E4B9269DFF87CC001E0013B2CD0DCF88B
:1012000014241206F9D51A4A184BDFF868C0106189
:1012100001E0013B23D0DCF814241006F9D5144A70
:10122000124B1448116101E0013B1BD0D0F814248B
:101230005207F9D50E4A136843F400730020136077
:1012400070470B4A136843F400736FF0010013609A
:1012500070474FF0FF3070476FF0020070476FF03B
:10126000030070476FF00400704700BF400D03009B
:101270000054004000500040F0B50020314BDFF832
:10128000D8E0DFF8D8C083B04FF6FF36012504461A
:101290002D4A01E0013A02D099698F07FAD4196802
:1012A000294A41F48071196001E0013A02D059697C
:1012B000C907FAD55A69D2072ED54200D2B22349BE
:1012C0001A6103E0520531D4013935D05A699707C4
:1012D000F8D59A691A68410942F400721A605EF8FA
:1012E000217000F01F0205FA02F23A434EF8212065
:1012F0000194019AB2F5FA6F06DA019A013201926D
:10130000019AB2F5FA6FF8DB01308028C0D1104B9A
:10131000104A1A6003B0F0BD1A6842F400721A60F5
:10132000DCF800200132CCF80020E1E75E611A68A9
:1013300042F400721A60DBE71A6842F400721A6025
:10134000D6E700BF00540040410D0300400D0300EC
:1013500030090020EEFFC0003809002034090020C9
:101360002DE9F047974A984B116B41F0010182B08B
:101370001163126B1A6822F0300242F010021A60F8
:101380005968924A4FF48024002021F004015960EA
:101390009C610090009B934205DC009B013300930D
:1013A000009B9342F9DD884B1A6822F0300242F02C
:1013B00010021A605968854A0424002021F00401B3
:1013C00059609C610190019B934205DC019B0133B4
:1013D0000193019B9342F9DD7A4A7D4B116B7D4C61
:1013E00041F002011163116B196821F4403141F49D
:1013F00000311960596841F480715960996841F46D
:1014000080319960D96821F4403141F48031D9604C
:10141000596A21F00F0141F004015962196821F461
:10142000402141F400211960596841F4007159606C
:10143000996841F480219960D96821F4402141F4F0
:101440008021D960596A21F0F00141F040015962D0
:10145000136C43F400131364136C00264FF4004024
:101460002A232B222060D221266063600123E161C0
:1014700022622360FFF700FF7F210220FFF796FE24
:10148000F02105460320FFF791FE36210543042095
:10149000FFF78CFEFF2105430720FFF787FE31464B
:1014A00005430220FFF782FE102105430620FFF7C7
:1014B0007DFE314605430720FFF778FE464BDFF8F7
:1014C00028E145EA000CC3F800C04448444B92258B
:1014D00093264FF0EE0AD4F8009010F8018B414AA1
:1014E00049F48079C4F8009001E0013A66D0D3F85D
:1014F0001474FF07F9D53B4A256101E0013A55D044
:10150000D3F81474BF07F9D5A269364A01E0013A4D
:1015100054D0D3F814743F06F9D5324AC4F8108079
:1015200001E0013A4AD0D3F814747F07F9D5D4F812
:1015300000802C4A48F48078C4F8008001E0013A29
:101540003CD0D3F81474FF07F9D52661D4F8008095
:10155000244A28F48068C4F8008001E0013A25D0CC
:10156000D3F81474BF07F9D5A269D4F800801D4AD6
:1015700048F40078C4F8008001E0013A1ED0D3F8A6
:1015800014747F06F9D5D4F81080226842F4806282
:1015900022600EF8018001310A299CD1BCF10000C3
:1015A00018BF0120404202B0BDE8F087DFF8248078
:1015B000D8F8002042F40072C8F800200EF801A00C
:1015C000E9E700BF0038024000000240DF9304005A
:1015D000000402400054004004000020FC1F0008EA
:1015E00000500040400D03004809002000487047AB
:1015F00054090020032810D8402A0ED85AB1084BAD
:10160000013903EB801001380A4411F8013F00F85A
:10161000013F9142F9D1002070474FF0FF307047F1
:1016200054090020704700BF1849194A086B194B2C
:1016300040F00A000863096B116821F44011116041
:10164000D16821F4401141F48011D160116821F476
:1016500040011160D16821F4400141F48001D16062
:101660001A6822F440021A60DA6822F4400242F456
:101670008002DA601A6822F040721A60DA6822F09A
:10168000407242F08072DA60704700BF003802405A
:1016900000040240000C0240034B18696FEAD0209E
:1016A00000F00100704700BF00040240094B1A69B6
:1016B0001B696FEA13336FEAD2225B0002F001026A
:1016C00003F002031343032B1ABF034A52F823000B
:1016D00004207047000C02400820000800207047DA
:1016E000002070471B491C4B086B1C4A40F005004A
:1016F0000863096B196821F4407141F48071196025
:10170000196821F4406141F480611960196821F081
:10171000404141F080411960196821F4405119603D
:10172000116821F4401141F480111160116821F019
:101730004071102041F0807111604FF0200C9861D1
:101740004FF000414FF08060C3F818C0906199617C
:10175000704700BF0038024000000240000802400D
:101760000D4A0E4B116B41F001011163126B1A68A7
:1017700022F4407242F480721A601A6822F44062C5
:1017800042F480621A601A681020202122F440522C
:101790001A60986199617047003802400000024069
:1017A000F0B4244A84B000234FF480119161019376
:1017B000019B0B2B05DC019B01330193019B0B2B40
:1017C000F9DD1C4A0023102191610093009B0B2B33
:1017D00005DC009B01330093009B0B2BF9DD0020FF
:1017E00014490D224FF40017044620268F610294FD
:1017F000029B0B2B05DC029B01330293029B0B2BFC
:10180000F9DD0D698E610394039B400015F0400FD4
:1018100080B218BF40F001000B2B05DC039B0133A5
:101820000393039B0B2BF9DD013ADFD104B0F0BC2D
:10183000704700BF0000024010B5DFF8A0C0864628
:1018400084B0172200214FF480644FF080602EFA9C
:1018500002F313F0010F0CBF4FF080534FF480538D
:10186000CCF818300291029B0B2B05DC029B013354
:101870000293029B0B2BF9DDCCF818400191019BE0
:101880000B2B05DC019B01330193019B0B2BF9DD35
:10189000CCF818000091009B0B2B05DC009B01335A
:1018A0000093009B0B2BF9DD013AD0D20A4A0023AA
:1018B0004FF4004191610393039B0B2B05DC039BC9
:1018C00001330393039B0B2BF9DD034B4FF00042D5
:1018D0009A6104B010BD00BF000002400008024041
:1018E0001E4B1F4A196BDFF880C041F0030170B531
:1018F00019631B6B136823F0030343F001034FF4D8
:10190000803013609061136823F440034FF000614E
:1019100043F4800313600CF10306916103254FF03B
:10192000010E1CF8011B1368480005FA00F423EAB5
:1019300004030EFA00F003430EFA01F1664513604A
:101940009161EED1074A136823F00F034FF4403141
:1019500043F005031360916170BD00BF0038024081
:1019600000000240000402401420000810B5FFF7F8
:10197000B9FE0E4B0E49186B40F0040018631B6B48
:10198000022203244FF0010E0B6804FA02F023EA4E
:1019900000030B60CB680EFA02FC23EA000302325C
:1019A00043EA0C030E2ACB60EED110BD0038024092
:1019B000000802402DE9F04F85B00025DFF8C8800F
:1019C00001904FF0080A2E462F46A9464FF0010B12
:1019D000AAF1080404EB041004EB001000EB003043
:1019E000FFF72AFFCDF80C90039B0B2B05DC039B24
:1019F00001330393039B0B2BF9DDCDF80890029B79
:101A00000B2B05DC029B01330293029B0B2BF9DDB0
:101A1000D8F810100BFA04F447EA040011F0200F74
:101A200080B20BFA0AF308BF074647EA030C46EAFE
:101A3000040011F0400F1FFA8CFC80B208BF67460B
:101A400011F0080F08BF064646EA03002C4311F0C8
:101A5000100F80B208BF0646A4B211F0020F08BFF3
:101A600025462B4311F0040F9BB20AF1010A08BF6F
:101A70001D46BAF1100FABD1019B1F805E809D8087
:101A800005B0BDE8F08F00BF000802403F4B404961
:101A90001A6B42F0FE022DE9F0471A631B6B01F549
:101AA00098770326022501244FF00F0E4FF00C0CFF
:101AB0000A680B7910684FEA430906FA09F820EA28
:101AC000080005FA09F940EA09001060506804FAB4
:101AD00003F920EA09005060906848EA000090602D
:101AE000D2F80C90072B94BF4FF0000A4FF0010A78
:101AF00002EB8A0029EA0808C2F80C8003F0070309
:101B0000026A9B000EFA03F822EA08020CFA03F3B9
:101B100008311343B9420362CAD11C4B1D4A996B69
:101B20001D4841F0010199639B6B4FF460544FF4E1
:101B3000EA714FF48313146451649364D064936D19
:101B40009D06FCD40923136544F61F6300BF1A46A3
:101B5000013B002AFAD10F4A936D9C06FCD40A235C
:101B60000C4913658B6D9806FCD4EB23094A0B6571
:101B7000936D9906FCD40948064910654FF49F639C
:101B800053658B6D9B06FCD4BDE8F087003802409E
:101B900018200008000100A0610301010C6004008E
:101BA000204A214B106B40F0020070B51063106C9E
:101BB00040F480401064126C1A21022503244FF077
:101BC0000F0E4FF0050C1A6804FA01F605FA01F041
:101BD00022EA060202431A609E683043A1F1100215
:101BE0009860586A52000EFA02F620EA06000CFAD3
:101BF00002F20231024320295A62E4D11A680B49E9
:101C000022F0407242F080724FF480541A604FF418
:101C10004D709C61002308604B600B6843F04003EB
:101C20000B6070BD003802400004024000380040E4
:101C30002DE9F0410020DFF8B8C02B4B2B4982B0D2
:101C4000A0274FF08056864601254FF48054DA686D
:101C50009A688E61CDF804E0019A272A05DC019A82
:101C600001320192019A272AF9DD9A689207FCD580
:101C70001D739A68D207FCD500EB400293F80C80E4
:101C80000CF802804FEA40089A689207FCD51F734F
:101C90009A68D207FCD508EB000262441F7B57709C
:101CA0009A689707FCD583F80CE09A68D207FCD5B0
:101CB0008044E0441A7B88F802209A6812F080027F
:101CC000FBD18C610092009A272A05DC009A013230
:101CD0000092009A272AF9DDE02710B102B0BDE892
:101CE000F0810120B3E700BF00380040000402404B
:101CF000540A0020054BD3F888204FF0006142F4CD
:101D00007002C3F888209960704700BF00ED00E0C2
:101D1000164A936803F00C03042B25D0082B0AD035
:101D2000134B124A134892681349C2F30312825CA0
:101D3000D3400B6070475368516813F4800F5368A9
:101D400014BF0E4A0A4AC3F3881301F03F01B2FBE5
:101D5000F1F202FB03F3054A5268C2F30142013279
:101D60005200B3FBF2F3DCE7044BDAE70038024041
:101D70000024F400482100080800002000127A0026
:101D8000DFF834D0FFF7B6FF0C480D490D4A0023A9
:101D900002E0D458C4500433C4188C42F9D30A4A20
:101DA0000A4C002301E013600432A242FBD3FFF788
:101DB00039FCFEF7D7FC704700000320000000202C
:101DC0000C00002058210008100000205C0A0020B0
:041DD000FEE700002A
:101DD40000002110422063308440A550C660E770A3
:101DE400088129914AA16BB18CC1ADD1CEE1EFF14B
:101DF4003112100273325222B5529442F772D662F3
:101E0400399318837BB35AA3BDD39CC3FFF3DEE39A
:101E14006224433420040114E664C774A444855442
:101E24006AA54BB528850995EEE5CFF5ACC58DD5EA
:101E34005336722611163006D776F6669556B44692
:101E44005BB77AA719973887DFF7FEE79DD7BCC73A
:101E5400C448E5588668A7784008611802282338E2
:101E6400CCC9EDD98EE9AFF9488969990AA92BB98A
:101E7400F55AD44AB77A966A711A500A333A122A32
:101E8400FDDBDCCBBFFB9EEB799B588B3BBB1AABDA
:101E9400A66C877CE44CC55C222C033C600C411C82
:101EA400AEED8FFDECCDCDDD2AAD0BBD688D499D2A
:101EB400977EB66ED55EF44E133E322E511E700ED2
:101EC4009FFFBEEFDDDFFCCF1BBF3AAF599F788F7A
:101ED4008891A981CAB1EBA10CD12DC14EF16FE15A
:101EE4008010A100C230E320045025404670676092
:101EF400B9839893FBA3DAB33DC31CD37FE35EF3AA
:101F0400B1029012F322D2323542145277625672E1
:101F1400EAB5CBA5A89589856EF54FE52CD50DC5F9
:101F2400E234C324A0148104667447642454054431
:101F3400DBA7FAB79987B8975FE77EF71DC73CD749
:101F4400D326F2369106B016576676761546345681
:101F54004CD96DC90EF92FE9C899E9898AB9ABA999
:101F64004458654806782768C018E1088238A328D1
:101F74007DCB5CDB3FEB1EFBF98BD89BBBAB9ABBE9
:101F8400754A545A376A167AF10AD01AB32A923A21
:101F94002EFD0FED6CDD4DCDAABD8BADE89DC98D39
:101FA400267C076C645C454CA23C832CE01CC10C71
:101FB4001FEF3EFF5DCF7CDF9BAFBABFD98FF89F89
:101FC400176E367E554E745E932EB23ED10EF01EC1
:101FD4000010024002000000001002400400000053
:101FE4000010024005000000000C02400600000042
:101FF400001402400600000001020304050607085D
:1020040011180000180000000C0000000800000077
:1020140001070800000C02400E000000000C024002
:102024000F000000000C024000000000000C024001
:1020340001000000001002400700000000100240F0
:1020440008000000001002400900000000100240D7
:102054000A000000001002400B00000000100240C3
:102064000C000000001002400D00000000100240AF
:102074000E000000001002400F000000000C02409F
:1020840008000000000C024009000000000C02409F
:102094000A00000000140240000000000014024086
:1020A400010000000014024002000000001402407D
:1020B4000300000000140240040000000014024069
:1020C40005000000001402400C000000001402404F
:1020D4000D000000001402400E0000000014024035
:1020E4000F00000000180240000000000018024029
:1020F4000100000000180240040000000018024023
:102104000500000000100240000000000010024022
:1021140001000000001402400B00000000180240FF
:102124000F000000000802400000000000180240F8
:102134000800000000040240050000000004024002
:10214400060000000000000000000000010203047B
:042154000607080969
:0C2158000000003FEEEEEEEE0024F4006C
:0400000508001D8151
:00000001FF
