:020000040800F2
:1000000000000320CD5200081D5300081D530008B6
:100010001D5300081D5300081D5300080000000078
:100020000000000000000000000000001D53000858
:100030001D530008000000001D5300081D53000858
:100040001D5300081D5300081D5300081D530008D0
:100050001D5300081D5300081D5300081D530008C0
:100060001D5300081D5300081D5300081D530008B0
:100070001D5300081D5300081D5300081D530008A0
:100080001D5300081D5300081D5300081D53000890
:100090001D5300081D5300081D5300081D53000880
:1000A0001D5300081D5300081D5300081D53000870
:1000B0001D5300081D5300081D5300081D53000860
:1000C0001D5300081D5300081D5300081D53000850
:1000D0001D5300081D5300081D5300081D53000840
:1000E0001D5300081D5300081D5300081D53000830
:1000F0001D5300081D5300081D5300081D53000820
:100100001D5300081D5300081D5300081D5300080F
:100110001D5300081D5300081D5300081D530008FF
:100120001D530008A91800081D5300081D5300089E
:100130001D5300081D5300081D5300081D530008DF
:100140001D5300081D5300081D5300081D530008CF
:100150001D5300081D5300081D5300081D530008BF
:100160001D5300081D5300081D5300081D530008AF
:100170001D5300081D5300081D5300080000000017
:100180001D5300081D5300081D5300081D5300088F
:100190001D5300081D5300081D5300081D5300087F
:0C01A0001D5300081D5300081D530008EB
:1001AC0065494A68B5EEC00A07EE902AF1EE10FADE
:1001BC00F8EE677A0DD530EE270AB5EEC00AF1EEEF
:1001CC0010FAF8D4B4EEE70AF1EE10FA06DB30EED2
:1001DC00670AB4EEE70AF1EE10FAF8DAFDEEC07A2F
:1001EC00096817EE903AF8EEE77A30EE670A0028C5
:1001FC0064D0581E1BD4824298BF801A01EB800039
:10020C009A4290ED004A74D901EB8300D0ED004A7C
:10021C00581C824298BF801A01EB800090ED007A46
:10022C0002339A42184618D81046181A15E0104492
:10023C0001EB800090ED004A002B6FD0981801EB79
:10024C008000D0ED004A581C65D0104401EB8000B2
:10025C00023390ED007AE4D0D01801EB800191EDDF
:10026C00006AF0EE047A76EE446A34EEC75A64EE15
:10027C00A77AF6EE005AB7EE083A77EE073A74EE24
:10028C00677A66EEA56A25EE035A77EEA37A26EE18
:10029C00256A76EE856A77EEC67A66EE806A37EE68
:1002AC00447A77EEA67A27EE257A67EE807A77EE97
:1002BC00877A27EE800A30EE240A7047834203F1D6
:1002CC00010C1DDB9A4298BF9B1A01EB830393ED43
:1002DC00007A6046824298BFACEB020001EB8000D2
:1002EC00D0ED007A77EEC77A27EE800A30EE070A57
:1002FC007047981A01EB8000D0ED004A581C88E733
:10030C00134401EB830393ED007ABCF1000FE1D0B1
:10031C0002EB0C00E2E752B108467FE7002A7FF4BB
:10032C0073AFD1ED004A91ED017A02237CE791ED98
:10033C00007A012379E700BF00000010274AD2EDB4
:10034C00027A5068F8EE677A07EE100A37EEC00AA8
:10035C00B8EE477AB5EEC00AF1EE10FA0DD530EED4
:10036C00070AB5EEC00AF1EE10FAF8D4B4EEC70ADB
:10037C00F1EE10FA06DB30EE470AB4EEC70AF1EEE6
:10038C0010FAF8DAFDEEC07A116817EE903AF8EE32
:10039C00E77A002B70EE677A03F1010215DB9842C5
:1003AC0098BF1B1A01EB830393ED000A904213468E
:1003BC0098BF131A01EB830191ED007A37EE407A66
:1003CC0067EE277A37EE800A7047034401EB83030C
:1003DC0093ED000A8318002AECD1E7E70000001027
:1003EC0000EB820C012A00B5DCED006A0ED902F19B
:1003FC00010E8E450AD21CED017A002B64D137EE2A
:10040C00667A27EE007A37EE260A00BDB2F1010CAF
:10041C0049D4614598BFACEB010C00EB8C0C9CED06
:10042C00007A002BEBD0531C994298BF5B1A00EB5F
:10043C008303012A93ED005AA2F1020342D09942A0
:10044C0098BF5B1A00EB8300D0ED005AB0EE046A43
:10045C0075EEC57A36EEC74A26EE866AF6EE004A87
:10046C00F7EE083A24EE234A67EEA47A77EE073AC1
:10047C0035EE466A77EE847A36EE236A65EEA45A38
:10048C0067EE807A36EE656A37EE457A77EE867AD5
:10049C0027EE247A67EE807A77EE877A67EE807A99
:1004AC0037EEA60A00BD8C4400EB8C0C9CED007A58
:1004BC00002BA4D0931E013237D50A4400EB8202E4
:1004CC0092ED005A0B44BDE7DCED014A5CED025A9B
:1004DC00B0EE046A75EEE47A36EEC74A26EE866A0A
:1004EC00B6EE005AF7EE083A24EE234A67EE857A08
:1004FC0077EE073A34EEC66A77EE847A36EE236AE4
:10050C0065EE855A67EE807A36EE656A37EE647A68
:10051C0077EE867A27EE057A67EE807A77EE877A21
:10052C0067EE807A37EEA60A00BD914298BF521A48
:10053C0000EB820292ED005A0B4483E72DE9F04F59
:10054C002DED028BF5EEC00AF1EE10FA8BB00546DC
:10055C0000F1F984F7EE007AF4EEE70AF1EE10FA06
:10056C00C8BFF0EE670AE14CD4ED326AD4ED337AB1
:10057C0094ED307AD4ED315A94ED2C6A77EEE67A1C
:10058C0067EEA07A77EEA67A77EEC77A67EEA57A51
:10059C0077EE877AB4EE676AF1EE10FAC4ED307A32
:1005AC0040F0F682D4F8B430002B40F0F182206F8A
:1005BC00216B676F666B94ED2F7A421A67EB06031B
:1005CC0052EA030C27D007EE902A9FEDC96AF8EE89
:1005DC00676A07EE903A66EE866AF8EEE77A77EE8F
:1005EC00A67A67EE877AFDEEE76AB8EEE66A16EE53
:1005FC0090CA77EEC67AB0EE676ABEEEE06A16EE87
:10060C00103ADA17DB184CEB420253EA020C40F0BA
:10061C004984C4E90C07A06FA16BE76FE66B421A23
:10062C0067EB060352EA030C27D007EE902A9FEDE6
:10063C00B06AF8EE676A07EE903A66EE866AF8EEF4
:10064C00E77A77EEA67A67EE877AFDEEE76AB8EE80
:10065C00E66A16EE90CA77EEC67AB0EE676ABEEE20
:10066C00E06A16EE103ADA17DB184CEB420253EA4A
:10067C00020C40F01084C4E90E07D4F88000216C01
:10068C00D4F88470666C421A67EB060352EA030CCA
:10069C0027D007EE902A9FED966AF8EE676A07EE70
:1006AC00903A66EE866AF8EEE77A77EEA67A67EE0F
:1006BC00877AFDEEE76AB8EEE66A16EE90CA77EE38
:1006CC00C67AB0EE676ABEEEE06A16EE103ADA173A
:1006DC00DB184CEB420253EA020C40F0D683C4E91F
:1006EC001007D4F88800A16CD4F88C70E66C421A10
:1006FC0067EB060352EA030C27D007EE902A9FED16
:10070C007C6AF8EE676A07EE903A66EE866AF8EE57
:10071C00E77A77EEA67A67EE877AFDEEE76AB8EEAF
:10072C00E66A16EE90CA77EEC67AB0EE676ABEEE4F
:10073C00E06A16EE103ADA17DB184CEB420253EA79
:10074C00020C40F09C83C4E91207D4F89000216D90
:10075C00D4F89470666D421A67EB060352EA030CE8
:10076C0027D007EE902A9FED626AF8EE676A07EED3
:10077C00903A66EE866AF8EEE77A77EEA67A67EE3E
:10078C00877AFDEEE76AB8EEE66A16EE90CA77EE67
:10079C00C67AB0EE676ABEEEE06A16EE103ADA1769
:1007AC00DB184CEB420253EA020C40F06283C4E9C2
:1007BC001407D4F89800A16DD4F89C70E66D421A19
:1007CC0067EB060352EA030C27D007EE902A9FED45
:1007DC00486AF8EE676A07EE903A66EE866AF8EEBB
:1007EC00E77A77EEA67A67EE877AFDEEE76AB8EEDF
:1007FC00E66A16EE90CA77EEC67AB0EE676ABEEE7F
:10080C00E06A16EE103ADA17DB184CEB420253EAA8
:10081C00020C40F02883C4E91607D4F8A000216E1E
:10082C00D4F8A470666E421A67EB060352EA030C06
:10083C0027D007EE902A9FED2E6AF8EE676A07EE36
:10084C00903A66EE866AF8EEE77A77EEA67A67EE6D
:10085C00877AFDEEE76AB8EEE66A16EE90CA77EE96
:10086C00C67AB0EE676ABEEEE06A16EE103ADA1798
:10087C00DB184CEB420253EA020C40F0EE82C4E966
:10088C001807D4F8A800A16ED4F8AC70E66E421A22
:10089C0067EB060352EA030C30D007EE902A9FED6B
:1008AC00146AF8EE676A07EE903A66EE866AF8EE1E
:1008BC00E77A77EEA67A67EE877ABDEEE77AF8EEFE
:1008CC00C76A17EE10CA77EEE67AF0EE676AFEEEAC
:1008DC00E06A16EE903ADA17DB184CEB420253EA58
:1008EC00020C40F0B482C4E91A0707E000000010C3
:1008FC000000802F0000000000002043D4E901120A
:10090C0094F8D030012B02F1010940F03E82D4ED75
:10091C004A7AD4ED4D6AB7EE007AF4EEC77AF1EE6E
:10092C0010FA20EE260A09DA94ED4B7A30EE470ADB
:10093C0020EE270A30EE070A84ED4B0AD4F83C610E
:10094C00002E00F3BB822668894506EB820380F0FB
:10095C00B08209EB010AC846626B83ED000A002ADB
:10096C00B8BF0022236B94F83071C4F80890B8BF5C
:10097C000023002A40F0EB8201291FED220A00F22D
:10098C007F84A8EB02023B463046FFF729FDE26B61
:10099C00A36B8DED020A002ABCBF00220023002AA3
:1009AC0040F0EA8201291FED2D0A00F27D84A8EBAC
:1009BC0002023B463046FFF713FD626C236C8DED53
:1009CC00030A002ABCBF00220023002A40F0E9825F
:1009DC0001291FED380A00F26584A8EB02023B46A0
:1009EC003046FFF7FDFCE26CA36C8DED040A002A87
:1009FC00BCBF00220023002A40F0E88201291FED31
:100A0C00430A00F24D84A8EB02023B463046FFF746
:100A1C00E7FC626D236D8DED050A002ABCBF002238
:100A2C000023002A40F0E78201291FED4E0A00F254
:100A3C003584A8EB02023B463046FFF7D1FCE26D51
:100A4C00A36D8DED060A002ABCBF00220023002AEC
:100A5C0040F0E68201291FED590A00F21D84A8EB33
:100A6C0002023B463046FFF7BBFC626E236E8DEDF7
:100A7C00070A002ABCBF00220023002A40F0E582AE
:100A8C0001291FED640A00F20584A8EB02023B4623
:100A9C003046FFF7A5FCE26EA36E8DED080A002A26
:100AAC00BCBF00220023002A40F0E48201291FED84
:100ABC006F0A00F2E783A8EB02023B463046FFF7D1
:100ACC008FFC8DED090AD4ED397ADDED026A94EDD7
:100ADC00417A9DED036ADDED054A9DED065ADDED8B
:100AEC00075A67EEA67ADDED046A67EE877AC5EDE4
:100AFC00007AD4ED3A7A94ED427A67EE867A9DEDDF
:100B0C00086A67EE877AC5ED017AD4ED3B7A94EDED
:100B1C00437A67EEA67A67EE877AC5ED027A94ED92
:100B2C003C7AD4ED446ADDED097A27EE247A27EE7F
:100B3C00267A85ED037A94ED3D7AD4ED456A27EE5D
:100B4C00057A27EE267A85ED047A94ED3E7AD4ED7B
:100B5C00466A27EE257A27EE267A85ED057A94EDFE
:100B6C003F7AD4ED476A27EE067A27EE267A85ED92
:100B7C00067AD4ED406A94ED487A67EEA67A67EE71
:100B8C00877AC5ED077A0BB0BDEC028BBDE8F08F10
:100B9C001FEDA73AD4ED046A94ED056AD4ED0B2A47
:100BAC00C4ED2C7A86EE837AC6EE034AD4ED066A3F
:100BBC0094ED076AC6EE833A86EE035AD4ED086AC2
:100BCC0094ED096A86EE834AD4ED0A6AC6EE035A9E
:100BDC0086EE836AC2EE836A94ED2E3A27EE037A90
:100BEC0064EE834A27EE277A64EEA74A25EE035A71
:100BFC00FDEEC72ABDEEE42A25EE275A66EE836A7F
:100C0C00FDEEC50A63EE833A24EE034A65EE835A81
:100C1C00F8EEE21A26EE036AB8EEC23A37EE617AC3
:100C2C0074EEC34AB8EEE03A63EEA73A35EE435A97
:100C3C00B0EE473ABDEEE31A24EE274ABEEEE03A98
:100C4C0065EEA75A26EE276AFDEEC41A66EEA77A61
:100C5C0013EE103AF8EEC16AB0EE643ABEEEE03A2A
:100C6C0012EE902AD81873EEE63AB8EEE17A4FEA13
:100C7C00E37342EB430313EE101A0022801834EE98
:100C8C00474AB0EE637ABEEEE07A63672067CB1713
:100C9C0012EE100A49185B41184417EE103A8918E5
:100CAC00B0EE457ABEEEE07AA167D917DB18BDEE3F
:100CBC00E58A4941E0679B1811EE100AC4F88030B0
:100CCC0017EE103A0144F8EEC84AB0EE447ABEEE84
:100CDC00E07AC4F88410D917DB18FDEEC66A75EEFD
:100CEC00E45A10EE900A49419B18C4F8883017EE6C
:100CFC00103A0144F8EEE64AB0EE657ABEEEE07AC0
:100D0C00C4F88C10D917DB18BDEEE73A36EE646ADE
:100D1C0011EE900A49419B18C4F8903017EE103A26
:100D2C000144F8EEC34AB0EE467ABEEEE07AC4F85F
:100D3C009410D917DB1818EE100A494177EEE47AB3
:100D4C009B18C4F8983017EE103A0144B0EE677A4D
:100D5C00BEEEE07AC4F89C10D917DB1816EE900A98
:100D6C0049419B18C4F8A03017EE103A014413EE19
:100D7C00100AC4F8A410D917DB1840EB41019B18DA
:100D8C00C4E92A31C4F8B42011E4D4E93603894506
:100D9C0028BF4FF000095A184B45A2EB0002A3EBF9
:100DAC00000B0ABF8146A9EB000C4FF0000C9842D7
:100DBC0088BF9346266894F83071C4F8089009EB04
:100DCC000108BBF1000F00F06D8148459FEDB13A71
:100DDC0000F21382DFF8C4A2CDE900050DF108087A
:100DEC000AF14009654618E05D459FEDAD0A80F0BB
:100DFC006882BBF1010F2A4640F06A82121A009BEE
:100E0C001A448A4200D3521A3B463046FFF7E8FA9E
:100E1C00D145A8EC010A00F06A825AF8082FDAF8DA
:100E2C000430002BAEBF18460020002203460028D9
:100E3C00DAD007EE902AB8EE670A5D4520EE030A79
:100E4C00C0F03782B5FBFBF20BFB125232E2C91831
:100E5C0046EB0206C4E91A1650E5C91846EB020621
:100E6C00C4E918160DE5C91846EB0206C4E91616B6
:100E7C00D3E4C91846EB0206C4E9141699E4C91860
:100E8C0046EB0206C4E912165FE4C91846EB0206EB
:100E9C00C4E9101625E4C91846EB0206C4E90E167F
:100EAC00FFF7EBBBC91846EB0206C4E90C16FFF7BB
:100EBC00B2BB4FF000098A46C8464DE5D4F8403124
:100ECC009FED756A83EA433383EA534383EA431302
:100EDC0083EA433080EA504080EA40101B0AC4F891
:100EEC004001000A07EE903A07EE100AF8EEE77A96
:100EFC00B8EEC77A013E0123B34077EE877A07EE4E
:100F0C00103A67EE867AB8EEC77AF7EE006A77EE9B
:100F1C00E67A20EE070AF6EE006A77EE807AF5EEB6
:100F2C00C07AF1EE10FAC0F2C18177EEA67AFDEE2E
:100F3C00E77A2668F8EEE77A894587EE870A06EBAA
:100F4C008203B6D205E5DFED560AFFF70CBB07EEC0
:100F5C00903AB8EE670ADFED4F7A8A4220EE270A04
:100F6C0024BFB2FBF1F301FB1322424588BFAAEB6D
:100F7C0002023FF608AD04E507EE903AB8EE670AB8
:100F8C00DFED447A8A4220EE270A24BFB2FBF1F34C
:100F9C0001FB1322424588BFAAEB02023FF609ADC2
:100FAC0005E507EE903AB8EE670ADFED3A7A8A4229
:100FBC0020EE270A24BFB2FBF1F301FB13224245BA
:100FCC0088BFAAEB02023FF60AAD06E507EE903A9F
:100FDC00B8EE670ADFED2F7A8A4220EE270A24BF8B
:100FEC00B2FBF1F301FB1322424588BFAAEB0202CC
:100FFC003FF60BAD07E507EE903AB8EE670ADFED6A
:10100C00257A8A4220EE270A24BFB2FBF1F301FBBA
:10101C001322424588BFAAEB02023FF60CAD08E54D
:10102C0007EE903AB8EE670ADFED1A7A914220EE9D
:10103C00270A9CBFB2FBF1F301FB1322424588BF88
:10104C00AAEB02023FF60DAD09E507EE903AB8EEB9
:10105C00670ADFED107A914220EE270A9CBFB2FBA3
:10106C00F1F301FB1322424588BFAAEB02023FF6C3
:10107C000EAD0AE507EE903AB8EE670ADFED057A99
:10108C008A4220EE270AC0F0FE80B2FBF1F301FB8E
:10109C001322F8E00000802F00008033280000109D
:1010AC0000000000626B236B002ABCBF00220023EF
:1010BC00002A40F0268101291FED070A00F2358134
:1010CC00A9EB02023B463046FFF78AF9E26BA36BB1
:1010DC008DED020A002ABCBF00220023002A40F03A
:1010EC009C8101291FED120A00F2AD81A9EB0202CD
:1010FC003B463046FFF774F9626C236C8DED030AA6
:10110C00002ABCBF00220023002A40F07281012972
:10111C001FED1D0A00F29581A9EB02023B463046F9
:10112C00FFF75EF9E26CA36C8DED040A002ABCBFDC
:10113C0000220023002A40F0488101291FED280AD3
:10114C0000F28581A9EB02023B463046FFF748F9D5
:10115C00626D236D8DED050A002ABCBF00220023B1
:10116C00002A40F01E8101291FED330A00F26D8127
:10117C00A9EB02023B463046FFF732F9E26DA36D54
:10118C008DED060A002ABCBF00220023002A40F085
:10119C00F48001291FED3E0A00F25D81A9EB0202E9
:1011AC003B463046FFF71CF9626E236E8DED070A45
:1011BC00002ABCBF00220023002A40F0CA8001296B
:1011CC001FED490A00F24581A9EB02023B4630466D
:1011DC00FFF706F9E26EA36E8DED080A002ABCBF7C
:1011EC0000220023002A40F0A28001291FED540A9E
:1011FC0000F23381A9EB02025FE40095DFF86CA2E8
:10120C00A8EB00080DF10809054619E0D8459FED3B
:10121C00940A64D2BBF1010F404603D001238342F0
:10122C0088BF5844C31AEA188A4228BF521A3B4650
:10123C003046FFF7D5F88B4BA9EC010A9A4559D0EB
:10124C005AF8080FDAF80420002AAEBF1346002320
:10125C0000201A46002BD9D007EE900AD845B8EEDC
:10126C00670A2ABFB8FBFBF040460BFB10805B45BE
:10127C0020EE030A24BFB3FBFBF30BFB1323CEE7D7
:10128C00012272E60122424588BFAAEB02023FF618
:10129C0014AC10E40122E6E60122CFE60122B8E606
:1012AC000122A1E601228AE6012273E677EEE67AB4
:1012BC003DE62A465B450CD3B3FBFBF00BFB103031
:1012CC0007E0BBF1010F1AD0B5FBFBF20BFB12527E
:1012DC0001208242BFF492AD5A44121A8FE5BBF141
:1012EC00010F0AD0B8FBFBF00BFB108096E7019DB9
:1012FC00FFF7E9BB009DFFF7E6BB184692E70246F5
:10130C007CE507EE903AB8EE670ADFED577A91422A
:10131C0020EE270A9CBFB2FBF1F301FB132291458F
:10132C00BFF4CEAEA8EB0202CCE60122F7E707EE43
:10133C00903AB8EE670ADFED4C7A8A4220EE270A23
:10134C0024BFB2FBF1F301FB13229145FFF4B3ABC5
:10135C0050E707EE903AB8EE670ADFED437A914218
:10136C0020EE270A9CBFB2FBF1F301FB132291453F
:10137C00BFF42AAFA8EB020228E707EE903AB8EECA
:10138C00670ADFED397A914220EE270A9CBFB2FB47
:10139C00F1F301FB13229145BFF400AFA8EB02025D
:1013AC00FEE607EE903AB8EE670ADFED2F7A91422F
:1013BC0020EE270A9CBFB2FBF1F301FB13229145EF
:1013CC00BFF4D6AEA8EB0202D4E607EE903AB8EE24
:1013DC00670ADFED257A914220EE270A9CBFB2FB0B
:1013EC00F1F301FB13229145BFF4ACAEA8EB020262
:1013FC00AAE607EE903AB8EE670ADFED1B7A914247
:10140C0020EE270A9CBFB2FBF1F301FB132291459E
:10141C00BFF482AEA8EB020280E607EE903AB8EE7B
:10142C00670ADFED117A914220EE270A9CBFB2FBCE
:10143C00F1F301FB13229145BFF458AEA8EB020265
:10144C0056E60122E3E70122F5E70122B7E7012284
:10145C00C9E701228BE701229DE7012275E700BF56
:10146C0000000000680000100000802F2800001011
:10147C0010B5A14CD4ED527AF7EE001A71EEE71AC2
:10148C002DED028BF5EEC01AF1EE10FA94ED538AA5
:10149C0084B000F1BA80B0EE617ADFED987AD4EDC9
:1014AC00026AD4ED545AB4EEE77AF1EE10FAF8EE83
:1014BC00666A00F1E98094ED551A9FED917A9FEDE3
:1014CC00916AF6EE007A21EE077AB4EEE71AF1EEA5
:1014DC0010FA27EE066A80F29580B5EEC06AF1EE3E
:1014EC0010FA31EE272A18DAFEEE007A77EE867AB9
:1014FC009FED855A9FED856AFDEEE77AF8EEE77A67
:10150C0067EE857A37EE677AB4EEC67AF1EE10FAAA
:10151C007EDDDFED7B7A37EEC77A67EE077ADFED9B
:10152C007C2A9FED7C6ADFED7C4A9FED7C5ACDEDE9
:10153C00035A67EEA22A28EE010A72EEC62AB7EE0B
:10154C00006A62EEA72A30EE250A72EEA42A012068
:10155C0062EEA72A8DED016A72EEC52A94ED565AF9
:10156C00CDED026A62EEA72A30EE050A72EE862AEB
:10157C0036EEC00A62EE872A62EEA22A76EE620A84
:10158C00FEF70EFEDDED035AD4ED577ADDED026A5F
:10159C0028EE022A62EE802A32EE252A012032EE53
:1015AC00272A36EEC20AFEF7FBFDC1EE887A9DEDC6
:1015BC00016A77EE817A20EE800AF4EEC67AF1EEBB
:1015CC0010FA30EE220A30DBD4F86431002B53D100
:1015DC00D4F86021C4F858214FF0FF33C4F86431BB
:1015EC00B7EE007A77EEC77AF4EEC77AF1EE10FA1E
:1015FC00F8DA0123C4F86831C4ED557A04B0BDECB7
:10160C00028B10BD31EE672A70E7B1EE617A44E7C8
:10161C00DFED437AB4EEE77AF1EE10FA7FF57DAFA9
:10162C00DFED407A37EEC77A77E7F5EEC07AF1EE68
:10163C0010FA4FF000033BD4B6EE007AB4EEC71AA2
:10164C00F1EE10FAF4EEC77AACBF01210021F1EEF5
:10165C0010FAACBF012200229142CDD0D4F8642103
:10166C00012A08BFD4F86031C4F85C314FF0FF3266
:10167C00C4F864210023BDE700224FF0FF33C4F807
:10168C005821C4F86431ABE7B6EE000A28EE000A24
:10169C004FF0FF3330EE250A012036EEC00AC4F8B5
:1016AC00643104B0BDEC028BBDE81040FEF778BD90
:1016BC00D4F86421BAB14FF0FF32C4F85831C4F8F1
:1016CC0064210123C4F86831B7EE007A77EE877A8B
:1016DC00F5EEC07AF1EE10FAF8D4C4ED557A04B0F8
:1016EC00BDEC028B10BDD4F86021C4F858214FF02A
:1016FC00FF33C4F86431E4E70000001017B7D138A9
:10170C00DB0F494083F9223EDB0FC940DB0FC93F99
:10171C0091EE3836470C50398588083CABAA2A3EE6
:10172C00DB0FC9BFDB0F49C0DFF8C0C02E4BDCF8A4
:10173C00002042F48072CCF80020ACF5806C01E003
:10174C00013B44D0DCF81424D207F9D5274A264BA8
:10175C004FF0920CC2F810C0DFF894C001E0013BCE
:10176C002DD0DCF814249207F9D5204A1E4B92692F
:10177C00DFF87CC001E0013B2CD0DCF8142412060D
:10178C00F9D51A4A184BDFF868C0106101E0013B2B
:10179C0023D0DCF814241006F9D5144A124B144843
:1017AC00116101E0013B1BD0D0F814245207F9D58C
:1017BC000E4A136843F400730020136070470B4A01
:1017CC00136843F400736FF00100136070474FF01F
:1017DC00FF3070476FF0020070476FF003007047E6
:1017EC006FF00400704700BF400D03000054004030
:1017FC000050004010B5DFF8A0C0864684B0172218
:10180C0000214FF480644FF080602EFA02F313F045
:10181C00010F0CBF4FF080534FF48053CCF81830AD
:10182C000191019B0B2B05DC019B01330193019B67
:10183C000B2BF9DDCCF818400291029B0B2B05DC2D
:10184C00029B01330293029B0B2BF9DDCCF81800A1
:10185C000391039B0B2B05DC039B01330393039B2D
:10186C000B2BF9DD013AD0D20A4A00234FF4004188
:10187C0091610093009B0B2B05DC009B01330093C3
:10188C00009B0B2BF9DD034B4FF000429A6104B027
:10189C0010BD00BF00000240000802402DE9F04FCF
:1018AC00154B2DED088B1A6851058BB009D4124BD2
:1018BC001A68120500F1FD820BB0BDEC088BBDE877
:1018CC00F08FDFF848A00D4A9FED0DAADFED0D9AC1
:1018DC009FED0D9A4FF480619960D2ED048AD34646
:1018EC000AEB01080AF5C0670025B7EE008A0AF674
:1018FC0098090AF6840439E10064024000000020D3
:10190C00000000346F12033BFEFFFF4A180000205A
:10191C00B6EE083AB4EEC34AF1EE10FA40F3FC818D
:10192C0034EE434AF1EE002A64EE222A72EE882A43
:10193C00C4EE223A73EE833AF4EEC83AF1EE10FAA2
:10194C0040F3EA81864BC8F80030B5EEC05AF1EE90
:10195C0010FAB0EE454A00F1C885F6EE083AB4EE3E
:10196C00E35AF1EE10FA40F3D98535EE635AB1EE35
:10197C00003A25EE033A33EE083A85EE034A34EE8C
:10198C00234AB4EEC84AF1EE10FA40F3C785744B03
:10199C00C8F80430F5EEC05AF1EE10FAB0EE655A04
:1019AC0000F17785B6EE084AF4EEC45AF1EE10FA5F
:1019BC0040F3888575EEC45AF1EE003A65EEA33A11
:1019CC0073EE883A85EEA35A35EE045AB4EEC85A33
:1019DC00F1EE10FA40F37685614BC8F80830B5EE9D
:1019EC00C06AF1EE10FAF0EE465A00F12685B6EE1A
:1019FC00085AB4EEC56AF1EE10FA40F3378536EEAC
:101A0C00456AB1EE004A26EE044A34EE084AC6EEA8
:101A1C00045A75EE855AF4EEC85AF1EE10FA40F3FA
:101A2C0025854F4BC8F80C30F5EEC06AF1EE10FA74
:101A3C00B0EE666A00F1D584F6EE085AF4EEE56A6B
:101A4C00F1EE10FA40F3E68476EEE56AB1EE005A58
:101A5C0026EE855A35EE085A86EE856A36EE256AEC
:101A6C00B4EEC86AF1EE10FA40F3D4843C4BC8F8DB
:101A7C001030B5EEC07AF1EE10FAF0EE476A00F1D4
:101A8C008484B6EE086AB4EEC67AF1EE10FA40F32E
:101A9C00958437EE467AF1EE005A67EE255A75EECC
:101AAC00885AC7EE256A76EE866AF4EEC86AF1EEBD
:101ABC0010FA40F383842A4BC8F81430F5EEC07A40
:101ACC00F1EE10FAB0EE677A00F13384F6EE086AA4
:101ADC00F4EEE67AF1EE10FA40F3448477EEE67A0F
:101AEC00B1EE006A27EE866A36EE086A87EE867AD1
:101AFC0037EE267AB4EEC87AF1EE10FA40F332845F
:101B0C00174BC8F81830F5EEC04AF1EE10FAB0EEEB
:101B1C00647A00F17181F6EE087AF4EEE74AF1EEA0
:101B2C0010FA40F3828174EEE74AF1EE006A64EE3B
:101B3C00A66A76EE886A84EEA67A37EE277AB4EE39
:101B4C00C87AF1EE10FA40F37081054BC8F81C30DE
:101B5C0008F1200847450BF1200B00F0808105E0CF
:101B6C00FFFF7F0072F97F3F0AD7A33CDBF8003000
:101B7C0043F3170300EE103AB8EEC00A20EE0A0A3F
:101B8C00B5EEC00AF1EE10FA00F13381F0EE40AA86
:101B9C00DBF80420D9ED006ADBF8083099ED006A17
:101BAC0042F3170207EE102A7AEEE66AB8EEC77A0D
:101BBC0043F3170366EEA96A07EE903A27EE0A7A0A
:101BCC0076EE866AF8EEE77AB5EEC07AF1EE10FAA8
:101BDC0067EE8A7AC9ED006A01D5B1EE477AF5EE67
:101BEC00C07AF1EE10FA01D5F1EE677A94ED006A45
:101BFC00D4ED006A37EE467AF0EE680A27EE297AC1
:101C0C0002A837EE267A84ED007AD4ED016A94EDC1
:101C1C00017A77EEE67A67EEA97A77EE877AC4EDE9
:101C2C00017AFEF78BFC9AF87038002B40F089840F
:101C3C009DED024A9DED035ADDED045A9DED056ABA
:101C4C00DDED066A9DED077ADDED087ADDED094ADA
:101C5C00B0EE44BAF0EE450AB0EE651AF0EE461A54
:101C6C00B0EE662AF0EE472AB0EE673AB0EE640AA0
:101C7C00B4EEC8BAF1EE10FAC0F2A7800123F4EE6C
:101C8C00C80AF1EE10FAC0F296800123B4EEC81A1D
:101C9C00F1EE10FAC0F285800123F4EEC81AF1EED1
:101CAC0010FA74DB0123B4EEC82AF1EE10FA64DBEF
:101CBC000123F4EEC82AF1EE10FA54DB0123B4EE42
:101CCC00C83AF1EE10FA44DB0123B4EEC80AF1EE87
:101CDC0010FA33DB0125B5EEC04AF1EE10FAF0EE46
:101CEC00443A7FF515AEBEEE084AF4EEC43AF1EE76
:101CFC0010FA11D5F6EE082AF1EE633A73EEE23AD9
:101D0C00B1EE004A23EE844A34EE084A83EE843A5C
:101D1C0033EE224AF1EE443ABFEE004AB4EEE34A07
:101D2C00F1EE10FAD8BFB0EE634A24EE094ABDEECC
:101D3C00C44A14EE103A23F07F4304E6FFEE003A57
:101D4C00B4EEE30AF1EE10FA8CBF1D4643F0010528
:101D5C00C1E7FFEE003AB4EEE33AF1EE10FA98BFA9
:101D6C0043F00103B1E7FFEE003AF4EEE32AF1EEA3
:101D7C0010FA98BF43F00103A1E7FFEE003AB4EE6E
:101D8C00E32AF1EE10FA98BF43F0010391E7FFEE5E
:101D9C00003AF4EEE31AF1EE10FA98BF43F00103A7
:101DAC0081E7FFEE003AB4EEE31AF1EE10FA98BFB9
:101DBC0043F0010371E7FFEE003AF4EEE30AF1EEB3
:101DCC0010FA98BF43F0010360E7FFEE003AB4EE5F
:101DDC00E3BA5FED9C3AF1EE10FAF4EEE3AA94BF8D
:101DEC0001230023F1EE10FAA8BF43F001032B43AB
:101DFC0045E7F1EE40AACBE6FEEE087AF4EEE74AB0
:101E0C00F1EE10FA11D5B6EE086AB1EE647A37EE3F
:101E1C00467AF1EE007A67EE277A77EE887AC7EE8B
:101E2C00276A76EE867AB1EE677AFFEE007AF4EEE8
:101E3C00C77AF1EE10FAD8BFF0EE477A67EE897ADE
:101E4C0008F12008FDEEE77A0BF1200B17EE903A23
:101E5C0023F07F4348F8043C47457FF487AEDAF81B
:101E6C00A0380133CAF8A038002D40F07486DAF897
:101E7C00A028DAF8A4389A4280F07F86DAF8A028F5
:101E8C00DAF8A4389A42FFF412AD94ED007A5FEDC3
:101E9C00CA7A154BB4EEE77AF1EE10FACCBF4FF0DC
:101EAC0000624FF400629A61104B1A6812057FF5BC
:101EBC0003ADDFF84CA00E4A9FED0EAADFED0E9A93
:101ECC009FED0E9A4FF400619960D2ED048AD346CF
:101EDC000AF580650AF5C0680027B7EE008A0AF695
:101EEC0098090AF684040EE10000024000640240E6
:101EFC0000000020000000346F12033BFEFFFF4A7D
:101F0C0018000020F6EE083AB4EEE35AF1EE10FA9F
:101F1C0040F3FD8135EE635AB1EE003A25EE033AFB
:101F2C0033EE083A85EE034A34EE234AB4EEC84A3F
:101F3C00F1EE10FA40F3EB81E24BC5F80432F5EE0A
:101F4C00C05AF1EE10FAB0EE655A00F12985B6EEE2
:101F5C00084AF4EEC45AF1EE10FA40F33A8575EEE5
:101F6C00C45AF1EE003A65EEA33A73EE883A85EE68
:101F7C00A35A35EE045AB4EEC85AF1EE10FA40F3F7
:101F8C002885D04BC5F80832B5EEC06AF1EE10FAD0
:101F9C00F0EE465A00F1D884B6EE085AB4EEC56A93
:101FAC00F1EE10FA40F3E98436EE456AB1EE004AE0
:101FBC0026EE044A34EE084AC6EE045A75EE855AEB
:101FCC00F4EEC85AF1EE10FA40F3D784BD4BC5F8C5
:101FDC000C32F5EEC06AF1EE10FAB0EE666A00F162
:101FEC008784F6EE085AF4EEE56AF1EE10FA40F347
:101FFC00988476EEE56AB1EE005A26EE855A35EEF7
:10200C00085A86EE856A36EE256AB4EEC86AF1EE99
:10201C0010FA40F38684AB4BC5F81032B5EEC07A9B
:10202C00F1EE10FAF0EE476A00F12C84B6EE086A75
:10203C00B4EEC67AF1EE10FA40F33D8437EE467AF0
:10204C00F1EE005A67EE255A75EE885AC7EE256AEE
:10205C0076EE866AF4EEC86AF1EE10FA40F32B8441
:10206C00984BC5F81432F5EEC07AF1EE10FAB0EEDA
:10207C00677A00F1DC83F6EE086AF4EEE67AF1EEAC
:10208C0010FA40F3ED8377EEE67AB1EE006A27EEB4
:10209C00866A36EE086A87EE867A37EE267AB4EED2
:1020AC00C87AF1EE10FA40F3DB83864BC5F8183290
:1020BC00F5EEC04AF1EE10FAB0EE647A00F15B83F3
:1020CC00F6EE087AF4EEE74AF1EE10FA40F36C8380
:1020DC0074EEE74AF1EE006A64EEA66A76EE886A60
:1020EC0084EEA67A37EE277AB4EEC87AF1EE10FABF
:1020FC0040F35A83734BC5F81C32203545450BF120
:10210C00200B00F06A83DBF8003243F3170300EE78
:10211C00103AB8EEC00A20EE0A0AB5EEC00AF1EE8B
:10212C0010FA00F12583F0EE40AADBF80422D9ED79
:10213C00006ADBF8083299ED006A42F3170207EEE9
:10214C00102A7AEEE66AB8EEC77A43F3170366EE06
:10215C00A96A07EE903A27EE0A7A76EE866AF8EECE
:10216C00E77AB5EEC07AF1EE10FA67EE8A7AC9ED2D
:10217C00006A01D5B1EE477AF5EEC07AF1EE10FAAD
:10218C0001D5F1EE677A94ED006AD4ED006A37EE72
:10219C00467AF0EE680A27EE297A02A837EE267AFC
:1021AC0084ED007AD4ED016A94ED017A77EEE67A4B
:1021BC0067EEA97A77EE877AC4ED017AFEF7BEF95D
:1021CC009AF87038002B40F017849DED077ADDEDFE
:1021DC00066A9DED056ADDED045A9DED035A9DEDF1
:1021EC00024ADDED087ADDED094AF0EE472AB0EE41
:1021FC00662AF0EE461AB0EE651AB0EE45BAF0EE6D
:10220C00440AB0EE673AB0EE640AF4EEC80AF1EE96
:10221C0010FAC0F299820123B4EEC8BAF1EE10FAAA
:10222C00C0F288820123B4EEC81AF1EE10FAC0F2A3
:10223C0077820123F4EEC81AF1EE10FAC0F266822E
:10224C000123B4EEC82AF1EE10FAC0F25582012334
:10225C00F4EEC82AF1EE10FAC0F244820123B4EE77
:10226C00C83AF1EE10FAC0F233820123B4EEC80A78
:10227C00F1EE10FAC0F221820127B5EEC04AF1EE60
:10228C0010FAF0EE443A00F1ED81B6EE083AB4EEF5
:10229C00C34AF1EE10FA40F3FE8134EE434AF1EEFC
:1022AC00002A64EE222A72EE882AC4EE223A73EED9
:1022BC00833AF4EEC83AF1EE10FA40F3EC81014B9C
:1022CC0002E000BFFFFF7F00C5F80032B5EEC05A38
:1022DC00F1EE10FAB0EE454A7FF514AEBEEE085A98
:1022EC00B4EEC54AF1EE10FA11D5B6EE083AB1EEDD
:1022FC00444A34EE434AB1EE005A24EE055A35EE08
:10230C00085AC4EE053A33EE835AB1EE454ABFEE95
:10231C00005AB4EEC45AF1EE10FAD8BFB0EE445ADB
:10232C0025EE095ABDEEC55A15EE103A23F07F433F
:10233C0003E6FEEE087AB4EEE77AF1EE10FA11D568
:10234C00B6EE086AB1EE477A37EE467AF1EE007ACD
:10235C0067EE277A77EE887AC7EE276A76EE867A6A
:10236C00B1EE677AFFEE007AF4EEC77AF1EE10FA6E
:10237C00D8BFF0EE477A67EE897AFDEEE77A17EE72
:10238C00903A23F07F43FFF7BCBBBEEE087AF4EE25
:10239C00C76AF1EE10FA11D5F6EE085AF1EE666A3C
:1023AC0076EEE56AB1EE007A26EE877A37EE087A99
:1023BC0086EE876A36EE257AF1EE476ABFEE007A32
:1023CC00B4EEE67AF1EE10FAD8BFB0EE667A27EEEC
:1023DC00097ABDEEC77A17EE103A23F07F43FFF768
:1023EC006BBBFEEE086AB4EEE66AF1EE10FA11D59C
:1023FC00B6EE085AB1EE466A36EE456AF1EE006A60
:10240C0066EE266A76EE886AC6EE265A75EE856A00
:10241C00B1EE666AFFEE006AF4EEC66AF1EE10FAEF
:10242C00D8BFF0EE466A66EE896AFDEEE66A16EEF5
:10243C00903A23F07F43FFF71ABBBEEE086AF4EE26
:10244C00C65AF1EE10FA11D5B6EE084AF1EE655AFD
:10245C0075EEC45AB1EE006A25EE866A36EE086A4D
:10246C0085EE865A35EE046AF1EE465ABFEE006AE6
:10247C00B4EEE56AF1EE10FAD8BFB0EE656A26EE5E
:10248C00096ABDEEC66A16EE103A23F07F43FFF7D9
:10249C00C9BAFEEE085AB4EEE55AF1EE10FA11D5AF
:1024AC00F6EE083AB1EE455A35EE635AF1EE005AA3
:1024BC0065EE255A75EE885A85EE254A74EE235A38
:1024CC00B1EE655AFFEE005AF4EEC55AF1EE10FA71
:1024DC00D8BFF0EE455A65EE895AFDEEE55A15EE79
:1024EC00903A23F07F43FFF778BABEEE085AB4EE69
:1024FC00C54AF1EE10FA11D5B6EE083AB1EE444ADF
:10250C0034EE434AB1EE005A24EE055A35EE085A21
:10251C00C4EE053A33EE835AB1EE454ABFEE005A8B
:10252C00B4EEC45AF1EE10FAD8BFB0EE445A25EE10
:10253C00095ABDEEC55A15EE103A23F07F43FFF74A
:10254C0027BAE64BD3ED5B6AD3ED5C7A93ED5D6A0B
:10255C0077EEE67AB5EE007A67EE867A77EEA67AB3
:10256C00F4EEC77AF1EE10FAC3ED5B7A08D4B1EE53
:10257C00007AF4EEC77AF1EE10FAD8BFB0EE677AB3
:10258C0083ED527A0193FEF773FF019BD3ED5B7AD7
:10259C0077EEC87AF5EEC07AF1EE10FA01D5F1EECD
:1025AC00677A9FEDCF7A9DED024A9DED035ADDEDE2
:1025BC00045A9DED056ADDED066ADDED094A67EE0C
:1025CC00877A9DED077AF4EEC87AF1EE10FAC8BF5F
:1025DC00F0EE487A78EE673A27EE800ADDED087A5D
:1025EC0023EE84BA63EE850A23EEA51A63EE861AEF
:1025FC0023EEA62A63EE872A23EEA73A63EEA43ACB
:10260C003BEE00BA70EE800A31EE001A71EE801AC1
:10261C0032EE002A72EE802A33EE003A33EE800A54
:10262C00B0EE4B4AB0EE605A8DED02BACDED030A16
:10263C008DED041ACDED051A8DED062ACDED072A88
:10264C008DED083A8DED090AF0EE415AB0EE616A53
:10265C00F0EE426AB0EE627AF0EE437AF0EE404A67
:10266C00FFF706BBBEEE084AF4EEC43AF1EE10FAE0
:10267C0011D5F6EE082AF1EE633A73EEE23AB1EEBA
:10268C00004A23EE844A34EE084A83EE843A33EE51
:10269C00224AF1EE443ABFEE004AB4EEE34AF1EEC0
:1026AC0010FAD8BFB0EE634A24EE094ABDEEC44A14
:1026BC0014EE103A23F07F4306E6FFEE003AB4EE38
:1026CC00E30AF1EE10FA8CBF1F4643F00107D4E584
:1026DC00FFEE003AB4EEE33AF1EE10FA98BF43F095
:1026EC000103C3E5FFEE003AF4EEE32AF1EE10FA33
:1026FC0098BF43F00103B2E5FFEE003AB4EEE32AD3
:10270C00F1EE10FA98BF43F00103A1E5FFEE003A99
:10271C00F4EEE31AF1EE10FA98BF43F0010390E5E2
:10272C00FFEE003AB4EEE31AF1EE10FA98BF43F064
:10273C0001037FE5FFEE003AB4EEE3BAF1EE10FAD6
:10274C0098BF43F001036EE5DFED663AF4EEE3AAC1
:10275C00FFEE003AF1EE10FAF4EEE30AACBF0123FF
:10276C000023F1EE10FA98BF43F001033B4353E50D
:10277C00F1EE40AAD9E4FEEE087AF4EEE74AF1EE67
:10278C0010FA11D5B6EE086AB1EE647A37EE467AD5
:10279C00F1EE007A67EE277A77EE887AC7EE276A31
:1027AC0076EE867AB1EE677AFFEE007AF4EEC77AAF
:1027BC00F1EE10FAD8BFF0EE477A67EE897A203541
:1027CC00FDEEE77A0BF1200B17EE903A23F07F43E6
:1027DC00C5F8FC3145457FF496ACDAF8A0380133E6
:1027EC00CAF8A038002F40F09881DAF8A028DAF85F
:1027FC00A4389A4280F0A381DAF8A028DAF8A43839
:10280C009A42FFF459A894ED007ADFED377A374BF2
:10281C00B4EEE77AF1EE10FACCBF4FF000624FF451
:10282C0000629A610BB0BDEC088BBDE8F08FFEEE38
:10283C00087AB4EEE77AF1EE10FA11D5B6EE086A22
:10284C00B1EE477A37EE467AF1EE007A67EE277AE8
:10285C0077EE887AC7EE276A76EE867AB1EE677ADB
:10286C00FFEE007AF4EEC77AF1EE10FAD8BFF0EE74
:10287C00477A67EE897AFDEEE77A17EE903A23F005
:10288C007F4313E4BEEE087AF4EEC76AF1EE10FA59
:10289C0011D5F6EE085AF1EE666A76EEE56AB1EEFF
:1028AC00007A26EE877A37EE087A86EE876A36EE5D
:1028BC00257AF1EE476ABFEE007AB4EEE67AF1EED5
:1028CC0010FAD8BFB0EE667A27EE097ABDEEC77A59
:1028DC0017EE103A23F07F43FFF7C3BB0000001044
:1028EC000000484272F97F3F0AD7A33C0000024027
:1028FC00FEEE086AB4EEE66AF1EE10FA11D5B6EE09
:10290C00085AB1EE466A36EE456AF1EE006A66EE9A
:10291C00266A76EE886AC6EE265A75EE856AB1EEA0
:10292C00666AFFEE006AF4EEC66AF1EE10FAD8BFE2
:10293C00F0EE466A66EE896AFDEEE66A16EE903AAD
:10294C0023F07F43FFF768BBBEEE086AF4EEC65A6D
:10295C00F1EE10FA11D5B6EE084AF1EE655A75EEA5
:10296C00C45AB1EE006A25EE866A36EE086A85EE28
:10297C00865A35EE046AF1EE465ABFEE006AB4EEA2
:10298C00E56AF1EE10FAD8BFB0EE656A26EE096A78
:10299C00BDEEC66A16EE103A23F07F43FFF717BB65
:1029AC00FEEE085AB4EEE55AF1EE10FA11D5F6EE39
:1029BC00083AB1EE455A35EE635AF1EE005A65EE1F
:1029CC00255A75EE885A85EE254A74EE235AB1EED7
:1029DC00655AFFEE005AF4EEC55AF1EE10FAD8BF64
:1029EC00F0EE455A65EE895AFDEEE55A15EE903A31
:1029FC0023F07F43FFF7C6BA664BD3ED5B6AD3ED8A
:102A0C005C7A93ED5D6A77EEE67AB5EE007A67EE66
:102A1C00867A77EEA67AF4EEC77AF1EE10FAC3ED69
:102A2C005B7A08D4B1EE007AF4EEC77AF1EE10FAC4
:102A3C00D8BFB0EE677A83ED527A0193FEF718FD9A
:102A4C00019BD3ED5B7A77EEC87AF5EEC07AF1EEA6
:102A5C0010FA01D5F1EE677A9FED4F7ADDED094A58
:102A6C009DED024A9DED035ADDED045A9DED056A7C
:102A7C00DDED066A67EE877A9DED077AF4EEC87A8B
:102A8C00F1EE10FAC8BFF0EE487A78EE673A27EE0E
:102A9C00800ADDED087A23EE844A23EE855A63EE34
:102AAC00A55A23EE866A63EEA66A23EE877A63EE56
:102ABC00A77A63EEA43A74EE000A35EE00BA35EE4E
:102ACC00801A76EE001A36EE802A77EE002A37EE60
:102ADC00803A33EE800AB0EE604AB0EE4B5ACDED40
:102AEC00020A8DED03BA8DED041ACDED051A8DEDAC
:102AFC00062ACDED072A8DED083A8DED090AF0EE88
:102B0C00415AB0EE616AF0EE426AB0EE627AF0EED3
:102B1C00437AF0EE404AFFF778BBDAF8A03803F2BC
:102B2C00EE23CAF8B8399AF89C3801338AF89C38E5
:102B3C00DAF8A028DAF8A4389A42FFF45DAEDAF895
:102B4C00A038DAF8B819154A8B4234BF4FF48033E9
:102B5C000123936150E6DAF8A03803F2EE23CAF8A9
:102B6C00B8399AF89C3801338AF89C38DAF8A028DE
:102B7C00DAF8A4389A42FFF481A9DAF8A038DAF826
:102B8C00B819064A8B4234BF4FF48033012393614A
:102B9C00FFF774B90000001000004842000002402A
:102BAC00704700BF054BD3F888204FF0006142F40A
:102BBC007002C3F888209960704700BF00ED00E0F8
:102BCC002DE98048AB4AAC4B9A42ADB016D2013BD2
:102BDC009B1A032B11460FD99B080133580802EBA3
:102BEC00C0050024C1E9004408318D42FAD1B3EB91
:102BFC00400F03D002EBC002002313609F4AA04990
:102C0C00136843F480331360D1F800389D03FBD56F
:102C1C009A4A9C49136C9C4843F080531364136C80
:102C2C000B6840F2057443F440430B6004609368F6
:102C3C00964923F47C4323F0F00343F4144393604C
:102C4C00516013688E4943F080731360D1F80038DB
:102C5C009C01FBD5894B9A6822F0030242F00202D8
:102C6C009A609C6804F00C04082CFAD1884AC3F8CA
:102C7C008820D3F88C20824922F4700222F4F85276
:102C8C0042F4C062C3F88C201A6842F080521A6079
:102C9C00D1F800389800FBD5784B9A6802F00C02FA
:102CAC00042A02F06E82082A02F0E582794B734AFC
:102CBC0079499068C0F3031001F5A07B085CC34010
:102CCC0076480360136B43F0FE031363136B01F13F
:102CDC0010004FF0030A4FF002094FF001084FF0BB
:102CEC000F0E4FF00C0C0268037915685E000AFA9F
:102CFC0006F725EA070509FA06F635431560556807
:102D0C0008FA03F625EA0605556095683D4395607B
:102D1C00D568072B25EA0705D56094BF002501254A
:102D2C0002EB850203F00703156A9B000EFA03F60B
:102D3C00083025EA06050CFA03F32B43834513628E
:102D4C00D1D14E4A936B43F001039363544B926B76
:102D5C00544A4FF4605018644FF4EA7058644FF4BE
:102D6C0083109864DA649A6D9206FCD409221A6571
:102D7C0044F61F6300BF1A46013B002AFAD1484BA8
:102D8C009A6D9706FCD40A221A65454B9A6D9606E5
:102D9C00FCD4EB221A65424B9A6D9506FCD4424A40
:102DAC001A654FF49F625A653D4B9A6D9006FCD4A0
:102DBC00324A3E48136BDFF80CB143F00A0313633D
:102DCC003B4B126B1A6822F440121A60DA6822F438
:102DDC00401242F48012DA601A6822F440021A603F
:102DEC00DA6822F4400242F48002DA60026822F4CB
:102DFC0040020260C26822F4400242F48002C260C7
:102E0C00026822F040720260C26822F0407242F006
:102E1C008072C2601A6822F440121A60DA6822F4D6
:102E2C00401242F48012DA601A6822F440021A60EE
:102E3C00DA6822F4400242F48002DA601B695A0517
:102E4C001C4B4CBFDFED1C1ADFED1C1ACBF800300D
:102E5C004FF40012CBF80420002003F5000243F8D5
:102E6C00040B9342FBD1164BCBF8BC30CBF8C430DF
:102E7C002AE000BF0000001078010010003802406A
:102E8C000030024000700040003C024008544007F3
:102E9C00005600020024F40020530008000000201B
:102EAC00000100A0610301010C600400000C024051
:102EBC0000040240000000D00080BB4700606A495B
:102ECC006F12833A00000010BF4BCBF8B030BF4BF1
:102EDC00CBF81430BE4BCBF81830BE4BCBF81C30B3
:102EEC00BD4BCBF82030BD4BCBF82430BC4BCBF8D2
:102EFC002830BC4BCBF82C30BB4BBC4ECBF8C8307D
:102F0C000022BB4BBB4DCBF8CC3000274FF07E538F
:102F1C00CBE93522CBF80820CBF8DC208BF8E0206D
:102F2C00CBF8106001220026DFF8F4C2CBF8C030D9
:102F3C00CBF8E430CBF80431CBF8B4208BF8D020AC
:102F4C00CBE90C67CBE90E67CBE91067CBE91267CD
:102F5C00CBE91467CBE91667CBE91867CBE91A679D
:102F6C00CBED2E1ACBF8E8308BF83021CBF840C1E2
:102F7C002A69CBF80831CBF8EC30CBF80C31CBF814
:102F8C00F030CBF81031CBF8F430CBF81431CBF85F
:102F9C00F830CBF81831CBF8FC30CBF81C31CBF82F
:102FAC000031CBF82031CBF82831CBF834312B69F8
:102FBC00CBF82C016FEA13336FEAD2225B0003F0DB
:102FCC00020302F0010213434FF0785E032BCBF89F
:102FDC0024E1CBF8380102F04B8101EB8301D1F8ED
:102FEC004031182B08BF0023834ACBF83C311369BE
:102FFC00824A834F1B055CBF824BCBF82831136B85
:10300C0043F002031363136C43F4804313647A4B51
:10301C00116C196821F0406141F0006119609968E8
:10302C0041F000619960596A21F4700141F4A001EA
:10303C005962196821F0405141F0005119609968AA
:10304C0041F000519960596A21F0706141F0A06122
:10305C005962196821F0404141F0004119609968AA
:10306C0041F000419960596A21F0704141F0A04152
:10307C005962196821F0407141F0807119604FF468
:10308C00805561499D6100204FF44D730B60486081
:10309C000B6843F040030B60536C43F480035364A0
:1030AC00536C136B43F038031363136B574B1D684E
:1030BC0025F0300545F020051D605D6825F0040500
:1030CC005D609D6845F030059D60DD6825F030053C
:1030DC00DD601D6A25F4706545F4C0651D621D68D0
:1030EC0025F4407545F400751D605D6825F01005EC
:1030FC005D609D6845F440759D60DD6825F4407504
:10310C00DD601D6A25F4702545F4C0251D621D681F
:10311C0025F4406545F400651D605D6825F02005CB
:10312C005D609D6845F440659D60DD6825F44065F3
:10313C00DD601D6A25F4700501F5EA3145F4C00522
:10314C001D620B68324D23F4405343F400530B6063
:10315C004B6823F040034B608B6843F440538B6007
:10316C00CB6823F44053CB600B6A23F0706343F0BD
:10317C00C0630B622968274B21F4405141F4005184
:10318C002960696821F040016960A96841F44051E7
:10319C00A960E96821F44051E960296A21F0706165
:1031AC0041F0C061296201265F601B4D1B499E6086
:1031BC0007F20147DD6019615F629E62DD6219638F
:1031CC00136B43F480032DE0CAF249F10000204256
:1031DC00000070420000A0420000C8420000F04213
:1031EC0000000C4300002043CDCCCC3E0000A0419D
:1031FC00CDCCCC3F000C0240000402400038024011
:10320C00C12012007D99D63E0038004000100240CB
:10321C000014024000580140FF0F06008007FF0019
:10322C00674523011363136BAA4B98629A6A12F0D9
:10323C000102FBD1A8491963DFF8E4A2A749C3F83E
:10324C0034A04FF48070D8629962C3F88820A14BE7
:10325C00D3F8882012F001020092F9D1A049C3F8EA
:10326C009010A049C3F894109F4AA0494FF4807065
:10327C00C3F88C00C3F88810102182F839134FF072
:10328C00007151609A6A42F001029A62D3F8882068
:10329C0042F00102C3F88820954B964A596A41F4D2
:1032AC0080315962596841F480315960136B43F095
:1032BC0001031363136B904B1A6822F0300242F037
:1032CC0010021A605A684FF4802122F004025A60EE
:1032DC009961009B0A930A9B884A934205DC0A9BDE
:1032EC0001330A930A9B9342F9DD834B1A6822F04F
:1032FC00300242F010021A605A68042122F00402D3
:10330C005A60996100230993099B7C4A934205DC1E
:10331C00099B01330993099B9342F9DD754A784B5C
:10332C00116B41F002011163116B196821F44031EA
:10333C0041F400311960596841F480715960996801
:10334C0041F480319960D96821F4403141F48031E5
:10335C00D960596A21F00F0141F0040159621968D2
:10336C0021F4402141F400211960596841F40071A5
:10337C005960996841F480219960D96821F4402101
:10338C0041F48021D960596A21F0F00141F04001EB
:10339C005962136C43F400131364136C594B4FF4C0
:1033AC0000421A6000212A2219605A60D222DA6186
:1033BC0001202B221A624FF6FF3618600D46524A36
:1033CC0001E0013A02D09F69BF07FAD41F684E4A48
:1033DC0047F480771F6001E0013A02D05F69FF0774
:1033EC00FAD55A69D20740F13B854A00D2B2474F11
:1033FC001A6105E0520500F13E85013F00F042855F
:10340C005A6912F0020FF5D09A691A684F090AEB43
:10341C00870742F400721A60D7F804C801F01F0243
:10342C0000FA02F242EA0C02C7F804280895089A3E
:10343C00B2F5FA6F06DA089A01320892089AB2F5D8
:10344C00FA6FF8DB01318029B9D1314BCAF8143845
:10345C007F210220FEF768F9F02105460320FEF7D4
:10346C0063F9362105430420FEF75EF9FF2105437D
:10347C000720FEF759F9002105430220FEF754F905
:10348C00102105430620FEF74FF9002105430720C4
:10349C00FEF74AF91F4B204A05435D601F4D194B3F
:1034AC004FF0920C9327EE26186815F801EBDFF815
:1034BC005C8040F48070186003E0B8F1010800F003
:1034CC00EF84D2F81404C007F7D51048C3F810C025
:1034DC002BE000BF00640240205801401855030047
:1034EC00405801401804002000E100E04055030062
:1034FC00005801400038024000000240DF930400F5
:10350C000004024000540040410D0300400D030034
:10351C00EEFFC00000000020005000406C5400087A
:10352C0018000020013800F0B384D2F8148418F08D
:10353C00020FF7D098691D4802E0013800F0B08402
:10354C00D2F8148418F0800FF7D01848C3F810E0A4
:10355C0002E0013800F0A484D2F814E41EF0040F49
:10356C00F7D0186840F480701860104802E00138F9
:10357C0000F09684D2F814E41EF0010FF7D01F610E
:10358C00186820F480601860084802E0013800F0E8
:10359C007F84D2F814E41EF0020FF7D098691868F3
:1035AC0040F400701860014805E000BF400D0300B6
:1035BC00013800F07584D2F814E41EF0400FF7D0F7
:1035CC00D3F810E0186840F4806018600AEB010032
:1035DC0001310A2980F818E87FF466AFB64AB74B78
:1035EC00116BB74D41F001011163116B196821F496
:1035FC00407141F480711960196821F4406141F403
:10360C00806119601968102721F44051202019603D
:10361C009F619861116B41F003011163116B196883
:10362C0021F0030141F0010119604FF480319961DF
:10363C00196821F00C0141F0040119600221996113
:10364C00196821F4404141F480411960802199614D
:10365C00196821F4403141F4803119604FF48071C4
:10366C009961196821F4400141F480011960002628
:10367C004FF400619961AAF824688AF82A68AAF8BC
:10368C002868296821F00F0141F0050129604FF4E9
:10369C004031A961116B41F005011163116B19687F
:1036AC0021F4407141F480711960196821F4406172
:1036BC0041F480611960196821F0404141F080416A
:1036CC001960196805F5806521F440511960296865
:1036DC0021F4401141F480112960296821F04071D6
:1036EC0041F0807129604FF0806C4FF000419F6178
:1036FC009861C5F818C09961136B43F00403136308
:10370C00136B2B6823F00C032B60EB6823F00C037A
:10371C0043F00403EB602B6823F030032B60EB6861
:10372C0023F030033B43EB602B6823F0C0032B608A
:10373C00EB6823F0C00343F04003EB602B6823F4E9
:10374C0040732B60EB6823F4407343F48073EB609D
:10375C002B6823F440632B60EB6823F4406343F441
:10376C008063EB602B6823F440532B60EB6823F4ED
:10377C00405343F48053EB60B046B146A4F10807C4
:10378C0007EB071007EB001000EB0030FEF732F8E8
:10379C0000230793079B0B2B05DC079B0133079337
:1037AC00079B0B2BF9DD00230693069B0B2B05DCEB
:1037BC00069B01330693069B0B2BF9DD012029692F
:1037CC0000FA07F249EA020311F0200F9BB208BF7E
:1037DC00994600FA04F3044449EA030011F0400F3F
:1037EC0080B208BF814648EA020011F0080F80B28F
:1037FC0008BF804648EA0300324311F0100F80B234
:10380C0092B208BF804611F0020F08BF1646334330
:10381C0011F0040F9BB208BF1E46102CAED12948E4
:10382C00FDF7E8FF244BAAF83298AAF83488AAF8D6
:10383C0036685A6C244942F480625A641A6B42F01E
:10384C0020021A635B6C0B68204A43F440330B6014
:10385C00A1F571414B6823F4403343F480334B6042
:10386C00002306215360D36251634FF4E0111161C0
:10387C00012191600B930B9B42F20F72934205DC7A
:10388C000B9B01330B930B9B9342F9DD0A4B0C48BA
:10389C001A6B0F49DFF840909FED0E2A42F00F0291
:1038AC001A631A6BC26822F47002C260CA686FF3A2
:1038BC008D02CA6012E000BF0038024000000240D6
:1038CC000004024077777700001402400022014088
:1038DC00000802400AD7233C78080020D0F80C18C6
:1038EC00C24A21F07071C0F80C18D16821F0404127
:1038FC00D160596C41F0100159645B6C1368BC4980
:10390C0023F4701343F420131360536A23F47F637E
:10391C0043F4EE635362B74ACBF84C214FF0874225
:10392C00CBF85021B44ACBF874214FF07E520023CF
:10393C00CBF84821CBF86C21CBF8702140F2D9227E
:10394C00CBF85431CBF85831CBF85C318A6042F269
:10395C000C02CA60CBF860314FF0FF33CBF8643106
:10396C000023F6EE007ACBF868314FF48073C9ED82
:10397C00007A4FF0FF0CAAF86C380123CDE901C393
:10398C009AF87038C9ED017AB0EE676AC9ED027A1F
:10399C00002B40F0CF82009B13F0030200F0D08488
:1039AC00009B13F03F0340F0BC82904A4FF480110F
:1039BC0091611193119B0B2B05DC119B013311931E
:1039CC00119B0B2BF9DD894B10229A61002310936C
:1039DC00109B0B2B05DC109B01331093109B0B2BB6
:1039EC00F9DD4FF0000C814A0D214FF400156046B3
:1039FC00202495610E900E9B0B2B05DC0E9B013346
:103A0C000E930E9B0B2BF9DD136994610F9013F041
:103A1C00400F4FEA4C0C0F9B1FFA8CFC18BF4CF05C
:103A2C00010C0B2B05DC0F9B01330F930F9B0B2B06
:103A3C00F9DD0139DDD16D4B1CF0020F4FF4001292
:103A4C009A611DBFCCF3800383F00103DBB2022328
:103A5C001CF0080F0CBF022701271CF0800FCCF3C1
:103A6C00001001F04680CCF3002484F001046400C3
:103A7C00E4B21CF4806504D01CF4007F14BF012553
:103A8C0002255E4EDBED2E7A31696FEADC2242EACA
:103A9C00912202F001013269D6F81080AAF82CC8E4
:103AAC008AF848388AF849788AF84A488AF87008B7
:103ABC00534805736FEA1C3040EAD22202F001022F
:103ACC008AF84B188AF84C2849ED017A002940F005
:103ADC00DE87002A00F0C8879AF82528002A01F012
:103AEC0093814FF48072012CAAF8242801F07F8175
:103AFC008E460E469AF87A08012801F07480022846
:103B0C0001F01581002801F02C81DBF80820BEF1B2
:103B1C00000F41F0AD829BF8D04006462046334C56
:103B2C004FF0020EC4F818E04FF4000EC4F818E081
:103B3C00012801F00C80DAF87C48944200F2F187FD
:103B4C009AF88048CAF87C28002C01F0D082013CFD
:103B5C00E4B2264A8AF880484FF0807EC2F818E01A
:103B6C008AF84E688AF84F08D9ED0E7ADFED256A8F
:103B7C009FED257A67EEA67A6FEA0C06F4EEC77A0B
:103B8C00F1EE10FA06F0010600F32B87FCEEE77A53
:103B9C0017EE902A8AF850288AF85448D9ED097AF9
:103BAC00DFED1A6A9FED187A67EEA67AF4EEC77A03
:103BBC00F1EE10FA00F3D687FCEEE77A17EE902AB6
:103BCC008AF85128D9ED0A7ADFED106A9FED0E7A4A
:103BDC0067EEA67AF4EEC77AF1EE10FA00F3FE86E1
:103BEC00FCEEE77A17EE902A14E000BF00000240CA
:103BFC00001001400000B44552499D3900180240A4
:103C0C00000000200000C84200007F4300007A44FE
:103C1C00C0FE9F498AF852289AF89C288AF85328A3
:103C2C00DAF8A008DAF8A4289042C0F08C859AF84B
:103C3C00A8283AB19AF8A928BA4201F0AF8000221C
:103C4C008AF8A8282A463846029C40EA021C644599
:103C5C001CD007EE900AF8EE677A67EEA17A3AB1BB
:103C6C00012A0CBFB6EE007AB5EE007A67EE877AC1
:103C7C001FED197AB4EEE77AF1EE10FAD8BFF0EE38
:103C8C00477A0122CBED2E7ACBF8B420019A002E84
:103C9C0040F01A819A4200F03B814FEA831E0EF1EC
:103CAC00006202F54042834C1068A04240F07D87D0
:103CBC00D088022840F079871489282C00F2758767
:103CCC00201D80B2CDE904C30290B2F80480501DCF
:103CDC00019041F221064FF6FF70019B039313F8FC
:103CEC0001CF019380EA0C204FEA400C000448BF3E
:103CFC008CEA060C4FEA4C001CF4004F18BF7040C5
:103D0C004FEA400C030448BF8CEA060C4FEA4C0007
:103D1C001CF4004F18BF70404FEA400C000448BF21
:103D2C008CEA060C4FEA4C001CF4004F18BF704094
:103D3C004FEA400C030448BF8CEA060C039B4FEA85
:103D4C004C001CF4004F80B2A3F1040C029B18BF72
:103D5C007040ACEB020C18BF80B26345BDD88045F7
:103D6C00DDE904C340F02187002C00F01E87601EA3
:103D7C00052841F23B8150486844A0EB0E00022814
:103D8C0041F234814D48A6085EF80080CDF8708071
:103D9C00012E704401F0F881D0F804E0CDF874E005
:103DAC00022E00F0E286D0F808E0CDF878E0032E81
:103DBC0000F0DB86D0F80CE0CDF87CE0042E00F0AF
:103DCC00D486D0F810E0CDF880E0052E00F0CD863A
:103DDC00D0F814E0CDF884E0062E00F0C686D0F8BA
:103DEC0018E0CDF888E0072E00F0BF86D0F81CE074
:103DFC00CDF88CE0082E00F0B886D0F820E0CDF895
:103E0C0090E00A2E40F0B186426A2592249AC9F8B5
:103E1C000020C9F804200022C9F808200122AAF8C1
:103E2C006C288AF8A8289DF894208AF8AB289DF86D
:103E3C0096209DED1C7ADDED1D7ADDF87880DDF89D
:103E4C007CE0209E219C2298DDED236A8AF8A978DB
:103E5C008AF8AA588AF8AC2801934FF0FF0C44E07A
:103E6C001A6842F400721A60DAF800280132CAF8B3
:103E7C000028FFF7DBBA5E611A6842F400721A6020
:103E8C00FFF7D4BA1A6842F400721A60FFF7CEBA80
:103E9C00DFF82CE0DEF8000040F40070CEF80000F3
:103EAC000AEB010001310A2980F818687FF4FCAA9A
:103EBC00FFF794BB723838326540FFF70AC0000830
:103ECC000054004000002043FE2A21D0FE225FED6A
:103EDC00036ACC48CC4CCD4EDFF84CE3DFF84C8376
:103EEC00DFEDCB7A0192B3EE047A01228BED047AEA
:103EFC00CBED057ACBF81880CBF81CE0CBF8206022
:103F0C00CBF82440CBF82800CBED0B6ACBF8B420CF
:103F1C00002940F04D84CAF8B0188AF8B418CDF8CE
:103F2C0008C0009B0133009330BF9AF87038002B07
:103F3C003FF431ADDBF86431002BBFF62CADDBED7B
:103F4C00527AB7EE007A37EE677AB5EEC07AF1EEB8
:103F5C0010FA00F1C786F0EE477ADFEDAE6AF4EEA8
:103F6C00E67AF1EE10FA3FF516ADDBED536ADBEDB8
:103F7C00557AC7EE265AF5EEC05AF1EE10FA40F318
:103F8C007E86B6EE005AF4EEC57AB7EE007AF1EE04
:103F9C0010FA37EE677A01D4B7EE085A75EE677AE5
:103FAC00B4EEE77AF1EE10FAF4EEC77A94BF01237F
:103FBC000023F1EE10FAB8BFB0EE677ADFED967A17
:103FCC00B4EEE77A83F00107F1EE10FACBF86871E2
:103FDC003FF7E1ACF2EE007A65EEA75AF4EEC75A61
:103FEC00F1EE10FA3FF7D7ACDBED542AF0EE627A23
:103FFC00B6EE007A66EE873A0BEB830393ED567AB6
:10400C00DFED8C5A73EEA73A002473EE873A07EE75
:10401C00904AB8EEE70A023430EE230AFCF78EF928
:10402C0020EE000AB4F5407F75EE805AEFD1DFED3B
:10403C007B7AF4EEE75AF1EE10FA3FF5ACACDBED1F
:10404C00027ADBF804109FED7B7A9FED751ADBF892
:10405C000040B8EE674A07EE901A0025F8EE676A42
:10406C002E4607EE906AB8EEE73A9FED725A33EEA1
:10407C00223AF0EE454A002007EE900AF8EEE77A75
:10408C0073EE270A34EE600AB5EEC00AF1EE10FAB0
:10409C000DD530EE260AB5EEC00AF1EE10FAF8D4C2
:1040AC00B4EEE60AF1EE10FA06DB30EE660AB4EE78
:1040BC00E60AF1EE10FAF8DAFDEEC00A10EE903ACC
:1040CC00F8EEE00A002B30EE600A03F10102C0F2B8
:1040DC001886994298BF5B1A04EB8303D3ED000A50
:1040EC00914298BF521A04EB820292ED008A73EE51
:1040FC00A77A38EE608A74EE677A28EE000AF5EE3D
:10410C00C07AF1EE10FA30EE200A0DD577EEA67AD1
:10411C00F5EEC07AF1EE10FAF8D4F4EEE67AF1EEA0
:10412C0010FA06DB77EEE67AF4EEE67AF1EE10FAA8
:10413C00F8DAFDEEE70A10EE903AF8EEE00A002B02
:10414C0077EEE07A03F10102C0F2D085994298BF74
:10415C005B1A04EB830393ED008A914298BF521AC9
:10416C0004EB8202D2ED008A78EEC88A60EE000A77
:10417C0068EEA77A023077EE887AB0F5407F67EE6A
:10418C00807A35EE205A74EEA74A7FF475AF25EE8F
:10419C00823AB4EEC35AF1EE10FA15D4F5EEC04AD9
:1041AC00F1EE10FA00F1B885F0EE647A64EEA77ABD
:1041BC0035EE015AC7EE854AB4EEE47AF1EE10FA08
:1041CC0002D5B0EE647A35460436B6F5966F7FF4B8
:1041DC0048AFF5EE007A65EEA75AF4EEC75AF1EE49
:1041EC0010FA00F3A08501F25F809FED0E4A9FED5F
:1041FC000C8A3A46F0EE440AEE1EEB1E1CAC2F1D48
:10420C001DE000BF00000C430000F0420000C8425B
:10421C000000204217B7D1388FC2753D95BFD633F9
:10422C005F708930CAF249F10000A0420000704270
:10423C00088FA1EF000000000136BE4253D0B6F546
:10424C00966FE4EC010AF7D207EE906AB8EEE75AE3
:10425C005FED085A039735EE225A0494F0EE656A26
:10426C004FF0000817461C4607EE908AB8EEE71A86
:10427C0008F1020835EE010AFCF760F8F0EE404A4E
:10428C0033EE810AFCF75AF864EEA47A64EE804AA5
:10429C00B8F5407F76EEA46A75EEA75AE4D1B4EE79
:1042AC00E53AF1EE10FA23463A46DDE90374C3DC35
:1042BC00F5EEC06AF1EE10FA00F16E86F0EE667A59
:1042CC0066EEA76A75EE885AC6EEA57AB4EEE74A92
:1042DC00F1EE10FA44ED017AAED535460136BE4208
:1042EC00B0EE674AABD1EB1A07EE905A17465A1E3E
:1042FC00042AF8EEE77A0CD82CA901EB820252EDD5
:10430C00106A1FED357AF4EEC76AF1EE10FA00F37D
:10431C0077871FED387AB4EEE77AF1EE10FAC8BF62
:10432C00F0EE477ADBF86431002BBFF634ABCBED03
:10433C00587A009BCBF8647113F003027FF430AB16
:10434C00AE4BD9689B68AE4B4FF0805199610D9282
:10435C000D9B272B05DC0D9B01330D930D9B272B00
:10436C00F9DDA64B9A689607FCD501221A73A34B6C
:10437C009A68D507FCD51B7B8AF874389F4B9A68D2
:10438C009407FCD5A0221A739C4B9A68D007FCD5D5
:10439C001B7B8AF87538994B9A689107FCD50022DB
:1043AC001A73964B9A68D207FCD51B7B934A8AF8F2
:1043BC007638936813F08003FBD1914A4FF4805107
:1043CC0091610C930C9B272B05DC0C9B01330C93FC
:1043DC000C9B272BF9DD894BDA689B68884B4FF0D7
:1043EC0080529A6100230D930D9B272B05DC0D9BAE
:1043FC0001330D930D9B272BF9DD804B9A689607A3
:10440C00FCD501221A737D4B9A68D507FCD51B7B12
:10441C008AF87738794B9A689407FCD5E0221A739E
:10442C00764B9A68D007FCD51B7B8AF87838734B8F
:10443C009A689107FCD500221A73704B9A68D207C0
:10444C00FCD51B7B8AF879386C4B9A6812F0800289
:10445C00FBD16B4B4FF4805199610C920C9B272B29
:10446C0005DC0C9B01330C930C9B272BF9DD9AF884
:10447C0075389AF876181B0203F470630B4305EE3B
:10448C00903A9AF878389AF879181B0203F470630A
:10449C000B431ED040F23622934240F3618640F229
:1044AC008152934240F3538640F60602934240F306
:1044BC005E8640F64B22934240F3408640F6015212
:1044CC00934240F30B8640F6FF72934240F0E08536
:1044DC001A464C49886840F0804088600868840718
:1044EC00FCD5C96C48489FED495AD0ED026A9FED46
:1044FC00487ADFED484AC1F30B0107EE901AF8EE4B
:10450C00677A77EEE67A67EE857A77EEA67A37EEFB
:10451C00C77AC0ED027AFCEEE77A27EE247A17EE22
:10452C00901AAAF838189AF87018002900F07682B8
:10453C0007EE902ADFED386A027BDFED383A9FED0B
:10454C00384AF8EEE74ADFED377A64EEA64A022ADB
:10455C0008BFF0EE637A67EEA47AB4EEC47AF7EE95
:10456C00006AF1EE10FA76EEE76A40F34D85B4EE90
:10457C00C57AF1EE10FA00F18380F8EEE57ADFED02
:10458C002A4A9FED2A5A67EEA47A67EE877A67EE7D
:10459C00857A9FED277AF4EEC77AF1EE10FAB8BF60
:1045AC00B0EE677AFDEEC77A17EE902AF8EEE77A4E
:1045BC0037EE677AB5EEC07AF1EE10FA40F13C8531
:1045CC00B7EE005A37EE057ADFED1A7ADFED1A4AAC
:1045DC00DFED1A3A9FED1A4A67EE277A7E3277EEB4
:1045EC00A47ADFED184A67EE877AD20577EEA37AC4
:1045FC0067EE877A77EE847A2CE000BF00380040B3
:10460C00000402400022014000000020CDCC4C3DB3
:10461C0000E0FF440210003A010880398FC2753E59
:10462C00CDCC4CBD8FC2753D010AA03A5555553FB6
:10463C000000FE4220C2AE3A3C951D3C4458633DFE
:10464C00F0FD753E1872313F000000000AD7233D83
:10465C000AD7A33C67EE877A77EEA47A67EE877A5F
:10466C0007EE102A77EE857A67EE877A66EEA76AF0
:10467C00F5EE007AF4EEE76AF1EE10FA00F1D88468
:10468C00F1EE007AF4EEE76AF1EE10FAD8BFF0EE34
:10469C00667ACBED5C7A5FED147A1FED147A9AF89A
:1046AC006C2877EEC67A67EE877A36EE276A002A90
:1046BC0042D0D9ED017A36EE677AB5EEC07AF1EEDA
:1046CC0010FA29D45FED1E6AB4EEE67AF1EE10FA18
:1046DC0029D49AF86D28002A40F00D85B4EEE76ACB
:1046EC00F1EE10FA04D8B4EE676AF1EE10FA1AD0B3
:1046FC00012289ED026A8AF86D28C9ED007ABA4A5E
:10470C00C2ED047A15EE902AAAF82E28AAF83038B1
:10471C0009ED026AFFF744B9DFEDB46AB4EEE67A4C
:10472C00F1EE10FAD5DD4FF48072F0EE467A89ED99
:10473C00026AAAF86C28E0E7F0EE467A89ED006A86
:10474C0089ED026ADBE7A848426982EA423282EAD2
:10475C00524282EA421212F0010408BF4FF4803434
:10476C0012F0020F426118BF4FF0020EA04808BFB2
:10477C004FF4003E12F0040F14BF4FF0800C4FF4B6
:10478C00000C12F0080F846114BF4FF480744FF0CA
:10479C00807412F0100F14BF4FF400624FF00062DF
:1047AC00C0F818E0C0F818C084618261FFF73FBA06
:1047BC00DAF8B0289AF8B408002A40F03682DAF811
:1047CC00A028002A40F039820122CAF8B02800281B
:1047DC007FF4A5AB0A46DAF8A0188A1A41F2707178
:1047EC008A427FF69CAB834A1C9200228DF86D2086
:1047FC008DF86F20DBF81020CDF87A20DBF8142030
:10480C00CDF87E20DBF81820CDF88220DBF81C20B8
:10481C00CDF88620DBF82020CDF88A20DBF8242088
:10482C00CDF88E20DBF82820CDF89220DBF82C2058
:10483C00CDF896206C4A8DF86C7012698DF86E501C
:10484C00CDF89A206C4ACDF876201B9ACDF89E2094
:10485C0001228AF8B4280DF175044FF6FF7241F26B
:10486C00210014F8011F82EA01225100150448BFEF
:10487C0041404A00090448BF42405100120448BF5D
:10488C0041404A000E0448BF42405100150448BF45
:10489C0041404A00090448BF42405100160448BF39
:1048AC0041400D044FEA41020DF1A10148BF4240C5
:1048BC00A142D6D15149ADF87420514A891A013A16
:1048CC00885C02F8010F4F488242F9D19A01A0F19D
:1048DC00FF044849A15004EB83131D9959601E999C
:1048EC0099601F99D9602099196121995961229970
:1048FC0099612399D961249919622599596226994C
:10490C0099622799D96202F132002546211802F1E9
:10491C00300402F13E03BDF8A0202A534FF0FF32C1
:10492C002A504A608A60EA52374B1A69002A04DA24
:10493C00364A5A6002F188325A60334AD368D80337
:10494C00FCD4F323D360136923F47E7323F00203A6
:10495C0043F4067343F002031361136943F4803389
:10496C001361294AD368D903FCD41369284823F06E
:10497C00FA031361136923F4407323F0010343F426
:10498C00007343F0010313611D4B1F4AC01A191F1A
:10499C0003F1FC04431851F8045F1D60D368DB037A
:1049AC00FCD4A142F6D113690F4923F00103136122
:1049BC00136943F0004313619AF84D3801338AF8B8
:1049CC004D38DAF8A03803F6B833CAF8A438DAF858
:1049DC00A0284B6953404B61FFF7A1BAFF22FFF7A8
:1049EC0019B9FF22FFF7D6B8000000200AD7A3BCE4
:1049FC0000000240723838320200280001C0000862
:104A0C00D0080020CF090020003C0240230167455C
:104A1C0004C00008CDCC4CBD010880395FED037A91
:104A2C00B4EEE77AF1EE10FA12DDB4EEC57AF1EEDF
:104A3C0010FA0DD540F6FF718A42A8BF0A4607EE60
:104A4C00902A1FED0B7AF8EEE77A67EE877A24E668
:104A5C00F8EEE57A67EE877AFDEEE77A17EE901AB4
:104A6C008A183FF518AEE5E7012CAAF8241800F0D7
:104A7C00BE819AF87A08012800F0E681022855D008
:104A8C00002800F06D81DBF80820FFF744B89AF895
:104A9C002408B0FA80FE4FEA5E1E002A00F09580D2
:104AAC009AF82568002E40F090800126B4428AF8CE
:104ABC0024188AF825687FF41DA8FCEEE77ADBF849
:104ACC00044017EE902A022A38BF0222201F82428D
:104ADC0028BF0246DBF8080082428ABF2418821ADB
:104AEC00A21ACBE936200220CBF808208BF8D00094
:104AFC0005E00124FEF7BDBF012800F08281C64C01
:104B0C00DBF8082002264FF0030E8AF87AE8A6613B
:104B1C004FF40006A661DAF87C48944240F22B82EE
:104B2C007646CAF87C280124FFF713B89BF8D020EE
:104B3C00012ADBF8082040F069810646B6484FF49C
:104B4C0000348461802484614FF0807484619AF80D
:104B5C008048CAF87C28002C6CD0013CE4B20120BF
:104B6C00FEF7F7BFFF22FFF72BB8B4EB860F4FEA27
:104B7C0086001AD0161896F80AE00DEB000686F897
:104B8C0070E0461CB6B2B4420FD902EB060E0230EE
:104B9C0080B26E449EF80AE086F870E0844204D934
:104BAC0002446844927A80F87020DFED9C6A9C483D
:104BBC009C4C9D4EDFF888E2DFF88882DFED9B7A13
:104BCC000193B3EE047AFFF790B98AF825280122F5
:104BDC0094428AF824283BD09AF87A0801284FF09E
:104BEC0000067EF48CAFDBF80840DAF8902894428B
:104BFC00C0F0E281002E40F05A81A01AFCEEE77A58
:104C0C0017EE902A824240F245819AF87A68BEF1FA
:104C1C00000F00F02A81CAF89048CBF8D440224605
:104C2C0001247D488BF8D04020E000283FF4D3AD20
:104C3C00FFF775B90120FEF793BFDAF8A028CAF880
:104C4C00B02800287FF46BA9002A3FF468A9C2E5BC
:104C5C00002840F0CC80DBF80820CBF8D4200120D1
:104C6C008BF8D00000266C488AF87A684FF4003430
:104C7C008461802484614FF48074846167E7B6EEAC
:104C8C00007AF4EEC77AF1EE10FA49DB37EEC77A08
:104C9C00F4EEC77AF1EE10FAB4EEE77A94BF012382
:104CAC000023F1EE10FAB8BFF0EE477A9FED607A70
:104CBC00F4EEC77A83F00107F1EE10FACBF86871C5
:104CCC003EF769AEB2EE007A65EEC75AF4EEE75ADB
:104CDC00F1EE10FA3EF75FAEDBED547A76EEA72AD2
:104CEC00FFF786B9F1EE477AFFF737B90B4404EBBF
:104CFC00830393ED008A002A3FF42FAA0A44FFF79E
:104D0C002FBA0B4404EB8303D3ED000A002A3FF4C3
:104D1C00E7A90A44FFF7E7B9F1EE647AFFF746BA60
:104D2C0037EE877AB4E7DFED437AFFF7FBBA9BF8EF
:104D3C00D020012A40F02881002E40F0EE80DBF8D4
:104D4C000820BEF1000F3FF4F8AE01263248CAF835
:104D5C009028CBF8D4208BF8D0608AF87A68EEE6ED
:104D6C008E469BF8D000DBF80820012839D1D9ED0C
:104D7C00097A9FED317AF4EEC77AF1EE10FA18D574
:104D8C0001208AF88C08022C1ED008F4805858EAAE
:104D9C000E0819D1464620480224D2E69AF8AA28D1
:104DAC00AA427EF44CAF9AF8AB089AF8AC28FEF7FE
:104DBC004BBF9AF88C080028E5D09FED207AF4EED2
:104DCC00C77AF1EE10FADEDD01260020CAF8902831
:104DDC00CBF8D4208BF8D0608AF87A688AF88C08E3
:104DEC00D9E70120CBF8D4208BF8D000BFE79AF894
:104DFC007A289BF8D000032A3FF47EAE01287FF47A
:104E0C002AAFDBF808202DE78E464EE60124CBF8BE
:104E1C00D4208BF8D04090E60000024000002043E4
:104E2C0000000C430000F0420000C8420000204289
:104E3C008FC2753D000000006F12033C0AD7A33CE3
:104E4C000000A04200007042DBF80840DAF89068DD
:104E5C00FCEEE77AA64217EE902A18D904F5001E4C
:104E6C00AEEB0606964215D206469BF8D0002246BB
:104E7C00C84C4FF4003EC4F818E04FF0800EC4F854
:104E8C0018E04FF4807EC4F818E0FEF751BEA61B64
:104E9C009642E9D31CF0400F00F0938002269BF859
:104EAC00D000CAF8944822468AF87A68E0E7DBF822
:104EBC000400824203D3B2FBF0F600FB16229442AC
:104ECC006ED0CBE93624B34CCBF808204FF4003E1F
:104EDC00022003268BF8D0008AF87A68C4F818E010
:104EEC004FF0800EC4F818E04FF4807EC4F818E040
:104EFC00DAF87C48A242FFF414AE9AF88048CAF85B
:104F0C007C28002C7EF423AE0220A24A4FF480743D
:104F1C00946103260024FEF723BEDBF80460DAF864
:104F2C009028DAF89448B24224BFB2FBF6FE06FB96
:104F3C001E22B44224BFB4FBF6FE06FB1E44A24262
:104F4C0034D0CBE936244FF0020E924C8BF8D0E0E3
:104F5C004FF400364FF0030ECBF808208AF87AE8AD
:104F6C00A6618026A6614FF08076A661DAF87C48AF
:104F7C0094423FF6D5AD9AF88048CAF87C28002CAC
:104F8C00C3D07646FEF7E3BDDBF80820CBF8D4207F
:104F9C0001228BF8D020CFE6F1EE667AFFF790B9BC
:104FAC0003269BF8D0008AF87A6861E70320DBF8C7
:104FBC0008208AF87A08C0E596B904F50010801A22
:104FCC001CE6DBF80460022A38BF0222301F824242
:104FDC0028BF0246A2428ABF3619A21AB21A70E73B
:104FEC00DBF804008242BFF466AF6AE709321CA802
:104FFC00A61812F801EF00F801EBB242F9D1282CF7
:10500C007FF4D3ADFEF702BF9FED635ADFED634A29
:10501C00F8EEE57A67EE857A9FED615A67EE877A4E
:10502C0067EEA47AF4EEC57AF1EE10FA3FF6B1AA67
:10503C00F5EE007AFFF72DBBDFED5A7ADFED5A4A19
:10504C009FED5A5A9FED5A4A67EE277A7F3277EED8
:10505C00A47AD20567EE877ADFED564A77EE857A29
:10506C00B7EE005A67EE877A77EE847AFFF7F2BADA
:10507C004848CAF8902801260224CBF8D4208BF893
:10508C00D0608AF87A6884614FF4000484615EE52C
:10509C006FF45065DFED486A9FED487A9FED485AF2
:1050AC002B4407EE903AF8EEE74A9FED464AC4EEE1
:1050BC00857ADFED3A4A9FED445A67EEA67A77EE91
:1050CC00877A77EEC47A67EEA47A67EE857AFCEE7F
:1050DC00E77A17EE902A1346FFF7FBB9DFED3B6A30
:1050EC009FED3B7A9FED3B5AA3F64B23D9E7032E5A
:1050FC007EF436AD09E799ED027AF4EEC77AF1EE5B
:10510C0010FA05DBB4EEE76AF1EE10FABFF60BAB62
:10511C00F4EEC77AF1EE10FA3FF6EAAAB4EEE76ABB
:10512C00F1EE10FA3FF6E4AA4FF48072F0EE467AF4
:10513C0089ED026AAAF86C28FFF7DFBADFED1E6A68
:10514C009FED255AA3F60603B7EE007AA9E7DFED2B
:10515C00236A9FED237A9FED235AA3F23623A0E70F
:10516C00DFED216A9FED177A9FED205A99E76FF4D6
:10517C00B066DFED1A6A9FED1E7A9FED1E5A33441E
:10518C008FE71D4BFDF793BD907B8DF874000526C2
:10519C000420FAE400000240010AA03A5555553F9C
:1051AC000000FCC220C2AE3A3C951D3C4458633D05
:1051BC00F0FD753E1872313FD0CC4C3E3333B33FCB
:1051CC0000403F44CDCCCC3E00F07F45C8CC4C3E9B
:1051DC009A99993F00802D4400401144CCCC4C3E10
:1051EC009A99193F00C05244CECC4C3E00800D44DD
:1051FC00CDCC4C3F0040214400127A00CCBC8CAB8F
:10520C0001EB830252ED0F5AF4EEC75AF1EE10FA8D
:10521C007FF77FA801EB830313ED107A1FED095A7A
:10522C0037EE077A36EEC77A37EE257AB4EEC57AC2
:10523C00F1EE10FA7FF56DA876EEE56AF6EE005AFF
:10524C0066EEA56ABFEE005AC6EE875AF4EEC55A52
:10525C00F1EE10FA7FF75DA8B7EE007AF4EEC75ABC
:10526C00F1EE10FA7FF555A877EEA57AFFF751B855
:10527C000423FDF7B9BE59685A685B684902C3F349
:10528C0088134CBF0B490C4902F03F02B1FBF2F200
:10529C0002FB03F3094A5268C2F301420132520085
:1052AC00B3FBF2F3FDF703BD07EE905AF8EEE77A85
:1052BC00FFF738B800127A000024F40000380240DE
:1052CC00DFF834D0FDF76EFC0C480D490D4A002375
:1052DC0002E0D458C4500433C4188C42F9D30A4A9F
:1052EC000A4C002301E013600432A242FBD3FDF709
:1052FC0057FCFDF765FC7047000003200000002000
:10530C00180000207854000818000020D409002050
:04531C00FEE70000A8
:105320000000000000000000010203040607080955
:10533000000C02400E000000000C02400F000000B4
:10534000000C024000000000000C024001000000C0
:10535000001002400700000000100240080000009A
:105360000010024009000000001002400A00000086
:10537000001002400B000000001002400C00000072
:10538000001002400D000000001002400E0000005E
:10539000001002400F000000000C02400800000056
:1053A000000C024009000000000C02400A0000004E
:1053B0000014024000000000001402400100000040
:1053C000001402400200000000140240030000002C
:1053D0000014024004000000001402400500000018
:1053E000001402400C000000001402400D000000F8
:1053F000001402400E000000001402400F000000E4
:1054000000180240000000000018024001000000E7
:1054100000180240040000000018024005000000CF
:1054200000100240000000000010024001000000D7
:10543000001402400B000000001802400F000000A2
:1054400000080240000000000018024008000000B0
:1054500000040240050000000004024006000000B5
:10546000180000000C000000080000000102030406
:085470000506070811180000F1
:105478000024F400EEEEEEEE00E0FF440100000030
:085488000000003F78563412C9
:04000005080052CDD0
:00000001FF
